{
  "abi": [
    {
      "inputs": [],
      "stateMutability": "nonpayable",
      "type": "constructor"
    },
    {
      "inputs": [],
      "name": "Initialized",
      "type": "error"
    },
    {
      "inputs": [],
      "name": "ZeroAddress",
      "type": "error"
    },
    {
      "anonymous": false,
      "inputs": [
        {
          "indexed": true,
          "internalType": "address",
          "name": "previousOwner",
          "type": "address"
        },
        {
          "indexed": true,
          "internalType": "address",
          "name": "newOwner",
          "type": "address"
        }
      ],
      "name": "OwnershipTransferred",
      "type": "event"
    },
    {
      "stateMutability": "payable",
      "type": "fallback"
    },
    {
      "inputs": [],
      "name": "FIRST_ELEMENT_PROGRESSION",
      "outputs": [
        {
          "internalType": "uint256",
          "name": "",
          "type": "uint256"
        }
      ],
      "stateMutability": "view",
      "type": "function"
    },
    {
      "inputs": [],
      "name": "FLAT_COST_SPONSORSHIP",
      "outputs": [
        {
          "internalType": "uint256",
          "name": "",
          "type": "uint256"
        }
      ],
      "stateMutability": "view",
      "type": "function"
    },
    {
      "inputs": [],
      "name": "MAX_SPONSORSHIP_LEVEL",
      "outputs": [
        {
          "internalType": "uint256",
          "name": "",
          "type": "uint256"
        }
      ],
      "stateMutability": "view",
      "type": "function"
    },
    {
      "inputs": [],
      "name": "MAX_SPONSORSHIP_PATH_OUTFLOW",
      "outputs": [
        {
          "internalType": "uint256",
          "name": "",
          "type": "uint256"
        }
      ],
      "stateMutability": "view",
      "type": "function"
    },
    {
      "inputs": [
        {
          "internalType": "uint8",
          "name": "level",
          "type": "uint8"
        },
        {
          "internalType": "uint32",
          "name": "protegeCount",
          "type": "uint32"
        },
        {
          "internalType": "uint256",
          "name": "totalWeightedFactor",
          "type": "uint256"
        }
      ],
      "name": "calculateSponsorAmount",
      "outputs": [
        {
          "internalType": "int96",
          "name": "flow",
          "type": "int96"
        }
      ],
      "stateMutability": "pure",
      "type": "function"
    },
    {
      "inputs": [
        {
          "internalType": "uint8",
          "name": "level",
          "type": "uint8"
        }
      ],
      "name": "getAllocation",
      "outputs": [
        {
          "internalType": "uint256",
          "name": "allocation",
          "type": "uint256"
        }
      ],
      "stateMutability": "pure",
      "type": "function"
    },
    {
      "inputs": [
        {
          "internalType": "address",
          "name": "protege",
          "type": "address"
        }
      ],
      "name": "getChainOfSponsors",
      "outputs": [
        {
          "components": [
            {
              "internalType": "address",
              "name": "sponsor",
              "type": "address"
            },
            {
              "internalType": "uint8",
              "name": "level",
              "type": "uint8"
            },
            {
              "internalType": "uint32",
              "name": "protegeCount",
              "type": "uint32"
            }
          ],
          "internalType": "struct SuperfluidClub.Protege[6]",
          "name": "sponsors",
          "type": "tuple[6]"
        }
      ],
      "stateMutability": "view",
      "type": "function"
    },
    {
      "inputs": [
        {
          "internalType": "uint8",
          "name": "protegeLvl",
          "type": "uint8"
        }
      ],
      "name": "getFlowRateAmount",
      "outputs": [
        {
          "internalType": "int96",
          "name": "flowRate",
          "type": "int96"
        }
      ],
      "stateMutability": "pure",
      "type": "function"
    },
    {
      "inputs": [
        {
          "internalType": "uint8",
          "name": "sponsorLvl",
          "type": "uint8"
        }
      ],
      "name": "getMaxFlowRateByLevel",
      "outputs": [
        {
          "internalType": "int96",
          "name": "maxFlowRate",
          "type": "int96"
        }
      ],
      "stateMutability": "pure",
      "type": "function"
    },
    {
      "inputs": [
        {
          "internalType": "uint8",
          "name": "protegeLvl",
          "type": "uint8"
        }
      ],
      "name": "getProtegeLevelWeight",
      "outputs": [
        {
          "internalType": "uint256",
          "name": "levelWeight",
          "type": "uint256"
        }
      ],
      "stateMutability": "pure",
      "type": "function"
    },
    {
      "inputs": [
        {
          "internalType": "address",
          "name": "superTokenFactory",
          "type": "address"
        }
      ],
      "name": "initialize",
      "outputs": [],
      "stateMutability": "nonpayable",
      "type": "function"
    },
    {
      "inputs": [
        {
          "internalType": "address",
          "name": "initialAddress",
          "type": "address"
        }
      ],
      "name": "initializeProxy",
      "outputs": [],
      "stateMutability": "nonpayable",
      "type": "function"
    },
    {
      "inputs": [
        {
          "internalType": "address",
          "name": "protege",
          "type": "address"
        }
      ],
      "name": "isProtege",
      "outputs": [
        {
          "internalType": "bool",
          "name": "",
          "type": "bool"
        }
      ],
      "stateMutability": "view",
      "type": "function"
    },
    {
      "inputs": [
        {
          "internalType": "uint256",
          "name": "amount",
          "type": "uint256"
        }
      ],
      "name": "mint",
      "outputs": [],
      "stateMutability": "nonpayable",
      "type": "function"
    },
    {
      "inputs": [],
      "name": "owner",
      "outputs": [
        {
          "internalType": "address",
          "name": "",
          "type": "address"
        }
      ],
      "stateMutability": "view",
      "type": "function"
    },
    {
      "inputs": [],
      "name": "renounceOwnership",
      "outputs": [],
      "stateMutability": "nonpayable",
      "type": "function"
    },
    {
      "inputs": [],
      "name": "restartStream",
      "outputs": [],
      "stateMutability": "nonpayable",
      "type": "function"
    },
    {
      "inputs": [
        {
          "internalType": "address payable",
          "name": "newProtege",
          "type": "address"
        }
      ],
      "name": "sponsor",
      "outputs": [],
      "stateMutability": "payable",
      "type": "function"
    },
    {
      "inputs": [
        {
          "internalType": "address",
          "name": "newOwner",
          "type": "address"
        }
      ],
      "name": "transferOwnership",
      "outputs": [],
      "stateMutability": "nonpayable",
      "type": "function"
    },
    {
      "inputs": [
        {
          "internalType": "address",
          "name": "receiver",
          "type": "address"
        },
        {
          "internalType": "uint256",
          "name": "amount",
          "type": "uint256"
        }
      ],
      "name": "withdraw",
      "outputs": [],
      "stateMutability": "nonpayable",
      "type": "function"
    },
    {
      "stateMutability": "payable",
      "type": "receive"
    }
  ],
  "bytecode": {
    "object": "0x608060405234801561001057600080fd5b5061001a3361001f565b610071565b602080546001600160a01b038381166001600160a01b0319831681179093556040519116919082907f8be0079c531659141344cd1fd0a4f28419497f9722a3daafe3b4186f6b6457e090600090a35050565b611c03806100806000396000f3fe6080604052600436106101235760003560e01c8063b132a50d116100a0578063da3a6a1211610064578063da3a6a1214610318578063e4a472c814610338578063f2fde38b14610368578063f349f56a14610388578063f3fef3a3146103a55761012a565b8063b132a50d14610275578063b144a77b14610290578063b5c0b7eb146102c3578063c41a4735146102d8578063c4d66de8146102f85761012a565b8063766c4f37116100e7578063766c4f37146101de57806378575643146101f15780638da5cb5b14610211578063a0712d6814610238578063a2698fc0146102585761012a565b80631c945f591461013457806321fb177a146101675780634a0687ef1461019457806357cf7acb146101b4578063715018a6146101c95761012a565b3661012a57005b6101326103c5565b005b34801561014057600080fd5b5061015461014f366004611639565b6103f7565b6040519081526020015b60405180910390f35b34801561017357600080fd5b50610187610182366004611670565b61041d565b60405161015e919061168d565b3480156101a057600080fd5b506101326101af366004611670565b6104da565b3480156101c057600080fd5b50610132610576565b3480156101d557600080fd5b50610132610648565b6101326101ec366004611670565b61065a565b3480156101fd57600080fd5b5061015461020c366004611639565b6109c4565b34801561021d57600080fd5b50602080546040516001600160a01b0390911681520161015e565b34801561024457600080fd5b506101326102533660046116ea565b610a32565b34801561026457600080fd5b506101546813d64c843842b1000081565b34801561028157600080fd5b50610154662386f26fc1000081565b34801561029c57600080fd5b506102b06102ab366004611703565b610a75565b604051600b9190910b815260200161015e565b3480156102cf57600080fd5b50610154600681565b3480156102e457600080fd5b506102b06102f3366004611639565b610ad1565b34801561030457600080fd5b50610132610313366004611670565b610b4a565b34801561032457600080fd5b506102b0610333366004611639565b610c05565b34801561034457600080fd5b50610358610353366004611670565b610c93565b604051901515815260200161015e565b34801561037457600080fd5b50610132610383366004611670565b610cb3565b34801561039457600080fd5b5061015468270801d946c940000081565b3480156103b157600080fd5b506101326103c036600461174b565b610d29565b6103f56103f07f360894a13ba1a3210667c828492db98dca3e2076cc3735a920a3ca505d382bbc5490565b610e3b565b565b6000610404826002611871565b610417906813d64c843842b10000611880565b92915050565b6104256115e9565b8160005b61043282610c93565b156104d3576001600160a01b03828116600090815260216020908152604091829020825160608101845290549384168152600160a01b840460ff1691810191909152600160a81b90920463ffffffff16908201528382610491816118a2565b9350600681106104a3576104a36118bb565b602090810291909101919091526001600160a01b0392831660009081526021909152604090205490911690610429565b5050919050565b6001600160a01b0381166105015760405163d92e233d60e01b815260040160405180910390fd5b600061052b7f360894a13ba1a3210667c828492db98dca3e2076cc3735a920a3ca505d382bbc5490565b6001600160a01b031614610552576040516302ed543d60e51b815260040160405180910390fd5b7f360894a13ba1a3210667c828492db98dca3e2076cc3735a920a3ca505d382bbc55565b61057f33610c93565b6105c15760405162461bcd60e51b815260206004820152600e60248201526d4e6f7420612070726f746567652160901b60448201526064015b60405180910390fd5b60006105ce308033610e5f565b905080600b0b6000146106145760405162461bcd60e51b815260206004820152600e60248201526d53747265616d2072756e6e696e6760901b60448201526064016105b8565b33600081815260216020526040902054610644919061063c90600160a01b900460ff16610ad1565b309190610ef7565b5050565b610650610f1e565b6103f56000610f78565b61066381610c93565b156106a55760405162461bcd60e51b8152602060048201526012602482015271416c726561647920612070726f746567652160701b60448201526064016105b8565b6000806106ba6020546001600160a01b031690565b6001600160a01b0316336001600160a01b0316146106da573360006106de565b3060015b915091506106eb82610c93565b806106f35750805b6107385760405162461bcd60e51b8152602060048201526016602482015275596f7520617265206e6f7420612070726f746567652160501b60448201526064016105b8565b6001600160a01b0382166000908152602160205260409020543490600160a01b900460ff16662386f26fc100008210156107a75760405162461bcd60e51b815260206004820152601060248201526f4e6f7420656e6f75676820636f696e2160801b60448201526064016105b8565b6107b8662386f26fc10000836118d1565b915060068160ff161061080d5760405162461bcd60e51b815260206004820152601e60248201527f4d61782073706f6e736f7273686970206c6576656c207265616368656421000060448201526064016105b8565b6040518060600160405280856001600160a01b0316815260200182600161083491906118e4565b60ff9081168252600060209283018190526001600160a01b03808a1682526021845260408083208651815496880151979092015163ffffffff16600160a81b0263ffffffff60a81b1997909516600160a01b026001600160a81b03199096169190921617939093179390931617905581855b6108af81610c93565b15610969576001600160a01b03811660009081526021602052604090208054600160a81b900463ffffffff168160156108e7836118fd565b91906101000a81548163ffffffff021916908363ffffffff1602179055505061090f836103f7565b6109199085611920565b93508261092581611933565b82549094506109589150839061095390600160a01b810460ff1690600160a81b900463ffffffff1688610a75565b610fca565b546001600160a01b031690506108a6565b61097b8861063c6102f38760016118e4565b5084156109ba576040516001600160a01b0389169086156108fc029087906000818181858888f193505050501580156109b8573d6000803e3d6000fd5b505b5050505050505050565b60008160ff166001036109d957506032919050565b8160ff166002036109ec57506019919050565b8160ff166003036109ff5750600c919050565b8160ff16600403610a1257506006919050565b8160ff16600503610a2557506003919050565b506001919050565b919050565b610a3a610f1e565b610a72308260005b6040519080825280601f01601f191660200182016040528015610a6c576020820181803683370190505b50610ff6565b50565b6000808363ffffffff16610a88866103f7565b610a929190611966565b9050610ac86201518084610aaf8468270801d946c9400000611966565b610ab99190611880565b610ac39190611880565b611054565b95945050505050565b600080610add83610c05565b905060006064610aec856109c4565b610aff9068270801d946c9400000611966565b610b099190611880565b905060006bffffffffffffffffffffffff83168211610b285781610b38565b6bffffffffffffffffffffffff83165b9050610ac8610ac36201518083611880565b602054600160a01b900460ff1615610b9a5760405162461bcd60e51b8152602060048201526013602482015272105b1c9958591e481a5b9a5d1a585b1a5e9959606a1b60448201526064016105b8565b6020805460ff60a01b1916600160a01b178155604080518082018252600580825264086d8eac4b60db1b828501819052835180850190945290835292820192909252610be79183916110a1565b610a7230710125dfa371a19e6f7cb54395ca00000000006000610a42565b60008160ff16600103610c21575067016345785d8a0000919050565b8160ff16600203610c3a575066b1a2bc2ec50000919050565b8160ff16600303610c53575066470de4df820000919050565b8160ff16600403610c6c5750662386f26fc10000919050565b8160ff16600503610c8557506611c37937e08000919050565b5066038d7ea4c68000919050565b6001600160a01b0390811660009081526021602052604090205416151590565b610cbb610f1e565b6001600160a01b038116610d205760405162461bcd60e51b815260206004820152602660248201527f4f776e61626c653a206e6577206f776e657220697320746865207a65726f206160448201526564647265737360d01b60648201526084016105b8565b610a7281610f78565b610d31610f1e565b6001600160a01b038216610d7a5760405162461bcd60e51b815260206004820152601060248201526f24b73b30b634b2103932b1b2b4bb32b960811b60448201526064016105b8565b60008111610dbb5760405162461bcd60e51b815260206004820152600e60248201526d125b9d985b1a5908185b5bdd5b9d60921b60448201526064016105b8565b80471015610e005760405162461bcd60e51b81526020600482015260126024820152714e6f7420656e6f7567682062616c616e636560701b60448201526064016105b8565b6040516001600160a01b0383169082156108fc029083906000818181858888f19350505050158015610e36573d6000803e3d6000fd5b505050565b3660008037600080366000845af43d6000803e808015610e5a573d6000f35b3d6000fd5b600080610e6b85611124565b604051631cd43d1160e31b81526001600160a01b03888116600483015287811660248301528681166044830152919350908316915063e6a1e88890606401608060405180830381865afa158015610ec6573d6000803e3d6000fd5b505050506040513d601f19601f82011682018060405250810190610eea919061197d565b5090979650505050505050565b60408051600080825260208201909252610f16908590859085906112a5565b949350505050565b6020546001600160a01b031633146103f55760405162461bcd60e51b815260206004820181905260248201527f4f776e61626c653a2063616c6c6572206973206e6f7420746865206f776e657260448201526064016105b8565b602080546001600160a01b038381166001600160a01b0319831681179093556040519116919082907f8be0079c531659141344cd1fd0a4f28419497f9722a3daafe3b4186f6b6457e090600090a35050565b6000610fd7308085610e5f565b600b0b1315610feb57610e363083836113d1565b610e36308383610ef7565b60405163c68d428360e01b8152309063c68d42839061101d90869086908690600401611a11565b600060405180830381600087803b15801561103757600080fd5b505af115801561104b573d6000803e3d6000fd5b50505050505050565b60006b7fffffffffffffffffffffff82111561109d5760405162461bcd60e51b81526020600482015260086024820152676f766572666c6f7760c01b60448201526064016105b8565b5090565b604051633504b4d160e21b81523060048201526001600160a01b0384169063d412d34490602401600060405180830381600087803b1580156110e257600080fd5b505af11580156110f6573d6000803e3d6000fd5b50506040516285fc1360e71b81523092506342fe0980915061101d9060009060129087908790600401611a38565b7f65599bf746e17a00ea62e3610586992d88101b78eec3cf380706621fb97ea837547fb969d79d88acd02d04ed7ee7d43b949e7daf093d363abcfbbc43dfdfd1ce969a546001600160a01b038116611274576001600160a01b0382166111e957826001600160a01b03166320bc44256040518163ffffffff1660e01b8152600401602060405180830381865afa1580156111c2573d6000803e3d6000fd5b505050506040513d601f19601f820116820180604052508101906111e69190611a82565b91505b604051635b69006f60e11b81527fa9214cc96615e0085d3bb077758db69497dc2dce3b2b1e97bc93c3d18d83efd360048201526001600160a01b0383169063b6d200de90602401602060405180830381865afa15801561124d573d6000803e3d6000fd5b505050506040513d601f19601f820116820180604052508101906112719190611a82565b90505b6001600160a01b03821661128a5761128a611a9f565b6001600160a01b0381166112a0576112a0611a9f565b915091565b60008060006112b3876113f0565b91509150816001600160a01b03166339255d5b82836001600160a01b03166362fc305e8b8b8b600067ffffffffffffffff8111156112f3576112f3611950565b6040519080825280601f01601f19166020018201604052801561131d576020820181803683370190505b506040516024016113319493929190611ab5565b60408051808303601f1901815291815260208201805160e094851b6001600160e01b03909116179052519185901b6001600160e01b031916825261137c939250908990600401611af5565b6000604051808303816000875af115801561139b573d6000803e3d6000fd5b505050506040513d6000823e601f3d908101601f191682016040526113c39190810190611b2b565b506001979650505050505050565b60408051600080825260208201909252610f169085908590859061159b565b7f65599bf746e17a00ea62e3610586992d88101b78eec3cf380706621fb97ea837547fb969d79d88acd02d04ed7ee7d43b949e7daf093d363abcfbbc43dfdfd1ce969a546001600160a01b038116611274576001600160a01b0382166114b557826001600160a01b03166320bc44256040518163ffffffff1660e01b8152600401602060405180830381865afa15801561148e573d6000803e3d6000fd5b505050506040513d601f19601f820116820180604052508101906114b29190611a82565b91505b604051635b69006f60e11b81527fa9214cc96615e0085d3bb077758db69497dc2dce3b2b1e97bc93c3d18d83efd360048201526001600160a01b0383169063b6d200de90602401602060405180830381865afa158015611519573d6000803e3d6000fd5b505050506040513d601f19601f8201168201806040525081019061153d9190611a82565b9050817f65599bf746e17a00ea62e3610586992d88101b78eec3cf380706621fb97ea83755807fb969d79d88acd02d04ed7ee7d43b949e7daf093d363abcfbbc43dfdfd1ce969a556001600160a01b03821661128a5761128a611a9f565b60008060006115a9876113f0565b91509150816001600160a01b03166339255d5b82836001600160a01b03166350209a628b8b8b600067ffffffffffffffff8111156112f3576112f3611950565b6040518060c001604052806006905b60408051606081018252600080825260208083018290529282015282526000199092019101816115f85790505090565b803560ff81168114610a2d57600080fd5b60006020828403121561164b57600080fd5b61165482611628565b9392505050565b6001600160a01b0381168114610a7257600080fd5b60006020828403121561168257600080fd5b81356116548161165b565b6102408101818360005b60068110156116e157815180516001600160a01b0316845260208082015160ff168186015260409182015163ffffffff169185019190915260609093019290910190600101611697565b50505092915050565b6000602082840312156116fc57600080fd5b5035919050565b60008060006060848603121561171857600080fd5b61172184611628565b9250602084013563ffffffff8116811461173a57600080fd5b929592945050506040919091013590565b6000806040838503121561175e57600080fd5b82356117698161165b565b946020939093013593505050565b634e487b7160e01b600052601160045260246000fd5b600181815b808511156117c85781600019048211156117ae576117ae611777565b808516156117bb57918102915b93841c9390800290611792565b509250929050565b6000826117df57506001610417565b816117ec57506000610417565b8160018114611802576002811461180c57611828565b6001915050610417565b60ff84111561181d5761181d611777565b50506001821b610417565b5060208310610133831016604e8410600b841016171561184b575081810a610417565b611855838361178d565b806000190482111561186957611869611777565b029392505050565b600061165460ff8416836117d0565b60008261189d57634e487b7160e01b600052601260045260246000fd5b500490565b6000600182016118b4576118b4611777565b5060010190565b634e487b7160e01b600052603260045260246000fd5b8181038181111561041757610417611777565b60ff818116838216019081111561041757610417611777565b600063ffffffff80831681810361191657611916611777565b6001019392505050565b8082018082111561041757610417611777565b600060ff82168061194657611946611777565b6000190192915050565b634e487b7160e01b600052604160045260246000fd5b808202811582820484141761041757610417611777565b6000806000806080858703121561199357600080fd5b84519350602085015180600b0b81146119ab57600080fd5b6040860151606090960151949790965092505050565b60005b838110156119dc5781810151838201526020016119c4565b50506000910152565b600081518084526119fd8160208601602086016119c1565b601f01601f19169290920160200192915050565b60018060a01b0384168152826020820152606060408201526000610ac860608301846119e5565b6001600160a01b038516815260ff84166020820152608060408201819052600090611a65908301856119e5565b8281036060840152611a7781856119e5565b979650505050505050565b600060208284031215611a9457600080fd5b81516116548161165b565b634e487b7160e01b600052600160045260246000fd5b6001600160a01b03858116825284166020820152600b83900b6040820152608060608201819052600090611aeb908301846119e5565b9695505050505050565b6001600160a01b0384168152606060208201819052600090611b19908301856119e5565b8281036040840152611aeb81856119e5565b600060208284031215611b3d57600080fd5b815167ffffffffffffffff80821115611b5557600080fd5b818401915084601f830112611b6957600080fd5b815181811115611b7b57611b7b611950565b604051601f8201601f19908116603f01168101908382118183101715611ba357611ba3611950565b81604052828152876020848701011115611bbc57600080fd5b611a778360208301602088016119c156fea2646970667358221220ea9b7882cb0a9ceeb7a89de6b7e8d933d2528cba3eee5b6ad0cd0da4b2f6817b64736f6c63430008130033",
    "linkReferences": {}
  },
  "methodIdentifiers": {
    "FIRST_ELEMENT_PROGRESSION()": "a2698fc0",
    "FLAT_COST_SPONSORSHIP()": "b132a50d",
    "MAX_SPONSORSHIP_LEVEL()": "b5c0b7eb",
    "MAX_SPONSORSHIP_PATH_OUTFLOW()": "f349f56a",
    "calculateSponsorAmount(uint8,uint32,uint256)": "b144a77b",
    "getAllocation(uint8)": "1c945f59",
    "getChainOfSponsors(address)": "21fb177a",
    "getFlowRateAmount(uint8)": "c41a4735",
    "getMaxFlowRateByLevel(uint8)": "da3a6a12",
    "getProtegeLevelWeight(uint8)": "78575643",
    "initialize(address)": "c4d66de8",
    "initializeProxy(address)": "4a0687ef",
    "isProtege(address)": "e4a472c8",
    "mint(uint256)": "a0712d68",
    "owner()": "8da5cb5b",
    "renounceOwnership()": "715018a6",
    "restartStream()": "57cf7acb",
    "sponsor(address)": "766c4f37",
    "transferOwnership(address)": "f2fde38b",
    "withdraw(address,uint256)": "f3fef3a3"
  },
  "id": 113
}