{
  "abi": [
    {
      "inputs": [
        {
          "internalType": "contract ISuperfluid",
          "name": "host",
          "type": "address"
        },
        {
          "internalType": "contract IConstantOutflowNFT",
          "name": "constantOutflowNFT",
          "type": "address"
        },
        {
          "internalType": "contract IConstantInflowNFT",
          "name": "constantInflowNFT",
          "type": "address"
        }
      ],
      "stateMutability": "nonpayable",
      "type": "constructor"
    },
    {
      "inputs": [],
      "name": "ALREADY_PROTEGE",
      "type": "error"
    },
    {
      "inputs": [],
      "name": "CLUB_NFT_PROXY_ADDRESS_CHANGED",
      "type": "error"
    },
    {
      "inputs": [],
      "name": "CLUB_PROTEGE_CANNOT_BE_OWNER",
      "type": "error"
    },
    {
      "inputs": [],
      "name": "INVALID_AMOUNT",
      "type": "error"
    },
    {
      "inputs": [],
      "name": "MAX_SPONSORSHIP_LEVEL_REACHED",
      "type": "error"
    },
    {
      "inputs": [],
      "name": "NOT_ENOUGH_BALANCE",
      "type": "error"
    },
    {
      "inputs": [],
      "name": "NOT_ENOUGH_COIN",
      "type": "error"
    },
    {
      "inputs": [],
      "name": "NOT_OWNER",
      "type": "error"
    },
    {
      "inputs": [],
      "name": "NOT_PROTEGE",
      "type": "error"
    },
    {
      "inputs": [],
      "name": "SF_TOKEN_AGREEMENT_ALREADY_EXISTS",
      "type": "error"
    },
    {
      "inputs": [],
      "name": "SF_TOKEN_AGREEMENT_DOES_NOT_EXIST",
      "type": "error"
    },
    {
      "inputs": [],
      "name": "SF_TOKEN_BURN_INSUFFICIENT_BALANCE",
      "type": "error"
    },
    {
      "inputs": [],
      "name": "SF_TOKEN_MOVE_INSUFFICIENT_BALANCE",
      "type": "error"
    },
    {
      "inputs": [],
      "name": "SF_TOKEN_ONLY_HOST",
      "type": "error"
    },
    {
      "inputs": [],
      "name": "SF_TOKEN_ONLY_LISTED_AGREEMENT",
      "type": "error"
    },
    {
      "inputs": [],
      "name": "SUPER_TOKEN_APPROVE_FROM_ZERO_ADDRESS",
      "type": "error"
    },
    {
      "inputs": [],
      "name": "SUPER_TOKEN_APPROVE_TO_ZERO_ADDRESS",
      "type": "error"
    },
    {
      "inputs": [],
      "name": "SUPER_TOKEN_BURN_FROM_ZERO_ADDRESS",
      "type": "error"
    },
    {
      "inputs": [],
      "name": "SUPER_TOKEN_CALLER_IS_NOT_OPERATOR_FOR_HOLDER",
      "type": "error"
    },
    {
      "inputs": [],
      "name": "SUPER_TOKEN_INFLATIONARY_DEFLATIONARY_NOT_SUPPORTED",
      "type": "error"
    },
    {
      "inputs": [],
      "name": "SUPER_TOKEN_MINT_TO_ZERO_ADDRESS",
      "type": "error"
    },
    {
      "inputs": [],
      "name": "SUPER_TOKEN_NFT_PROXY_ADDRESS_CHANGED",
      "type": "error"
    },
    {
      "inputs": [],
      "name": "SUPER_TOKEN_NOT_ERC777_TOKENS_RECIPIENT",
      "type": "error"
    },
    {
      "inputs": [],
      "name": "SUPER_TOKEN_NO_UNDERLYING_TOKEN",
      "type": "error"
    },
    {
      "inputs": [],
      "name": "SUPER_TOKEN_ONLY_GOV_OWNER",
      "type": "error"
    },
    {
      "inputs": [],
      "name": "SUPER_TOKEN_ONLY_HOST",
      "type": "error"
    },
    {
      "inputs": [],
      "name": "SUPER_TOKEN_ONLY_SELF",
      "type": "error"
    },
    {
      "inputs": [],
      "name": "SUPER_TOKEN_TRANSFER_FROM_ZERO_ADDRESS",
      "type": "error"
    },
    {
      "inputs": [],
      "name": "SUPER_TOKEN_TRANSFER_TO_ZERO_ADDRESS",
      "type": "error"
    },
    {
      "inputs": [],
      "name": "ZERO_ADDRESS",
      "type": "error"
    },
    {
      "anonymous": false,
      "inputs": [
        {
          "indexed": true,
          "internalType": "address",
          "name": "agreementClass",
          "type": "address"
        },
        {
          "indexed": false,
          "internalType": "bytes32",
          "name": "id",
          "type": "bytes32"
        },
        {
          "indexed": false,
          "internalType": "bytes32[]",
          "name": "data",
          "type": "bytes32[]"
        }
      ],
      "name": "AgreementCreated",
      "type": "event"
    },
    {
      "anonymous": false,
      "inputs": [
        {
          "indexed": true,
          "internalType": "address",
          "name": "agreementClass",
          "type": "address"
        },
        {
          "indexed": false,
          "internalType": "bytes32",
          "name": "id",
          "type": "bytes32"
        },
        {
          "indexed": true,
          "internalType": "address",
          "name": "penaltyAccount",
          "type": "address"
        },
        {
          "indexed": true,
          "internalType": "address",
          "name": "rewardAccount",
          "type": "address"
        },
        {
          "indexed": false,
          "internalType": "uint256",
          "name": "rewardAmount",
          "type": "uint256"
        }
      ],
      "name": "AgreementLiquidated",
      "type": "event"
    },
    {
      "anonymous": false,
      "inputs": [
        {
          "indexed": false,
          "internalType": "address",
          "name": "liquidatorAccount",
          "type": "address"
        },
        {
          "indexed": true,
          "internalType": "address",
          "name": "agreementClass",
          "type": "address"
        },
        {
          "indexed": false,
          "internalType": "bytes32",
          "name": "id",
          "type": "bytes32"
        },
        {
          "indexed": true,
          "internalType": "address",
          "name": "penaltyAccount",
          "type": "address"
        },
        {
          "indexed": true,
          "internalType": "address",
          "name": "bondAccount",
          "type": "address"
        },
        {
          "indexed": false,
          "internalType": "uint256",
          "name": "rewardAmount",
          "type": "uint256"
        },
        {
          "indexed": false,
          "internalType": "uint256",
          "name": "bailoutAmount",
          "type": "uint256"
        }
      ],
      "name": "AgreementLiquidatedBy",
      "type": "event"
    },
    {
      "anonymous": false,
      "inputs": [
        {
          "indexed": true,
          "internalType": "address",
          "name": "agreementClass",
          "type": "address"
        },
        {
          "indexed": false,
          "internalType": "bytes32",
          "name": "id",
          "type": "bytes32"
        },
        {
          "indexed": true,
          "internalType": "address",
          "name": "liquidatorAccount",
          "type": "address"
        },
        {
          "indexed": true,
          "internalType": "address",
          "name": "targetAccount",
          "type": "address"
        },
        {
          "indexed": false,
          "internalType": "address",
          "name": "rewardAmountReceiver",
          "type": "address"
        },
        {
          "indexed": false,
          "internalType": "uint256",
          "name": "rewardAmount",
          "type": "uint256"
        },
        {
          "indexed": false,
          "internalType": "int256",
          "name": "targetAccountBalanceDelta",
          "type": "int256"
        },
        {
          "indexed": false,
          "internalType": "bytes",
          "name": "liquidationTypeData",
          "type": "bytes"
        }
      ],
      "name": "AgreementLiquidatedV2",
      "type": "event"
    },
    {
      "anonymous": false,
      "inputs": [
        {
          "indexed": true,
          "internalType": "address",
          "name": "agreementClass",
          "type": "address"
        },
        {
          "indexed": true,
          "internalType": "address",
          "name": "account",
          "type": "address"
        },
        {
          "indexed": false,
          "internalType": "uint256",
          "name": "slotId",
          "type": "uint256"
        }
      ],
      "name": "AgreementStateUpdated",
      "type": "event"
    },
    {
      "anonymous": false,
      "inputs": [
        {
          "indexed": true,
          "internalType": "address",
          "name": "agreementClass",
          "type": "address"
        },
        {
          "indexed": false,
          "internalType": "bytes32",
          "name": "id",
          "type": "bytes32"
        }
      ],
      "name": "AgreementTerminated",
      "type": "event"
    },
    {
      "anonymous": false,
      "inputs": [
        {
          "indexed": true,
          "internalType": "address",
          "name": "agreementClass",
          "type": "address"
        },
        {
          "indexed": false,
          "internalType": "bytes32",
          "name": "id",
          "type": "bytes32"
        },
        {
          "indexed": false,
          "internalType": "bytes32[]",
          "name": "data",
          "type": "bytes32[]"
        }
      ],
      "name": "AgreementUpdated",
      "type": "event"
    },
    {
      "anonymous": false,
      "inputs": [
        {
          "indexed": true,
          "internalType": "address",
          "name": "owner",
          "type": "address"
        },
        {
          "indexed": true,
          "internalType": "address",
          "name": "spender",
          "type": "address"
        },
        {
          "indexed": false,
          "internalType": "uint256",
          "name": "value",
          "type": "uint256"
        }
      ],
      "name": "Approval",
      "type": "event"
    },
    {
      "anonymous": false,
      "inputs": [
        {
          "indexed": true,
          "internalType": "address",
          "name": "operator",
          "type": "address"
        },
        {
          "indexed": true,
          "internalType": "address",
          "name": "tokenHolder",
          "type": "address"
        }
      ],
      "name": "AuthorizedOperator",
      "type": "event"
    },
    {
      "anonymous": false,
      "inputs": [
        {
          "indexed": true,
          "internalType": "address",
          "name": "bailoutAccount",
          "type": "address"
        },
        {
          "indexed": false,
          "internalType": "uint256",
          "name": "bailoutAmount",
          "type": "uint256"
        }
      ],
      "name": "Bailout",
      "type": "event"
    },
    {
      "anonymous": false,
      "inputs": [
        {
          "indexed": true,
          "internalType": "address",
          "name": "operator",
          "type": "address"
        },
        {
          "indexed": true,
          "internalType": "address",
          "name": "from",
          "type": "address"
        },
        {
          "indexed": false,
          "internalType": "uint256",
          "name": "amount",
          "type": "uint256"
        },
        {
          "indexed": false,
          "internalType": "bytes",
          "name": "data",
          "type": "bytes"
        },
        {
          "indexed": false,
          "internalType": "bytes",
          "name": "operatorData",
          "type": "bytes"
        }
      ],
      "name": "Burned",
      "type": "event"
    },
    {
      "anonymous": false,
      "inputs": [
        {
          "indexed": false,
          "internalType": "bytes32",
          "name": "uuid",
          "type": "bytes32"
        },
        {
          "indexed": false,
          "internalType": "address",
          "name": "codeAddress",
          "type": "address"
        }
      ],
      "name": "CodeUpdated",
      "type": "event"
    },
    {
      "anonymous": false,
      "inputs": [
        {
          "indexed": true,
          "internalType": "contract IConstantInflowNFT",
          "name": "constantInflowNFT",
          "type": "address"
        }
      ],
      "name": "ConstantInflowNFTCreated",
      "type": "event"
    },
    {
      "anonymous": false,
      "inputs": [
        {
          "indexed": true,
          "internalType": "contract IConstantOutflowNFT",
          "name": "constantOutflowNFT",
          "type": "address"
        }
      ],
      "name": "ConstantOutflowNFTCreated",
      "type": "event"
    },
    {
      "anonymous": false,
      "inputs": [
        {
          "indexed": false,
          "internalType": "uint8",
          "name": "version",
          "type": "uint8"
        }
      ],
      "name": "Initialized",
      "type": "event"
    },
    {
      "anonymous": false,
      "inputs": [
        {
          "indexed": true,
          "internalType": "address",
          "name": "operator",
          "type": "address"
        },
        {
          "indexed": true,
          "internalType": "address",
          "name": "to",
          "type": "address"
        },
        {
          "indexed": false,
          "internalType": "uint256",
          "name": "amount",
          "type": "uint256"
        },
        {
          "indexed": false,
          "internalType": "bytes",
          "name": "data",
          "type": "bytes"
        },
        {
          "indexed": false,
          "internalType": "bytes",
          "name": "operatorData",
          "type": "bytes"
        }
      ],
      "name": "Minted",
      "type": "event"
    },
    {
      "anonymous": false,
      "inputs": [
        {
          "indexed": true,
          "internalType": "address",
          "name": "previousOwner",
          "type": "address"
        },
        {
          "indexed": true,
          "internalType": "address",
          "name": "newOwner",
          "type": "address"
        }
      ],
      "name": "OwnershipTransferred",
      "type": "event"
    },
    {
      "anonymous": false,
      "inputs": [
        {
          "indexed": true,
          "internalType": "address",
          "name": "sponsor",
          "type": "address"
        },
        {
          "indexed": true,
          "internalType": "address",
          "name": "protege",
          "type": "address"
        },
        {
          "indexed": false,
          "internalType": "uint8",
          "name": "level",
          "type": "uint8"
        },
        {
          "indexed": false,
          "internalType": "uint32",
          "name": "totalProtegeCount",
          "type": "uint32"
        },
        {
          "indexed": false,
          "internalType": "uint32",
          "name": "directTotalProtegeCount",
          "type": "uint32"
        }
      ],
      "name": "PROTEGE_UPDATED",
      "type": "event"
    },
    {
      "anonymous": false,
      "inputs": [
        {
          "indexed": true,
          "internalType": "address",
          "name": "operator",
          "type": "address"
        },
        {
          "indexed": true,
          "internalType": "address",
          "name": "tokenHolder",
          "type": "address"
        }
      ],
      "name": "RevokedOperator",
      "type": "event"
    },
    {
      "anonymous": false,
      "inputs": [
        {
          "indexed": true,
          "internalType": "address",
          "name": "operator",
          "type": "address"
        },
        {
          "indexed": true,
          "internalType": "address",
          "name": "from",
          "type": "address"
        },
        {
          "indexed": true,
          "internalType": "address",
          "name": "to",
          "type": "address"
        },
        {
          "indexed": false,
          "internalType": "uint256",
          "name": "amount",
          "type": "uint256"
        },
        {
          "indexed": false,
          "internalType": "bytes",
          "name": "data",
          "type": "bytes"
        },
        {
          "indexed": false,
          "internalType": "bytes",
          "name": "operatorData",
          "type": "bytes"
        }
      ],
      "name": "Sent",
      "type": "event"
    },
    {
      "anonymous": false,
      "inputs": [
        {
          "indexed": true,
          "internalType": "address",
          "name": "account",
          "type": "address"
        },
        {
          "indexed": false,
          "internalType": "uint256",
          "name": "amount",
          "type": "uint256"
        }
      ],
      "name": "TokenDowngraded",
      "type": "event"
    },
    {
      "anonymous": false,
      "inputs": [
        {
          "indexed": true,
          "internalType": "address",
          "name": "account",
          "type": "address"
        },
        {
          "indexed": false,
          "internalType": "uint256",
          "name": "amount",
          "type": "uint256"
        }
      ],
      "name": "TokenUpgraded",
      "type": "event"
    },
    {
      "anonymous": false,
      "inputs": [
        {
          "indexed": true,
          "internalType": "address",
          "name": "from",
          "type": "address"
        },
        {
          "indexed": true,
          "internalType": "address",
          "name": "to",
          "type": "address"
        },
        {
          "indexed": false,
          "internalType": "uint256",
          "name": "value",
          "type": "uint256"
        }
      ],
      "name": "Transfer",
      "type": "event"
    },
    {
      "inputs": [],
      "name": "CONSTANT_INFLOW_NFT",
      "outputs": [
        {
          "internalType": "contract IConstantInflowNFT",
          "name": "",
          "type": "address"
        }
      ],
      "stateMutability": "view",
      "type": "function"
    },
    {
      "inputs": [],
      "name": "CONSTANT_OUTFLOW_NFT",
      "outputs": [
        {
          "internalType": "contract IConstantOutflowNFT",
          "name": "",
          "type": "address"
        }
      ],
      "stateMutability": "view",
      "type": "function"
    },
    {
      "inputs": [],
      "name": "FLAT_COST_SPONSORSHIP",
      "outputs": [
        {
          "internalType": "uint256",
          "name": "",
          "type": "uint256"
        }
      ],
      "stateMutability": "view",
      "type": "function"
    },
    {
      "inputs": [],
      "name": "MAX_SPONSORSHIP_LEVEL",
      "outputs": [
        {
          "internalType": "uint256",
          "name": "",
          "type": "uint256"
        }
      ],
      "stateMutability": "view",
      "type": "function"
    },
    {
      "inputs": [],
      "name": "MAX_SPONSORSHIP_PATH_OUTFLOW",
      "outputs": [
        {
          "internalType": "uint256",
          "name": "",
          "type": "uint256"
        }
      ],
      "stateMutability": "view",
      "type": "function"
    },
    {
      "inputs": [
        {
          "internalType": "address",
          "name": "account",
          "type": "address"
        },
        {
          "internalType": "address",
          "name": "spender",
          "type": "address"
        }
      ],
      "name": "allowance",
      "outputs": [
        {
          "internalType": "uint256",
          "name": "",
          "type": "uint256"
        }
      ],
      "stateMutability": "view",
      "type": "function"
    },
    {
      "inputs": [
        {
          "internalType": "address",
          "name": "spender",
          "type": "address"
        },
        {
          "internalType": "uint256",
          "name": "amount",
          "type": "uint256"
        }
      ],
      "name": "approve",
      "outputs": [
        {
          "internalType": "bool",
          "name": "",
          "type": "bool"
        }
      ],
      "stateMutability": "nonpayable",
      "type": "function"
    },
    {
      "inputs": [
        {
          "internalType": "address",
          "name": "operator",
          "type": "address"
        }
      ],
      "name": "authorizeOperator",
      "outputs": [],
      "stateMutability": "nonpayable",
      "type": "function"
    },
    {
      "inputs": [
        {
          "internalType": "address",
          "name": "account",
          "type": "address"
        }
      ],
      "name": "balanceOf",
      "outputs": [
        {
          "internalType": "uint256",
          "name": "balance",
          "type": "uint256"
        }
      ],
      "stateMutability": "view",
      "type": "function"
    },
    {
      "inputs": [
        {
          "internalType": "uint256",
          "name": "amount",
          "type": "uint256"
        },
        {
          "internalType": "bytes",
          "name": "userData",
          "type": "bytes"
        }
      ],
      "name": "burn",
      "outputs": [],
      "stateMutability": "nonpayable",
      "type": "function"
    },
    {
      "inputs": [
        {
          "internalType": "uint32",
          "name": "totalProtegeCount",
          "type": "uint32"
        }
      ],
      "name": "calculateFlowRate",
      "outputs": [
        {
          "internalType": "int96",
          "name": "flowRate",
          "type": "int96"
        }
      ],
      "stateMutability": "pure",
      "type": "function"
    },
    {
      "inputs": [],
      "name": "castrate",
      "outputs": [],
      "stateMutability": "nonpayable",
      "type": "function"
    },
    {
      "inputs": [
        {
          "internalType": "bytes32",
          "name": "id",
          "type": "bytes32"
        },
        {
          "internalType": "bytes32[]",
          "name": "data",
          "type": "bytes32[]"
        }
      ],
      "name": "createAgreement",
      "outputs": [],
      "stateMutability": "nonpayable",
      "type": "function"
    },
    {
      "inputs": [],
      "name": "decimals",
      "outputs": [
        {
          "internalType": "uint8",
          "name": "",
          "type": "uint8"
        }
      ],
      "stateMutability": "pure",
      "type": "function"
    },
    {
      "inputs": [
        {
          "internalType": "address",
          "name": "spender",
          "type": "address"
        },
        {
          "internalType": "uint256",
          "name": "subtractedValue",
          "type": "uint256"
        }
      ],
      "name": "decreaseAllowance",
      "outputs": [
        {
          "internalType": "bool",
          "name": "",
          "type": "bool"
        }
      ],
      "stateMutability": "nonpayable",
      "type": "function"
    },
    {
      "inputs": [],
      "name": "defaultOperators",
      "outputs": [
        {
          "internalType": "address[]",
          "name": "",
          "type": "address[]"
        }
      ],
      "stateMutability": "view",
      "type": "function"
    },
    {
      "inputs": [
        {
          "internalType": "uint256",
          "name": "amount",
          "type": "uint256"
        }
      ],
      "name": "downgrade",
      "outputs": [],
      "stateMutability": "nonpayable",
      "type": "function"
    },
    {
      "inputs": [
        {
          "internalType": "address",
          "name": "to",
          "type": "address"
        },
        {
          "internalType": "uint256",
          "name": "amount",
          "type": "uint256"
        }
      ],
      "name": "downgradeTo",
      "outputs": [],
      "stateMutability": "nonpayable",
      "type": "function"
    },
    {
      "inputs": [
        {
          "internalType": "uint32",
          "name": "directProtegeCount",
          "type": "uint32"
        }
      ],
      "name": "fee",
      "outputs": [
        {
          "internalType": "uint256",
          "name": "feeAmount",
          "type": "uint256"
        }
      ],
      "stateMutability": "pure",
      "type": "function"
    },
    {
      "inputs": [
        {
          "internalType": "address",
          "name": "account",
          "type": "address"
        }
      ],
      "name": "getAccountActiveAgreements",
      "outputs": [
        {
          "internalType": "contract ISuperAgreement[]",
          "name": "",
          "type": "address[]"
        }
      ],
      "stateMutability": "view",
      "type": "function"
    },
    {
      "inputs": [
        {
          "internalType": "address",
          "name": "agreementClass",
          "type": "address"
        },
        {
          "internalType": "bytes32",
          "name": "id",
          "type": "bytes32"
        },
        {
          "internalType": "uint256",
          "name": "dataLength",
          "type": "uint256"
        }
      ],
      "name": "getAgreementData",
      "outputs": [
        {
          "internalType": "bytes32[]",
          "name": "data",
          "type": "bytes32[]"
        }
      ],
      "stateMutability": "view",
      "type": "function"
    },
    {
      "inputs": [
        {
          "internalType": "address",
          "name": "agreementClass",
          "type": "address"
        },
        {
          "internalType": "address",
          "name": "account",
          "type": "address"
        },
        {
          "internalType": "uint256",
          "name": "slotId",
          "type": "uint256"
        },
        {
          "internalType": "uint256",
          "name": "dataLength",
          "type": "uint256"
        }
      ],
      "name": "getAgreementStateSlot",
      "outputs": [
        {
          "internalType": "bytes32[]",
          "name": "slotData",
          "type": "bytes32[]"
        }
      ],
      "stateMutability": "view",
      "type": "function"
    },
    {
      "inputs": [
        {
          "internalType": "address",
          "name": "protege",
          "type": "address"
        }
      ],
      "name": "getChainOfSponsors",
      "outputs": [
        {
          "components": [
            {
              "internalType": "address",
              "name": "sponsor",
              "type": "address"
            },
            {
              "internalType": "uint8",
              "name": "level",
              "type": "uint8"
            },
            {
              "internalType": "uint32",
              "name": "totalProtegeCount",
              "type": "uint32"
            },
            {
              "internalType": "uint32",
              "name": "directTotalProtegeCount",
              "type": "uint32"
            },
            {
              "internalType": "int96",
              "name": "desiredFlowRate",
              "type": "int96"
            }
          ],
          "internalType": "struct ISuperfluidClub.Protege[]",
          "name": "sponsors",
          "type": "tuple[]"
        }
      ],
      "stateMutability": "view",
      "type": "function"
    },
    {
      "inputs": [],
      "name": "getCodeAddress",
      "outputs": [
        {
          "internalType": "address",
          "name": "codeAddress",
          "type": "address"
        }
      ],
      "stateMutability": "view",
      "type": "function"
    },
    {
      "inputs": [],
      "name": "getHost",
      "outputs": [
        {
          "internalType": "address",
          "name": "host",
          "type": "address"
        }
      ],
      "stateMutability": "view",
      "type": "function"
    },
    {
      "inputs": [
        {
          "internalType": "address",
          "name": "protege",
          "type": "address"
        }
      ],
      "name": "getProtege",
      "outputs": [
        {
          "components": [
            {
              "internalType": "address",
              "name": "sponsor",
              "type": "address"
            },
            {
              "internalType": "uint8",
              "name": "level",
              "type": "uint8"
            },
            {
              "internalType": "uint32",
              "name": "totalProtegeCount",
              "type": "uint32"
            },
            {
              "internalType": "uint32",
              "name": "directTotalProtegeCount",
              "type": "uint32"
            },
            {
              "internalType": "int96",
              "name": "desiredFlowRate",
              "type": "int96"
            }
          ],
          "internalType": "struct ISuperfluidClub.Protege",
          "name": "",
          "type": "tuple"
        }
      ],
      "stateMutability": "view",
      "type": "function"
    },
    {
      "inputs": [],
      "name": "getUnderlyingToken",
      "outputs": [
        {
          "internalType": "address",
          "name": "",
          "type": "address"
        }
      ],
      "stateMutability": "view",
      "type": "function"
    },
    {
      "inputs": [],
      "name": "granularity",
      "outputs": [
        {
          "internalType": "uint256",
          "name": "",
          "type": "uint256"
        }
      ],
      "stateMutability": "pure",
      "type": "function"
    },
    {
      "inputs": [
        {
          "internalType": "address",
          "name": "spender",
          "type": "address"
        },
        {
          "internalType": "uint256",
          "name": "addedValue",
          "type": "uint256"
        }
      ],
      "name": "increaseAllowance",
      "outputs": [
        {
          "internalType": "bool",
          "name": "",
          "type": "bool"
        }
      ],
      "stateMutability": "nonpayable",
      "type": "function"
    },
    {
      "inputs": [
        {
          "internalType": "string",
          "name": "name",
          "type": "string"
        },
        {
          "internalType": "string",
          "name": "symbol",
          "type": "string"
        },
        {
          "internalType": "address",
          "name": "newOwner",
          "type": "address"
        }
      ],
      "name": "initialize",
      "outputs": [],
      "stateMutability": "nonpayable",
      "type": "function"
    },
    {
      "inputs": [
        {
          "internalType": "contract IERC20",
          "name": "underlyingToken",
          "type": "address"
        },
        {
          "internalType": "uint8",
          "name": "underlyingDecimals",
          "type": "uint8"
        },
        {
          "internalType": "string",
          "name": "n",
          "type": "string"
        },
        {
          "internalType": "string",
          "name": "s",
          "type": "string"
        }
      ],
      "name": "initialize",
      "outputs": [],
      "stateMutability": "nonpayable",
      "type": "function"
    },
    {
      "inputs": [
        {
          "internalType": "address",
          "name": "account",
          "type": "address"
        },
        {
          "internalType": "uint256",
          "name": "timestamp",
          "type": "uint256"
        }
      ],
      "name": "isAccountCritical",
      "outputs": [
        {
          "internalType": "bool",
          "name": "isCritical",
          "type": "bool"
        }
      ],
      "stateMutability": "view",
      "type": "function"
    },
    {
      "inputs": [
        {
          "internalType": "address",
          "name": "account",
          "type": "address"
        }
      ],
      "name": "isAccountCriticalNow",
      "outputs": [
        {
          "internalType": "bool",
          "name": "isCritical",
          "type": "bool"
        }
      ],
      "stateMutability": "view",
      "type": "function"
    },
    {
      "inputs": [
        {
          "internalType": "address",
          "name": "account",
          "type": "address"
        },
        {
          "internalType": "uint256",
          "name": "timestamp",
          "type": "uint256"
        }
      ],
      "name": "isAccountSolvent",
      "outputs": [
        {
          "internalType": "bool",
          "name": "isSolvent",
          "type": "bool"
        }
      ],
      "stateMutability": "view",
      "type": "function"
    },
    {
      "inputs": [
        {
          "internalType": "address",
          "name": "account",
          "type": "address"
        }
      ],
      "name": "isAccountSolventNow",
      "outputs": [
        {
          "internalType": "bool",
          "name": "isSolvent",
          "type": "bool"
        }
      ],
      "stateMutability": "view",
      "type": "function"
    },
    {
      "inputs": [
        {
          "internalType": "address",
          "name": "operator",
          "type": "address"
        },
        {
          "internalType": "address",
          "name": "tokenHolder",
          "type": "address"
        }
      ],
      "name": "isOperatorFor",
      "outputs": [
        {
          "internalType": "bool",
          "name": "",
          "type": "bool"
        }
      ],
      "stateMutability": "view",
      "type": "function"
    },
    {
      "inputs": [
        {
          "internalType": "address",
          "name": "protege",
          "type": "address"
        }
      ],
      "name": "isProtege",
      "outputs": [
        {
          "internalType": "bool",
          "name": "",
          "type": "bool"
        }
      ],
      "stateMutability": "view",
      "type": "function"
    },
    {
      "inputs": [
        {
          "internalType": "bytes32",
          "name": "id",
          "type": "bytes32"
        },
        {
          "internalType": "bytes",
          "name": "liquidationTypeData",
          "type": "bytes"
        },
        {
          "internalType": "address",
          "name": "liquidatorAccount",
          "type": "address"
        },
        {
          "internalType": "bool",
          "name": "useDefaultRewardAccount",
          "type": "bool"
        },
        {
          "internalType": "address",
          "name": "targetAccount",
          "type": "address"
        },
        {
          "internalType": "uint256",
          "name": "rewardAmount",
          "type": "uint256"
        },
        {
          "internalType": "int256",
          "name": "targetAccountBalanceDelta",
          "type": "int256"
        }
      ],
      "name": "makeLiquidationPayoutsV2",
      "outputs": [],
      "stateMutability": "nonpayable",
      "type": "function"
    },
    {
      "inputs": [
        {
          "internalType": "uint256",
          "name": "amount",
          "type": "uint256"
        }
      ],
      "name": "mint",
      "outputs": [],
      "stateMutability": "nonpayable",
      "type": "function"
    },
    {
      "inputs": [],
      "name": "name",
      "outputs": [
        {
          "internalType": "string",
          "name": "",
          "type": "string"
        }
      ],
      "stateMutability": "view",
      "type": "function"
    },
    {
      "inputs": [
        {
          "internalType": "address",
          "name": "account",
          "type": "address"
        },
        {
          "internalType": "address",
          "name": "spender",
          "type": "address"
        },
        {
          "internalType": "uint256",
          "name": "amount",
          "type": "uint256"
        }
      ],
      "name": "operationApprove",
      "outputs": [],
      "stateMutability": "nonpayable",
      "type": "function"
    },
    {
      "inputs": [
        {
          "internalType": "address",
          "name": "account",
          "type": "address"
        },
        {
          "internalType": "address",
          "name": "spender",
          "type": "address"
        },
        {
          "internalType": "uint256",
          "name": "subtractedValue",
          "type": "uint256"
        }
      ],
      "name": "operationDecreaseAllowance",
      "outputs": [],
      "stateMutability": "nonpayable",
      "type": "function"
    },
    {
      "inputs": [
        {
          "internalType": "address",
          "name": "account",
          "type": "address"
        },
        {
          "internalType": "uint256",
          "name": "amount",
          "type": "uint256"
        }
      ],
      "name": "operationDowngrade",
      "outputs": [],
      "stateMutability": "nonpayable",
      "type": "function"
    },
    {
      "inputs": [
        {
          "internalType": "address",
          "name": "account",
          "type": "address"
        },
        {
          "internalType": "address",
          "name": "spender",
          "type": "address"
        },
        {
          "internalType": "uint256",
          "name": "addedValue",
          "type": "uint256"
        }
      ],
      "name": "operationIncreaseAllowance",
      "outputs": [],
      "stateMutability": "nonpayable",
      "type": "function"
    },
    {
      "inputs": [
        {
          "internalType": "address",
          "name": "spender",
          "type": "address"
        },
        {
          "internalType": "address",
          "name": "recipient",
          "type": "address"
        },
        {
          "internalType": "uint256",
          "name": "amount",
          "type": "uint256"
        },
        {
          "internalType": "bytes",
          "name": "userData",
          "type": "bytes"
        }
      ],
      "name": "operationSend",
      "outputs": [],
      "stateMutability": "nonpayable",
      "type": "function"
    },
    {
      "inputs": [
        {
          "internalType": "address",
          "name": "account",
          "type": "address"
        },
        {
          "internalType": "address",
          "name": "spender",
          "type": "address"
        },
        {
          "internalType": "address",
          "name": "recipient",
          "type": "address"
        },
        {
          "internalType": "uint256",
          "name": "amount",
          "type": "uint256"
        }
      ],
      "name": "operationTransferFrom",
      "outputs": [],
      "stateMutability": "nonpayable",
      "type": "function"
    },
    {
      "inputs": [
        {
          "internalType": "address",
          "name": "account",
          "type": "address"
        },
        {
          "internalType": "uint256",
          "name": "amount",
          "type": "uint256"
        }
      ],
      "name": "operationUpgrade",
      "outputs": [],
      "stateMutability": "nonpayable",
      "type": "function"
    },
    {
      "inputs": [
        {
          "internalType": "address",
          "name": "account",
          "type": "address"
        },
        {
          "internalType": "uint256",
          "name": "amount",
          "type": "uint256"
        },
        {
          "internalType": "bytes",
          "name": "userData",
          "type": "bytes"
        },
        {
          "internalType": "bytes",
          "name": "operatorData",
          "type": "bytes"
        }
      ],
      "name": "operatorBurn",
      "outputs": [],
      "stateMutability": "nonpayable",
      "type": "function"
    },
    {
      "inputs": [
        {
          "internalType": "address",
          "name": "sender",
          "type": "address"
        },
        {
          "internalType": "address",
          "name": "recipient",
          "type": "address"
        },
        {
          "internalType": "uint256",
          "name": "amount",
          "type": "uint256"
        },
        {
          "internalType": "bytes",
          "name": "userData",
          "type": "bytes"
        },
        {
          "internalType": "bytes",
          "name": "operatorData",
          "type": "bytes"
        }
      ],
      "name": "operatorSend",
      "outputs": [],
      "stateMutability": "nonpayable",
      "type": "function"
    },
    {
      "inputs": [],
      "name": "owner",
      "outputs": [
        {
          "internalType": "address",
          "name": "",
          "type": "address"
        }
      ],
      "stateMutability": "view",
      "type": "function"
    },
    {
      "inputs": [],
      "name": "proxiableUUID",
      "outputs": [
        {
          "internalType": "bytes32",
          "name": "",
          "type": "bytes32"
        }
      ],
      "stateMutability": "pure",
      "type": "function"
    },
    {
      "inputs": [
        {
          "internalType": "address",
          "name": "account",
          "type": "address"
        },
        {
          "internalType": "uint256",
          "name": "timestamp",
          "type": "uint256"
        }
      ],
      "name": "realtimeBalanceOf",
      "outputs": [
        {
          "internalType": "int256",
          "name": "availableBalance",
          "type": "int256"
        },
        {
          "internalType": "uint256",
          "name": "deposit",
          "type": "uint256"
        },
        {
          "internalType": "uint256",
          "name": "owedDeposit",
          "type": "uint256"
        }
      ],
      "stateMutability": "view",
      "type": "function"
    },
    {
      "inputs": [
        {
          "internalType": "address",
          "name": "account",
          "type": "address"
        }
      ],
      "name": "realtimeBalanceOfNow",
      "outputs": [
        {
          "internalType": "int256",
          "name": "availableBalance",
          "type": "int256"
        },
        {
          "internalType": "uint256",
          "name": "deposit",
          "type": "uint256"
        },
        {
          "internalType": "uint256",
          "name": "owedDeposit",
          "type": "uint256"
        },
        {
          "internalType": "uint256",
          "name": "timestamp",
          "type": "uint256"
        }
      ],
      "stateMutability": "view",
      "type": "function"
    },
    {
      "inputs": [],
      "name": "restartStream",
      "outputs": [],
      "stateMutability": "nonpayable",
      "type": "function"
    },
    {
      "inputs": [
        {
          "internalType": "address",
          "name": "operator",
          "type": "address"
        }
      ],
      "name": "revokeOperator",
      "outputs": [],
      "stateMutability": "nonpayable",
      "type": "function"
    },
    {
      "inputs": [
        {
          "internalType": "address",
          "name": "account",
          "type": "address"
        },
        {
          "internalType": "address",
          "name": "spender",
          "type": "address"
        },
        {
          "internalType": "uint256",
          "name": "amount",
          "type": "uint256"
        }
      ],
      "name": "selfApproveFor",
      "outputs": [],
      "stateMutability": "nonpayable",
      "type": "function"
    },
    {
      "inputs": [
        {
          "internalType": "address",
          "name": "account",
          "type": "address"
        },
        {
          "internalType": "uint256",
          "name": "amount",
          "type": "uint256"
        },
        {
          "internalType": "bytes",
          "name": "userData",
          "type": "bytes"
        }
      ],
      "name": "selfBurn",
      "outputs": [],
      "stateMutability": "nonpayable",
      "type": "function"
    },
    {
      "inputs": [
        {
          "internalType": "address",
          "name": "account",
          "type": "address"
        },
        {
          "internalType": "uint256",
          "name": "amount",
          "type": "uint256"
        },
        {
          "internalType": "bytes",
          "name": "userData",
          "type": "bytes"
        }
      ],
      "name": "selfMint",
      "outputs": [],
      "stateMutability": "nonpayable",
      "type": "function"
    },
    {
      "inputs": [
        {
          "internalType": "address",
          "name": "holder",
          "type": "address"
        },
        {
          "internalType": "address",
          "name": "spender",
          "type": "address"
        },
        {
          "internalType": "address",
          "name": "recipient",
          "type": "address"
        },
        {
          "internalType": "uint256",
          "name": "amount",
          "type": "uint256"
        }
      ],
      "name": "selfTransferFrom",
      "outputs": [],
      "stateMutability": "nonpayable",
      "type": "function"
    },
    {
      "inputs": [
        {
          "internalType": "address",
          "name": "recipient",
          "type": "address"
        },
        {
          "internalType": "uint256",
          "name": "amount",
          "type": "uint256"
        },
        {
          "internalType": "bytes",
          "name": "userData",
          "type": "bytes"
        }
      ],
      "name": "send",
      "outputs": [],
      "stateMutability": "nonpayable",
      "type": "function"
    },
    {
      "inputs": [
        {
          "internalType": "address",
          "name": "account",
          "type": "address"
        },
        {
          "internalType": "int256",
          "name": "delta",
          "type": "int256"
        }
      ],
      "name": "settleBalance",
      "outputs": [],
      "stateMutability": "nonpayable",
      "type": "function"
    },
    {
      "inputs": [
        {
          "internalType": "address payable",
          "name": "newProtege",
          "type": "address"
        }
      ],
      "name": "sponsor",
      "outputs": [],
      "stateMutability": "payable",
      "type": "function"
    },
    {
      "inputs": [],
      "name": "symbol",
      "outputs": [
        {
          "internalType": "string",
          "name": "",
          "type": "string"
        }
      ],
      "stateMutability": "view",
      "type": "function"
    },
    {
      "inputs": [
        {
          "internalType": "bytes32",
          "name": "id",
          "type": "bytes32"
        },
        {
          "internalType": "uint256",
          "name": "dataLength",
          "type": "uint256"
        }
      ],
      "name": "terminateAgreement",
      "outputs": [],
      "stateMutability": "nonpayable",
      "type": "function"
    },
    {
      "inputs": [],
      "name": "totalSupply",
      "outputs": [
        {
          "internalType": "uint256",
          "name": "",
          "type": "uint256"
        }
      ],
      "stateMutability": "view",
      "type": "function"
    },
    {
      "inputs": [
        {
          "internalType": "address",
          "name": "recipient",
          "type": "address"
        },
        {
          "internalType": "uint256",
          "name": "amount",
          "type": "uint256"
        }
      ],
      "name": "transfer",
      "outputs": [
        {
          "internalType": "bool",
          "name": "",
          "type": "bool"
        }
      ],
      "stateMutability": "nonpayable",
      "type": "function"
    },
    {
      "inputs": [
        {
          "internalType": "address",
          "name": "recipient",
          "type": "address"
        }
      ],
      "name": "transferAll",
      "outputs": [],
      "stateMutability": "nonpayable",
      "type": "function"
    },
    {
      "inputs": [
        {
          "internalType": "address",
          "name": "holder",
          "type": "address"
        },
        {
          "internalType": "address",
          "name": "recipient",
          "type": "address"
        },
        {
          "internalType": "uint256",
          "name": "amount",
          "type": "uint256"
        }
      ],
      "name": "transferFrom",
      "outputs": [
        {
          "internalType": "bool",
          "name": "",
          "type": "bool"
        }
      ],
      "stateMutability": "nonpayable",
      "type": "function"
    },
    {
      "inputs": [
        {
          "internalType": "address",
          "name": "newOwner",
          "type": "address"
        }
      ],
      "name": "transferOwnership",
      "outputs": [],
      "stateMutability": "nonpayable",
      "type": "function"
    },
    {
      "inputs": [
        {
          "internalType": "bytes32",
          "name": "id",
          "type": "bytes32"
        },
        {
          "internalType": "bytes32[]",
          "name": "data",
          "type": "bytes32[]"
        }
      ],
      "name": "updateAgreementData",
      "outputs": [],
      "stateMutability": "nonpayable",
      "type": "function"
    },
    {
      "inputs": [
        {
          "internalType": "address",
          "name": "account",
          "type": "address"
        },
        {
          "internalType": "uint256",
          "name": "slotId",
          "type": "uint256"
        },
        {
          "internalType": "bytes32[]",
          "name": "slotData",
          "type": "bytes32[]"
        }
      ],
      "name": "updateAgreementStateSlot",
      "outputs": [],
      "stateMutability": "nonpayable",
      "type": "function"
    },
    {
      "inputs": [
        {
          "internalType": "address",
          "name": "newAddress",
          "type": "address"
        }
      ],
      "name": "updateCode",
      "outputs": [],
      "stateMutability": "nonpayable",
      "type": "function"
    },
    {
      "inputs": [
        {
          "internalType": "uint256",
          "name": "amount",
          "type": "uint256"
        }
      ],
      "name": "upgrade",
      "outputs": [],
      "stateMutability": "nonpayable",
      "type": "function"
    },
    {
      "inputs": [
        {
          "internalType": "address",
          "name": "to",
          "type": "address"
        },
        {
          "internalType": "uint256",
          "name": "amount",
          "type": "uint256"
        },
        {
          "internalType": "bytes",
          "name": "userData",
          "type": "bytes"
        }
      ],
      "name": "upgradeTo",
      "outputs": [],
      "stateMutability": "nonpayable",
      "type": "function"
    },
    {
      "inputs": [
        {
          "internalType": "address",
          "name": "receiver",
          "type": "address"
        },
        {
          "internalType": "uint256",
          "name": "amount",
          "type": "uint256"
        }
      ],
      "name": "withdraw",
      "outputs": [],
      "stateMutability": "nonpayable",
      "type": "function"
    },
    {
      "stateMutability": "payable",
      "type": "receive"
    }
  ],
  "bytecode": {
    "object": "0x60e06040523480156200001157600080fd5b506040516200657e3803806200657e8339810160408190526200003491620000d9565b6001600160a01b0380841660805280831660a081905290821660c052604051849184918491907fcf554eb342edf010a94e07701ae91e99e90b769f649f03aeb1153654ddd43c0190600090a26040516001600160a01b038216907f8837af285f4d380af9227df9ebafa13d992b487fa6d7a4366bd4154576085b8990600090a25050505050506200012d565b6001600160a01b0381168114620000d657600080fd5b50565b600080600060608486031215620000ef57600080fd5b8351620000fc81620000c0565b60208501519093506200010f81620000c0565b60408501519092506200012281620000c0565b809150509250925092565b60805160a05160c05161639c620001e2600039600081816108be0152611c02015260008181610e280152611b6501526000818161067e015281816112c201528181611331015281816116aa015281816117c50152818161189401528181611c4d01528181611de001528181612460015281816129da01528181612aa401528181612b3c01528181612ba401528181612c2c015281816135fe01528181613695015281816149450152614b84015261639c6000f3fe6080604052600436106104405760003560e01c8063766c4f3711610234578063bb0d196e1161012e578063e4a472c8116100b6578063f349f56a1161007a578063f349f56a14610e6a578063f3fef3a314610e87578063fad8b32a14610ea7578063fc673c4f14610ec7578063fe9d930314610ee757600080fd5b8063e4a472c814610d9d578063eb3537cc14610dbd578063ee719bc814610df8578063ef43d2c614610e16578063f2fde38b14610e4a57600080fd5b8063ca789464116100fd578063ca78946414610cd7578063cf97256d14610cf7578063d95b637114610d17578063d9d078d614610d37578063dd62ed3e14610d5757600080fd5b8063bb0d196e14610c57578063c68d428314610c77578063c780fd8214610c97578063ca0c1e7f14610cb757600080fd5b80639bd9bbc6116101bc578063a457c2d711610180578063a457c2d714610bc7578063a9059cbb14610be7578063b132a50d14610c07578063b5c0b7eb14610c22578063b84cdd4a14610c3757600080fd5b80639bd9bbc614610b275780639d87674114610b47578063a0712d6814610b67578063a1b2bf8b14610b87578063a3a7e7f314610ba757600080fd5b80638934c79a116102035780638934c79a14610a975780638da5cb5b14610ab7578063959b8c3f14610add57806395d89b4114610afd5780639903ad3814610b1257600080fd5b8063766c4f3714610a1157806379359f6f14610a245780637ae058dc14610a4457806383ba252514610a7757600080fd5b8063386fa2211161034557806350d75d25116102cd57806362aa52871161029157806362aa52871461097157806362ad1b831461099157806366a12fb6146109b15780636c2d9f2f146109d157806370a08231146109f157600080fd5b806350d75d25146108e057806352d1902d146108f5578063556f0dc71461092857806357cf7acb1461093c5780635b9d09cc1461095157600080fd5b806345977d031161031457806345977d031461081f578063469519541461083f5780634b2763b31461085f5780634b61cc331461087f5780634c5c0c85146108ac57600080fd5b8063386fa2211461079f57806339509351146107bf57806341b706be146107df57806342fe0980146107ff57600080fd5b806318160ddd116103c857806323b872dd1161039757806323b872dd146106e3578063245887fc1461070357806327048397146107235780632ec8eec714610743578063313ce5671461078357600080fd5b806318160ddd146106305780631863e8091461064f57806320bc44251461066f57806321fb177a146106b657600080fd5b8063095ea7b31161040f578063095ea7b3146104db578063099e14ce1461050b57806311bcc81e146105d057806312a6a3f8146105f057806316d055d61461061057600080fd5b806306e485381461044c57806306fdde0314610477578063077f224a14610499578063090c415e146104bb57600080fd5b3661044757005b600080fd5b34801561045857600080fd5b50610461610f07565b60405161046e9190615117565b60405180910390f35b34801561048357600080fd5b5061048c610f18565b60405161046e91906151b4565b3480156104a557600080fd5b506104b96104b4366004615224565b610faa565b005b3480156104c757600080fd5b506104b96104d63660046152eb565b6110e4565b3480156104e757600080fd5b506104fb6104f6366004615346565b611197565b604051901515815260200161046e565b34801561051757600080fd5b506105c3610526366004615372565b6040805160a081018252600080825260208201819052918101829052606081018290526080810191909152506001600160a01b0390811660009081526020808052604091829020825160a0810184528154948516815260ff600160a01b8604169281019290925263ffffffff600160a81b8504811693830193909352600160c81b9093049091166060820152600190910154600b0b608082015290565b60405161046e91906153d9565b3480156105dc57600080fd5b506104b96105eb3660046153e7565b6111ae565b3480156105fc57600080fd5b506104b961060b366004615400565b6111dd565b34801561061c57600080fd5b506104b961062b36600461544b565b6112c0565b34801561063c57600080fd5b506002545b60405190815260200161046e565b34801561065b57600080fd5b506104b961066a36600461556d565b61131c565b34801561067b57600080fd5b507f00000000000000000000000000000000000000000000000000000000000000005b6040516001600160a01b03909116815260200161046e565b3480156106c257600080fd5b506106d66106d1366004615372565b6115bc565b60405161046e91906155ff565b3480156106ef57600080fd5b506104fb6106fe366004615641565b611692565b34801561070f57600080fd5b506104b961071e366004615346565b6116a8565b34801561072f57600080fd5b506104b961073e366004615682565b611721565b34801561074f57600080fd5b5061076361075e366004615372565b6117bd565b60408051948552602085019390935291830152606082015260800161046e565b34801561078f57600080fd5b506040516012815260200161046e565b3480156107ab57600080fd5b506104616107ba366004615372565b611860565b3480156107cb57600080fd5b506104fb6107da366004615346565b611903565b3480156107eb57600080fd5b506104b96107fa36600461544b565b61193f565b34801561080b57600080fd5b506104b961081a3660046156a4565b61196b565b34801561082b57600080fd5b506104b961083a3660046153e7565b611a92565b34801561084b57600080fd5b506104b961085a366004615372565b611abe565b34801561086b57600080fd5b506104b961087a366004615641565b611c4b565b34801561088b57600080fd5b5061089f61089a36600461573e565b611cd2565b60405161046e9190615784565b3480156108b857600080fd5b5061069e7f000000000000000000000000000000000000000000000000000000000000000081565b3480156108ec57600080fd5b5061069e611d17565b34801561090157600080fd5b507fe438b61c5ae6309c126c34745a1d75e0e5b69a37085ad47b7d9802d1366b0db9610641565b34801561093457600080fd5b506001610641565b34801561094857600080fd5b506104b9611d41565b34801561095d57600080fd5b506104b961096c3660046157bc565b611d87565b34801561097d57600080fd5b506104b961098c366004615641565b611dde565b34801561099d57600080fd5b506104b96109ac36600461580b565b611e32565b3480156109bd57600080fd5b506104b96109cc366004615641565b611ee0565b3480156109dd57600080fd5b5061089f6109ec3660046158a9565b611f00565b3480156109fd57600080fd5b50610641610a0c366004615372565b611f42565b6104b9610a1f366004615372565b611f6b565b348015610a3057600080fd5b506104fb610a3f366004615372565b612458565b348015610a5057600080fd5b50610a64610a5f3660046158de565b6124e0565b604051600b9190910b815260200161046e565b348015610a8357600080fd5b506104b9610a92366004615346565b612503565b348015610aa357600080fd5b50610641610ab23660046158de565b61252f565b348015610ac357600080fd5b50601f5461069e906201000090046001600160a01b031681565b348015610ae957600080fd5b506104b9610af8366004615372565b6125d0565b348015610b0957600080fd5b5061048c612621565b348015610b1e57600080fd5b506104b9612630565b348015610b3357600080fd5b506104b9610b423660046157bc565b612739565b348015610b5357600080fd5b506104b9610b62366004615904565b61278d565b348015610b7357600080fd5b506104b9610b823660046153e7565b6127d3565b348015610b9357600080fd5b506104b9610ba2366004615400565b612866565b348015610bb357600080fd5b506104b9610bc2366004615372565b612910565b348015610bd357600080fd5b506104fb610be2366004615346565b612924565b348015610bf357600080fd5b506104fb610c02366004615346565b612973565b348015610c1357600080fd5b50610641662386f26fc1000081565b348015610c2e57600080fd5b50610641600681565b348015610c4357600080fd5b506104fb610c52366004615346565b612981565b348015610c6357600080fd5b506104fb610c72366004615372565b6129d2565b348015610c8357600080fd5b506104b9610c92366004615904565b612a5a565b348015610ca357600080fd5b506104b9610cb2366004615641565b612aa2565b348015610cc357600080fd5b506104b9610cd236600461595c565b612b3a565b348015610ce357600080fd5b506104b9610cf2366004615346565b612ba2565b348015610d0357600080fd5b506104b9610d12366004615346565b612c17565b348015610d2357600080fd5b506104fb610d323660046159c7565b612d00565b348015610d4357600080fd5b506104fb610d52366004615346565b612d0e565b348015610d6357600080fd5b50610641610d723660046159c7565b6001600160a01b03918216600090815260106020908152604080832093909416825291909152205490565b348015610da957600080fd5b506104fb610db8366004615372565b612d28565b348015610dc957600080fd5b50610ddd610dd8366004615346565b612d47565b6040805193845260208401929092529082015260600161046e565b348015610e0457600080fd5b50600d546001600160a01b031661069e565b348015610e2257600080fd5b5061069e7f000000000000000000000000000000000000000000000000000000000000000081565b348015610e5657600080fd5b506104b9610e65366004615372565b612e81565b348015610e7657600080fd5b5061064168270801d946c940000081565b348015610e9357600080fd5b506104b9610ea2366004615346565b612f09565b348015610eb357600080fd5b506104b9610ec2366004615372565b612fd9565b348015610ed357600080fd5b506104b9610ee2366004615a00565b61302a565b348015610ef357600080fd5b506104b9610f02366004615a47565b6130cb565b6060610f13601161311c565b905090565b6060600e8054610f2790615a85565b80601f0160208091040260200160405190810160405280929190818152602001828054610f5390615a85565b8015610fa05780601f10610f7557610100808354040283529160200191610fa0565b820191906000526020600020905b815481529060010190602001808311610f8357829003601f168201915b5050505050905090565b610fb381613182565b306001600160a01b0316639903ad386040518163ffffffff1660e01b8152600401600060405180830381600087803b158015610fee57600080fd5b505af1158015611002573d6000803e3d6000fd5b50506040516285fc1360e71b81523092506342fe098091506110339060009081908a908a908a908a90600401615ae8565b600060405180830381600087803b15801561104d57600080fd5b505af1158015611061573d6000803e3d6000fd5b50506040805160008152602081019182905263c68d428360e01b90915230925063c68d428391506110ab908390710125dfa371a19e6f7cb54395ca00000000009060248101615b36565b600060405180830381600087803b1580156110c557600080fd5b505af11580156110d9573d6000803e3d6000fd5b505050505050505050565b60003385856040516020016110fb93929190615b5d565b604051602081830303815290604052805190602001209050611150818484808060200260200160405190810160405280939291908181526020018383602002808284376000920191909152506131ec92505050565b6040518481526001600160a01b0386169033907f30f416fa68fca014a0f334464c64b000ba53e99b6d2afdea9d5ca756372d59859060200160405180910390a35050505050565b60006111a433848461322d565b5060015b92915050565b6111da3333338460405180602001604052806000815250604051806020016040528060008152506132dd565b50565b60405133906000906111f59083908790602001615ba6565b60408051601f1981840301815291905280516020909101209050611219818461349d565b156112375760405163782a90fb60e11b815260040160405180910390fd5b611274818585808060200260200160405190810160405280939291908181526020018383602002808284376000920191909152506131ec92505050565b816001600160a01b03167f770ea40a13a4644573ed785e5c7116890709947918747febc5add46feb531e2d8686866040516112b193929190615be3565b60405180910390a25050505050565b7f00000000000000000000000000000000000000000000000000000000000000006001600160a01b031633146113095760405163c51efddd60e01b815260040160405180910390fd5b611315848484846134d9565b5050505050565b604051632329212160e21b81523360048201527f00000000000000000000000000000000000000000000000000000000000000006001600160a01b031690638ca4848490602401602060405180830381865afa158015611380573d6000803e3d6000fd5b505050506040513d601f19601f820116820180604052508101906113a49190615c24565b6113c15760405163327fd99160e21b815260040160405180910390fd5b60006113cb6135f9565b90506001600160a01b0381166113de5750845b6000856113eb57866113ed565b815b90506000831361148a5761140083615c57565b6114098561373e565b1461141657611416615c73565b61141f8461373e565b6001600160a01b03821660009081526001602052604081208054909190611447908490615c89565b90915550506001600160a01b03851660009081526001602052604081208054859290611474908490615c89565b9091555061148590508582866137ac565b611554565b851561149857611498615c73565b826114a28561373e565b6114ac9190615c89565b6001600160a01b038316600090815260016020526040812080549091906114d4908490615cb1565b909155506114e390508461373e565b6001600160a01b0388166000908152600160205260408120805490919061150b908490615c89565b90915550506001600160a01b03851660009081526001602052604081208054859290611538908490615c89565b9091555061154990508288866137ac565b6115548286856137ac565b846001600160a01b0316876001600160a01b0316336001600160a01b03167fb8381a3ce157650e06186e3e8f4dd4dc29236f2688b6eed1893d0a60d7c6386f8c8589898f6040516115a9959493929190615cd1565b60405180910390a4505050505050505050565b60608160005b6115cb82612d28565b1561168b576001600160a01b0380831660009081526020808052604091829020825160a0810184528154948516815260ff600160a01b8604169281019290925263ffffffff600160a81b8504811693830193909352600160c81b9093049091166060820152600190910154600b0b6080820152838261164981615d04565b93508151811061165b5761165b615d1d565b6020908102919091018101919091526001600160a01b0392831660009081529080526040902054909116906115c2565b5050919050565b60006116a0338585856134d9565b949350505050565b7f00000000000000000000000000000000000000000000000000000000000000006001600160a01b031633146116f15760405163c51efddd60e01b815260040160405180910390fd5b61171d3383848460405180602001604052806000815250604051806020016040528060008152506132dd565b5050565b60405133906000906117399083908690602001615ba6565b60405160208183030381529060405280519060200120905061175b818461349d565b6117785760405163dae1880960e01b815260040160405180910390fd5b61178281846137df565b60405184815233907f71a63dc095de07aa5512ad57a7596a39516317e316981a1cd71000057be1537b9060200160405180910390a250505050565b6000806000807f00000000000000000000000000000000000000000000000000000000000000006001600160a01b031663bbe4fd506040518163ffffffff1660e01b8152600401602060405180830381865afa158015611821573d6000803e3d6000fd5b505050506040513d601f19601f820116820180604052508101906118459190615d33565b90506118518582612d47565b91979096509094509092509050565b6001600160a01b038181166000908152602081905260409081902054905163c56a069d60e01b8152901960048201526060917f0000000000000000000000000000000000000000000000000000000000000000169063c56a069d90602401600060405180830381865afa1580156118db573d6000803e3d6000fd5b505050506040513d6000823e601f3d908101601f191682016040526111a89190810190615d4c565b3360008181526010602090815260408083206001600160a01b038716845290915281205490916111a491859061193a908690615dfd565b61322d565b33301461195f57604051630fff4cc960e31b815260040160405180910390fd5b611315838584846134d9565b600e805461197890615a85565b1590506119cc5760405162461bcd60e51b815260206004820152601f60248201527f5375706572546f6b656e3a20616c726561647920696e697469616c697a65640060448201526064015b60405180910390fd5b6000839003611a165760405162461bcd60e51b81526020600482015260166024820152755375706572546f6b656e3a20656d707479206e616d6560501b60448201526064016119c3565b600d805460ff8716600160a01b026001600160a81b03199091166001600160a01b03891617179055600e611a4b848683615e5e565b50600f611a59828483615e5e565b50611a6330613800565b604051600080825290819060008051602061631a833981519152906020015b60405180910390a3505050505050565b6111da333333846040518060200160405280600081525060405180602001604052806000815250613905565b601f546201000090046001600160a01b03163314611aef576040516338ebc58960e11b815260040160405180910390fd5b611af881613ab8565b806001600160a01b031663ef43d2c66040518163ffffffff1660e01b8152600401602060405180830381865afa158015611b36573d6000803e3d6000fd5b505050506040513d601f19601f82011682018060405250810190611b5a9190615f1d565b6001600160a01b03167f00000000000000000000000000000000000000000000000000000000000000006001600160a01b0316141580611c2d5750806001600160a01b0316634c5c0c856040518163ffffffff1660e01b8152600401602060405180830381865afa158015611bd3573d6000803e3d6000fd5b505050506040513d601f19601f82011682018060405250810190611bf79190615f1d565b6001600160a01b03167f00000000000000000000000000000000000000000000000000000000000000006001600160a01b031614155b156111da57604051637d0fd78560e11b815260040160405180910390fd5b7f00000000000000000000000000000000000000000000000000000000000000006001600160a01b03163314611c945760405163c51efddd60e01b815260040160405180910390fd5b6001600160a01b03808416600090815260106020908152604080832093861683529290522054611ccd908490849061193a908590615dfd565b505050565b60606000858585604051602001611ceb93929190615b5d565b604051602081830303815290604052805190602001209050611d0d8184613cf2565b9695505050505050565b6000610f137f360894a13ba1a3210667c828492db98dca3e2076cc3735a920a3ca505d382bbc5490565b611d4a33612d28565b611d665760405162e67aa960e31b815260040160405180910390fd5b336000818152602080526040902060010154611d859190600b0b613d81565b565b611dd83333868686868080601f016020809104026020016040519081016040528093929190818152602001838380828437600092018290525060408051602081019091529081529250613905915050565b50505050565b7f00000000000000000000000000000000000000000000000000000000000000006001600160a01b03163314611e275760405163c51efddd60e01b815260040160405180910390fd5b611ccd83838361322d565b33611e3f6011828a613dad565b611e5c5760405163f7f0222760e01b815260040160405180910390fd5b611ed68189898989898080601f01602080910402602001604051908101604052809392919081815260200183838082843760009201919091525050604080516020601f8d018190048102820181019092528b815292508b91508a908190840183828082843760009201919091525060019250613e56915050565b5050505050505050565b333014611e2757604051630fff4cc960e31b815260040160405180910390fd5b606060008484604051602001611f17929190615ba6565b604051602081830303815290604052805190602001209050611f398184613cf2565b95945050505050565b600080611f4e836117bd565b505050905060008112611f615780611f64565b60005b9392505050565b611f7481612d28565b15611f92576040516319c00a8560e01b815260040160405180910390fd5b601f5460009081906201000090046001600160a01b03163314611fb757336000611fbb565b3060015b91509150611fc882612d28565b158015611fd3575080155b15611ff05760405162e67aa960e31b815260040160405180910390fd5b6001600160a01b038216600090815260208052604081205434919061202190600160c81b900463ffffffff1661252f565b90508082101561204457604051631133bf0d60e01b815260040160405180910390fd5b61204e8183615f3a565b6001600160a01b03851660009081526020805260409020549092506006600160a01b90910460ff16106120945760405163a2c3d1a560e01b815260040160405180910390fd5b30600090815260208052604090208054600160a81b900463ffffffff169060156120bd83615f4d565b82546101009290920a63ffffffff8181021990931691831602179091556001600160a01b038616600090815260208052604090208054600160c81b90049091169150601961210a83615f4d565b82546101009290920a63ffffffff8181021990931691831602179091556001600160a01b0386166000908152602080526040902054600160a81b9004169050845b61215481612d28565b156122c4576001600160a01b038116600090815260208052604090208054600160a81b900463ffffffff1681601561218b83615f4d565b91906101000a81548163ffffffff021916908363ffffffff160217905550506121c78160000160159054906101000a900463ffffffff166124e0565b6001820180546000906121de908490600b0b615f70565b82546bffffffffffffffffffffffff9182166101009390930a9283029190920219909116179055506001810154612219908390600b0b613d81565b6001600160a01b03878116600090815260208080526040808320543084529281902054815160ff600160a01b830416815263ffffffff600160a81b8304811694820194909452600160c81b909104909216908201528483169291909116907fb03e738d0e6b0d74a2bfbcaa64c76a9dd601ecb77229d0982c9bfe946c8c39a79060600160405180910390a35463ffffffff600160a81b82041692506001600160a01b0316905061214b565b846122d9576122d4826001615fa7565b6122db565b815b6040805160a0810182526001600160a01b0389168082526000908152602080805292902054929450919082019061231d90600160a01b900460ff166001615fc4565b60ff168152600060208201819052604082015260600161233c846124e0565b600b90810b9091526001600160a01b03898116600090815260208080526040918290208551815492870151938701516060880151919095166001600160a81b031990931692909217600160a01b60ff909416939093029290921767ffffffffffffffff60a81b1916600160a81b63ffffffff9485160263ffffffff60c81b191617600160c81b91841691909102178155608090930151600190930180546bffffffffffffffffffffffff19166bffffffffffffffffffffffff90941693909317928390556124129230928b9291900b90613ecf16565b50831561244f576040516001600160a01b0388169085156108fc029086906000818181858888f19350505050158015611ed6573d6000803e3d6000fd5b50505050505050565b60006111a8827f00000000000000000000000000000000000000000000000000000000000000006001600160a01b031663bbe4fd506040518163ffffffff1660e01b8152600401602060405180830381865afa1580156124bc573d6000803e3d6000fd5b505050506040513d601f19601f82011682018060405250810190610d529190615d33565b60006111a86124fe63ffffffff841668270801d946c9400000615fdd565b613eee565b61171d3333848460405180602001604052806000815250604051806020016040528060008152506132dd565b6000600c8263ffffffff161161254d5750662386f26fc10000919050565b60188263ffffffff161161256a575067016345785d8a0000919050565b60248263ffffffff161161258757506702c68af0bb140000919050565b60308263ffffffff16116125a45750670429d069189e0000919050565b603c8263ffffffff16116125c1575067058d15e176280000919050565b50670de0b6b3a7640000919050565b336125dd60118284613f37565b806001600160a01b0316826001600160a01b03167ff4caeb2d6ca8932a215a353d0703c326ec2d81fc68170f320eb2ab49e9df61f960405160405180910390a35050565b6060600f8054610f2790615a85565b601f54610100900460ff16158080156126505750601f54600160ff909116105b8061266a5750303b15801561266a5750601f5460ff166001145b6126cd5760405162461bcd60e51b815260206004820152602e60248201527f496e697469616c697a61626c653a20636f6e747261637420697320616c72656160448201526d191e481a5b9a5d1a585b1a5e995960921b60648201526084016119c3565b601f805460ff1916600117905580156126f057601f805461ff0019166101001790555b80156111da57601f805461ff0019169055604051600181527f7f26b83ff96e1f2b6a682f133852f6798a09c465da95921460cefb3847402498906020015b60405180910390a150565b611dd83333868686868080601f01602080910402602001604051908101604052809392919081815260200183838082843760009201829052506040805160208101909152908152925060019150613e569050565b3330146127ad57604051630fff4cc960e31b815260040160405180910390fd5b8051604080516000815260208101909152611ccd9133918691869190151590869061403b565b601f546201000090046001600160a01b03163314612804576040516338ebc58960e11b815260040160405180910390fd5b6040805160008152602081019182905263c68d428360e01b909152309063c68d428390612838908390859060248101615b36565b600060405180830381600087803b15801561285257600080fd5b505af1158015611315573d6000803e3d6000fd5b604051339060009061287e9083908790602001615ba6565b6040516020818303038152906040528051906020012090506128d3818585808060200260200160405190810160405280939291908181526020018383602002808284376000920191909152506131ec92505050565b336001600160a01b03167f0c4c547b3a4fcaa5be8353b3111472b124155bccc86de811d4a481c9e6e9faca8686866040516112b193929190615be3565b61171d33338361291f33611f42565b6134d9565b60006111a4338461193a856040518060600160405280602a81526020016162f0602a91393360009081526010602090815260408083206001600160a01b038d16845290915290205491906140fc565b6000611f64333385856134d9565b6000806000806129918686612d47565b92509250925060006129b98284116129aa57600061373e565b6129b48385615f3a565b61373e565b6129c39085615c89565b60001315979650505050505050565b60006111a8827f00000000000000000000000000000000000000000000000000000000000000006001600160a01b031663bbe4fd506040518163ffffffff1660e01b8152600401602060405180830381865afa158015612a36573d6000803e3d6000fd5b505050506040513d601f19601f82011682018060405250810190610c529190615d33565b333014612a7a57604051630fff4cc960e31b815260040160405180910390fd5b8051604080516000815260208101909152611ccd913391869186919015159081908790614128565b7f00000000000000000000000000000000000000000000000000000000000000006001600160a01b03163314612aeb5760405163c51efddd60e01b815260040160405180910390fd5b611ccd838361193a846040518060600160405280602a81526020016162f0602a91396001600160a01b03808a166000908152601060209081526040808320938c168352929052205491906140fc565b7f00000000000000000000000000000000000000000000000000000000000000006001600160a01b03163314612b835760405163c51efddd60e01b815260040160405180910390fd5b611dd83385858585604051806020016040528060008152506001613e56565b7f00000000000000000000000000000000000000000000000000000000000000006001600160a01b03163314612beb5760405163c51efddd60e01b815260040160405180910390fd5b61171d338384846040518060200160405280600081525060405180602001604052806000815250613905565b604051632329212160e21b81523360048201527f00000000000000000000000000000000000000000000000000000000000000006001600160a01b031690638ca4848490602401602060405180830381865afa158015612c7b573d6000803e3d6000fd5b505050506040513d601f19601f82011682018060405250810190612c9f9190615c24565b612cbc5760405163327fd99160e21b815260040160405180910390fd5b6001600160a01b038216600090815260016020526040902054612ce0908290615c89565b6001600160a01b0390921660009081526001602052604090209190915550565b6000611f6460118484613dad565b600080612d1b8484612d47565b5050600013949350505050565b6001600160a01b03908116600090815260208052604090205416151590565b6001600160a01b038216600090815260016020526040812054908080612d6c86611860565b905060005b8151811015612e78576000806000848481518110612d9157612d91615d1d565b60209081029190910101516040516326cb922f60e21b81523060048201526001600160a01b038c81166024830152604482018c905290911690639b2e48bc90606401606060405180830381865afa158015612df0573d6000803e3d6000fd5b505050506040513d601f19601f82011682018060405250810190612e149190615fff565b91945092509050612e258288615dfd565b9650612e318187615dfd565b9550612e4e818311612e4457600061373e565b6129b48284615f3a565b612e58848a615c89565b612e629190615cb1565b975050505080612e7190615d04565b9050612d71565b50509250925092565b601f546201000090046001600160a01b03163314612eb2576040516338ebc58960e11b815260040160405180910390fd5b6001600160a01b038116612ed95760405163538ba4f960e01b815260040160405180910390fd5b612ee281612d28565b15612f00576040516305e3624f60e11b815260040160405180910390fd5b6111da81613182565b601f546201000090046001600160a01b03163314612f3a576040516338ebc58960e11b815260040160405180910390fd5b6001600160a01b038216612f615760405163538ba4f960e01b815260040160405180910390fd5b60008111612f825760405163fae8279160e01b815260040160405180910390fd5b80471015612fa35760405163119563e560e31b815260040160405180910390fd5b6040516001600160a01b0383169082156108fc029083906000818181858888f19350505050158015611ccd573d6000803e3d6000fd5b33612fe6601182846141f6565b806001600160a01b0316826001600160a01b03167f50546e66e5f44d728365dc3908c63bc5cfeeab470722c1677e3073a6ac294aa160405160405180910390a35050565b3361303760118289613dad565b6130545760405163f7f0222760e01b815260040160405180910390fd5b61244f8188898989898080601f01602080910402602001604051908101604052809392919081815260200183838082843760009201919091525050604080516020601f8d018190048102820181019092528b815292508b91508a90819084018382808284376000920191909152506132dd92505050565b611ccd3333338686868080601f0160208091040260200160405190810160405280939291908181526020018383808284376000920182905250604080516020810190915290815292506132dd915050565b60608160000180548060200260200160405190810160405280929190818152602001828054801561317657602002820191906000526020600020905b81546001600160a01b03168152600190910190602001808311613158575b50505050509050919050565b601f546040516001600160a01b038084169262010000900416907f8be0079c531659141344cd1fd0a4f28419497f9722a3daafe3b4186f6b6457e090600090a3601f80546001600160a01b03909216620100000262010000600160b01b0319909216919091179055565b60005b8151811015611ccd57600082828151811061320c5761320c615d1d565b602002602001015190508082850155508061322690615d04565b90506131ef565b6001600160a01b03831661325457604051638163862760e01b815260040160405180910390fd5b6001600160a01b03821661327b576040516337c1c09d60e21b815260040160405180910390fd5b6001600160a01b0383811660008181526010602090815260408083209487168084529482529182902085905590518481527f8c5be1e5ebec7d5bd14f71427d1e84f3dd0314c0f7b2291e5b200ac8c7c3b92591015b60405180910390a3505050565b600d546001600160a01b031661330657604051637bce7b2b60e11b815260040160405180910390fd5b600080613312856142ee565b91509150613329888883875160001415888861403b565b600d546040516370a0823160e01b81523060048201526000916001600160a01b0316906370a0823190602401602060405180830381865afa158015613372573d6000803e3d6000fd5b505050506040513d601f19601f820116820180604052508101906133969190615d33565b600d549091506133b0906001600160a01b031688856143aa565b600d546040516370a0823160e01b81523060048201526000916001600160a01b0316906370a0823190602401602060405180830381865afa1580156133f9573d6000803e3d6000fd5b505050506040513d601f19601f8201168201806040525081019061341d9190615d33565b9050600061342b8284615f3a565b905080851461344d57604051631c7c26d360e31b815260040160405180910390fd5b896001600160a01b03167f3bc27981aebbb57f9247dc00fde9d6cd91e4b230083fec3238fedbcba1f9ab3d8560405161348891815260200190565b60405180910390a25050505050505050505050565b6000805b828110156134cf578381015480156134be576001925050506111a8565b506134c881615d04565b90506134a1565b5060009392505050565b60006001600160a01b0384166135025760405163eecd6c9b60e01b815260040160405180910390fd5b6001600160a01b0383166135295760405163e219bd3960e01b815260040160405180910390fd5b600033905061355a81868686604051806020016040528060008152506040518060200160405280600081525061440d565b846001600160a01b0316866001600160a01b0316146135ed576135ed858761193a866040518060600160405280602d815260200161633a602d9139601060008c6001600160a01b03166001600160a01b0316815260200190815260200160002060008d6001600160a01b03166001600160a01b03168152602001908152602001600020546140fc9092919063ffffffff16565b50600195945050505050565b6000807f00000000000000000000000000000000000000000000000000000000000000006001600160a01b031663289b3c0d6040518163ffffffff1660e01b8152600401602060405180830381865afa15801561365a573d6000803e3d6000fd5b505050506040513d601f19601f8201168201806040525081019061367e9190615f1d565b604051638369a0f160e01b81526001600160a01b037f0000000000000000000000000000000000000000000000000000000000000000811660048301523060248301527f9f60ae461adf056670e03ae602566409933242392cb06744f5747c9f38b05d09604483015291925090821690638369a0f190606401602060405180830381865afa158015613714573d6000803e3d6000fd5b505050506040513d601f19601f820116820180604052508101906137389190615f1d565b91505090565b60006001600160ff1b038211156137a85760405162461bcd60e51b815260206004820152602860248201527f53616665436173743a2076616c756520646f65736e27742066697420696e2061604482015267371034b73a191a9b60c11b60648201526084016119c3565b5090565b816001600160a01b0316836001600160a01b031660008051602061631a833981519152836040516132d091815260200190565b60005b81811015611ccd576000838201556137f981615d04565b90506137e2565b6040516329965a1d60e01b81526001600160a01b03821660048201527fac7fbab5f54a3ca8194167523c6753bfeb96a445279294b6125b68cce21770546024820152306044820152731820a4b7618bde71dce8cdc73aab6c95905fad24906329965a1d90606401600060405180830381600087803b15801561388157600080fd5b505af1158015613895573d6000803e3d6000fd5b50506040516329965a1d60e01b81526001600160a01b03841660048201527faea199e31a596269b42cdafd93407f14436db6e4cad65417994c2eb37381e05a6024820152306044820152731820a4b7618bde71dce8cdc73aab6c95905fad2492506329965a1d9150606401612838565b600d546001600160a01b031661392e57604051637bce7b2b60e11b815260040160405180910390fd5b60008061393a856142ee565b600d546040516370a0823160e01b81523060048201529294509092506000916001600160a01b03909116906370a0823190602401602060405180830381865afa15801561398b573d6000803e3d6000fd5b505050506040513d601f19601f820116820180604052508101906139af9190615d33565b600d549091506139ca906001600160a01b03168930866144ac565b600d546040516370a0823160e01b81523060048201526000916001600160a01b0316906370a0823190602401602060405180830381865afa158015613a13573d6000803e3d6000fd5b505050506040513d601f19601f82011682018060405250810190613a379190615d33565b90506000613a458383615f3a565b9050808514613a6757604051631c7c26d360e31b815260040160405180910390fd5b8651613a7d908c908b9087901515808c8c614128565b886001600160a01b03167f25ca84076773b0455db53621c459ddc84fe40840e4932a62706a032566f399df8560405161348891815260200190565b6000613ae27f360894a13ba1a3210667c828492db98dca3e2076cc3735a920a3ca505d382bbc5490565b6001600160a01b031603613b385760405162461bcd60e51b815260206004820152601d60248201527f5555505350726f786961626c653a206e6f742075706772616461626c6500000060448201526064016119c3565b806001600160a01b03166352d1902d6040518163ffffffff1660e01b8152600401602060405180830381865afa158015613b76573d6000803e3d6000fd5b505050506040513d601f19601f82011682018060405250810190613b9a9190615d33565b7fe438b61c5ae6309c126c34745a1d75e0e5b69a37085ad47b7d9802d1366b0db914613c145760405162461bcd60e51b815260206004820152602360248201527f5555505350726f786961626c653a206e6f7420636f6d70617469626c65206c6f60448201526267696360e81b60648201526084016119c3565b6001600160a01b0381163003613c6c5760405162461bcd60e51b815260206004820152601960248201527f5555505350726f786961626c653a2070726f7879206c6f6f700000000000000060448201526064016119c3565b613c94817f360894a13ba1a3210667c828492db98dca3e2076cc3735a920a3ca505d382bbc55565b7fe011bc04c286c344a8fcbb8de77f953da762c3e25d8cdea984147fc4168a5dcc7fe438b61c5ae6309c126c34745a1d75e0e5b69a37085ad47b7d9802d1366b0db9604080519182526001600160a01b03841660208301520161272e565b6060816001600160401b03811115613d0c57613d0c61549c565b604051908082528060200260200182016040528015613d35578160200160208202803683370190505b50905060005b82811015613d7a57600081850154905080838381518110613d5e57613d5e615d1d565b602090810291909101015250613d7381615d04565b9050613d3b565b5092915050565b6000613d8e3080856144e4565b600b0b1315613da257611ccd30838361457c565b611ccd308383613ecf565b6000816001600160a01b0316836001600160a01b03161480613e1c57506001600160a01b038316600090815260018501602052604090205460ff168015613e1c57506001600160a01b03808316600090815260038601602090815260408083209387168352929052205460ff16155b806116a057506001600160a01b03808316600090815260028601602090815260408083209387168352929052205460ff1690509392505050565b6001600160a01b038616613e7d5760405163eecd6c9b60e01b815260040160405180910390fd5b6001600160a01b038516613ea45760405163e219bd3960e01b815260040160405180910390fd5b613eb287878787878761459b565b613ec087878787878761440d565b61244f878787878787876146c2565b604080516000808252602082019092526116a090859085908590614812565b60006b7fffffffffffffffffffffff8211156137a85760405162461bcd60e51b81526020600482015260086024820152676f766572666c6f7760c01b60448201526064016119c3565b806001600160a01b0316826001600160a01b031603613fae5760405162461bcd60e51b815260206004820152602d60248201527f4552433737374f70657261746f72733a20617574686f72697a696e672073656c60448201526c331030b99037b832b930ba37b960991b60648201526084016119c3565b6001600160a01b038116600090815260018401602052604090205460ff1615614004576001600160a01b03918216600090815260039390930160209081526040808520929093168452529020805460ff19169055565b6001600160a01b0380831660009081526002850160209081526040808320938516835292905220805460ff19166001179055505050565b6001600160a01b03851661406257604051632e8aac6160e21b815260040160405180910390fd5b8215614077576140778686600087868661459b565b614081858561493d565b846001600160a01b0316866001600160a01b03167fa78a9be3a7b862d26933ad85fb11d80ef66b8f972d7cbba06621d583943a40988685856040516140c89392919061602d565b60405180910390a36040518481526000906001600160a01b0387169060008051602061631a83398151915290602001611a82565b600081848411156141205760405162461bcd60e51b81526004016119c391906151b4565b505050900390565b6001600160a01b03861661414f57604051630d24315760e01b815260040160405180910390fd5b6141598686614a4d565b831561416f5761416f87600088888686896146c2565b856001600160a01b0316876001600160a01b03167f2fe5be0146f74c5bce36c0b80911af6c7d86ff27e89d5cfa61fc681327954e5d8785856040516141b69392919061602d565b60405180910390a36040518581526001600160a01b0387169060009060008051602061631a8339815191529060200160405180910390a350505050505050565b336001600160a01b038216036142615760405162461bcd60e51b815260206004820152602a60248201527f4552433737374f70657261746f72733a207265766f6b696e672073656c662061604482015269399037b832b930ba37b960b11b60648201526084016119c3565b6001600160a01b038116600090815260018401602052604090205460ff16156142bb576001600160a01b0380831660009081526003850160209081526040808320938516835292905220805460ff19166001179055505050565b6001600160a01b03918216600090815260029390930160209081526040808520929093168452529020805460ff19169055565b600d54600090819081906012600160a01b90910460ff16101561434d57600d5461432390600160a01b900460ff166012616058565b61432e90600a616155565b905061433a8185615fdd565b92506143468184616164565b91506143a4565b600d546012600160a01b90910460ff16111561439d57600d5461437c90601290600160a01b900460ff16616058565b61438790600a616155565b90506143938185616164565b92508391506143a4565b8391508192505b50915091565b6040516001600160a01b038316602482015260448101829052611ccd90849063a9059cbb60e01b906064015b60408051601f198184030181529190526020810180516001600160e01b03166001600160e01b031990931692909217909152614aa7565b614420858561441b8661373e565b614b7c565b836001600160a01b0316856001600160a01b0316876001600160a01b03167f06b541ddaa720db2b10a4d0cdac39b8d360425fc073085fac19bc826146779878686866040516144719392919061602d565b60405180910390a4836001600160a01b0316856001600160a01b031660008051602061631a83398151915285604051611a8291815260200190565b6040516001600160a01b0380851660248301528316604482015260648101829052611dd89085906323b872dd60e01b906084016143d6565b6000806144f085614c7b565b604051631cd43d1160e31b81526001600160a01b03888116600483015287811660248301528681166044830152919350908316915063e6a1e88890606401608060405180830381865afa15801561454b573d6000803e3d6000fd5b505050506040513d601f19601f8201168201806040525081019061456f919061617b565b5090979650505050505050565b604080516000808252602082019092526116a090859085908590614dfc565b60405163555ddc6560e11b81526001600160a01b03861660048201527f29ddb589b1fb5fc7cf394961c1adf5f8c6454761adf795e67fe149f658abe8956024820152600090731820a4b7618bde71dce8cdc73aab6c95905fad249063aabbb8ca90604401602060405180830381865afa15801561461c573d6000803e3d6000fd5b505050506040513d601f19601f820116820180604052508101906146409190615f1d565b90506001600160a01b0381161561244f57604051633ad5cbc160e11b81526001600160a01b038216906375ab978290614687908a908a908a908a908a908a906004016161bf565b600060405180830381600087803b1580156146a157600080fd5b505af11580156146b5573d6000803e3d6000fd5b5050505050505050505050565b60405163555ddc6560e11b81526001600160a01b03861660048201527fb281fc8c12954d22544db45de3159a39272895b169a852b314f9cc762e44c53b6024820152600090731820a4b7618bde71dce8cdc73aab6c95905fad249063aabbb8ca90604401602060405180830381865afa158015614743573d6000803e3d6000fd5b505050506040513d601f19601f820116820180604052508101906147679190615f1d565b90506001600160a01b038116156147e3576040516223de2960e01b81526001600160a01b038216906223de29906147ac908b908b908b908b908b908b906004016161bf565b600060405180830381600087803b1580156147c657600080fd5b505af11580156147da573d6000803e3d6000fd5b50505050611ed6565b8115611ed6576001600160a01b0386163b15611ed65760405163fe737d0560e01b815260040160405180910390fd5b600080600061482087614e49565b91509150816001600160a01b03166339255d5b82836001600160a01b03166362fc305e8b8b8b60006001600160401b0381111561485f5761485f61549c565b6040519080825280601f01601f191660200182016040528015614889576020820181803683370190505b5060405160240161489d949392919061620c565b60408051808303601f1901815291815260208201805160e094851b6001600160e01b03909116179052519185901b6001600160e01b03191682526148e8939250908990600401616242565b6000604051808303816000875af1158015614907573d6000803e3d6000fd5b505050506040513d6000823e601f3d908101601f1916820160405261492f9190810190616266565b506001979650505050505050565b60006149c5837f00000000000000000000000000000000000000000000000000000000000000006001600160a01b031663bbe4fd506040518163ffffffff1660e01b8152600401602060405180830381865afa1580156149a1573d6000803e3d6000fd5b505050506040513d601f19601f82011682018060405250810190610dd89190615d33565b505090506149d28261373e565b8112156149f25760405163043b37d160e21b815260040160405180910390fd5b6149fb8261373e565b6001600160a01b038416600090815260016020526040902054614a1e9190615cb1565b6001600160a01b038416600090815260016020526040902055600254614a45908390615f3a565b600255505050565b614a568161373e565b6001600160a01b038316600090815260016020526040902054614a799190615c89565b6001600160a01b038316600090815260016020526040902055600254614aa0908290615dfd565b6002555050565b6000614afc826040518060400160405280602081526020017f5361666545524332303a206c6f772d6c6576656c2063616c6c206661696c6564815250856001600160a01b0316614ff49092919063ffffffff16565b9050805160001480614b1d575080806020019051810190614b1d9190615c24565b611ccd5760405162461bcd60e51b815260206004820152602a60248201527f5361666545524332303a204552433230206f7065726174696f6e20646964206e6044820152691bdd081cdd58d8d9595960b21b60648201526084016119c3565b6000614be0847f00000000000000000000000000000000000000000000000000000000000000006001600160a01b031663bbe4fd506040518163ffffffff1660e01b8152600401602060405180830381865afa1580156149a1573d6000803e3d6000fd5b5050905081811215614c0557604051632f4cb94160e01b815260040160405180910390fd5b6001600160a01b038416600090815260016020526040902054614c29908390615cb1565b6001600160a01b038086166000908152600160205260408082209390935590851681522054614c59908390615c89565b6001600160a01b03909316600090815260016020526040902092909255505050565b7f65599bf746e17a00ea62e3610586992d88101b78eec3cf380706621fb97ea837547fb969d79d88acd02d04ed7ee7d43b949e7daf093d363abcfbbc43dfdfd1ce969a546001600160a01b038116614dcb576001600160a01b038216614d4057826001600160a01b03166320bc44256040518163ffffffff1660e01b8152600401602060405180830381865afa158015614d19573d6000803e3d6000fd5b505050506040513d601f19601f82011682018060405250810190614d3d9190615f1d565b91505b604051635b69006f60e11b81527fa9214cc96615e0085d3bb077758db69497dc2dce3b2b1e97bc93c3d18d83efd360048201526001600160a01b0383169063b6d200de90602401602060405180830381865afa158015614da4573d6000803e3d6000fd5b505050506040513d601f19601f82011682018060405250810190614dc89190615f1d565b90505b6001600160a01b038216614de157614de1615c73565b6001600160a01b038116614df757614df7615c73565b915091565b6000806000614e0a87614e49565b91509150816001600160a01b03166339255d5b82836001600160a01b03166350209a628b8b8b60006001600160401b0381111561485f5761485f61549c565b7f65599bf746e17a00ea62e3610586992d88101b78eec3cf380706621fb97ea837547fb969d79d88acd02d04ed7ee7d43b949e7daf093d363abcfbbc43dfdfd1ce969a546001600160a01b038116614dcb576001600160a01b038216614f0e57826001600160a01b03166320bc44256040518163ffffffff1660e01b8152600401602060405180830381865afa158015614ee7573d6000803e3d6000fd5b505050506040513d601f19601f82011682018060405250810190614f0b9190615f1d565b91505b604051635b69006f60e11b81527fa9214cc96615e0085d3bb077758db69497dc2dce3b2b1e97bc93c3d18d83efd360048201526001600160a01b0383169063b6d200de90602401602060405180830381865afa158015614f72573d6000803e3d6000fd5b505050506040513d601f19601f82011682018060405250810190614f969190615f1d565b9050817f65599bf746e17a00ea62e3610586992d88101b78eec3cf380706621fb97ea83755807fb969d79d88acd02d04ed7ee7d43b949e7daf093d363abcfbbc43dfdfd1ce969a556001600160a01b038216614de157614de1615c73565b60606116a0848460008585600080866001600160a01b0316858760405161501b91906162d3565b60006040518083038185875af1925050503d8060008114615058576040519150601f19603f3d011682016040523d82523d6000602084013e61505d565b606091505b509150915061506e87838387615079565b979650505050505050565b606083156150e85782516000036150e1576001600160a01b0385163b6150e15760405162461bcd60e51b815260206004820152601d60248201527f416464726573733a2063616c6c20746f206e6f6e2d636f6e747261637400000060448201526064016119c3565b50816116a0565b6116a083838151156150fd5781518083602001fd5b8060405162461bcd60e51b81526004016119c391906151b4565b6020808252825182820181905260009190848201906040850190845b818110156151585783516001600160a01b031683529284019291840191600101615133565b50909695505050505050565b60005b8381101561517f578181015183820152602001615167565b50506000910152565b600081518084526151a0816020860160208601615164565b601f01601f19169290920160200192915050565b602081526000611f646020830184615188565b60008083601f8401126151d957600080fd5b5081356001600160401b038111156151f057600080fd5b60208301915083602082850101111561520857600080fd5b9250929050565b6001600160a01b03811681146111da57600080fd5b60008060008060006060868803121561523c57600080fd5b85356001600160401b038082111561525357600080fd5b61525f89838a016151c7565b9097509550602088013591508082111561527857600080fd5b50615285888289016151c7565b90945092505060408601356152998161520f565b809150509295509295909350565b60008083601f8401126152b957600080fd5b5081356001600160401b038111156152d057600080fd5b6020830191508360208260051b850101111561520857600080fd5b6000806000806060858703121561530157600080fd5b843561530c8161520f565b93506020850135925060408501356001600160401b0381111561532e57600080fd5b61533a878288016152a7565b95989497509550505050565b6000806040838503121561535957600080fd5b82356153648161520f565b946020939093013593505050565b60006020828403121561538457600080fd5b8135611f648161520f565b80516001600160a01b0316825260208082015160ff169083015260408082015163ffffffff9081169184019190915260608083015190911690830152608090810151600b0b910152565b60a081016111a8828461538f565b6000602082840312156153f957600080fd5b5035919050565b60008060006040848603121561541557600080fd5b8335925060208401356001600160401b0381111561543257600080fd5b61543e868287016152a7565b9497909650939450505050565b6000806000806080858703121561546157600080fd5b843561546c8161520f565b9350602085013561547c8161520f565b9250604085013561548c8161520f565b9396929550929360600135925050565b634e487b7160e01b600052604160045260246000fd5b604051601f8201601f191681016001600160401b03811182821017156154da576154da61549c565b604052919050565b60006001600160401b038211156154fb576154fb61549c565b50601f01601f191660200190565b600082601f83011261551a57600080fd5b813561552d615528826154e2565b6154b2565b81815284602083860101111561554257600080fd5b816020850160208301376000918101602001919091529392505050565b80151581146111da57600080fd5b600080600080600080600060e0888a03121561558857600080fd5b8735965060208801356001600160401b038111156155a557600080fd5b6155b18a828b01615509565b96505060408801356155c28161520f565b945060608801356155d28161555f565b935060808801356155e28161520f565b9699959850939692959460a0840135945060c09093013592915050565b6020808252825182820181905260009190848201906040850190845b818110156151585761562e83855161538f565b9284019260a0929092019160010161561b565b60008060006060848603121561565657600080fd5b83356156618161520f565b925060208401356156718161520f565b929592945050506040919091013590565b6000806040838503121561569557600080fd5b50508035926020909101359150565b600080600080600080608087890312156156bd57600080fd5b86356156c88161520f565b9550602087013560ff811681146156de57600080fd5b945060408701356001600160401b03808211156156fa57600080fd5b6157068a838b016151c7565b9096509450606089013591508082111561571f57600080fd5b5061572c89828a016151c7565b979a9699509497509295939492505050565b6000806000806080858703121561575457600080fd5b843561575f8161520f565b9350602085013561576f8161520f565b93969395505050506040820135916060013590565b6020808252825182820181905260009190848201906040850190845b81811015615158578351835292840192918401916001016157a0565b600080600080606085870312156157d257600080fd5b84356157dd8161520f565b93506020850135925060408501356001600160401b038111156157ff57600080fd5b61533a878288016151c7565b600080600080600080600060a0888a03121561582657600080fd5b87356158318161520f565b965060208801356158418161520f565b95506040880135945060608801356001600160401b038082111561586457600080fd5b6158708b838c016151c7565b909650945060808a013591508082111561588957600080fd5b506158968a828b016151c7565b989b979a50959850939692959293505050565b6000806000606084860312156158be57600080fd5b83356158c98161520f565b95602085013595506040909401359392505050565b6000602082840312156158f057600080fd5b813563ffffffff81168114611f6457600080fd5b60008060006060848603121561591957600080fd5b83356159248161520f565b92506020840135915060408401356001600160401b0381111561594657600080fd5b61595286828701615509565b9150509250925092565b6000806000806080858703121561597257600080fd5b843561597d8161520f565b9350602085013561598d8161520f565b92506040850135915060608501356001600160401b038111156159af57600080fd5b6159bb87828801615509565b91505092959194509250565b600080604083850312156159da57600080fd5b82356159e58161520f565b915060208301356159f58161520f565b809150509250929050565b60008060008060008060808789031215615a1957600080fd5b8635615a248161520f565b95506020870135945060408701356001600160401b03808211156156fa57600080fd5b600080600060408486031215615a5c57600080fd5b8335925060208401356001600160401b03811115615a7957600080fd5b61543e868287016151c7565b600181811c90821680615a9957607f821691505b602082108103615ab957634e487b7160e01b600052602260045260246000fd5b50919050565b81835281816020850137506000828201602090810191909152601f909101601f19169091010190565b6001600160a01b038716815260ff86166020820152608060408201819052600090615b169083018688615abf565b8281036060840152615b29818587615abf565b9998505050505050505050565b60018060a01b0384168152826020820152606060408201526000611f396060830184615188565b6080808252600e908201526d41677265656d656e74537461746560901b60a08201526001600160a01b039384166020820152919092166040820152606081019190915260c00190565b6060808252600d908201526c41677265656d656e744461746160981b60808201526001600160a01b03929092166020830152604082015260a00190565b838152604060208201819052810182905260006001600160fb1b03831115615c0a57600080fd5b8260051b8085606085013791909101606001949350505050565b600060208284031215615c3657600080fd5b8151611f648161555f565b634e487b7160e01b600052601160045260246000fd5b6000600160ff1b8201615c6c57615c6c615c41565b5060000390565b634e487b7160e01b600052600160045260246000fd5b8082018281126000831280158216821582161715615ca957615ca9615c41565b505092915050565b8181036000831280158383131683831282161715613d7a57613d7a615c41565b85815260018060a01b038516602082015283604082015282606082015260a06080820152600061506e60a0830184615188565b600060018201615d1657615d16615c41565b5060010190565b634e487b7160e01b600052603260045260246000fd5b600060208284031215615d4557600080fd5b5051919050565b60006020808385031215615d5f57600080fd5b82516001600160401b0380821115615d7657600080fd5b818501915085601f830112615d8a57600080fd5b815181811115615d9c57615d9c61549c565b8060051b9150615dad8483016154b2565b8181529183018401918481019088841115615dc757600080fd5b938501935b83851015615df15784519250615de18361520f565b8282529385019390850190615dcc565b98975050505050505050565b808201808211156111a8576111a8615c41565b601f821115611ccd57600081815260208120601f850160051c81016020861015615e375750805b601f850160051c820191505b81811015615e5657828155600101615e43565b505050505050565b6001600160401b03831115615e7557615e7561549c565b615e8983615e838354615a85565b83615e10565b6000601f841160018114615ebd5760008515615ea55750838201355b600019600387901b1c1916600186901b178355611315565b600083815260209020601f19861690835b82811015615eee5786850135825560209485019460019092019101615ece565b5086821015615f0b5760001960f88860031b161c19848701351681555b505060018560011b0183555050505050565b600060208284031215615f2f57600080fd5b8151611f648161520f565b818103818111156111a8576111a8615c41565b600063ffffffff808316818103615f6657615f66615c41565b6001019392505050565b600b81810b9083900b016b7fffffffffffffffffffffff81136b7fffffffffffffffffffffff19821217156111a8576111a8615c41565b63ffffffff818116838216019080821115613d7a57613d7a615c41565b60ff81811683821601908111156111a8576111a8615c41565b600082615ffa57634e487b7160e01b600052601260045260246000fd5b500490565b60008060006060848603121561601457600080fd5b8351925060208401519150604084015190509250925092565b8381526060602082015260006160466060830185615188565b8281036040840152611d0d8185615188565b60ff82811682821603908111156111a8576111a8615c41565b600181815b808511156160ac57816000190482111561609257616092615c41565b8085161561609f57918102915b93841c9390800290616076565b509250929050565b6000826160c3575060016111a8565b816160d0575060006111a8565b81600181146160e657600281146160f05761610c565b60019150506111a8565b60ff84111561610157616101615c41565b50506001821b6111a8565b5060208310610133831016604e8410600b841016171561612f575081810a6111a8565b6161398383616071565b806000190482111561614d5761614d615c41565b029392505050565b6000611f6460ff8416836160b4565b80820281158282048414176111a8576111a8615c41565b6000806000806080858703121561619157600080fd5b84519350602085015180600b0b81146161a957600080fd5b6040860151606090960151949790965092505050565b6001600160a01b0387811682528681166020830152851660408201526060810184905260c0608082018190526000906161fa90830185615188565b82810360a0840152615b298185615188565b6001600160a01b03858116825284166020820152600b83900b6040820152608060608201819052600090611d0d90830184615188565b6001600160a01b038416815260606020820181905260009061604690830185615188565b60006020828403121561627857600080fd5b81516001600160401b0381111561628e57600080fd5b8201601f8101841361629f57600080fd5b80516162ad615528826154e2565b8181528560208385010111156162c257600080fd5b611f39826020830160208601615164565b600082516162e5818460208701615164565b919091019291505056fe5375706572546f6b656e3a2064656372656173656420616c6c6f77616e63652062656c6f77207a65726fddf252ad1be2c89b69c2b068fc378daa952ba7f163c4a11628f55a4df523b3ef5375706572546f6b656e3a207472616e7366657220616d6f756e74206578636565647320616c6c6f77616e6365a26469706673582212204026e33e3ef2c4a5d26f98e596ea87b2a18c9e1b2ba029174af697a04713cca564736f6c63430008130033",
    "linkReferences": {}
  },
  "methodIdentifiers": {
    "CONSTANT_INFLOW_NFT()": "4c5c0c85",
    "CONSTANT_OUTFLOW_NFT()": "ef43d2c6",
    "FLAT_COST_SPONSORSHIP()": "b132a50d",
    "MAX_SPONSORSHIP_LEVEL()": "b5c0b7eb",
    "MAX_SPONSORSHIP_PATH_OUTFLOW()": "f349f56a",
    "allowance(address,address)": "dd62ed3e",
    "approve(address,uint256)": "095ea7b3",
    "authorizeOperator(address)": "959b8c3f",
    "balanceOf(address)": "70a08231",
    "burn(uint256,bytes)": "fe9d9303",
    "calculateFlowRate(uint32)": "7ae058dc",
    "castrate()": "9903ad38",
    "createAgreement(bytes32,bytes32[])": "12a6a3f8",
    "decimals()": "313ce567",
    "decreaseAllowance(address,uint256)": "a457c2d7",
    "defaultOperators()": "06e48538",
    "downgrade(uint256)": "11bcc81e",
    "downgradeTo(address,uint256)": "83ba2525",
    "fee(uint32)": "8934c79a",
    "getAccountActiveAgreements(address)": "386fa221",
    "getAgreementData(address,bytes32,uint256)": "6c2d9f2f",
    "getAgreementStateSlot(address,address,uint256,uint256)": "4b61cc33",
    "getChainOfSponsors(address)": "21fb177a",
    "getCodeAddress()": "50d75d25",
    "getHost()": "20bc4425",
    "getProtege(address)": "099e14ce",
    "getUnderlyingToken()": "ee719bc8",
    "granularity()": "556f0dc7",
    "increaseAllowance(address,uint256)": "39509351",
    "initialize(address,uint8,string,string)": "42fe0980",
    "initialize(string,string,address)": "077f224a",
    "isAccountCritical(address,uint256)": "d9d078d6",
    "isAccountCriticalNow(address)": "79359f6f",
    "isAccountSolvent(address,uint256)": "b84cdd4a",
    "isAccountSolventNow(address)": "bb0d196e",
    "isOperatorFor(address,address)": "d95b6371",
    "isProtege(address)": "e4a472c8",
    "makeLiquidationPayoutsV2(bytes32,bytes,address,bool,address,uint256,int256)": "1863e809",
    "mint(uint256)": "a0712d68",
    "name()": "06fdde03",
    "operationApprove(address,address,uint256)": "62aa5287",
    "operationDecreaseAllowance(address,address,uint256)": "c780fd82",
    "operationDowngrade(address,uint256)": "245887fc",
    "operationIncreaseAllowance(address,address,uint256)": "4b2763b3",
    "operationSend(address,address,uint256,bytes)": "ca0c1e7f",
    "operationTransferFrom(address,address,address,uint256)": "16d055d6",
    "operationUpgrade(address,uint256)": "ca789464",
    "operatorBurn(address,uint256,bytes,bytes)": "fc673c4f",
    "operatorSend(address,address,uint256,bytes,bytes)": "62ad1b83",
    "owner()": "8da5cb5b",
    "proxiableUUID()": "52d1902d",
    "realtimeBalanceOf(address,uint256)": "eb3537cc",
    "realtimeBalanceOfNow(address)": "2ec8eec7",
    "restartStream()": "57cf7acb",
    "revokeOperator(address)": "fad8b32a",
    "selfApproveFor(address,address,uint256)": "66a12fb6",
    "selfBurn(address,uint256,bytes)": "9d876741",
    "selfMint(address,uint256,bytes)": "c68d4283",
    "selfTransferFrom(address,address,address,uint256)": "41b706be",
    "send(address,uint256,bytes)": "9bd9bbc6",
    "settleBalance(address,int256)": "cf97256d",
    "sponsor(address)": "766c4f37",
    "symbol()": "95d89b41",
    "terminateAgreement(bytes32,uint256)": "27048397",
    "totalSupply()": "18160ddd",
    "transfer(address,uint256)": "a9059cbb",
    "transferAll(address)": "a3a7e7f3",
    "transferFrom(address,address,uint256)": "23b872dd",
    "transferOwnership(address)": "f2fde38b",
    "updateAgreementData(bytes32,bytes32[])": "a1b2bf8b",
    "updateAgreementStateSlot(address,uint256,bytes32[])": "090c415e",
    "updateCode(address)": "46951954",
    "upgrade(uint256)": "45977d03",
    "upgradeTo(address,uint256,bytes)": "5b9d09cc",
    "withdraw(address,uint256)": "f3fef3a3"
  },
  "id": 111
}