{
  "abi": [
    {
      "inputs": [],
      "stateMutability": "nonpayable",
      "type": "constructor"
    },
    {
      "inputs": [],
      "name": "Initialized",
      "type": "error"
    },
    {
      "inputs": [],
      "name": "ZeroAddress",
      "type": "error"
    },
    {
      "anonymous": false,
      "inputs": [
        {
          "indexed": true,
          "internalType": "address",
          "name": "previousOwner",
          "type": "address"
        },
        {
          "indexed": true,
          "internalType": "address",
          "name": "newOwner",
          "type": "address"
        }
      ],
      "name": "OwnershipTransferred",
      "type": "event"
    },
    {
      "anonymous": false,
      "inputs": [
        {
          "indexed": true,
          "internalType": "address",
          "name": "sponsor",
          "type": "address"
        },
        {
          "indexed": true,
          "internalType": "address",
          "name": "protege",
          "type": "address"
        },
        {
          "indexed": false,
          "internalType": "uint8",
          "name": "level",
          "type": "uint8"
        },
        {
          "indexed": false,
          "internalType": "uint32",
          "name": "totalProtegeCount",
          "type": "uint32"
        },
        {
          "indexed": false,
          "internalType": "uint32",
          "name": "directTotalProtegeCount",
          "type": "uint32"
        }
      ],
      "name": "PROTEGE_UPDATED",
      "type": "event"
    },
    {
      "stateMutability": "payable",
      "type": "fallback"
    },
    {
      "inputs": [],
      "name": "FIRST_ELEMENT_PROGRESSION",
      "outputs": [
        {
          "internalType": "uint256",
          "name": "",
          "type": "uint256"
        }
      ],
      "stateMutability": "view",
      "type": "function"
    },
    {
      "inputs": [],
      "name": "FLAT_COST_SPONSORSHIP",
      "outputs": [
        {
          "internalType": "uint256",
          "name": "",
          "type": "uint256"
        }
      ],
      "stateMutability": "view",
      "type": "function"
    },
    {
      "inputs": [],
      "name": "MAX_SPONSORSHIP_LEVEL",
      "outputs": [
        {
          "internalType": "uint256",
          "name": "",
          "type": "uint256"
        }
      ],
      "stateMutability": "view",
      "type": "function"
    },
    {
      "inputs": [],
      "name": "MAX_SPONSORSHIP_PATH_OUTFLOW",
      "outputs": [
        {
          "internalType": "uint256",
          "name": "",
          "type": "uint256"
        }
      ],
      "stateMutability": "view",
      "type": "function"
    },
    {
      "inputs": [
        {
          "internalType": "uint8",
          "name": "level",
          "type": "uint8"
        },
        {
          "internalType": "uint32",
          "name": "totalProtegeCount",
          "type": "uint32"
        },
        {
          "internalType": "uint256",
          "name": "totalWeightedFactor",
          "type": "uint256"
        }
      ],
      "name": "calculateSponsorAmount",
      "outputs": [
        {
          "internalType": "int96",
          "name": "flow",
          "type": "int96"
        }
      ],
      "stateMutability": "pure",
      "type": "function"
    },
    {
      "inputs": [
        {
          "internalType": "uint8",
          "name": "level",
          "type": "uint8"
        }
      ],
      "name": "getAllocation",
      "outputs": [
        {
          "internalType": "uint256",
          "name": "allocation",
          "type": "uint256"
        }
      ],
      "stateMutability": "pure",
      "type": "function"
    },
    {
      "inputs": [
        {
          "internalType": "address",
          "name": "protege",
          "type": "address"
        }
      ],
      "name": "getChainOfSponsors",
      "outputs": [
        {
          "components": [
            {
              "internalType": "address",
              "name": "sponsor",
              "type": "address"
            },
            {
              "internalType": "uint8",
              "name": "level",
              "type": "uint8"
            },
            {
              "internalType": "uint32",
              "name": "totalProtegeCount",
              "type": "uint32"
            },
            {
              "internalType": "uint32",
              "name": "directTotalProtegeCount",
              "type": "uint32"
            }
          ],
          "internalType": "struct SuperfluidClub.Protege[6]",
          "name": "sponsors",
          "type": "tuple[6]"
        }
      ],
      "stateMutability": "view",
      "type": "function"
    },
    {
      "inputs": [
        {
          "internalType": "uint8",
          "name": "protegeLvl",
          "type": "uint8"
        }
      ],
      "name": "getFlowRateAmount",
      "outputs": [
        {
          "internalType": "int96",
          "name": "flowRate",
          "type": "int96"
        }
      ],
      "stateMutability": "pure",
      "type": "function"
    },
    {
      "inputs": [
        {
          "internalType": "uint8",
          "name": "sponsorLvl",
          "type": "uint8"
        }
      ],
      "name": "getMaxFlowRateByLevel",
      "outputs": [
        {
          "internalType": "int96",
          "name": "maxFlowRate",
          "type": "int96"
        }
      ],
      "stateMutability": "pure",
      "type": "function"
    },
    {
      "inputs": [
        {
          "internalType": "address",
          "name": "protege",
          "type": "address"
        }
      ],
      "name": "getProtege",
      "outputs": [
        {
          "components": [
            {
              "internalType": "address",
              "name": "sponsor",
              "type": "address"
            },
            {
              "internalType": "uint8",
              "name": "level",
              "type": "uint8"
            },
            {
              "internalType": "uint32",
              "name": "totalProtegeCount",
              "type": "uint32"
            },
            {
              "internalType": "uint32",
              "name": "directTotalProtegeCount",
              "type": "uint32"
            }
          ],
          "internalType": "struct SuperfluidClub.Protege",
          "name": "",
          "type": "tuple"
        }
      ],
      "stateMutability": "view",
      "type": "function"
    },
    {
      "inputs": [
        {
          "internalType": "uint8",
          "name": "protegeLvl",
          "type": "uint8"
        }
      ],
      "name": "getProtegeLevelWeight",
      "outputs": [
        {
          "internalType": "uint256",
          "name": "levelWeight",
          "type": "uint256"
        }
      ],
      "stateMutability": "pure",
      "type": "function"
    },
    {
      "inputs": [
        {
          "internalType": "address",
          "name": "superTokenFactory",
          "type": "address"
        }
      ],
      "name": "initialize",
      "outputs": [],
      "stateMutability": "nonpayable",
      "type": "function"
    },
    {
      "inputs": [
        {
          "internalType": "address",
          "name": "initialAddress",
          "type": "address"
        }
      ],
      "name": "initializeProxy",
      "outputs": [],
      "stateMutability": "nonpayable",
      "type": "function"
    },
    {
      "inputs": [
        {
          "internalType": "address",
          "name": "protege",
          "type": "address"
        }
      ],
      "name": "isProtege",
      "outputs": [
        {
          "internalType": "bool",
          "name": "",
          "type": "bool"
        }
      ],
      "stateMutability": "view",
      "type": "function"
    },
    {
      "inputs": [
        {
          "internalType": "uint256",
          "name": "amount",
          "type": "uint256"
        }
      ],
      "name": "mint",
      "outputs": [],
      "stateMutability": "nonpayable",
      "type": "function"
    },
    {
      "inputs": [],
      "name": "owner",
      "outputs": [
        {
          "internalType": "address",
          "name": "",
          "type": "address"
        }
      ],
      "stateMutability": "view",
      "type": "function"
    },
    {
      "inputs": [],
      "name": "renounceOwnership",
      "outputs": [],
      "stateMutability": "nonpayable",
      "type": "function"
    },
    {
      "inputs": [],
      "name": "restartStream",
      "outputs": [],
      "stateMutability": "nonpayable",
      "type": "function"
    },
    {
      "inputs": [
        {
          "internalType": "address payable",
          "name": "newProtege",
          "type": "address"
        }
      ],
      "name": "sponsor",
      "outputs": [],
      "stateMutability": "payable",
      "type": "function"
    },
    {
      "inputs": [
        {
          "internalType": "address",
          "name": "newOwner",
          "type": "address"
        }
      ],
      "name": "transferOwnership",
      "outputs": [],
      "stateMutability": "nonpayable",
      "type": "function"
    },
    {
      "inputs": [
        {
          "internalType": "address",
          "name": "receiver",
          "type": "address"
        },
        {
          "internalType": "uint256",
          "name": "amount",
          "type": "uint256"
        }
      ],
      "name": "withdraw",
      "outputs": [],
      "stateMutability": "nonpayable",
      "type": "function"
    },
    {
      "stateMutability": "payable",
      "type": "receive"
    }
  ],
  "bytecode": {
    "object": "0x608060405234801561001057600080fd5b5061001a3361001f565b610071565b602080546001600160a01b038381166001600160a01b0319831681179093556040519116919082907f8be0079c531659141344cd1fd0a4f28419497f9722a3daafe3b4186f6b6457e090600090a35050565b611e40806100806000396000f3fe60806040526004361061012e5760003560e01c8063a2698fc0116100ab578063c4d66de81161006f578063c4d66de8146103ac578063da3a6a12146103cc578063e4a472c8146103ec578063f2fde38b1461041c578063f349f56a1461043c578063f3fef3a31461045957610135565b8063a2698fc01461030c578063b132a50d14610329578063b144a77b14610344578063b5c0b7eb14610377578063c41a47351461038c57610135565b8063715018a6116100f2578063715018a61461027d578063766c4f371461029257806378575643146102a55780638da5cb5b146102c5578063a0712d68146102ec57610135565b8063099e14ce1461013f5780631c945f59146101ed57806321fb177a1461021b5780634a0687ef1461024857806357cf7acb1461026857610135565b3661013557005b61013d610479565b005b34801561014b57600080fd5b506101d761015a366004611851565b60408051608080820183526000808352602080840182905283850182905260609384018290526001600160a01b03958616825260218152908490208451928301855254948516825260ff600160a01b8604169082015263ffffffff600160a81b8504811693820193909352600160c81b9093049091169082015290565b6040516101e491906118b0565b60405180910390f35b3480156101f957600080fd5b5061020d6102083660046118cf565b6104ab565b6040519081526020016101e4565b34801561022757600080fd5b5061023b610236366004611851565b6104d1565b6040516101e491906118ea565b34801561025457600080fd5b5061013d610263366004611851565b61059f565b34801561027457600080fd5b5061013d61063b565b34801561028957600080fd5b5061013d61070d565b61013d6102a0366004611851565b61071f565b3480156102b157600080fd5b5061020d6102c03660046118cf565b610bd1565b3480156102d157600080fd5b50602080546040516001600160a01b039091168152016101e4565b3480156102f857600080fd5b5061013d610307366004611927565b610c3f565b34801561031857600080fd5b5061020d6813d64c843842b1000081565b34801561033557600080fd5b5061020d662386f26fc1000081565b34801561035057600080fd5b5061036461035f366004611940565b610c82565b604051600b9190910b81526020016101e4565b34801561038357600080fd5b5061020d600681565b34801561039857600080fd5b506103646103a73660046118cf565b610cde565b3480156103b857600080fd5b5061013d6103c7366004611851565b610d57565b3480156103d857600080fd5b506103646103e73660046118cf565b610e12565b3480156103f857600080fd5b5061040c610407366004611851565b610ea0565b60405190151581526020016101e4565b34801561042857600080fd5b5061013d610437366004611851565b610ec0565b34801561044857600080fd5b5061020d68270801d946c940000081565b34801561046557600080fd5b5061013d610474366004611988565b610f36565b6104a96104a47f360894a13ba1a3210667c828492db98dca3e2076cc3735a920a3ca505d382bbc5490565b611048565b565b60006104b8826002611aae565b6104cb906813d64c843842b10000611abd565b92915050565b6104d96117f6565b8160005b6104e682610ea0565b15610598576001600160a01b0380831660009081526021602090815260409182902082516080810184529054938416815260ff600160a01b8504169181019190915263ffffffff600160a81b8404811692820192909252600160c81b909204166060820152838261055681611adf565b93506006811061056857610568611af8565b602090810291909101919091526001600160a01b03928316600090815260219091526040902054909116906104dd565b5050919050565b6001600160a01b0381166105c65760405163d92e233d60e01b815260040160405180910390fd5b60006105f07f360894a13ba1a3210667c828492db98dca3e2076cc3735a920a3ca505d382bbc5490565b6001600160a01b031614610617576040516302ed543d60e51b815260040160405180910390fd5b7f360894a13ba1a3210667c828492db98dca3e2076cc3735a920a3ca505d382bbc55565b61064433610ea0565b6106865760405162461bcd60e51b815260206004820152600e60248201526d4e6f7420612070726f746567652160901b60448201526064015b60405180910390fd5b600061069330803361106c565b905080600b0b6000146106d95760405162461bcd60e51b815260206004820152600e60248201526d53747265616d2072756e6e696e6760901b604482015260640161067d565b33600081815260216020526040902054610709919061070190600160a01b900460ff16610cde565b309190611104565b5050565b61071561112b565b6104a96000611185565b61072881610ea0565b1561076a5760405162461bcd60e51b8152602060048201526012602482015271416c726561647920612070726f746567652160701b604482015260640161067d565b60008061077f6020546001600160a01b031690565b6001600160a01b0316336001600160a01b03161461079f573360006107a3565b3060015b915091506107b082610ea0565b806107b85750805b6107fd5760405162461bcd60e51b8152602060048201526016602482015275596f7520617265206e6f7420612070726f746567652160501b604482015260640161067d565b6001600160a01b0382166000908152602160205260409020543490600160a01b900460ff16662386f26fc1000082101561086c5760405162461bcd60e51b815260206004820152601060248201526f4e6f7420656e6f75676820636f696e2160801b604482015260640161067d565b61087d662386f26fc1000083611b0e565b915060068160ff16106108d25760405162461bcd60e51b815260206004820152601e60248201527f4d61782073706f6e736f7273686970206c6576656c2072656163686564210000604482015260640161067d565b3060009081526021602052604090208054600160a81b900463ffffffff169060156108fc83611b21565b82546101009290920a63ffffffff8181021990931691831602179091556001600160a01b03861660009081526021602052604090208054600160c81b90049091169150601961094a83611b21565b91906101000a81548163ffffffff021916908363ffffffff160217905550506040518060800160405280856001600160a01b031681526020018260016109909190611b44565b60ff90811682526000602080840182905260409384018290526001600160a01b038a811683526021825284832086518154938801519688015160609098015192166001600160a81b031990931692909217600160a01b95909416949094029290921767ffffffffffffffff60a81b1916600160a81b63ffffffff9586160263ffffffff60c81b191617600160c81b949093169390930291909117905581855b610a3881610ea0565b15610b76576001600160a01b03811660009081526021602052604090208054600160a81b900463ffffffff16816015610a7083611b21565b91906101000a81548163ffffffff021916908363ffffffff16021790555050610a98836104ab565b610aa29085611b5d565b935082610aae81611b70565b8254909450610ae191508390610adc90600160a01b810460ff1690600160a81b900463ffffffff1688610c82565b6111d7565b805430600090815260216020908152604091829020548251600160a01b820460ff168152600160a81b820463ffffffff90811693820193909352600160c81b9091049091168183015290516001600160a01b038581169316917fb03e738d0e6b0d74a2bfbcaa64c76a9dd601ecb77229d0982c9bfe946c8c39a7919081900360600190a3546001600160a01b03169050610a2f565b610b88886107016103a7876001611b44565b508415610bc7576040516001600160a01b0389169086156108fc029087906000818181858888f19350505050158015610bc5573d6000803e3d6000fd5b505b5050505050505050565b60008160ff16600103610be657506032919050565b8160ff16600203610bf957506019919050565b8160ff16600303610c0c5750600c919050565b8160ff16600403610c1f57506006919050565b8160ff16600503610c3257506003919050565b506001919050565b919050565b610c4761112b565b610c7f308260005b6040519080825280601f01601f191660200182016040528015610c79576020820181803683370190505b50611203565b50565b6000808363ffffffff16610c95866104ab565b610c9f9190611ba3565b9050610cd56201518084610cbc8468270801d946c9400000611ba3565b610cc69190611abd565b610cd09190611abd565b611261565b95945050505050565b600080610cea83610e12565b905060006064610cf985610bd1565b610d0c9068270801d946c9400000611ba3565b610d169190611abd565b905060006bffffffffffffffffffffffff83168211610d355781610d45565b6bffffffffffffffffffffffff83165b9050610cd5610cd06201518083611abd565b602054600160a01b900460ff1615610da75760405162461bcd60e51b8152602060048201526013602482015272105b1c9958591e481a5b9a5d1a585b1a5e9959606a1b604482015260640161067d565b6020805460ff60a01b1916600160a01b178155604080518082018252600580825264086d8eac4b60db1b828501819052835180850190945290835292820192909252610df49183916112ae565b610c7f30710125dfa371a19e6f7cb54395ca00000000006000610c4f565b60008160ff16600103610e2e575067016345785d8a0000919050565b8160ff16600203610e47575066b1a2bc2ec50000919050565b8160ff16600303610e60575066470de4df820000919050565b8160ff16600403610e795750662386f26fc10000919050565b8160ff16600503610e9257506611c37937e08000919050565b5066038d7ea4c68000919050565b6001600160a01b0390811660009081526021602052604090205416151590565b610ec861112b565b6001600160a01b038116610f2d5760405162461bcd60e51b815260206004820152602660248201527f4f776e61626c653a206e6577206f776e657220697320746865207a65726f206160448201526564647265737360d01b606482015260840161067d565b610c7f81611185565b610f3e61112b565b6001600160a01b038216610f875760405162461bcd60e51b815260206004820152601060248201526f24b73b30b634b2103932b1b2b4bb32b960811b604482015260640161067d565b60008111610fc85760405162461bcd60e51b815260206004820152600e60248201526d125b9d985b1a5908185b5bdd5b9d60921b604482015260640161067d565b8047101561100d5760405162461bcd60e51b81526020600482015260126024820152714e6f7420656e6f7567682062616c616e636560701b604482015260640161067d565b6040516001600160a01b0383169082156108fc029083906000818181858888f19350505050158015611043573d6000803e3d6000fd5b505050565b3660008037600080366000845af43d6000803e808015611067573d6000f35b3d6000fd5b60008061107885611331565b604051631cd43d1160e31b81526001600160a01b03888116600483015287811660248301528681166044830152919350908316915063e6a1e88890606401608060405180830381865afa1580156110d3573d6000803e3d6000fd5b505050506040513d601f19601f820116820180604052508101906110f79190611bba565b5090979650505050505050565b60408051600080825260208201909252611123908590859085906114b2565b949350505050565b6020546001600160a01b031633146104a95760405162461bcd60e51b815260206004820181905260248201527f4f776e61626c653a2063616c6c6572206973206e6f7420746865206f776e6572604482015260640161067d565b602080546001600160a01b038381166001600160a01b0319831681179093556040519116919082907f8be0079c531659141344cd1fd0a4f28419497f9722a3daafe3b4186f6b6457e090600090a35050565b60006111e430808561106c565b600b0b13156111f8576110433083836115de565b611043308383611104565b60405163c68d428360e01b8152309063c68d42839061122a90869086908690600401611c4e565b600060405180830381600087803b15801561124457600080fd5b505af1158015611258573d6000803e3d6000fd5b50505050505050565b60006b7fffffffffffffffffffffff8211156112aa5760405162461bcd60e51b81526020600482015260086024820152676f766572666c6f7760c01b604482015260640161067d565b5090565b604051633504b4d160e21b81523060048201526001600160a01b0384169063d412d34490602401600060405180830381600087803b1580156112ef57600080fd5b505af1158015611303573d6000803e3d6000fd5b50506040516285fc1360e71b81523092506342fe0980915061122a9060009060129087908790600401611c75565b7f65599bf746e17a00ea62e3610586992d88101b78eec3cf380706621fb97ea837547fb969d79d88acd02d04ed7ee7d43b949e7daf093d363abcfbbc43dfdfd1ce969a546001600160a01b038116611481576001600160a01b0382166113f657826001600160a01b03166320bc44256040518163ffffffff1660e01b8152600401602060405180830381865afa1580156113cf573d6000803e3d6000fd5b505050506040513d601f19601f820116820180604052508101906113f39190611cbf565b91505b604051635b69006f60e11b81527fa9214cc96615e0085d3bb077758db69497dc2dce3b2b1e97bc93c3d18d83efd360048201526001600160a01b0383169063b6d200de90602401602060405180830381865afa15801561145a573d6000803e3d6000fd5b505050506040513d601f19601f8201168201806040525081019061147e9190611cbf565b90505b6001600160a01b03821661149757611497611cdc565b6001600160a01b0381166114ad576114ad611cdc565b915091565b60008060006114c0876115fd565b91509150816001600160a01b03166339255d5b82836001600160a01b03166362fc305e8b8b8b600067ffffffffffffffff81111561150057611500611b8d565b6040519080825280601f01601f19166020018201604052801561152a576020820181803683370190505b5060405160240161153e9493929190611cf2565b60408051808303601f1901815291815260208201805160e094851b6001600160e01b03909116179052519185901b6001600160e01b0319168252611589939250908990600401611d32565b6000604051808303816000875af11580156115a8573d6000803e3d6000fd5b505050506040513d6000823e601f3d908101601f191682016040526115d09190810190611d68565b506001979650505050505050565b60408051600080825260208201909252611123908590859085906117a8565b7f65599bf746e17a00ea62e3610586992d88101b78eec3cf380706621fb97ea837547fb969d79d88acd02d04ed7ee7d43b949e7daf093d363abcfbbc43dfdfd1ce969a546001600160a01b038116611481576001600160a01b0382166116c257826001600160a01b03166320bc44256040518163ffffffff1660e01b8152600401602060405180830381865afa15801561169b573d6000803e3d6000fd5b505050506040513d601f19601f820116820180604052508101906116bf9190611cbf565b91505b604051635b69006f60e11b81527fa9214cc96615e0085d3bb077758db69497dc2dce3b2b1e97bc93c3d18d83efd360048201526001600160a01b0383169063b6d200de90602401602060405180830381865afa158015611726573d6000803e3d6000fd5b505050506040513d601f19601f8201168201806040525081019061174a9190611cbf565b9050817f65599bf746e17a00ea62e3610586992d88101b78eec3cf380706621fb97ea83755807fb969d79d88acd02d04ed7ee7d43b949e7daf093d363abcfbbc43dfdfd1ce969a556001600160a01b03821661149757611497611cdc565b60008060006117b6876115fd565b91509150816001600160a01b03166339255d5b82836001600160a01b03166350209a628b8b8b600067ffffffffffffffff81111561150057611500611b8d565b6040518060c001604052806006905b6040805160808101825260008082526020808301829052928201819052606082015282526000199092019101816118055790505090565b6001600160a01b0381168114610c7f57600080fd5b60006020828403121561186357600080fd5b813561186e8161183c565b9392505050565b80516001600160a01b0316825260208082015160ff169083015260408082015163ffffffff9081169184019190915260609182015116910152565b608081016104cb8284611875565b803560ff81168114610c3a57600080fd5b6000602082840312156118e157600080fd5b61186e826118be565b6103008101818360005b600681101561191e57611908838351611875565b60809290920191602091909101906001016118f4565b50505092915050565b60006020828403121561193957600080fd5b5035919050565b60008060006060848603121561195557600080fd5b61195e846118be565b9250602084013563ffffffff8116811461197757600080fd5b929592945050506040919091013590565b6000806040838503121561199b57600080fd5b82356119a68161183c565b946020939093013593505050565b634e487b7160e01b600052601160045260246000fd5b600181815b80851115611a055781600019048211156119eb576119eb6119b4565b808516156119f857918102915b93841c93908002906119cf565b509250929050565b600082611a1c575060016104cb565b81611a29575060006104cb565b8160018114611a3f5760028114611a4957611a65565b60019150506104cb565b60ff841115611a5a57611a5a6119b4565b50506001821b6104cb565b5060208310610133831016604e8410600b8410161715611a88575081810a6104cb565b611a9283836119ca565b8060001904821115611aa657611aa66119b4565b029392505050565b600061186e60ff841683611a0d565b600082611ada57634e487b7160e01b600052601260045260246000fd5b500490565b600060018201611af157611af16119b4565b5060010190565b634e487b7160e01b600052603260045260246000fd5b818103818111156104cb576104cb6119b4565b600063ffffffff808316818103611b3a57611b3a6119b4565b6001019392505050565b60ff81811683821601908111156104cb576104cb6119b4565b808201808211156104cb576104cb6119b4565b600060ff821680611b8357611b836119b4565b6000190192915050565b634e487b7160e01b600052604160045260246000fd5b80820281158282048414176104cb576104cb6119b4565b60008060008060808587031215611bd057600080fd5b84519350602085015180600b0b8114611be857600080fd5b6040860151606090960151949790965092505050565b60005b83811015611c19578181015183820152602001611c01565b50506000910152565b60008151808452611c3a816020860160208601611bfe565b601f01601f19169290920160200192915050565b60018060a01b0384168152826020820152606060408201526000610cd56060830184611c22565b6001600160a01b038516815260ff84166020820152608060408201819052600090611ca290830185611c22565b8281036060840152611cb48185611c22565b979650505050505050565b600060208284031215611cd157600080fd5b815161186e8161183c565b634e487b7160e01b600052600160045260246000fd5b6001600160a01b03858116825284166020820152600b83900b6040820152608060608201819052600090611d2890830184611c22565b9695505050505050565b6001600160a01b0384168152606060208201819052600090611d5690830185611c22565b8281036040840152611d288185611c22565b600060208284031215611d7a57600080fd5b815167ffffffffffffffff80821115611d9257600080fd5b818401915084601f830112611da657600080fd5b815181811115611db857611db8611b8d565b604051601f8201601f19908116603f01168101908382118183101715611de057611de0611b8d565b81604052828152876020848701011115611df957600080fd5b611cb4836020830160208801611bfe56fea2646970667358221220cf8ca5d1925ba0d85e2bcf3e5ab840463d76c6248f2e7f5227fd1f9287ae1f2764736f6c63430008130033",
    "linkReferences": {}
  },
  "methodIdentifiers": {
    "FIRST_ELEMENT_PROGRESSION()": "a2698fc0",
    "FLAT_COST_SPONSORSHIP()": "b132a50d",
    "MAX_SPONSORSHIP_LEVEL()": "b5c0b7eb",
    "MAX_SPONSORSHIP_PATH_OUTFLOW()": "f349f56a",
    "calculateSponsorAmount(uint8,uint32,uint256)": "b144a77b",
    "getAllocation(uint8)": "1c945f59",
    "getChainOfSponsors(address)": "21fb177a",
    "getFlowRateAmount(uint8)": "c41a4735",
    "getMaxFlowRateByLevel(uint8)": "da3a6a12",
    "getProtege(address)": "099e14ce",
    "getProtegeLevelWeight(uint8)": "78575643",
    "initialize(address)": "c4d66de8",
    "initializeProxy(address)": "4a0687ef",
    "isProtege(address)": "e4a472c8",
    "mint(uint256)": "a0712d68",
    "owner()": "8da5cb5b",
    "renounceOwnership()": "715018a6",
    "restartStream()": "57cf7acb",
    "sponsor(address)": "766c4f37",
    "transferOwnership(address)": "f2fde38b",
    "withdraw(address,uint256)": "f3fef3a3"
  },
  "id": 115
}