{
  "abi": [
    {
      "inputs": [
        {
          "internalType": "contract ISuperfluid",
          "name": "host",
          "type": "address"
        },
        {
          "internalType": "contract IConstantOutflowNFT",
          "name": "constantOutflowNFT",
          "type": "address"
        },
        {
          "internalType": "contract IConstantInflowNFT",
          "name": "constantInflowNFT",
          "type": "address"
        }
      ],
      "stateMutability": "nonpayable",
      "type": "constructor"
    },
    {
      "inputs": [],
      "name": "ALREADY_PROTEGE",
      "type": "error"
    },
    {
      "inputs": [],
      "name": "MAX_SPONSORSHIP_LEVEL_REACHED",
      "type": "error"
    },
    {
      "inputs": [],
      "name": "NOT_ENOUGH_COIN",
      "type": "error"
    },
    {
      "inputs": [],
      "name": "NOT_OWNER",
      "type": "error"
    },
    {
      "inputs": [],
      "name": "NOT_PROTEGE",
      "type": "error"
    },
    {
      "inputs": [],
      "name": "SF_TOKEN_AGREEMENT_ALREADY_EXISTS",
      "type": "error"
    },
    {
      "inputs": [],
      "name": "SF_TOKEN_AGREEMENT_DOES_NOT_EXIST",
      "type": "error"
    },
    {
      "inputs": [],
      "name": "SF_TOKEN_BURN_INSUFFICIENT_BALANCE",
      "type": "error"
    },
    {
      "inputs": [],
      "name": "SF_TOKEN_MOVE_INSUFFICIENT_BALANCE",
      "type": "error"
    },
    {
      "inputs": [],
      "name": "SF_TOKEN_ONLY_HOST",
      "type": "error"
    },
    {
      "inputs": [],
      "name": "SF_TOKEN_ONLY_LISTED_AGREEMENT",
      "type": "error"
    },
    {
      "inputs": [],
      "name": "SUPER_TOKEN_APPROVE_FROM_ZERO_ADDRESS",
      "type": "error"
    },
    {
      "inputs": [],
      "name": "SUPER_TOKEN_APPROVE_TO_ZERO_ADDRESS",
      "type": "error"
    },
    {
      "inputs": [],
      "name": "SUPER_TOKEN_BURN_FROM_ZERO_ADDRESS",
      "type": "error"
    },
    {
      "inputs": [],
      "name": "SUPER_TOKEN_CALLER_IS_NOT_OPERATOR_FOR_HOLDER",
      "type": "error"
    },
    {
      "inputs": [],
      "name": "SUPER_TOKEN_INFLATIONARY_DEFLATIONARY_NOT_SUPPORTED",
      "type": "error"
    },
    {
      "inputs": [],
      "name": "SUPER_TOKEN_MINT_TO_ZERO_ADDRESS",
      "type": "error"
    },
    {
      "inputs": [],
      "name": "SUPER_TOKEN_NFT_PROXY_ADDRESS_CHANGED",
      "type": "error"
    },
    {
      "inputs": [],
      "name": "SUPER_TOKEN_NOT_ERC777_TOKENS_RECIPIENT",
      "type": "error"
    },
    {
      "inputs": [],
      "name": "SUPER_TOKEN_NO_UNDERLYING_TOKEN",
      "type": "error"
    },
    {
      "inputs": [],
      "name": "SUPER_TOKEN_ONLY_GOV_OWNER",
      "type": "error"
    },
    {
      "inputs": [],
      "name": "SUPER_TOKEN_ONLY_HOST",
      "type": "error"
    },
    {
      "inputs": [],
      "name": "SUPER_TOKEN_ONLY_SELF",
      "type": "error"
    },
    {
      "inputs": [],
      "name": "SUPER_TOKEN_TRANSFER_FROM_ZERO_ADDRESS",
      "type": "error"
    },
    {
      "inputs": [],
      "name": "SUPER_TOKEN_TRANSFER_TO_ZERO_ADDRESS",
      "type": "error"
    },
    {
      "anonymous": false,
      "inputs": [
        {
          "indexed": true,
          "internalType": "address",
          "name": "agreementClass",
          "type": "address"
        },
        {
          "indexed": false,
          "internalType": "bytes32",
          "name": "id",
          "type": "bytes32"
        },
        {
          "indexed": false,
          "internalType": "bytes32[]",
          "name": "data",
          "type": "bytes32[]"
        }
      ],
      "name": "AgreementCreated",
      "type": "event"
    },
    {
      "anonymous": false,
      "inputs": [
        {
          "indexed": true,
          "internalType": "address",
          "name": "agreementClass",
          "type": "address"
        },
        {
          "indexed": false,
          "internalType": "bytes32",
          "name": "id",
          "type": "bytes32"
        },
        {
          "indexed": true,
          "internalType": "address",
          "name": "penaltyAccount",
          "type": "address"
        },
        {
          "indexed": true,
          "internalType": "address",
          "name": "rewardAccount",
          "type": "address"
        },
        {
          "indexed": false,
          "internalType": "uint256",
          "name": "rewardAmount",
          "type": "uint256"
        }
      ],
      "name": "AgreementLiquidated",
      "type": "event"
    },
    {
      "anonymous": false,
      "inputs": [
        {
          "indexed": false,
          "internalType": "address",
          "name": "liquidatorAccount",
          "type": "address"
        },
        {
          "indexed": true,
          "internalType": "address",
          "name": "agreementClass",
          "type": "address"
        },
        {
          "indexed": false,
          "internalType": "bytes32",
          "name": "id",
          "type": "bytes32"
        },
        {
          "indexed": true,
          "internalType": "address",
          "name": "penaltyAccount",
          "type": "address"
        },
        {
          "indexed": true,
          "internalType": "address",
          "name": "bondAccount",
          "type": "address"
        },
        {
          "indexed": false,
          "internalType": "uint256",
          "name": "rewardAmount",
          "type": "uint256"
        },
        {
          "indexed": false,
          "internalType": "uint256",
          "name": "bailoutAmount",
          "type": "uint256"
        }
      ],
      "name": "AgreementLiquidatedBy",
      "type": "event"
    },
    {
      "anonymous": false,
      "inputs": [
        {
          "indexed": true,
          "internalType": "address",
          "name": "agreementClass",
          "type": "address"
        },
        {
          "indexed": false,
          "internalType": "bytes32",
          "name": "id",
          "type": "bytes32"
        },
        {
          "indexed": true,
          "internalType": "address",
          "name": "liquidatorAccount",
          "type": "address"
        },
        {
          "indexed": true,
          "internalType": "address",
          "name": "targetAccount",
          "type": "address"
        },
        {
          "indexed": false,
          "internalType": "address",
          "name": "rewardAmountReceiver",
          "type": "address"
        },
        {
          "indexed": false,
          "internalType": "uint256",
          "name": "rewardAmount",
          "type": "uint256"
        },
        {
          "indexed": false,
          "internalType": "int256",
          "name": "targetAccountBalanceDelta",
          "type": "int256"
        },
        {
          "indexed": false,
          "internalType": "bytes",
          "name": "liquidationTypeData",
          "type": "bytes"
        }
      ],
      "name": "AgreementLiquidatedV2",
      "type": "event"
    },
    {
      "anonymous": false,
      "inputs": [
        {
          "indexed": true,
          "internalType": "address",
          "name": "agreementClass",
          "type": "address"
        },
        {
          "indexed": true,
          "internalType": "address",
          "name": "account",
          "type": "address"
        },
        {
          "indexed": false,
          "internalType": "uint256",
          "name": "slotId",
          "type": "uint256"
        }
      ],
      "name": "AgreementStateUpdated",
      "type": "event"
    },
    {
      "anonymous": false,
      "inputs": [
        {
          "indexed": true,
          "internalType": "address",
          "name": "agreementClass",
          "type": "address"
        },
        {
          "indexed": false,
          "internalType": "bytes32",
          "name": "id",
          "type": "bytes32"
        }
      ],
      "name": "AgreementTerminated",
      "type": "event"
    },
    {
      "anonymous": false,
      "inputs": [
        {
          "indexed": true,
          "internalType": "address",
          "name": "agreementClass",
          "type": "address"
        },
        {
          "indexed": false,
          "internalType": "bytes32",
          "name": "id",
          "type": "bytes32"
        },
        {
          "indexed": false,
          "internalType": "bytes32[]",
          "name": "data",
          "type": "bytes32[]"
        }
      ],
      "name": "AgreementUpdated",
      "type": "event"
    },
    {
      "anonymous": false,
      "inputs": [
        {
          "indexed": true,
          "internalType": "address",
          "name": "owner",
          "type": "address"
        },
        {
          "indexed": true,
          "internalType": "address",
          "name": "spender",
          "type": "address"
        },
        {
          "indexed": false,
          "internalType": "uint256",
          "name": "value",
          "type": "uint256"
        }
      ],
      "name": "Approval",
      "type": "event"
    },
    {
      "anonymous": false,
      "inputs": [
        {
          "indexed": true,
          "internalType": "address",
          "name": "operator",
          "type": "address"
        },
        {
          "indexed": true,
          "internalType": "address",
          "name": "tokenHolder",
          "type": "address"
        }
      ],
      "name": "AuthorizedOperator",
      "type": "event"
    },
    {
      "anonymous": false,
      "inputs": [
        {
          "indexed": true,
          "internalType": "address",
          "name": "bailoutAccount",
          "type": "address"
        },
        {
          "indexed": false,
          "internalType": "uint256",
          "name": "bailoutAmount",
          "type": "uint256"
        }
      ],
      "name": "Bailout",
      "type": "event"
    },
    {
      "anonymous": false,
      "inputs": [
        {
          "indexed": true,
          "internalType": "address",
          "name": "operator",
          "type": "address"
        },
        {
          "indexed": true,
          "internalType": "address",
          "name": "from",
          "type": "address"
        },
        {
          "indexed": false,
          "internalType": "uint256",
          "name": "amount",
          "type": "uint256"
        },
        {
          "indexed": false,
          "internalType": "bytes",
          "name": "data",
          "type": "bytes"
        },
        {
          "indexed": false,
          "internalType": "bytes",
          "name": "operatorData",
          "type": "bytes"
        }
      ],
      "name": "Burned",
      "type": "event"
    },
    {
      "anonymous": false,
      "inputs": [
        {
          "indexed": false,
          "internalType": "bytes32",
          "name": "uuid",
          "type": "bytes32"
        },
        {
          "indexed": false,
          "internalType": "address",
          "name": "codeAddress",
          "type": "address"
        }
      ],
      "name": "CodeUpdated",
      "type": "event"
    },
    {
      "anonymous": false,
      "inputs": [
        {
          "indexed": true,
          "internalType": "contract IConstantInflowNFT",
          "name": "constantInflowNFT",
          "type": "address"
        }
      ],
      "name": "ConstantInflowNFTCreated",
      "type": "event"
    },
    {
      "anonymous": false,
      "inputs": [
        {
          "indexed": true,
          "internalType": "contract IConstantOutflowNFT",
          "name": "constantOutflowNFT",
          "type": "address"
        }
      ],
      "name": "ConstantOutflowNFTCreated",
      "type": "event"
    },
    {
      "anonymous": false,
      "inputs": [
        {
          "indexed": false,
          "internalType": "uint8",
          "name": "version",
          "type": "uint8"
        }
      ],
      "name": "Initialized",
      "type": "event"
    },
    {
      "anonymous": false,
      "inputs": [
        {
          "indexed": true,
          "internalType": "address",
          "name": "operator",
          "type": "address"
        },
        {
          "indexed": true,
          "internalType": "address",
          "name": "to",
          "type": "address"
        },
        {
          "indexed": false,
          "internalType": "uint256",
          "name": "amount",
          "type": "uint256"
        },
        {
          "indexed": false,
          "internalType": "bytes",
          "name": "data",
          "type": "bytes"
        },
        {
          "indexed": false,
          "internalType": "bytes",
          "name": "operatorData",
          "type": "bytes"
        }
      ],
      "name": "Minted",
      "type": "event"
    },
    {
      "anonymous": false,
      "inputs": [
        {
          "indexed": true,
          "internalType": "address",
          "name": "previousOwner",
          "type": "address"
        },
        {
          "indexed": true,
          "internalType": "address",
          "name": "newOwner",
          "type": "address"
        }
      ],
      "name": "OwnershipTransferred",
      "type": "event"
    },
    {
      "anonymous": false,
      "inputs": [
        {
          "indexed": true,
          "internalType": "address",
          "name": "sponsor",
          "type": "address"
        },
        {
          "indexed": true,
          "internalType": "address",
          "name": "protege",
          "type": "address"
        },
        {
          "indexed": false,
          "internalType": "uint8",
          "name": "level",
          "type": "uint8"
        },
        {
          "indexed": false,
          "internalType": "uint32",
          "name": "totalProtegeCount",
          "type": "uint32"
        },
        {
          "indexed": false,
          "internalType": "uint32",
          "name": "directTotalProtegeCount",
          "type": "uint32"
        }
      ],
      "name": "PROTEGE_UPDATED",
      "type": "event"
    },
    {
      "anonymous": false,
      "inputs": [
        {
          "indexed": true,
          "internalType": "address",
          "name": "operator",
          "type": "address"
        },
        {
          "indexed": true,
          "internalType": "address",
          "name": "tokenHolder",
          "type": "address"
        }
      ],
      "name": "RevokedOperator",
      "type": "event"
    },
    {
      "anonymous": false,
      "inputs": [
        {
          "indexed": true,
          "internalType": "address",
          "name": "operator",
          "type": "address"
        },
        {
          "indexed": true,
          "internalType": "address",
          "name": "from",
          "type": "address"
        },
        {
          "indexed": true,
          "internalType": "address",
          "name": "to",
          "type": "address"
        },
        {
          "indexed": false,
          "internalType": "uint256",
          "name": "amount",
          "type": "uint256"
        },
        {
          "indexed": false,
          "internalType": "bytes",
          "name": "data",
          "type": "bytes"
        },
        {
          "indexed": false,
          "internalType": "bytes",
          "name": "operatorData",
          "type": "bytes"
        }
      ],
      "name": "Sent",
      "type": "event"
    },
    {
      "anonymous": false,
      "inputs": [
        {
          "indexed": true,
          "internalType": "address",
          "name": "account",
          "type": "address"
        },
        {
          "indexed": false,
          "internalType": "uint256",
          "name": "amount",
          "type": "uint256"
        }
      ],
      "name": "TokenDowngraded",
      "type": "event"
    },
    {
      "anonymous": false,
      "inputs": [
        {
          "indexed": true,
          "internalType": "address",
          "name": "account",
          "type": "address"
        },
        {
          "indexed": false,
          "internalType": "uint256",
          "name": "amount",
          "type": "uint256"
        }
      ],
      "name": "TokenUpgraded",
      "type": "event"
    },
    {
      "anonymous": false,
      "inputs": [
        {
          "indexed": true,
          "internalType": "address",
          "name": "from",
          "type": "address"
        },
        {
          "indexed": true,
          "internalType": "address",
          "name": "to",
          "type": "address"
        },
        {
          "indexed": false,
          "internalType": "uint256",
          "name": "value",
          "type": "uint256"
        }
      ],
      "name": "Transfer",
      "type": "event"
    },
    {
      "inputs": [],
      "name": "CONSTANT_INFLOW_NFT",
      "outputs": [
        {
          "internalType": "contract IConstantInflowNFT",
          "name": "",
          "type": "address"
        }
      ],
      "stateMutability": "view",
      "type": "function"
    },
    {
      "inputs": [],
      "name": "CONSTANT_OUTFLOW_NFT",
      "outputs": [
        {
          "internalType": "contract IConstantOutflowNFT",
          "name": "",
          "type": "address"
        }
      ],
      "stateMutability": "view",
      "type": "function"
    },
    {
      "inputs": [],
      "name": "MAX_SPONSORSHIP_LEVEL",
      "outputs": [
        {
          "internalType": "uint256",
          "name": "",
          "type": "uint256"
        }
      ],
      "stateMutability": "view",
      "type": "function"
    },
    {
      "inputs": [],
      "name": "MAX_SPONSORSHIP_PATH_OUTFLOW",
      "outputs": [
        {
          "internalType": "uint256",
          "name": "",
          "type": "uint256"
        }
      ],
      "stateMutability": "view",
      "type": "function"
    },
    {
      "inputs": [
        {
          "internalType": "address",
          "name": "account",
          "type": "address"
        },
        {
          "internalType": "address",
          "name": "spender",
          "type": "address"
        }
      ],
      "name": "allowance",
      "outputs": [
        {
          "internalType": "uint256",
          "name": "",
          "type": "uint256"
        }
      ],
      "stateMutability": "view",
      "type": "function"
    },
    {
      "inputs": [
        {
          "internalType": "address",
          "name": "spender",
          "type": "address"
        },
        {
          "internalType": "uint256",
          "name": "amount",
          "type": "uint256"
        }
      ],
      "name": "approve",
      "outputs": [
        {
          "internalType": "bool",
          "name": "",
          "type": "bool"
        }
      ],
      "stateMutability": "nonpayable",
      "type": "function"
    },
    {
      "inputs": [
        {
          "internalType": "address",
          "name": "operator",
          "type": "address"
        }
      ],
      "name": "authorizeOperator",
      "outputs": [],
      "stateMutability": "nonpayable",
      "type": "function"
    },
    {
      "inputs": [
        {
          "internalType": "address",
          "name": "account",
          "type": "address"
        }
      ],
      "name": "balanceOf",
      "outputs": [
        {
          "internalType": "uint256",
          "name": "balance",
          "type": "uint256"
        }
      ],
      "stateMutability": "view",
      "type": "function"
    },
    {
      "inputs": [
        {
          "internalType": "uint256",
          "name": "amount",
          "type": "uint256"
        },
        {
          "internalType": "bytes",
          "name": "userData",
          "type": "bytes"
        }
      ],
      "name": "burn",
      "outputs": [],
      "stateMutability": "nonpayable",
      "type": "function"
    },
    {
      "inputs": [],
      "name": "castrate",
      "outputs": [],
      "stateMutability": "nonpayable",
      "type": "function"
    },
    {
      "inputs": [
        {
          "internalType": "bytes32",
          "name": "id",
          "type": "bytes32"
        },
        {
          "internalType": "bytes32[]",
          "name": "data",
          "type": "bytes32[]"
        }
      ],
      "name": "createAgreement",
      "outputs": [],
      "stateMutability": "nonpayable",
      "type": "function"
    },
    {
      "inputs": [],
      "name": "decimals",
      "outputs": [
        {
          "internalType": "uint8",
          "name": "",
          "type": "uint8"
        }
      ],
      "stateMutability": "pure",
      "type": "function"
    },
    {
      "inputs": [
        {
          "internalType": "address",
          "name": "spender",
          "type": "address"
        },
        {
          "internalType": "uint256",
          "name": "subtractedValue",
          "type": "uint256"
        }
      ],
      "name": "decreaseAllowance",
      "outputs": [
        {
          "internalType": "bool",
          "name": "",
          "type": "bool"
        }
      ],
      "stateMutability": "nonpayable",
      "type": "function"
    },
    {
      "inputs": [],
      "name": "defaultOperators",
      "outputs": [
        {
          "internalType": "address[]",
          "name": "",
          "type": "address[]"
        }
      ],
      "stateMutability": "view",
      "type": "function"
    },
    {
      "inputs": [
        {
          "internalType": "uint256",
          "name": "amount",
          "type": "uint256"
        }
      ],
      "name": "downgrade",
      "outputs": [],
      "stateMutability": "nonpayable",
      "type": "function"
    },
    {
      "inputs": [
        {
          "internalType": "address",
          "name": "to",
          "type": "address"
        },
        {
          "internalType": "uint256",
          "name": "amount",
          "type": "uint256"
        }
      ],
      "name": "downgradeTo",
      "outputs": [],
      "stateMutability": "nonpayable",
      "type": "function"
    },
    {
      "inputs": [
        {
          "internalType": "uint32",
          "name": "directProtegeCount",
          "type": "uint32"
        }
      ],
      "name": "fee",
      "outputs": [
        {
          "internalType": "uint256",
          "name": "feeAmount",
          "type": "uint256"
        }
      ],
      "stateMutability": "pure",
      "type": "function"
    },
    {
      "inputs": [
        {
          "internalType": "address",
          "name": "account",
          "type": "address"
        }
      ],
      "name": "getAccountActiveAgreements",
      "outputs": [
        {
          "internalType": "contract ISuperAgreement[]",
          "name": "",
          "type": "address[]"
        }
      ],
      "stateMutability": "view",
      "type": "function"
    },
    {
      "inputs": [
        {
          "internalType": "address",
          "name": "agreementClass",
          "type": "address"
        },
        {
          "internalType": "bytes32",
          "name": "id",
          "type": "bytes32"
        },
        {
          "internalType": "uint256",
          "name": "dataLength",
          "type": "uint256"
        }
      ],
      "name": "getAgreementData",
      "outputs": [
        {
          "internalType": "bytes32[]",
          "name": "data",
          "type": "bytes32[]"
        }
      ],
      "stateMutability": "view",
      "type": "function"
    },
    {
      "inputs": [
        {
          "internalType": "address",
          "name": "agreementClass",
          "type": "address"
        },
        {
          "internalType": "address",
          "name": "account",
          "type": "address"
        },
        {
          "internalType": "uint256",
          "name": "slotId",
          "type": "uint256"
        },
        {
          "internalType": "uint256",
          "name": "dataLength",
          "type": "uint256"
        }
      ],
      "name": "getAgreementStateSlot",
      "outputs": [
        {
          "internalType": "bytes32[]",
          "name": "slotData",
          "type": "bytes32[]"
        }
      ],
      "stateMutability": "view",
      "type": "function"
    },
    {
      "inputs": [
        {
          "internalType": "address",
          "name": "protege",
          "type": "address"
        }
      ],
      "name": "getChainOfSponsors",
      "outputs": [
        {
          "components": [
            {
              "internalType": "address",
              "name": "sponsor",
              "type": "address"
            },
            {
              "internalType": "uint8",
              "name": "level",
              "type": "uint8"
            },
            {
              "internalType": "uint32",
              "name": "totalProtegeCount",
              "type": "uint32"
            },
            {
              "internalType": "uint32",
              "name": "directTotalProtegeCount",
              "type": "uint32"
            },
            {
              "internalType": "int96",
              "name": "desiredFlowRate",
              "type": "int96"
            }
          ],
          "internalType": "struct ISuperfluidClub.Protege[5]",
          "name": "sponsors",
          "type": "tuple[5]"
        }
      ],
      "stateMutability": "view",
      "type": "function"
    },
    {
      "inputs": [],
      "name": "getCodeAddress",
      "outputs": [
        {
          "internalType": "address",
          "name": "codeAddress",
          "type": "address"
        }
      ],
      "stateMutability": "view",
      "type": "function"
    },
    {
      "inputs": [],
      "name": "getHost",
      "outputs": [
        {
          "internalType": "address",
          "name": "host",
          "type": "address"
        }
      ],
      "stateMutability": "view",
      "type": "function"
    },
    {
      "inputs": [
        {
          "internalType": "address",
          "name": "protege",
          "type": "address"
        }
      ],
      "name": "getProtege",
      "outputs": [
        {
          "components": [
            {
              "internalType": "address",
              "name": "sponsor",
              "type": "address"
            },
            {
              "internalType": "uint8",
              "name": "level",
              "type": "uint8"
            },
            {
              "internalType": "uint32",
              "name": "totalProtegeCount",
              "type": "uint32"
            },
            {
              "internalType": "uint32",
              "name": "directTotalProtegeCount",
              "type": "uint32"
            },
            {
              "internalType": "int96",
              "name": "desiredFlowRate",
              "type": "int96"
            }
          ],
          "internalType": "struct ISuperfluidClub.Protege",
          "name": "",
          "type": "tuple"
        }
      ],
      "stateMutability": "view",
      "type": "function"
    },
    {
      "inputs": [],
      "name": "getUnderlyingToken",
      "outputs": [
        {
          "internalType": "address",
          "name": "",
          "type": "address"
        }
      ],
      "stateMutability": "view",
      "type": "function"
    },
    {
      "inputs": [],
      "name": "granularity",
      "outputs": [
        {
          "internalType": "uint256",
          "name": "",
          "type": "uint256"
        }
      ],
      "stateMutability": "pure",
      "type": "function"
    },
    {
      "inputs": [
        {
          "internalType": "address",
          "name": "spender",
          "type": "address"
        },
        {
          "internalType": "uint256",
          "name": "addedValue",
          "type": "uint256"
        }
      ],
      "name": "increaseAllowance",
      "outputs": [
        {
          "internalType": "bool",
          "name": "",
          "type": "bool"
        }
      ],
      "stateMutability": "nonpayable",
      "type": "function"
    },
    {
      "inputs": [
        {
          "internalType": "string",
          "name": "name",
          "type": "string"
        },
        {
          "internalType": "string",
          "name": "symbol",
          "type": "string"
        },
        {
          "internalType": "address",
          "name": "newOwner",
          "type": "address"
        }
      ],
      "name": "initialize",
      "outputs": [],
      "stateMutability": "nonpayable",
      "type": "function"
    },
    {
      "inputs": [
        {
          "internalType": "contract IERC20",
          "name": "underlyingToken",
          "type": "address"
        },
        {
          "internalType": "uint8",
          "name": "underlyingDecimals",
          "type": "uint8"
        },
        {
          "internalType": "string",
          "name": "n",
          "type": "string"
        },
        {
          "internalType": "string",
          "name": "s",
          "type": "string"
        }
      ],
      "name": "initialize",
      "outputs": [],
      "stateMutability": "nonpayable",
      "type": "function"
    },
    {
      "inputs": [
        {
          "internalType": "address",
          "name": "account",
          "type": "address"
        },
        {
          "internalType": "uint256",
          "name": "timestamp",
          "type": "uint256"
        }
      ],
      "name": "isAccountCritical",
      "outputs": [
        {
          "internalType": "bool",
          "name": "isCritical",
          "type": "bool"
        }
      ],
      "stateMutability": "view",
      "type": "function"
    },
    {
      "inputs": [
        {
          "internalType": "address",
          "name": "account",
          "type": "address"
        }
      ],
      "name": "isAccountCriticalNow",
      "outputs": [
        {
          "internalType": "bool",
          "name": "isCritical",
          "type": "bool"
        }
      ],
      "stateMutability": "view",
      "type": "function"
    },
    {
      "inputs": [
        {
          "internalType": "address",
          "name": "account",
          "type": "address"
        },
        {
          "internalType": "uint256",
          "name": "timestamp",
          "type": "uint256"
        }
      ],
      "name": "isAccountSolvent",
      "outputs": [
        {
          "internalType": "bool",
          "name": "isSolvent",
          "type": "bool"
        }
      ],
      "stateMutability": "view",
      "type": "function"
    },
    {
      "inputs": [
        {
          "internalType": "address",
          "name": "account",
          "type": "address"
        }
      ],
      "name": "isAccountSolventNow",
      "outputs": [
        {
          "internalType": "bool",
          "name": "isSolvent",
          "type": "bool"
        }
      ],
      "stateMutability": "view",
      "type": "function"
    },
    {
      "inputs": [
        {
          "internalType": "address",
          "name": "operator",
          "type": "address"
        },
        {
          "internalType": "address",
          "name": "tokenHolder",
          "type": "address"
        }
      ],
      "name": "isOperatorFor",
      "outputs": [
        {
          "internalType": "bool",
          "name": "",
          "type": "bool"
        }
      ],
      "stateMutability": "view",
      "type": "function"
    },
    {
      "inputs": [
        {
          "internalType": "address",
          "name": "protege",
          "type": "address"
        }
      ],
      "name": "isProtege",
      "outputs": [
        {
          "internalType": "bool",
          "name": "",
          "type": "bool"
        }
      ],
      "stateMutability": "view",
      "type": "function"
    },
    {
      "inputs": [
        {
          "internalType": "bytes32",
          "name": "id",
          "type": "bytes32"
        },
        {
          "internalType": "bytes",
          "name": "liquidationTypeData",
          "type": "bytes"
        },
        {
          "internalType": "address",
          "name": "liquidatorAccount",
          "type": "address"
        },
        {
          "internalType": "bool",
          "name": "useDefaultRewardAccount",
          "type": "bool"
        },
        {
          "internalType": "address",
          "name": "targetAccount",
          "type": "address"
        },
        {
          "internalType": "uint256",
          "name": "rewardAmount",
          "type": "uint256"
        },
        {
          "internalType": "int256",
          "name": "targetAccountBalanceDelta",
          "type": "int256"
        }
      ],
      "name": "makeLiquidationPayoutsV2",
      "outputs": [],
      "stateMutability": "nonpayable",
      "type": "function"
    },
    {
      "inputs": [
        {
          "internalType": "uint256",
          "name": "amount",
          "type": "uint256"
        }
      ],
      "name": "mint",
      "outputs": [],
      "stateMutability": "nonpayable",
      "type": "function"
    },
    {
      "inputs": [],
      "name": "name",
      "outputs": [
        {
          "internalType": "string",
          "name": "",
          "type": "string"
        }
      ],
      "stateMutability": "view",
      "type": "function"
    },
    {
      "inputs": [
        {
          "internalType": "address",
          "name": "account",
          "type": "address"
        },
        {
          "internalType": "address",
          "name": "spender",
          "type": "address"
        },
        {
          "internalType": "uint256",
          "name": "amount",
          "type": "uint256"
        }
      ],
      "name": "operationApprove",
      "outputs": [],
      "stateMutability": "nonpayable",
      "type": "function"
    },
    {
      "inputs": [
        {
          "internalType": "address",
          "name": "account",
          "type": "address"
        },
        {
          "internalType": "address",
          "name": "spender",
          "type": "address"
        },
        {
          "internalType": "uint256",
          "name": "subtractedValue",
          "type": "uint256"
        }
      ],
      "name": "operationDecreaseAllowance",
      "outputs": [],
      "stateMutability": "nonpayable",
      "type": "function"
    },
    {
      "inputs": [
        {
          "internalType": "address",
          "name": "account",
          "type": "address"
        },
        {
          "internalType": "uint256",
          "name": "amount",
          "type": "uint256"
        }
      ],
      "name": "operationDowngrade",
      "outputs": [],
      "stateMutability": "nonpayable",
      "type": "function"
    },
    {
      "inputs": [
        {
          "internalType": "address",
          "name": "account",
          "type": "address"
        },
        {
          "internalType": "address",
          "name": "spender",
          "type": "address"
        },
        {
          "internalType": "uint256",
          "name": "addedValue",
          "type": "uint256"
        }
      ],
      "name": "operationIncreaseAllowance",
      "outputs": [],
      "stateMutability": "nonpayable",
      "type": "function"
    },
    {
      "inputs": [
        {
          "internalType": "address",
          "name": "spender",
          "type": "address"
        },
        {
          "internalType": "address",
          "name": "recipient",
          "type": "address"
        },
        {
          "internalType": "uint256",
          "name": "amount",
          "type": "uint256"
        },
        {
          "internalType": "bytes",
          "name": "userData",
          "type": "bytes"
        }
      ],
      "name": "operationSend",
      "outputs": [],
      "stateMutability": "nonpayable",
      "type": "function"
    },
    {
      "inputs": [
        {
          "internalType": "address",
          "name": "account",
          "type": "address"
        },
        {
          "internalType": "address",
          "name": "spender",
          "type": "address"
        },
        {
          "internalType": "address",
          "name": "recipient",
          "type": "address"
        },
        {
          "internalType": "uint256",
          "name": "amount",
          "type": "uint256"
        }
      ],
      "name": "operationTransferFrom",
      "outputs": [],
      "stateMutability": "nonpayable",
      "type": "function"
    },
    {
      "inputs": [
        {
          "internalType": "address",
          "name": "account",
          "type": "address"
        },
        {
          "internalType": "uint256",
          "name": "amount",
          "type": "uint256"
        }
      ],
      "name": "operationUpgrade",
      "outputs": [],
      "stateMutability": "nonpayable",
      "type": "function"
    },
    {
      "inputs": [
        {
          "internalType": "address",
          "name": "account",
          "type": "address"
        },
        {
          "internalType": "uint256",
          "name": "amount",
          "type": "uint256"
        },
        {
          "internalType": "bytes",
          "name": "userData",
          "type": "bytes"
        },
        {
          "internalType": "bytes",
          "name": "operatorData",
          "type": "bytes"
        }
      ],
      "name": "operatorBurn",
      "outputs": [],
      "stateMutability": "nonpayable",
      "type": "function"
    },
    {
      "inputs": [
        {
          "internalType": "address",
          "name": "sender",
          "type": "address"
        },
        {
          "internalType": "address",
          "name": "recipient",
          "type": "address"
        },
        {
          "internalType": "uint256",
          "name": "amount",
          "type": "uint256"
        },
        {
          "internalType": "bytes",
          "name": "userData",
          "type": "bytes"
        },
        {
          "internalType": "bytes",
          "name": "operatorData",
          "type": "bytes"
        }
      ],
      "name": "operatorSend",
      "outputs": [],
      "stateMutability": "nonpayable",
      "type": "function"
    },
    {
      "inputs": [],
      "name": "owner",
      "outputs": [
        {
          "internalType": "address",
          "name": "",
          "type": "address"
        }
      ],
      "stateMutability": "view",
      "type": "function"
    },
    {
      "inputs": [],
      "name": "proxiableUUID",
      "outputs": [
        {
          "internalType": "bytes32",
          "name": "",
          "type": "bytes32"
        }
      ],
      "stateMutability": "pure",
      "type": "function"
    },
    {
      "inputs": [
        {
          "internalType": "address",
          "name": "account",
          "type": "address"
        },
        {
          "internalType": "uint256",
          "name": "timestamp",
          "type": "uint256"
        }
      ],
      "name": "realtimeBalanceOf",
      "outputs": [
        {
          "internalType": "int256",
          "name": "availableBalance",
          "type": "int256"
        },
        {
          "internalType": "uint256",
          "name": "deposit",
          "type": "uint256"
        },
        {
          "internalType": "uint256",
          "name": "owedDeposit",
          "type": "uint256"
        }
      ],
      "stateMutability": "view",
      "type": "function"
    },
    {
      "inputs": [
        {
          "internalType": "address",
          "name": "account",
          "type": "address"
        }
      ],
      "name": "realtimeBalanceOfNow",
      "outputs": [
        {
          "internalType": "int256",
          "name": "availableBalance",
          "type": "int256"
        },
        {
          "internalType": "uint256",
          "name": "deposit",
          "type": "uint256"
        },
        {
          "internalType": "uint256",
          "name": "owedDeposit",
          "type": "uint256"
        },
        {
          "internalType": "uint256",
          "name": "timestamp",
          "type": "uint256"
        }
      ],
      "stateMutability": "view",
      "type": "function"
    },
    {
      "inputs": [],
      "name": "restartStream",
      "outputs": [],
      "stateMutability": "nonpayable",
      "type": "function"
    },
    {
      "inputs": [
        {
          "internalType": "address",
          "name": "operator",
          "type": "address"
        }
      ],
      "name": "revokeOperator",
      "outputs": [],
      "stateMutability": "nonpayable",
      "type": "function"
    },
    {
      "inputs": [
        {
          "internalType": "address",
          "name": "account",
          "type": "address"
        },
        {
          "internalType": "address",
          "name": "spender",
          "type": "address"
        },
        {
          "internalType": "uint256",
          "name": "amount",
          "type": "uint256"
        }
      ],
      "name": "selfApproveFor",
      "outputs": [],
      "stateMutability": "nonpayable",
      "type": "function"
    },
    {
      "inputs": [
        {
          "internalType": "address",
          "name": "account",
          "type": "address"
        },
        {
          "internalType": "uint256",
          "name": "amount",
          "type": "uint256"
        },
        {
          "internalType": "bytes",
          "name": "userData",
          "type": "bytes"
        }
      ],
      "name": "selfBurn",
      "outputs": [],
      "stateMutability": "nonpayable",
      "type": "function"
    },
    {
      "inputs": [
        {
          "internalType": "address",
          "name": "account",
          "type": "address"
        },
        {
          "internalType": "uint256",
          "name": "amount",
          "type": "uint256"
        },
        {
          "internalType": "bytes",
          "name": "userData",
          "type": "bytes"
        }
      ],
      "name": "selfMint",
      "outputs": [],
      "stateMutability": "nonpayable",
      "type": "function"
    },
    {
      "inputs": [
        {
          "internalType": "address",
          "name": "holder",
          "type": "address"
        },
        {
          "internalType": "address",
          "name": "spender",
          "type": "address"
        },
        {
          "internalType": "address",
          "name": "recipient",
          "type": "address"
        },
        {
          "internalType": "uint256",
          "name": "amount",
          "type": "uint256"
        }
      ],
      "name": "selfTransferFrom",
      "outputs": [],
      "stateMutability": "nonpayable",
      "type": "function"
    },
    {
      "inputs": [
        {
          "internalType": "address",
          "name": "recipient",
          "type": "address"
        },
        {
          "internalType": "uint256",
          "name": "amount",
          "type": "uint256"
        },
        {
          "internalType": "bytes",
          "name": "userData",
          "type": "bytes"
        }
      ],
      "name": "send",
      "outputs": [],
      "stateMutability": "nonpayable",
      "type": "function"
    },
    {
      "inputs": [
        {
          "internalType": "address",
          "name": "account",
          "type": "address"
        },
        {
          "internalType": "int256",
          "name": "delta",
          "type": "int256"
        }
      ],
      "name": "settleBalance",
      "outputs": [],
      "stateMutability": "nonpayable",
      "type": "function"
    },
    {
      "inputs": [
        {
          "internalType": "address payable",
          "name": "newProtege",
          "type": "address"
        }
      ],
      "name": "sponsor",
      "outputs": [],
      "stateMutability": "payable",
      "type": "function"
    },
    {
      "inputs": [],
      "name": "symbol",
      "outputs": [
        {
          "internalType": "string",
          "name": "",
          "type": "string"
        }
      ],
      "stateMutability": "view",
      "type": "function"
    },
    {
      "inputs": [
        {
          "internalType": "bytes32",
          "name": "id",
          "type": "bytes32"
        },
        {
          "internalType": "uint256",
          "name": "dataLength",
          "type": "uint256"
        }
      ],
      "name": "terminateAgreement",
      "outputs": [],
      "stateMutability": "nonpayable",
      "type": "function"
    },
    {
      "inputs": [],
      "name": "totalSupply",
      "outputs": [
        {
          "internalType": "uint256",
          "name": "",
          "type": "uint256"
        }
      ],
      "stateMutability": "view",
      "type": "function"
    },
    {
      "inputs": [
        {
          "internalType": "address",
          "name": "recipient",
          "type": "address"
        },
        {
          "internalType": "uint256",
          "name": "amount",
          "type": "uint256"
        }
      ],
      "name": "transfer",
      "outputs": [
        {
          "internalType": "bool",
          "name": "",
          "type": "bool"
        }
      ],
      "stateMutability": "nonpayable",
      "type": "function"
    },
    {
      "inputs": [
        {
          "internalType": "address",
          "name": "recipient",
          "type": "address"
        }
      ],
      "name": "transferAll",
      "outputs": [],
      "stateMutability": "nonpayable",
      "type": "function"
    },
    {
      "inputs": [
        {
          "internalType": "address",
          "name": "holder",
          "type": "address"
        },
        {
          "internalType": "address",
          "name": "recipient",
          "type": "address"
        },
        {
          "internalType": "uint256",
          "name": "amount",
          "type": "uint256"
        }
      ],
      "name": "transferFrom",
      "outputs": [
        {
          "internalType": "bool",
          "name": "",
          "type": "bool"
        }
      ],
      "stateMutability": "nonpayable",
      "type": "function"
    },
    {
      "inputs": [
        {
          "internalType": "bytes32",
          "name": "id",
          "type": "bytes32"
        },
        {
          "internalType": "bytes32[]",
          "name": "data",
          "type": "bytes32[]"
        }
      ],
      "name": "updateAgreementData",
      "outputs": [],
      "stateMutability": "nonpayable",
      "type": "function"
    },
    {
      "inputs": [
        {
          "internalType": "address",
          "name": "account",
          "type": "address"
        },
        {
          "internalType": "uint256",
          "name": "slotId",
          "type": "uint256"
        },
        {
          "internalType": "bytes32[]",
          "name": "slotData",
          "type": "bytes32[]"
        }
      ],
      "name": "updateAgreementStateSlot",
      "outputs": [],
      "stateMutability": "nonpayable",
      "type": "function"
    },
    {
      "inputs": [
        {
          "internalType": "address",
          "name": "newAddress",
          "type": "address"
        }
      ],
      "name": "updateCode",
      "outputs": [],
      "stateMutability": "nonpayable",
      "type": "function"
    },
    {
      "inputs": [
        {
          "internalType": "uint256",
          "name": "amount",
          "type": "uint256"
        }
      ],
      "name": "upgrade",
      "outputs": [],
      "stateMutability": "nonpayable",
      "type": "function"
    },
    {
      "inputs": [
        {
          "internalType": "address",
          "name": "to",
          "type": "address"
        },
        {
          "internalType": "uint256",
          "name": "amount",
          "type": "uint256"
        },
        {
          "internalType": "bytes",
          "name": "userData",
          "type": "bytes"
        }
      ],
      "name": "upgradeTo",
      "outputs": [],
      "stateMutability": "nonpayable",
      "type": "function"
    },
    {
      "inputs": [
        {
          "internalType": "address",
          "name": "receiver",
          "type": "address"
        },
        {
          "internalType": "uint256",
          "name": "amount",
          "type": "uint256"
        }
      ],
      "name": "withdraw",
      "outputs": [],
      "stateMutability": "nonpayable",
      "type": "function"
    },
    {
      "stateMutability": "payable",
      "type": "receive"
    }
  ],
  "bytecode": {
    "object": "0x60e06040523480156200001157600080fd5b50604051620061be380380620061be8339810160408190526200003491620000d9565b6001600160a01b0380841660805280831660a081905290821660c052604051849184918491907fcf554eb342edf010a94e07701ae91e99e90b769f649f03aeb1153654ddd43c0190600090a26040516001600160a01b038216907f8837af285f4d380af9227df9ebafa13d992b487fa6d7a4366bd4154576085b8990600090a25050505050506200012d565b6001600160a01b0381168114620000d657600080fd5b50565b600080600060608486031215620000ef57600080fd5b8351620000fc81620000c0565b60208501519093506200010f81620000c0565b60408501519092506200012281620000c0565b809150509250925092565b60805160a05160c051615fea620001d4600039600061070a01526000610c080152600081816104d50152818161110f01528181611180015281816114fe01528181611619015281816116e80152818161194e01528181611ac0015281816121c901528181612727015281816127f101528181612889015281816128f10152818161297b015281816131fd015281816132a40152818161447501526146b40152615fea6000f3fe60806040526004361061032f5760003560e01c806306e485381461033b57806306fdde0314610366578063077f224a14610388578063090c415e146103aa578063095ea7b3146103ca578063099e14ce146103fa57806311bcc81e1461042757806312a6a3f81461044757806316d055d61461046757806318160ddd146104875780631863e809146104a657806320bc4425146104c657806321fb177a1461050257806323b872dd1461052f578063245887fc1461054f578063270483971461056f5780632ec8eec71461058f578063313ce567146105cf578063386fa221146105eb578063395093511461060b57806341b706be1461062b57806342fe09801461064b57806345977d031461066b578063469519541461068b5780634b2763b3146106ab5780634b61cc33146106cb5780634c5c0c85146106f857806350d75d251461072c57806352d1902d14610741578063556f0dc71461075657806357cf7acb1461076a5780635b9d09cc1461077f57806362aa52871461079f57806362ad1b83146107bf57806366a12fb6146107df5780636c2d9f2f146107ff57806370a082311461081f578063766c4f371461083f57806379359f6f1461085257806383ba2525146108725780638934c79a146108925780638da5cb5b146108b2578063959b8c3f146108d857806395d89b41146108f85780639903ad381461090d5780639bd9bbc6146109225780639d87674114610942578063a0712d6814610962578063a1b2bf8b14610982578063a3a7e7f3146109a2578063a457c2d7146109c2578063a9059cbb146109e2578063b5c0b7eb14610a02578063b84cdd4a14610a17578063bb0d196e14610a37578063c68d428314610a57578063c780fd8214610a77578063ca0c1e7f14610a97578063ca78946414610ab7578063cf97256d14610ad7578063d95b637114610af7578063d9d078d614610b17578063dd62ed3e14610b37578063e4a472c814610b7d578063eb3537cc14610b9d578063ee719bc814610bd8578063ef43d2c614610bf6578063f349f56a14610c2a578063f3fef3a314610c47578063fad8b32a14610c67578063fc673c4f14610c87578063fe9d930314610ca757600080fd5b3661033657005b600080fd5b34801561034757600080fd5b50610350610cc7565b60405161035d9190614c10565b60405180910390f35b34801561037257600080fd5b5061037b610cd8565b60405161035d9190614cad565b34801561039457600080fd5b506103a86103a3366004614d1d565b610d6a565b005b3480156103b657600080fd5b506103a86103c5366004614de4565b610eb7565b3480156103d657600080fd5b506103ea6103e5366004614e3f565b610f6a565b604051901515815260200161035d565b34801561040657600080fd5b5061041a610415366004614e6b565b610f81565b60405161035d9190614ed2565b34801561043357600080fd5b506103a8610442366004614ee0565b610ffb565b34801561045357600080fd5b506103a8610462366004614ef9565b61102a565b34801561047357600080fd5b506103a8610482366004614f44565b61110d565b34801561049357600080fd5b506002545b60405190815260200161035d565b3480156104b257600080fd5b506103a86104c1366004615066565b611169565b3480156104d257600080fd5b507f00000000000000000000000000000000000000000000000000000000000000005b60405161035d91906150f8565b34801561050e57600080fd5b5061052261051d366004614e6b565b61140e565b60405161035d919061510c565b34801561053b57600080fd5b506103ea61054a366004615149565b6114e6565b34801561055b57600080fd5b506103a861056a366004614e3f565b6114fc565b34801561057b57600080fd5b506103a861058a36600461518a565b611575565b34801561059b57600080fd5b506105af6105aa366004614e6b565b611611565b60408051948552602085019390935291830152606082015260800161035d565b3480156105db57600080fd5b506040516012815260200161035d565b3480156105f757600080fd5b50610350610606366004614e6b565b6116b4565b34801561061757600080fd5b506103ea610626366004614e3f565b611757565b34801561063757600080fd5b506103a8610646366004614f44565b611793565b34801561065757600080fd5b506103a86106663660046151ac565b6117bf565b34801561067757600080fd5b506103a8610686366004614ee0565b6118e6565b34801561069757600080fd5b506103a86106a6366004614e6b565b611912565b3480156106b757600080fd5b506103a86106c6366004615149565b61194c565b3480156106d757600080fd5b506106eb6106e6366004615246565b6119d3565b60405161035d919061528c565b34801561070457600080fd5b506104f57f000000000000000000000000000000000000000000000000000000000000000081565b34801561073857600080fd5b506104f5611a18565b34801561074d57600080fd5b50610498611a22565b34801561076257600080fd5b506001610498565b34801561077657600080fd5b506103a8611a46565b34801561078b57600080fd5b506103a861079a3660046152c4565b611a67565b3480156107ab57600080fd5b506103a86107ba366004615149565b611abe565b3480156107cb57600080fd5b506103a86107da366004615313565b611b12565b3480156107eb57600080fd5b506103a86107fa366004615149565b611bc0565b34801561080b57600080fd5b506106eb61081a3660046153b1565b611be0565b34801561082b57600080fd5b5061049861083a366004614e6b565b611c22565b6103a861084d366004614e6b565b611c4b565b34801561085e57600080fd5b506103ea61086d366004614e6b565b6121c1565b34801561087e57600080fd5b506103a861088d366004614e3f565b612249565b34801561089e57600080fd5b506104986108ad3660046153e6565b612275565b3480156108be57600080fd5b50601f546104f5906201000090046001600160a01b031681565b3480156108e457600080fd5b506103a86108f3366004614e6b565b612316565b34801561090457600080fd5b5061037b612367565b34801561091957600080fd5b506103a8612376565b34801561092e57600080fd5b506103a861093d3660046152c4565b612486565b34801561094e57600080fd5b506103a861095d36600461540c565b6124da565b34801561096e57600080fd5b506103a861097d366004614ee0565b612520565b34801561098e57600080fd5b506103a861099d366004614ef9565b6125b3565b3480156109ae57600080fd5b506103a86109bd366004614e6b565b61265d565b3480156109ce57600080fd5b506103ea6109dd366004614e3f565b612671565b3480156109ee57600080fd5b506103ea6109fd366004614e3f565b6126c0565b348015610a0e57600080fd5b50610498600581565b348015610a2357600080fd5b506103ea610a32366004614e3f565b6126ce565b348015610a4357600080fd5b506103ea610a52366004614e6b565b61271f565b348015610a6357600080fd5b506103a8610a7236600461540c565b6127a7565b348015610a8357600080fd5b506103a8610a92366004615149565b6127ef565b348015610aa357600080fd5b506103a8610ab2366004615464565b612887565b348015610ac357600080fd5b506103a8610ad2366004614e3f565b6128ef565b348015610ae357600080fd5b506103a8610af2366004614e3f565b612964565b348015610b0357600080fd5b506103ea610b123660046154cf565b612a52565b348015610b2357600080fd5b506103ea610b32366004614e3f565b612a60565b348015610b4357600080fd5b50610498610b523660046154cf565b6001600160a01b03918216600090815260106020908152604080832093909416825291909152205490565b348015610b8957600080fd5b506103ea610b98366004614e6b565b612a7a565b348015610ba957600080fd5b50610bbd610bb8366004614e3f565b612a99565b6040805193845260208401929092529082015260600161035d565b348015610be457600080fd5b50600d546001600160a01b03166104f5565b348015610c0257600080fd5b506104f57f000000000000000000000000000000000000000000000000000000000000000081565b348015610c3657600080fd5b5061049868270801d946c940000081565b348015610c5357600080fd5b506103a8610c62366004614e3f565b612bc8565b348015610c7357600080fd5b506103a8610c82366004614e6b565b612c2f565b348015610c9357600080fd5b506103a8610ca2366004615508565b612c80565b348015610cb357600080fd5b506103a8610cc236600461554f565b612d2a565b6060610cd36011612d7b565b905090565b6060600e8054610ce79061558d565b80601f0160208091040260200160405190810160405280929190818152602001828054610d139061558d565b8015610d605780601f10610d3557610100808354040283529160200191610d60565b820191906000526020600020905b815481529060010190602001808311610d4357829003601f168201915b5050505050905090565b601f805462010000600160b01b031916620100006001600160a01b038416021790556040805163132075a760e31b815290513091639903ad3891600480830192600092919082900301818387803b158015610dc457600080fd5b505af1158015610dd8573d6000803e3d6000fd5b50506040516285fc1360e71b81523092506342fe09809150610e099060009081908a908a908a908a906004016155ea565b600060405180830381600087803b158015610e2357600080fd5b505af1158015610e37573d6000803e3d6000fd5b50506040805160008152602081019182905263c68d428360e01b90915230925063c68d42839150610e7e9083906b92efd1b8d0cf37be5aa1cae560291b9060248101615638565b600060405180830381600087803b158015610e9857600080fd5b505af1158015610eac573d6000803e3d6000fd5b505050505050505050565b6000338585604051602001610ece9392919061565f565b604051602081830303815290604052805190602001209050610f2381848480806020026020016040519081016040528093929190818152602001838360200280828437600092019190915250612de192505050565b6040518481526001600160a01b0386169033907f30f416fa68fca014a0f334464c64b000ba53e99b6d2afdea9d5ca756372d59859060200160405180910390a35050505050565b6000610f77338484612e22565b5060015b92915050565b610f89614bb5565b506001600160a01b0390811660009081526020808052604091829020825160a0810184528154948516815260ff600160a01b8604169281019290925263ffffffff600160a81b8504811693830193909352600160c81b9093049091166060820152600190910154600b0b608082015290565b611027333333846040518060200160405280600081525060405180602001604052806000815250612ed2565b50565b604051339060009061104290839087906020016156a8565b60408051601f1981840301815291905280516020909101209050611066818461309c565b156110845760405163782a90fb60e11b815260040160405180910390fd5b6110c181858580806020026020016040519081016040528093929190818152602001838360200280828437600092019190915250612de192505050565b816001600160a01b03167f770ea40a13a4644573ed785e5c7116890709947918747febc5add46feb531e2d8686866040516110fe939291906156e5565b60405180910390a25050505050565b7f00000000000000000000000000000000000000000000000000000000000000006001600160a01b031633146111565760405163c51efddd60e01b815260040160405180910390fd5b611162848484846130d8565b5050505050565b604051632329212160e21b81526001600160a01b037f00000000000000000000000000000000000000000000000000000000000000001690638ca48484906111b59033906004016150f8565b602060405180830381865afa1580156111d2573d6000803e3d6000fd5b505050506040513d601f19601f820116820180604052508101906111f69190615726565b6112135760405163327fd99160e21b815260040160405180910390fd5b600061121d6131f8565b90506001600160a01b0381166112305750845b60008561123d578661123f565b815b9050600083136112dc5761125283615759565b61125b85613337565b1461126857611268615775565b61127184613337565b6001600160a01b0382166000908152600160205260408120805490919061129990849061578b565b90915550506001600160a01b038516600090815260016020526040812080548592906112c690849061578b565b909155506112d790508582866133a5565b6113a6565b85156112ea576112ea615775565b826112f485613337565b6112fe919061578b565b6001600160a01b038316600090815260016020526040812080549091906113269084906157b3565b90915550611335905084613337565b6001600160a01b0388166000908152600160205260408120805490919061135d90849061578b565b90915550506001600160a01b0385166000908152600160205260408120805485929061138a90849061578b565b9091555061139b90508288866133a5565b6113a68286856133a5565b846001600160a01b0316876001600160a01b0316336001600160a01b03167fb8381a3ce157650e06186e3e8f4dd4dc29236f2688b6eed1893d0a60d7c6386f8c8589898f6040516113fb9594939291906157d3565b60405180910390a4505050505050505050565b611416614be3565b60005b61142283612a7a565b156114e0576001600160a01b0380841660009081526020808052604091829020825160a0810184528154948516815260ff600160a01b8604169281019290925263ffffffff600160a81b8504811693830193909352600160c81b9093049091166060820152600190910154600b0b608082015282826114a081615806565b9350600581106114b2576114b261581f565b602090810291909101919091526001600160a01b039384166000908152908052604090205490921691611419565b50919050565b60006114f4338585856130d8565b949350505050565b7f00000000000000000000000000000000000000000000000000000000000000006001600160a01b031633146115455760405163c51efddd60e01b815260040160405180910390fd5b611571338384846040518060200160405280600081525060405180602001604052806000815250612ed2565b5050565b604051339060009061158d90839086906020016156a8565b6040516020818303038152906040528051906020012090506115af818461309c565b6115cc5760405163dae1880960e01b815260040160405180910390fd5b6115d681846133d8565b60405184815233907f71a63dc095de07aa5512ad57a7596a39516317e316981a1cd71000057be1537b9060200160405180910390a250505050565b6000806000807f00000000000000000000000000000000000000000000000000000000000000006001600160a01b031663bbe4fd506040518163ffffffff1660e01b8152600401602060405180830381865afa158015611675573d6000803e3d6000fd5b505050506040513d601f19601f820116820180604052508101906116999190615835565b90506116a58582612a99565b91979096509094509092509050565b6001600160a01b038181166000908152602081905260409081902054905163c56a069d60e01b8152901960048201526060917f0000000000000000000000000000000000000000000000000000000000000000169063c56a069d90602401600060405180830381865afa15801561172f573d6000803e3d6000fd5b505050506040513d6000823e601f3d908101601f19168201604052610f7b919081019061584e565b3360008181526010602090815260408083206001600160a01b03871684529091528120549091610f7791859061178e9086906158ff565b612e22565b3330146117b357604051630fff4cc960e31b815260040160405180910390fd5b611162838584846130d8565b600e80546117cc9061558d565b1590506118205760405162461bcd60e51b815260206004820152601f60248201527f5375706572546f6b656e3a20616c726561647920696e697469616c697a65640060448201526064015b60405180910390fd5b600083900361186a5760405162461bcd60e51b81526020600482015260166024820152755375706572546f6b656e3a20656d707479206e616d6560501b6044820152606401611817565b600d805460ff8716600160a01b026001600160a81b03199091166001600160a01b03891617179055600e61189f848683615960565b50600f6118ad828483615960565b506118b7306133f9565b6040516000808252908190600080516020615f48833981519152906020015b60405180910390a3505050505050565b6110273333338460405180602001604052806000815250604051806020016040528060008152506134e1565b601f546201000090046001600160a01b03163314611943576040516338ebc58960e11b815260040160405180910390fd5b6110278161369e565b7f00000000000000000000000000000000000000000000000000000000000000006001600160a01b031633146119955760405163c51efddd60e01b815260040160405180910390fd5b6001600160a01b038084166000908152601060209081526040808320938616835292905220546119ce908490849061178e9085906158ff565b505050565b606060008585856040516020016119ec9392919061565f565b604051602081830303815290604052805190602001209050611a0e8184613870565b9695505050505050565b6000610cd36138ff565b7fe438b61c5ae6309c126c34745a1d75e0e5b69a37085ad47b7d9802d1366b0db990565b336000818152602080526040902060010154611a659190600b0b613912565b565b611ab83333868686868080601f0160208091040260200160405190810160405280939291908181526020018383808284376000920182905250604080516020810190915290815292506134e1915050565b50505050565b7f00000000000000000000000000000000000000000000000000000000000000006001600160a01b03163314611b075760405163c51efddd60e01b815260040160405180910390fd5b6119ce838383612e22565b33611b1f6011828a61393b565b611b3c5760405163f7f0222760e01b815260040160405180910390fd5b611bb68189898989898080601f01602080910402602001604051908101604052809392919081815260200183838082843760009201919091525050604080516020601f8d018190048102820181019092528b815292508b91508a9081908401838280828437600092019190915250600192506139e4915050565b5050505050505050565b333014611b0757604051630fff4cc960e31b815260040160405180910390fd5b606060008484604051602001611bf79291906156a8565b604051602081830303815290604052805190602001209050611c198184613870565b95945050505050565b600080611c2e83611611565b505050905060008112611c415780611c44565b60005b9392505050565b611c5481612a7a565b15611c72576040516319c00a8560e01b815260040160405180910390fd5b601f5460009081906201000090046001600160a01b03163314611c9757336000611c9b565b3060015b91509150611ca882612a7a565b158015611cb3575080155b15611cd05760405162e67aa960e31b815260040160405180910390fd5b6001600160a01b0382166000908152602080526040812054349190611d0190600160c81b900463ffffffff16612275565b905080821015611d2457604051631133bf0d60e01b815260040160405180910390fd5b611d2e8183615a1f565b6001600160a01b0385166000908152602080526040902054909250600160a01b900460ff166004198101611d755760405163a2c3d1a560e01b815260040160405180910390fd5b30600090815260208052604090208054600160a81b900463ffffffff16906015611d9e83615a32565b82546101009290920a63ffffffff8181021990931691831602179091556001600160a01b038716600090815260208052604090208054600160c81b900490911691506019611deb83615a32565b91906101000a81548163ffffffff021916908363ffffffff160217905550506000816001611e199190615a55565b90506000611e4962015180611e3a60ff851668270801d946c9400000615a84565b611e449190615a84565b613a5d565b9050600081611e67611e446201518068270801d946c9400000615a84565b611e719190615a98565b90506040518060a00160405280896001600160a01b031681526020018460ff168152602001600063ffffffff168152602001600063ffffffff16815260200183600b0b815250602060008b6001600160a01b03166001600160a01b0316815260200190815260200160002060008201518160000160006101000a8154816001600160a01b0302191690836001600160a01b0316021790555060208201518160000160146101000a81548160ff021916908360ff16021790555060408201518160000160156101000a81548163ffffffff021916908363ffffffff16021790555060608201518160000160196101000a81548163ffffffff021916908363ffffffff16021790555060808201518160010160006101000a8154816001600160601b030219169083600b0b6001600160601b0316021790555090505060008890505b611fba81612a7a565b1561214b576001600160a01b038116600090815260208052604090208054600160a81b900463ffffffff16816015611ff183615a32565b825463ffffffff9182166101009390930a928302919092021990911617905550805460009060ff600160a01b9091041660011461204757620186a06120388561c350615ac5565b6120429190615ae5565b612049565b835b6001830180549192508291600090612065908490600b0b615b23565b92506101000a8154816001600160601b030219169083600b0b6001600160601b0316021790555080846120989190615a98565b60018301549094506120ae908490600b0b613912565b6001600160a01b038b8116600090815260208080526040808320543084529281902054815160ff600160a01b830416815263ffffffff600160a81b8304811694820194909452600160c81b909104909216908201528583169291909116907fb03e738d0e6b0d74a2bfbcaa64c76a9dd601ecb77229d0982c9bfe946c8c39a79060600160405180910390a350546001600160a01b03169050611fb1565b6001600160a01b038a1660009081526020805260409020600101546121769030908c90600b0b613a73565b5086156121b5576040516001600160a01b038b169088156108fc029089906000818181858888f193505050501580156121b3573d6000803e3d6000fd5b505b50505050505050505050565b6000610f7b827f00000000000000000000000000000000000000000000000000000000000000006001600160a01b031663bbe4fd506040518163ffffffff1660e01b8152600401602060405180830381865afa158015612225573d6000803e3d6000fd5b505050506040513d601f19601f82011682018060405250810190610b329190615835565b611571333384846040518060200160405280600081525060405180602001604052806000815250612ed2565b6000600c8263ffffffff16116122935750662386f26fc10000919050565b60188263ffffffff16116122b0575067016345785d8a0000919050565b60248263ffffffff16116122cd57506702c68af0bb140000919050565b60308263ffffffff16116122ea5750670429d069189e0000919050565b603c8263ffffffff1611612307575067058d15e176280000919050565b50670de0b6b3a7640000919050565b3361232360118284613a92565b806001600160a01b0316826001600160a01b03167ff4caeb2d6ca8932a215a353d0703c326ec2d81fc68170f320eb2ab49e9df61f960405160405180910390a35050565b6060600f8054610ce79061558d565b601f54610100900460ff16158080156123965750601f54600160ff909116105b806123b757506123a530613b96565b1580156123b75750601f5460ff166001145b61241a5760405162461bcd60e51b815260206004820152602e60248201527f496e697469616c697a61626c653a20636f6e747261637420697320616c72656160448201526d191e481a5b9a5d1a585b1a5e995960921b6064820152608401611817565b601f805460ff19166001179055801561243d57601f805461ff0019166101001790555b801561102757601f805461ff0019169055604051600181527f7f26b83ff96e1f2b6a682f133852f6798a09c465da95921460cefb3847402498906020015b60405180910390a150565b611ab83333868686868080601f016020809104026020016040519081016040528093929190818152602001838380828437600092018290525060408051602081019091529081529250600191506139e49050565b3330146124fa57604051630fff4cc960e31b815260040160405180910390fd5b80516040805160008152602081019091526119ce91339186918691901515908690613ba5565b601f546201000090046001600160a01b03163314612551576040516338ebc58960e11b815260040160405180910390fd5b6040805160008152602081019182905263c68d428360e01b909152309063c68d428390612585908390859060248101615638565b600060405180830381600087803b15801561259f57600080fd5b505af1158015611162573d6000803e3d6000fd5b60405133906000906125cb90839087906020016156a8565b60405160208183030381529060405280519060200120905061262081858580806020026020016040519081016040528093929190818152602001838360200280828437600092019190915250612de192505050565b336001600160a01b03167f0c4c547b3a4fcaa5be8353b3111472b124155bccc86de811d4a481c9e6e9faca8686866040516110fe939291906156e5565b61157133338361266c33611c22565b6130d8565b6000610f77338461178e856040518060600160405280602a8152602001615f1e602a91393360009081526010602090815260408083206001600160a01b038d1684529091529020549190613c66565b6000611c44333385856130d8565b6000806000806126de8686612a99565b92509250925060006127068284116126f7576000613337565b6127018385615a1f565b613337565b612710908561578b565b60001315979650505050505050565b6000610f7b827f00000000000000000000000000000000000000000000000000000000000000006001600160a01b031663bbe4fd506040518163ffffffff1660e01b8152600401602060405180830381865afa158015612783573d6000803e3d6000fd5b505050506040513d601f19601f82011682018060405250810190610a329190615835565b3330146127c757604051630fff4cc960e31b815260040160405180910390fd5b80516040805160008152602081019091526119ce913391869186919015159081908790613c92565b7f00000000000000000000000000000000000000000000000000000000000000006001600160a01b031633146128385760405163c51efddd60e01b815260040160405180910390fd5b6119ce838361178e846040518060600160405280602a8152602001615f1e602a91396001600160a01b03808a166000908152601060209081526040808320938c16835292905220549190613c66565b7f00000000000000000000000000000000000000000000000000000000000000006001600160a01b031633146128d05760405163c51efddd60e01b815260040160405180910390fd5b611ab833858585856040518060200160405280600081525060016139e4565b7f00000000000000000000000000000000000000000000000000000000000000006001600160a01b031633146129385760405163c51efddd60e01b815260040160405180910390fd5b6115713383848460405180602001604052806000815250604051806020016040528060008152506134e1565b604051632329212160e21b81526001600160a01b037f00000000000000000000000000000000000000000000000000000000000000001690638ca48484906129b09033906004016150f8565b602060405180830381865afa1580156129cd573d6000803e3d6000fd5b505050506040513d601f19601f820116820180604052508101906129f19190615726565b612a0e5760405163327fd99160e21b815260040160405180910390fd5b6001600160a01b038216600090815260016020526040902054612a3290829061578b565b6001600160a01b0390921660009081526001602052604090209190915550565b6000611c446011848461393b565b600080612a6d8484612a99565b5050600013949350505050565b6001600160a01b03908116600090815260208052604090205416151590565b6001600160a01b038216600090815260016020526040812054908080612abe866116b4565b905060005b8151811015612bbf576000806000848481518110612ae357612ae361581f565b60200260200101516001600160a01b0316639b2e48bc308c8c6040518463ffffffff1660e01b8152600401612b1a93929190615b50565b606060405180830381865afa158015612b37573d6000803e3d6000fd5b505050506040513d601f19601f82011682018060405250810190612b5b9190615b74565b91945092509050612b6c82886158ff565b9650612b7881876158ff565b9550612b95818311612b8b576000613337565b6127018284615a1f565b612b9f848a61578b565b612ba991906157b3565b975050505080612bb890615806565b9050612ac3565b50509250925092565b601f546201000090046001600160a01b03163314612bf9576040516338ebc58960e11b815260040160405180910390fd5b6040516001600160a01b0383169082156108fc029083906000818181858888f193505050501580156119ce573d6000803e3d6000fd5b33612c3c60118284613d60565b806001600160a01b0316826001600160a01b03167f50546e66e5f44d728365dc3908c63bc5cfeeab470722c1677e3073a6ac294aa160405160405180910390a35050565b33612c8d6011828961393b565b612caa5760405163f7f0222760e01b815260040160405180910390fd5b612d218188898989898080601f01602080910402602001604051908101604052809392919081815260200183838082843760009201919091525050604080516020601f8d018190048102820181019092528b815292508b91508a9081908401838280828437600092019190915250612ed292505050565b50505050505050565b6119ce3333338686868080601f016020809104026020016040519081016040528093929190818152602001838380828437600092018290525060408051602081019091529081529250612ed2915050565b606081600001805480602002602001604051908101604052809291908181526020018280548015612dd557602002820191906000526020600020905b81546001600160a01b03168152600190910190602001808311612db7575b50505050509050919050565b60005b81518110156119ce576000828281518110612e0157612e0161581f565b6020026020010151905080828501555080612e1b90615806565b9050612de4565b6001600160a01b038316612e4957604051638163862760e01b815260040160405180910390fd5b6001600160a01b038216612e70576040516337c1c09d60e21b815260040160405180910390fd5b6001600160a01b0383811660008181526010602090815260408083209487168084529482529182902085905590518481527f8c5be1e5ebec7d5bd14f71427d1e84f3dd0314c0f7b2291e5b200ac8c7c3b92591015b60405180910390a3505050565b600d546001600160a01b0316612efb57604051637bce7b2b60e11b815260040160405180910390fd5b600080612f0785613e58565b91509150612f1e8888838751600014158888613ba5565b600d546040516370a0823160e01b81526000916001600160a01b0316906370a0823190612f4f9030906004016150f8565b602060405180830381865afa158015612f6c573d6000803e3d6000fd5b505050506040513d601f19601f82011682018060405250810190612f909190615835565b600d54909150612faa906001600160a01b03168885613f14565b600d546040516370a0823160e01b81526000916001600160a01b0316906370a0823190612fdb9030906004016150f8565b602060405180830381865afa158015612ff8573d6000803e3d6000fd5b505050506040513d601f19601f8201168201806040525081019061301c9190615835565b9050600061302a8284615a1f565b905080851461304c57604051631c7c26d360e31b815260040160405180910390fd5b896001600160a01b03167f3bc27981aebbb57f9247dc00fde9d6cd91e4b230083fec3238fedbcba1f9ab3d8560405161308791815260200190565b60405180910390a25050505050505050505050565b6000805b828110156130ce578381015480156130bd57600192505050610f7b565b506130c781615806565b90506130a0565b5060009392505050565b60006001600160a01b0384166131015760405163eecd6c9b60e01b815260040160405180910390fd5b6001600160a01b0383166131285760405163e219bd3960e01b815260040160405180910390fd5b6000339050613159818686866040518060200160405280600081525060405180602001604052806000815250613f6a565b846001600160a01b0316866001600160a01b0316146131ec576131ec858761178e866040518060600160405280602d8152602001615f68602d9139601060008c6001600160a01b03166001600160a01b0316815260200190815260200160002060008d6001600160a01b03166001600160a01b0316815260200190815260200160002054613c669092919063ffffffff16565b50600195945050505050565b6000807f00000000000000000000000000000000000000000000000000000000000000006001600160a01b031663289b3c0d6040518163ffffffff1660e01b8152600401602060405180830381865afa158015613259573d6000803e3d6000fd5b505050506040513d601f19601f8201168201806040525081019061327d9190615ba2565b604051638369a0f160e01b81529091506001600160a01b03821690638369a0f1906132f0907f00000000000000000000000000000000000000000000000000000000000000009030907f9f60ae461adf056670e03ae602566409933242392cb06744f5747c9f38b05d0990600401615b50565b602060405180830381865afa15801561330d573d6000803e3d6000fd5b505050506040513d601f19601f820116820180604052508101906133319190615ba2565b91505090565b60006001600160ff1b038211156133a15760405162461bcd60e51b815260206004820152602860248201527f53616665436173743a2076616c756520646f65736e27742066697420696e2061604482015267371034b73a191a9b60c11b6064820152608401611817565b5090565b816001600160a01b0316836001600160a01b0316600080516020615f4883398151915283604051612ec591815260200190565b60005b818110156119ce576000838201556133f281615806565b90506133db565b6040516329965a1d60e01b8152731820a4b7618bde71dce8cdc73aab6c95905fad24906329965a1d906134549084907fac7fbab5f54a3ca8194167523c6753bfeb96a445279294b6125b68cce2177054903090600401615bbf565b600060405180830381600087803b15801561346e57600080fd5b505af1158015613482573d6000803e3d6000fd5b50506040516329965a1d60e01b8152731820a4b7618bde71dce8cdc73aab6c95905fad2492506329965a1d91506125859084907faea199e31a596269b42cdafd93407f14436db6e4cad65417994c2eb37381e05a903090600401615bbf565b600d546001600160a01b031661350a57604051637bce7b2b60e11b815260040160405180910390fd5b60008061351685613e58565b600d546040516370a0823160e01b81529294509092506000916001600160a01b03909116906370a082319061354f9030906004016150f8565b602060405180830381865afa15801561356c573d6000803e3d6000fd5b505050506040513d601f19601f820116820180604052508101906135909190615835565b600d549091506135ab906001600160a01b0316893086614009565b600d546040516370a0823160e01b81526000916001600160a01b0316906370a08231906135dc9030906004016150f8565b602060405180830381865afa1580156135f9573d6000803e3d6000fd5b505050506040513d601f19601f8201168201806040525081019061361d9190615835565b9050600061362b8383615a1f565b905080851461364d57604051631c7c26d360e31b815260040160405180910390fd5b8651613663908c908b9087901515808c8c613c92565b886001600160a01b03167f25ca84076773b0455db53621c459ddc84fe40840e4932a62706a032566f399df8560405161308791815260200190565b60006136a86138ff565b6001600160a01b0316036136fe5760405162461bcd60e51b815260206004820152601d60248201527f5555505350726f786961626c653a206e6f742075706772616461626c650000006044820152606401611817565b806001600160a01b03166352d1902d6040518163ffffffff1660e01b8152600401602060405180830381865afa15801561373c573d6000803e3d6000fd5b505050506040513d601f19601f820116820180604052508101906137609190615835565b613768611a22565b146137c15760405162461bcd60e51b815260206004820152602360248201527f5555505350726f786961626c653a206e6f7420636f6d70617469626c65206c6f60448201526267696360e81b6064820152608401611817565b6001600160a01b03811630036138155760405162461bcd60e51b815260206004820152601960248201527805555505350726f786961626c653a2070726f7879206c6f6f7603c1b6044820152606401611817565b61382b81600080516020615ede83398151915255565b7fe011bc04c286c344a8fcbb8de77f953da762c3e25d8cdea984147fc4168a5dcc613854611a22565b604080519182526001600160a01b03841660208301520161247b565b6060816001600160401b0381111561388a5761388a614f95565b6040519080825280602002602001820160405280156138b3578160200160208202803683370190505b50905060005b828110156138f8576000818501549050808383815181106138dc576138dc61581f565b6020908102919091010152506138f181615806565b90506138b9565b5092915050565b600080516020615ede8339815191525490565b61391d30808461402a565b600b0b15613930576119ce3083836140c2565b6119ce308383613a73565b6000816001600160a01b0316836001600160a01b031614806139aa57506001600160a01b038316600090815260018501602052604090205460ff1680156139aa57506001600160a01b03808316600090815260038601602090815260408083209387168352929052205460ff16155b806114f457506001600160a01b03808316600090815260028601602090815260408083209387168352929052205460ff1690509392505050565b6001600160a01b038616613a0b5760405163eecd6c9b60e01b815260040160405180910390fd5b6001600160a01b038516613a325760405163e219bd3960e01b815260040160405180910390fd5b613a408787878787876140e1565b613a4e878787878787613f6a565b612d21878787878787876141f3565b600060016001605f1b038211156133a157600080fd5b604080516000808252602082019092526114f490859085908590614342565b806001600160a01b0316826001600160a01b031603613b095760405162461bcd60e51b815260206004820152602d60248201527f4552433737374f70657261746f72733a20617574686f72697a696e672073656c60448201526c331030b99037b832b930ba37b960991b6064820152608401611817565b6001600160a01b038116600090815260018401602052604090205460ff1615613b5f576001600160a01b03918216600090815260039390930160209081526040808520929093168452529020805460ff19169055565b6001600160a01b0380831660009081526002850160209081526040808320938516835292905220805460ff19166001179055505050565b6001600160a01b03163b151590565b6001600160a01b038516613bcc57604051632e8aac6160e21b815260040160405180910390fd5b8215613be157613be1868660008786866140e1565b613beb858561446d565b846001600160a01b0316866001600160a01b03167fa78a9be3a7b862d26933ad85fb11d80ef66b8f972d7cbba06621d583943a4098868585604051613c3293929190615be2565b60405180910390a36040518481526000906001600160a01b03871690600080516020615f48833981519152906020016118d6565b60008184841115613c8a5760405162461bcd60e51b81526004016118179190614cad565b505050900390565b6001600160a01b038616613cb957604051630d24315760e01b815260040160405180910390fd5b613cc3868661457d565b8315613cd957613cd987600088888686896141f3565b856001600160a01b0316876001600160a01b03167f2fe5be0146f74c5bce36c0b80911af6c7d86ff27e89d5cfa61fc681327954e5d878585604051613d2093929190615be2565b60405180910390a36040518581526001600160a01b03871690600090600080516020615f488339815191529060200160405180910390a350505050505050565b336001600160a01b03821603613dcb5760405162461bcd60e51b815260206004820152602a60248201527f4552433737374f70657261746f72733a207265766f6b696e672073656c662061604482015269399037b832b930ba37b960b11b6064820152608401611817565b6001600160a01b038116600090815260018401602052604090205460ff1615613e25576001600160a01b0380831660009081526003850160209081526040808320938516835292905220805460ff19166001179055505050565b6001600160a01b03918216600090815260029390930160209081526040808520929093168452529020805460ff19169055565b600d54600090819081906012600160a01b90910460ff161015613eb757600d54613e8d90600160a01b900460ff166012615c0d565b613e9890600a615d0a565b9050613ea48185615a84565b9250613eb08184615d19565b9150613f0e565b600d546012600160a01b90910460ff161115613f0757600d54613ee690601290600160a01b900460ff16615c0d565b613ef190600a615d0a565b9050613efd8185615d19565b9250839150613f0e565b8391508192505b50915091565b6119ce8363a9059cbb60e01b8484604051602401613f33929190615d30565b60408051601f198184030181529190526020810180516001600160e01b03166001600160e01b0319909316929092179091526145d7565b613f7d8585613f7886613337565b6146ac565b836001600160a01b0316856001600160a01b0316876001600160a01b03167f06b541ddaa720db2b10a4d0cdac39b8d360425fc073085fac19bc82614677987868686604051613fce93929190615be2565b60405180910390a4836001600160a01b0316856001600160a01b0316600080516020615f48833981519152856040516118d691815260200190565b611ab8846323b872dd60e01b858585604051602401613f3393929190615b50565b600080614036856147ab565b604051631cd43d1160e31b81526001600160a01b03888116600483015287811660248301528681166044830152919350908316915063e6a1e88890606401608060405180830381865afa158015614091573d6000803e3d6000fd5b505050506040513d601f19601f820116820180604052508101906140b59190615d49565b5090979650505050505050565b604080516000808252602082019092526114f4908590859085906148f6565b60405163555ddc6560e11b8152600090731820a4b7618bde71dce8cdc73aab6c95905fad249063aabbb8ca9061413d9089907f29ddb589b1fb5fc7cf394961c1adf5f8c6454761adf795e67fe149f658abe89590600401615d30565b602060405180830381865afa15801561415a573d6000803e3d6000fd5b505050506040513d601f19601f8201168201806040525081019061417e9190615ba2565b90506001600160a01b03811615612d2157604051633ad5cbc160e11b81526001600160a01b038216906375ab9782906141c5908a908a908a908a908a908a90600401615d8d565b600060405180830381600087803b1580156141df57600080fd5b505af11580156121b3573d6000803e3d6000fd5b60405163555ddc6560e11b8152600090731820a4b7618bde71dce8cdc73aab6c95905fad249063aabbb8ca9061424f9089907fb281fc8c12954d22544db45de3159a39272895b169a852b314f9cc762e44c53b90600401615d30565b602060405180830381865afa15801561426c573d6000803e3d6000fd5b505050506040513d601f19601f820116820180604052508101906142909190615ba2565b90506001600160a01b0381161561430c576040516223de2960e01b81526001600160a01b038216906223de29906142d5908b908b908b908b908b908b90600401615d8d565b600060405180830381600087803b1580156142ef57600080fd5b505af1158015614303573d6000803e3d6000fd5b50505050611bb6565b8115611bb657614324866001600160a01b0316613b96565b15611bb65760405163fe737d0560e01b815260040160405180910390fd5b600080600061435087614943565b91509150816001600160a01b03166339255d5b82836001600160a01b03166362fc305e8b8b8b60006001600160401b0381111561438f5761438f614f95565b6040519080825280601f01601f1916602001820160405280156143b9576020820181803683370190505b506040516024016143cd9493929190615dda565b60408051808303601f1901815291815260208201805160e094851b6001600160e01b03909116179052519185901b6001600160e01b0319168252614418939250908990600401615e10565b6000604051808303816000875af1158015614437573d6000803e3d6000fd5b505050506040513d6000823e601f3d908101601f1916820160405261445f9190810190615e34565b506001979650505050505050565b60006144f5837f00000000000000000000000000000000000000000000000000000000000000006001600160a01b031663bbe4fd506040518163ffffffff1660e01b8152600401602060405180830381865afa1580156144d1573d6000803e3d6000fd5b505050506040513d601f19601f82011682018060405250810190610bb89190615835565b5050905061450282613337565b8112156145225760405163043b37d160e21b815260040160405180910390fd5b61452b82613337565b6001600160a01b03841660009081526001602052604090205461454e91906157b3565b6001600160a01b038416600090815260016020526040902055600254614575908390615a1f565b600255505050565b61458681613337565b6001600160a01b0383166000908152600160205260409020546145a9919061578b565b6001600160a01b0383166000908152600160205260409020556002546145d09082906158ff565b6002555050565b600061462c826040518060400160405280602081526020017f5361666545524332303a206c6f772d6c6576656c2063616c6c206661696c6564815250856001600160a01b0316614a949092919063ffffffff16565b905080516000148061464d57508080602001905181019061464d9190615726565b6119ce5760405162461bcd60e51b815260206004820152602a60248201527f5361666545524332303a204552433230206f7065726174696f6e20646964206e6044820152691bdd081cdd58d8d9595960b21b6064820152608401611817565b6000614710847f00000000000000000000000000000000000000000000000000000000000000006001600160a01b031663bbe4fd506040518163ffffffff1660e01b8152600401602060405180830381865afa1580156144d1573d6000803e3d6000fd5b505090508181121561473557604051632f4cb94160e01b815260040160405180910390fd5b6001600160a01b0384166000908152600160205260409020546147599083906157b3565b6001600160a01b03808616600090815260016020526040808220939093559085168152205461478990839061578b565b6001600160a01b03909316600090815260016020526040902092909255505050565b600080516020615f9583398151915254600080516020615efe833981519152546001600160a01b0381166148c5576001600160a01b03821661484c57826001600160a01b03166320bc44256040518163ffffffff1660e01b8152600401602060405180830381865afa158015614825573d6000803e3d6000fd5b505050506040513d601f19601f820116820180604052508101906148499190615ba2565b91505b604051635b69006f60e11b8152600080516020615ebe83398151915260048201526001600160a01b0383169063b6d200de90602401602060405180830381865afa15801561489e573d6000803e3d6000fd5b505050506040513d601f19601f820116820180604052508101906148c29190615ba2565b90505b6001600160a01b0382166148db576148db615775565b6001600160a01b0381166148f1576148f1615775565b915091565b600080600061490487614943565b91509150816001600160a01b03166339255d5b82836001600160a01b03166350209a628b8b8b60006001600160401b0381111561438f5761438f614f95565b600080516020615f9583398151915254600080516020615efe833981519152546001600160a01b0381166148c5576001600160a01b0382166149e457826001600160a01b03166320bc44256040518163ffffffff1660e01b8152600401602060405180830381865afa1580156149bd573d6000803e3d6000fd5b505050506040513d601f19601f820116820180604052508101906149e19190615ba2565b91505b604051635b69006f60e11b8152600080516020615ebe83398151915260048201526001600160a01b0383169063b6d200de90602401602060405180830381865afa158015614a36573d6000803e3d6000fd5b505050506040513d601f19601f82011682018060405250810190614a5a9190615ba2565b905081600080516020615f958339815191525580600080516020615efe833981519152556001600160a01b0382166148db576148db615775565b60606114f4848460008585600080866001600160a01b03168587604051614abb9190615ea1565b60006040518083038185875af1925050503d8060008114614af8576040519150601f19603f3d011682016040523d82523d6000602084013e614afd565b606091505b5091509150614b0e87838387614b19565b979650505050505050565b60608315614b86578251600003614b7f57614b3385613b96565b614b7f5760405162461bcd60e51b815260206004820152601d60248201527f416464726573733a2063616c6c20746f206e6f6e2d636f6e74726163740000006044820152606401611817565b50816114f4565b6114f48383815115614b9b5781518083602001fd5b8060405162461bcd60e51b81526004016118179190614cad565b6040805160a08101825260008082526020820181905291810182905260608101829052608081019190915290565b6040518060a001604052806005905b614bfa614bb5565b815260200190600190039081614bf25790505090565b6020808252825182820181905260009190848201906040850190845b81811015614c515783516001600160a01b031683529284019291840191600101614c2c565b50909695505050505050565b60005b83811015614c78578181015183820152602001614c60565b50506000910152565b60008151808452614c99816020860160208601614c5d565b601f01601f19169290920160200192915050565b602081526000611c446020830184614c81565b60008083601f840112614cd257600080fd5b5081356001600160401b03811115614ce957600080fd5b602083019150836020828501011115614d0157600080fd5b9250929050565b6001600160a01b038116811461102757600080fd5b600080600080600060608688031215614d3557600080fd5b85356001600160401b0380821115614d4c57600080fd5b614d5889838a01614cc0565b90975095506020880135915080821115614d7157600080fd5b50614d7e88828901614cc0565b9094509250506040860135614d9281614d08565b809150509295509295909350565b60008083601f840112614db257600080fd5b5081356001600160401b03811115614dc957600080fd5b6020830191508360208260051b8501011115614d0157600080fd5b60008060008060608587031215614dfa57600080fd5b8435614e0581614d08565b93506020850135925060408501356001600160401b03811115614e2757600080fd5b614e3387828801614da0565b95989497509550505050565b60008060408385031215614e5257600080fd5b8235614e5d81614d08565b946020939093013593505050565b600060208284031215614e7d57600080fd5b8135611c4481614d08565b80516001600160a01b0316825260208082015160ff169083015260408082015163ffffffff9081169184019190915260608083015190911690830152608090810151600b0b910152565b60a08101610f7b8284614e88565b600060208284031215614ef257600080fd5b5035919050565b600080600060408486031215614f0e57600080fd5b8335925060208401356001600160401b03811115614f2b57600080fd5b614f3786828701614da0565b9497909650939450505050565b60008060008060808587031215614f5a57600080fd5b8435614f6581614d08565b93506020850135614f7581614d08565b92506040850135614f8581614d08565b9396929550929360600135925050565b634e487b7160e01b600052604160045260246000fd5b604051601f8201601f191681016001600160401b0381118282101715614fd357614fd3614f95565b604052919050565b60006001600160401b03821115614ff457614ff4614f95565b50601f01601f191660200190565b600082601f83011261501357600080fd5b813561502661502182614fdb565b614fab565b81815284602083860101111561503b57600080fd5b816020850160208301376000918101602001919091529392505050565b801515811461102757600080fd5b600080600080600080600060e0888a03121561508157600080fd5b8735965060208801356001600160401b0381111561509e57600080fd5b6150aa8a828b01615002565b96505060408801356150bb81614d08565b945060608801356150cb81615058565b935060808801356150db81614d08565b9699959850939692959460a0840135945060c09093013592915050565b6001600160a01b0391909116815260200190565b6103208101818360005b60058110156151405761512a838351614e88565b60a0929092019160209190910190600101615116565b50505092915050565b60008060006060848603121561515e57600080fd5b833561516981614d08565b9250602084013561517981614d08565b929592945050506040919091013590565b6000806040838503121561519d57600080fd5b50508035926020909101359150565b600080600080600080608087890312156151c557600080fd5b86356151d081614d08565b9550602087013560ff811681146151e657600080fd5b945060408701356001600160401b038082111561520257600080fd5b61520e8a838b01614cc0565b9096509450606089013591508082111561522757600080fd5b5061523489828a01614cc0565b979a9699509497509295939492505050565b6000806000806080858703121561525c57600080fd5b843561526781614d08565b9350602085013561527781614d08565b93969395505050506040820135916060013590565b6020808252825182820181905260009190848201906040850190845b81811015614c51578351835292840192918401916001016152a8565b600080600080606085870312156152da57600080fd5b84356152e581614d08565b93506020850135925060408501356001600160401b0381111561530757600080fd5b614e3387828801614cc0565b600080600080600080600060a0888a03121561532e57600080fd5b873561533981614d08565b9650602088013561534981614d08565b95506040880135945060608801356001600160401b038082111561536c57600080fd5b6153788b838c01614cc0565b909650945060808a013591508082111561539157600080fd5b5061539e8a828b01614cc0565b989b979a50959850939692959293505050565b6000806000606084860312156153c657600080fd5b83356153d181614d08565b95602085013595506040909401359392505050565b6000602082840312156153f857600080fd5b813563ffffffff81168114611c4457600080fd5b60008060006060848603121561542157600080fd5b833561542c81614d08565b92506020840135915060408401356001600160401b0381111561544e57600080fd5b61545a86828701615002565b9150509250925092565b6000806000806080858703121561547a57600080fd5b843561548581614d08565b9350602085013561549581614d08565b92506040850135915060608501356001600160401b038111156154b757600080fd5b6154c387828801615002565b91505092959194509250565b600080604083850312156154e257600080fd5b82356154ed81614d08565b915060208301356154fd81614d08565b809150509250929050565b6000806000806000806080878903121561552157600080fd5b863561552c81614d08565b95506020870135945060408701356001600160401b038082111561520257600080fd5b60008060006040848603121561556457600080fd5b8335925060208401356001600160401b0381111561558157600080fd5b614f3786828701614cc0565b600181811c908216806155a157607f821691505b6020821081036114e057634e487b7160e01b600052602260045260246000fd5b81835281816020850137506000828201602090810191909152601f909101601f19169091010190565b6001600160a01b038716815260ff8616602082015260806040820181905260009061561890830186886155c1565b828103606084015261562b8185876155c1565b9998505050505050505050565b60018060a01b0384168152826020820152606060408201526000611c196060830184614c81565b6080808252600e908201526d41677265656d656e74537461746560901b60a08201526001600160a01b039384166020820152919092166040820152606081019190915260c00190565b6060808252600d908201526c41677265656d656e744461746160981b60808201526001600160a01b03929092166020830152604082015260a00190565b838152604060208201819052810182905260006001600160fb1b0383111561570c57600080fd5b8260051b8085606085013791909101606001949350505050565b60006020828403121561573857600080fd5b8151611c4481615058565b634e487b7160e01b600052601160045260246000fd5b6000600160ff1b820161576e5761576e615743565b5060000390565b634e487b7160e01b600052600160045260246000fd5b80820182811260008312801582168215821617156157ab576157ab615743565b505092915050565b81810360008312801583831316838312821617156138f8576138f8615743565b85815260018060a01b038516602082015283604082015282606082015260a060808201526000614b0e60a0830184614c81565b60006001820161581857615818615743565b5060010190565b634e487b7160e01b600052603260045260246000fd5b60006020828403121561584757600080fd5b5051919050565b6000602080838503121561586157600080fd5b82516001600160401b038082111561587857600080fd5b818501915085601f83011261588c57600080fd5b81518181111561589e5761589e614f95565b8060051b91506158af848301614fab565b81815291830184019184810190888411156158c957600080fd5b938501935b838510156158f357845192506158e383614d08565b82825293850193908501906158ce565b98975050505050505050565b80820180821115610f7b57610f7b615743565b601f8211156119ce57600081815260208120601f850160051c810160208610156159395750805b601f850160051c820191505b8181101561595857828155600101615945565b505050505050565b6001600160401b0383111561597757615977614f95565b61598b83615985835461558d565b83615912565b6000601f8411600181146159bf57600085156159a75750838201355b600019600387901b1c1916600186901b178355611162565b600083815260209020601f19861690835b828110156159f057868501358255602094850194600190920191016159d0565b5086821015615a0d5760001960f88860031b161c19848701351681555b505060018560011b0183555050505050565b81810381811115610f7b57610f7b615743565b600063ffffffff808316818103615a4b57615a4b615743565b6001019392505050565b60ff8181168382160190811115610f7b57610f7b615743565b634e487b7160e01b600052601260045260246000fd5b600082615a9357615a93615a6e565b500490565b600b82810b9082900b0360016001605f1b0319811260016001605f1b0382131715610f7b57610f7b615743565b600082600b0b82600b0b0280600b0b91508082146138f8576138f8615743565b600081600b0b83600b0b80615afc57615afc615a6e565b60016001605f1b0319821460001982141615615b1a57615b1a615743565b90059392505050565b600b81810b9083900b0160016001605f1b03811360016001605f1b031982121715610f7b57610f7b615743565b6001600160a01b039384168152919092166020820152604081019190915260600190565b600080600060608486031215615b8957600080fd5b8351925060208401519150604084015190509250925092565b600060208284031215615bb457600080fd5b8151611c4481614d08565b6001600160a01b0393841681526020810192909252909116604082015260600190565b838152606060208201526000615bfb6060830185614c81565b8281036040840152611a0e8185614c81565b60ff8281168282160390811115610f7b57610f7b615743565b600181815b80851115615c61578160001904821115615c4757615c47615743565b80851615615c5457918102915b93841c9390800290615c2b565b509250929050565b600082615c7857506001610f7b565b81615c8557506000610f7b565b8160018114615c9b5760028114615ca557615cc1565b6001915050610f7b565b60ff841115615cb657615cb6615743565b50506001821b610f7b565b5060208310610133831016604e8410600b8410161715615ce4575081810a610f7b565b615cee8383615c26565b8060001904821115615d0257615d02615743565b029392505050565b6000611c4460ff841683615c69565b8082028115828204841417610f7b57610f7b615743565b6001600160a01b03929092168252602082015260400190565b60008060008060808587031215615d5f57600080fd5b84519350602085015180600b0b8114615d7757600080fd5b6040860151606090960151949790965092505050565b6001600160a01b0387811682528681166020830152851660408201526060810184905260c060808201819052600090615dc890830185614c81565b82810360a084015261562b8185614c81565b6001600160a01b03858116825284166020820152600b83900b6040820152608060608201819052600090611a0e90830184614c81565b6001600160a01b0384168152606060208201819052600090615bfb90830185614c81565b600060208284031215615e4657600080fd5b81516001600160401b03811115615e5c57600080fd5b8201601f81018413615e6d57600080fd5b8051615e7b61502182614fdb565b818152856020838501011115615e9057600080fd5b611c19826020830160208601614c5d565b60008251615eb3818460208701614c5d565b919091019291505056fea9214cc96615e0085d3bb077758db69497dc2dce3b2b1e97bc93c3d18d83efd3360894a13ba1a3210667c828492db98dca3e2076cc3735a920a3ca505d382bbcb969d79d88acd02d04ed7ee7d43b949e7daf093d363abcfbbc43dfdfd1ce969a5375706572546f6b656e3a2064656372656173656420616c6c6f77616e63652062656c6f77207a65726fddf252ad1be2c89b69c2b068fc378daa952ba7f163c4a11628f55a4df523b3ef5375706572546f6b656e3a207472616e7366657220616d6f756e74206578636565647320616c6c6f77616e636565599bf746e17a00ea62e3610586992d88101b78eec3cf380706621fb97ea837a264697066735822122054cb0757042458a0bc698c20aed82968847d2fbd39a5a94277119782627f157764736f6c63430008130033",
    "linkReferences": {}
  },
  "methodIdentifiers": {
    "CONSTANT_INFLOW_NFT()": "4c5c0c85",
    "CONSTANT_OUTFLOW_NFT()": "ef43d2c6",
    "MAX_SPONSORSHIP_LEVEL()": "b5c0b7eb",
    "MAX_SPONSORSHIP_PATH_OUTFLOW()": "f349f56a",
    "allowance(address,address)": "dd62ed3e",
    "approve(address,uint256)": "095ea7b3",
    "authorizeOperator(address)": "959b8c3f",
    "balanceOf(address)": "70a08231",
    "burn(uint256,bytes)": "fe9d9303",
    "castrate()": "9903ad38",
    "createAgreement(bytes32,bytes32[])": "12a6a3f8",
    "decimals()": "313ce567",
    "decreaseAllowance(address,uint256)": "a457c2d7",
    "defaultOperators()": "06e48538",
    "downgrade(uint256)": "11bcc81e",
    "downgradeTo(address,uint256)": "83ba2525",
    "fee(uint32)": "8934c79a",
    "getAccountActiveAgreements(address)": "386fa221",
    "getAgreementData(address,bytes32,uint256)": "6c2d9f2f",
    "getAgreementStateSlot(address,address,uint256,uint256)": "4b61cc33",
    "getChainOfSponsors(address)": "21fb177a",
    "getCodeAddress()": "50d75d25",
    "getHost()": "20bc4425",
    "getProtege(address)": "099e14ce",
    "getUnderlyingToken()": "ee719bc8",
    "granularity()": "556f0dc7",
    "increaseAllowance(address,uint256)": "39509351",
    "initialize(address,uint8,string,string)": "42fe0980",
    "initialize(string,string,address)": "077f224a",
    "isAccountCritical(address,uint256)": "d9d078d6",
    "isAccountCriticalNow(address)": "79359f6f",
    "isAccountSolvent(address,uint256)": "b84cdd4a",
    "isAccountSolventNow(address)": "bb0d196e",
    "isOperatorFor(address,address)": "d95b6371",
    "isProtege(address)": "e4a472c8",
    "makeLiquidationPayoutsV2(bytes32,bytes,address,bool,address,uint256,int256)": "1863e809",
    "mint(uint256)": "a0712d68",
    "name()": "06fdde03",
    "operationApprove(address,address,uint256)": "62aa5287",
    "operationDecreaseAllowance(address,address,uint256)": "c780fd82",
    "operationDowngrade(address,uint256)": "245887fc",
    "operationIncreaseAllowance(address,address,uint256)": "4b2763b3",
    "operationSend(address,address,uint256,bytes)": "ca0c1e7f",
    "operationTransferFrom(address,address,address,uint256)": "16d055d6",
    "operationUpgrade(address,uint256)": "ca789464",
    "operatorBurn(address,uint256,bytes,bytes)": "fc673c4f",
    "operatorSend(address,address,uint256,bytes,bytes)": "62ad1b83",
    "owner()": "8da5cb5b",
    "proxiableUUID()": "52d1902d",
    "realtimeBalanceOf(address,uint256)": "eb3537cc",
    "realtimeBalanceOfNow(address)": "2ec8eec7",
    "restartStream()": "57cf7acb",
    "revokeOperator(address)": "fad8b32a",
    "selfApproveFor(address,address,uint256)": "66a12fb6",
    "selfBurn(address,uint256,bytes)": "9d876741",
    "selfMint(address,uint256,bytes)": "c68d4283",
    "selfTransferFrom(address,address,address,uint256)": "41b706be",
    "send(address,uint256,bytes)": "9bd9bbc6",
    "settleBalance(address,int256)": "cf97256d",
    "sponsor(address)": "766c4f37",
    "symbol()": "95d89b41",
    "terminateAgreement(bytes32,uint256)": "27048397",
    "totalSupply()": "18160ddd",
    "transfer(address,uint256)": "a9059cbb",
    "transferAll(address)": "a3a7e7f3",
    "transferFrom(address,address,uint256)": "23b872dd",
    "updateAgreementData(bytes32,bytes32[])": "a1b2bf8b",
    "updateAgreementStateSlot(address,uint256,bytes32[])": "090c415e",
    "updateCode(address)": "46951954",
    "upgrade(uint256)": "45977d03",
    "upgradeTo(address,uint256,bytes)": "5b9d09cc",
    "withdraw(address,uint256)": "f3fef3a3"
  },
  "id": 113
}