{
  "abi": [
    {
      "inputs": [],
      "stateMutability": "nonpayable",
      "type": "constructor"
    },
    {
      "inputs": [],
      "name": "Initialized",
      "type": "error"
    },
    {
      "inputs": [],
      "name": "ZeroAddress",
      "type": "error"
    },
    {
      "anonymous": false,
      "inputs": [
        {
          "indexed": true,
          "internalType": "address",
          "name": "previousOwner",
          "type": "address"
        },
        {
          "indexed": true,
          "internalType": "address",
          "name": "newOwner",
          "type": "address"
        }
      ],
      "name": "OwnershipTransferred",
      "type": "event"
    },
    {
      "stateMutability": "payable",
      "type": "fallback"
    },
    {
      "inputs": [],
      "name": "FIRST_ELEMENT_PROGRESSION",
      "outputs": [
        {
          "internalType": "uint256",
          "name": "",
          "type": "uint256"
        }
      ],
      "stateMutability": "view",
      "type": "function"
    },
    {
      "inputs": [],
      "name": "FLAT_COST_SPONSORSHIP",
      "outputs": [
        {
          "internalType": "uint256",
          "name": "",
          "type": "uint256"
        }
      ],
      "stateMutability": "view",
      "type": "function"
    },
    {
      "inputs": [],
      "name": "MAX_SPONSORSHIP_LEVEL",
      "outputs": [
        {
          "internalType": "uint256",
          "name": "",
          "type": "uint256"
        }
      ],
      "stateMutability": "view",
      "type": "function"
    },
    {
      "inputs": [],
      "name": "MAX_SPONSORSHIP_PATH_OUTFLOW",
      "outputs": [
        {
          "internalType": "uint256",
          "name": "",
          "type": "uint256"
        }
      ],
      "stateMutability": "view",
      "type": "function"
    },
    {
      "inputs": [],
      "name": "SECONDS_IN_A_DAY",
      "outputs": [
        {
          "internalType": "uint256",
          "name": "",
          "type": "uint256"
        }
      ],
      "stateMutability": "view",
      "type": "function"
    },
    {
      "inputs": [
        {
          "internalType": "uint8",
          "name": "level",
          "type": "uint8"
        },
        {
          "internalType": "uint32",
          "name": "protegeCount",
          "type": "uint32"
        },
        {
          "internalType": "uint256",
          "name": "totalWeightedFactor",
          "type": "uint256"
        }
      ],
      "name": "calculateSponsorAmount",
      "outputs": [
        {
          "internalType": "int96",
          "name": "flow",
          "type": "int96"
        }
      ],
      "stateMutability": "pure",
      "type": "function"
    },
    {
      "inputs": [
        {
          "internalType": "uint8",
          "name": "level",
          "type": "uint8"
        }
      ],
      "name": "getAllocation",
      "outputs": [
        {
          "internalType": "uint256",
          "name": "allocation",
          "type": "uint256"
        }
      ],
      "stateMutability": "pure",
      "type": "function"
    },
    {
      "inputs": [
        {
          "internalType": "address",
          "name": "protege",
          "type": "address"
        }
      ],
      "name": "getChainOfSponsors",
      "outputs": [
        {
          "components": [
            {
              "internalType": "address",
              "name": "sponsor",
              "type": "address"
            },
            {
              "internalType": "uint8",
              "name": "level",
              "type": "uint8"
            },
            {
              "internalType": "uint32",
              "name": "protegeCount",
              "type": "uint32"
            }
          ],
          "internalType": "struct SuperfluidClub.Protege[6]",
          "name": "sponsors",
          "type": "tuple[6]"
        }
      ],
      "stateMutability": "view",
      "type": "function"
    },
    {
      "inputs": [
        {
          "internalType": "uint8",
          "name": "protegeLvl",
          "type": "uint8"
        }
      ],
      "name": "getFlowRateAmount",
      "outputs": [
        {
          "internalType": "int96",
          "name": "flowRate",
          "type": "int96"
        }
      ],
      "stateMutability": "pure",
      "type": "function"
    },
    {
      "inputs": [
        {
          "internalType": "uint8",
          "name": "sponsorLvl",
          "type": "uint8"
        }
      ],
      "name": "getMaxFlowRateByLevel",
      "outputs": [
        {
          "internalType": "int96",
          "name": "maxFlowRate",
          "type": "int96"
        }
      ],
      "stateMutability": "pure",
      "type": "function"
    },
    {
      "inputs": [
        {
          "internalType": "uint8",
          "name": "protegeLvl",
          "type": "uint8"
        }
      ],
      "name": "getProtegeLevelWeight",
      "outputs": [
        {
          "internalType": "uint256",
          "name": "levelWeight",
          "type": "uint256"
        }
      ],
      "stateMutability": "pure",
      "type": "function"
    },
    {
      "inputs": [
        {
          "internalType": "address",
          "name": "superTokenFactory",
          "type": "address"
        }
      ],
      "name": "initialize",
      "outputs": [],
      "stateMutability": "nonpayable",
      "type": "function"
    },
    {
      "inputs": [
        {
          "internalType": "address",
          "name": "initialAddress",
          "type": "address"
        }
      ],
      "name": "initializeProxy",
      "outputs": [],
      "stateMutability": "nonpayable",
      "type": "function"
    },
    {
      "inputs": [
        {
          "internalType": "address",
          "name": "protege",
          "type": "address"
        }
      ],
      "name": "isProtege",
      "outputs": [
        {
          "internalType": "bool",
          "name": "",
          "type": "bool"
        }
      ],
      "stateMutability": "view",
      "type": "function"
    },
    {
      "inputs": [
        {
          "internalType": "uint256",
          "name": "amount",
          "type": "uint256"
        }
      ],
      "name": "mint",
      "outputs": [],
      "stateMutability": "nonpayable",
      "type": "function"
    },
    {
      "inputs": [],
      "name": "owner",
      "outputs": [
        {
          "internalType": "address",
          "name": "",
          "type": "address"
        }
      ],
      "stateMutability": "view",
      "type": "function"
    },
    {
      "inputs": [],
      "name": "renounceOwnership",
      "outputs": [],
      "stateMutability": "nonpayable",
      "type": "function"
    },
    {
      "inputs": [],
      "name": "restartStream",
      "outputs": [],
      "stateMutability": "nonpayable",
      "type": "function"
    },
    {
      "inputs": [
        {
          "internalType": "address payable",
          "name": "newProtege",
          "type": "address"
        }
      ],
      "name": "sponsorship",
      "outputs": [],
      "stateMutability": "payable",
      "type": "function"
    },
    {
      "inputs": [
        {
          "internalType": "address",
          "name": "newOwner",
          "type": "address"
        }
      ],
      "name": "transferOwnership",
      "outputs": [],
      "stateMutability": "nonpayable",
      "type": "function"
    },
    {
      "inputs": [
        {
          "internalType": "address",
          "name": "receiver",
          "type": "address"
        },
        {
          "internalType": "uint256",
          "name": "amount",
          "type": "uint256"
        }
      ],
      "name": "withdraw",
      "outputs": [],
      "stateMutability": "nonpayable",
      "type": "function"
    },
    {
      "stateMutability": "payable",
      "type": "receive"
    }
  ],
  "bytecode": {
    "object": "0x608060405234801561001057600080fd5b5061001a3361001f565b610071565b602080546001600160a01b038381166001600160a01b0319831681179093556040519116919082907f8be0079c531659141344cd1fd0a4f28419497f9722a3daafe3b4186f6b6457e090600090a35050565b611c25806100806000396000f3fe60806040526004361061012e5760003560e01c8063b144a77b116100ab578063e4a472c81161006f578063e4a472c814610330578063f202de0714610360578063f2fde38b14610373578063f349f56a14610393578063f3fef3a3146103b0578063f9cfa06f146103d057610135565b8063b144a77b14610288578063b5c0b7eb146102bb578063c41a4735146102d0578063c4d66de8146102f0578063da3a6a121461031057610135565b806378575643116100f257806378575643146101e95780638da5cb5b14610209578063a0712d6814610230578063a2698fc014610250578063b132a50d1461026d57610135565b80631c945f591461013f57806321fb177a146101725780634a0687ef1461019f57806357cf7acb146101bf578063715018a6146101d457610135565b3661013557005b61013d6103e7565b005b34801561014b57600080fd5b5061015f61015a36600461165b565b610419565b6040519081526020015b60405180910390f35b34801561017e57600080fd5b5061019261018d366004611692565b61043f565b60405161016991906116af565b3480156101ab57600080fd5b5061013d6101ba366004611692565b6104fc565b3480156101cb57600080fd5b5061013d610598565b3480156101e057600080fd5b5061013d61066a565b3480156101f557600080fd5b5061015f61020436600461165b565b61067c565b34801561021557600080fd5b50602080546040516001600160a01b03909116815201610169565b34801561023c57600080fd5b5061013d61024b36600461170c565b6106ea565b34801561025c57600080fd5b5061015f6813d64c843842b1000081565b34801561027957600080fd5b5061015f662386f26fc1000081565b34801561029457600080fd5b506102a86102a3366004611725565b61072d565b604051600b9190910b8152602001610169565b3480156102c757600080fd5b5061015f600681565b3480156102dc57600080fd5b506102a86102eb36600461165b565b610789565b3480156102fc57600080fd5b5061013d61030b366004611692565b610802565b34801561031c57600080fd5b506102a861032b36600461165b565b6108bd565b34801561033c57600080fd5b5061035061034b366004611692565b61094b565b6040519015158152602001610169565b61013d61036e366004611692565b61096b565b34801561037f57600080fd5b5061013d61038e366004611692565b610cd5565b34801561039f57600080fd5b5061015f68270801d946c940000081565b3480156103bc57600080fd5b5061013d6103cb36600461176d565b610d4b565b3480156103dc57600080fd5b5061015f6201518081565b6104176104127f360894a13ba1a3210667c828492db98dca3e2076cc3735a920a3ca505d382bbc5490565b610e5d565b565b6000610426826002611893565b610439906813d64c843842b100006118a2565b92915050565b61044761160b565b8160005b6104548261094b565b156104f5576001600160a01b03828116600090815260216020908152604091829020825160608101845290549384168152600160a01b840460ff1691810191909152600160a81b90920463ffffffff169082015283826104b3816118c4565b9350600681106104c5576104c56118dd565b602090810291909101919091526001600160a01b039283166000908152602190915260409020549091169061044b565b5050919050565b6001600160a01b0381166105235760405163d92e233d60e01b815260040160405180910390fd5b600061054d7f360894a13ba1a3210667c828492db98dca3e2076cc3735a920a3ca505d382bbc5490565b6001600160a01b031614610574576040516302ed543d60e51b815260040160405180910390fd5b7f360894a13ba1a3210667c828492db98dca3e2076cc3735a920a3ca505d382bbc55565b6105a13361094b565b6105e35760405162461bcd60e51b815260206004820152600e60248201526d4e6f7420612070726f746567652160901b60448201526064015b60405180910390fd5b60006105f0308033610e81565b905080600b0b6000146106365760405162461bcd60e51b815260206004820152600e60248201526d53747265616d2072756e6e696e6760901b60448201526064016105da565b33600081815260216020526040902054610666919061065e90600160a01b900460ff16610789565b309190610f19565b5050565b610672610f40565b6104176000610f9a565b60008160ff1660010361069157506032919050565b8160ff166002036106a457506019919050565b8160ff166003036106b75750600c919050565b8160ff166004036106ca57506006919050565b8160ff166005036106dd57506003919050565b506001919050565b919050565b6106f2610f40565b61072a308260005b6040519080825280601f01601f191660200182016040528015610724576020820181803683370190505b50610fec565b50565b6000808363ffffffff1661074086610419565b61074a9190611909565b905061078062015180846107678468270801d946c9400000611909565b61077191906118a2565b61077b91906118a2565b61104a565b95945050505050565b600080610795836108bd565b9050600060646107a48561067c565b6107b79068270801d946c9400000611909565b6107c191906118a2565b905060006bffffffffffffffffffffffff831682116107e057816107f0565b6bffffffffffffffffffffffff83165b905061078061077b62015180836118a2565b602054600160a01b900460ff16156108525760405162461bcd60e51b8152602060048201526013602482015272105b1c9958591e481a5b9a5d1a585b1a5e9959606a1b60448201526064016105da565b6020805460ff60a01b1916600160a01b178155604080518082018252600580825264086d8eac4b60db1b82850181905283518085019094529083529282019290925261089f918391611097565b61072a30710125dfa371a19e6f7cb54395ca000000000060006106fa565b60008160ff166001036108d9575067016345785d8a0000919050565b8160ff166002036108f2575066b1a2bc2ec50000919050565b8160ff1660030361090b575066470de4df820000919050565b8160ff166004036109245750662386f26fc10000919050565b8160ff1660050361093d57506611c37937e08000919050565b5066038d7ea4c68000919050565b6001600160a01b0390811660009081526021602052604090205416151590565b6109748161094b565b156109b65760405162461bcd60e51b8152602060048201526012602482015271416c726561647920612070726f746567652160701b60448201526064016105da565b6000806109cb6020546001600160a01b031690565b6001600160a01b0316336001600160a01b0316146109eb573360006109ef565b3060015b915091506109fc8261094b565b80610a045750805b610a495760405162461bcd60e51b8152602060048201526016602482015275596f7520617265206e6f7420612070726f746567652160501b60448201526064016105da565b6001600160a01b0382166000908152602160205260409020543490600160a01b900460ff16662386f26fc10000821015610ab85760405162461bcd60e51b815260206004820152601060248201526f4e6f7420656e6f75676820636f696e2160801b60448201526064016105da565b610ac9662386f26fc1000083611920565b915060068160ff1610610b1e5760405162461bcd60e51b815260206004820152601e60248201527f4d61782073706f6e736f7273686970206c6576656c207265616368656421000060448201526064016105da565b6040518060600160405280856001600160a01b03168152602001826001610b459190611933565b60ff9081168252600060209283018190526001600160a01b03808a1682526021845260408083208651815496880151979092015163ffffffff16600160a81b0263ffffffff60a81b1997909516600160a01b026001600160a81b03199096169190921617939093179390931617905581855b610bc08161094b565b15610c7a576001600160a01b03811660009081526021602052604090208054600160a81b900463ffffffff16816015610bf88361194c565b91906101000a81548163ffffffff021916908363ffffffff16021790555050610c2083610419565b610c2a908561196f565b935082610c3681611982565b8254909450610c6991508390610c6490600160a01b810460ff1690600160a81b900463ffffffff168861072d565b61111a565b546001600160a01b03169050610bb7565b610c8c8861065e6102eb876001611933565b508415610ccb576040516001600160a01b0389169086156108fc029087906000818181858888f19350505050158015610cc9573d6000803e3d6000fd5b505b5050505050505050565b610cdd610f40565b6001600160a01b038116610d425760405162461bcd60e51b815260206004820152602660248201527f4f776e61626c653a206e6577206f776e657220697320746865207a65726f206160448201526564647265737360d01b60648201526084016105da565b61072a81610f9a565b610d53610f40565b6001600160a01b038216610d9c5760405162461bcd60e51b815260206004820152601060248201526f24b73b30b634b2103932b1b2b4bb32b960811b60448201526064016105da565b60008111610ddd5760405162461bcd60e51b815260206004820152600e60248201526d125b9d985b1a5908185b5bdd5b9d60921b60448201526064016105da565b80471015610e225760405162461bcd60e51b81526020600482015260126024820152714e6f7420656e6f7567682062616c616e636560701b60448201526064016105da565b6040516001600160a01b0383169082156108fc029083906000818181858888f19350505050158015610e58573d6000803e3d6000fd5b505050565b3660008037600080366000845af43d6000803e808015610e7c573d6000f35b3d6000fd5b600080610e8d85611146565b604051631cd43d1160e31b81526001600160a01b03888116600483015287811660248301528681166044830152919350908316915063e6a1e88890606401608060405180830381865afa158015610ee8573d6000803e3d6000fd5b505050506040513d601f19601f82011682018060405250810190610f0c919061199f565b5090979650505050505050565b60408051600080825260208201909252610f38908590859085906112c7565b949350505050565b6020546001600160a01b031633146104175760405162461bcd60e51b815260206004820181905260248201527f4f776e61626c653a2063616c6c6572206973206e6f7420746865206f776e657260448201526064016105da565b602080546001600160a01b038381166001600160a01b0319831681179093556040519116919082907f8be0079c531659141344cd1fd0a4f28419497f9722a3daafe3b4186f6b6457e090600090a35050565b60405163c68d428360e01b8152309063c68d42839061101390869086908690600401611a33565b600060405180830381600087803b15801561102d57600080fd5b505af1158015611041573d6000803e3d6000fd5b50505050505050565b60006b7fffffffffffffffffffffff8211156110935760405162461bcd60e51b81526020600482015260086024820152676f766572666c6f7760c01b60448201526064016105da565b5090565b604051633504b4d160e21b81523060048201526001600160a01b0384169063d412d34490602401600060405180830381600087803b1580156110d857600080fd5b505af11580156110ec573d6000803e3d6000fd5b50506040516285fc1360e71b81523092506342fe098091506110139060009060129087908790600401611a5a565b6000611127308085610e81565b600b0b131561113b57610e583083836113f3565b610e58308383610f19565b7f65599bf746e17a00ea62e3610586992d88101b78eec3cf380706621fb97ea837547fb969d79d88acd02d04ed7ee7d43b949e7daf093d363abcfbbc43dfdfd1ce969a546001600160a01b038116611296576001600160a01b03821661120b57826001600160a01b03166320bc44256040518163ffffffff1660e01b8152600401602060405180830381865afa1580156111e4573d6000803e3d6000fd5b505050506040513d601f19601f820116820180604052508101906112089190611aa4565b91505b604051635b69006f60e11b81527fa9214cc96615e0085d3bb077758db69497dc2dce3b2b1e97bc93c3d18d83efd360048201526001600160a01b0383169063b6d200de90602401602060405180830381865afa15801561126f573d6000803e3d6000fd5b505050506040513d601f19601f820116820180604052508101906112939190611aa4565b90505b6001600160a01b0382166112ac576112ac611ac1565b6001600160a01b0381166112c2576112c2611ac1565b915091565b60008060006112d587611412565b91509150816001600160a01b03166339255d5b82836001600160a01b03166362fc305e8b8b8b600067ffffffffffffffff811115611315576113156118f3565b6040519080825280601f01601f19166020018201604052801561133f576020820181803683370190505b506040516024016113539493929190611ad7565b60408051808303601f1901815291815260208201805160e094851b6001600160e01b03909116179052519185901b6001600160e01b031916825261139e939250908990600401611b17565b6000604051808303816000875af11580156113bd573d6000803e3d6000fd5b505050506040513d6000823e601f3d908101601f191682016040526113e59190810190611b4d565b506001979650505050505050565b60408051600080825260208201909252610f38908590859085906115bd565b7f65599bf746e17a00ea62e3610586992d88101b78eec3cf380706621fb97ea837547fb969d79d88acd02d04ed7ee7d43b949e7daf093d363abcfbbc43dfdfd1ce969a546001600160a01b038116611296576001600160a01b0382166114d757826001600160a01b03166320bc44256040518163ffffffff1660e01b8152600401602060405180830381865afa1580156114b0573d6000803e3d6000fd5b505050506040513d601f19601f820116820180604052508101906114d49190611aa4565b91505b604051635b69006f60e11b81527fa9214cc96615e0085d3bb077758db69497dc2dce3b2b1e97bc93c3d18d83efd360048201526001600160a01b0383169063b6d200de90602401602060405180830381865afa15801561153b573d6000803e3d6000fd5b505050506040513d601f19601f8201168201806040525081019061155f9190611aa4565b9050817f65599bf746e17a00ea62e3610586992d88101b78eec3cf380706621fb97ea83755807fb969d79d88acd02d04ed7ee7d43b949e7daf093d363abcfbbc43dfdfd1ce969a556001600160a01b0382166112ac576112ac611ac1565b60008060006115cb87611412565b91509150816001600160a01b03166339255d5b82836001600160a01b03166350209a628b8b8b600067ffffffffffffffff811115611315576113156118f3565b6040518060c001604052806006905b604080516060810182526000808252602080830182905292820152825260001990920191018161161a5790505090565b803560ff811681146106e557600080fd5b60006020828403121561166d57600080fd5b6116768261164a565b9392505050565b6001600160a01b038116811461072a57600080fd5b6000602082840312156116a457600080fd5b81356116768161167d565b6102408101818360005b600681101561170357815180516001600160a01b0316845260208082015160ff168186015260409182015163ffffffff1691850191909152606090930192909101906001016116b9565b50505092915050565b60006020828403121561171e57600080fd5b5035919050565b60008060006060848603121561173a57600080fd5b6117438461164a565b9250602084013563ffffffff8116811461175c57600080fd5b929592945050506040919091013590565b6000806040838503121561178057600080fd5b823561178b8161167d565b946020939093013593505050565b634e487b7160e01b600052601160045260246000fd5b600181815b808511156117ea5781600019048211156117d0576117d0611799565b808516156117dd57918102915b93841c93908002906117b4565b509250929050565b60008261180157506001610439565b8161180e57506000610439565b8160018114611824576002811461182e5761184a565b6001915050610439565b60ff84111561183f5761183f611799565b50506001821b610439565b5060208310610133831016604e8410600b841016171561186d575081810a610439565b61187783836117af565b806000190482111561188b5761188b611799565b029392505050565b600061167660ff8416836117f2565b6000826118bf57634e487b7160e01b600052601260045260246000fd5b500490565b6000600182016118d6576118d6611799565b5060010190565b634e487b7160e01b600052603260045260246000fd5b634e487b7160e01b600052604160045260246000fd5b808202811582820484141761043957610439611799565b8181038181111561043957610439611799565b60ff818116838216019081111561043957610439611799565b600063ffffffff80831681810361196557611965611799565b6001019392505050565b8082018082111561043957610439611799565b600060ff82168061199557611995611799565b6000190192915050565b600080600080608085870312156119b557600080fd5b84519350602085015180600b0b81146119cd57600080fd5b6040860151606090960151949790965092505050565b60005b838110156119fe5781810151838201526020016119e6565b50506000910152565b60008151808452611a1f8160208601602086016119e3565b601f01601f19169290920160200192915050565b60018060a01b03841681528260208201526060604082015260006107806060830184611a07565b6001600160a01b038516815260ff84166020820152608060408201819052600090611a8790830185611a07565b8281036060840152611a998185611a07565b979650505050505050565b600060208284031215611ab657600080fd5b81516116768161167d565b634e487b7160e01b600052600160045260246000fd5b6001600160a01b03858116825284166020820152600b83900b6040820152608060608201819052600090611b0d90830184611a07565b9695505050505050565b6001600160a01b0384168152606060208201819052600090611b3b90830185611a07565b8281036040840152611b0d8185611a07565b600060208284031215611b5f57600080fd5b815167ffffffffffffffff80821115611b7757600080fd5b818401915084601f830112611b8b57600080fd5b815181811115611b9d57611b9d6118f3565b604051601f8201601f19908116603f01168101908382118183101715611bc557611bc56118f3565b81604052828152876020848701011115611bde57600080fd5b611a998360208301602088016119e356fea2646970667358221220ab1c12c63b29a12e3750606d9bfc9701320b2b6b83a4ca15ecc4c54873cdec5b64736f6c63430008130033",
    "linkReferences": {}
  },
  "methodIdentifiers": {
    "FIRST_ELEMENT_PROGRESSION()": "a2698fc0",
    "FLAT_COST_SPONSORSHIP()": "b132a50d",
    "MAX_SPONSORSHIP_LEVEL()": "b5c0b7eb",
    "MAX_SPONSORSHIP_PATH_OUTFLOW()": "f349f56a",
    "SECONDS_IN_A_DAY()": "f9cfa06f",
    "calculateSponsorAmount(uint8,uint32,uint256)": "b144a77b",
    "getAllocation(uint8)": "1c945f59",
    "getChainOfSponsors(address)": "21fb177a",
    "getFlowRateAmount(uint8)": "c41a4735",
    "getMaxFlowRateByLevel(uint8)": "da3a6a12",
    "getProtegeLevelWeight(uint8)": "78575643",
    "initialize(address)": "c4d66de8",
    "initializeProxy(address)": "4a0687ef",
    "isProtege(address)": "e4a472c8",
    "mint(uint256)": "a0712d68",
    "owner()": "8da5cb5b",
    "renounceOwnership()": "715018a6",
    "restartStream()": "57cf7acb",
    "sponsorship(address)": "f202de07",
    "transferOwnership(address)": "f2fde38b",
    "withdraw(address,uint256)": "f3fef3a3"
  },
  "id": 115
}