{
  "abi": [
    {
      "inputs": [
        {
          "internalType": "contract ISuperfluid",
          "name": "host",
          "type": "address"
        },
        {
          "internalType": "contract IConstantOutflowNFT",
          "name": "constantOutflowNFT",
          "type": "address"
        },
        {
          "internalType": "contract IConstantInflowNFT",
          "name": "constantInflowNFT",
          "type": "address"
        }
      ],
      "stateMutability": "nonpayable",
      "type": "constructor"
    },
    {
      "inputs": [],
      "name": "ALREADY_PROTEGE",
      "type": "error"
    },
    {
      "inputs": [],
      "name": "MAX_SPONSORSHIP_LEVEL_REACHED",
      "type": "error"
    },
    {
      "inputs": [],
      "name": "NOT_OWNER",
      "type": "error"
    },
    {
      "inputs": [],
      "name": "NOT_PROTEGE",
      "type": "error"
    },
    {
      "inputs": [],
      "name": "SF_TOKEN_AGREEMENT_ALREADY_EXISTS",
      "type": "error"
    },
    {
      "inputs": [],
      "name": "SF_TOKEN_AGREEMENT_DOES_NOT_EXIST",
      "type": "error"
    },
    {
      "inputs": [],
      "name": "SF_TOKEN_BURN_INSUFFICIENT_BALANCE",
      "type": "error"
    },
    {
      "inputs": [],
      "name": "SF_TOKEN_MOVE_INSUFFICIENT_BALANCE",
      "type": "error"
    },
    {
      "inputs": [],
      "name": "SF_TOKEN_ONLY_HOST",
      "type": "error"
    },
    {
      "inputs": [],
      "name": "SF_TOKEN_ONLY_LISTED_AGREEMENT",
      "type": "error"
    },
    {
      "inputs": [],
      "name": "SUPER_TOKEN_APPROVE_FROM_ZERO_ADDRESS",
      "type": "error"
    },
    {
      "inputs": [],
      "name": "SUPER_TOKEN_APPROVE_TO_ZERO_ADDRESS",
      "type": "error"
    },
    {
      "inputs": [],
      "name": "SUPER_TOKEN_BURN_FROM_ZERO_ADDRESS",
      "type": "error"
    },
    {
      "inputs": [],
      "name": "SUPER_TOKEN_CALLER_IS_NOT_OPERATOR_FOR_HOLDER",
      "type": "error"
    },
    {
      "inputs": [],
      "name": "SUPER_TOKEN_INFLATIONARY_DEFLATIONARY_NOT_SUPPORTED",
      "type": "error"
    },
    {
      "inputs": [],
      "name": "SUPER_TOKEN_MINT_TO_ZERO_ADDRESS",
      "type": "error"
    },
    {
      "inputs": [],
      "name": "SUPER_TOKEN_NFT_PROXY_ADDRESS_CHANGED",
      "type": "error"
    },
    {
      "inputs": [],
      "name": "SUPER_TOKEN_NOT_ERC777_TOKENS_RECIPIENT",
      "type": "error"
    },
    {
      "inputs": [],
      "name": "SUPER_TOKEN_NO_UNDERLYING_TOKEN",
      "type": "error"
    },
    {
      "inputs": [],
      "name": "SUPER_TOKEN_ONLY_GOV_OWNER",
      "type": "error"
    },
    {
      "inputs": [],
      "name": "SUPER_TOKEN_ONLY_HOST",
      "type": "error"
    },
    {
      "inputs": [],
      "name": "SUPER_TOKEN_ONLY_SELF",
      "type": "error"
    },
    {
      "inputs": [],
      "name": "SUPER_TOKEN_TRANSFER_FROM_ZERO_ADDRESS",
      "type": "error"
    },
    {
      "inputs": [],
      "name": "SUPER_TOKEN_TRANSFER_TO_ZERO_ADDRESS",
      "type": "error"
    },
    {
      "anonymous": false,
      "inputs": [
        {
          "indexed": true,
          "internalType": "address",
          "name": "agreementClass",
          "type": "address"
        },
        {
          "indexed": false,
          "internalType": "bytes32",
          "name": "id",
          "type": "bytes32"
        },
        {
          "indexed": false,
          "internalType": "bytes32[]",
          "name": "data",
          "type": "bytes32[]"
        }
      ],
      "name": "AgreementCreated",
      "type": "event"
    },
    {
      "anonymous": false,
      "inputs": [
        {
          "indexed": true,
          "internalType": "address",
          "name": "agreementClass",
          "type": "address"
        },
        {
          "indexed": false,
          "internalType": "bytes32",
          "name": "id",
          "type": "bytes32"
        },
        {
          "indexed": true,
          "internalType": "address",
          "name": "penaltyAccount",
          "type": "address"
        },
        {
          "indexed": true,
          "internalType": "address",
          "name": "rewardAccount",
          "type": "address"
        },
        {
          "indexed": false,
          "internalType": "uint256",
          "name": "rewardAmount",
          "type": "uint256"
        }
      ],
      "name": "AgreementLiquidated",
      "type": "event"
    },
    {
      "anonymous": false,
      "inputs": [
        {
          "indexed": false,
          "internalType": "address",
          "name": "liquidatorAccount",
          "type": "address"
        },
        {
          "indexed": true,
          "internalType": "address",
          "name": "agreementClass",
          "type": "address"
        },
        {
          "indexed": false,
          "internalType": "bytes32",
          "name": "id",
          "type": "bytes32"
        },
        {
          "indexed": true,
          "internalType": "address",
          "name": "penaltyAccount",
          "type": "address"
        },
        {
          "indexed": true,
          "internalType": "address",
          "name": "bondAccount",
          "type": "address"
        },
        {
          "indexed": false,
          "internalType": "uint256",
          "name": "rewardAmount",
          "type": "uint256"
        },
        {
          "indexed": false,
          "internalType": "uint256",
          "name": "bailoutAmount",
          "type": "uint256"
        }
      ],
      "name": "AgreementLiquidatedBy",
      "type": "event"
    },
    {
      "anonymous": false,
      "inputs": [
        {
          "indexed": true,
          "internalType": "address",
          "name": "agreementClass",
          "type": "address"
        },
        {
          "indexed": false,
          "internalType": "bytes32",
          "name": "id",
          "type": "bytes32"
        },
        {
          "indexed": true,
          "internalType": "address",
          "name": "liquidatorAccount",
          "type": "address"
        },
        {
          "indexed": true,
          "internalType": "address",
          "name": "targetAccount",
          "type": "address"
        },
        {
          "indexed": false,
          "internalType": "address",
          "name": "rewardAmountReceiver",
          "type": "address"
        },
        {
          "indexed": false,
          "internalType": "uint256",
          "name": "rewardAmount",
          "type": "uint256"
        },
        {
          "indexed": false,
          "internalType": "int256",
          "name": "targetAccountBalanceDelta",
          "type": "int256"
        },
        {
          "indexed": false,
          "internalType": "bytes",
          "name": "liquidationTypeData",
          "type": "bytes"
        }
      ],
      "name": "AgreementLiquidatedV2",
      "type": "event"
    },
    {
      "anonymous": false,
      "inputs": [
        {
          "indexed": true,
          "internalType": "address",
          "name": "agreementClass",
          "type": "address"
        },
        {
          "indexed": true,
          "internalType": "address",
          "name": "account",
          "type": "address"
        },
        {
          "indexed": false,
          "internalType": "uint256",
          "name": "slotId",
          "type": "uint256"
        }
      ],
      "name": "AgreementStateUpdated",
      "type": "event"
    },
    {
      "anonymous": false,
      "inputs": [
        {
          "indexed": true,
          "internalType": "address",
          "name": "agreementClass",
          "type": "address"
        },
        {
          "indexed": false,
          "internalType": "bytes32",
          "name": "id",
          "type": "bytes32"
        }
      ],
      "name": "AgreementTerminated",
      "type": "event"
    },
    {
      "anonymous": false,
      "inputs": [
        {
          "indexed": true,
          "internalType": "address",
          "name": "agreementClass",
          "type": "address"
        },
        {
          "indexed": false,
          "internalType": "bytes32",
          "name": "id",
          "type": "bytes32"
        },
        {
          "indexed": false,
          "internalType": "bytes32[]",
          "name": "data",
          "type": "bytes32[]"
        }
      ],
      "name": "AgreementUpdated",
      "type": "event"
    },
    {
      "anonymous": false,
      "inputs": [
        {
          "indexed": true,
          "internalType": "address",
          "name": "owner",
          "type": "address"
        },
        {
          "indexed": true,
          "internalType": "address",
          "name": "spender",
          "type": "address"
        },
        {
          "indexed": false,
          "internalType": "uint256",
          "name": "value",
          "type": "uint256"
        }
      ],
      "name": "Approval",
      "type": "event"
    },
    {
      "anonymous": false,
      "inputs": [
        {
          "indexed": true,
          "internalType": "address",
          "name": "operator",
          "type": "address"
        },
        {
          "indexed": true,
          "internalType": "address",
          "name": "tokenHolder",
          "type": "address"
        }
      ],
      "name": "AuthorizedOperator",
      "type": "event"
    },
    {
      "anonymous": false,
      "inputs": [
        {
          "indexed": true,
          "internalType": "address",
          "name": "bailoutAccount",
          "type": "address"
        },
        {
          "indexed": false,
          "internalType": "uint256",
          "name": "bailoutAmount",
          "type": "uint256"
        }
      ],
      "name": "Bailout",
      "type": "event"
    },
    {
      "anonymous": false,
      "inputs": [
        {
          "indexed": true,
          "internalType": "address",
          "name": "operator",
          "type": "address"
        },
        {
          "indexed": true,
          "internalType": "address",
          "name": "from",
          "type": "address"
        },
        {
          "indexed": false,
          "internalType": "uint256",
          "name": "amount",
          "type": "uint256"
        },
        {
          "indexed": false,
          "internalType": "bytes",
          "name": "data",
          "type": "bytes"
        },
        {
          "indexed": false,
          "internalType": "bytes",
          "name": "operatorData",
          "type": "bytes"
        }
      ],
      "name": "Burned",
      "type": "event"
    },
    {
      "anonymous": false,
      "inputs": [
        {
          "indexed": false,
          "internalType": "bytes32",
          "name": "uuid",
          "type": "bytes32"
        },
        {
          "indexed": false,
          "internalType": "address",
          "name": "codeAddress",
          "type": "address"
        }
      ],
      "name": "CodeUpdated",
      "type": "event"
    },
    {
      "anonymous": false,
      "inputs": [
        {
          "indexed": true,
          "internalType": "contract IConstantInflowNFT",
          "name": "constantInflowNFT",
          "type": "address"
        }
      ],
      "name": "ConstantInflowNFTCreated",
      "type": "event"
    },
    {
      "anonymous": false,
      "inputs": [
        {
          "indexed": true,
          "internalType": "contract IConstantOutflowNFT",
          "name": "constantOutflowNFT",
          "type": "address"
        }
      ],
      "name": "ConstantOutflowNFTCreated",
      "type": "event"
    },
    {
      "anonymous": false,
      "inputs": [
        {
          "indexed": false,
          "internalType": "uint8",
          "name": "version",
          "type": "uint8"
        }
      ],
      "name": "Initialized",
      "type": "event"
    },
    {
      "anonymous": false,
      "inputs": [
        {
          "indexed": true,
          "internalType": "address",
          "name": "operator",
          "type": "address"
        },
        {
          "indexed": true,
          "internalType": "address",
          "name": "to",
          "type": "address"
        },
        {
          "indexed": false,
          "internalType": "uint256",
          "name": "amount",
          "type": "uint256"
        },
        {
          "indexed": false,
          "internalType": "bytes",
          "name": "data",
          "type": "bytes"
        },
        {
          "indexed": false,
          "internalType": "bytes",
          "name": "operatorData",
          "type": "bytes"
        }
      ],
      "name": "Minted",
      "type": "event"
    },
    {
      "anonymous": false,
      "inputs": [
        {
          "indexed": true,
          "internalType": "address",
          "name": "previousOwner",
          "type": "address"
        },
        {
          "indexed": true,
          "internalType": "address",
          "name": "newOwner",
          "type": "address"
        }
      ],
      "name": "OwnershipTransferred",
      "type": "event"
    },
    {
      "anonymous": false,
      "inputs": [
        {
          "indexed": true,
          "internalType": "address",
          "name": "sponsor",
          "type": "address"
        },
        {
          "indexed": true,
          "internalType": "address",
          "name": "protege",
          "type": "address"
        },
        {
          "indexed": false,
          "internalType": "uint8",
          "name": "level",
          "type": "uint8"
        },
        {
          "indexed": false,
          "internalType": "uint32",
          "name": "totalProtegeCount",
          "type": "uint32"
        },
        {
          "indexed": false,
          "internalType": "uint32",
          "name": "directTotalProtegeCount",
          "type": "uint32"
        }
      ],
      "name": "PROTEGE_UPDATED",
      "type": "event"
    },
    {
      "anonymous": false,
      "inputs": [
        {
          "indexed": true,
          "internalType": "address",
          "name": "operator",
          "type": "address"
        },
        {
          "indexed": true,
          "internalType": "address",
          "name": "tokenHolder",
          "type": "address"
        }
      ],
      "name": "RevokedOperator",
      "type": "event"
    },
    {
      "anonymous": false,
      "inputs": [
        {
          "indexed": true,
          "internalType": "address",
          "name": "operator",
          "type": "address"
        },
        {
          "indexed": true,
          "internalType": "address",
          "name": "from",
          "type": "address"
        },
        {
          "indexed": true,
          "internalType": "address",
          "name": "to",
          "type": "address"
        },
        {
          "indexed": false,
          "internalType": "uint256",
          "name": "amount",
          "type": "uint256"
        },
        {
          "indexed": false,
          "internalType": "bytes",
          "name": "data",
          "type": "bytes"
        },
        {
          "indexed": false,
          "internalType": "bytes",
          "name": "operatorData",
          "type": "bytes"
        }
      ],
      "name": "Sent",
      "type": "event"
    },
    {
      "anonymous": false,
      "inputs": [
        {
          "indexed": true,
          "internalType": "address",
          "name": "account",
          "type": "address"
        },
        {
          "indexed": false,
          "internalType": "uint256",
          "name": "amount",
          "type": "uint256"
        }
      ],
      "name": "TokenDowngraded",
      "type": "event"
    },
    {
      "anonymous": false,
      "inputs": [
        {
          "indexed": true,
          "internalType": "address",
          "name": "account",
          "type": "address"
        },
        {
          "indexed": false,
          "internalType": "uint256",
          "name": "amount",
          "type": "uint256"
        }
      ],
      "name": "TokenUpgraded",
      "type": "event"
    },
    {
      "anonymous": false,
      "inputs": [
        {
          "indexed": true,
          "internalType": "address",
          "name": "from",
          "type": "address"
        },
        {
          "indexed": true,
          "internalType": "address",
          "name": "to",
          "type": "address"
        },
        {
          "indexed": false,
          "internalType": "uint256",
          "name": "value",
          "type": "uint256"
        }
      ],
      "name": "Transfer",
      "type": "event"
    },
    {
      "inputs": [],
      "name": "CONSTANT_INFLOW_NFT",
      "outputs": [
        {
          "internalType": "contract IConstantInflowNFT",
          "name": "",
          "type": "address"
        }
      ],
      "stateMutability": "view",
      "type": "function"
    },
    {
      "inputs": [],
      "name": "CONSTANT_OUTFLOW_NFT",
      "outputs": [
        {
          "internalType": "contract IConstantOutflowNFT",
          "name": "",
          "type": "address"
        }
      ],
      "stateMutability": "view",
      "type": "function"
    },
    {
      "inputs": [],
      "name": "MAX_SPONSORSHIP_LEVEL",
      "outputs": [
        {
          "internalType": "uint256",
          "name": "",
          "type": "uint256"
        }
      ],
      "stateMutability": "view",
      "type": "function"
    },
    {
      "inputs": [],
      "name": "MAX_SPONSORSHIP_PATH_OUTFLOW",
      "outputs": [
        {
          "internalType": "uint256",
          "name": "",
          "type": "uint256"
        }
      ],
      "stateMutability": "view",
      "type": "function"
    },
    {
      "inputs": [
        {
          "internalType": "address",
          "name": "account",
          "type": "address"
        },
        {
          "internalType": "address",
          "name": "spender",
          "type": "address"
        }
      ],
      "name": "allowance",
      "outputs": [
        {
          "internalType": "uint256",
          "name": "",
          "type": "uint256"
        }
      ],
      "stateMutability": "view",
      "type": "function"
    },
    {
      "inputs": [
        {
          "internalType": "address",
          "name": "spender",
          "type": "address"
        },
        {
          "internalType": "uint256",
          "name": "amount",
          "type": "uint256"
        }
      ],
      "name": "approve",
      "outputs": [
        {
          "internalType": "bool",
          "name": "",
          "type": "bool"
        }
      ],
      "stateMutability": "nonpayable",
      "type": "function"
    },
    {
      "inputs": [
        {
          "internalType": "address",
          "name": "operator",
          "type": "address"
        }
      ],
      "name": "authorizeOperator",
      "outputs": [],
      "stateMutability": "nonpayable",
      "type": "function"
    },
    {
      "inputs": [
        {
          "internalType": "address",
          "name": "account",
          "type": "address"
        }
      ],
      "name": "balanceOf",
      "outputs": [
        {
          "internalType": "uint256",
          "name": "balance",
          "type": "uint256"
        }
      ],
      "stateMutability": "view",
      "type": "function"
    },
    {
      "inputs": [
        {
          "internalType": "uint256",
          "name": "amount",
          "type": "uint256"
        },
        {
          "internalType": "bytes",
          "name": "userData",
          "type": "bytes"
        }
      ],
      "name": "burn",
      "outputs": [],
      "stateMutability": "nonpayable",
      "type": "function"
    },
    {
      "inputs": [],
      "name": "castrate",
      "outputs": [],
      "stateMutability": "nonpayable",
      "type": "function"
    },
    {
      "inputs": [
        {
          "internalType": "bytes32",
          "name": "id",
          "type": "bytes32"
        },
        {
          "internalType": "bytes32[]",
          "name": "data",
          "type": "bytes32[]"
        }
      ],
      "name": "createAgreement",
      "outputs": [],
      "stateMutability": "nonpayable",
      "type": "function"
    },
    {
      "inputs": [],
      "name": "decimals",
      "outputs": [
        {
          "internalType": "uint8",
          "name": "",
          "type": "uint8"
        }
      ],
      "stateMutability": "pure",
      "type": "function"
    },
    {
      "inputs": [
        {
          "internalType": "address",
          "name": "spender",
          "type": "address"
        },
        {
          "internalType": "uint256",
          "name": "subtractedValue",
          "type": "uint256"
        }
      ],
      "name": "decreaseAllowance",
      "outputs": [
        {
          "internalType": "bool",
          "name": "",
          "type": "bool"
        }
      ],
      "stateMutability": "nonpayable",
      "type": "function"
    },
    {
      "inputs": [],
      "name": "defaultOperators",
      "outputs": [
        {
          "internalType": "address[]",
          "name": "",
          "type": "address[]"
        }
      ],
      "stateMutability": "view",
      "type": "function"
    },
    {
      "inputs": [
        {
          "internalType": "uint256",
          "name": "amount",
          "type": "uint256"
        }
      ],
      "name": "downgrade",
      "outputs": [],
      "stateMutability": "nonpayable",
      "type": "function"
    },
    {
      "inputs": [
        {
          "internalType": "address",
          "name": "to",
          "type": "address"
        },
        {
          "internalType": "uint256",
          "name": "amount",
          "type": "uint256"
        }
      ],
      "name": "downgradeTo",
      "outputs": [],
      "stateMutability": "nonpayable",
      "type": "function"
    },
    {
      "inputs": [
        {
          "internalType": "uint32",
          "name": "directProtegeCount",
          "type": "uint32"
        }
      ],
      "name": "fee",
      "outputs": [
        {
          "internalType": "uint256",
          "name": "feeAmount",
          "type": "uint256"
        }
      ],
      "stateMutability": "pure",
      "type": "function"
    },
    {
      "inputs": [
        {
          "internalType": "address",
          "name": "account",
          "type": "address"
        }
      ],
      "name": "getAccountActiveAgreements",
      "outputs": [
        {
          "internalType": "contract ISuperAgreement[]",
          "name": "",
          "type": "address[]"
        }
      ],
      "stateMutability": "view",
      "type": "function"
    },
    {
      "inputs": [
        {
          "internalType": "address",
          "name": "agreementClass",
          "type": "address"
        },
        {
          "internalType": "bytes32",
          "name": "id",
          "type": "bytes32"
        },
        {
          "internalType": "uint256",
          "name": "dataLength",
          "type": "uint256"
        }
      ],
      "name": "getAgreementData",
      "outputs": [
        {
          "internalType": "bytes32[]",
          "name": "data",
          "type": "bytes32[]"
        }
      ],
      "stateMutability": "view",
      "type": "function"
    },
    {
      "inputs": [
        {
          "internalType": "address",
          "name": "agreementClass",
          "type": "address"
        },
        {
          "internalType": "address",
          "name": "account",
          "type": "address"
        },
        {
          "internalType": "uint256",
          "name": "slotId",
          "type": "uint256"
        },
        {
          "internalType": "uint256",
          "name": "dataLength",
          "type": "uint256"
        }
      ],
      "name": "getAgreementStateSlot",
      "outputs": [
        {
          "internalType": "bytes32[]",
          "name": "slotData",
          "type": "bytes32[]"
        }
      ],
      "stateMutability": "view",
      "type": "function"
    },
    {
      "inputs": [
        {
          "internalType": "address",
          "name": "protege",
          "type": "address"
        }
      ],
      "name": "getChainOfSponsors",
      "outputs": [
        {
          "components": [
            {
              "internalType": "address",
              "name": "sponsor",
              "type": "address"
            },
            {
              "internalType": "uint8",
              "name": "level",
              "type": "uint8"
            },
            {
              "internalType": "uint32",
              "name": "totalProtegeCount",
              "type": "uint32"
            },
            {
              "internalType": "uint32",
              "name": "directTotalProtegeCount",
              "type": "uint32"
            },
            {
              "internalType": "int96",
              "name": "desiredFlowRate",
              "type": "int96"
            }
          ],
          "internalType": "struct ISuperfluidClub.Protege[]",
          "name": "sponsors",
          "type": "tuple[]"
        }
      ],
      "stateMutability": "view",
      "type": "function"
    },
    {
      "inputs": [],
      "name": "getCodeAddress",
      "outputs": [
        {
          "internalType": "address",
          "name": "codeAddress",
          "type": "address"
        }
      ],
      "stateMutability": "view",
      "type": "function"
    },
    {
      "inputs": [],
      "name": "getHost",
      "outputs": [
        {
          "internalType": "address",
          "name": "host",
          "type": "address"
        }
      ],
      "stateMutability": "view",
      "type": "function"
    },
    {
      "inputs": [
        {
          "internalType": "address",
          "name": "protege",
          "type": "address"
        }
      ],
      "name": "getProtege",
      "outputs": [
        {
          "components": [
            {
              "internalType": "address",
              "name": "sponsor",
              "type": "address"
            },
            {
              "internalType": "uint8",
              "name": "level",
              "type": "uint8"
            },
            {
              "internalType": "uint32",
              "name": "totalProtegeCount",
              "type": "uint32"
            },
            {
              "internalType": "uint32",
              "name": "directTotalProtegeCount",
              "type": "uint32"
            },
            {
              "internalType": "int96",
              "name": "desiredFlowRate",
              "type": "int96"
            }
          ],
          "internalType": "struct ISuperfluidClub.Protege",
          "name": "",
          "type": "tuple"
        }
      ],
      "stateMutability": "view",
      "type": "function"
    },
    {
      "inputs": [],
      "name": "getUnderlyingToken",
      "outputs": [
        {
          "internalType": "address",
          "name": "",
          "type": "address"
        }
      ],
      "stateMutability": "view",
      "type": "function"
    },
    {
      "inputs": [],
      "name": "granularity",
      "outputs": [
        {
          "internalType": "uint256",
          "name": "",
          "type": "uint256"
        }
      ],
      "stateMutability": "pure",
      "type": "function"
    },
    {
      "inputs": [
        {
          "internalType": "address",
          "name": "spender",
          "type": "address"
        },
        {
          "internalType": "uint256",
          "name": "addedValue",
          "type": "uint256"
        }
      ],
      "name": "increaseAllowance",
      "outputs": [
        {
          "internalType": "bool",
          "name": "",
          "type": "bool"
        }
      ],
      "stateMutability": "nonpayable",
      "type": "function"
    },
    {
      "inputs": [
        {
          "internalType": "string",
          "name": "name",
          "type": "string"
        },
        {
          "internalType": "string",
          "name": "symbol",
          "type": "string"
        },
        {
          "internalType": "address",
          "name": "newOwner",
          "type": "address"
        }
      ],
      "name": "initialize",
      "outputs": [],
      "stateMutability": "nonpayable",
      "type": "function"
    },
    {
      "inputs": [
        {
          "internalType": "contract IERC20",
          "name": "underlyingToken",
          "type": "address"
        },
        {
          "internalType": "uint8",
          "name": "underlyingDecimals",
          "type": "uint8"
        },
        {
          "internalType": "string",
          "name": "n",
          "type": "string"
        },
        {
          "internalType": "string",
          "name": "s",
          "type": "string"
        }
      ],
      "name": "initialize",
      "outputs": [],
      "stateMutability": "nonpayable",
      "type": "function"
    },
    {
      "inputs": [
        {
          "internalType": "address",
          "name": "account",
          "type": "address"
        },
        {
          "internalType": "uint256",
          "name": "timestamp",
          "type": "uint256"
        }
      ],
      "name": "isAccountCritical",
      "outputs": [
        {
          "internalType": "bool",
          "name": "isCritical",
          "type": "bool"
        }
      ],
      "stateMutability": "view",
      "type": "function"
    },
    {
      "inputs": [
        {
          "internalType": "address",
          "name": "account",
          "type": "address"
        }
      ],
      "name": "isAccountCriticalNow",
      "outputs": [
        {
          "internalType": "bool",
          "name": "isCritical",
          "type": "bool"
        }
      ],
      "stateMutability": "view",
      "type": "function"
    },
    {
      "inputs": [
        {
          "internalType": "address",
          "name": "account",
          "type": "address"
        },
        {
          "internalType": "uint256",
          "name": "timestamp",
          "type": "uint256"
        }
      ],
      "name": "isAccountSolvent",
      "outputs": [
        {
          "internalType": "bool",
          "name": "isSolvent",
          "type": "bool"
        }
      ],
      "stateMutability": "view",
      "type": "function"
    },
    {
      "inputs": [
        {
          "internalType": "address",
          "name": "account",
          "type": "address"
        }
      ],
      "name": "isAccountSolventNow",
      "outputs": [
        {
          "internalType": "bool",
          "name": "isSolvent",
          "type": "bool"
        }
      ],
      "stateMutability": "view",
      "type": "function"
    },
    {
      "inputs": [
        {
          "internalType": "address",
          "name": "operator",
          "type": "address"
        },
        {
          "internalType": "address",
          "name": "tokenHolder",
          "type": "address"
        }
      ],
      "name": "isOperatorFor",
      "outputs": [
        {
          "internalType": "bool",
          "name": "",
          "type": "bool"
        }
      ],
      "stateMutability": "view",
      "type": "function"
    },
    {
      "inputs": [
        {
          "internalType": "address",
          "name": "protege",
          "type": "address"
        }
      ],
      "name": "isProtege",
      "outputs": [
        {
          "internalType": "bool",
          "name": "",
          "type": "bool"
        }
      ],
      "stateMutability": "view",
      "type": "function"
    },
    {
      "inputs": [
        {
          "internalType": "bytes32",
          "name": "id",
          "type": "bytes32"
        },
        {
          "internalType": "bytes",
          "name": "liquidationTypeData",
          "type": "bytes"
        },
        {
          "internalType": "address",
          "name": "liquidatorAccount",
          "type": "address"
        },
        {
          "internalType": "bool",
          "name": "useDefaultRewardAccount",
          "type": "bool"
        },
        {
          "internalType": "address",
          "name": "targetAccount",
          "type": "address"
        },
        {
          "internalType": "uint256",
          "name": "rewardAmount",
          "type": "uint256"
        },
        {
          "internalType": "int256",
          "name": "targetAccountBalanceDelta",
          "type": "int256"
        }
      ],
      "name": "makeLiquidationPayoutsV2",
      "outputs": [],
      "stateMutability": "nonpayable",
      "type": "function"
    },
    {
      "inputs": [
        {
          "internalType": "uint256",
          "name": "amount",
          "type": "uint256"
        }
      ],
      "name": "mint",
      "outputs": [],
      "stateMutability": "nonpayable",
      "type": "function"
    },
    {
      "inputs": [],
      "name": "name",
      "outputs": [
        {
          "internalType": "string",
          "name": "",
          "type": "string"
        }
      ],
      "stateMutability": "view",
      "type": "function"
    },
    {
      "inputs": [
        {
          "internalType": "address",
          "name": "account",
          "type": "address"
        },
        {
          "internalType": "address",
          "name": "spender",
          "type": "address"
        },
        {
          "internalType": "uint256",
          "name": "amount",
          "type": "uint256"
        }
      ],
      "name": "operationApprove",
      "outputs": [],
      "stateMutability": "nonpayable",
      "type": "function"
    },
    {
      "inputs": [
        {
          "internalType": "address",
          "name": "account",
          "type": "address"
        },
        {
          "internalType": "address",
          "name": "spender",
          "type": "address"
        },
        {
          "internalType": "uint256",
          "name": "subtractedValue",
          "type": "uint256"
        }
      ],
      "name": "operationDecreaseAllowance",
      "outputs": [],
      "stateMutability": "nonpayable",
      "type": "function"
    },
    {
      "inputs": [
        {
          "internalType": "address",
          "name": "account",
          "type": "address"
        },
        {
          "internalType": "uint256",
          "name": "amount",
          "type": "uint256"
        }
      ],
      "name": "operationDowngrade",
      "outputs": [],
      "stateMutability": "nonpayable",
      "type": "function"
    },
    {
      "inputs": [
        {
          "internalType": "address",
          "name": "account",
          "type": "address"
        },
        {
          "internalType": "address",
          "name": "spender",
          "type": "address"
        },
        {
          "internalType": "uint256",
          "name": "addedValue",
          "type": "uint256"
        }
      ],
      "name": "operationIncreaseAllowance",
      "outputs": [],
      "stateMutability": "nonpayable",
      "type": "function"
    },
    {
      "inputs": [
        {
          "internalType": "address",
          "name": "spender",
          "type": "address"
        },
        {
          "internalType": "address",
          "name": "recipient",
          "type": "address"
        },
        {
          "internalType": "uint256",
          "name": "amount",
          "type": "uint256"
        },
        {
          "internalType": "bytes",
          "name": "userData",
          "type": "bytes"
        }
      ],
      "name": "operationSend",
      "outputs": [],
      "stateMutability": "nonpayable",
      "type": "function"
    },
    {
      "inputs": [
        {
          "internalType": "address",
          "name": "account",
          "type": "address"
        },
        {
          "internalType": "address",
          "name": "spender",
          "type": "address"
        },
        {
          "internalType": "address",
          "name": "recipient",
          "type": "address"
        },
        {
          "internalType": "uint256",
          "name": "amount",
          "type": "uint256"
        }
      ],
      "name": "operationTransferFrom",
      "outputs": [],
      "stateMutability": "nonpayable",
      "type": "function"
    },
    {
      "inputs": [
        {
          "internalType": "address",
          "name": "account",
          "type": "address"
        },
        {
          "internalType": "uint256",
          "name": "amount",
          "type": "uint256"
        }
      ],
      "name": "operationUpgrade",
      "outputs": [],
      "stateMutability": "nonpayable",
      "type": "function"
    },
    {
      "inputs": [
        {
          "internalType": "address",
          "name": "account",
          "type": "address"
        },
        {
          "internalType": "uint256",
          "name": "amount",
          "type": "uint256"
        },
        {
          "internalType": "bytes",
          "name": "userData",
          "type": "bytes"
        },
        {
          "internalType": "bytes",
          "name": "operatorData",
          "type": "bytes"
        }
      ],
      "name": "operatorBurn",
      "outputs": [],
      "stateMutability": "nonpayable",
      "type": "function"
    },
    {
      "inputs": [
        {
          "internalType": "address",
          "name": "sender",
          "type": "address"
        },
        {
          "internalType": "address",
          "name": "recipient",
          "type": "address"
        },
        {
          "internalType": "uint256",
          "name": "amount",
          "type": "uint256"
        },
        {
          "internalType": "bytes",
          "name": "userData",
          "type": "bytes"
        },
        {
          "internalType": "bytes",
          "name": "operatorData",
          "type": "bytes"
        }
      ],
      "name": "operatorSend",
      "outputs": [],
      "stateMutability": "nonpayable",
      "type": "function"
    },
    {
      "inputs": [],
      "name": "owner",
      "outputs": [
        {
          "internalType": "address",
          "name": "",
          "type": "address"
        }
      ],
      "stateMutability": "view",
      "type": "function"
    },
    {
      "inputs": [],
      "name": "proxiableUUID",
      "outputs": [
        {
          "internalType": "bytes32",
          "name": "",
          "type": "bytes32"
        }
      ],
      "stateMutability": "pure",
      "type": "function"
    },
    {
      "inputs": [
        {
          "internalType": "address",
          "name": "account",
          "type": "address"
        },
        {
          "internalType": "uint256",
          "name": "timestamp",
          "type": "uint256"
        }
      ],
      "name": "realtimeBalanceOf",
      "outputs": [
        {
          "internalType": "int256",
          "name": "availableBalance",
          "type": "int256"
        },
        {
          "internalType": "uint256",
          "name": "deposit",
          "type": "uint256"
        },
        {
          "internalType": "uint256",
          "name": "owedDeposit",
          "type": "uint256"
        }
      ],
      "stateMutability": "view",
      "type": "function"
    },
    {
      "inputs": [
        {
          "internalType": "address",
          "name": "account",
          "type": "address"
        }
      ],
      "name": "realtimeBalanceOfNow",
      "outputs": [
        {
          "internalType": "int256",
          "name": "availableBalance",
          "type": "int256"
        },
        {
          "internalType": "uint256",
          "name": "deposit",
          "type": "uint256"
        },
        {
          "internalType": "uint256",
          "name": "owedDeposit",
          "type": "uint256"
        },
        {
          "internalType": "uint256",
          "name": "timestamp",
          "type": "uint256"
        }
      ],
      "stateMutability": "view",
      "type": "function"
    },
    {
      "inputs": [],
      "name": "restartStream",
      "outputs": [],
      "stateMutability": "nonpayable",
      "type": "function"
    },
    {
      "inputs": [
        {
          "internalType": "address",
          "name": "operator",
          "type": "address"
        }
      ],
      "name": "revokeOperator",
      "outputs": [],
      "stateMutability": "nonpayable",
      "type": "function"
    },
    {
      "inputs": [
        {
          "internalType": "address",
          "name": "account",
          "type": "address"
        },
        {
          "internalType": "address",
          "name": "spender",
          "type": "address"
        },
        {
          "internalType": "uint256",
          "name": "amount",
          "type": "uint256"
        }
      ],
      "name": "selfApproveFor",
      "outputs": [],
      "stateMutability": "nonpayable",
      "type": "function"
    },
    {
      "inputs": [
        {
          "internalType": "address",
          "name": "account",
          "type": "address"
        },
        {
          "internalType": "uint256",
          "name": "amount",
          "type": "uint256"
        },
        {
          "internalType": "bytes",
          "name": "userData",
          "type": "bytes"
        }
      ],
      "name": "selfBurn",
      "outputs": [],
      "stateMutability": "nonpayable",
      "type": "function"
    },
    {
      "inputs": [
        {
          "internalType": "address",
          "name": "account",
          "type": "address"
        },
        {
          "internalType": "uint256",
          "name": "amount",
          "type": "uint256"
        },
        {
          "internalType": "bytes",
          "name": "userData",
          "type": "bytes"
        }
      ],
      "name": "selfMint",
      "outputs": [],
      "stateMutability": "nonpayable",
      "type": "function"
    },
    {
      "inputs": [
        {
          "internalType": "address",
          "name": "holder",
          "type": "address"
        },
        {
          "internalType": "address",
          "name": "spender",
          "type": "address"
        },
        {
          "internalType": "address",
          "name": "recipient",
          "type": "address"
        },
        {
          "internalType": "uint256",
          "name": "amount",
          "type": "uint256"
        }
      ],
      "name": "selfTransferFrom",
      "outputs": [],
      "stateMutability": "nonpayable",
      "type": "function"
    },
    {
      "inputs": [
        {
          "internalType": "address",
          "name": "recipient",
          "type": "address"
        },
        {
          "internalType": "uint256",
          "name": "amount",
          "type": "uint256"
        },
        {
          "internalType": "bytes",
          "name": "userData",
          "type": "bytes"
        }
      ],
      "name": "send",
      "outputs": [],
      "stateMutability": "nonpayable",
      "type": "function"
    },
    {
      "inputs": [
        {
          "internalType": "address",
          "name": "account",
          "type": "address"
        },
        {
          "internalType": "int256",
          "name": "delta",
          "type": "int256"
        }
      ],
      "name": "settleBalance",
      "outputs": [],
      "stateMutability": "nonpayable",
      "type": "function"
    },
    {
      "inputs": [
        {
          "internalType": "address payable",
          "name": "newProtege",
          "type": "address"
        }
      ],
      "name": "sponsor",
      "outputs": [],
      "stateMutability": "payable",
      "type": "function"
    },
    {
      "inputs": [],
      "name": "symbol",
      "outputs": [
        {
          "internalType": "string",
          "name": "",
          "type": "string"
        }
      ],
      "stateMutability": "view",
      "type": "function"
    },
    {
      "inputs": [
        {
          "internalType": "bytes32",
          "name": "id",
          "type": "bytes32"
        },
        {
          "internalType": "uint256",
          "name": "dataLength",
          "type": "uint256"
        }
      ],
      "name": "terminateAgreement",
      "outputs": [],
      "stateMutability": "nonpayable",
      "type": "function"
    },
    {
      "inputs": [],
      "name": "totalSupply",
      "outputs": [
        {
          "internalType": "uint256",
          "name": "",
          "type": "uint256"
        }
      ],
      "stateMutability": "view",
      "type": "function"
    },
    {
      "inputs": [
        {
          "internalType": "address",
          "name": "recipient",
          "type": "address"
        },
        {
          "internalType": "uint256",
          "name": "amount",
          "type": "uint256"
        }
      ],
      "name": "transfer",
      "outputs": [
        {
          "internalType": "bool",
          "name": "",
          "type": "bool"
        }
      ],
      "stateMutability": "nonpayable",
      "type": "function"
    },
    {
      "inputs": [
        {
          "internalType": "address",
          "name": "recipient",
          "type": "address"
        }
      ],
      "name": "transferAll",
      "outputs": [],
      "stateMutability": "nonpayable",
      "type": "function"
    },
    {
      "inputs": [
        {
          "internalType": "address",
          "name": "holder",
          "type": "address"
        },
        {
          "internalType": "address",
          "name": "recipient",
          "type": "address"
        },
        {
          "internalType": "uint256",
          "name": "amount",
          "type": "uint256"
        }
      ],
      "name": "transferFrom",
      "outputs": [
        {
          "internalType": "bool",
          "name": "",
          "type": "bool"
        }
      ],
      "stateMutability": "nonpayable",
      "type": "function"
    },
    {
      "inputs": [
        {
          "internalType": "bytes32",
          "name": "id",
          "type": "bytes32"
        },
        {
          "internalType": "bytes32[]",
          "name": "data",
          "type": "bytes32[]"
        }
      ],
      "name": "updateAgreementData",
      "outputs": [],
      "stateMutability": "nonpayable",
      "type": "function"
    },
    {
      "inputs": [
        {
          "internalType": "address",
          "name": "account",
          "type": "address"
        },
        {
          "internalType": "uint256",
          "name": "slotId",
          "type": "uint256"
        },
        {
          "internalType": "bytes32[]",
          "name": "slotData",
          "type": "bytes32[]"
        }
      ],
      "name": "updateAgreementStateSlot",
      "outputs": [],
      "stateMutability": "nonpayable",
      "type": "function"
    },
    {
      "inputs": [
        {
          "internalType": "address",
          "name": "newAddress",
          "type": "address"
        }
      ],
      "name": "updateCode",
      "outputs": [],
      "stateMutability": "nonpayable",
      "type": "function"
    },
    {
      "inputs": [
        {
          "internalType": "uint256",
          "name": "amount",
          "type": "uint256"
        }
      ],
      "name": "upgrade",
      "outputs": [],
      "stateMutability": "nonpayable",
      "type": "function"
    },
    {
      "inputs": [
        {
          "internalType": "address",
          "name": "to",
          "type": "address"
        },
        {
          "internalType": "uint256",
          "name": "amount",
          "type": "uint256"
        },
        {
          "internalType": "bytes",
          "name": "userData",
          "type": "bytes"
        }
      ],
      "name": "upgradeTo",
      "outputs": [],
      "stateMutability": "nonpayable",
      "type": "function"
    },
    {
      "stateMutability": "payable",
      "type": "receive"
    }
  ],
  "bytecode": {
    "object": "0x60e06040523480156200001157600080fd5b506040516200612f3803806200612f8339810160408190526200003491620000d9565b6001600160a01b0380841660805280831660a081905290821660c052604051849184918491907fcf554eb342edf010a94e07701ae91e99e90b769f649f03aeb1153654ddd43c0190600090a26040516001600160a01b038216907f8837af285f4d380af9227df9ebafa13d992b487fa6d7a4366bd4154576085b8990600090a25050505050506200012d565b6001600160a01b0381168114620000d657600080fd5b50565b600080600060608486031215620000ef57600080fd5b8351620000fc81620000c0565b60208501519093506200010f81620000c0565b60408501519092506200012281620000c0565b809150509250925092565b60805160a05160c051615f5b620001d4600039600061079701526000610c950152600081816105620152818161110201528181611173015281816114ed01528181611608015281816116d70152818161193d01528181611aaf015281816121f7015281816127550152818161281f015281816128b70152818161291f015281816129a9015281816131c40152818161326b0152818161443c015261467b0152615f5b6000f3fe6080604052600436106103245760003560e01c806306e485381461033057806306fdde031461035b578063077f224a1461037d578063090c415e1461039f578063095ea7b3146103bf578063099e14ce146103ef57806311bcc81e146104b457806312a6a3f8146104d457806316d055d6146104f457806318160ddd146105145780631863e8091461053357806320bc44251461055357806321fb177a1461058f57806323b872dd146105bc578063245887fc146105dc57806327048397146105fc5780632ec8eec71461061c578063313ce5671461065c578063386fa22114610678578063395093511461069857806341b706be146106b857806342fe0980146106d857806345977d03146106f857806346951954146107185780634b2763b3146107385780634b61cc33146107585780634c5c0c851461078557806350d75d25146107b957806352d1902d146107ce578063556f0dc7146107e357806357cf7acb146107f75780635b9d09cc1461080c57806362aa52871461082c57806362ad1b831461084c57806366a12fb61461086c5780636c2d9f2f1461088c57806370a08231146108ac578063766c4f37146108cc57806379359f6f146108df57806383ba2525146108ff5780638934c79a1461091f5780638da5cb5b1461093f578063959b8c3f1461096557806395d89b41146109855780639903ad381461099a5780639bd9bbc6146109af5780639d876741146109cf578063a0712d68146109ef578063a1b2bf8b14610a0f578063a3a7e7f314610a2f578063a457c2d714610a4f578063a9059cbb14610a6f578063b5c0b7eb14610a8f578063b84cdd4a14610aa4578063bb0d196e14610ac4578063c68d428314610ae4578063c780fd8214610b04578063ca0c1e7f14610b24578063ca78946414610b44578063cf97256d14610b64578063d95b637114610b84578063d9d078d614610ba4578063dd62ed3e14610bc4578063e4a472c814610c0a578063eb3537cc14610c2a578063ee719bc814610c65578063ef43d2c614610c83578063f349f56a14610cb7578063fad8b32a14610cd4578063fc673c4f14610cf4578063fe9d930314610d1457600080fd5b3661032b57005b600080fd5b34801561033c57600080fd5b50610345610d34565b6040516103529190614b7c565b60405180910390f35b34801561036757600080fd5b50610370610d45565b6040516103529190614c19565b34801561038957600080fd5b5061039d610398366004614c89565b610dd7565b005b3480156103ab57600080fd5b5061039d6103ba366004614d50565b610f24565b3480156103cb57600080fd5b506103df6103da366004614dab565b610fd7565b6040519015158152602001610352565b3480156103fb57600080fd5b506104a761040a366004614dd7565b6040805160a081018252600080825260208201819052918101829052606081018290526080810191909152506001600160a01b0390811660009081526020808052604091829020825160a0810184528154948516815260ff600160a01b8604169281019290925263ffffffff600160a81b8504811693830193909352600160c81b9093049091166060820152600190910154600b0b608082015290565b6040516103529190614e3e565b3480156104c057600080fd5b5061039d6104cf366004614e4c565b610fee565b3480156104e057600080fd5b5061039d6104ef366004614e65565b61101d565b34801561050057600080fd5b5061039d61050f366004614eb0565b611100565b34801561052057600080fd5b506002545b604051908152602001610352565b34801561053f57600080fd5b5061039d61054e366004614fd2565b61115c565b34801561055f57600080fd5b507f00000000000000000000000000000000000000000000000000000000000000005b6040516103529190615064565b34801561059b57600080fd5b506105af6105aa366004614dd7565b611401565b6040516103529190615078565b3480156105c857600080fd5b506103df6105d73660046150ba565b6114d5565b3480156105e857600080fd5b5061039d6105f7366004614dab565b6114eb565b34801561060857600080fd5b5061039d6106173660046150fb565b611564565b34801561062857600080fd5b5061063c610637366004614dd7565b611600565b604080519485526020850193909352918301526060820152608001610352565b34801561066857600080fd5b5060405160128152602001610352565b34801561068457600080fd5b50610345610693366004614dd7565b6116a3565b3480156106a457600080fd5b506103df6106b3366004614dab565b611746565b3480156106c457600080fd5b5061039d6106d3366004614eb0565b611782565b3480156106e457600080fd5b5061039d6106f336600461511d565b6117ae565b34801561070457600080fd5b5061039d610713366004614e4c565b6118d5565b34801561072457600080fd5b5061039d610733366004614dd7565b611901565b34801561074457600080fd5b5061039d6107533660046150ba565b61193b565b34801561076457600080fd5b506107786107733660046151b7565b6119c2565b60405161035291906151fd565b34801561079157600080fd5b506105827f000000000000000000000000000000000000000000000000000000000000000081565b3480156107c557600080fd5b50610582611a07565b3480156107da57600080fd5b50610525611a11565b3480156107ef57600080fd5b506001610525565b34801561080357600080fd5b5061039d611a35565b34801561081857600080fd5b5061039d610827366004615235565b611a56565b34801561083857600080fd5b5061039d6108473660046150ba565b611aad565b34801561085857600080fd5b5061039d610867366004615284565b611b01565b34801561087857600080fd5b5061039d6108873660046150ba565b611baf565b34801561089857600080fd5b506107786108a7366004615322565b611bcf565b3480156108b857600080fd5b506105256108c7366004614dd7565b611c11565b61039d6108da366004614dd7565b611c3a565b3480156108eb57600080fd5b506103df6108fa366004614dd7565b6121ef565b34801561090b57600080fd5b5061039d61091a366004614dab565b612277565b34801561092b57600080fd5b5061052561093a366004615357565b6122a3565b34801561094b57600080fd5b50601f54610582906201000090046001600160a01b031681565b34801561097157600080fd5b5061039d610980366004614dd7565b612344565b34801561099157600080fd5b50610370612395565b3480156109a657600080fd5b5061039d6123a4565b3480156109bb57600080fd5b5061039d6109ca366004615235565b6124b4565b3480156109db57600080fd5b5061039d6109ea36600461537d565b612508565b3480156109fb57600080fd5b5061039d610a0a366004614e4c565b61254e565b348015610a1b57600080fd5b5061039d610a2a366004614e65565b6125e1565b348015610a3b57600080fd5b5061039d610a4a366004614dd7565b61268b565b348015610a5b57600080fd5b506103df610a6a366004614dab565b61269f565b348015610a7b57600080fd5b506103df610a8a366004614dab565b6126ee565b348015610a9b57600080fd5b50610525600581565b348015610ab057600080fd5b506103df610abf366004614dab565b6126fc565b348015610ad057600080fd5b506103df610adf366004614dd7565b61274d565b348015610af057600080fd5b5061039d610aff36600461537d565b6127d5565b348015610b1057600080fd5b5061039d610b1f3660046150ba565b61281d565b348015610b3057600080fd5b5061039d610b3f3660046153d5565b6128b5565b348015610b5057600080fd5b5061039d610b5f366004614dab565b61291d565b348015610b7057600080fd5b5061039d610b7f366004614dab565b612992565b348015610b9057600080fd5b506103df610b9f366004615440565b612a80565b348015610bb057600080fd5b506103df610bbf366004614dab565b612a8e565b348015610bd057600080fd5b50610525610bdf366004615440565b6001600160a01b03918216600090815260106020908152604080832093909416825291909152205490565b348015610c1657600080fd5b506103df610c25366004614dd7565b612aa8565b348015610c3657600080fd5b50610c4a610c45366004614dab565b612ac7565b60408051938452602084019290925290820152606001610352565b348015610c7157600080fd5b50600d546001600160a01b0316610582565b348015610c8f57600080fd5b506105827f000000000000000000000000000000000000000000000000000000000000000081565b348015610cc357600080fd5b5061052568270801d946c940000081565b348015610ce057600080fd5b5061039d610cef366004614dd7565b612bf6565b348015610d0057600080fd5b5061039d610d0f366004615479565b612c47565b348015610d2057600080fd5b5061039d610d2f3660046154c0565b612cf1565b6060610d406011612d42565b905090565b6060600e8054610d54906154fe565b80601f0160208091040260200160405190810160405280929190818152602001828054610d80906154fe565b8015610dcd5780601f10610da257610100808354040283529160200191610dcd565b820191906000526020600020905b815481529060010190602001808311610db057829003601f168201915b5050505050905090565b601f805462010000600160b01b031916620100006001600160a01b038416021790556040805163132075a760e31b815290513091639903ad3891600480830192600092919082900301818387803b158015610e3157600080fd5b505af1158015610e45573d6000803e3d6000fd5b50506040516285fc1360e71b81523092506342fe09809150610e769060009081908a908a908a908a9060040161555b565b600060405180830381600087803b158015610e9057600080fd5b505af1158015610ea4573d6000803e3d6000fd5b50506040805160008152602081019182905263c68d428360e01b90915230925063c68d42839150610eeb9083906b92efd1b8d0cf37be5aa1cae560291b90602481016155a9565b600060405180830381600087803b158015610f0557600080fd5b505af1158015610f19573d6000803e3d6000fd5b505050505050505050565b6000338585604051602001610f3b939291906155d0565b604051602081830303815290604052805190602001209050610f9081848480806020026020016040519081016040528093929190818152602001838360200280828437600092019190915250612da892505050565b6040518481526001600160a01b0386169033907f30f416fa68fca014a0f334464c64b000ba53e99b6d2afdea9d5ca756372d59859060200160405180910390a35050505050565b6000610fe4338484612de9565b5060015b92915050565b61101a333333846040518060200160405280600081525060405180602001604052806000815250612e99565b50565b60405133906000906110359083908790602001615619565b60408051601f19818403018152919052805160209091012090506110598184613063565b156110775760405163782a90fb60e11b815260040160405180910390fd5b6110b481858580806020026020016040519081016040528093929190818152602001838360200280828437600092019190915250612da892505050565b816001600160a01b03167f770ea40a13a4644573ed785e5c7116890709947918747febc5add46feb531e2d8686866040516110f193929190615656565b60405180910390a25050505050565b7f00000000000000000000000000000000000000000000000000000000000000006001600160a01b031633146111495760405163c51efddd60e01b815260040160405180910390fd5b6111558484848461309f565b5050505050565b604051632329212160e21b81526001600160a01b037f00000000000000000000000000000000000000000000000000000000000000001690638ca48484906111a8903390600401615064565b602060405180830381865afa1580156111c5573d6000803e3d6000fd5b505050506040513d601f19601f820116820180604052508101906111e99190615697565b6112065760405163327fd99160e21b815260040160405180910390fd5b60006112106131bf565b90506001600160a01b0381166112235750845b6000856112305786611232565b815b9050600083136112cf57611245836156ca565b61124e856132fe565b1461125b5761125b6156e6565b611264846132fe565b6001600160a01b0382166000908152600160205260408120805490919061128c9084906156fc565b90915550506001600160a01b038516600090815260016020526040812080548592906112b99084906156fc565b909155506112ca905085828661336c565b611399565b85156112dd576112dd6156e6565b826112e7856132fe565b6112f191906156fc565b6001600160a01b03831660009081526001602052604081208054909190611319908490615724565b909155506113289050846132fe565b6001600160a01b038816600090815260016020526040812080549091906113509084906156fc565b90915550506001600160a01b0385166000908152600160205260408120805485929061137d9084906156fc565b9091555061138e905082888661336c565b61139982868561336c565b846001600160a01b0316876001600160a01b0316336001600160a01b03167fb8381a3ce157650e06186e3e8f4dd4dc29236f2688b6eed1893d0a60d7c6386f8c8589898f6040516113ee959493929190615744565b60405180910390a4505050505050505050565b606060005b61140f83612aa8565b156114cf576001600160a01b0380841660009081526020808052604091829020825160a0810184528154948516815260ff600160a01b8604169281019290925263ffffffff600160a81b8504811693830193909352600160c81b9093049091166060820152600190910154600b0b6080820152828261148d81615777565b93508151811061149f5761149f615790565b6020908102919091018101919091526001600160a01b039384166000908152908052604090205490921691611406565b50919050565b60006114e33385858561309f565b949350505050565b7f00000000000000000000000000000000000000000000000000000000000000006001600160a01b031633146115345760405163c51efddd60e01b815260040160405180910390fd5b611560338384846040518060200160405280600081525060405180602001604052806000815250612e99565b5050565b604051339060009061157c9083908690602001615619565b60405160208183030381529060405280519060200120905061159e8184613063565b6115bb5760405163dae1880960e01b815260040160405180910390fd5b6115c5818461339f565b60405184815233907f71a63dc095de07aa5512ad57a7596a39516317e316981a1cd71000057be1537b9060200160405180910390a250505050565b6000806000807f00000000000000000000000000000000000000000000000000000000000000006001600160a01b031663bbe4fd506040518163ffffffff1660e01b8152600401602060405180830381865afa158015611664573d6000803e3d6000fd5b505050506040513d601f19601f8201168201806040525081019061168891906157a6565b90506116948582612ac7565b91979096509094509092509050565b6001600160a01b038181166000908152602081905260409081902054905163c56a069d60e01b8152901960048201526060917f0000000000000000000000000000000000000000000000000000000000000000169063c56a069d90602401600060405180830381865afa15801561171e573d6000803e3d6000fd5b505050506040513d6000823e601f3d908101601f19168201604052610fe891908101906157bf565b3360008181526010602090815260408083206001600160a01b03871684529091528120549091610fe491859061177d908690615870565b612de9565b3330146117a257604051630fff4cc960e31b815260040160405180910390fd5b6111558385848461309f565b600e80546117bb906154fe565b15905061180f5760405162461bcd60e51b815260206004820152601f60248201527f5375706572546f6b656e3a20616c726561647920696e697469616c697a65640060448201526064015b60405180910390fd5b60008390036118595760405162461bcd60e51b81526020600482015260166024820152755375706572546f6b656e3a20656d707479206e616d6560501b6044820152606401611806565b600d805460ff8716600160a01b026001600160a81b03199091166001600160a01b03891617179055600e61188e8486836158d1565b50600f61189c8284836158d1565b506118a6306133c0565b6040516000808252908190600080516020615eb9833981519152906020015b60405180910390a3505050505050565b61101a3333338460405180602001604052806000815250604051806020016040528060008152506134a8565b601f546201000090046001600160a01b03163314611932576040516338ebc58960e11b815260040160405180910390fd5b61101a81613665565b7f00000000000000000000000000000000000000000000000000000000000000006001600160a01b031633146119845760405163c51efddd60e01b815260040160405180910390fd5b6001600160a01b038084166000908152601060209081526040808320938616835292905220546119bd908490849061177d908590615870565b505050565b606060008585856040516020016119db939291906155d0565b6040516020818303038152906040528051906020012090506119fd8184613837565b9695505050505050565b6000610d406138c6565b7fe438b61c5ae6309c126c34745a1d75e0e5b69a37085ad47b7d9802d1366b0db990565b336000818152602080526040902060010154611a549190600b0b6138d9565b565b611aa73333868686868080601f0160208091040260200160405190810160405280939291908181526020018383808284376000920182905250604080516020810190915290815292506134a8915050565b50505050565b7f00000000000000000000000000000000000000000000000000000000000000006001600160a01b03163314611af65760405163c51efddd60e01b815260040160405180910390fd5b6119bd838383612de9565b33611b0e6011828a613902565b611b2b5760405163f7f0222760e01b815260040160405180910390fd5b611ba58189898989898080601f01602080910402602001604051908101604052809392919081815260200183838082843760009201919091525050604080516020601f8d018190048102820181019092528b815292508b91508a9081908401838280828437600092019190915250600192506139ab915050565b5050505050505050565b333014611af657604051630fff4cc960e31b815260040160405180910390fd5b606060008484604051602001611be6929190615619565b604051602081830303815290604052805190602001209050611c088184613837565b95945050505050565b600080611c1d83611600565b505050905060008112611c305780611c33565b60005b9392505050565b611c4381612aa8565b15611c61576040516319c00a8560e01b815260040160405180910390fd5b601f5460009081906201000090046001600160a01b03163314611c8657336000611c8a565b3060015b91509150611c9782612aa8565b158015611ca2575080155b15611cbf5760405162e67aa960e31b815260040160405180910390fd5b6001600160a01b0382166000908152602080526040812054349190611cf090600160c81b900463ffffffff166122a3565b601f546040519192506201000090046001600160a01b0316906108fc8315029083906000818181858888f19350505050158015611d31573d6000803e3d6000fd5b50611d3c8183615990565b6001600160a01b0385166000908152602080526040902054909250600160a01b900460ff1660041901611d825760405163a2c3d1a560e01b815260040160405180910390fd5b30600090815260208052604090208054600160a81b900463ffffffff16906015611dab836159a3565b82546101009290920a63ffffffff8181021990931691831602179091556001600160a01b038616600090815260208052604090208054600160c81b900490911691506019611df8836159a3565b825463ffffffff9182166101009390930a9283029190920219909116179055506001600160a01b038416600090815260208052604081205460ff600160a01b9091041690611e478260016159c6565b90506000611e7762015180611e6860ff851668270801d946c94000006159f5565b611e7291906159f5565b613a24565b9050600081611e95611e726201518068270801d946c94000006159f5565b611e9f9190615a09565b90506040518060a00160405280896001600160a01b031681526020018460ff168152602001600063ffffffff168152602001600063ffffffff16815260200183600b0b815250602060008b6001600160a01b03166001600160a01b0316815260200190815260200160002060008201518160000160006101000a8154816001600160a01b0302191690836001600160a01b0316021790555060208201518160000160146101000a81548160ff021916908360ff16021790555060408201518160000160156101000a81548163ffffffff021916908363ffffffff16021790555060608201518160000160196101000a81548163ffffffff021916908363ffffffff16021790555060808201518160010160006101000a8154816001600160601b030219169083600b0b6001600160601b0316021790555090505060008890505b611fe881612aa8565b15612179576001600160a01b038116600090815260208052604090208054600160a81b900463ffffffff1681601561201f836159a3565b825463ffffffff9182166101009390930a928302919092021990911617905550805460009060ff600160a01b9091041660011461207557620186a06120668561c350615a36565b6120709190615a56565b612077565b835b6001830180549192508291600090612093908490600b0b615a94565b92506101000a8154816001600160601b030219169083600b0b6001600160601b0316021790555080846120c69190615a09565b60018301549094506120dc908490600b0b6138d9565b6001600160a01b038b8116600090815260208080526040808320543084529281902054815160ff600160a01b830416815263ffffffff600160a81b8304811694820194909452600160c81b909104909216908201528583169291909116907fb03e738d0e6b0d74a2bfbcaa64c76a9dd601ecb77229d0982c9bfe946c8c39a79060600160405180910390a350546001600160a01b03169050611fdf565b6001600160a01b038a1660009081526020805260409020600101546121a49030908c90600b0b613a3a565b5086156121e3576040516001600160a01b038b169088156108fc029089906000818181858888f193505050501580156121e1573d6000803e3d6000fd5b505b50505050505050505050565b6000610fe8827f00000000000000000000000000000000000000000000000000000000000000006001600160a01b031663bbe4fd506040518163ffffffff1660e01b8152600401602060405180830381865afa158015612253573d6000803e3d6000fd5b505050506040513d601f19601f82011682018060405250810190610bbf91906157a6565b611560333384846040518060200160405280600081525060405180602001604052806000815250612e99565b6000600c8263ffffffff16116122c15750662386f26fc10000919050565b60188263ffffffff16116122de575067016345785d8a0000919050565b60248263ffffffff16116122fb57506702c68af0bb140000919050565b60308263ffffffff16116123185750670429d069189e0000919050565b603c8263ffffffff1611612335575067058d15e176280000919050565b50670de0b6b3a7640000919050565b3361235160118284613a59565b806001600160a01b0316826001600160a01b03167ff4caeb2d6ca8932a215a353d0703c326ec2d81fc68170f320eb2ab49e9df61f960405160405180910390a35050565b6060600f8054610d54906154fe565b601f54610100900460ff16158080156123c45750601f54600160ff909116105b806123e557506123d330613b5d565b1580156123e55750601f5460ff166001145b6124485760405162461bcd60e51b815260206004820152602e60248201527f496e697469616c697a61626c653a20636f6e747261637420697320616c72656160448201526d191e481a5b9a5d1a585b1a5e995960921b6064820152608401611806565b601f805460ff19166001179055801561246b57601f805461ff0019166101001790555b801561101a57601f805461ff0019169055604051600181527f7f26b83ff96e1f2b6a682f133852f6798a09c465da95921460cefb3847402498906020015b60405180910390a150565b611aa73333868686868080601f016020809104026020016040519081016040528093929190818152602001838380828437600092018290525060408051602081019091529081529250600191506139ab9050565b33301461252857604051630fff4cc960e31b815260040160405180910390fd5b80516040805160008152602081019091526119bd91339186918691901515908690613b6c565b601f546201000090046001600160a01b0316331461257f576040516338ebc58960e11b815260040160405180910390fd5b6040805160008152602081019182905263c68d428360e01b909152309063c68d4283906125b39083908590602481016155a9565b600060405180830381600087803b1580156125cd57600080fd5b505af1158015611155573d6000803e3d6000fd5b60405133906000906125f99083908790602001615619565b60405160208183030381529060405280519060200120905061264e81858580806020026020016040519081016040528093929190818152602001838360200280828437600092019190915250612da892505050565b336001600160a01b03167f0c4c547b3a4fcaa5be8353b3111472b124155bccc86de811d4a481c9e6e9faca8686866040516110f193929190615656565b61156033338361269a33611c11565b61309f565b6000610fe4338461177d856040518060600160405280602a8152602001615e8f602a91393360009081526010602090815260408083206001600160a01b038d1684529091529020549190613c2d565b6000611c333333858561309f565b60008060008061270c8686612ac7565b92509250925060006127348284116127255760006132fe565b61272f8385615990565b6132fe565b61273e90856156fc565b60001315979650505050505050565b6000610fe8827f00000000000000000000000000000000000000000000000000000000000000006001600160a01b031663bbe4fd506040518163ffffffff1660e01b8152600401602060405180830381865afa1580156127b1573d6000803e3d6000fd5b505050506040513d601f19601f82011682018060405250810190610abf91906157a6565b3330146127f557604051630fff4cc960e31b815260040160405180910390fd5b80516040805160008152602081019091526119bd913391869186919015159081908790613c59565b7f00000000000000000000000000000000000000000000000000000000000000006001600160a01b031633146128665760405163c51efddd60e01b815260040160405180910390fd5b6119bd838361177d846040518060600160405280602a8152602001615e8f602a91396001600160a01b03808a166000908152601060209081526040808320938c16835292905220549190613c2d565b7f00000000000000000000000000000000000000000000000000000000000000006001600160a01b031633146128fe5760405163c51efddd60e01b815260040160405180910390fd5b611aa733858585856040518060200160405280600081525060016139ab565b7f00000000000000000000000000000000000000000000000000000000000000006001600160a01b031633146129665760405163c51efddd60e01b815260040160405180910390fd5b6115603383848460405180602001604052806000815250604051806020016040528060008152506134a8565b604051632329212160e21b81526001600160a01b037f00000000000000000000000000000000000000000000000000000000000000001690638ca48484906129de903390600401615064565b602060405180830381865afa1580156129fb573d6000803e3d6000fd5b505050506040513d601f19601f82011682018060405250810190612a1f9190615697565b612a3c5760405163327fd99160e21b815260040160405180910390fd5b6001600160a01b038216600090815260016020526040902054612a609082906156fc565b6001600160a01b0390921660009081526001602052604090209190915550565b6000611c3360118484613902565b600080612a9b8484612ac7565b5050600013949350505050565b6001600160a01b03908116600090815260208052604090205416151590565b6001600160a01b038216600090815260016020526040812054908080612aec866116a3565b905060005b8151811015612bed576000806000848481518110612b1157612b11615790565b60200260200101516001600160a01b0316639b2e48bc308c8c6040518463ffffffff1660e01b8152600401612b4893929190615ac1565b606060405180830381865afa158015612b65573d6000803e3d6000fd5b505050506040513d601f19601f82011682018060405250810190612b899190615ae5565b91945092509050612b9a8288615870565b9650612ba68187615870565b9550612bc3818311612bb95760006132fe565b61272f8284615990565b612bcd848a6156fc565b612bd79190615724565b975050505080612be690615777565b9050612af1565b50509250925092565b33612c0360118284613d27565b806001600160a01b0316826001600160a01b03167f50546e66e5f44d728365dc3908c63bc5cfeeab470722c1677e3073a6ac294aa160405160405180910390a35050565b33612c5460118289613902565b612c715760405163f7f0222760e01b815260040160405180910390fd5b612ce88188898989898080601f01602080910402602001604051908101604052809392919081815260200183838082843760009201919091525050604080516020601f8d018190048102820181019092528b815292508b91508a9081908401838280828437600092019190915250612e9992505050565b50505050505050565b6119bd3333338686868080601f016020809104026020016040519081016040528093929190818152602001838380828437600092018290525060408051602081019091529081529250612e99915050565b606081600001805480602002602001604051908101604052809291908181526020018280548015612d9c57602002820191906000526020600020905b81546001600160a01b03168152600190910190602001808311612d7e575b50505050509050919050565b60005b81518110156119bd576000828281518110612dc857612dc8615790565b6020026020010151905080828501555080612de290615777565b9050612dab565b6001600160a01b038316612e1057604051638163862760e01b815260040160405180910390fd5b6001600160a01b038216612e37576040516337c1c09d60e21b815260040160405180910390fd5b6001600160a01b0383811660008181526010602090815260408083209487168084529482529182902085905590518481527f8c5be1e5ebec7d5bd14f71427d1e84f3dd0314c0f7b2291e5b200ac8c7c3b92591015b60405180910390a3505050565b600d546001600160a01b0316612ec257604051637bce7b2b60e11b815260040160405180910390fd5b600080612ece85613e1f565b91509150612ee58888838751600014158888613b6c565b600d546040516370a0823160e01b81526000916001600160a01b0316906370a0823190612f16903090600401615064565b602060405180830381865afa158015612f33573d6000803e3d6000fd5b505050506040513d601f19601f82011682018060405250810190612f5791906157a6565b600d54909150612f71906001600160a01b03168885613edb565b600d546040516370a0823160e01b81526000916001600160a01b0316906370a0823190612fa2903090600401615064565b602060405180830381865afa158015612fbf573d6000803e3d6000fd5b505050506040513d601f19601f82011682018060405250810190612fe391906157a6565b90506000612ff18284615990565b905080851461301357604051631c7c26d360e31b815260040160405180910390fd5b896001600160a01b03167f3bc27981aebbb57f9247dc00fde9d6cd91e4b230083fec3238fedbcba1f9ab3d8560405161304e91815260200190565b60405180910390a25050505050505050505050565b6000805b828110156130955783810154801561308457600192505050610fe8565b5061308e81615777565b9050613067565b5060009392505050565b60006001600160a01b0384166130c85760405163eecd6c9b60e01b815260040160405180910390fd5b6001600160a01b0383166130ef5760405163e219bd3960e01b815260040160405180910390fd5b6000339050613120818686866040518060200160405280600081525060405180602001604052806000815250613f31565b846001600160a01b0316866001600160a01b0316146131b3576131b3858761177d866040518060600160405280602d8152602001615ed9602d9139601060008c6001600160a01b03166001600160a01b0316815260200190815260200160002060008d6001600160a01b03166001600160a01b0316815260200190815260200160002054613c2d9092919063ffffffff16565b50600195945050505050565b6000807f00000000000000000000000000000000000000000000000000000000000000006001600160a01b031663289b3c0d6040518163ffffffff1660e01b8152600401602060405180830381865afa158015613220573d6000803e3d6000fd5b505050506040513d601f19601f820116820180604052508101906132449190615b13565b604051638369a0f160e01b81529091506001600160a01b03821690638369a0f1906132b7907f00000000000000000000000000000000000000000000000000000000000000009030907f9f60ae461adf056670e03ae602566409933242392cb06744f5747c9f38b05d0990600401615ac1565b602060405180830381865afa1580156132d4573d6000803e3d6000fd5b505050506040513d601f19601f820116820180604052508101906132f89190615b13565b91505090565b60006001600160ff1b038211156133685760405162461bcd60e51b815260206004820152602860248201527f53616665436173743a2076616c756520646f65736e27742066697420696e2061604482015267371034b73a191a9b60c11b6064820152608401611806565b5090565b816001600160a01b0316836001600160a01b0316600080516020615eb983398151915283604051612e8c91815260200190565b60005b818110156119bd576000838201556133b981615777565b90506133a2565b6040516329965a1d60e01b8152731820a4b7618bde71dce8cdc73aab6c95905fad24906329965a1d9061341b9084907fac7fbab5f54a3ca8194167523c6753bfeb96a445279294b6125b68cce2177054903090600401615b30565b600060405180830381600087803b15801561343557600080fd5b505af1158015613449573d6000803e3d6000fd5b50506040516329965a1d60e01b8152731820a4b7618bde71dce8cdc73aab6c95905fad2492506329965a1d91506125b39084907faea199e31a596269b42cdafd93407f14436db6e4cad65417994c2eb37381e05a903090600401615b30565b600d546001600160a01b03166134d157604051637bce7b2b60e11b815260040160405180910390fd5b6000806134dd85613e1f565b600d546040516370a0823160e01b81529294509092506000916001600160a01b03909116906370a0823190613516903090600401615064565b602060405180830381865afa158015613533573d6000803e3d6000fd5b505050506040513d601f19601f8201168201806040525081019061355791906157a6565b600d54909150613572906001600160a01b0316893086613fd0565b600d546040516370a0823160e01b81526000916001600160a01b0316906370a08231906135a3903090600401615064565b602060405180830381865afa1580156135c0573d6000803e3d6000fd5b505050506040513d601f19601f820116820180604052508101906135e491906157a6565b905060006135f28383615990565b905080851461361457604051631c7c26d360e31b815260040160405180910390fd5b865161362a908c908b9087901515808c8c613c59565b886001600160a01b03167f25ca84076773b0455db53621c459ddc84fe40840e4932a62706a032566f399df8560405161304e91815260200190565b600061366f6138c6565b6001600160a01b0316036136c55760405162461bcd60e51b815260206004820152601d60248201527f5555505350726f786961626c653a206e6f742075706772616461626c650000006044820152606401611806565b806001600160a01b03166352d1902d6040518163ffffffff1660e01b8152600401602060405180830381865afa158015613703573d6000803e3d6000fd5b505050506040513d601f19601f8201168201806040525081019061372791906157a6565b61372f611a11565b146137885760405162461bcd60e51b815260206004820152602360248201527f5555505350726f786961626c653a206e6f7420636f6d70617469626c65206c6f60448201526267696360e81b6064820152608401611806565b6001600160a01b03811630036137dc5760405162461bcd60e51b815260206004820152601960248201527805555505350726f786961626c653a2070726f7879206c6f6f7603c1b6044820152606401611806565b6137f281600080516020615e4f83398151915255565b7fe011bc04c286c344a8fcbb8de77f953da762c3e25d8cdea984147fc4168a5dcc61381b611a11565b604080519182526001600160a01b0384166020830152016124a9565b6060816001600160401b0381111561385157613851614f01565b60405190808252806020026020018201604052801561387a578160200160208202803683370190505b50905060005b828110156138bf576000818501549050808383815181106138a3576138a3615790565b6020908102919091010152506138b881615777565b9050613880565b5092915050565b600080516020615e4f8339815191525490565b6138e4308084613ff1565b600b0b156138f7576119bd308383614089565b6119bd308383613a3a565b6000816001600160a01b0316836001600160a01b0316148061397157506001600160a01b038316600090815260018501602052604090205460ff16801561397157506001600160a01b03808316600090815260038601602090815260408083209387168352929052205460ff16155b806114e357506001600160a01b03808316600090815260028601602090815260408083209387168352929052205460ff1690509392505050565b6001600160a01b0386166139d25760405163eecd6c9b60e01b815260040160405180910390fd5b6001600160a01b0385166139f95760405163e219bd3960e01b815260040160405180910390fd5b613a078787878787876140a8565b613a15878787878787613f31565b612ce8878787878787876141ba565b600060016001605f1b0382111561336857600080fd5b604080516000808252602082019092526114e390859085908590614309565b806001600160a01b0316826001600160a01b031603613ad05760405162461bcd60e51b815260206004820152602d60248201527f4552433737374f70657261746f72733a20617574686f72697a696e672073656c60448201526c331030b99037b832b930ba37b960991b6064820152608401611806565b6001600160a01b038116600090815260018401602052604090205460ff1615613b26576001600160a01b03918216600090815260039390930160209081526040808520929093168452529020805460ff19169055565b6001600160a01b0380831660009081526002850160209081526040808320938516835292905220805460ff19166001179055505050565b6001600160a01b03163b151590565b6001600160a01b038516613b9357604051632e8aac6160e21b815260040160405180910390fd5b8215613ba857613ba8868660008786866140a8565b613bb28585614434565b846001600160a01b0316866001600160a01b03167fa78a9be3a7b862d26933ad85fb11d80ef66b8f972d7cbba06621d583943a4098868585604051613bf993929190615b53565b60405180910390a36040518481526000906001600160a01b03871690600080516020615eb9833981519152906020016118c5565b60008184841115613c515760405162461bcd60e51b81526004016118069190614c19565b505050900390565b6001600160a01b038616613c8057604051630d24315760e01b815260040160405180910390fd5b613c8a8686614544565b8315613ca057613ca087600088888686896141ba565b856001600160a01b0316876001600160a01b03167f2fe5be0146f74c5bce36c0b80911af6c7d86ff27e89d5cfa61fc681327954e5d878585604051613ce793929190615b53565b60405180910390a36040518581526001600160a01b03871690600090600080516020615eb98339815191529060200160405180910390a350505050505050565b336001600160a01b03821603613d925760405162461bcd60e51b815260206004820152602a60248201527f4552433737374f70657261746f72733a207265766f6b696e672073656c662061604482015269399037b832b930ba37b960b11b6064820152608401611806565b6001600160a01b038116600090815260018401602052604090205460ff1615613dec576001600160a01b0380831660009081526003850160209081526040808320938516835292905220805460ff19166001179055505050565b6001600160a01b03918216600090815260029390930160209081526040808520929093168452529020805460ff19169055565b600d54600090819081906012600160a01b90910460ff161015613e7e57600d54613e5490600160a01b900460ff166012615b7e565b613e5f90600a615c7b565b9050613e6b81856159f5565b9250613e778184615c8a565b9150613ed5565b600d546012600160a01b90910460ff161115613ece57600d54613ead90601290600160a01b900460ff16615b7e565b613eb890600a615c7b565b9050613ec48185615c8a565b9250839150613ed5565b8391508192505b50915091565b6119bd8363a9059cbb60e01b8484604051602401613efa929190615ca1565b60408051601f198184030181529190526020810180516001600160e01b03166001600160e01b03199093169290921790915261459e565b613f448585613f3f866132fe565b614673565b836001600160a01b0316856001600160a01b0316876001600160a01b03167f06b541ddaa720db2b10a4d0cdac39b8d360425fc073085fac19bc82614677987868686604051613f9593929190615b53565b60405180910390a4836001600160a01b0316856001600160a01b0316600080516020615eb9833981519152856040516118c591815260200190565b611aa7846323b872dd60e01b858585604051602401613efa93929190615ac1565b600080613ffd85614772565b604051631cd43d1160e31b81526001600160a01b03888116600483015287811660248301528681166044830152919350908316915063e6a1e88890606401608060405180830381865afa158015614058573d6000803e3d6000fd5b505050506040513d601f19601f8201168201806040525081019061407c9190615cba565b5090979650505050505050565b604080516000808252602082019092526114e3908590859085906148bd565b60405163555ddc6560e11b8152600090731820a4b7618bde71dce8cdc73aab6c95905fad249063aabbb8ca906141049089907f29ddb589b1fb5fc7cf394961c1adf5f8c6454761adf795e67fe149f658abe89590600401615ca1565b602060405180830381865afa158015614121573d6000803e3d6000fd5b505050506040513d601f19601f820116820180604052508101906141459190615b13565b90506001600160a01b03811615612ce857604051633ad5cbc160e11b81526001600160a01b038216906375ab97829061418c908a908a908a908a908a908a90600401615cfe565b600060405180830381600087803b1580156141a657600080fd5b505af11580156121e1573d6000803e3d6000fd5b60405163555ddc6560e11b8152600090731820a4b7618bde71dce8cdc73aab6c95905fad249063aabbb8ca906142169089907fb281fc8c12954d22544db45de3159a39272895b169a852b314f9cc762e44c53b90600401615ca1565b602060405180830381865afa158015614233573d6000803e3d6000fd5b505050506040513d601f19601f820116820180604052508101906142579190615b13565b90506001600160a01b038116156142d3576040516223de2960e01b81526001600160a01b038216906223de299061429c908b908b908b908b908b908b90600401615cfe565b600060405180830381600087803b1580156142b657600080fd5b505af11580156142ca573d6000803e3d6000fd5b50505050611ba5565b8115611ba5576142eb866001600160a01b0316613b5d565b15611ba55760405163fe737d0560e01b815260040160405180910390fd5b60008060006143178761490a565b91509150816001600160a01b03166339255d5b82836001600160a01b03166362fc305e8b8b8b60006001600160401b0381111561435657614356614f01565b6040519080825280601f01601f191660200182016040528015614380576020820181803683370190505b506040516024016143949493929190615d4b565b60408051808303601f1901815291815260208201805160e094851b6001600160e01b03909116179052519185901b6001600160e01b03191682526143df939250908990600401615d81565b6000604051808303816000875af11580156143fe573d6000803e3d6000fd5b505050506040513d6000823e601f3d908101601f191682016040526144269190810190615da5565b506001979650505050505050565b60006144bc837f00000000000000000000000000000000000000000000000000000000000000006001600160a01b031663bbe4fd506040518163ffffffff1660e01b8152600401602060405180830381865afa158015614498573d6000803e3d6000fd5b505050506040513d601f19601f82011682018060405250810190610c4591906157a6565b505090506144c9826132fe565b8112156144e95760405163043b37d160e21b815260040160405180910390fd5b6144f2826132fe565b6001600160a01b0384166000908152600160205260409020546145159190615724565b6001600160a01b03841660009081526001602052604090205560025461453c908390615990565b600255505050565b61454d816132fe565b6001600160a01b03831660009081526001602052604090205461457091906156fc565b6001600160a01b038316600090815260016020526040902055600254614597908290615870565b6002555050565b60006145f3826040518060400160405280602081526020017f5361666545524332303a206c6f772d6c6576656c2063616c6c206661696c6564815250856001600160a01b0316614a5b9092919063ffffffff16565b90508051600014806146145750808060200190518101906146149190615697565b6119bd5760405162461bcd60e51b815260206004820152602a60248201527f5361666545524332303a204552433230206f7065726174696f6e20646964206e6044820152691bdd081cdd58d8d9595960b21b6064820152608401611806565b60006146d7847f00000000000000000000000000000000000000000000000000000000000000006001600160a01b031663bbe4fd506040518163ffffffff1660e01b8152600401602060405180830381865afa158015614498573d6000803e3d6000fd5b50509050818112156146fc57604051632f4cb94160e01b815260040160405180910390fd5b6001600160a01b038416600090815260016020526040902054614720908390615724565b6001600160a01b0380861660009081526001602052604080822093909355908516815220546147509083906156fc565b6001600160a01b03909316600090815260016020526040902092909255505050565b600080516020615f0683398151915254600080516020615e6f833981519152546001600160a01b03811661488c576001600160a01b03821661481357826001600160a01b03166320bc44256040518163ffffffff1660e01b8152600401602060405180830381865afa1580156147ec573d6000803e3d6000fd5b505050506040513d601f19601f820116820180604052508101906148109190615b13565b91505b604051635b69006f60e11b8152600080516020615e2f83398151915260048201526001600160a01b0383169063b6d200de90602401602060405180830381865afa158015614865573d6000803e3d6000fd5b505050506040513d601f19601f820116820180604052508101906148899190615b13565b90505b6001600160a01b0382166148a2576148a26156e6565b6001600160a01b0381166148b8576148b86156e6565b915091565b60008060006148cb8761490a565b91509150816001600160a01b03166339255d5b82836001600160a01b03166350209a628b8b8b60006001600160401b0381111561435657614356614f01565b600080516020615f0683398151915254600080516020615e6f833981519152546001600160a01b03811661488c576001600160a01b0382166149ab57826001600160a01b03166320bc44256040518163ffffffff1660e01b8152600401602060405180830381865afa158015614984573d6000803e3d6000fd5b505050506040513d601f19601f820116820180604052508101906149a89190615b13565b91505b604051635b69006f60e11b8152600080516020615e2f83398151915260048201526001600160a01b0383169063b6d200de90602401602060405180830381865afa1580156149fd573d6000803e3d6000fd5b505050506040513d601f19601f82011682018060405250810190614a219190615b13565b905081600080516020615f068339815191525580600080516020615e6f833981519152556001600160a01b0382166148a2576148a26156e6565b60606114e3848460008585600080866001600160a01b03168587604051614a829190615e12565b60006040518083038185875af1925050503d8060008114614abf576040519150601f19603f3d011682016040523d82523d6000602084013e614ac4565b606091505b5091509150614ad587838387614ae0565b979650505050505050565b60608315614b4d578251600003614b4657614afa85613b5d565b614b465760405162461bcd60e51b815260206004820152601d60248201527f416464726573733a2063616c6c20746f206e6f6e2d636f6e74726163740000006044820152606401611806565b50816114e3565b6114e38383815115614b625781518083602001fd5b8060405162461bcd60e51b81526004016118069190614c19565b6020808252825182820181905260009190848201906040850190845b81811015614bbd5783516001600160a01b031683529284019291840191600101614b98565b50909695505050505050565b60005b83811015614be4578181015183820152602001614bcc565b50506000910152565b60008151808452614c05816020860160208601614bc9565b601f01601f19169290920160200192915050565b602081526000611c336020830184614bed565b60008083601f840112614c3e57600080fd5b5081356001600160401b03811115614c5557600080fd5b602083019150836020828501011115614c6d57600080fd5b9250929050565b6001600160a01b038116811461101a57600080fd5b600080600080600060608688031215614ca157600080fd5b85356001600160401b0380821115614cb857600080fd5b614cc489838a01614c2c565b90975095506020880135915080821115614cdd57600080fd5b50614cea88828901614c2c565b9094509250506040860135614cfe81614c74565b809150509295509295909350565b60008083601f840112614d1e57600080fd5b5081356001600160401b03811115614d3557600080fd5b6020830191508360208260051b8501011115614c6d57600080fd5b60008060008060608587031215614d6657600080fd5b8435614d7181614c74565b93506020850135925060408501356001600160401b03811115614d9357600080fd5b614d9f87828801614d0c565b95989497509550505050565b60008060408385031215614dbe57600080fd5b8235614dc981614c74565b946020939093013593505050565b600060208284031215614de957600080fd5b8135611c3381614c74565b80516001600160a01b0316825260208082015160ff169083015260408082015163ffffffff9081169184019190915260608083015190911690830152608090810151600b0b910152565b60a08101610fe88284614df4565b600060208284031215614e5e57600080fd5b5035919050565b600080600060408486031215614e7a57600080fd5b8335925060208401356001600160401b03811115614e9757600080fd5b614ea386828701614d0c565b9497909650939450505050565b60008060008060808587031215614ec657600080fd5b8435614ed181614c74565b93506020850135614ee181614c74565b92506040850135614ef181614c74565b9396929550929360600135925050565b634e487b7160e01b600052604160045260246000fd5b604051601f8201601f191681016001600160401b0381118282101715614f3f57614f3f614f01565b604052919050565b60006001600160401b03821115614f6057614f60614f01565b50601f01601f191660200190565b600082601f830112614f7f57600080fd5b8135614f92614f8d82614f47565b614f17565b818152846020838601011115614fa757600080fd5b816020850160208301376000918101602001919091529392505050565b801515811461101a57600080fd5b600080600080600080600060e0888a031215614fed57600080fd5b8735965060208801356001600160401b0381111561500a57600080fd5b6150168a828b01614f6e565b965050604088013561502781614c74565b9450606088013561503781614fc4565b9350608088013561504781614c74565b9699959850939692959460a0840135945060c09093013592915050565b6001600160a01b0391909116815260200190565b6020808252825182820181905260009190848201906040850190845b81811015614bbd576150a7838551614df4565b9284019260a09290920191600101615094565b6000806000606084860312156150cf57600080fd5b83356150da81614c74565b925060208401356150ea81614c74565b929592945050506040919091013590565b6000806040838503121561510e57600080fd5b50508035926020909101359150565b6000806000806000806080878903121561513657600080fd5b863561514181614c74565b9550602087013560ff8116811461515757600080fd5b945060408701356001600160401b038082111561517357600080fd5b61517f8a838b01614c2c565b9096509450606089013591508082111561519857600080fd5b506151a589828a01614c2c565b979a9699509497509295939492505050565b600080600080608085870312156151cd57600080fd5b84356151d881614c74565b935060208501356151e881614c74565b93969395505050506040820135916060013590565b6020808252825182820181905260009190848201906040850190845b81811015614bbd57835183529284019291840191600101615219565b6000806000806060858703121561524b57600080fd5b843561525681614c74565b93506020850135925060408501356001600160401b0381111561527857600080fd5b614d9f87828801614c2c565b600080600080600080600060a0888a03121561529f57600080fd5b87356152aa81614c74565b965060208801356152ba81614c74565b95506040880135945060608801356001600160401b03808211156152dd57600080fd5b6152e98b838c01614c2c565b909650945060808a013591508082111561530257600080fd5b5061530f8a828b01614c2c565b989b979a50959850939692959293505050565b60008060006060848603121561533757600080fd5b833561534281614c74565b95602085013595506040909401359392505050565b60006020828403121561536957600080fd5b813563ffffffff81168114611c3357600080fd5b60008060006060848603121561539257600080fd5b833561539d81614c74565b92506020840135915060408401356001600160401b038111156153bf57600080fd5b6153cb86828701614f6e565b9150509250925092565b600080600080608085870312156153eb57600080fd5b84356153f681614c74565b9350602085013561540681614c74565b92506040850135915060608501356001600160401b0381111561542857600080fd5b61543487828801614f6e565b91505092959194509250565b6000806040838503121561545357600080fd5b823561545e81614c74565b9150602083013561546e81614c74565b809150509250929050565b6000806000806000806080878903121561549257600080fd5b863561549d81614c74565b95506020870135945060408701356001600160401b038082111561517357600080fd5b6000806000604084860312156154d557600080fd5b8335925060208401356001600160401b038111156154f257600080fd5b614ea386828701614c2c565b600181811c9082168061551257607f821691505b6020821081036114cf57634e487b7160e01b600052602260045260246000fd5b81835281816020850137506000828201602090810191909152601f909101601f19169091010190565b6001600160a01b038716815260ff861660208201526080604082018190526000906155899083018688615532565b828103606084015261559c818587615532565b9998505050505050505050565b60018060a01b0384168152826020820152606060408201526000611c086060830184614bed565b6080808252600e908201526d41677265656d656e74537461746560901b60a08201526001600160a01b039384166020820152919092166040820152606081019190915260c00190565b6060808252600d908201526c41677265656d656e744461746160981b60808201526001600160a01b03929092166020830152604082015260a00190565b838152604060208201819052810182905260006001600160fb1b0383111561567d57600080fd5b8260051b8085606085013791909101606001949350505050565b6000602082840312156156a957600080fd5b8151611c3381614fc4565b634e487b7160e01b600052601160045260246000fd5b6000600160ff1b82016156df576156df6156b4565b5060000390565b634e487b7160e01b600052600160045260246000fd5b808201828112600083128015821682158216171561571c5761571c6156b4565b505092915050565b81810360008312801583831316838312821617156138bf576138bf6156b4565b85815260018060a01b038516602082015283604082015282606082015260a060808201526000614ad560a0830184614bed565b600060018201615789576157896156b4565b5060010190565b634e487b7160e01b600052603260045260246000fd5b6000602082840312156157b857600080fd5b5051919050565b600060208083850312156157d257600080fd5b82516001600160401b03808211156157e957600080fd5b818501915085601f8301126157fd57600080fd5b81518181111561580f5761580f614f01565b8060051b9150615820848301614f17565b818152918301840191848101908884111561583a57600080fd5b938501935b83851015615864578451925061585483614c74565b828252938501939085019061583f565b98975050505050505050565b80820180821115610fe857610fe86156b4565b601f8211156119bd57600081815260208120601f850160051c810160208610156158aa5750805b601f850160051c820191505b818110156158c9578281556001016158b6565b505050505050565b6001600160401b038311156158e8576158e8614f01565b6158fc836158f683546154fe565b83615883565b6000601f84116001811461593057600085156159185750838201355b600019600387901b1c1916600186901b178355611155565b600083815260209020601f19861690835b828110156159615786850135825560209485019460019092019101615941565b508682101561597e5760001960f88860031b161c19848701351681555b505060018560011b0183555050505050565b81810381811115610fe857610fe86156b4565b600063ffffffff8083168181036159bc576159bc6156b4565b6001019392505050565b60ff8181168382160190811115610fe857610fe86156b4565b634e487b7160e01b600052601260045260246000fd5b600082615a0457615a046159df565b500490565b600b82810b9082900b0360016001605f1b0319811260016001605f1b0382131715610fe857610fe86156b4565b600082600b0b82600b0b0280600b0b91508082146138bf576138bf6156b4565b600081600b0b83600b0b80615a6d57615a6d6159df565b60016001605f1b0319821460001982141615615a8b57615a8b6156b4565b90059392505050565b600b81810b9083900b0160016001605f1b03811360016001605f1b031982121715610fe857610fe86156b4565b6001600160a01b039384168152919092166020820152604081019190915260600190565b600080600060608486031215615afa57600080fd5b8351925060208401519150604084015190509250925092565b600060208284031215615b2557600080fd5b8151611c3381614c74565b6001600160a01b0393841681526020810192909252909116604082015260600190565b838152606060208201526000615b6c6060830185614bed565b82810360408401526119fd8185614bed565b60ff8281168282160390811115610fe857610fe86156b4565b600181815b80851115615bd2578160001904821115615bb857615bb86156b4565b80851615615bc557918102915b93841c9390800290615b9c565b509250929050565b600082615be957506001610fe8565b81615bf657506000610fe8565b8160018114615c0c5760028114615c1657615c32565b6001915050610fe8565b60ff841115615c2757615c276156b4565b50506001821b610fe8565b5060208310610133831016604e8410600b8410161715615c55575081810a610fe8565b615c5f8383615b97565b8060001904821115615c7357615c736156b4565b029392505050565b6000611c3360ff841683615bda565b8082028115828204841417610fe857610fe86156b4565b6001600160a01b03929092168252602082015260400190565b60008060008060808587031215615cd057600080fd5b84519350602085015180600b0b8114615ce857600080fd5b6040860151606090960151949790965092505050565b6001600160a01b0387811682528681166020830152851660408201526060810184905260c060808201819052600090615d3990830185614bed565b82810360a084015261559c8185614bed565b6001600160a01b03858116825284166020820152600b83900b60408201526080606082018190526000906119fd90830184614bed565b6001600160a01b0384168152606060208201819052600090615b6c90830185614bed565b600060208284031215615db757600080fd5b81516001600160401b03811115615dcd57600080fd5b8201601f81018413615dde57600080fd5b8051615dec614f8d82614f47565b818152856020838501011115615e0157600080fd5b611c08826020830160208601614bc9565b60008251615e24818460208701614bc9565b919091019291505056fea9214cc96615e0085d3bb077758db69497dc2dce3b2b1e97bc93c3d18d83efd3360894a13ba1a3210667c828492db98dca3e2076cc3735a920a3ca505d382bbcb969d79d88acd02d04ed7ee7d43b949e7daf093d363abcfbbc43dfdfd1ce969a5375706572546f6b656e3a2064656372656173656420616c6c6f77616e63652062656c6f77207a65726fddf252ad1be2c89b69c2b068fc378daa952ba7f163c4a11628f55a4df523b3ef5375706572546f6b656e3a207472616e7366657220616d6f756e74206578636565647320616c6c6f77616e636565599bf746e17a00ea62e3610586992d88101b78eec3cf380706621fb97ea837a2646970667358221220df4c511b6ef82aefe07e06e7fa5e77d562695cab69a60734f48bce58e4f945dd64736f6c63430008130033",
    "linkReferences": {}
  },
  "methodIdentifiers": {
    "CONSTANT_INFLOW_NFT()": "4c5c0c85",
    "CONSTANT_OUTFLOW_NFT()": "ef43d2c6",
    "MAX_SPONSORSHIP_LEVEL()": "b5c0b7eb",
    "MAX_SPONSORSHIP_PATH_OUTFLOW()": "f349f56a",
    "allowance(address,address)": "dd62ed3e",
    "approve(address,uint256)": "095ea7b3",
    "authorizeOperator(address)": "959b8c3f",
    "balanceOf(address)": "70a08231",
    "burn(uint256,bytes)": "fe9d9303",
    "castrate()": "9903ad38",
    "createAgreement(bytes32,bytes32[])": "12a6a3f8",
    "decimals()": "313ce567",
    "decreaseAllowance(address,uint256)": "a457c2d7",
    "defaultOperators()": "06e48538",
    "downgrade(uint256)": "11bcc81e",
    "downgradeTo(address,uint256)": "83ba2525",
    "fee(uint32)": "8934c79a",
    "getAccountActiveAgreements(address)": "386fa221",
    "getAgreementData(address,bytes32,uint256)": "6c2d9f2f",
    "getAgreementStateSlot(address,address,uint256,uint256)": "4b61cc33",
    "getChainOfSponsors(address)": "21fb177a",
    "getCodeAddress()": "50d75d25",
    "getHost()": "20bc4425",
    "getProtege(address)": "099e14ce",
    "getUnderlyingToken()": "ee719bc8",
    "granularity()": "556f0dc7",
    "increaseAllowance(address,uint256)": "39509351",
    "initialize(address,uint8,string,string)": "42fe0980",
    "initialize(string,string,address)": "077f224a",
    "isAccountCritical(address,uint256)": "d9d078d6",
    "isAccountCriticalNow(address)": "79359f6f",
    "isAccountSolvent(address,uint256)": "b84cdd4a",
    "isAccountSolventNow(address)": "bb0d196e",
    "isOperatorFor(address,address)": "d95b6371",
    "isProtege(address)": "e4a472c8",
    "makeLiquidationPayoutsV2(bytes32,bytes,address,bool,address,uint256,int256)": "1863e809",
    "mint(uint256)": "a0712d68",
    "name()": "06fdde03",
    "operationApprove(address,address,uint256)": "62aa5287",
    "operationDecreaseAllowance(address,address,uint256)": "c780fd82",
    "operationDowngrade(address,uint256)": "245887fc",
    "operationIncreaseAllowance(address,address,uint256)": "4b2763b3",
    "operationSend(address,address,uint256,bytes)": "ca0c1e7f",
    "operationTransferFrom(address,address,address,uint256)": "16d055d6",
    "operationUpgrade(address,uint256)": "ca789464",
    "operatorBurn(address,uint256,bytes,bytes)": "fc673c4f",
    "operatorSend(address,address,uint256,bytes,bytes)": "62ad1b83",
    "owner()": "8da5cb5b",
    "proxiableUUID()": "52d1902d",
    "realtimeBalanceOf(address,uint256)": "eb3537cc",
    "realtimeBalanceOfNow(address)": "2ec8eec7",
    "restartStream()": "57cf7acb",
    "revokeOperator(address)": "fad8b32a",
    "selfApproveFor(address,address,uint256)": "66a12fb6",
    "selfBurn(address,uint256,bytes)": "9d876741",
    "selfMint(address,uint256,bytes)": "c68d4283",
    "selfTransferFrom(address,address,address,uint256)": "41b706be",
    "send(address,uint256,bytes)": "9bd9bbc6",
    "settleBalance(address,int256)": "cf97256d",
    "sponsor(address)": "766c4f37",
    "symbol()": "95d89b41",
    "terminateAgreement(bytes32,uint256)": "27048397",
    "totalSupply()": "18160ddd",
    "transfer(address,uint256)": "a9059cbb",
    "transferAll(address)": "a3a7e7f3",
    "transferFrom(address,address,uint256)": "23b872dd",
    "updateAgreementData(bytes32,bytes32[])": "a1b2bf8b",
    "updateAgreementStateSlot(address,uint256,bytes32[])": "090c415e",
    "updateCode(address)": "46951954",
    "upgrade(uint256)": "45977d03",
    "upgradeTo(address,uint256,bytes)": "5b9d09cc"
  },
  "id": 57
}