{
  "abi": [
    {
      "inputs": [],
      "stateMutability": "nonpayable",
      "type": "constructor"
    },
    {
      "inputs": [],
      "name": "Initialized",
      "type": "error"
    },
    {
      "inputs": [],
      "name": "ZeroAddress",
      "type": "error"
    },
    {
      "anonymous": false,
      "inputs": [
        {
          "indexed": true,
          "internalType": "address",
          "name": "previousOwner",
          "type": "address"
        },
        {
          "indexed": true,
          "internalType": "address",
          "name": "newOwner",
          "type": "address"
        }
      ],
      "name": "OwnershipTransferred",
      "type": "event"
    },
    {
      "stateMutability": "payable",
      "type": "fallback"
    },
    {
      "inputs": [],
      "name": "FLAT_FEE_SPONSORSHIP",
      "outputs": [
        {
          "internalType": "uint256",
          "name": "",
          "type": "uint256"
        }
      ],
      "stateMutability": "view",
      "type": "function"
    },
    {
      "inputs": [],
      "name": "MAX_SPONSORSHIP_LEVEL",
      "outputs": [
        {
          "internalType": "uint256",
          "name": "",
          "type": "uint256"
        }
      ],
      "stateMutability": "view",
      "type": "function"
    },
    {
      "inputs": [],
      "name": "MAX_SPONSORSHIP_PATH_OUTFLOW",
      "outputs": [
        {
          "internalType": "uint256",
          "name": "",
          "type": "uint256"
        }
      ],
      "stateMutability": "view",
      "type": "function"
    },
    {
      "inputs": [],
      "name": "SECONDS_IN_A_DAY",
      "outputs": [
        {
          "internalType": "uint256",
          "name": "",
          "type": "uint256"
        }
      ],
      "stateMutability": "view",
      "type": "function"
    },
    {
      "inputs": [
        {
          "internalType": "uint8",
          "name": "level",
          "type": "uint8"
        },
        {
          "internalType": "uint32",
          "name": "protegeCount",
          "type": "uint32"
        },
        {
          "internalType": "uint256",
          "name": "totalWeightedFactor",
          "type": "uint256"
        }
      ],
      "name": "calculateSponsorAmount",
      "outputs": [
        {
          "internalType": "int96",
          "name": "flow",
          "type": "int96"
        }
      ],
      "stateMutability": "pure",
      "type": "function"
    },
    {
      "inputs": [
        {
          "internalType": "uint8",
          "name": "sponsorLvl",
          "type": "uint8"
        }
      ],
      "name": "fees",
      "outputs": [
        {
          "internalType": "uint256",
          "name": "fee",
          "type": "uint256"
        }
      ],
      "stateMutability": "pure",
      "type": "function"
    },
    {
      "inputs": [
        {
          "internalType": "uint8",
          "name": "level",
          "type": "uint8"
        }
      ],
      "name": "getAllocation",
      "outputs": [
        {
          "internalType": "uint256",
          "name": "allocation",
          "type": "uint256"
        }
      ],
      "stateMutability": "pure",
      "type": "function"
    },
    {
      "inputs": [
        {
          "internalType": "address",
          "name": "protege",
          "type": "address"
        }
      ],
      "name": "getChainOfSponsors",
      "outputs": [
        {
          "components": [
            {
              "internalType": "address",
              "name": "sponsor",
              "type": "address"
            },
            {
              "internalType": "uint8",
              "name": "level",
              "type": "uint8"
            },
            {
              "internalType": "uint32",
              "name": "protegeCount",
              "type": "uint32"
            }
          ],
          "internalType": "struct SuperfluidClub.Protege[6]",
          "name": "sponsors",
          "type": "tuple[6]"
        }
      ],
      "stateMutability": "view",
      "type": "function"
    },
    {
      "inputs": [
        {
          "internalType": "uint8",
          "name": "protegeLvl",
          "type": "uint8"
        },
        {
          "internalType": "uint32",
          "name": "protegeCount",
          "type": "uint32"
        }
      ],
      "name": "getFlowRateAmount",
      "outputs": [
        {
          "internalType": "int96",
          "name": "flowRate",
          "type": "int96"
        }
      ],
      "stateMutability": "view",
      "type": "function"
    },
    {
      "inputs": [
        {
          "internalType": "uint8",
          "name": "sponsorLvl",
          "type": "uint8"
        }
      ],
      "name": "getMaxFlowRateByLevel",
      "outputs": [
        {
          "internalType": "int96",
          "name": "maxFlowRate",
          "type": "int96"
        }
      ],
      "stateMutability": "pure",
      "type": "function"
    },
    {
      "inputs": [
        {
          "internalType": "uint8",
          "name": "protegeLvl",
          "type": "uint8"
        }
      ],
      "name": "getProtegeLevelWeight",
      "outputs": [
        {
          "internalType": "uint256",
          "name": "levelWeight",
          "type": "uint256"
        }
      ],
      "stateMutability": "pure",
      "type": "function"
    },
    {
      "inputs": [
        {
          "internalType": "address",
          "name": "superTokenFactory",
          "type": "address"
        }
      ],
      "name": "initialize",
      "outputs": [],
      "stateMutability": "nonpayable",
      "type": "function"
    },
    {
      "inputs": [
        {
          "internalType": "address",
          "name": "initialAddress",
          "type": "address"
        }
      ],
      "name": "initializeProxy",
      "outputs": [],
      "stateMutability": "nonpayable",
      "type": "function"
    },
    {
      "inputs": [
        {
          "internalType": "address",
          "name": "protege",
          "type": "address"
        }
      ],
      "name": "isProtege",
      "outputs": [
        {
          "internalType": "bool",
          "name": "",
          "type": "bool"
        }
      ],
      "stateMutability": "view",
      "type": "function"
    },
    {
      "inputs": [
        {
          "internalType": "uint256",
          "name": "amount",
          "type": "uint256"
        }
      ],
      "name": "mint",
      "outputs": [],
      "stateMutability": "nonpayable",
      "type": "function"
    },
    {
      "inputs": [],
      "name": "owner",
      "outputs": [
        {
          "internalType": "address",
          "name": "",
          "type": "address"
        }
      ],
      "stateMutability": "view",
      "type": "function"
    },
    {
      "inputs": [],
      "name": "renounceOwnership",
      "outputs": [],
      "stateMutability": "nonpayable",
      "type": "function"
    },
    {
      "inputs": [
        {
          "internalType": "address payable",
          "name": "newProtege",
          "type": "address"
        },
        {
          "internalType": "bool",
          "name": "transferCoinToProtege",
          "type": "bool"
        }
      ],
      "name": "sponsor",
      "outputs": [],
      "stateMutability": "payable",
      "type": "function"
    },
    {
      "inputs": [
        {
          "internalType": "address",
          "name": "newOwner",
          "type": "address"
        }
      ],
      "name": "transferOwnership",
      "outputs": [],
      "stateMutability": "nonpayable",
      "type": "function"
    },
    {
      "inputs": [
        {
          "internalType": "address",
          "name": "receiver",
          "type": "address"
        },
        {
          "internalType": "uint256",
          "name": "amount",
          "type": "uint256"
        }
      ],
      "name": "withdrawFees",
      "outputs": [],
      "stateMutability": "nonpayable",
      "type": "function"
    },
    {
      "stateMutability": "payable",
      "type": "receive"
    }
  ],
  "bytecode": {
    "object": "0x608060405234801561001057600080fd5b5061001a3361001f565b610071565b602080546001600160a01b038381166001600160a01b0319831681179093556040519116919082907f8be0079c531659141344cd1fd0a4f28419497f9722a3daafe3b4186f6b6457e090600090a35050565b611c7d806100806000396000f3fe6080604052600436106101235760003560e01c8063b144a77b116100a0578063da3a6a1211610064578063da3a6a1214610327578063e4a472c814610347578063f2fde38b14610377578063f349f56a14610397578063f9cfa06f146103b45761012a565b8063b144a77b1461028c578063b2383222146102bf578063b5c0b7eb146102d2578063bebf57b2146102e7578063c4d66de8146103075761012a565b8063715018a6116100e7578063715018a6146101f057806378575643146102055780638da5cb5b14610225578063a0712d681461024c578063ad3b1b471461026c5761012a565b80631c945f591461013457806321fb177a14610167578063357c1354146101945780634a0687ef146101b457806365051731146101d45761012a565b3661012a57005b6101326103cb565b005b34801561014057600080fd5b5061015461014f366004611654565b6103fd565b6040519081526020015b60405180910390f35b34801561017357600080fd5b50610187610182366004611684565b610425565b60405161015e91906116a1565b3480156101a057600080fd5b506101546101af366004611654565b6104e2565b3480156101c057600080fd5b506101326101cf366004611684565b610577565b3480156101e057600080fd5b5061015467016345785d8a000081565b3480156101fc57600080fd5b50610132610613565b34801561021157600080fd5b50610154610220366004611654565b610625565b34801561023157600080fd5b50602080546040516001600160a01b0390911681520161015e565b34801561025857600080fd5b506101326102673660046116fe565b61068e565b34801561027857600080fd5b50610132610287366004611717565b6106d1565b34801561029857600080fd5b506102ac6102a7366004611757565b6107e8565b604051600b9190910b815260200161015e565b6101326102cd366004611793565b610844565b3480156102de57600080fd5b50610154600681565b3480156102f357600080fd5b506102ac6103023660046117d1565b610bf6565b34801561031357600080fd5b50610132610322366004611684565b610c7b565b34801561033357600080fd5b506102ac610342366004611654565b610d36565b34801561035357600080fd5b50610367610362366004611684565b610dc4565b604051901515815260200161015e565b34801561038357600080fd5b50610132610392366004611684565b610de4565b3480156103a357600080fd5b5061015468270801d946c940000081565b3480156103c057600080fd5b506101546201518081565b6103fb6103f67f360894a13ba1a3210667c828492db98dca3e2076cc3735a920a3ca505d382bbc5490565b610e5a565b565b60006813d64c843842b100006104148360026118fe565b61041e908261190d565b9392505050565b61042d611604565b8160005b61043a82610dc4565b156104db576001600160a01b03828116600090815260216020908152604091829020825160608101845290549384168152600160a01b840460ff1691810191909152600160a81b90920463ffffffff169082015283826104998161192f565b9350600681106104ab576104ab611948565b602090810291909101919091526001600160a01b0392831660009081526021909152604090205490911690610431565b5050919050565b60008160ff166001036104fe5750670429d069189e0000919050565b8160ff16600203610518575067016345785d8a0000919050565b8160ff16600303610531575066b1a2bc2ec50000919050565b8160ff1660040361054a575066470de4df820000919050565b8160ff166005036105635750662386f26fc10000919050565b50678ac7230489e80000919050565b919050565b6001600160a01b03811661059e5760405163d92e233d60e01b815260040160405180910390fd5b60006105c87f360894a13ba1a3210667c828492db98dca3e2076cc3735a920a3ca505d382bbc5490565b6001600160a01b0316146105ef576040516302ed543d60e51b815260040160405180910390fd5b7f360894a13ba1a3210667c828492db98dca3e2076cc3735a920a3ca505d382bbc55565b61061b610e7e565b6103fb6000610ed8565b60008160ff1660010361063a57506032919050565b8160ff1660020361064d57506019919050565b8160ff166003036106605750600c919050565b8160ff1660040361067357506006919050565b8160ff1660050361068657506003919050565b506001919050565b610696610e7e565b6106ce308260005b6040519080825280601f01601f1916602001820160405280156106c8576020820181803683370190505b50610f2a565b50565b6106d9610e7e565b6001600160a01b0382166107275760405162461bcd60e51b815260206004820152601060248201526f24b73b30b634b2103932b1b2b4bb32b960811b60448201526064015b60405180910390fd5b600081116107685760405162461bcd60e51b815260206004820152600e60248201526d125b9d985b1a5908185b5bdd5b9d60921b604482015260640161071e565b804710156107ad5760405162461bcd60e51b81526020600482015260126024820152714e6f7420656e6f7567682062616c616e636560701b604482015260640161071e565b6040516001600160a01b0383169082156108fc029083906000818181858888f193505050501580156107e3573d6000803e3d6000fd5b505050565b6000808363ffffffff166107fb866103fd565b6108059190611974565b905061083b62015180846108228468270801d946c9400000611974565b61082c919061190d565b610836919061190d565b610f88565b95945050505050565b61084d82610dc4565b1561088f5760405162461bcd60e51b8152602060048201526012602482015271416c726561647920612070726f746567652160701b604482015260640161071e565b60006108a36020546001600160a01b031690565b6001600160a01b0316336001600160a01b0316146108c157336108c3565b305b90506108ce81610dc4565b6109135760405162461bcd60e51b8152602060048201526016602482015275596f7520617265206e6f7420612070726f746567652160501b604482015260640161071e565b6001600160a01b0381166000908152602160205260408120543491600160a01b90910460ff1690610943826104e2565b90508415801561095b575067016345785d8a00008310155b80610977575061097367016345785d8a00008261198b565b8310155b6109b65760405162461bcd60e51b815260206004820152601060248201526f4e6f7420656e6f75676820636f696e2160801b604482015260640161071e565b60068260ff1610610a095760405162461bcd60e51b815260206004820152601e60248201527f4d61782073706f6e736f7273686970206c6576656c2072656163686564210000604482015260640161071e565b6040518060600160405280856001600160a01b03168152602001836001610a30919061199e565b60ff9081168252600060209283018190526001600160a01b03808b1682526021845260408083208651815496880151979092015163ffffffff16600160a81b0263ffffffff60a81b1997909516600160a01b026001600160a81b03199096169190921617939093179390931617905582855b610aab81610dc4565b15610b8b576001600160a01b03811660009081526021602052604090208054600160a81b900463ffffffff16906015610ae3836119b7565b91906101000a81548163ffffffff021916908363ffffffff16021790555050610b0b826103fd565b610b15908461198b565b925081610b21816119da565b6001600160a01b038316600090815260216020526040902054909350610b6b91508290610b6690600160a01b810460ff1690600160a81b900463ffffffff16876107e8565b610fd5565b6001600160a01b0390811660009081526021602052604090205416610aa2565b50610bad88610ba5610b9e87600161199e565b6000610bf6565b309190610ffd565b508615610bec576040516001600160a01b0389169084156108fc029085906000818181858888f19350505050158015610bea573d6000803e3d6000fd5b505b5050505050505050565b600080610c0284610d36565b905060006064610c1186610625565b610c249068270801d946c9400000611974565b610c2e919061190d565b905060006bffffffffffffffffffffffff83168211610c4d5781610c5d565b6bffffffffffffffffffffffff83165b9050610c6f610836620151808361190d565b93505050505b92915050565b602054600160a01b900460ff1615610ccb5760405162461bcd60e51b8152602060048201526013602482015272105b1c9958591e481a5b9a5d1a585b1a5e9959606a1b604482015260640161071e565b6020805460ff60a01b1916600160a01b178155604080518082018252600580825264086d8eac4b60db1b828501819052835180850190945290835292820192909252610d18918391611024565b6106ce30710125dfa371a19e6f7cb54395ca0000000000600061069e565b60008160ff16600103610d52575067016345785d8a0000919050565b8160ff16600203610d6b575066b1a2bc2ec50000919050565b8160ff16600303610d84575066470de4df820000919050565b8160ff16600403610d9d5750662386f26fc10000919050565b8160ff16600503610db657506611c37937e08000919050565b5066038d7ea4c68000919050565b6001600160a01b0390811660009081526021602052604090205416151590565b610dec610e7e565b6001600160a01b038116610e515760405162461bcd60e51b815260206004820152602660248201527f4f776e61626c653a206e6577206f776e657220697320746865207a65726f206160448201526564647265737360d01b606482015260840161071e565b6106ce81610ed8565b3660008037600080366000845af43d6000803e808015610e79573d6000f35b3d6000fd5b6020546001600160a01b031633146103fb5760405162461bcd60e51b815260206004820181905260248201527f4f776e61626c653a2063616c6c6572206973206e6f7420746865206f776e6572604482015260640161071e565b602080546001600160a01b038381166001600160a01b0319831681179093556040519116919082907f8be0079c531659141344cd1fd0a4f28419497f9722a3daafe3b4186f6b6457e090600090a35050565b60405163c68d428360e01b8152309063c68d428390610f5190869086908690600401611a47565b600060405180830381600087803b158015610f6b57600080fd5b505af1158015610f7f573d6000803e3d6000fd5b50505050505050565b60006b7fffffffffffffffffffffff821115610fd15760405162461bcd60e51b81526020600482015260086024820152676f766572666c6f7760c01b604482015260640161071e565b5090565b6000610fe23080856110a7565b600b0b1315610ff6576107e330838361113f565b6107e33083835b6040805160008082526020820190925261101c9085908590859061115e565b949350505050565b604051633504b4d160e21b81523060048201526001600160a01b0384169063d412d34490602401600060405180830381600087803b15801561106557600080fd5b505af1158015611079573d6000803e3d6000fd5b50506040516285fc1360e71b81523092506342fe09809150610f519060009060129087908790600401611a6e565b6000806110b38561128a565b604051631cd43d1160e31b81526001600160a01b03888116600483015287811660248301528681166044830152919350908316915063e6a1e88890606401608060405180830381865afa15801561110e573d6000803e3d6000fd5b505050506040513d601f19601f820116820180604052508101906111329190611ab8565b5090979650505050505050565b6040805160008082526020820190925261101c9085908590859061140b565b600080600061116c87611459565b91509150816001600160a01b03166339255d5b82836001600160a01b03166362fc305e8b8b8b600067ffffffffffffffff8111156111ac576111ac61195e565b6040519080825280601f01601f1916602001820160405280156111d6576020820181803683370190505b506040516024016111ea9493929190611afc565b60408051808303601f1901815291815260208201805160e094851b6001600160e01b03909116179052519185901b6001600160e01b0319168252611235939250908990600401611b3c565b6000604051808303816000875af1158015611254573d6000803e3d6000fd5b505050506040513d6000823e601f3d908101601f1916820160405261127c9190810190611b72565b506001979650505050505050565b7f65599bf746e17a00ea62e3610586992d88101b78eec3cf380706621fb97ea837547fb969d79d88acd02d04ed7ee7d43b949e7daf093d363abcfbbc43dfdfd1ce969a546001600160a01b0381166113da576001600160a01b03821661134f57826001600160a01b03166320bc44256040518163ffffffff1660e01b8152600401602060405180830381865afa158015611328573d6000803e3d6000fd5b505050506040513d601f19601f8201168201806040525081019061134c9190611c14565b91505b604051635b69006f60e11b81527fa9214cc96615e0085d3bb077758db69497dc2dce3b2b1e97bc93c3d18d83efd360048201526001600160a01b0383169063b6d200de90602401602060405180830381865afa1580156113b3573d6000803e3d6000fd5b505050506040513d601f19601f820116820180604052508101906113d79190611c14565b90505b6001600160a01b0382166113f0576113f0611c31565b6001600160a01b03811661140657611406611c31565b915091565b600080600061141987611459565b91509150816001600160a01b03166339255d5b82836001600160a01b03166350209a628b8b8b600067ffffffffffffffff8111156111ac576111ac61195e565b7f65599bf746e17a00ea62e3610586992d88101b78eec3cf380706621fb97ea837547fb969d79d88acd02d04ed7ee7d43b949e7daf093d363abcfbbc43dfdfd1ce969a546001600160a01b0381166113da576001600160a01b03821661151e57826001600160a01b03166320bc44256040518163ffffffff1660e01b8152600401602060405180830381865afa1580156114f7573d6000803e3d6000fd5b505050506040513d601f19601f8201168201806040525081019061151b9190611c14565b91505b604051635b69006f60e11b81527fa9214cc96615e0085d3bb077758db69497dc2dce3b2b1e97bc93c3d18d83efd360048201526001600160a01b0383169063b6d200de90602401602060405180830381865afa158015611582573d6000803e3d6000fd5b505050506040513d601f19601f820116820180604052508101906115a69190611c14565b9050817f65599bf746e17a00ea62e3610586992d88101b78eec3cf380706621fb97ea83755807fb969d79d88acd02d04ed7ee7d43b949e7daf093d363abcfbbc43dfdfd1ce969a556001600160a01b0382166113f0576113f0611c31565b6040518060c001604052806006905b60408051606081018252600080825260208083018290529282015282526000199092019101816116135790505090565b803560ff8116811461057257600080fd5b60006020828403121561166657600080fd5b61041e82611643565b6001600160a01b03811681146106ce57600080fd5b60006020828403121561169657600080fd5b813561041e8161166f565b6102408101818360005b60068110156116f557815180516001600160a01b0316845260208082015160ff168186015260409182015163ffffffff1691850191909152606090930192909101906001016116ab565b50505092915050565b60006020828403121561171057600080fd5b5035919050565b6000806040838503121561172a57600080fd5b82356117358161166f565b946020939093013593505050565b803563ffffffff8116811461057257600080fd5b60008060006060848603121561176c57600080fd5b61177584611643565b925061178360208501611743565b9150604084013590509250925092565b600080604083850312156117a657600080fd5b82356117b18161166f565b9150602083013580151581146117c657600080fd5b809150509250929050565b600080604083850312156117e457600080fd5b6117ed83611643565b91506117fb60208401611743565b90509250929050565b634e487b7160e01b600052601160045260246000fd5b600181815b8085111561185557816000190482111561183b5761183b611804565b8085161561184857918102915b93841c939080029061181f565b509250929050565b60008261186c57506001610c75565b8161187957506000610c75565b816001811461188f5760028114611899576118b5565b6001915050610c75565b60ff8411156118aa576118aa611804565b50506001821b610c75565b5060208310610133831016604e8410600b84101617156118d8575081810a610c75565b6118e2838361181a565b80600019048211156118f6576118f6611804565b029392505050565b600061041e60ff84168361185d565b60008261192a57634e487b7160e01b600052601260045260246000fd5b500490565b60006001820161194157611941611804565b5060010190565b634e487b7160e01b600052603260045260246000fd5b634e487b7160e01b600052604160045260246000fd5b8082028115828204841417610c7557610c75611804565b80820180821115610c7557610c75611804565b60ff8181168382160190811115610c7557610c75611804565b600063ffffffff8083168181036119d0576119d0611804565b6001019392505050565b600060ff8216806119ed576119ed611804565b6000190192915050565b60005b83811015611a125781810151838201526020016119fa565b50506000910152565b60008151808452611a338160208601602086016119f7565b601f01601f19169290920160200192915050565b60018060a01b038416815282602082015260606040820152600061083b6060830184611a1b565b6001600160a01b038516815260ff84166020820152608060408201819052600090611a9b90830185611a1b565b8281036060840152611aad8185611a1b565b979650505050505050565b60008060008060808587031215611ace57600080fd5b84519350602085015180600b0b8114611ae657600080fd5b6040860151606090960151949790965092505050565b6001600160a01b03858116825284166020820152600b83900b6040820152608060608201819052600090611b3290830184611a1b565b9695505050505050565b6001600160a01b0384168152606060208201819052600090611b6090830185611a1b565b8281036040840152611b328185611a1b565b600060208284031215611b8457600080fd5b815167ffffffffffffffff80821115611b9c57600080fd5b818401915084601f830112611bb057600080fd5b815181811115611bc257611bc261195e565b604051601f8201601f19908116603f01168101908382118183101715611bea57611bea61195e565b81604052828152876020848701011115611c0357600080fd5b611aad8360208301602088016119f7565b600060208284031215611c2657600080fd5b815161041e8161166f565b634e487b7160e01b600052600160045260246000fdfea264697066735822122057225da282cd5611e82bb171b51b98be865e2f929848a599f024a2a6f5ff7bdb64736f6c63430008130033",
    "linkReferences": {}
  },
  "methodIdentifiers": {
    "FLAT_FEE_SPONSORSHIP()": "65051731",
    "MAX_SPONSORSHIP_LEVEL()": "b5c0b7eb",
    "MAX_SPONSORSHIP_PATH_OUTFLOW()": "f349f56a",
    "SECONDS_IN_A_DAY()": "f9cfa06f",
    "calculateSponsorAmount(uint8,uint32,uint256)": "b144a77b",
    "fees(uint8)": "357c1354",
    "getAllocation(uint8)": "1c945f59",
    "getChainOfSponsors(address)": "21fb177a",
    "getFlowRateAmount(uint8,uint32)": "bebf57b2",
    "getMaxFlowRateByLevel(uint8)": "da3a6a12",
    "getProtegeLevelWeight(uint8)": "78575643",
    "initialize(address)": "c4d66de8",
    "initializeProxy(address)": "4a0687ef",
    "isProtege(address)": "e4a472c8",
    "mint(uint256)": "a0712d68",
    "owner()": "8da5cb5b",
    "renounceOwnership()": "715018a6",
    "sponsor(address,bool)": "b2383222",
    "transferOwnership(address)": "f2fde38b",
    "withdrawFees(address,uint256)": "ad3b1b47"
  },
  "id": 113
}