{
  "abi": [
    {
      "inputs": [],
      "stateMutability": "nonpayable",
      "type": "constructor"
    },
    {
      "inputs": [],
      "name": "Initialized",
      "type": "error"
    },
    {
      "inputs": [],
      "name": "ZeroAddress",
      "type": "error"
    },
    {
      "anonymous": false,
      "inputs": [
        {
          "indexed": true,
          "internalType": "address",
          "name": "previousOwner",
          "type": "address"
        },
        {
          "indexed": true,
          "internalType": "address",
          "name": "newOwner",
          "type": "address"
        }
      ],
      "name": "OwnershipTransferred",
      "type": "event"
    },
    {
      "anonymous": false,
      "inputs": [
        {
          "indexed": true,
          "internalType": "address",
          "name": "sponsor",
          "type": "address"
        },
        {
          "indexed": true,
          "internalType": "address",
          "name": "protege",
          "type": "address"
        },
        {
          "indexed": false,
          "internalType": "uint8",
          "name": "level",
          "type": "uint8"
        },
        {
          "indexed": false,
          "internalType": "uint32",
          "name": "totalProtegeCount",
          "type": "uint32"
        },
        {
          "indexed": false,
          "internalType": "uint32",
          "name": "directTotalProtegeCount",
          "type": "uint32"
        }
      ],
      "name": "PROTEGE_UPDATED",
      "type": "event"
    },
    {
      "stateMutability": "payable",
      "type": "fallback"
    },
    {
      "inputs": [],
      "name": "FLAT_COST_SPONSORSHIP",
      "outputs": [
        {
          "internalType": "uint256",
          "name": "",
          "type": "uint256"
        }
      ],
      "stateMutability": "view",
      "type": "function"
    },
    {
      "inputs": [],
      "name": "MAX_SPONSORSHIP_LEVEL",
      "outputs": [
        {
          "internalType": "uint256",
          "name": "",
          "type": "uint256"
        }
      ],
      "stateMutability": "view",
      "type": "function"
    },
    {
      "inputs": [],
      "name": "MAX_SPONSORSHIP_PATH_OUTFLOW",
      "outputs": [
        {
          "internalType": "uint256",
          "name": "",
          "type": "uint256"
        }
      ],
      "stateMutability": "view",
      "type": "function"
    },
    {
      "inputs": [
        {
          "internalType": "uint32",
          "name": "totalProtegeCount",
          "type": "uint32"
        }
      ],
      "name": "calculateFlowRate",
      "outputs": [
        {
          "internalType": "int96",
          "name": "flowRate",
          "type": "int96"
        }
      ],
      "stateMutability": "view",
      "type": "function"
    },
    {
      "inputs": [
        {
          "internalType": "uint32",
          "name": "directProtegeCount",
          "type": "uint32"
        }
      ],
      "name": "fee",
      "outputs": [
        {
          "internalType": "uint256",
          "name": "feeAmount",
          "type": "uint256"
        }
      ],
      "stateMutability": "pure",
      "type": "function"
    },
    {
      "inputs": [
        {
          "internalType": "address",
          "name": "protege",
          "type": "address"
        }
      ],
      "name": "getChainOfSponsors",
      "outputs": [
        {
          "components": [
            {
              "internalType": "address",
              "name": "sponsor",
              "type": "address"
            },
            {
              "internalType": "uint8",
              "name": "level",
              "type": "uint8"
            },
            {
              "internalType": "uint32",
              "name": "totalProtegeCount",
              "type": "uint32"
            },
            {
              "internalType": "uint32",
              "name": "directTotalProtegeCount",
              "type": "uint32"
            },
            {
              "internalType": "int96",
              "name": "desiredFlowRate",
              "type": "int96"
            }
          ],
          "internalType": "struct SuperfluidClub.Protege[6]",
          "name": "sponsors",
          "type": "tuple[6]"
        }
      ],
      "stateMutability": "view",
      "type": "function"
    },
    {
      "inputs": [
        {
          "internalType": "address",
          "name": "protege",
          "type": "address"
        }
      ],
      "name": "getProtege",
      "outputs": [
        {
          "components": [
            {
              "internalType": "address",
              "name": "sponsor",
              "type": "address"
            },
            {
              "internalType": "uint8",
              "name": "level",
              "type": "uint8"
            },
            {
              "internalType": "uint32",
              "name": "totalProtegeCount",
              "type": "uint32"
            },
            {
              "internalType": "uint32",
              "name": "directTotalProtegeCount",
              "type": "uint32"
            },
            {
              "internalType": "int96",
              "name": "desiredFlowRate",
              "type": "int96"
            }
          ],
          "internalType": "struct SuperfluidClub.Protege",
          "name": "",
          "type": "tuple"
        }
      ],
      "stateMutability": "view",
      "type": "function"
    },
    {
      "inputs": [
        {
          "internalType": "address",
          "name": "superTokenFactory",
          "type": "address"
        }
      ],
      "name": "initialize",
      "outputs": [],
      "stateMutability": "nonpayable",
      "type": "function"
    },
    {
      "inputs": [
        {
          "internalType": "address",
          "name": "initialAddress",
          "type": "address"
        }
      ],
      "name": "initializeProxy",
      "outputs": [],
      "stateMutability": "nonpayable",
      "type": "function"
    },
    {
      "inputs": [
        {
          "internalType": "address",
          "name": "protege",
          "type": "address"
        }
      ],
      "name": "isProtege",
      "outputs": [
        {
          "internalType": "bool",
          "name": "",
          "type": "bool"
        }
      ],
      "stateMutability": "view",
      "type": "function"
    },
    {
      "inputs": [
        {
          "internalType": "uint256",
          "name": "amount",
          "type": "uint256"
        }
      ],
      "name": "mint",
      "outputs": [],
      "stateMutability": "nonpayable",
      "type": "function"
    },
    {
      "inputs": [],
      "name": "owner",
      "outputs": [
        {
          "internalType": "address",
          "name": "",
          "type": "address"
        }
      ],
      "stateMutability": "view",
      "type": "function"
    },
    {
      "inputs": [
        {
          "internalType": "address",
          "name": "oldProtege",
          "type": "address"
        }
      ],
      "name": "remove",
      "outputs": [],
      "stateMutability": "nonpayable",
      "type": "function"
    },
    {
      "inputs": [],
      "name": "renounceOwnership",
      "outputs": [],
      "stateMutability": "nonpayable",
      "type": "function"
    },
    {
      "inputs": [],
      "name": "restartStream",
      "outputs": [],
      "stateMutability": "nonpayable",
      "type": "function"
    },
    {
      "inputs": [
        {
          "internalType": "address payable",
          "name": "newProtege",
          "type": "address"
        }
      ],
      "name": "sponsor",
      "outputs": [],
      "stateMutability": "payable",
      "type": "function"
    },
    {
      "inputs": [
        {
          "internalType": "address",
          "name": "newOwner",
          "type": "address"
        }
      ],
      "name": "transferOwnership",
      "outputs": [],
      "stateMutability": "nonpayable",
      "type": "function"
    },
    {
      "inputs": [
        {
          "internalType": "address",
          "name": "receiver",
          "type": "address"
        },
        {
          "internalType": "uint256",
          "name": "amount",
          "type": "uint256"
        }
      ],
      "name": "withdraw",
      "outputs": [],
      "stateMutability": "nonpayable",
      "type": "function"
    },
    {
      "stateMutability": "payable",
      "type": "receive"
    }
  ],
  "bytecode": {
    "object": "0x608060405234801561001057600080fd5b5061001a3361001f565b610071565b602080546001600160a01b038381166001600160a01b0319831681179093556040519116919082907f8be0079c531659141344cd1fd0a4f28419497f9722a3daafe3b4186f6b6457e090600090a35050565b61209c806100806000396000f3fe60806040526004361061010d5760003560e01c80638da5cb5b11610095578063c4d66de811610064578063c4d66de814610370578063e4a472c814610390578063f2fde38b146103c0578063f349f56a146103e0578063f3fef3a3146103fd57610114565b80638da5cb5b146102f9578063a0712d6814610320578063b132a50d14610340578063b5c0b7eb1461035b57610114565b806357cf7acb116100dc57806357cf7acb1461025b578063715018a614610270578063766c4f37146102855780637ae058dc146102985780638934c79a146102cb57610114565b8063099e14ce1461011e57806321fb177a146101ee57806329092d0e1461021b5780634a0687ef1461023b57610114565b3661011457005b61011c61041d565b005b34801561012a57600080fd5b506101d8610139366004611b41565b6040805160a081018252600080825260208201819052918101829052606081018290526080810191909152506001600160a01b03908116600090815260216020908152604091829020825160a0810184528154948516815260ff600160a01b8604169281019290925263ffffffff600160a81b8504811693830193909352600160c81b9093049091166060820152600190910154600b0b608082015290565b6040516101e59190611baf565b60405180910390f35b3480156101fa57600080fd5b5061020e610209366004611b41565b61044f565b6040516101e59190611bbd565b34801561022757600080fd5b5061011c610236366004611b41565b61052d565b34801561024757600080fd5b5061011c610256366004611b41565b61080e565b34801561026757600080fd5b5061011c6108aa565b34801561027c57600080fd5b5061011c610910565b61011c610293366004611b41565b610922565b3480156102a457600080fd5b506102b86102b3366004611bfa565b610ebd565b604051600b9190910b81526020016101e5565b3480156102d757600080fd5b506102eb6102e6366004611bfa565b610ee6565b6040519081526020016101e5565b34801561030557600080fd5b50602080546040516001600160a01b039091168152016101e5565b34801561032c57600080fd5b5061011c61033b366004611c20565b610f87565b34801561034c57600080fd5b506102eb662386f26fc1000081565b34801561036757600080fd5b506102eb600681565b34801561037c57600080fd5b5061011c61038b366004611b41565b610fca565b34801561039c57600080fd5b506103b06103ab366004611b41565b611085565b60405190151581526020016101e5565b3480156103cc57600080fd5b5061011c6103db366004611b41565b6110a5565b3480156103ec57600080fd5b506102eb68270801d946c940000081565b34801561040957600080fd5b5061011c610418366004611c39565b61110c565b61044d6104487f360894a13ba1a3210667c828492db98dca3e2076cc3735a920a3ca505d382bbc5490565b61121e565b565b610457611adf565b8160005b61046482611085565b15610526576001600160a01b03808316600090815260216020908152604091829020825160a0810184528154948516815260ff600160a01b8604169281019290925263ffffffff600160a81b8504811693830193909352600160c81b9093049091166060820152600190910154600b0b608082015283826104e481611c7b565b9350600681106104f6576104f6611c94565b602090810291909101919091526001600160a01b039283166000908152602190915260409020549091169061045b565b5050919050565b61053681611085565b6105785760405162461bcd60e51b815260206004820152600e60248201526d4e6f7420612070726f746567652160901b60448201526064015b60405180910390fd5b600061058c6020546001600160a01b031690565b6001600160a01b0316336001600160a01b0316146105aa57336105ac565b305b6001600160a01b038084166000818152602160208181526040808420815160a0810183528154978816815260ff600160a01b8904168185015263ffffffff600160a81b8904811693820193909352600160c81b880483166060820152600182018054600b81900b6080840152978752949093526001600160e81b03199096169095556bffffffffffffffffffffffff19909316905592935091906106569030908190879061124216565b600b0b131561066c5761066a3080856112da565b505b3060009081526021602052604090208054600160a81b900463ffffffff1690601561069683611caa565b82546101009290920a63ffffffff81810219909316918316021790915582516001600160a01b031660009081526021602052604090208054600160c81b9004909116915060196106e583611caa565b82546101009290920a63ffffffff8181021990931691831602179091556001600160a01b0384166000908152602160205260409020548351600160a81b90910490911691505b61073481611085565b15610807576001600160a01b03811660009081526021602052604090208054600160a81b900463ffffffff1681601561076c83611caa565b91906101000a81548163ffffffff021916908363ffffffff1602179055505061079483610ebd565b6001820180546000906107ab908490600b0b611cca565b82546001600160601b039182166101009390930a9283029190920219909116179055506001810154600b0b6000036107ee576107e83083886112da565b50610801565b6001810154610801908390600b0b611301565b5061072b565b5050505050565b6001600160a01b0381166108355760405163d92e233d60e01b815260040160405180910390fd5b600061085f7f360894a13ba1a3210667c828492db98dca3e2076cc3735a920a3ca505d382bbc5490565b6001600160a01b031614610886576040516302ed543d60e51b815260040160405180910390fd5b7f360894a13ba1a3210667c828492db98dca3e2076cc3735a920a3ca505d382bbc55565b6108b333611085565b6108f05760405162461bcd60e51b815260206004820152600e60248201526d4e6f7420612070726f746567652160901b604482015260640161056f565b3360008181526021602052604090206001015461044d9190600b0b611301565b61091861132d565b61044d6000611387565b61092b81611085565b1561096d5760405162461bcd60e51b8152602060048201526012602482015271416c726561647920612070726f746567652160701b604482015260640161056f565b6000806109826020546001600160a01b031690565b6001600160a01b0316336001600160a01b0316146109a2573360006109a6565b3060015b915091506109b382611085565b806109bb5750805b610a005760405162461bcd60e51b8152602060048201526016602482015275596f7520617265206e6f7420612070726f746567652160501b604482015260640161056f565b6001600160a01b038216600090815260216020526040812054349190610a3290600160c81b900463ffffffff16610ee6565b905080821015610a775760405162461bcd60e51b815260206004820152601060248201526f4e6f7420656e6f75676820636f696e2160801b604482015260640161056f565b610a818183611cfc565b6001600160a01b0385166000908152602160205260409020549092506006600160a01b90910460ff1610610af75760405162461bcd60e51b815260206004820152601e60248201527f4d61782073706f6e736f7273686970206c6576656c2072656163686564210000604482015260640161056f565b3060009081526021602052604090208054600160a81b900463ffffffff16906015610b2183611d0f565b82546101009290920a63ffffffff8181021990931691831602179091556001600160a01b03861660009081526021602052604090208054600160c81b900490911691506019610b6f83611d0f565b82546101009290920a63ffffffff8181021990931691831602179091556001600160a01b038616600090815260216020526040902054600160a81b9004169050845b610bba81611085565b15610d28576001600160a01b03811660009081526021602052604090208054600160a81b900463ffffffff16816015610bf283611d0f565b91906101000a81548163ffffffff021916908363ffffffff16021790555050610c2e8160000160159054906101000a900463ffffffff16610ebd565b600182018054600090610c45908490600b0b611d32565b82546001600160601b039182166101009390930a9283029190920219909116179055506001810154610c7b908390600b0b611301565b6001600160a01b038781166000908152602160209081526040808320543084529281902054815160ff600160a01b830416815263ffffffff600160a81b8304811694820194909452600160c81b909104909216908201528483169291909116907fb03e738d0e6b0d74a2bfbcaa64c76a9dd601ecb77229d0982c9bfe946c8c39a79060600160405180910390a35463ffffffff600160a81b82041692506001600160a01b03169050610bb1565b84610d3d57610d38826001611d64565b610d3f565b815b6040805160a0810182526001600160a01b038916808252600090815260216020908152929020549294509190820190610d8390600160a01b900460ff166001611d88565b60ff1681526000602082018190526040820152606001610da284610ebd565b600b90810b9091526001600160a01b038981166000908152602160209081526040918290208551815492870151938701516060880151919095166001600160a81b031990931692909217600160a01b60ff909416939093029290921767ffffffffffffffff60a81b1916600160a81b63ffffffff9485160263ffffffff60c81b191617600160c81b91841691909102178155608090930151600190930180546bffffffffffffffffffffffff19166001600160601b039094169390931792839055610e759230928b9291900b906113d916565b508315610eb4576040516001600160a01b0388169085156108fc029086906000818181858888f19350505050158015610eb2573d6000803e3d6000fd5b505b50505050505050565b6000610ee0610edb63ffffffff841668270801d946c9400000611da1565b6113f8565b92915050565b6000600c8263ffffffff1611610f045750662386f26fc10000919050565b60188263ffffffff1611610f21575067016345785d8a0000919050565b60248263ffffffff1611610f3e57506702c68af0bb140000919050565b60308263ffffffff1611610f5b5750670429d069189e0000919050565b603c8263ffffffff1611610f78575067058d15e176280000919050565b50670de0b6b3a7640000919050565b610f8f61132d565b610fc7308260005b6040519080825280601f01601f191660200182016040528015610fc1576020820181803683370190505b50611440565b50565b602054600160a01b900460ff161561101a5760405162461bcd60e51b8152602060048201526013602482015272105b1c9958591e481a5b9a5d1a585b1a5e9959606a1b604482015260640161056f565b6020805460ff60a01b1916600160a01b178155604080518082018252600580825264086d8eac4b60db1b828501819052835180850190945290835292820192909252611067918391611495565b610fc730710125dfa371a19e6f7cb54395ca00000000006000610f97565b6001600160a01b0390811660009081526021602052604090205416151590565b6110ad61132d565b6110b681611085565b156111035760405162461bcd60e51b815260206004820152601c60248201527f436c75622070726f746567652063616e6e6f74206265206f776e657200000000604482015260640161056f565b610fc781611518565b61111461132d565b6001600160a01b03821661115d5760405162461bcd60e51b815260206004820152601060248201526f24b73b30b634b2103932b1b2b4bb32b960811b604482015260640161056f565b6000811161119e5760405162461bcd60e51b815260206004820152600e60248201526d125b9d985b1a5908185b5bdd5b9d60921b604482015260640161056f565b804710156111e35760405162461bcd60e51b81526020600482015260126024820152714e6f7420656e6f7567682062616c616e636560701b604482015260640161056f565b6040516001600160a01b0383169082156108fc029083906000818181858888f19350505050158015611219573d6000803e3d6000fd5b505050565b3660008037600080366000845af43d6000803e80801561123d573d6000f35b3d6000fd5b60008061124e8561158e565b604051631cd43d1160e31b81526001600160a01b03888116600483015287811660248301528681166044830152919350908316915063e6a1e88890606401608060405180830381865afa1580156112a9573d6000803e3d6000fd5b505050506040513d601f19601f820116820180604052508101906112cd9190611dd9565b5090979650505050505050565b604080516000808252602082019092526112f99085908590859061170f565b949350505050565b600061130e308085611242565b600b0b13156113225761121930838361183b565b6112193083836113d9565b6020546001600160a01b0316331461044d5760405162461bcd60e51b815260206004820181905260248201527f4f776e61626c653a2063616c6c6572206973206e6f7420746865206f776e6572604482015260640161056f565b602080546001600160a01b038381166001600160a01b0319831681179093556040519116919082907f8be0079c531659141344cd1fd0a4f28419497f9722a3daafe3b4186f6b6457e090600090a35050565b604080516000808252602082019092526112f99085908590859061185a565b600060016001605f1b0382111561143c5760405162461bcd60e51b81526020600482015260086024820152676f766572666c6f7760c01b604482015260640161056f565b5090565b60405163c68d428360e01b8152309063c68d42839061146790869086908690600401611e6d565b600060405180830381600087803b15801561148157600080fd5b505af1158015610eb4573d6000803e3d6000fd5b604051633504b4d160e21b81523060048201526001600160a01b0384169063d412d34490602401600060405180830381600087803b1580156114d657600080fd5b505af11580156114ea573d6000803e3d6000fd5b50506040516285fc1360e71b81523092506342fe098091506114679060009060129087908790600401611e9d565b61152061132d565b6001600160a01b0381166115855760405162461bcd60e51b815260206004820152602660248201527f4f776e61626c653a206e6577206f776e657220697320746865207a65726f206160448201526564647265737360d01b606482015260840161056f565b610fc781611387565b7f65599bf746e17a00ea62e3610586992d88101b78eec3cf380706621fb97ea837547fb969d79d88acd02d04ed7ee7d43b949e7daf093d363abcfbbc43dfdfd1ce969a546001600160a01b0381166116de576001600160a01b03821661165357826001600160a01b03166320bc44256040518163ffffffff1660e01b8152600401602060405180830381865afa15801561162c573d6000803e3d6000fd5b505050506040513d601f19601f820116820180604052508101906116509190611ee7565b91505b604051635b69006f60e11b81527fa9214cc96615e0085d3bb077758db69497dc2dce3b2b1e97bc93c3d18d83efd360048201526001600160a01b0383169063b6d200de90602401602060405180830381865afa1580156116b7573d6000803e3d6000fd5b505050506040513d601f19601f820116820180604052508101906116db9190611ee7565b90505b6001600160a01b0382166116f4576116f4611f04565b6001600160a01b03811661170a5761170a611f04565b915091565b600080600061171d876118e6565b91509150816001600160a01b03166339255d5b82836001600160a01b031663b4b333c68b8b8b600067ffffffffffffffff81111561175d5761175d611dc3565b6040519080825280601f01601f191660200182016040528015611787576020820181803683370190505b5060405160240161179b9493929190611f1a565b60408051808303601f1901815291815260208201805160e094851b6001600160e01b03909116179052519185901b6001600160e01b03191682526117e6939250908990600401611f58565b6000604051808303816000875af1158015611805573d6000803e3d6000fd5b505050506040513d6000823e601f3d908101601f1916820160405261182d9190810190611f8e565b506001979650505050505050565b604080516000808252602082019092526112f990859085908590611a91565b6000806000611868876118e6565b91509150816001600160a01b03166339255d5b82836001600160a01b03166362fc305e8b8b8b600067ffffffffffffffff8111156118a8576118a8611dc3565b6040519080825280601f01601f1916602001820160405280156118d2576020820181803683370190505b5060405160240161179b9493929190612030565b7f65599bf746e17a00ea62e3610586992d88101b78eec3cf380706621fb97ea837547fb969d79d88acd02d04ed7ee7d43b949e7daf093d363abcfbbc43dfdfd1ce969a546001600160a01b0381166116de576001600160a01b0382166119ab57826001600160a01b03166320bc44256040518163ffffffff1660e01b8152600401602060405180830381865afa158015611984573d6000803e3d6000fd5b505050506040513d601f19601f820116820180604052508101906119a89190611ee7565b91505b604051635b69006f60e11b81527fa9214cc96615e0085d3bb077758db69497dc2dce3b2b1e97bc93c3d18d83efd360048201526001600160a01b0383169063b6d200de90602401602060405180830381865afa158015611a0f573d6000803e3d6000fd5b505050506040513d601f19601f82011682018060405250810190611a339190611ee7565b9050817f65599bf746e17a00ea62e3610586992d88101b78eec3cf380706621fb97ea83755807fb969d79d88acd02d04ed7ee7d43b949e7daf093d363abcfbbc43dfdfd1ce969a556001600160a01b0382166116f4576116f4611f04565b6000806000611a9f876118e6565b91509150816001600160a01b03166339255d5b82836001600160a01b03166350209a628b8b8b600067ffffffffffffffff8111156118a8576118a8611dc3565b6040518060c001604052806006905b6040805160a081018252600080825260208083018290529282018190526060820181905260808201528252600019909201910181611aee5790505090565b6001600160a01b0381168114610fc757600080fd5b600060208284031215611b5357600080fd5b8135611b5e81611b2c565b9392505050565b80516001600160a01b0316825260208082015160ff169083015260408082015163ffffffff9081169184019190915260608083015190911690830152608090810151600b0b910152565b60a08101610ee08284611b65565b6103c08101818360005b6006811015611bf157611bdb838351611b65565b60a0929092019160209190910190600101611bc7565b50505092915050565b600060208284031215611c0c57600080fd5b813563ffffffff81168114611b5e57600080fd5b600060208284031215611c3257600080fd5b5035919050565b60008060408385031215611c4c57600080fd5b8235611c5781611b2c565b946020939093013593505050565b634e487b7160e01b600052601160045260246000fd5b600060018201611c8d57611c8d611c65565b5060010190565b634e487b7160e01b600052603260045260246000fd5b600063ffffffff821680611cc057611cc0611c65565b6000190192915050565b600b82810b9082900b036b7fffffffffffffffffffffff19811260016001605f1b0382131715610ee057610ee0611c65565b81810381811115610ee057610ee0611c65565b600063ffffffff808316818103611d2857611d28611c65565b6001019392505050565b600b81810b9083900b0160016001605f1b0381136b7fffffffffffffffffffffff1982121715610ee057610ee0611c65565b63ffffffff818116838216019080821115611d8157611d81611c65565b5092915050565b60ff8181168382160190811115610ee057610ee0611c65565b600082611dbe57634e487b7160e01b600052601260045260246000fd5b500490565b634e487b7160e01b600052604160045260246000fd5b60008060008060808587031215611def57600080fd5b84519350602085015180600b0b8114611e0757600080fd5b6040860151606090960151949790965092505050565b60005b83811015611e38578181015183820152602001611e20565b50506000910152565b60008151808452611e59816020860160208601611e1d565b601f01601f19169290920160200192915050565b60018060a01b0384168152826020820152606060408201526000611e946060830184611e41565b95945050505050565b6001600160a01b038516815260ff84166020820152608060408201819052600090611eca90830185611e41565b8281036060840152611edc8185611e41565b979650505050505050565b600060208284031215611ef957600080fd5b8151611b5e81611b2c565b634e487b7160e01b600052600160045260246000fd5b6001600160a01b038581168252848116602083015283166040820152608060608201819052600090611f4e90830184611e41565b9695505050505050565b6001600160a01b0384168152606060208201819052600090611f7c90830185611e41565b8281036040840152611f4e8185611e41565b600060208284031215611fa057600080fd5b815167ffffffffffffffff80821115611fb857600080fd5b818401915084601f830112611fcc57600080fd5b815181811115611fde57611fde611dc3565b604051601f8201601f19908116603f0116810190838211818310171561200657612006611dc3565b8160405282815287602084870101111561201f57600080fd5b611edc836020830160208801611e1d565b6001600160a01b03858116825284166020820152600b83900b6040820152608060608201819052600090611f4e90830184611e4156fea264697066735822122036938317052980c500dc62d80d3459a12af75be9361031edacb16d5788d447ce64736f6c63430008130033",
    "linkReferences": {}
  },
  "methodIdentifiers": {
    "FLAT_COST_SPONSORSHIP()": "b132a50d",
    "MAX_SPONSORSHIP_LEVEL()": "b5c0b7eb",
    "MAX_SPONSORSHIP_PATH_OUTFLOW()": "f349f56a",
    "calculateFlowRate(uint32)": "7ae058dc",
    "fee(uint32)": "8934c79a",
    "getChainOfSponsors(address)": "21fb177a",
    "getProtege(address)": "099e14ce",
    "initialize(address)": "c4d66de8",
    "initializeProxy(address)": "4a0687ef",
    "isProtege(address)": "e4a472c8",
    "mint(uint256)": "a0712d68",
    "owner()": "8da5cb5b",
    "remove(address)": "29092d0e",
    "renounceOwnership()": "715018a6",
    "restartStream()": "57cf7acb",
    "sponsor(address)": "766c4f37",
    "transferOwnership(address)": "f2fde38b",
    "withdraw(address,uint256)": "f3fef3a3"
  },
  "id": 115
}