{
  "abi": [
    {
      "inputs": [],
      "stateMutability": "nonpayable",
      "type": "constructor"
    },
    {
      "inputs": [],
      "name": "Initialized",
      "type": "error"
    },
    {
      "inputs": [],
      "name": "ZeroAddress",
      "type": "error"
    },
    {
      "anonymous": false,
      "inputs": [
        {
          "indexed": true,
          "internalType": "address",
          "name": "previousOwner",
          "type": "address"
        },
        {
          "indexed": true,
          "internalType": "address",
          "name": "newOwner",
          "type": "address"
        }
      ],
      "name": "OwnershipTransferred",
      "type": "event"
    },
    {
      "stateMutability": "payable",
      "type": "fallback"
    },
    {
      "inputs": [],
      "name": "FIRST_ELEMENT_PROGRESSION",
      "outputs": [
        {
          "internalType": "uint256",
          "name": "",
          "type": "uint256"
        }
      ],
      "stateMutability": "view",
      "type": "function"
    },
    {
      "inputs": [],
      "name": "FLAT_COST_SPONSORSHIP",
      "outputs": [
        {
          "internalType": "uint256",
          "name": "",
          "type": "uint256"
        }
      ],
      "stateMutability": "view",
      "type": "function"
    },
    {
      "inputs": [],
      "name": "MAX_SPONSORSHIP_LEVEL",
      "outputs": [
        {
          "internalType": "uint256",
          "name": "",
          "type": "uint256"
        }
      ],
      "stateMutability": "view",
      "type": "function"
    },
    {
      "inputs": [],
      "name": "MAX_SPONSORSHIP_PATH_OUTFLOW",
      "outputs": [
        {
          "internalType": "uint256",
          "name": "",
          "type": "uint256"
        }
      ],
      "stateMutability": "view",
      "type": "function"
    },
    {
      "inputs": [],
      "name": "SECONDS_IN_A_DAY",
      "outputs": [
        {
          "internalType": "uint256",
          "name": "",
          "type": "uint256"
        }
      ],
      "stateMutability": "view",
      "type": "function"
    },
    {
      "inputs": [
        {
          "internalType": "uint8",
          "name": "level",
          "type": "uint8"
        },
        {
          "internalType": "uint32",
          "name": "protegeCount",
          "type": "uint32"
        },
        {
          "internalType": "uint256",
          "name": "totalWeightedFactor",
          "type": "uint256"
        }
      ],
      "name": "calculateSponsorAmount",
      "outputs": [
        {
          "internalType": "int96",
          "name": "flow",
          "type": "int96"
        }
      ],
      "stateMutability": "pure",
      "type": "function"
    },
    {
      "inputs": [
        {
          "internalType": "uint8",
          "name": "level",
          "type": "uint8"
        }
      ],
      "name": "getAllocation",
      "outputs": [
        {
          "internalType": "uint256",
          "name": "allocation",
          "type": "uint256"
        }
      ],
      "stateMutability": "pure",
      "type": "function"
    },
    {
      "inputs": [
        {
          "internalType": "address",
          "name": "protege",
          "type": "address"
        }
      ],
      "name": "getChainOfSponsors",
      "outputs": [
        {
          "components": [
            {
              "internalType": "address",
              "name": "sponsor",
              "type": "address"
            },
            {
              "internalType": "uint8",
              "name": "level",
              "type": "uint8"
            },
            {
              "internalType": "uint32",
              "name": "protegeCount",
              "type": "uint32"
            }
          ],
          "internalType": "struct SuperfluidClub.Protege[6]",
          "name": "sponsors",
          "type": "tuple[6]"
        }
      ],
      "stateMutability": "view",
      "type": "function"
    },
    {
      "inputs": [
        {
          "internalType": "uint8",
          "name": "protegeLvl",
          "type": "uint8"
        }
      ],
      "name": "getFlowRateAmount",
      "outputs": [
        {
          "internalType": "int96",
          "name": "flowRate",
          "type": "int96"
        }
      ],
      "stateMutability": "pure",
      "type": "function"
    },
    {
      "inputs": [
        {
          "internalType": "uint8",
          "name": "sponsorLvl",
          "type": "uint8"
        }
      ],
      "name": "getMaxFlowRateByLevel",
      "outputs": [
        {
          "internalType": "int96",
          "name": "maxFlowRate",
          "type": "int96"
        }
      ],
      "stateMutability": "pure",
      "type": "function"
    },
    {
      "inputs": [
        {
          "internalType": "uint8",
          "name": "protegeLvl",
          "type": "uint8"
        }
      ],
      "name": "getProtegeLevelWeight",
      "outputs": [
        {
          "internalType": "uint256",
          "name": "levelWeight",
          "type": "uint256"
        }
      ],
      "stateMutability": "pure",
      "type": "function"
    },
    {
      "inputs": [
        {
          "internalType": "address",
          "name": "superTokenFactory",
          "type": "address"
        }
      ],
      "name": "initialize",
      "outputs": [],
      "stateMutability": "nonpayable",
      "type": "function"
    },
    {
      "inputs": [
        {
          "internalType": "address",
          "name": "initialAddress",
          "type": "address"
        }
      ],
      "name": "initializeProxy",
      "outputs": [],
      "stateMutability": "nonpayable",
      "type": "function"
    },
    {
      "inputs": [
        {
          "internalType": "address",
          "name": "protege",
          "type": "address"
        }
      ],
      "name": "isProtege",
      "outputs": [
        {
          "internalType": "bool",
          "name": "",
          "type": "bool"
        }
      ],
      "stateMutability": "view",
      "type": "function"
    },
    {
      "inputs": [
        {
          "internalType": "uint256",
          "name": "amount",
          "type": "uint256"
        }
      ],
      "name": "mint",
      "outputs": [],
      "stateMutability": "nonpayable",
      "type": "function"
    },
    {
      "inputs": [],
      "name": "owner",
      "outputs": [
        {
          "internalType": "address",
          "name": "",
          "type": "address"
        }
      ],
      "stateMutability": "view",
      "type": "function"
    },
    {
      "inputs": [],
      "name": "renounceOwnership",
      "outputs": [],
      "stateMutability": "nonpayable",
      "type": "function"
    },
    {
      "inputs": [
        {
          "internalType": "address payable",
          "name": "newProtege",
          "type": "address"
        }
      ],
      "name": "sponsorship",
      "outputs": [],
      "stateMutability": "payable",
      "type": "function"
    },
    {
      "inputs": [
        {
          "internalType": "address",
          "name": "newOwner",
          "type": "address"
        }
      ],
      "name": "transferOwnership",
      "outputs": [],
      "stateMutability": "nonpayable",
      "type": "function"
    },
    {
      "inputs": [
        {
          "internalType": "address",
          "name": "receiver",
          "type": "address"
        },
        {
          "internalType": "uint256",
          "name": "amount",
          "type": "uint256"
        }
      ],
      "name": "withdraw",
      "outputs": [],
      "stateMutability": "nonpayable",
      "type": "function"
    },
    {
      "stateMutability": "payable",
      "type": "receive"
    }
  ],
  "bytecode": {
    "object": "0x6080604052600060215534801561001557600080fd5b5061001f33610024565b610076565b602080546001600160a01b038381166001600160a01b0319831681179093556040519116919082907f8be0079c531659141344cd1fd0a4f28419497f9722a3daafe3b4186f6b6457e090600090a35050565b611b3c806100856000396000f3fe6080604052600436106101235760003560e01c8063b5c0b7eb116100a0578063f202de0711610064578063f202de0714610340578063f2fde38b14610353578063f349f56a14610373578063f3fef3a314610390578063f9cfa06f146103b05761012a565b8063b5c0b7eb1461029b578063c41a4735146102b0578063c4d66de8146102d0578063da3a6a12146102f0578063e4a472c8146103105761012a565b80638da5cb5b116100e75780638da5cb5b146101e9578063a0712d6814610210578063a2698fc014610230578063b132a50d1461024d578063b144a77b146102685761012a565b80631c945f591461013457806321fb177a146101675780634a0687ef14610194578063715018a6146101b457806378575643146101c95761012a565b3661012a57005b6101326103c7565b005b34801561014057600080fd5b5061015461014f366004611572565b6103f9565b6040519081526020015b60405180910390f35b34801561017357600080fd5b506101876101823660046115a9565b61041f565b60405161015e91906115c6565b3480156101a057600080fd5b506101326101af3660046115a9565b6104dc565b3480156101c057600080fd5b50610132610578565b3480156101d557600080fd5b506101546101e4366004611572565b61058a565b3480156101f557600080fd5b50602080546040516001600160a01b0390911681520161015e565b34801561021c57600080fd5b5061013261022b366004611623565b6105f8565b34801561023c57600080fd5b506101546813d64c843842b1000081565b34801561025957600080fd5b50610154662386f26fc1000081565b34801561027457600080fd5b5061028861028336600461163c565b61063b565b604051600b9190910b815260200161015e565b3480156102a757600080fd5b50610154600681565b3480156102bc57600080fd5b506102886102cb366004611572565b610697565b3480156102dc57600080fd5b506101326102eb3660046115a9565b610710565b3480156102fc57600080fd5b5061028861030b366004611572565b6107d0565b34801561031c57600080fd5b5061033061032b3660046115a9565b61085e565b604051901515815260200161015e565b61013261034e3660046115a9565b61087e565b34801561035f57600080fd5b5061013261036e3660046115a9565b610bf0565b34801561037f57600080fd5b5061015468270801d946c940000081565b34801561039c57600080fd5b506101326103ab366004611684565b610c66565b3480156103bc57600080fd5b506101546201518081565b6103f76103f27f360894a13ba1a3210667c828492db98dca3e2076cc3735a920a3ca505d382bbc5490565b610d78565b565b60006104068260026117aa565b610419906813d64c843842b100006117b9565b92915050565b610427611522565b8160005b6104348261085e565b156104d5576001600160a01b03828116600090815260226020908152604091829020825160608101845290549384168152600160a01b840460ff1691810191909152600160a81b90920463ffffffff16908201528382610493816117db565b9350600681106104a5576104a56117f4565b602090810291909101919091526001600160a01b039283166000908152602290915260409020549091169061042b565b5050919050565b6001600160a01b0381166105035760405163d92e233d60e01b815260040160405180910390fd5b600061052d7f360894a13ba1a3210667c828492db98dca3e2076cc3735a920a3ca505d382bbc5490565b6001600160a01b031614610554576040516302ed543d60e51b815260040160405180910390fd5b7f360894a13ba1a3210667c828492db98dca3e2076cc3735a920a3ca505d382bbc55565b610580610d9c565b6103f76000610df6565b60008160ff1660010361059f57506032919050565b8160ff166002036105b257506019919050565b8160ff166003036105c55750600c919050565b8160ff166004036105d857506006919050565b8160ff166005036105eb57506003919050565b506001919050565b919050565b610600610d9c565b610638308260005b6040519080825280601f01601f191660200182016040528015610632576020820181803683370190505b50610e48565b50565b6000808363ffffffff1661064e866103f9565b6106589190611820565b905061068e62015180846106758468270801d946c9400000611820565b61067f91906117b9565b61068991906117b9565b610ea6565b95945050505050565b6000806106a3836107d0565b9050600060646106b28561058a565b6106c59068270801d946c9400000611820565b6106cf91906117b9565b905060006bffffffffffffffffffffffff831682116106ee57816106fe565b6bffffffffffffffffffffffff83165b905061068e61068962015180836117b9565b602054600160a01b900460ff16156107655760405162461bcd60e51b8152602060048201526013602482015272105b1c9958591e481a5b9a5d1a585b1a5e9959606a1b60448201526064015b60405180910390fd5b6020805460ff60a01b1916600160a01b178155604080518082018252600580825264086d8eac4b60db1b8285018190528351808501909452908352928201929092526107b2918391610ef3565b61063830710125dfa371a19e6f7cb54395ca00000000006000610608565b60008160ff166001036107ec575067016345785d8a0000919050565b8160ff16600203610805575066b1a2bc2ec50000919050565b8160ff1660030361081e575066470de4df820000919050565b8160ff166004036108375750662386f26fc10000919050565b8160ff1660050361085057506611c37937e08000919050565b5066038d7ea4c68000919050565b6001600160a01b0390811660009081526022602052604090205416151590565b6108878161085e565b156108c95760405162461bcd60e51b8152602060048201526012602482015271416c726561647920612070726f746567652160701b604482015260640161075c565b6000806108de6020546001600160a01b031690565b6001600160a01b0316336001600160a01b0316146108fe57336000610902565b3060015b9150915061090f8261085e565b806109175750805b61095c5760405162461bcd60e51b8152602060048201526016602482015275596f7520617265206e6f7420612070726f746567652160501b604482015260640161075c565b6001600160a01b0382166000908152602260205260409020543490600160a01b900460ff16662386f26fc100008210156109cb5760405162461bcd60e51b815260206004820152601060248201526f4e6f7420656e6f75676820636f696e2160801b604482015260640161075c565b6109dc662386f26fc1000083611837565b915060068160ff1610610a315760405162461bcd60e51b815260206004820152601e60248201527f4d61782073706f6e736f7273686970206c6576656c2072656163686564210000604482015260640161075c565b6040518060600160405280856001600160a01b03168152602001826001610a58919061184a565b60ff9081168252600060209283018190526001600160a01b03808a1682526022845260408083208651815496880151979092015163ffffffff16600160a81b0263ffffffff60a81b1997909516600160a01b026001600160a81b03199096169190921617939093179390931617905581855b610ad38161085e565b15610b8d576001600160a01b03811660009081526022602052604090208054600160a81b900463ffffffff16816015610b0b83611863565b91906101000a81548163ffffffff021916908363ffffffff16021790555050610b33836103f9565b610b3d9085611886565b935082610b4981611899565b8254909450610b7c91508390610b7790600160a01b810460ff1690600160a81b900463ffffffff168861063b565b610f76565b546001600160a01b03169050610aca565b610ba788610b9f6102cb87600161184a565b309190610f9e565b508415610be6576040516001600160a01b0389169086156108fc029087906000818181858888f19350505050158015610be4573d6000803e3d6000fd5b505b5050505050505050565b610bf8610d9c565b6001600160a01b038116610c5d5760405162461bcd60e51b815260206004820152602660248201527f4f776e61626c653a206e6577206f776e657220697320746865207a65726f206160448201526564647265737360d01b606482015260840161075c565b61063881610df6565b610c6e610d9c565b6001600160a01b038216610cb75760405162461bcd60e51b815260206004820152601060248201526f24b73b30b634b2103932b1b2b4bb32b960811b604482015260640161075c565b60008111610cf85760405162461bcd60e51b815260206004820152600e60248201526d125b9d985b1a5908185b5bdd5b9d60921b604482015260640161075c565b80471015610d3d5760405162461bcd60e51b81526020600482015260126024820152714e6f7420656e6f7567682062616c616e636560701b604482015260640161075c565b6040516001600160a01b0383169082156108fc029083906000818181858888f19350505050158015610d73573d6000803e3d6000fd5b505050565b3660008037600080366000845af43d6000803e808015610d97573d6000f35b3d6000fd5b6020546001600160a01b031633146103f75760405162461bcd60e51b815260206004820181905260248201527f4f776e61626c653a2063616c6c6572206973206e6f7420746865206f776e6572604482015260640161075c565b602080546001600160a01b038381166001600160a01b0319831681179093556040519116919082907f8be0079c531659141344cd1fd0a4f28419497f9722a3daafe3b4186f6b6457e090600090a35050565b60405163c68d428360e01b8152309063c68d428390610e6f90869086908690600401611906565b600060405180830381600087803b158015610e8957600080fd5b505af1158015610e9d573d6000803e3d6000fd5b50505050505050565b60006b7fffffffffffffffffffffff821115610eef5760405162461bcd60e51b81526020600482015260086024820152676f766572666c6f7760c01b604482015260640161075c565b5090565b604051633504b4d160e21b81523060048201526001600160a01b0384169063d412d34490602401600060405180830381600087803b158015610f3457600080fd5b505af1158015610f48573d6000803e3d6000fd5b50506040516285fc1360e71b81523092506342fe09809150610e6f906000906012908790879060040161192d565b6000610f83308085610fc5565b600b0b1315610f9757610d7330838361105d565b610d733083835b60408051600080825260208201909252610fbd9085908590859061107c565b949350505050565b600080610fd1856111a8565b604051631cd43d1160e31b81526001600160a01b03888116600483015287811660248301528681166044830152919350908316915063e6a1e88890606401608060405180830381865afa15801561102c573d6000803e3d6000fd5b505050506040513d601f19601f820116820180604052508101906110509190611977565b5090979650505050505050565b60408051600080825260208201909252610fbd90859085908590611329565b600080600061108a87611377565b91509150816001600160a01b03166339255d5b82836001600160a01b03166362fc305e8b8b8b600067ffffffffffffffff8111156110ca576110ca61180a565b6040519080825280601f01601f1916602001820160405280156110f4576020820181803683370190505b5060405160240161110894939291906119bb565b60408051808303601f1901815291815260208201805160e094851b6001600160e01b03909116179052519185901b6001600160e01b03191682526111539392509089906004016119fb565b6000604051808303816000875af1158015611172573d6000803e3d6000fd5b505050506040513d6000823e601f3d908101601f1916820160405261119a9190810190611a31565b506001979650505050505050565b7f65599bf746e17a00ea62e3610586992d88101b78eec3cf380706621fb97ea837547fb969d79d88acd02d04ed7ee7d43b949e7daf093d363abcfbbc43dfdfd1ce969a546001600160a01b0381166112f8576001600160a01b03821661126d57826001600160a01b03166320bc44256040518163ffffffff1660e01b8152600401602060405180830381865afa158015611246573d6000803e3d6000fd5b505050506040513d601f19601f8201168201806040525081019061126a9190611ad3565b91505b604051635b69006f60e11b81527fa9214cc96615e0085d3bb077758db69497dc2dce3b2b1e97bc93c3d18d83efd360048201526001600160a01b0383169063b6d200de90602401602060405180830381865afa1580156112d1573d6000803e3d6000fd5b505050506040513d601f19601f820116820180604052508101906112f59190611ad3565b90505b6001600160a01b03821661130e5761130e611af0565b6001600160a01b03811661132457611324611af0565b915091565b600080600061133787611377565b91509150816001600160a01b03166339255d5b82836001600160a01b03166350209a628b8b8b600067ffffffffffffffff8111156110ca576110ca61180a565b7f65599bf746e17a00ea62e3610586992d88101b78eec3cf380706621fb97ea837547fb969d79d88acd02d04ed7ee7d43b949e7daf093d363abcfbbc43dfdfd1ce969a546001600160a01b0381166112f8576001600160a01b03821661143c57826001600160a01b03166320bc44256040518163ffffffff1660e01b8152600401602060405180830381865afa158015611415573d6000803e3d6000fd5b505050506040513d601f19601f820116820180604052508101906114399190611ad3565b91505b604051635b69006f60e11b81527fa9214cc96615e0085d3bb077758db69497dc2dce3b2b1e97bc93c3d18d83efd360048201526001600160a01b0383169063b6d200de90602401602060405180830381865afa1580156114a0573d6000803e3d6000fd5b505050506040513d601f19601f820116820180604052508101906114c49190611ad3565b9050817f65599bf746e17a00ea62e3610586992d88101b78eec3cf380706621fb97ea83755807fb969d79d88acd02d04ed7ee7d43b949e7daf093d363abcfbbc43dfdfd1ce969a556001600160a01b03821661130e5761130e611af0565b6040518060c001604052806006905b60408051606081018252600080825260208083018290529282015282526000199092019101816115315790505090565b803560ff811681146105f357600080fd5b60006020828403121561158457600080fd5b61158d82611561565b9392505050565b6001600160a01b038116811461063857600080fd5b6000602082840312156115bb57600080fd5b813561158d81611594565b6102408101818360005b600681101561161a57815180516001600160a01b0316845260208082015160ff168186015260409182015163ffffffff1691850191909152606090930192909101906001016115d0565b50505092915050565b60006020828403121561163557600080fd5b5035919050565b60008060006060848603121561165157600080fd5b61165a84611561565b9250602084013563ffffffff8116811461167357600080fd5b929592945050506040919091013590565b6000806040838503121561169757600080fd5b82356116a281611594565b946020939093013593505050565b634e487b7160e01b600052601160045260246000fd5b600181815b808511156117015781600019048211156116e7576116e76116b0565b808516156116f457918102915b93841c93908002906116cb565b509250929050565b60008261171857506001610419565b8161172557506000610419565b816001811461173b576002811461174557611761565b6001915050610419565b60ff841115611756576117566116b0565b50506001821b610419565b5060208310610133831016604e8410600b8410161715611784575081810a610419565b61178e83836116c6565b80600019048211156117a2576117a26116b0565b029392505050565b600061158d60ff841683611709565b6000826117d657634e487b7160e01b600052601260045260246000fd5b500490565b6000600182016117ed576117ed6116b0565b5060010190565b634e487b7160e01b600052603260045260246000fd5b634e487b7160e01b600052604160045260246000fd5b8082028115828204841417610419576104196116b0565b81810381811115610419576104196116b0565b60ff8181168382160190811115610419576104196116b0565b600063ffffffff80831681810361187c5761187c6116b0565b6001019392505050565b80820180821115610419576104196116b0565b600060ff8216806118ac576118ac6116b0565b6000190192915050565b60005b838110156118d15781810151838201526020016118b9565b50506000910152565b600081518084526118f28160208601602086016118b6565b601f01601f19169290920160200192915050565b60018060a01b038416815282602082015260606040820152600061068e60608301846118da565b6001600160a01b038516815260ff8416602082015260806040820181905260009061195a908301856118da565b828103606084015261196c81856118da565b979650505050505050565b6000806000806080858703121561198d57600080fd5b84519350602085015180600b0b81146119a557600080fd5b6040860151606090960151949790965092505050565b6001600160a01b03858116825284166020820152600b83900b60408201526080606082018190526000906119f1908301846118da565b9695505050505050565b6001600160a01b0384168152606060208201819052600090611a1f908301856118da565b82810360408401526119f181856118da565b600060208284031215611a4357600080fd5b815167ffffffffffffffff80821115611a5b57600080fd5b818401915084601f830112611a6f57600080fd5b815181811115611a8157611a8161180a565b604051601f8201601f19908116603f01168101908382118183101715611aa957611aa961180a565b81604052828152876020848701011115611ac257600080fd5b61196c8360208301602088016118b6565b600060208284031215611ae557600080fd5b815161158d81611594565b634e487b7160e01b600052600160045260246000fdfea2646970667358221220b597df22d9a9891d96115672777f6c306632fd4a8d2a8794c78dc14ccca03d6664736f6c63430008130033",
    "linkReferences": {}
  },
  "methodIdentifiers": {
    "FIRST_ELEMENT_PROGRESSION()": "a2698fc0",
    "FLAT_COST_SPONSORSHIP()": "b132a50d",
    "MAX_SPONSORSHIP_LEVEL()": "b5c0b7eb",
    "MAX_SPONSORSHIP_PATH_OUTFLOW()": "f349f56a",
    "SECONDS_IN_A_DAY()": "f9cfa06f",
    "calculateSponsorAmount(uint8,uint32,uint256)": "b144a77b",
    "getAllocation(uint8)": "1c945f59",
    "getChainOfSponsors(address)": "21fb177a",
    "getFlowRateAmount(uint8)": "c41a4735",
    "getMaxFlowRateByLevel(uint8)": "da3a6a12",
    "getProtegeLevelWeight(uint8)": "78575643",
    "initialize(address)": "c4d66de8",
    "initializeProxy(address)": "4a0687ef",
    "isProtege(address)": "e4a472c8",
    "mint(uint256)": "a0712d68",
    "owner()": "8da5cb5b",
    "renounceOwnership()": "715018a6",
    "sponsorship(address)": "f202de07",
    "transferOwnership(address)": "f2fde38b",
    "withdraw(address,uint256)": "f3fef3a3"
  },
  "id": 113
}