{
  "abi": [
    {
      "inputs": [],
      "stateMutability": "nonpayable",
      "type": "constructor"
    },
    {
      "inputs": [],
      "name": "Initialized",
      "type": "error"
    },
    {
      "inputs": [],
      "name": "ZeroAddress",
      "type": "error"
    },
    {
      "anonymous": false,
      "inputs": [
        {
          "indexed": true,
          "internalType": "address",
          "name": "previousOwner",
          "type": "address"
        },
        {
          "indexed": true,
          "internalType": "address",
          "name": "newOwner",
          "type": "address"
        }
      ],
      "name": "OwnershipTransferred",
      "type": "event"
    },
    {
      "stateMutability": "payable",
      "type": "fallback"
    },
    {
      "inputs": [],
      "name": "FIRST_ELEMENT_PROGRESSION",
      "outputs": [
        {
          "internalType": "uint256",
          "name": "",
          "type": "uint256"
        }
      ],
      "stateMutability": "view",
      "type": "function"
    },
    {
      "inputs": [],
      "name": "FLAT_COST_SPONSORSHIP",
      "outputs": [
        {
          "internalType": "uint256",
          "name": "",
          "type": "uint256"
        }
      ],
      "stateMutability": "view",
      "type": "function"
    },
    {
      "inputs": [],
      "name": "MAX_SPONSORSHIP_LEVEL",
      "outputs": [
        {
          "internalType": "uint256",
          "name": "",
          "type": "uint256"
        }
      ],
      "stateMutability": "view",
      "type": "function"
    },
    {
      "inputs": [],
      "name": "MAX_SPONSORSHIP_PATH_OUTFLOW",
      "outputs": [
        {
          "internalType": "uint256",
          "name": "",
          "type": "uint256"
        }
      ],
      "stateMutability": "view",
      "type": "function"
    },
    {
      "inputs": [],
      "name": "SECONDS_IN_A_DAY",
      "outputs": [
        {
          "internalType": "uint256",
          "name": "",
          "type": "uint256"
        }
      ],
      "stateMutability": "view",
      "type": "function"
    },
    {
      "inputs": [
        {
          "internalType": "uint8",
          "name": "level",
          "type": "uint8"
        },
        {
          "internalType": "uint32",
          "name": "protegeCount",
          "type": "uint32"
        },
        {
          "internalType": "uint256",
          "name": "totalWeightedFactor",
          "type": "uint256"
        }
      ],
      "name": "calculateSponsorAmount",
      "outputs": [
        {
          "internalType": "int96",
          "name": "flow",
          "type": "int96"
        }
      ],
      "stateMutability": "pure",
      "type": "function"
    },
    {
      "inputs": [
        {
          "internalType": "uint8",
          "name": "level",
          "type": "uint8"
        }
      ],
      "name": "getAllocation",
      "outputs": [
        {
          "internalType": "uint256",
          "name": "allocation",
          "type": "uint256"
        }
      ],
      "stateMutability": "pure",
      "type": "function"
    },
    {
      "inputs": [
        {
          "internalType": "address",
          "name": "protege",
          "type": "address"
        }
      ],
      "name": "getChainOfSponsors",
      "outputs": [
        {
          "components": [
            {
              "internalType": "address",
              "name": "sponsor",
              "type": "address"
            },
            {
              "internalType": "uint8",
              "name": "level",
              "type": "uint8"
            },
            {
              "internalType": "uint32",
              "name": "protegeCount",
              "type": "uint32"
            }
          ],
          "internalType": "struct SuperfluidClub.Protege[6]",
          "name": "sponsors",
          "type": "tuple[6]"
        }
      ],
      "stateMutability": "view",
      "type": "function"
    },
    {
      "inputs": [
        {
          "internalType": "uint8",
          "name": "protegeLvl",
          "type": "uint8"
        },
        {
          "internalType": "uint32",
          "name": "protegeCount",
          "type": "uint32"
        }
      ],
      "name": "getFlowRateAmount",
      "outputs": [
        {
          "internalType": "int96",
          "name": "flowRate",
          "type": "int96"
        }
      ],
      "stateMutability": "view",
      "type": "function"
    },
    {
      "inputs": [
        {
          "internalType": "uint8",
          "name": "sponsorLvl",
          "type": "uint8"
        }
      ],
      "name": "getMaxFlowRateByLevel",
      "outputs": [
        {
          "internalType": "int96",
          "name": "maxFlowRate",
          "type": "int96"
        }
      ],
      "stateMutability": "pure",
      "type": "function"
    },
    {
      "inputs": [
        {
          "internalType": "uint8",
          "name": "protegeLvl",
          "type": "uint8"
        }
      ],
      "name": "getProtegeLevelWeight",
      "outputs": [
        {
          "internalType": "uint256",
          "name": "levelWeight",
          "type": "uint256"
        }
      ],
      "stateMutability": "pure",
      "type": "function"
    },
    {
      "inputs": [
        {
          "internalType": "address",
          "name": "superTokenFactory",
          "type": "address"
        }
      ],
      "name": "initialize",
      "outputs": [],
      "stateMutability": "nonpayable",
      "type": "function"
    },
    {
      "inputs": [
        {
          "internalType": "address",
          "name": "initialAddress",
          "type": "address"
        }
      ],
      "name": "initializeProxy",
      "outputs": [],
      "stateMutability": "nonpayable",
      "type": "function"
    },
    {
      "inputs": [
        {
          "internalType": "address",
          "name": "protege",
          "type": "address"
        }
      ],
      "name": "isProtege",
      "outputs": [
        {
          "internalType": "bool",
          "name": "",
          "type": "bool"
        }
      ],
      "stateMutability": "view",
      "type": "function"
    },
    {
      "inputs": [
        {
          "internalType": "uint256",
          "name": "amount",
          "type": "uint256"
        }
      ],
      "name": "mint",
      "outputs": [],
      "stateMutability": "nonpayable",
      "type": "function"
    },
    {
      "inputs": [],
      "name": "owner",
      "outputs": [
        {
          "internalType": "address",
          "name": "",
          "type": "address"
        }
      ],
      "stateMutability": "view",
      "type": "function"
    },
    {
      "inputs": [],
      "name": "renounceOwnership",
      "outputs": [],
      "stateMutability": "nonpayable",
      "type": "function"
    },
    {
      "inputs": [
        {
          "internalType": "address payable",
          "name": "newProtege",
          "type": "address"
        }
      ],
      "name": "sponsor",
      "outputs": [],
      "stateMutability": "payable",
      "type": "function"
    },
    {
      "inputs": [
        {
          "internalType": "address",
          "name": "newOwner",
          "type": "address"
        }
      ],
      "name": "transferOwnership",
      "outputs": [],
      "stateMutability": "nonpayable",
      "type": "function"
    },
    {
      "inputs": [
        {
          "internalType": "address",
          "name": "receiver",
          "type": "address"
        },
        {
          "internalType": "uint256",
          "name": "amount",
          "type": "uint256"
        }
      ],
      "name": "withdraw",
      "outputs": [],
      "stateMutability": "nonpayable",
      "type": "function"
    },
    {
      "stateMutability": "payable",
      "type": "receive"
    }
  ],
  "bytecode": {
    "object": "0x608060405234801561001057600080fd5b5061001a3361001f565b610071565b602080546001600160a01b038381166001600160a01b0319831681179093556040519116919082907f8be0079c531659141344cd1fd0a4f28419497f9722a3daafe3b4186f6b6457e090600090a35050565b611b9b806100806000396000f3fe6080604052600436106101235760003560e01c8063b144a77b116100a0578063e4a472c811610064578063e4a472c814610323578063f2fde38b14610353578063f349f56a14610373578063f3fef3a314610390578063f9cfa06f146103b05761012a565b8063b144a77b1461027b578063b5c0b7eb146102ae578063bebf57b2146102c3578063c4d66de8146102e3578063da3a6a12146103035761012a565b806378575643116100e757806378575643146101dc5780638da5cb5b146101fc578063a0712d6814610223578063a2698fc014610243578063b132a50d146102605761012a565b80631c945f591461013457806321fb177a146101675780634a0687ef14610194578063715018a6146101b4578063766c4f37146101c95761012a565b3661012a57005b6101326103c7565b005b34801561014057600080fd5b5061015461014f3660046115a0565b6103f9565b6040519081526020015b60405180910390f35b34801561017357600080fd5b506101876101823660046115d7565b61041f565b60405161015e91906115f4565b3480156101a057600080fd5b506101326101af3660046115d7565b6104dc565b3480156101c057600080fd5b50610132610578565b6101326101d73660046115d7565b61058a565b3480156101e857600080fd5b506101546101f73660046115a0565b61092e565b34801561020857600080fd5b50602080546040516001600160a01b0390911681520161015e565b34801561022f57600080fd5b5061013261023e366004611651565b61099c565b34801561024f57600080fd5b506101546813d64c843842b1000081565b34801561026c57600080fd5b50610154662386f26fc1000081565b34801561028757600080fd5b5061029b61029636600461167e565b6109df565b604051600b9190910b815260200161015e565b3480156102ba57600080fd5b50610154600681565b3480156102cf57600080fd5b5061029b6102de3660046116ba565b610a3b565b3480156102ef57600080fd5b506101326102fe3660046115d7565b610abe565b34801561030f57600080fd5b5061029b61031e3660046115a0565b610b79565b34801561032f57600080fd5b5061034361033e3660046115d7565b610c07565b604051901515815260200161015e565b34801561035f57600080fd5b5061013261036e3660046115d7565b610c27565b34801561037f57600080fd5b5061015468270801d946c940000081565b34801561039c57600080fd5b506101326103ab3660046116ed565b610c9d565b3480156103bc57600080fd5b506101546201518081565b6103f76103f27f360894a13ba1a3210667c828492db98dca3e2076cc3735a920a3ca505d382bbc5490565b610daf565b565b6000610406826002611813565b610419906813d64c843842b10000611822565b92915050565b610427611550565b8160005b61043482610c07565b156104d5576001600160a01b03828116600090815260216020908152604091829020825160608101845290549384168152600160a01b840460ff1691810191909152600160a81b90920463ffffffff1690820152838261049381611844565b9350600681106104a5576104a561185d565b602090810291909101919091526001600160a01b039283166000908152602190915260409020549091169061042b565b5050919050565b6001600160a01b0381166105035760405163d92e233d60e01b815260040160405180910390fd5b600061052d7f360894a13ba1a3210667c828492db98dca3e2076cc3735a920a3ca505d382bbc5490565b6001600160a01b031614610554576040516302ed543d60e51b815260040160405180910390fd5b7f360894a13ba1a3210667c828492db98dca3e2076cc3735a920a3ca505d382bbc55565b610580610dd3565b6103f76000610e2d565b61059381610c07565b156105da5760405162461bcd60e51b8152602060048201526012602482015271416c726561647920612070726f746567652160701b60448201526064015b60405180910390fd5b6000806105ef6020546001600160a01b031690565b6001600160a01b0316336001600160a01b03161461060f57336000610613565b3060015b9150915061062082610c07565b806106285750805b61066d5760405162461bcd60e51b8152602060048201526016602482015275596f7520617265206e6f7420612070726f746567652160501b60448201526064016105d1565b6001600160a01b0382166000908152602160205260409020543490600160a01b900460ff16662386f26fc100008210156106dc5760405162461bcd60e51b815260206004820152601060248201526f4e6f7420656e6f75676820636f696e2160801b60448201526064016105d1565b6106ed662386f26fc1000083611873565b915060068160ff16106107425760405162461bcd60e51b815260206004820152601e60248201527f4d61782073706f6e736f7273686970206c6576656c207265616368656421000060448201526064016105d1565b6040518060600160405280856001600160a01b031681526020018260016107699190611886565b60ff9081168252600060209283018190526001600160a01b03808a1682526021845260408083208651815496880151979092015163ffffffff16600160a81b0263ffffffff60a81b1997909516600160a01b026001600160a81b03199096169190921617939093179390931617905581855b6107e481610c07565b156108c4576001600160a01b03811660009081526021602052604090208054600160a81b900463ffffffff1690601561081c8361189f565b91906101000a81548163ffffffff021916908363ffffffff16021790555050610844826103f9565b61084e90846118c2565b92508161085a816118d5565b6001600160a01b0383166000908152602160205260409020549093506108a49150829061089f90600160a01b810460ff1690600160a81b900463ffffffff16876109df565b610e7f565b6001600160a01b03908116600090815260216020526040902054166107db565b506108e6876108de6108d7866001611886565b6000610a3b565b309190610ea7565b508315610925576040516001600160a01b0388169085156108fc029086906000818181858888f19350505050158015610923573d6000803e3d6000fd5b505b50505050505050565b60008160ff1660010361094357506032919050565b8160ff1660020361095657506019919050565b8160ff166003036109695750600c919050565b8160ff1660040361097c57506006919050565b8160ff1660050361098f57506003919050565b506001919050565b919050565b6109a4610dd3565b6109dc308260005b6040519080825280601f01601f1916602001820160405280156109d6576020820181803683370190505b50610ece565b50565b6000808363ffffffff166109f2866103f9565b6109fc9190611908565b9050610a326201518084610a198468270801d946c9400000611908565b610a239190611822565b610a2d9190611822565b610f23565b95945050505050565b600080610a4784610b79565b905060006064610a568661092e565b610a699068270801d946c9400000611908565b610a739190611822565b905060006bffffffffffffffffffffffff83168211610a925781610aa2565b6bffffffffffffffffffffffff83165b9050610ab4610a2d6201518083611822565b9695505050505050565b602054600160a01b900460ff1615610b0e5760405162461bcd60e51b8152602060048201526013602482015272105b1c9958591e481a5b9a5d1a585b1a5e9959606a1b60448201526064016105d1565b6020805460ff60a01b1916600160a01b178155604080518082018252600580825264086d8eac4b60db1b828501819052835180850190945290835292820192909252610b5b918391610f70565b6109dc30710125dfa371a19e6f7cb54395ca000000000060006109ac565b60008160ff16600103610b95575067016345785d8a0000919050565b8160ff16600203610bae575066b1a2bc2ec50000919050565b8160ff16600303610bc7575066470de4df820000919050565b8160ff16600403610be05750662386f26fc10000919050565b8160ff16600503610bf957506611c37937e08000919050565b5066038d7ea4c68000919050565b6001600160a01b0390811660009081526021602052604090205416151590565b610c2f610dd3565b6001600160a01b038116610c945760405162461bcd60e51b815260206004820152602660248201527f4f776e61626c653a206e6577206f776e657220697320746865207a65726f206160448201526564647265737360d01b60648201526084016105d1565b6109dc81610e2d565b610ca5610dd3565b6001600160a01b038216610cee5760405162461bcd60e51b815260206004820152601060248201526f24b73b30b634b2103932b1b2b4bb32b960811b60448201526064016105d1565b60008111610d2f5760405162461bcd60e51b815260206004820152600e60248201526d125b9d985b1a5908185b5bdd5b9d60921b60448201526064016105d1565b80471015610d745760405162461bcd60e51b81526020600482015260126024820152714e6f7420656e6f7567682062616c616e636560701b60448201526064016105d1565b6040516001600160a01b0383169082156108fc029083906000818181858888f19350505050158015610daa573d6000803e3d6000fd5b505050565b3660008037600080366000845af43d6000803e808015610dce573d6000f35b3d6000fd5b6020546001600160a01b031633146103f75760405162461bcd60e51b815260206004820181905260248201527f4f776e61626c653a2063616c6c6572206973206e6f7420746865206f776e657260448201526064016105d1565b602080546001600160a01b038381166001600160a01b0319831681179093556040519116919082907f8be0079c531659141344cd1fd0a4f28419497f9722a3daafe3b4186f6b6457e090600090a35050565b6000610e8c308085610ff3565b600b0b1315610ea057610daa30838361108b565b610daa3083835b60408051600080825260208201909252610ec6908590859085906110aa565b949350505050565b60405163c68d428360e01b8152309063c68d428390610ef59086908690869060040161196f565b600060405180830381600087803b158015610f0f57600080fd5b505af1158015610925573d6000803e3d6000fd5b60006b7fffffffffffffffffffffff821115610f6c5760405162461bcd60e51b81526020600482015260086024820152676f766572666c6f7760c01b60448201526064016105d1565b5090565b604051633504b4d160e21b81523060048201526001600160a01b0384169063d412d34490602401600060405180830381600087803b158015610fb157600080fd5b505af1158015610fc5573d6000803e3d6000fd5b50506040516285fc1360e71b81523092506342fe09809150610ef59060009060129087908790600401611996565b600080610fff856111d6565b604051631cd43d1160e31b81526001600160a01b03888116600483015287811660248301528681166044830152919350908316915063e6a1e88890606401608060405180830381865afa15801561105a573d6000803e3d6000fd5b505050506040513d601f19601f8201168201806040525081019061107e91906119e0565b5090979650505050505050565b60408051600080825260208201909252610ec690859085908590611357565b60008060006110b8876113a5565b91509150816001600160a01b03166339255d5b82836001600160a01b03166362fc305e8b8b8b600067ffffffffffffffff8111156110f8576110f86118f2565b6040519080825280601f01601f191660200182016040528015611122576020820181803683370190505b506040516024016111369493929190611a24565b60408051808303601f1901815291815260208201805160e094851b6001600160e01b03909116179052519185901b6001600160e01b0319168252611181939250908990600401611a5a565b6000604051808303816000875af11580156111a0573d6000803e3d6000fd5b505050506040513d6000823e601f3d908101601f191682016040526111c89190810190611a90565b506001979650505050505050565b7f65599bf746e17a00ea62e3610586992d88101b78eec3cf380706621fb97ea837547fb969d79d88acd02d04ed7ee7d43b949e7daf093d363abcfbbc43dfdfd1ce969a546001600160a01b038116611326576001600160a01b03821661129b57826001600160a01b03166320bc44256040518163ffffffff1660e01b8152600401602060405180830381865afa158015611274573d6000803e3d6000fd5b505050506040513d601f19601f820116820180604052508101906112989190611b32565b91505b604051635b69006f60e11b81527fa9214cc96615e0085d3bb077758db69497dc2dce3b2b1e97bc93c3d18d83efd360048201526001600160a01b0383169063b6d200de90602401602060405180830381865afa1580156112ff573d6000803e3d6000fd5b505050506040513d601f19601f820116820180604052508101906113239190611b32565b90505b6001600160a01b03821661133c5761133c611b4f565b6001600160a01b03811661135257611352611b4f565b915091565b6000806000611365876113a5565b91509150816001600160a01b03166339255d5b82836001600160a01b03166350209a628b8b8b600067ffffffffffffffff8111156110f8576110f86118f2565b7f65599bf746e17a00ea62e3610586992d88101b78eec3cf380706621fb97ea837547fb969d79d88acd02d04ed7ee7d43b949e7daf093d363abcfbbc43dfdfd1ce969a546001600160a01b038116611326576001600160a01b03821661146a57826001600160a01b03166320bc44256040518163ffffffff1660e01b8152600401602060405180830381865afa158015611443573d6000803e3d6000fd5b505050506040513d601f19601f820116820180604052508101906114679190611b32565b91505b604051635b69006f60e11b81527fa9214cc96615e0085d3bb077758db69497dc2dce3b2b1e97bc93c3d18d83efd360048201526001600160a01b0383169063b6d200de90602401602060405180830381865afa1580156114ce573d6000803e3d6000fd5b505050506040513d601f19601f820116820180604052508101906114f29190611b32565b9050817f65599bf746e17a00ea62e3610586992d88101b78eec3cf380706621fb97ea83755807fb969d79d88acd02d04ed7ee7d43b949e7daf093d363abcfbbc43dfdfd1ce969a556001600160a01b03821661133c5761133c611b4f565b6040518060c001604052806006905b604080516060810182526000808252602080830182905292820152825260001990920191018161155f5790505090565b803560ff8116811461099757600080fd5b6000602082840312156115b257600080fd5b6115bb8261158f565b9392505050565b6001600160a01b03811681146109dc57600080fd5b6000602082840312156115e957600080fd5b81356115bb816115c2565b6102408101818360005b600681101561164857815180516001600160a01b0316845260208082015160ff168186015260409182015163ffffffff1691850191909152606090930192909101906001016115fe565b50505092915050565b60006020828403121561166357600080fd5b5035919050565b803563ffffffff8116811461099757600080fd5b60008060006060848603121561169357600080fd5b61169c8461158f565b92506116aa6020850161166a565b9150604084013590509250925092565b600080604083850312156116cd57600080fd5b6116d68361158f565b91506116e46020840161166a565b90509250929050565b6000806040838503121561170057600080fd5b823561170b816115c2565b946020939093013593505050565b634e487b7160e01b600052601160045260246000fd5b600181815b8085111561176a57816000190482111561175057611750611719565b8085161561175d57918102915b93841c9390800290611734565b509250929050565b60008261178157506001610419565b8161178e57506000610419565b81600181146117a457600281146117ae576117ca565b6001915050610419565b60ff8411156117bf576117bf611719565b50506001821b610419565b5060208310610133831016604e8410600b84101617156117ed575081810a610419565b6117f7838361172f565b806000190482111561180b5761180b611719565b029392505050565b60006115bb60ff841683611772565b60008261183f57634e487b7160e01b600052601260045260246000fd5b500490565b60006001820161185657611856611719565b5060010190565b634e487b7160e01b600052603260045260246000fd5b8181038181111561041957610419611719565b60ff818116838216019081111561041957610419611719565b600063ffffffff8083168181036118b8576118b8611719565b6001019392505050565b8082018082111561041957610419611719565b600060ff8216806118e8576118e8611719565b6000190192915050565b634e487b7160e01b600052604160045260246000fd5b808202811582820484141761041957610419611719565b60005b8381101561193a578181015183820152602001611922565b50506000910152565b6000815180845261195b81602086016020860161191f565b601f01601f19169290920160200192915050565b60018060a01b0384168152826020820152606060408201526000610a326060830184611943565b6001600160a01b038516815260ff841660208201526080604082018190526000906119c390830185611943565b82810360608401526119d58185611943565b979650505050505050565b600080600080608085870312156119f657600080fd5b84519350602085015180600b0b8114611a0e57600080fd5b6040860151606090960151949790965092505050565b6001600160a01b03858116825284166020820152600b83900b6040820152608060608201819052600090610ab490830184611943565b6001600160a01b0384168152606060208201819052600090611a7e90830185611943565b8281036040840152610ab48185611943565b600060208284031215611aa257600080fd5b815167ffffffffffffffff80821115611aba57600080fd5b818401915084601f830112611ace57600080fd5b815181811115611ae057611ae06118f2565b604051601f8201601f19908116603f01168101908382118183101715611b0857611b086118f2565b81604052828152876020848701011115611b2157600080fd5b6119d583602083016020880161191f565b600060208284031215611b4457600080fd5b81516115bb816115c2565b634e487b7160e01b600052600160045260246000fdfea26469706673582212208344f0e232ed6ea0e0516e610e70aac6f62ced7787463c6064a33d746c4481db64736f6c63430008130033",
    "linkReferences": {}
  },
  "methodIdentifiers": {
    "FIRST_ELEMENT_PROGRESSION()": "a2698fc0",
    "FLAT_COST_SPONSORSHIP()": "b132a50d",
    "MAX_SPONSORSHIP_LEVEL()": "b5c0b7eb",
    "MAX_SPONSORSHIP_PATH_OUTFLOW()": "f349f56a",
    "SECONDS_IN_A_DAY()": "f9cfa06f",
    "calculateSponsorAmount(uint8,uint32,uint256)": "b144a77b",
    "getAllocation(uint8)": "1c945f59",
    "getChainOfSponsors(address)": "21fb177a",
    "getFlowRateAmount(uint8,uint32)": "bebf57b2",
    "getMaxFlowRateByLevel(uint8)": "da3a6a12",
    "getProtegeLevelWeight(uint8)": "78575643",
    "initialize(address)": "c4d66de8",
    "initializeProxy(address)": "4a0687ef",
    "isProtege(address)": "e4a472c8",
    "mint(uint256)": "a0712d68",
    "owner()": "8da5cb5b",
    "renounceOwnership()": "715018a6",
    "sponsor(address)": "766c4f37",
    "transferOwnership(address)": "f2fde38b",
    "withdraw(address,uint256)": "f3fef3a3"
  },
  "id": 113
}