{
  "abi": [
    {
      "inputs": [
        {
          "internalType": "contract ISuperfluid",
          "name": "host",
          "type": "address"
        },
        {
          "internalType": "contract IConstantOutflowNFT",
          "name": "constantOutflowNFT",
          "type": "address"
        },
        {
          "internalType": "contract IConstantInflowNFT",
          "name": "constantInflowNFT",
          "type": "address"
        }
      ],
      "stateMutability": "nonpayable",
      "type": "constructor"
    },
    {
      "inputs": [],
      "name": "ALREADY_PROTEGE",
      "type": "error"
    },
    {
      "inputs": [],
      "name": "CLUB_NFT_PROXY_ADDRESS_CHANGED",
      "type": "error"
    },
    {
      "inputs": [],
      "name": "CLUB_PROTEGE_CANNOT_BE_OWNER",
      "type": "error"
    },
    {
      "inputs": [],
      "name": "INVALID_AMOUNT",
      "type": "error"
    },
    {
      "inputs": [],
      "name": "MAX_SPONSORSHIP_LEVEL_REACHED",
      "type": "error"
    },
    {
      "inputs": [],
      "name": "NOT_ENOUGH_BALANCE",
      "type": "error"
    },
    {
      "inputs": [],
      "name": "NOT_ENOUGH_COIN",
      "type": "error"
    },
    {
      "inputs": [],
      "name": "NOT_OWNER",
      "type": "error"
    },
    {
      "inputs": [],
      "name": "NOT_PROTEGE",
      "type": "error"
    },
    {
      "inputs": [],
      "name": "SF_TOKEN_AGREEMENT_ALREADY_EXISTS",
      "type": "error"
    },
    {
      "inputs": [],
      "name": "SF_TOKEN_AGREEMENT_DOES_NOT_EXIST",
      "type": "error"
    },
    {
      "inputs": [],
      "name": "SF_TOKEN_BURN_INSUFFICIENT_BALANCE",
      "type": "error"
    },
    {
      "inputs": [],
      "name": "SF_TOKEN_MOVE_INSUFFICIENT_BALANCE",
      "type": "error"
    },
    {
      "inputs": [],
      "name": "SF_TOKEN_ONLY_HOST",
      "type": "error"
    },
    {
      "inputs": [],
      "name": "SF_TOKEN_ONLY_LISTED_AGREEMENT",
      "type": "error"
    },
    {
      "inputs": [],
      "name": "SUPER_TOKEN_APPROVE_FROM_ZERO_ADDRESS",
      "type": "error"
    },
    {
      "inputs": [],
      "name": "SUPER_TOKEN_APPROVE_TO_ZERO_ADDRESS",
      "type": "error"
    },
    {
      "inputs": [],
      "name": "SUPER_TOKEN_BURN_FROM_ZERO_ADDRESS",
      "type": "error"
    },
    {
      "inputs": [],
      "name": "SUPER_TOKEN_CALLER_IS_NOT_OPERATOR_FOR_HOLDER",
      "type": "error"
    },
    {
      "inputs": [],
      "name": "SUPER_TOKEN_INFLATIONARY_DEFLATIONARY_NOT_SUPPORTED",
      "type": "error"
    },
    {
      "inputs": [],
      "name": "SUPER_TOKEN_MINT_TO_ZERO_ADDRESS",
      "type": "error"
    },
    {
      "inputs": [],
      "name": "SUPER_TOKEN_NFT_PROXY_ADDRESS_CHANGED",
      "type": "error"
    },
    {
      "inputs": [],
      "name": "SUPER_TOKEN_NOT_ERC777_TOKENS_RECIPIENT",
      "type": "error"
    },
    {
      "inputs": [],
      "name": "SUPER_TOKEN_NO_UNDERLYING_TOKEN",
      "type": "error"
    },
    {
      "inputs": [],
      "name": "SUPER_TOKEN_ONLY_GOV_OWNER",
      "type": "error"
    },
    {
      "inputs": [],
      "name": "SUPER_TOKEN_ONLY_HOST",
      "type": "error"
    },
    {
      "inputs": [],
      "name": "SUPER_TOKEN_ONLY_SELF",
      "type": "error"
    },
    {
      "inputs": [],
      "name": "SUPER_TOKEN_TRANSFER_FROM_ZERO_ADDRESS",
      "type": "error"
    },
    {
      "inputs": [],
      "name": "SUPER_TOKEN_TRANSFER_TO_ZERO_ADDRESS",
      "type": "error"
    },
    {
      "inputs": [],
      "name": "ZERO_ADDRESS",
      "type": "error"
    },
    {
      "anonymous": false,
      "inputs": [
        {
          "indexed": true,
          "internalType": "address",
          "name": "agreementClass",
          "type": "address"
        },
        {
          "indexed": false,
          "internalType": "bytes32",
          "name": "id",
          "type": "bytes32"
        },
        {
          "indexed": false,
          "internalType": "bytes32[]",
          "name": "data",
          "type": "bytes32[]"
        }
      ],
      "name": "AgreementCreated",
      "type": "event"
    },
    {
      "anonymous": false,
      "inputs": [
        {
          "indexed": true,
          "internalType": "address",
          "name": "agreementClass",
          "type": "address"
        },
        {
          "indexed": false,
          "internalType": "bytes32",
          "name": "id",
          "type": "bytes32"
        },
        {
          "indexed": true,
          "internalType": "address",
          "name": "penaltyAccount",
          "type": "address"
        },
        {
          "indexed": true,
          "internalType": "address",
          "name": "rewardAccount",
          "type": "address"
        },
        {
          "indexed": false,
          "internalType": "uint256",
          "name": "rewardAmount",
          "type": "uint256"
        }
      ],
      "name": "AgreementLiquidated",
      "type": "event"
    },
    {
      "anonymous": false,
      "inputs": [
        {
          "indexed": false,
          "internalType": "address",
          "name": "liquidatorAccount",
          "type": "address"
        },
        {
          "indexed": true,
          "internalType": "address",
          "name": "agreementClass",
          "type": "address"
        },
        {
          "indexed": false,
          "internalType": "bytes32",
          "name": "id",
          "type": "bytes32"
        },
        {
          "indexed": true,
          "internalType": "address",
          "name": "penaltyAccount",
          "type": "address"
        },
        {
          "indexed": true,
          "internalType": "address",
          "name": "bondAccount",
          "type": "address"
        },
        {
          "indexed": false,
          "internalType": "uint256",
          "name": "rewardAmount",
          "type": "uint256"
        },
        {
          "indexed": false,
          "internalType": "uint256",
          "name": "bailoutAmount",
          "type": "uint256"
        }
      ],
      "name": "AgreementLiquidatedBy",
      "type": "event"
    },
    {
      "anonymous": false,
      "inputs": [
        {
          "indexed": true,
          "internalType": "address",
          "name": "agreementClass",
          "type": "address"
        },
        {
          "indexed": false,
          "internalType": "bytes32",
          "name": "id",
          "type": "bytes32"
        },
        {
          "indexed": true,
          "internalType": "address",
          "name": "liquidatorAccount",
          "type": "address"
        },
        {
          "indexed": true,
          "internalType": "address",
          "name": "targetAccount",
          "type": "address"
        },
        {
          "indexed": false,
          "internalType": "address",
          "name": "rewardAmountReceiver",
          "type": "address"
        },
        {
          "indexed": false,
          "internalType": "uint256",
          "name": "rewardAmount",
          "type": "uint256"
        },
        {
          "indexed": false,
          "internalType": "int256",
          "name": "targetAccountBalanceDelta",
          "type": "int256"
        },
        {
          "indexed": false,
          "internalType": "bytes",
          "name": "liquidationTypeData",
          "type": "bytes"
        }
      ],
      "name": "AgreementLiquidatedV2",
      "type": "event"
    },
    {
      "anonymous": false,
      "inputs": [
        {
          "indexed": true,
          "internalType": "address",
          "name": "agreementClass",
          "type": "address"
        },
        {
          "indexed": true,
          "internalType": "address",
          "name": "account",
          "type": "address"
        },
        {
          "indexed": false,
          "internalType": "uint256",
          "name": "slotId",
          "type": "uint256"
        }
      ],
      "name": "AgreementStateUpdated",
      "type": "event"
    },
    {
      "anonymous": false,
      "inputs": [
        {
          "indexed": true,
          "internalType": "address",
          "name": "agreementClass",
          "type": "address"
        },
        {
          "indexed": false,
          "internalType": "bytes32",
          "name": "id",
          "type": "bytes32"
        }
      ],
      "name": "AgreementTerminated",
      "type": "event"
    },
    {
      "anonymous": false,
      "inputs": [
        {
          "indexed": true,
          "internalType": "address",
          "name": "agreementClass",
          "type": "address"
        },
        {
          "indexed": false,
          "internalType": "bytes32",
          "name": "id",
          "type": "bytes32"
        },
        {
          "indexed": false,
          "internalType": "bytes32[]",
          "name": "data",
          "type": "bytes32[]"
        }
      ],
      "name": "AgreementUpdated",
      "type": "event"
    },
    {
      "anonymous": false,
      "inputs": [
        {
          "indexed": true,
          "internalType": "address",
          "name": "owner",
          "type": "address"
        },
        {
          "indexed": true,
          "internalType": "address",
          "name": "spender",
          "type": "address"
        },
        {
          "indexed": false,
          "internalType": "uint256",
          "name": "value",
          "type": "uint256"
        }
      ],
      "name": "Approval",
      "type": "event"
    },
    {
      "anonymous": false,
      "inputs": [
        {
          "indexed": true,
          "internalType": "address",
          "name": "operator",
          "type": "address"
        },
        {
          "indexed": true,
          "internalType": "address",
          "name": "tokenHolder",
          "type": "address"
        }
      ],
      "name": "AuthorizedOperator",
      "type": "event"
    },
    {
      "anonymous": false,
      "inputs": [
        {
          "indexed": true,
          "internalType": "address",
          "name": "bailoutAccount",
          "type": "address"
        },
        {
          "indexed": false,
          "internalType": "uint256",
          "name": "bailoutAmount",
          "type": "uint256"
        }
      ],
      "name": "Bailout",
      "type": "event"
    },
    {
      "anonymous": false,
      "inputs": [
        {
          "indexed": true,
          "internalType": "address",
          "name": "operator",
          "type": "address"
        },
        {
          "indexed": true,
          "internalType": "address",
          "name": "from",
          "type": "address"
        },
        {
          "indexed": false,
          "internalType": "uint256",
          "name": "amount",
          "type": "uint256"
        },
        {
          "indexed": false,
          "internalType": "bytes",
          "name": "data",
          "type": "bytes"
        },
        {
          "indexed": false,
          "internalType": "bytes",
          "name": "operatorData",
          "type": "bytes"
        }
      ],
      "name": "Burned",
      "type": "event"
    },
    {
      "anonymous": false,
      "inputs": [
        {
          "indexed": false,
          "internalType": "bytes32",
          "name": "uuid",
          "type": "bytes32"
        },
        {
          "indexed": false,
          "internalType": "address",
          "name": "codeAddress",
          "type": "address"
        }
      ],
      "name": "CodeUpdated",
      "type": "event"
    },
    {
      "anonymous": false,
      "inputs": [
        {
          "indexed": true,
          "internalType": "contract IConstantInflowNFT",
          "name": "constantInflowNFT",
          "type": "address"
        }
      ],
      "name": "ConstantInflowNFTCreated",
      "type": "event"
    },
    {
      "anonymous": false,
      "inputs": [
        {
          "indexed": true,
          "internalType": "contract IConstantOutflowNFT",
          "name": "constantOutflowNFT",
          "type": "address"
        }
      ],
      "name": "ConstantOutflowNFTCreated",
      "type": "event"
    },
    {
      "anonymous": false,
      "inputs": [
        {
          "indexed": false,
          "internalType": "uint8",
          "name": "version",
          "type": "uint8"
        }
      ],
      "name": "Initialized",
      "type": "event"
    },
    {
      "anonymous": false,
      "inputs": [
        {
          "indexed": true,
          "internalType": "address",
          "name": "operator",
          "type": "address"
        },
        {
          "indexed": true,
          "internalType": "address",
          "name": "to",
          "type": "address"
        },
        {
          "indexed": false,
          "internalType": "uint256",
          "name": "amount",
          "type": "uint256"
        },
        {
          "indexed": false,
          "internalType": "bytes",
          "name": "data",
          "type": "bytes"
        },
        {
          "indexed": false,
          "internalType": "bytes",
          "name": "operatorData",
          "type": "bytes"
        }
      ],
      "name": "Minted",
      "type": "event"
    },
    {
      "anonymous": false,
      "inputs": [
        {
          "indexed": true,
          "internalType": "address",
          "name": "previousOwner",
          "type": "address"
        },
        {
          "indexed": true,
          "internalType": "address",
          "name": "newOwner",
          "type": "address"
        }
      ],
      "name": "OwnershipTransferred",
      "type": "event"
    },
    {
      "anonymous": false,
      "inputs": [
        {
          "indexed": true,
          "internalType": "address",
          "name": "sponsor",
          "type": "address"
        },
        {
          "indexed": true,
          "internalType": "address",
          "name": "protege",
          "type": "address"
        },
        {
          "indexed": false,
          "internalType": "uint8",
          "name": "level",
          "type": "uint8"
        },
        {
          "indexed": false,
          "internalType": "uint32",
          "name": "totalProtegeCount",
          "type": "uint32"
        },
        {
          "indexed": false,
          "internalType": "uint32",
          "name": "directTotalProtegeCount",
          "type": "uint32"
        }
      ],
      "name": "PROTEGE_UPDATED",
      "type": "event"
    },
    {
      "anonymous": false,
      "inputs": [
        {
          "indexed": true,
          "internalType": "address",
          "name": "operator",
          "type": "address"
        },
        {
          "indexed": true,
          "internalType": "address",
          "name": "tokenHolder",
          "type": "address"
        }
      ],
      "name": "RevokedOperator",
      "type": "event"
    },
    {
      "anonymous": false,
      "inputs": [
        {
          "indexed": true,
          "internalType": "address",
          "name": "operator",
          "type": "address"
        },
        {
          "indexed": true,
          "internalType": "address",
          "name": "from",
          "type": "address"
        },
        {
          "indexed": true,
          "internalType": "address",
          "name": "to",
          "type": "address"
        },
        {
          "indexed": false,
          "internalType": "uint256",
          "name": "amount",
          "type": "uint256"
        },
        {
          "indexed": false,
          "internalType": "bytes",
          "name": "data",
          "type": "bytes"
        },
        {
          "indexed": false,
          "internalType": "bytes",
          "name": "operatorData",
          "type": "bytes"
        }
      ],
      "name": "Sent",
      "type": "event"
    },
    {
      "anonymous": false,
      "inputs": [
        {
          "indexed": true,
          "internalType": "address",
          "name": "account",
          "type": "address"
        },
        {
          "indexed": false,
          "internalType": "uint256",
          "name": "amount",
          "type": "uint256"
        }
      ],
      "name": "TokenDowngraded",
      "type": "event"
    },
    {
      "anonymous": false,
      "inputs": [
        {
          "indexed": true,
          "internalType": "address",
          "name": "account",
          "type": "address"
        },
        {
          "indexed": false,
          "internalType": "uint256",
          "name": "amount",
          "type": "uint256"
        }
      ],
      "name": "TokenUpgraded",
      "type": "event"
    },
    {
      "anonymous": false,
      "inputs": [
        {
          "indexed": true,
          "internalType": "address",
          "name": "from",
          "type": "address"
        },
        {
          "indexed": true,
          "internalType": "address",
          "name": "to",
          "type": "address"
        },
        {
          "indexed": false,
          "internalType": "uint256",
          "name": "value",
          "type": "uint256"
        }
      ],
      "name": "Transfer",
      "type": "event"
    },
    {
      "inputs": [],
      "name": "CONSTANT_INFLOW_NFT",
      "outputs": [
        {
          "internalType": "contract IConstantInflowNFT",
          "name": "",
          "type": "address"
        }
      ],
      "stateMutability": "view",
      "type": "function"
    },
    {
      "inputs": [],
      "name": "CONSTANT_OUTFLOW_NFT",
      "outputs": [
        {
          "internalType": "contract IConstantOutflowNFT",
          "name": "",
          "type": "address"
        }
      ],
      "stateMutability": "view",
      "type": "function"
    },
    {
      "inputs": [],
      "name": "FLAT_COST_SPONSORSHIP",
      "outputs": [
        {
          "internalType": "uint256",
          "name": "",
          "type": "uint256"
        }
      ],
      "stateMutability": "view",
      "type": "function"
    },
    {
      "inputs": [],
      "name": "MAX_SPONSORSHIP_LEVEL",
      "outputs": [
        {
          "internalType": "uint256",
          "name": "",
          "type": "uint256"
        }
      ],
      "stateMutability": "view",
      "type": "function"
    },
    {
      "inputs": [],
      "name": "MAX_SPONSORSHIP_PATH_OUTFLOW",
      "outputs": [
        {
          "internalType": "uint256",
          "name": "",
          "type": "uint256"
        }
      ],
      "stateMutability": "view",
      "type": "function"
    },
    {
      "inputs": [
        {
          "internalType": "address",
          "name": "account",
          "type": "address"
        },
        {
          "internalType": "address",
          "name": "spender",
          "type": "address"
        }
      ],
      "name": "allowance",
      "outputs": [
        {
          "internalType": "uint256",
          "name": "",
          "type": "uint256"
        }
      ],
      "stateMutability": "view",
      "type": "function"
    },
    {
      "inputs": [
        {
          "internalType": "address",
          "name": "spender",
          "type": "address"
        },
        {
          "internalType": "uint256",
          "name": "amount",
          "type": "uint256"
        }
      ],
      "name": "approve",
      "outputs": [
        {
          "internalType": "bool",
          "name": "",
          "type": "bool"
        }
      ],
      "stateMutability": "nonpayable",
      "type": "function"
    },
    {
      "inputs": [
        {
          "internalType": "address",
          "name": "operator",
          "type": "address"
        }
      ],
      "name": "authorizeOperator",
      "outputs": [],
      "stateMutability": "nonpayable",
      "type": "function"
    },
    {
      "inputs": [
        {
          "internalType": "address",
          "name": "account",
          "type": "address"
        }
      ],
      "name": "balanceOf",
      "outputs": [
        {
          "internalType": "uint256",
          "name": "balance",
          "type": "uint256"
        }
      ],
      "stateMutability": "view",
      "type": "function"
    },
    {
      "inputs": [
        {
          "internalType": "uint256",
          "name": "amount",
          "type": "uint256"
        },
        {
          "internalType": "bytes",
          "name": "userData",
          "type": "bytes"
        }
      ],
      "name": "burn",
      "outputs": [],
      "stateMutability": "nonpayable",
      "type": "function"
    },
    {
      "inputs": [
        {
          "internalType": "uint32",
          "name": "totalProtegeCount",
          "type": "uint32"
        }
      ],
      "name": "calculateFlowRate",
      "outputs": [
        {
          "internalType": "int96",
          "name": "flowRate",
          "type": "int96"
        }
      ],
      "stateMutability": "pure",
      "type": "function"
    },
    {
      "inputs": [],
      "name": "castrate",
      "outputs": [],
      "stateMutability": "nonpayable",
      "type": "function"
    },
    {
      "inputs": [
        {
          "internalType": "bytes32",
          "name": "id",
          "type": "bytes32"
        },
        {
          "internalType": "bytes32[]",
          "name": "data",
          "type": "bytes32[]"
        }
      ],
      "name": "createAgreement",
      "outputs": [],
      "stateMutability": "nonpayable",
      "type": "function"
    },
    {
      "inputs": [],
      "name": "decimals",
      "outputs": [
        {
          "internalType": "uint8",
          "name": "",
          "type": "uint8"
        }
      ],
      "stateMutability": "pure",
      "type": "function"
    },
    {
      "inputs": [
        {
          "internalType": "address",
          "name": "spender",
          "type": "address"
        },
        {
          "internalType": "uint256",
          "name": "subtractedValue",
          "type": "uint256"
        }
      ],
      "name": "decreaseAllowance",
      "outputs": [
        {
          "internalType": "bool",
          "name": "",
          "type": "bool"
        }
      ],
      "stateMutability": "nonpayable",
      "type": "function"
    },
    {
      "inputs": [],
      "name": "defaultOperators",
      "outputs": [
        {
          "internalType": "address[]",
          "name": "",
          "type": "address[]"
        }
      ],
      "stateMutability": "view",
      "type": "function"
    },
    {
      "inputs": [
        {
          "internalType": "uint256",
          "name": "amount",
          "type": "uint256"
        }
      ],
      "name": "downgrade",
      "outputs": [],
      "stateMutability": "nonpayable",
      "type": "function"
    },
    {
      "inputs": [
        {
          "internalType": "address",
          "name": "to",
          "type": "address"
        },
        {
          "internalType": "uint256",
          "name": "amount",
          "type": "uint256"
        }
      ],
      "name": "downgradeTo",
      "outputs": [],
      "stateMutability": "nonpayable",
      "type": "function"
    },
    {
      "inputs": [
        {
          "internalType": "uint32",
          "name": "directProtegeCount",
          "type": "uint32"
        }
      ],
      "name": "fee",
      "outputs": [
        {
          "internalType": "uint256",
          "name": "feeAmount",
          "type": "uint256"
        }
      ],
      "stateMutability": "pure",
      "type": "function"
    },
    {
      "inputs": [
        {
          "internalType": "address",
          "name": "account",
          "type": "address"
        }
      ],
      "name": "getAccountActiveAgreements",
      "outputs": [
        {
          "internalType": "contract ISuperAgreement[]",
          "name": "",
          "type": "address[]"
        }
      ],
      "stateMutability": "view",
      "type": "function"
    },
    {
      "inputs": [
        {
          "internalType": "address",
          "name": "agreementClass",
          "type": "address"
        },
        {
          "internalType": "bytes32",
          "name": "id",
          "type": "bytes32"
        },
        {
          "internalType": "uint256",
          "name": "dataLength",
          "type": "uint256"
        }
      ],
      "name": "getAgreementData",
      "outputs": [
        {
          "internalType": "bytes32[]",
          "name": "data",
          "type": "bytes32[]"
        }
      ],
      "stateMutability": "view",
      "type": "function"
    },
    {
      "inputs": [
        {
          "internalType": "address",
          "name": "agreementClass",
          "type": "address"
        },
        {
          "internalType": "address",
          "name": "account",
          "type": "address"
        },
        {
          "internalType": "uint256",
          "name": "slotId",
          "type": "uint256"
        },
        {
          "internalType": "uint256",
          "name": "dataLength",
          "type": "uint256"
        }
      ],
      "name": "getAgreementStateSlot",
      "outputs": [
        {
          "internalType": "bytes32[]",
          "name": "slotData",
          "type": "bytes32[]"
        }
      ],
      "stateMutability": "view",
      "type": "function"
    },
    {
      "inputs": [
        {
          "internalType": "address",
          "name": "protege",
          "type": "address"
        }
      ],
      "name": "getChainOfSponsors",
      "outputs": [
        {
          "components": [
            {
              "internalType": "address",
              "name": "sponsor",
              "type": "address"
            },
            {
              "internalType": "uint8",
              "name": "level",
              "type": "uint8"
            },
            {
              "internalType": "uint32",
              "name": "totalProtegeCount",
              "type": "uint32"
            },
            {
              "internalType": "uint32",
              "name": "directTotalProtegeCount",
              "type": "uint32"
            },
            {
              "internalType": "int96",
              "name": "desiredFlowRate",
              "type": "int96"
            }
          ],
          "internalType": "struct ISuperfluidClub.Protege[]",
          "name": "sponsors",
          "type": "tuple[]"
        }
      ],
      "stateMutability": "view",
      "type": "function"
    },
    {
      "inputs": [],
      "name": "getCodeAddress",
      "outputs": [
        {
          "internalType": "address",
          "name": "codeAddress",
          "type": "address"
        }
      ],
      "stateMutability": "view",
      "type": "function"
    },
    {
      "inputs": [],
      "name": "getHost",
      "outputs": [
        {
          "internalType": "address",
          "name": "host",
          "type": "address"
        }
      ],
      "stateMutability": "view",
      "type": "function"
    },
    {
      "inputs": [
        {
          "internalType": "address",
          "name": "protege",
          "type": "address"
        }
      ],
      "name": "getProtege",
      "outputs": [
        {
          "components": [
            {
              "internalType": "address",
              "name": "sponsor",
              "type": "address"
            },
            {
              "internalType": "uint8",
              "name": "level",
              "type": "uint8"
            },
            {
              "internalType": "uint32",
              "name": "totalProtegeCount",
              "type": "uint32"
            },
            {
              "internalType": "uint32",
              "name": "directTotalProtegeCount",
              "type": "uint32"
            },
            {
              "internalType": "int96",
              "name": "desiredFlowRate",
              "type": "int96"
            }
          ],
          "internalType": "struct ISuperfluidClub.Protege",
          "name": "",
          "type": "tuple"
        }
      ],
      "stateMutability": "view",
      "type": "function"
    },
    {
      "inputs": [],
      "name": "getUnderlyingToken",
      "outputs": [
        {
          "internalType": "address",
          "name": "",
          "type": "address"
        }
      ],
      "stateMutability": "view",
      "type": "function"
    },
    {
      "inputs": [],
      "name": "granularity",
      "outputs": [
        {
          "internalType": "uint256",
          "name": "",
          "type": "uint256"
        }
      ],
      "stateMutability": "pure",
      "type": "function"
    },
    {
      "inputs": [
        {
          "internalType": "address",
          "name": "spender",
          "type": "address"
        },
        {
          "internalType": "uint256",
          "name": "addedValue",
          "type": "uint256"
        }
      ],
      "name": "increaseAllowance",
      "outputs": [
        {
          "internalType": "bool",
          "name": "",
          "type": "bool"
        }
      ],
      "stateMutability": "nonpayable",
      "type": "function"
    },
    {
      "inputs": [
        {
          "internalType": "string",
          "name": "name",
          "type": "string"
        },
        {
          "internalType": "string",
          "name": "symbol",
          "type": "string"
        },
        {
          "internalType": "address",
          "name": "newOwner",
          "type": "address"
        }
      ],
      "name": "initialize",
      "outputs": [],
      "stateMutability": "nonpayable",
      "type": "function"
    },
    {
      "inputs": [
        {
          "internalType": "contract IERC20",
          "name": "underlyingToken",
          "type": "address"
        },
        {
          "internalType": "uint8",
          "name": "underlyingDecimals",
          "type": "uint8"
        },
        {
          "internalType": "string",
          "name": "n",
          "type": "string"
        },
        {
          "internalType": "string",
          "name": "s",
          "type": "string"
        }
      ],
      "name": "initialize",
      "outputs": [],
      "stateMutability": "nonpayable",
      "type": "function"
    },
    {
      "inputs": [
        {
          "internalType": "address",
          "name": "account",
          "type": "address"
        },
        {
          "internalType": "uint256",
          "name": "timestamp",
          "type": "uint256"
        }
      ],
      "name": "isAccountCritical",
      "outputs": [
        {
          "internalType": "bool",
          "name": "isCritical",
          "type": "bool"
        }
      ],
      "stateMutability": "view",
      "type": "function"
    },
    {
      "inputs": [
        {
          "internalType": "address",
          "name": "account",
          "type": "address"
        }
      ],
      "name": "isAccountCriticalNow",
      "outputs": [
        {
          "internalType": "bool",
          "name": "isCritical",
          "type": "bool"
        }
      ],
      "stateMutability": "view",
      "type": "function"
    },
    {
      "inputs": [
        {
          "internalType": "address",
          "name": "account",
          "type": "address"
        },
        {
          "internalType": "uint256",
          "name": "timestamp",
          "type": "uint256"
        }
      ],
      "name": "isAccountSolvent",
      "outputs": [
        {
          "internalType": "bool",
          "name": "isSolvent",
          "type": "bool"
        }
      ],
      "stateMutability": "view",
      "type": "function"
    },
    {
      "inputs": [
        {
          "internalType": "address",
          "name": "account",
          "type": "address"
        }
      ],
      "name": "isAccountSolventNow",
      "outputs": [
        {
          "internalType": "bool",
          "name": "isSolvent",
          "type": "bool"
        }
      ],
      "stateMutability": "view",
      "type": "function"
    },
    {
      "inputs": [
        {
          "internalType": "address",
          "name": "operator",
          "type": "address"
        },
        {
          "internalType": "address",
          "name": "tokenHolder",
          "type": "address"
        }
      ],
      "name": "isOperatorFor",
      "outputs": [
        {
          "internalType": "bool",
          "name": "",
          "type": "bool"
        }
      ],
      "stateMutability": "view",
      "type": "function"
    },
    {
      "inputs": [
        {
          "internalType": "address",
          "name": "protege",
          "type": "address"
        }
      ],
      "name": "isProtege",
      "outputs": [
        {
          "internalType": "bool",
          "name": "",
          "type": "bool"
        }
      ],
      "stateMutability": "view",
      "type": "function"
    },
    {
      "inputs": [
        {
          "internalType": "bytes32",
          "name": "id",
          "type": "bytes32"
        },
        {
          "internalType": "bytes",
          "name": "liquidationTypeData",
          "type": "bytes"
        },
        {
          "internalType": "address",
          "name": "liquidatorAccount",
          "type": "address"
        },
        {
          "internalType": "bool",
          "name": "useDefaultRewardAccount",
          "type": "bool"
        },
        {
          "internalType": "address",
          "name": "targetAccount",
          "type": "address"
        },
        {
          "internalType": "uint256",
          "name": "rewardAmount",
          "type": "uint256"
        },
        {
          "internalType": "int256",
          "name": "targetAccountBalanceDelta",
          "type": "int256"
        }
      ],
      "name": "makeLiquidationPayoutsV2",
      "outputs": [],
      "stateMutability": "nonpayable",
      "type": "function"
    },
    {
      "inputs": [
        {
          "internalType": "uint256",
          "name": "amount",
          "type": "uint256"
        }
      ],
      "name": "mint",
      "outputs": [],
      "stateMutability": "nonpayable",
      "type": "function"
    },
    {
      "inputs": [],
      "name": "name",
      "outputs": [
        {
          "internalType": "string",
          "name": "",
          "type": "string"
        }
      ],
      "stateMutability": "view",
      "type": "function"
    },
    {
      "inputs": [
        {
          "internalType": "address",
          "name": "account",
          "type": "address"
        },
        {
          "internalType": "address",
          "name": "spender",
          "type": "address"
        },
        {
          "internalType": "uint256",
          "name": "amount",
          "type": "uint256"
        }
      ],
      "name": "operationApprove",
      "outputs": [],
      "stateMutability": "nonpayable",
      "type": "function"
    },
    {
      "inputs": [
        {
          "internalType": "address",
          "name": "account",
          "type": "address"
        },
        {
          "internalType": "address",
          "name": "spender",
          "type": "address"
        },
        {
          "internalType": "uint256",
          "name": "subtractedValue",
          "type": "uint256"
        }
      ],
      "name": "operationDecreaseAllowance",
      "outputs": [],
      "stateMutability": "nonpayable",
      "type": "function"
    },
    {
      "inputs": [
        {
          "internalType": "address",
          "name": "account",
          "type": "address"
        },
        {
          "internalType": "uint256",
          "name": "amount",
          "type": "uint256"
        }
      ],
      "name": "operationDowngrade",
      "outputs": [],
      "stateMutability": "nonpayable",
      "type": "function"
    },
    {
      "inputs": [
        {
          "internalType": "address",
          "name": "account",
          "type": "address"
        },
        {
          "internalType": "address",
          "name": "spender",
          "type": "address"
        },
        {
          "internalType": "uint256",
          "name": "addedValue",
          "type": "uint256"
        }
      ],
      "name": "operationIncreaseAllowance",
      "outputs": [],
      "stateMutability": "nonpayable",
      "type": "function"
    },
    {
      "inputs": [
        {
          "internalType": "address",
          "name": "spender",
          "type": "address"
        },
        {
          "internalType": "address",
          "name": "recipient",
          "type": "address"
        },
        {
          "internalType": "uint256",
          "name": "amount",
          "type": "uint256"
        },
        {
          "internalType": "bytes",
          "name": "userData",
          "type": "bytes"
        }
      ],
      "name": "operationSend",
      "outputs": [],
      "stateMutability": "nonpayable",
      "type": "function"
    },
    {
      "inputs": [
        {
          "internalType": "address",
          "name": "account",
          "type": "address"
        },
        {
          "internalType": "address",
          "name": "spender",
          "type": "address"
        },
        {
          "internalType": "address",
          "name": "recipient",
          "type": "address"
        },
        {
          "internalType": "uint256",
          "name": "amount",
          "type": "uint256"
        }
      ],
      "name": "operationTransferFrom",
      "outputs": [],
      "stateMutability": "nonpayable",
      "type": "function"
    },
    {
      "inputs": [
        {
          "internalType": "address",
          "name": "account",
          "type": "address"
        },
        {
          "internalType": "uint256",
          "name": "amount",
          "type": "uint256"
        }
      ],
      "name": "operationUpgrade",
      "outputs": [],
      "stateMutability": "nonpayable",
      "type": "function"
    },
    {
      "inputs": [
        {
          "internalType": "address",
          "name": "account",
          "type": "address"
        },
        {
          "internalType": "uint256",
          "name": "amount",
          "type": "uint256"
        },
        {
          "internalType": "bytes",
          "name": "userData",
          "type": "bytes"
        },
        {
          "internalType": "bytes",
          "name": "operatorData",
          "type": "bytes"
        }
      ],
      "name": "operatorBurn",
      "outputs": [],
      "stateMutability": "nonpayable",
      "type": "function"
    },
    {
      "inputs": [
        {
          "internalType": "address",
          "name": "sender",
          "type": "address"
        },
        {
          "internalType": "address",
          "name": "recipient",
          "type": "address"
        },
        {
          "internalType": "uint256",
          "name": "amount",
          "type": "uint256"
        },
        {
          "internalType": "bytes",
          "name": "userData",
          "type": "bytes"
        },
        {
          "internalType": "bytes",
          "name": "operatorData",
          "type": "bytes"
        }
      ],
      "name": "operatorSend",
      "outputs": [],
      "stateMutability": "nonpayable",
      "type": "function"
    },
    {
      "inputs": [],
      "name": "owner",
      "outputs": [
        {
          "internalType": "address",
          "name": "",
          "type": "address"
        }
      ],
      "stateMutability": "view",
      "type": "function"
    },
    {
      "inputs": [],
      "name": "proxiableUUID",
      "outputs": [
        {
          "internalType": "bytes32",
          "name": "",
          "type": "bytes32"
        }
      ],
      "stateMutability": "pure",
      "type": "function"
    },
    {
      "inputs": [
        {
          "internalType": "address",
          "name": "account",
          "type": "address"
        },
        {
          "internalType": "uint256",
          "name": "timestamp",
          "type": "uint256"
        }
      ],
      "name": "realtimeBalanceOf",
      "outputs": [
        {
          "internalType": "int256",
          "name": "availableBalance",
          "type": "int256"
        },
        {
          "internalType": "uint256",
          "name": "deposit",
          "type": "uint256"
        },
        {
          "internalType": "uint256",
          "name": "owedDeposit",
          "type": "uint256"
        }
      ],
      "stateMutability": "view",
      "type": "function"
    },
    {
      "inputs": [
        {
          "internalType": "address",
          "name": "account",
          "type": "address"
        }
      ],
      "name": "realtimeBalanceOfNow",
      "outputs": [
        {
          "internalType": "int256",
          "name": "availableBalance",
          "type": "int256"
        },
        {
          "internalType": "uint256",
          "name": "deposit",
          "type": "uint256"
        },
        {
          "internalType": "uint256",
          "name": "owedDeposit",
          "type": "uint256"
        },
        {
          "internalType": "uint256",
          "name": "timestamp",
          "type": "uint256"
        }
      ],
      "stateMutability": "view",
      "type": "function"
    },
    {
      "inputs": [
        {
          "internalType": "address",
          "name": "oldProtege",
          "type": "address"
        }
      ],
      "name": "remove",
      "outputs": [],
      "stateMutability": "nonpayable",
      "type": "function"
    },
    {
      "inputs": [],
      "name": "restartStream",
      "outputs": [],
      "stateMutability": "nonpayable",
      "type": "function"
    },
    {
      "inputs": [
        {
          "internalType": "address",
          "name": "operator",
          "type": "address"
        }
      ],
      "name": "revokeOperator",
      "outputs": [],
      "stateMutability": "nonpayable",
      "type": "function"
    },
    {
      "inputs": [
        {
          "internalType": "address",
          "name": "account",
          "type": "address"
        },
        {
          "internalType": "address",
          "name": "spender",
          "type": "address"
        },
        {
          "internalType": "uint256",
          "name": "amount",
          "type": "uint256"
        }
      ],
      "name": "selfApproveFor",
      "outputs": [],
      "stateMutability": "nonpayable",
      "type": "function"
    },
    {
      "inputs": [
        {
          "internalType": "address",
          "name": "account",
          "type": "address"
        },
        {
          "internalType": "uint256",
          "name": "amount",
          "type": "uint256"
        },
        {
          "internalType": "bytes",
          "name": "userData",
          "type": "bytes"
        }
      ],
      "name": "selfBurn",
      "outputs": [],
      "stateMutability": "nonpayable",
      "type": "function"
    },
    {
      "inputs": [
        {
          "internalType": "address",
          "name": "account",
          "type": "address"
        },
        {
          "internalType": "uint256",
          "name": "amount",
          "type": "uint256"
        },
        {
          "internalType": "bytes",
          "name": "userData",
          "type": "bytes"
        }
      ],
      "name": "selfMint",
      "outputs": [],
      "stateMutability": "nonpayable",
      "type": "function"
    },
    {
      "inputs": [
        {
          "internalType": "address",
          "name": "holder",
          "type": "address"
        },
        {
          "internalType": "address",
          "name": "spender",
          "type": "address"
        },
        {
          "internalType": "address",
          "name": "recipient",
          "type": "address"
        },
        {
          "internalType": "uint256",
          "name": "amount",
          "type": "uint256"
        }
      ],
      "name": "selfTransferFrom",
      "outputs": [],
      "stateMutability": "nonpayable",
      "type": "function"
    },
    {
      "inputs": [
        {
          "internalType": "address",
          "name": "recipient",
          "type": "address"
        },
        {
          "internalType": "uint256",
          "name": "amount",
          "type": "uint256"
        },
        {
          "internalType": "bytes",
          "name": "userData",
          "type": "bytes"
        }
      ],
      "name": "send",
      "outputs": [],
      "stateMutability": "nonpayable",
      "type": "function"
    },
    {
      "inputs": [
        {
          "internalType": "address",
          "name": "account",
          "type": "address"
        },
        {
          "internalType": "int256",
          "name": "delta",
          "type": "int256"
        }
      ],
      "name": "settleBalance",
      "outputs": [],
      "stateMutability": "nonpayable",
      "type": "function"
    },
    {
      "inputs": [
        {
          "internalType": "address payable",
          "name": "newProtege",
          "type": "address"
        }
      ],
      "name": "sponsor",
      "outputs": [],
      "stateMutability": "payable",
      "type": "function"
    },
    {
      "inputs": [],
      "name": "symbol",
      "outputs": [
        {
          "internalType": "string",
          "name": "",
          "type": "string"
        }
      ],
      "stateMutability": "view",
      "type": "function"
    },
    {
      "inputs": [
        {
          "internalType": "bytes32",
          "name": "id",
          "type": "bytes32"
        },
        {
          "internalType": "uint256",
          "name": "dataLength",
          "type": "uint256"
        }
      ],
      "name": "terminateAgreement",
      "outputs": [],
      "stateMutability": "nonpayable",
      "type": "function"
    },
    {
      "inputs": [],
      "name": "totalSupply",
      "outputs": [
        {
          "internalType": "uint256",
          "name": "",
          "type": "uint256"
        }
      ],
      "stateMutability": "view",
      "type": "function"
    },
    {
      "inputs": [
        {
          "internalType": "address",
          "name": "recipient",
          "type": "address"
        },
        {
          "internalType": "uint256",
          "name": "amount",
          "type": "uint256"
        }
      ],
      "name": "transfer",
      "outputs": [
        {
          "internalType": "bool",
          "name": "",
          "type": "bool"
        }
      ],
      "stateMutability": "nonpayable",
      "type": "function"
    },
    {
      "inputs": [
        {
          "internalType": "address",
          "name": "recipient",
          "type": "address"
        }
      ],
      "name": "transferAll",
      "outputs": [],
      "stateMutability": "nonpayable",
      "type": "function"
    },
    {
      "inputs": [
        {
          "internalType": "address",
          "name": "holder",
          "type": "address"
        },
        {
          "internalType": "address",
          "name": "recipient",
          "type": "address"
        },
        {
          "internalType": "uint256",
          "name": "amount",
          "type": "uint256"
        }
      ],
      "name": "transferFrom",
      "outputs": [
        {
          "internalType": "bool",
          "name": "",
          "type": "bool"
        }
      ],
      "stateMutability": "nonpayable",
      "type": "function"
    },
    {
      "inputs": [
        {
          "internalType": "address",
          "name": "newOwner",
          "type": "address"
        }
      ],
      "name": "transferOwnership",
      "outputs": [],
      "stateMutability": "nonpayable",
      "type": "function"
    },
    {
      "inputs": [
        {
          "internalType": "bytes32",
          "name": "id",
          "type": "bytes32"
        },
        {
          "internalType": "bytes32[]",
          "name": "data",
          "type": "bytes32[]"
        }
      ],
      "name": "updateAgreementData",
      "outputs": [],
      "stateMutability": "nonpayable",
      "type": "function"
    },
    {
      "inputs": [
        {
          "internalType": "address",
          "name": "account",
          "type": "address"
        },
        {
          "internalType": "uint256",
          "name": "slotId",
          "type": "uint256"
        },
        {
          "internalType": "bytes32[]",
          "name": "slotData",
          "type": "bytes32[]"
        }
      ],
      "name": "updateAgreementStateSlot",
      "outputs": [],
      "stateMutability": "nonpayable",
      "type": "function"
    },
    {
      "inputs": [
        {
          "internalType": "address",
          "name": "newAddress",
          "type": "address"
        }
      ],
      "name": "updateCode",
      "outputs": [],
      "stateMutability": "nonpayable",
      "type": "function"
    },
    {
      "inputs": [
        {
          "internalType": "uint256",
          "name": "amount",
          "type": "uint256"
        }
      ],
      "name": "upgrade",
      "outputs": [],
      "stateMutability": "nonpayable",
      "type": "function"
    },
    {
      "inputs": [
        {
          "internalType": "address",
          "name": "to",
          "type": "address"
        },
        {
          "internalType": "uint256",
          "name": "amount",
          "type": "uint256"
        },
        {
          "internalType": "bytes",
          "name": "userData",
          "type": "bytes"
        }
      ],
      "name": "upgradeTo",
      "outputs": [],
      "stateMutability": "nonpayable",
      "type": "function"
    },
    {
      "inputs": [
        {
          "internalType": "address",
          "name": "receiver",
          "type": "address"
        },
        {
          "internalType": "uint256",
          "name": "amount",
          "type": "uint256"
        }
      ],
      "name": "withdraw",
      "outputs": [],
      "stateMutability": "nonpayable",
      "type": "function"
    },
    {
      "stateMutability": "payable",
      "type": "receive"
    }
  ],
  "bytecode": {
    "object": "0x60e06040523480156200001157600080fd5b5060405162006953380380620069538339810160408190526200003491620000d9565b6001600160a01b0380841660805280831660a081905290821660c052604051849184918491907fcf554eb342edf010a94e07701ae91e99e90b769f649f03aeb1153654ddd43c0190600090a26040516001600160a01b038216907f8837af285f4d380af9227df9ebafa13d992b487fa6d7a4366bd4154576085b8990600090a25050505050506200012d565b6001600160a01b0381168114620000d657600080fd5b50565b600080600060608486031215620000ef57600080fd5b8351620000fc81620000c0565b60208501519093506200010f81620000c0565b60408501519092506200012281620000c0565b809150509250925092565b60805160a05160c051616771620001e2600039600081816108e90152611ec9015260008181610e530152611e2c015260008181610689015281816112ed0152818161135c015281816116d501528181611a8c01528181611b5b01528181611f14015281816120a70152818161271d01528181612c9701528181612d6101528181612df901528181612e6101528181612ee9015281816138ad0152818161394401528181614e1a015261505901526167716000f3fe60806040526004361061044b5760003560e01c8063766c4f3711610234578063bb0d196e1161012e578063e4a472c8116100b6578063f349f56a1161007a578063f349f56a14610e95578063f3fef3a314610eb2578063fad8b32a14610ed2578063fc673c4f14610ef2578063fe9d930314610f1257600080fd5b8063e4a472c814610dc8578063eb3537cc14610de8578063ee719bc814610e23578063ef43d2c614610e41578063f2fde38b14610e7557600080fd5b8063ca789464116100fd578063ca78946414610d02578063cf97256d14610d22578063d95b637114610d42578063d9d078d614610d62578063dd62ed3e14610d8257600080fd5b8063bb0d196e14610c82578063c68d428314610ca2578063c780fd8214610cc2578063ca0c1e7f14610ce257600080fd5b80639bd9bbc6116101bc578063a457c2d711610180578063a457c2d714610bf2578063a9059cbb14610c12578063b132a50d14610c32578063b5c0b7eb14610c4d578063b84cdd4a14610c6257600080fd5b80639bd9bbc614610b525780639d87674114610b72578063a0712d6814610b92578063a1b2bf8b14610bb2578063a3a7e7f314610bd257600080fd5b80638934c79a116102035780638934c79a14610ac25780638da5cb5b14610ae2578063959b8c3f14610b0857806395d89b4114610b285780639903ad3814610b3d57600080fd5b8063766c4f3714610a3c57806379359f6f14610a4f5780637ae058dc14610a6f57806383ba252514610aa257600080fd5b8063386fa2211161034557806350d75d25116102cd57806362aa52871161029157806362aa52871461099c57806362ad1b83146109bc57806366a12fb6146109dc5780636c2d9f2f146109fc57806370a0823114610a1c57600080fd5b806350d75d251461090b57806352d1902d14610920578063556f0dc71461095357806357cf7acb146109675780635b9d09cc1461097c57600080fd5b806345977d031161031457806345977d031461084a578063469519541461086a5780634b2763b31461088a5780634b61cc33146108aa5780634c5c0c85146108d757600080fd5b8063386fa221146107ca57806339509351146107ea57806341b706be1461080a57806342fe09801461082a57600080fd5b806318160ddd116103d3578063245887fc11610397578063245887fc1461070e578063270483971461072e57806329092d0e1461074e5780632ec8eec71461076e578063313ce567146107ae57600080fd5b806318160ddd1461063b5780631863e8091461065a57806320bc44251461067a57806321fb177a146106c157806323b872dd146106ee57600080fd5b8063095ea7b31161041a578063095ea7b3146104e6578063099e14ce1461051657806311bcc81e146105db57806312a6a3f8146105fb57806316d055d61461061b57600080fd5b806306e485381461045757806306fdde0314610482578063077f224a146104a4578063090c415e146104c657600080fd5b3661045257005b600080fd5b34801561046357600080fd5b5061046c610f32565b604051610479919061546b565b60405180910390f35b34801561048e57600080fd5b50610497610f43565b6040516104799190615508565b3480156104b057600080fd5b506104c46104bf366004615578565b610fd5565b005b3480156104d257600080fd5b506104c46104e136600461563f565b61110f565b3480156104f257600080fd5b5061050661050136600461569a565b6111c2565b6040519015158152602001610479565b34801561052257600080fd5b506105ce6105313660046156c6565b6040805160a081018252600080825260208201819052918101829052606081018290526080810191909152506001600160a01b0390811660009081526020808052604091829020825160a0810184528154948516815260ff600160a01b8604169281019290925263ffffffff600160a81b8504811693830193909352600160c81b9093049091166060820152600190910154600b0b608082015290565b604051610479919061572d565b3480156105e757600080fd5b506104c46105f636600461573b565b6111d9565b34801561060757600080fd5b506104c4610616366004615754565b611208565b34801561062757600080fd5b506104c461063636600461579f565b6112eb565b34801561064757600080fd5b506002545b604051908152602001610479565b34801561066657600080fd5b506104c46106753660046158c1565b611347565b34801561068657600080fd5b507f00000000000000000000000000000000000000000000000000000000000000005b6040516001600160a01b039091168152602001610479565b3480156106cd57600080fd5b506106e16106dc3660046156c6565b6115e7565b6040516104799190615953565b3480156106fa57600080fd5b50610506610709366004615995565b6116bd565b34801561071a57600080fd5b506104c461072936600461569a565b6116d3565b34801561073a57600080fd5b506104c46107493660046159d6565b61174c565b34801561075a57600080fd5b506104c46107693660046156c6565b6117e8565b34801561077a57600080fd5b5061078e6107893660046156c6565b611a84565b604080519485526020850193909352918301526060820152608001610479565b3480156107ba57600080fd5b5060405160128152602001610479565b3480156107d657600080fd5b5061046c6107e53660046156c6565b611b27565b3480156107f657600080fd5b5061050661080536600461569a565b611bca565b34801561081657600080fd5b506104c461082536600461579f565b611c06565b34801561083657600080fd5b506104c46108453660046159f8565b611c32565b34801561085657600080fd5b506104c461086536600461573b565b611d59565b34801561087657600080fd5b506104c46108853660046156c6565b611d85565b34801561089657600080fd5b506104c46108a5366004615995565b611f12565b3480156108b657600080fd5b506108ca6108c5366004615a92565b611f99565b6040516104799190615ad8565b3480156108e357600080fd5b506106a97f000000000000000000000000000000000000000000000000000000000000000081565b34801561091757600080fd5b506106a9611fde565b34801561092c57600080fd5b507fe438b61c5ae6309c126c34745a1d75e0e5b69a37085ad47b7d9802d1366b0db961064c565b34801561095f57600080fd5b50600161064c565b34801561097357600080fd5b506104c4612008565b34801561098857600080fd5b506104c4610997366004615b10565b61204e565b3480156109a857600080fd5b506104c46109b7366004615995565b6120a5565b3480156109c857600080fd5b506104c46109d7366004615b5f565b6120f9565b3480156109e857600080fd5b506104c46109f7366004615995565b6121a7565b348015610a0857600080fd5b506108ca610a17366004615bfd565b6121c7565b348015610a2857600080fd5b5061064c610a373660046156c6565b612209565b6104c4610a4a3660046156c6565b612232565b348015610a5b57600080fd5b50610506610a6a3660046156c6565b612715565b348015610a7b57600080fd5b50610a8f610a8a366004615c32565b61279d565b604051600b9190910b8152602001610479565b348015610aae57600080fd5b506104c4610abd36600461569a565b6127c0565b348015610ace57600080fd5b5061064c610add366004615c32565b6127ec565b348015610aee57600080fd5b50601f546106a9906201000090046001600160a01b031681565b348015610b1457600080fd5b506104c4610b233660046156c6565b61288d565b348015610b3457600080fd5b506104976128de565b348015610b4957600080fd5b506104c46128ed565b348015610b5e57600080fd5b506104c4610b6d366004615b10565b6129f6565b348015610b7e57600080fd5b506104c4610b8d366004615c58565b612a4a565b348015610b9e57600080fd5b506104c4610bad36600461573b565b612a90565b348015610bbe57600080fd5b506104c4610bcd366004615754565b612b23565b348015610bde57600080fd5b506104c4610bed3660046156c6565b612bcd565b348015610bfe57600080fd5b50610506610c0d36600461569a565b612be1565b348015610c1e57600080fd5b50610506610c2d36600461569a565b612c30565b348015610c3e57600080fd5b5061064c662386f26fc1000081565b348015610c5957600080fd5b5061064c600681565b348015610c6e57600080fd5b50610506610c7d36600461569a565b612c3e565b348015610c8e57600080fd5b50610506610c9d3660046156c6565b612c8f565b348015610cae57600080fd5b506104c4610cbd366004615c58565b612d17565b348015610cce57600080fd5b506104c4610cdd366004615995565b612d5f565b348015610cee57600080fd5b506104c4610cfd366004615cb0565b612df7565b348015610d0e57600080fd5b506104c4610d1d36600461569a565b612e5f565b348015610d2e57600080fd5b506104c4610d3d36600461569a565b612ed4565b348015610d4e57600080fd5b50610506610d5d366004615d1b565b612fbd565b348015610d6e57600080fd5b50610506610d7d36600461569a565b612fcb565b348015610d8e57600080fd5b5061064c610d9d366004615d1b565b6001600160a01b03918216600090815260106020908152604080832093909416825291909152205490565b348015610dd457600080fd5b50610506610de33660046156c6565b612fe5565b348015610df457600080fd5b50610e08610e0336600461569a565b613004565b60408051938452602084019290925290820152606001610479565b348015610e2f57600080fd5b50600d546001600160a01b03166106a9565b348015610e4d57600080fd5b506106a97f000000000000000000000000000000000000000000000000000000000000000081565b348015610e8157600080fd5b506104c4610e903660046156c6565b61313e565b348015610ea157600080fd5b5061064c68270801d946c940000081565b348015610ebe57600080fd5b506104c4610ecd36600461569a565b6131c6565b348015610ede57600080fd5b506104c4610eed3660046156c6565b613296565b348015610efe57600080fd5b506104c4610f0d366004615d54565b6132e7565b348015610f1e57600080fd5b506104c4610f2d366004615d9b565b613388565b6060610f3e60116133d9565b905090565b6060600e8054610f5290615dd9565b80601f0160208091040260200160405190810160405280929190818152602001828054610f7e90615dd9565b8015610fcb5780601f10610fa057610100808354040283529160200191610fcb565b820191906000526020600020905b815481529060010190602001808311610fae57829003601f168201915b5050505050905090565b610fde8161343f565b306001600160a01b0316639903ad386040518163ffffffff1660e01b8152600401600060405180830381600087803b15801561101957600080fd5b505af115801561102d573d6000803e3d6000fd5b50506040516285fc1360e71b81523092506342fe0980915061105e9060009081908a908a908a908a90600401615e3c565b600060405180830381600087803b15801561107857600080fd5b505af115801561108c573d6000803e3d6000fd5b50506040805160008152602081019182905263c68d428360e01b90915230925063c68d428391506110d6908390710125dfa371a19e6f7cb54395ca00000000009060248101615e8a565b600060405180830381600087803b1580156110f057600080fd5b505af1158015611104573d6000803e3d6000fd5b505050505050505050565b600033858560405160200161112693929190615eb1565b60405160208183030381529060405280519060200120905061117b8184848080602002602001604051908101604052809392919081815260200183836020028082843760009201919091525061349b92505050565b6040518481526001600160a01b0386169033907f30f416fa68fca014a0f334464c64b000ba53e99b6d2afdea9d5ca756372d59859060200160405180910390a35050505050565b60006111cf3384846134dc565b5060015b92915050565b61120533333384604051806020016040528060008152506040518060200160405280600081525061358c565b50565b60405133906000906112209083908790602001615efa565b60408051601f1981840301815291905280516020909101209050611244818461374c565b156112625760405163782a90fb60e11b815260040160405180910390fd5b61129f8185858080602002602001604051908101604052809392919081815260200183836020028082843760009201919091525061349b92505050565b816001600160a01b03167f770ea40a13a4644573ed785e5c7116890709947918747febc5add46feb531e2d8686866040516112dc93929190615f37565b60405180910390a25050505050565b7f00000000000000000000000000000000000000000000000000000000000000006001600160a01b031633146113345760405163c51efddd60e01b815260040160405180910390fd5b61134084848484613788565b5050505050565b604051632329212160e21b81523360048201527f00000000000000000000000000000000000000000000000000000000000000006001600160a01b031690638ca4848490602401602060405180830381865afa1580156113ab573d6000803e3d6000fd5b505050506040513d601f19601f820116820180604052508101906113cf9190615f78565b6113ec5760405163327fd99160e21b815260040160405180910390fd5b60006113f66138a8565b90506001600160a01b0381166114095750845b6000856114165786611418565b815b9050600083136114b55761142b83615fab565b611434856139ed565b1461144157611441615fc7565b61144a846139ed565b6001600160a01b03821660009081526001602052604081208054909190611472908490615fdd565b90915550506001600160a01b0385166000908152600160205260408120805485929061149f908490615fdd565b909155506114b09050858286613a5b565b61157f565b85156114c3576114c3615fc7565b826114cd856139ed565b6114d79190615fdd565b6001600160a01b038316600090815260016020526040812080549091906114ff908490616005565b9091555061150e9050846139ed565b6001600160a01b03881660009081526001602052604081208054909190611536908490615fdd565b90915550506001600160a01b03851660009081526001602052604081208054859290611563908490615fdd565b909155506115749050828886613a5b565b61157f828685613a5b565b846001600160a01b0316876001600160a01b0316336001600160a01b03167fb8381a3ce157650e06186e3e8f4dd4dc29236f2688b6eed1893d0a60d7c6386f8c8589898f6040516115d4959493929190616025565b60405180910390a4505050505050505050565b60608160005b6115f682612fe5565b156116b6576001600160a01b0380831660009081526020808052604091829020825160a0810184528154948516815260ff600160a01b8604169281019290925263ffffffff600160a81b8504811693830193909352600160c81b9093049091166060820152600190910154600b0b6080820152838261167481616058565b93508151811061168657611686616071565b6020908102919091018101919091526001600160a01b0392831660009081529080526040902054909116906115ed565b5050919050565b60006116cb33858585613788565b949350505050565b7f00000000000000000000000000000000000000000000000000000000000000006001600160a01b0316331461171c5760405163c51efddd60e01b815260040160405180910390fd5b61174833838484604051806020016040528060008152506040518060200160405280600081525061358c565b5050565b60405133906000906117649083908690602001615efa565b604051602081830303815290604052805190602001209050611786818461374c565b6117a35760405163dae1880960e01b815260040160405180910390fd5b6117ad8184613a8e565b60405184815233907f71a63dc095de07aa5512ad57a7596a39516317e316981a1cd71000057be1537b9060200160405180910390a250505050565b6117f181612fe5565b61180d5760405162e67aa960e31b815260040160405180910390fd5b601f546000906201000090046001600160a01b0316331461182e5733611830565b305b6001600160a01b03808416600081815260208080526040808320815160a0810183528154968716815260ff600160a01b8804168185015263ffffffff600160a81b8804811693820193909352600160c81b870483166060820152600182018054600b81900b60808401529686529380526001600160e81b031990961690556bffffffffffffffffffffffff1990931690559293509091906118d790309081908790613aaf16565b600b0b13156118ed576118eb308085613b47565b505b30600090815260208052604090208054600160a81b900463ffffffff1690601561191683616087565b82546101009290920a63ffffffff81810219909316918316021790915582516001600160a01b0316600090815260208052604090208054600160c81b90049091169150601961196483616087565b82546101009290920a63ffffffff8181021990931691831602179091556001600160a01b03841660009081526020805260409020548351600160a81b90910490911691505b6119b281612fe5565b15611340576001600160a01b038116600090815260208052604090208054600160a81b900463ffffffff168160156119e983616087565b91906101000a81548163ffffffff021916908363ffffffff16021790555050611a118361279d565b600182018054600090611a28908490600b0b6160a7565b82546001600160601b039182166101009390930a9283029190920219909116179055506001810154600b0b600003611a6b57611a65308388613b47565b50611a7e565b6001810154611a7e908390600b0b613b66565b506119a9565b6000806000807f00000000000000000000000000000000000000000000000000000000000000006001600160a01b031663bbe4fd506040518163ffffffff1660e01b8152600401602060405180830381865afa158015611ae8573d6000803e3d6000fd5b505050506040513d601f19601f82011682018060405250810190611b0c91906160d9565b9050611b188582613004565b91979096509094509092509050565b6001600160a01b038181166000908152602081905260409081902054905163c56a069d60e01b8152901960048201526060917f0000000000000000000000000000000000000000000000000000000000000000169063c56a069d90602401600060405180830381865afa158015611ba2573d6000803e3d6000fd5b505050506040513d6000823e601f3d908101601f191682016040526111d391908101906160f2565b3360008181526010602090815260408083206001600160a01b038716845290915281205490916111cf918590611c019086906161a3565b6134dc565b333014611c2657604051630fff4cc960e31b815260040160405180910390fd5b61134083858484613788565b600e8054611c3f90615dd9565b159050611c935760405162461bcd60e51b815260206004820152601f60248201527f5375706572546f6b656e3a20616c726561647920696e697469616c697a65640060448201526064015b60405180910390fd5b6000839003611cdd5760405162461bcd60e51b81526020600482015260166024820152755375706572546f6b656e3a20656d707479206e616d6560501b6044820152606401611c8a565b600d805460ff8716600160a01b026001600160a81b03199091166001600160a01b03891617179055600e611d12848683616204565b50600f611d20828483616204565b50611d2a30613b92565b60405160008082529081906000805160206166ef833981519152906020015b60405180910390a3505050505050565b611205333333846040518060200160405280600081525060405180602001604052806000815250613c97565b601f546201000090046001600160a01b03163314611db6576040516338ebc58960e11b815260040160405180910390fd5b611dbf81613e4a565b806001600160a01b031663ef43d2c66040518163ffffffff1660e01b8152600401602060405180830381865afa158015611dfd573d6000803e3d6000fd5b505050506040513d601f19601f82011682018060405250810190611e2191906162c3565b6001600160a01b03167f00000000000000000000000000000000000000000000000000000000000000006001600160a01b0316141580611ef45750806001600160a01b0316634c5c0c856040518163ffffffff1660e01b8152600401602060405180830381865afa158015611e9a573d6000803e3d6000fd5b505050506040513d601f19601f82011682018060405250810190611ebe91906162c3565b6001600160a01b03167f00000000000000000000000000000000000000000000000000000000000000006001600160a01b031614155b1561120557604051637d0fd78560e11b815260040160405180910390fd5b7f00000000000000000000000000000000000000000000000000000000000000006001600160a01b03163314611f5b5760405163c51efddd60e01b815260040160405180910390fd5b6001600160a01b03808416600090815260106020908152604080832093861683529290522054611f949084908490611c019085906161a3565b505050565b60606000858585604051602001611fb293929190615eb1565b604051602081830303815290604052805190602001209050611fd48184614084565b9695505050505050565b6000610f3e7f360894a13ba1a3210667c828492db98dca3e2076cc3735a920a3ca505d382bbc5490565b61201133612fe5565b61202d5760405162e67aa960e31b815260040160405180910390fd5b33600081815260208052604090206001015461204c9190600b0b613b66565b565b61209f3333868686868080601f016020809104026020016040519081016040528093929190818152602001838380828437600092018290525060408051602081019091529081529250613c97915050565b50505050565b7f00000000000000000000000000000000000000000000000000000000000000006001600160a01b031633146120ee5760405163c51efddd60e01b815260040160405180910390fd5b611f948383836134dc565b336121066011828a614113565b6121235760405163f7f0222760e01b815260040160405180910390fd5b61219d8189898989898080601f01602080910402602001604051908101604052809392919081815260200183838082843760009201919091525050604080516020601f8d018190048102820181019092528b815292508b91508a9081908401838280828437600092019190915250600192506141bc915050565b5050505050505050565b3330146120ee57604051630fff4cc960e31b815260040160405180910390fd5b6060600084846040516020016121de929190615efa565b6040516020818303038152906040528051906020012090506122008184614084565b95945050505050565b60008061221583611a84565b505050905060008112612228578061222b565b60005b9392505050565b61223b81612fe5565b15612259576040516319c00a8560e01b815260040160405180910390fd5b601f5460009081906201000090046001600160a01b0316331461227e57336000612282565b3060015b9150915061228f82612fe5565b15801561229a575080155b156122b75760405162e67aa960e31b815260040160405180910390fd5b6001600160a01b03821660009081526020805260408120543491906122e890600160c81b900463ffffffff166127ec565b90508082101561230b57604051631133bf0d60e01b815260040160405180910390fd5b61231581836162e0565b6001600160a01b03851660009081526020805260409020549092506006600160a01b90910460ff161061235b5760405163a2c3d1a560e01b815260040160405180910390fd5b30600090815260208052604090208054600160a81b900463ffffffff16906015612384836162f3565b82546101009290920a63ffffffff8181021990931691831602179091556001600160a01b038616600090815260208052604090208054600160c81b9004909116915060196123d1836162f3565b82546101009290920a63ffffffff8181021990931691831602179091556001600160a01b0386166000908152602080526040902054600160a81b9004169050845b61241b81612fe5565b15612586576001600160a01b038116600090815260208052604090208054600160a81b900463ffffffff16816015612452836162f3565b91906101000a81548163ffffffff021916908363ffffffff1602179055505061248e8160000160159054906101000a900463ffffffff1661279d565b6001820180546000906124a5908490600b0b616316565b82546001600160601b039182166101009390930a92830291909202199091161790555060018101546124db908390600b0b613b66565b6001600160a01b03878116600090815260208080526040808320543084529281902054815160ff600160a01b830416815263ffffffff600160a81b8304811694820194909452600160c81b909104909216908201528483169291909116907fb03e738d0e6b0d74a2bfbcaa64c76a9dd601ecb77229d0982c9bfe946c8c39a79060600160405180910390a35463ffffffff600160a81b82041692506001600160a01b03169050612412565b8461259b57612596826001616348565b61259d565b815b6040805160a0810182526001600160a01b038916808252600090815260208080529290205492945091908201906125df90600160a01b900460ff166001616365565b60ff16815260006020820181905260408201526060016125fe8461279d565b600b90810b9091526001600160a01b03898116600090815260208080526040918290208551815492870151938701516060880151919095166001600160a81b031990931692909217600160a01b60ff909416939093029290921767ffffffffffffffff60a81b1916600160a81b63ffffffff9485160263ffffffff60c81b191617600160c81b91841691909102178155608090930151600190930180546bffffffffffffffffffffffff19166001600160601b0390941693909317928390556126cf9230928b9291900b9061423516565b50831561270c576040516001600160a01b0388169085156108fc029086906000818181858888f1935050505015801561219d573d6000803e3d6000fd5b50505050505050565b60006111d3827f00000000000000000000000000000000000000000000000000000000000000006001600160a01b031663bbe4fd506040518163ffffffff1660e01b8152600401602060405180830381865afa158015612779573d6000803e3d6000fd5b505050506040513d601f19601f82011682018060405250810190610d7d91906160d9565b60006111d36127bb63ffffffff841668270801d946c940000061637e565b614254565b61174833338484604051806020016040528060008152506040518060200160405280600081525061358c565b6000600c8263ffffffff161161280a5750662386f26fc10000919050565b60188263ffffffff1611612827575067016345785d8a0000919050565b60248263ffffffff161161284457506702c68af0bb140000919050565b60308263ffffffff16116128615750670429d069189e0000919050565b603c8263ffffffff161161287e575067058d15e176280000919050565b50670de0b6b3a7640000919050565b3361289a60118284614298565b806001600160a01b0316826001600160a01b03167ff4caeb2d6ca8932a215a353d0703c326ec2d81fc68170f320eb2ab49e9df61f960405160405180910390a35050565b6060600f8054610f5290615dd9565b601f54610100900460ff161580801561290d5750601f54600160ff909116105b806129275750303b1580156129275750601f5460ff166001145b61298a5760405162461bcd60e51b815260206004820152602e60248201527f496e697469616c697a61626c653a20636f6e747261637420697320616c72656160448201526d191e481a5b9a5d1a585b1a5e995960921b6064820152608401611c8a565b601f805460ff1916600117905580156129ad57601f805461ff0019166101001790555b801561120557601f805461ff0019169055604051600181527f7f26b83ff96e1f2b6a682f133852f6798a09c465da95921460cefb3847402498906020015b60405180910390a150565b61209f3333868686868080601f016020809104026020016040519081016040528093929190818152602001838380828437600092018290525060408051602081019091529081529250600191506141bc9050565b333014612a6a57604051630fff4cc960e31b815260040160405180910390fd5b8051604080516000815260208101909152611f949133918691869190151590869061439c565b601f546201000090046001600160a01b03163314612ac1576040516338ebc58960e11b815260040160405180910390fd5b6040805160008152602081019182905263c68d428360e01b909152309063c68d428390612af5908390859060248101615e8a565b600060405180830381600087803b158015612b0f57600080fd5b505af1158015611340573d6000803e3d6000fd5b6040513390600090612b3b9083908790602001615efa565b604051602081830303815290604052805190602001209050612b908185858080602002602001604051908101604052809392919081815260200183836020028082843760009201919091525061349b92505050565b336001600160a01b03167f0c4c547b3a4fcaa5be8353b3111472b124155bccc86de811d4a481c9e6e9faca8686866040516112dc93929190615f37565b611748333383612bdc33612209565b613788565b60006111cf3384611c01856040518060600160405280602a81526020016166c5602a91393360009081526010602090815260408083206001600160a01b038d168452909152902054919061445d565b600061222b33338585613788565b600080600080612c4e8686613004565b9250925092506000612c76828411612c675760006139ed565b612c7183856162e0565b6139ed565b612c809085615fdd565b60001315979650505050505050565b60006111d3827f00000000000000000000000000000000000000000000000000000000000000006001600160a01b031663bbe4fd506040518163ffffffff1660e01b8152600401602060405180830381865afa158015612cf3573d6000803e3d6000fd5b505050506040513d601f19601f82011682018060405250810190610c7d91906160d9565b333014612d3757604051630fff4cc960e31b815260040160405180910390fd5b8051604080516000815260208101909152611f94913391869186919015159081908790614489565b7f00000000000000000000000000000000000000000000000000000000000000006001600160a01b03163314612da85760405163c51efddd60e01b815260040160405180910390fd5b611f948383611c01846040518060600160405280602a81526020016166c5602a91396001600160a01b03808a166000908152601060209081526040808320938c1683529290522054919061445d565b7f00000000000000000000000000000000000000000000000000000000000000006001600160a01b03163314612e405760405163c51efddd60e01b815260040160405180910390fd5b61209f33858585856040518060200160405280600081525060016141bc565b7f00000000000000000000000000000000000000000000000000000000000000006001600160a01b03163314612ea85760405163c51efddd60e01b815260040160405180910390fd5b611748338384846040518060200160405280600081525060405180602001604052806000815250613c97565b604051632329212160e21b81523360048201527f00000000000000000000000000000000000000000000000000000000000000006001600160a01b031690638ca4848490602401602060405180830381865afa158015612f38573d6000803e3d6000fd5b505050506040513d601f19601f82011682018060405250810190612f5c9190615f78565b612f795760405163327fd99160e21b815260040160405180910390fd5b6001600160a01b038216600090815260016020526040902054612f9d908290615fdd565b6001600160a01b0390921660009081526001602052604090209190915550565b600061222b60118484614113565b600080612fd88484613004565b5050600013949350505050565b6001600160a01b03908116600090815260208052604090205416151590565b6001600160a01b03821660009081526001602052604081205490808061302986611b27565b905060005b815181101561313557600080600084848151811061304e5761304e616071565b60209081029190910101516040516326cb922f60e21b81523060048201526001600160a01b038c81166024830152604482018c905290911690639b2e48bc90606401606060405180830381865afa1580156130ad573d6000803e3d6000fd5b505050506040513d601f19601f820116820180604052508101906130d191906163a0565b919450925090506130e282886161a3565b96506130ee81876161a3565b955061310b8183116131015760006139ed565b612c7182846162e0565b613115848a615fdd565b61311f9190616005565b97505050508061312e90616058565b905061302e565b50509250925092565b601f546201000090046001600160a01b0316331461316f576040516338ebc58960e11b815260040160405180910390fd5b6001600160a01b0381166131965760405163538ba4f960e01b815260040160405180910390fd5b61319f81612fe5565b156131bd576040516305e3624f60e11b815260040160405180910390fd5b6112058161343f565b601f546201000090046001600160a01b031633146131f7576040516338ebc58960e11b815260040160405180910390fd5b6001600160a01b03821661321e5760405163538ba4f960e01b815260040160405180910390fd5b6000811161323f5760405163fae8279160e01b815260040160405180910390fd5b804710156132605760405163119563e560e31b815260040160405180910390fd5b6040516001600160a01b0383169082156108fc029083906000818181858888f19350505050158015611f94573d6000803e3d6000fd5b336132a360118284614557565b806001600160a01b0316826001600160a01b03167f50546e66e5f44d728365dc3908c63bc5cfeeab470722c1677e3073a6ac294aa160405160405180910390a35050565b336132f460118289614113565b6133115760405163f7f0222760e01b815260040160405180910390fd5b61270c8188898989898080601f01602080910402602001604051908101604052809392919081815260200183838082843760009201919091525050604080516020601f8d018190048102820181019092528b815292508b91508a908190840183828082843760009201919091525061358c92505050565b611f943333338686868080601f01602080910402602001604051908101604052809392919081815260200183838082843760009201829052506040805160208101909152908152925061358c915050565b60608160000180548060200260200160405190810160405280929190818152602001828054801561343357602002820191906000526020600020905b81546001600160a01b03168152600190910190602001808311613415575b50505050509050919050565b601f80546001600160a01b038381166201000081810262010000600160b01b031985161790945560405193909204169182907f8be0079c531659141344cd1fd0a4f28419497f9722a3daafe3b4186f6b6457e090600090a35050565b60005b8151811015611f945760008282815181106134bb576134bb616071565b60200260200101519050808285015550806134d590616058565b905061349e565b6001600160a01b03831661350357604051638163862760e01b815260040160405180910390fd5b6001600160a01b03821661352a576040516337c1c09d60e21b815260040160405180910390fd5b6001600160a01b0383811660008181526010602090815260408083209487168084529482529182902085905590518481527f8c5be1e5ebec7d5bd14f71427d1e84f3dd0314c0f7b2291e5b200ac8c7c3b92591015b60405180910390a3505050565b600d546001600160a01b03166135b557604051637bce7b2b60e11b815260040160405180910390fd5b6000806135c18561464f565b915091506135d8888883875160001415888861439c565b600d546040516370a0823160e01b81523060048201526000916001600160a01b0316906370a0823190602401602060405180830381865afa158015613621573d6000803e3d6000fd5b505050506040513d601f19601f8201168201806040525081019061364591906160d9565b600d5490915061365f906001600160a01b0316888561470b565b600d546040516370a0823160e01b81523060048201526000916001600160a01b0316906370a0823190602401602060405180830381865afa1580156136a8573d6000803e3d6000fd5b505050506040513d601f19601f820116820180604052508101906136cc91906160d9565b905060006136da82846162e0565b90508085146136fc57604051631c7c26d360e31b815260040160405180910390fd5b896001600160a01b03167f3bc27981aebbb57f9247dc00fde9d6cd91e4b230083fec3238fedbcba1f9ab3d8560405161373791815260200190565b60405180910390a25050505050505050505050565b6000805b8281101561377e5783810154801561376d576001925050506111d3565b5061377781616058565b9050613750565b5060009392505050565b60006001600160a01b0384166137b15760405163eecd6c9b60e01b815260040160405180910390fd5b6001600160a01b0383166137d85760405163e219bd3960e01b815260040160405180910390fd5b600033905061380981868686604051806020016040528060008152506040518060200160405280600081525061476e565b846001600160a01b0316866001600160a01b03161461389c5761389c8587611c01866040518060600160405280602d815260200161670f602d9139601060008c6001600160a01b03166001600160a01b0316815260200190815260200160002060008d6001600160a01b03166001600160a01b031681526020019081526020016000205461445d9092919063ffffffff16565b50600195945050505050565b6000807f00000000000000000000000000000000000000000000000000000000000000006001600160a01b031663289b3c0d6040518163ffffffff1660e01b8152600401602060405180830381865afa158015613909573d6000803e3d6000fd5b505050506040513d601f19601f8201168201806040525081019061392d91906162c3565b604051638369a0f160e01b81526001600160a01b037f0000000000000000000000000000000000000000000000000000000000000000811660048301523060248301527f9f60ae461adf056670e03ae602566409933242392cb06744f5747c9f38b05d09604483015291925090821690638369a0f190606401602060405180830381865afa1580156139c3573d6000803e3d6000fd5b505050506040513d601f19601f820116820180604052508101906139e791906162c3565b91505090565b60006001600160ff1b03821115613a575760405162461bcd60e51b815260206004820152602860248201527f53616665436173743a2076616c756520646f65736e27742066697420696e2061604482015267371034b73a191a9b60c11b6064820152608401611c8a565b5090565b816001600160a01b0316836001600160a01b03166000805160206166ef8339815191528360405161357f91815260200190565b60005b81811015611f9457600083820155613aa881616058565b9050613a91565b600080613abb8561480d565b604051631cd43d1160e31b81526001600160a01b03888116600483015287811660248301528681166044830152919350908316915063e6a1e88890606401608060405180830381865afa158015613b16573d6000803e3d6000fd5b505050506040513d601f19601f82011682018060405250810190613b3a91906163ce565b5090979650505050505050565b604080516000808252602082019092526116cb9085908590859061498e565b6000613b73308085613aaf565b600b0b1315613b8757611f94308383614ab9565b611f94308383614235565b6040516329965a1d60e01b81526001600160a01b03821660048201527fac7fbab5f54a3ca8194167523c6753bfeb96a445279294b6125b68cce21770546024820152306044820152731820a4b7618bde71dce8cdc73aab6c95905fad24906329965a1d90606401600060405180830381600087803b158015613c1357600080fd5b505af1158015613c27573d6000803e3d6000fd5b50506040516329965a1d60e01b81526001600160a01b03841660048201527faea199e31a596269b42cdafd93407f14436db6e4cad65417994c2eb37381e05a6024820152306044820152731820a4b7618bde71dce8cdc73aab6c95905fad2492506329965a1d9150606401612af5565b600d546001600160a01b0316613cc057604051637bce7b2b60e11b815260040160405180910390fd5b600080613ccc8561464f565b600d546040516370a0823160e01b81523060048201529294509092506000916001600160a01b03909116906370a0823190602401602060405180830381865afa158015613d1d573d6000803e3d6000fd5b505050506040513d601f19601f82011682018060405250810190613d4191906160d9565b600d54909150613d5c906001600160a01b0316893086614ad8565b600d546040516370a0823160e01b81523060048201526000916001600160a01b0316906370a0823190602401602060405180830381865afa158015613da5573d6000803e3d6000fd5b505050506040513d601f19601f82011682018060405250810190613dc991906160d9565b90506000613dd783836162e0565b9050808514613df957604051631c7c26d360e31b815260040160405180910390fd5b8651613e0f908c908b9087901515808c8c614489565b886001600160a01b03167f25ca84076773b0455db53621c459ddc84fe40840e4932a62706a032566f399df8560405161373791815260200190565b6000613e747f360894a13ba1a3210667c828492db98dca3e2076cc3735a920a3ca505d382bbc5490565b6001600160a01b031603613eca5760405162461bcd60e51b815260206004820152601d60248201527f5555505350726f786961626c653a206e6f742075706772616461626c650000006044820152606401611c8a565b806001600160a01b03166352d1902d6040518163ffffffff1660e01b8152600401602060405180830381865afa158015613f08573d6000803e3d6000fd5b505050506040513d601f19601f82011682018060405250810190613f2c91906160d9565b7fe438b61c5ae6309c126c34745a1d75e0e5b69a37085ad47b7d9802d1366b0db914613fa65760405162461bcd60e51b815260206004820152602360248201527f5555505350726f786961626c653a206e6f7420636f6d70617469626c65206c6f60448201526267696360e81b6064820152608401611c8a565b6001600160a01b0381163003613ffe5760405162461bcd60e51b815260206004820152601960248201527f5555505350726f786961626c653a2070726f7879206c6f6f70000000000000006044820152606401611c8a565b614026817f360894a13ba1a3210667c828492db98dca3e2076cc3735a920a3ca505d382bbc55565b7fe011bc04c286c344a8fcbb8de77f953da762c3e25d8cdea984147fc4168a5dcc7fe438b61c5ae6309c126c34745a1d75e0e5b69a37085ad47b7d9802d1366b0db9604080519182526001600160a01b0384166020830152016129eb565b6060816001600160401b0381111561409e5761409e6157f0565b6040519080825280602002602001820160405280156140c7578160200160208202803683370190505b50905060005b8281101561410c576000818501549050808383815181106140f0576140f0616071565b60209081029190910101525061410581616058565b90506140cd565b5092915050565b6000816001600160a01b0316836001600160a01b0316148061418257506001600160a01b038316600090815260018501602052604090205460ff16801561418257506001600160a01b03808316600090815260038601602090815260408083209387168352929052205460ff16155b806116cb57506001600160a01b03808316600090815260028601602090815260408083209387168352929052205460ff1690509392505050565b6001600160a01b0386166141e35760405163eecd6c9b60e01b815260040160405180910390fd5b6001600160a01b03851661420a5760405163e219bd3960e01b815260040160405180910390fd5b614218878787878787614b10565b61422687878787878761476e565b61270c87878787878787614c37565b604080516000808252602082019092526116cb90859085908590614d87565b600060016001605f1b03821115613a575760405162461bcd60e51b81526020600482015260086024820152676f766572666c6f7760c01b6044820152606401611c8a565b806001600160a01b0316826001600160a01b03160361430f5760405162461bcd60e51b815260206004820152602d60248201527f4552433737374f70657261746f72733a20617574686f72697a696e672073656c60448201526c331030b99037b832b930ba37b960991b6064820152608401611c8a565b6001600160a01b038116600090815260018401602052604090205460ff1615614365576001600160a01b03918216600090815260039390930160209081526040808520929093168452529020805460ff19169055565b6001600160a01b0380831660009081526002850160209081526040808320938516835292905220805460ff19166001179055505050565b6001600160a01b0385166143c357604051632e8aac6160e21b815260040160405180910390fd5b82156143d8576143d886866000878686614b10565b6143e28585614e12565b846001600160a01b0316866001600160a01b03167fa78a9be3a7b862d26933ad85fb11d80ef66b8f972d7cbba06621d583943a409886858560405161442993929190616412565b60405180910390a36040518481526000906001600160a01b038716906000805160206166ef83398151915290602001611d49565b600081848411156144815760405162461bcd60e51b8152600401611c8a9190615508565b505050900390565b6001600160a01b0386166144b057604051630d24315760e01b815260040160405180910390fd5b6144ba8686614f22565b83156144d0576144d08760008888868689614c37565b856001600160a01b0316876001600160a01b03167f2fe5be0146f74c5bce36c0b80911af6c7d86ff27e89d5cfa61fc681327954e5d87858560405161451793929190616412565b60405180910390a36040518581526001600160a01b038716906000906000805160206166ef8339815191529060200160405180910390a350505050505050565b336001600160a01b038216036145c25760405162461bcd60e51b815260206004820152602a60248201527f4552433737374f70657261746f72733a207265766f6b696e672073656c662061604482015269399037b832b930ba37b960b11b6064820152608401611c8a565b6001600160a01b038116600090815260018401602052604090205460ff161561461c576001600160a01b0380831660009081526003850160209081526040808320938516835292905220805460ff19166001179055505050565b6001600160a01b03918216600090815260029390930160209081526040808520929093168452529020805460ff19169055565b600d54600090819081906012600160a01b90910460ff1610156146ae57600d5461468490600160a01b900460ff16601261643d565b61468f90600a61653a565b905061469b818561637e565b92506146a78184616549565b9150614705565b600d546012600160a01b90910460ff1611156146fe57600d546146dd90601290600160a01b900460ff1661643d565b6146e890600a61653a565b90506146f48185616549565b9250839150614705565b8391508192505b50915091565b6040516001600160a01b038316602482015260448101829052611f9490849063a9059cbb60e01b906064015b60408051601f198184030181529190526020810180516001600160e01b03166001600160e01b031990931692909217909152614f7c565b614781858561477c866139ed565b615051565b836001600160a01b0316856001600160a01b0316876001600160a01b03167f06b541ddaa720db2b10a4d0cdac39b8d360425fc073085fac19bc826146779878686866040516147d293929190616412565b60405180910390a4836001600160a01b0316856001600160a01b03166000805160206166ef83398151915285604051611d4991815260200190565b7f65599bf746e17a00ea62e3610586992d88101b78eec3cf380706621fb97ea837547fb969d79d88acd02d04ed7ee7d43b949e7daf093d363abcfbbc43dfdfd1ce969a546001600160a01b03811661495d576001600160a01b0382166148d257826001600160a01b03166320bc44256040518163ffffffff1660e01b8152600401602060405180830381865afa1580156148ab573d6000803e3d6000fd5b505050506040513d601f19601f820116820180604052508101906148cf91906162c3565b91505b604051635b69006f60e11b81527fa9214cc96615e0085d3bb077758db69497dc2dce3b2b1e97bc93c3d18d83efd360048201526001600160a01b0383169063b6d200de90602401602060405180830381865afa158015614936573d6000803e3d6000fd5b505050506040513d601f19601f8201168201806040525081019061495a91906162c3565b90505b6001600160a01b03821661497357614973615fc7565b6001600160a01b03811661498957614989615fc7565b915091565b600080600061499c87615150565b91509150816001600160a01b03166339255d5b82836001600160a01b031663b4b333c68b8b8b60006001600160401b038111156149db576149db6157f0565b6040519080825280601f01601f191660200182016040528015614a05576020820181803683370190505b50604051602401614a199493929190616560565b60408051808303601f1901815291815260208201805160e094851b6001600160e01b03909116179052519185901b6001600160e01b0319168252614a64939250908990600401616594565b6000604051808303816000875af1158015614a83573d6000803e3d6000fd5b505050506040513d6000823e601f3d908101601f19168201604052614aab91908101906165b8565b506001979650505050505050565b604080516000808252602082019092526116cb908590859085906152fb565b6040516001600160a01b038085166024830152831660448201526064810182905261209f9085906323b872dd60e01b90608401614737565b60405163555ddc6560e11b81526001600160a01b03861660048201527f29ddb589b1fb5fc7cf394961c1adf5f8c6454761adf795e67fe149f658abe8956024820152600090731820a4b7618bde71dce8cdc73aab6c95905fad249063aabbb8ca90604401602060405180830381865afa158015614b91573d6000803e3d6000fd5b505050506040513d601f19601f82011682018060405250810190614bb591906162c3565b90506001600160a01b0381161561270c57604051633ad5cbc160e11b81526001600160a01b038216906375ab978290614bfc908a908a908a908a908a908a90600401616625565b600060405180830381600087803b158015614c1657600080fd5b505af1158015614c2a573d6000803e3d6000fd5b5050505050505050505050565b60405163555ddc6560e11b81526001600160a01b03861660048201527fb281fc8c12954d22544db45de3159a39272895b169a852b314f9cc762e44c53b6024820152600090731820a4b7618bde71dce8cdc73aab6c95905fad249063aabbb8ca90604401602060405180830381865afa158015614cb8573d6000803e3d6000fd5b505050506040513d601f19601f82011682018060405250810190614cdc91906162c3565b90506001600160a01b03811615614d58576040516223de2960e01b81526001600160a01b038216906223de2990614d21908b908b908b908b908b908b90600401616625565b600060405180830381600087803b158015614d3b57600080fd5b505af1158015614d4f573d6000803e3d6000fd5b5050505061219d565b811561219d576001600160a01b0386163b1561219d5760405163fe737d0560e01b815260040160405180910390fd5b6000806000614d9587615150565b91509150816001600160a01b03166339255d5b82836001600160a01b03166362fc305e8b8b8b60006001600160401b03811115614dd457614dd46157f0565b6040519080825280601f01601f191660200182016040528015614dfe576020820181803683370190505b50604051602401614a199493929190616672565b6000614e9a837f00000000000000000000000000000000000000000000000000000000000000006001600160a01b031663bbe4fd506040518163ffffffff1660e01b8152600401602060405180830381865afa158015614e76573d6000803e3d6000fd5b505050506040513d601f19601f82011682018060405250810190610e0391906160d9565b50509050614ea7826139ed565b811215614ec75760405163043b37d160e21b815260040160405180910390fd5b614ed0826139ed565b6001600160a01b038416600090815260016020526040902054614ef39190616005565b6001600160a01b038416600090815260016020526040902055600254614f1a9083906162e0565b600255505050565b614f2b816139ed565b6001600160a01b038316600090815260016020526040902054614f4e9190615fdd565b6001600160a01b038316600090815260016020526040902055600254614f759082906161a3565b6002555050565b6000614fd1826040518060400160405280602081526020017f5361666545524332303a206c6f772d6c6576656c2063616c6c206661696c6564815250856001600160a01b03166153489092919063ffffffff16565b9050805160001480614ff2575080806020019051810190614ff29190615f78565b611f945760405162461bcd60e51b815260206004820152602a60248201527f5361666545524332303a204552433230206f7065726174696f6e20646964206e6044820152691bdd081cdd58d8d9595960b21b6064820152608401611c8a565b60006150b5847f00000000000000000000000000000000000000000000000000000000000000006001600160a01b031663bbe4fd506040518163ffffffff1660e01b8152600401602060405180830381865afa158015614e76573d6000803e3d6000fd5b50509050818112156150da57604051632f4cb94160e01b815260040160405180910390fd5b6001600160a01b0384166000908152600160205260409020546150fe908390616005565b6001600160a01b03808616600090815260016020526040808220939093559085168152205461512e908390615fdd565b6001600160a01b03909316600090815260016020526040902092909255505050565b7f65599bf746e17a00ea62e3610586992d88101b78eec3cf380706621fb97ea837547fb969d79d88acd02d04ed7ee7d43b949e7daf093d363abcfbbc43dfdfd1ce969a546001600160a01b03811661495d576001600160a01b03821661521557826001600160a01b03166320bc44256040518163ffffffff1660e01b8152600401602060405180830381865afa1580156151ee573d6000803e3d6000fd5b505050506040513d601f19601f8201168201806040525081019061521291906162c3565b91505b604051635b69006f60e11b81527fa9214cc96615e0085d3bb077758db69497dc2dce3b2b1e97bc93c3d18d83efd360048201526001600160a01b0383169063b6d200de90602401602060405180830381865afa158015615279573d6000803e3d6000fd5b505050506040513d601f19601f8201168201806040525081019061529d91906162c3565b9050817f65599bf746e17a00ea62e3610586992d88101b78eec3cf380706621fb97ea83755807fb969d79d88acd02d04ed7ee7d43b949e7daf093d363abcfbbc43dfdfd1ce969a556001600160a01b03821661497357614973615fc7565b600080600061530987615150565b91509150816001600160a01b03166339255d5b82836001600160a01b03166350209a628b8b8b60006001600160401b03811115614dd457614dd46157f0565b60606116cb848460008585600080866001600160a01b0316858760405161536f91906166a8565b60006040518083038185875af1925050503d80600081146153ac576040519150601f19603f3d011682016040523d82523d6000602084013e6153b1565b606091505b50915091506153c2878383876153cd565b979650505050505050565b6060831561543c578251600003615435576001600160a01b0385163b6154355760405162461bcd60e51b815260206004820152601d60248201527f416464726573733a2063616c6c20746f206e6f6e2d636f6e74726163740000006044820152606401611c8a565b50816116cb565b6116cb83838151156154515781518083602001fd5b8060405162461bcd60e51b8152600401611c8a9190615508565b6020808252825182820181905260009190848201906040850190845b818110156154ac5783516001600160a01b031683529284019291840191600101615487565b50909695505050505050565b60005b838110156154d35781810151838201526020016154bb565b50506000910152565b600081518084526154f48160208601602086016154b8565b601f01601f19169290920160200192915050565b60208152600061222b60208301846154dc565b60008083601f84011261552d57600080fd5b5081356001600160401b0381111561554457600080fd5b60208301915083602082850101111561555c57600080fd5b9250929050565b6001600160a01b038116811461120557600080fd5b60008060008060006060868803121561559057600080fd5b85356001600160401b03808211156155a757600080fd5b6155b389838a0161551b565b909750955060208801359150808211156155cc57600080fd5b506155d98882890161551b565b90945092505060408601356155ed81615563565b809150509295509295909350565b60008083601f84011261560d57600080fd5b5081356001600160401b0381111561562457600080fd5b6020830191508360208260051b850101111561555c57600080fd5b6000806000806060858703121561565557600080fd5b843561566081615563565b93506020850135925060408501356001600160401b0381111561568257600080fd5b61568e878288016155fb565b95989497509550505050565b600080604083850312156156ad57600080fd5b82356156b881615563565b946020939093013593505050565b6000602082840312156156d857600080fd5b813561222b81615563565b80516001600160a01b0316825260208082015160ff169083015260408082015163ffffffff9081169184019190915260608083015190911690830152608090810151600b0b910152565b60a081016111d382846156e3565b60006020828403121561574d57600080fd5b5035919050565b60008060006040848603121561576957600080fd5b8335925060208401356001600160401b0381111561578657600080fd5b615792868287016155fb565b9497909650939450505050565b600080600080608085870312156157b557600080fd5b84356157c081615563565b935060208501356157d081615563565b925060408501356157e081615563565b9396929550929360600135925050565b634e487b7160e01b600052604160045260246000fd5b604051601f8201601f191681016001600160401b038111828210171561582e5761582e6157f0565b604052919050565b60006001600160401b0382111561584f5761584f6157f0565b50601f01601f191660200190565b600082601f83011261586e57600080fd5b813561588161587c82615836565b615806565b81815284602083860101111561589657600080fd5b816020850160208301376000918101602001919091529392505050565b801515811461120557600080fd5b600080600080600080600060e0888a0312156158dc57600080fd5b8735965060208801356001600160401b038111156158f957600080fd5b6159058a828b0161585d565b965050604088013561591681615563565b94506060880135615926816158b3565b9350608088013561593681615563565b9699959850939692959460a0840135945060c09093013592915050565b6020808252825182820181905260009190848201906040850190845b818110156154ac576159828385516156e3565b9284019260a0929092019160010161596f565b6000806000606084860312156159aa57600080fd5b83356159b581615563565b925060208401356159c581615563565b929592945050506040919091013590565b600080604083850312156159e957600080fd5b50508035926020909101359150565b60008060008060008060808789031215615a1157600080fd5b8635615a1c81615563565b9550602087013560ff81168114615a3257600080fd5b945060408701356001600160401b0380821115615a4e57600080fd5b615a5a8a838b0161551b565b90965094506060890135915080821115615a7357600080fd5b50615a8089828a0161551b565b979a9699509497509295939492505050565b60008060008060808587031215615aa857600080fd5b8435615ab381615563565b93506020850135615ac381615563565b93969395505050506040820135916060013590565b6020808252825182820181905260009190848201906040850190845b818110156154ac57835183529284019291840191600101615af4565b60008060008060608587031215615b2657600080fd5b8435615b3181615563565b93506020850135925060408501356001600160401b03811115615b5357600080fd5b61568e8782880161551b565b600080600080600080600060a0888a031215615b7a57600080fd5b8735615b8581615563565b96506020880135615b9581615563565b95506040880135945060608801356001600160401b0380821115615bb857600080fd5b615bc48b838c0161551b565b909650945060808a0135915080821115615bdd57600080fd5b50615bea8a828b0161551b565b989b979a50959850939692959293505050565b600080600060608486031215615c1257600080fd5b8335615c1d81615563565b95602085013595506040909401359392505050565b600060208284031215615c4457600080fd5b813563ffffffff8116811461222b57600080fd5b600080600060608486031215615c6d57600080fd5b8335615c7881615563565b92506020840135915060408401356001600160401b03811115615c9a57600080fd5b615ca68682870161585d565b9150509250925092565b60008060008060808587031215615cc657600080fd5b8435615cd181615563565b93506020850135615ce181615563565b92506040850135915060608501356001600160401b03811115615d0357600080fd5b615d0f8782880161585d565b91505092959194509250565b60008060408385031215615d2e57600080fd5b8235615d3981615563565b91506020830135615d4981615563565b809150509250929050565b60008060008060008060808789031215615d6d57600080fd5b8635615d7881615563565b95506020870135945060408701356001600160401b0380821115615a4e57600080fd5b600080600060408486031215615db057600080fd5b8335925060208401356001600160401b03811115615dcd57600080fd5b6157928682870161551b565b600181811c90821680615ded57607f821691505b602082108103615e0d57634e487b7160e01b600052602260045260246000fd5b50919050565b81835281816020850137506000828201602090810191909152601f909101601f19169091010190565b6001600160a01b038716815260ff86166020820152608060408201819052600090615e6a9083018688615e13565b8281036060840152615e7d818587615e13565b9998505050505050505050565b60018060a01b038416815282602082015260606040820152600061220060608301846154dc565b6080808252600e908201526d41677265656d656e74537461746560901b60a08201526001600160a01b039384166020820152919092166040820152606081019190915260c00190565b6060808252600d908201526c41677265656d656e744461746160981b60808201526001600160a01b03929092166020830152604082015260a00190565b838152604060208201819052810182905260006001600160fb1b03831115615f5e57600080fd5b8260051b8085606085013791909101606001949350505050565b600060208284031215615f8a57600080fd5b815161222b816158b3565b634e487b7160e01b600052601160045260246000fd5b6000600160ff1b8201615fc057615fc0615f95565b5060000390565b634e487b7160e01b600052600160045260246000fd5b8082018281126000831280158216821582161715615ffd57615ffd615f95565b505092915050565b818103600083128015838313168383128216171561410c5761410c615f95565b85815260018060a01b038516602082015283604082015282606082015260a0608082015260006153c260a08301846154dc565b60006001820161606a5761606a615f95565b5060010190565b634e487b7160e01b600052603260045260246000fd5b600063ffffffff82168061609d5761609d615f95565b6000190192915050565b600b82810b9082900b036b7fffffffffffffffffffffff19811260016001605f1b03821317156111d3576111d3615f95565b6000602082840312156160eb57600080fd5b5051919050565b6000602080838503121561610557600080fd5b82516001600160401b038082111561611c57600080fd5b818501915085601f83011261613057600080fd5b815181811115616142576161426157f0565b8060051b9150616153848301615806565b818152918301840191848101908884111561616d57600080fd5b938501935b83851015616197578451925061618783615563565b8282529385019390850190616172565b98975050505050505050565b808201808211156111d3576111d3615f95565b601f821115611f9457600081815260208120601f850160051c810160208610156161dd5750805b601f850160051c820191505b818110156161fc578281556001016161e9565b505050505050565b6001600160401b0383111561621b5761621b6157f0565b61622f836162298354615dd9565b836161b6565b6000601f841160018114616263576000851561624b5750838201355b600019600387901b1c1916600186901b178355611340565b600083815260209020601f19861690835b828110156162945786850135825560209485019460019092019101616274565b50868210156162b15760001960f88860031b161c19848701351681555b505060018560011b0183555050505050565b6000602082840312156162d557600080fd5b815161222b81615563565b818103818111156111d3576111d3615f95565b600063ffffffff80831681810361630c5761630c615f95565b6001019392505050565b600b81810b9083900b0160016001605f1b0381136b7fffffffffffffffffffffff19821217156111d3576111d3615f95565b63ffffffff81811683821601908082111561410c5761410c615f95565b60ff81811683821601908111156111d3576111d3615f95565b60008261639b57634e487b7160e01b600052601260045260246000fd5b500490565b6000806000606084860312156163b557600080fd5b8351925060208401519150604084015190509250925092565b600080600080608085870312156163e457600080fd5b84519350602085015180600b0b81146163fc57600080fd5b6040860151606090960151949790965092505050565b83815260606020820152600061642b60608301856154dc565b8281036040840152611fd481856154dc565b60ff82811682821603908111156111d3576111d3615f95565b600181815b8085111561649157816000190482111561647757616477615f95565b8085161561648457918102915b93841c939080029061645b565b509250929050565b6000826164a8575060016111d3565b816164b5575060006111d3565b81600181146164cb57600281146164d5576164f1565b60019150506111d3565b60ff8411156164e6576164e6615f95565b50506001821b6111d3565b5060208310610133831016604e8410600b8410161715616514575081810a6111d3565b61651e8383616456565b806000190482111561653257616532615f95565b029392505050565b600061222b60ff841683616499565b80820281158282048414176111d3576111d3615f95565b6001600160a01b038581168252848116602083015283166040820152608060608201819052600090611fd4908301846154dc565b6001600160a01b038416815260606020820181905260009061642b908301856154dc565b6000602082840312156165ca57600080fd5b81516001600160401b038111156165e057600080fd5b8201601f810184136165f157600080fd5b80516165ff61587c82615836565b81815285602083850101111561661457600080fd5b6122008260208301602086016154b8565b6001600160a01b0387811682528681166020830152851660408201526060810184905260c060808201819052600090616660908301856154dc565b82810360a0840152615e7d81856154dc565b6001600160a01b03858116825284166020820152600b83900b6040820152608060608201819052600090611fd4908301846154dc565b600082516166ba8184602087016154b8565b919091019291505056fe5375706572546f6b656e3a2064656372656173656420616c6c6f77616e63652062656c6f77207a65726fddf252ad1be2c89b69c2b068fc378daa952ba7f163c4a11628f55a4df523b3ef5375706572546f6b656e3a207472616e7366657220616d6f756e74206578636565647320616c6c6f77616e6365a2646970667358221220bb96a01ec20ff1822ded0455276489b780756d887e08befdee8278ab4156b97664736f6c63430008130033",
    "linkReferences": {}
  },
  "methodIdentifiers": {
    "CONSTANT_INFLOW_NFT()": "4c5c0c85",
    "CONSTANT_OUTFLOW_NFT()": "ef43d2c6",
    "FLAT_COST_SPONSORSHIP()": "b132a50d",
    "MAX_SPONSORSHIP_LEVEL()": "b5c0b7eb",
    "MAX_SPONSORSHIP_PATH_OUTFLOW()": "f349f56a",
    "allowance(address,address)": "dd62ed3e",
    "approve(address,uint256)": "095ea7b3",
    "authorizeOperator(address)": "959b8c3f",
    "balanceOf(address)": "70a08231",
    "burn(uint256,bytes)": "fe9d9303",
    "calculateFlowRate(uint32)": "7ae058dc",
    "castrate()": "9903ad38",
    "createAgreement(bytes32,bytes32[])": "12a6a3f8",
    "decimals()": "313ce567",
    "decreaseAllowance(address,uint256)": "a457c2d7",
    "defaultOperators()": "06e48538",
    "downgrade(uint256)": "11bcc81e",
    "downgradeTo(address,uint256)": "83ba2525",
    "fee(uint32)": "8934c79a",
    "getAccountActiveAgreements(address)": "386fa221",
    "getAgreementData(address,bytes32,uint256)": "6c2d9f2f",
    "getAgreementStateSlot(address,address,uint256,uint256)": "4b61cc33",
    "getChainOfSponsors(address)": "21fb177a",
    "getCodeAddress()": "50d75d25",
    "getHost()": "20bc4425",
    "getProtege(address)": "099e14ce",
    "getUnderlyingToken()": "ee719bc8",
    "granularity()": "556f0dc7",
    "increaseAllowance(address,uint256)": "39509351",
    "initialize(address,uint8,string,string)": "42fe0980",
    "initialize(string,string,address)": "077f224a",
    "isAccountCritical(address,uint256)": "d9d078d6",
    "isAccountCriticalNow(address)": "79359f6f",
    "isAccountSolvent(address,uint256)": "b84cdd4a",
    "isAccountSolventNow(address)": "bb0d196e",
    "isOperatorFor(address,address)": "d95b6371",
    "isProtege(address)": "e4a472c8",
    "makeLiquidationPayoutsV2(bytes32,bytes,address,bool,address,uint256,int256)": "1863e809",
    "mint(uint256)": "a0712d68",
    "name()": "06fdde03",
    "operationApprove(address,address,uint256)": "62aa5287",
    "operationDecreaseAllowance(address,address,uint256)": "c780fd82",
    "operationDowngrade(address,uint256)": "245887fc",
    "operationIncreaseAllowance(address,address,uint256)": "4b2763b3",
    "operationSend(address,address,uint256,bytes)": "ca0c1e7f",
    "operationTransferFrom(address,address,address,uint256)": "16d055d6",
    "operationUpgrade(address,uint256)": "ca789464",
    "operatorBurn(address,uint256,bytes,bytes)": "fc673c4f",
    "operatorSend(address,address,uint256,bytes,bytes)": "62ad1b83",
    "owner()": "8da5cb5b",
    "proxiableUUID()": "52d1902d",
    "realtimeBalanceOf(address,uint256)": "eb3537cc",
    "realtimeBalanceOfNow(address)": "2ec8eec7",
    "remove(address)": "29092d0e",
    "restartStream()": "57cf7acb",
    "revokeOperator(address)": "fad8b32a",
    "selfApproveFor(address,address,uint256)": "66a12fb6",
    "selfBurn(address,uint256,bytes)": "9d876741",
    "selfMint(address,uint256,bytes)": "c68d4283",
    "selfTransferFrom(address,address,address,uint256)": "41b706be",
    "send(address,uint256,bytes)": "9bd9bbc6",
    "settleBalance(address,int256)": "cf97256d",
    "sponsor(address)": "766c4f37",
    "symbol()": "95d89b41",
    "terminateAgreement(bytes32,uint256)": "27048397",
    "totalSupply()": "18160ddd",
    "transfer(address,uint256)": "a9059cbb",
    "transferAll(address)": "a3a7e7f3",
    "transferFrom(address,address,uint256)": "23b872dd",
    "transferOwnership(address)": "f2fde38b",
    "updateAgreementData(bytes32,bytes32[])": "a1b2bf8b",
    "updateAgreementStateSlot(address,uint256,bytes32[])": "090c415e",
    "updateCode(address)": "46951954",
    "upgrade(uint256)": "45977d03",
    "upgradeTo(address,uint256,bytes)": "5b9d09cc",
    "withdraw(address,uint256)": "f3fef3a3"
  },
  "id": 111
}