{
  "abi": [
    {
      "inputs": [
        {
          "internalType": "contract ISuperfluid",
          "name": "host",
          "type": "address"
        },
        {
          "internalType": "contract IConstantOutflowNFT",
          "name": "constantOutflowNFT",
          "type": "address"
        },
        {
          "internalType": "contract IConstantInflowNFT",
          "name": "constantInflowNFT",
          "type": "address"
        }
      ],
      "stateMutability": "nonpayable",
      "type": "constructor"
    },
    {
      "inputs": [],
      "name": "SF_TOKEN_AGREEMENT_ALREADY_EXISTS",
      "type": "error"
    },
    {
      "inputs": [],
      "name": "SF_TOKEN_AGREEMENT_DOES_NOT_EXIST",
      "type": "error"
    },
    {
      "inputs": [],
      "name": "SF_TOKEN_BURN_INSUFFICIENT_BALANCE",
      "type": "error"
    },
    {
      "inputs": [],
      "name": "SF_TOKEN_MOVE_INSUFFICIENT_BALANCE",
      "type": "error"
    },
    {
      "inputs": [],
      "name": "SF_TOKEN_ONLY_HOST",
      "type": "error"
    },
    {
      "inputs": [],
      "name": "SF_TOKEN_ONLY_LISTED_AGREEMENT",
      "type": "error"
    },
    {
      "inputs": [],
      "name": "SUPER_TOKEN_APPROVE_FROM_ZERO_ADDRESS",
      "type": "error"
    },
    {
      "inputs": [],
      "name": "SUPER_TOKEN_APPROVE_TO_ZERO_ADDRESS",
      "type": "error"
    },
    {
      "inputs": [],
      "name": "SUPER_TOKEN_BURN_FROM_ZERO_ADDRESS",
      "type": "error"
    },
    {
      "inputs": [],
      "name": "SUPER_TOKEN_CALLER_IS_NOT_OPERATOR_FOR_HOLDER",
      "type": "error"
    },
    {
      "inputs": [],
      "name": "SUPER_TOKEN_INFLATIONARY_DEFLATIONARY_NOT_SUPPORTED",
      "type": "error"
    },
    {
      "inputs": [],
      "name": "SUPER_TOKEN_MINT_TO_ZERO_ADDRESS",
      "type": "error"
    },
    {
      "inputs": [],
      "name": "SUPER_TOKEN_NFT_PROXY_ADDRESS_CHANGED",
      "type": "error"
    },
    {
      "inputs": [],
      "name": "SUPER_TOKEN_NOT_ERC777_TOKENS_RECIPIENT",
      "type": "error"
    },
    {
      "inputs": [],
      "name": "SUPER_TOKEN_NO_UNDERLYING_TOKEN",
      "type": "error"
    },
    {
      "inputs": [],
      "name": "SUPER_TOKEN_ONLY_GOV_OWNER",
      "type": "error"
    },
    {
      "inputs": [],
      "name": "SUPER_TOKEN_ONLY_HOST",
      "type": "error"
    },
    {
      "inputs": [],
      "name": "SUPER_TOKEN_ONLY_SELF",
      "type": "error"
    },
    {
      "inputs": [],
      "name": "SUPER_TOKEN_TRANSFER_FROM_ZERO_ADDRESS",
      "type": "error"
    },
    {
      "inputs": [],
      "name": "SUPER_TOKEN_TRANSFER_TO_ZERO_ADDRESS",
      "type": "error"
    },
    {
      "anonymous": false,
      "inputs": [
        {
          "indexed": true,
          "internalType": "address",
          "name": "agreementClass",
          "type": "address"
        },
        {
          "indexed": false,
          "internalType": "bytes32",
          "name": "id",
          "type": "bytes32"
        },
        {
          "indexed": false,
          "internalType": "bytes32[]",
          "name": "data",
          "type": "bytes32[]"
        }
      ],
      "name": "AgreementCreated",
      "type": "event"
    },
    {
      "anonymous": false,
      "inputs": [
        {
          "indexed": true,
          "internalType": "address",
          "name": "agreementClass",
          "type": "address"
        },
        {
          "indexed": false,
          "internalType": "bytes32",
          "name": "id",
          "type": "bytes32"
        },
        {
          "indexed": true,
          "internalType": "address",
          "name": "penaltyAccount",
          "type": "address"
        },
        {
          "indexed": true,
          "internalType": "address",
          "name": "rewardAccount",
          "type": "address"
        },
        {
          "indexed": false,
          "internalType": "uint256",
          "name": "rewardAmount",
          "type": "uint256"
        }
      ],
      "name": "AgreementLiquidated",
      "type": "event"
    },
    {
      "anonymous": false,
      "inputs": [
        {
          "indexed": false,
          "internalType": "address",
          "name": "liquidatorAccount",
          "type": "address"
        },
        {
          "indexed": true,
          "internalType": "address",
          "name": "agreementClass",
          "type": "address"
        },
        {
          "indexed": false,
          "internalType": "bytes32",
          "name": "id",
          "type": "bytes32"
        },
        {
          "indexed": true,
          "internalType": "address",
          "name": "penaltyAccount",
          "type": "address"
        },
        {
          "indexed": true,
          "internalType": "address",
          "name": "bondAccount",
          "type": "address"
        },
        {
          "indexed": false,
          "internalType": "uint256",
          "name": "rewardAmount",
          "type": "uint256"
        },
        {
          "indexed": false,
          "internalType": "uint256",
          "name": "bailoutAmount",
          "type": "uint256"
        }
      ],
      "name": "AgreementLiquidatedBy",
      "type": "event"
    },
    {
      "anonymous": false,
      "inputs": [
        {
          "indexed": true,
          "internalType": "address",
          "name": "agreementClass",
          "type": "address"
        },
        {
          "indexed": false,
          "internalType": "bytes32",
          "name": "id",
          "type": "bytes32"
        },
        {
          "indexed": true,
          "internalType": "address",
          "name": "liquidatorAccount",
          "type": "address"
        },
        {
          "indexed": true,
          "internalType": "address",
          "name": "targetAccount",
          "type": "address"
        },
        {
          "indexed": false,
          "internalType": "address",
          "name": "rewardAmountReceiver",
          "type": "address"
        },
        {
          "indexed": false,
          "internalType": "uint256",
          "name": "rewardAmount",
          "type": "uint256"
        },
        {
          "indexed": false,
          "internalType": "int256",
          "name": "targetAccountBalanceDelta",
          "type": "int256"
        },
        {
          "indexed": false,
          "internalType": "bytes",
          "name": "liquidationTypeData",
          "type": "bytes"
        }
      ],
      "name": "AgreementLiquidatedV2",
      "type": "event"
    },
    {
      "anonymous": false,
      "inputs": [
        {
          "indexed": true,
          "internalType": "address",
          "name": "agreementClass",
          "type": "address"
        },
        {
          "indexed": true,
          "internalType": "address",
          "name": "account",
          "type": "address"
        },
        {
          "indexed": false,
          "internalType": "uint256",
          "name": "slotId",
          "type": "uint256"
        }
      ],
      "name": "AgreementStateUpdated",
      "type": "event"
    },
    {
      "anonymous": false,
      "inputs": [
        {
          "indexed": true,
          "internalType": "address",
          "name": "agreementClass",
          "type": "address"
        },
        {
          "indexed": false,
          "internalType": "bytes32",
          "name": "id",
          "type": "bytes32"
        }
      ],
      "name": "AgreementTerminated",
      "type": "event"
    },
    {
      "anonymous": false,
      "inputs": [
        {
          "indexed": true,
          "internalType": "address",
          "name": "agreementClass",
          "type": "address"
        },
        {
          "indexed": false,
          "internalType": "bytes32",
          "name": "id",
          "type": "bytes32"
        },
        {
          "indexed": false,
          "internalType": "bytes32[]",
          "name": "data",
          "type": "bytes32[]"
        }
      ],
      "name": "AgreementUpdated",
      "type": "event"
    },
    {
      "anonymous": false,
      "inputs": [
        {
          "indexed": true,
          "internalType": "address",
          "name": "owner",
          "type": "address"
        },
        {
          "indexed": true,
          "internalType": "address",
          "name": "spender",
          "type": "address"
        },
        {
          "indexed": false,
          "internalType": "uint256",
          "name": "value",
          "type": "uint256"
        }
      ],
      "name": "Approval",
      "type": "event"
    },
    {
      "anonymous": false,
      "inputs": [
        {
          "indexed": true,
          "internalType": "address",
          "name": "operator",
          "type": "address"
        },
        {
          "indexed": true,
          "internalType": "address",
          "name": "tokenHolder",
          "type": "address"
        }
      ],
      "name": "AuthorizedOperator",
      "type": "event"
    },
    {
      "anonymous": false,
      "inputs": [
        {
          "indexed": true,
          "internalType": "address",
          "name": "bailoutAccount",
          "type": "address"
        },
        {
          "indexed": false,
          "internalType": "uint256",
          "name": "bailoutAmount",
          "type": "uint256"
        }
      ],
      "name": "Bailout",
      "type": "event"
    },
    {
      "anonymous": false,
      "inputs": [
        {
          "indexed": true,
          "internalType": "address",
          "name": "operator",
          "type": "address"
        },
        {
          "indexed": true,
          "internalType": "address",
          "name": "from",
          "type": "address"
        },
        {
          "indexed": false,
          "internalType": "uint256",
          "name": "amount",
          "type": "uint256"
        },
        {
          "indexed": false,
          "internalType": "bytes",
          "name": "data",
          "type": "bytes"
        },
        {
          "indexed": false,
          "internalType": "bytes",
          "name": "operatorData",
          "type": "bytes"
        }
      ],
      "name": "Burned",
      "type": "event"
    },
    {
      "anonymous": false,
      "inputs": [
        {
          "indexed": true,
          "internalType": "contract IConstantInflowNFT",
          "name": "constantInflowNFT",
          "type": "address"
        }
      ],
      "name": "ConstantInflowNFTCreated",
      "type": "event"
    },
    {
      "anonymous": false,
      "inputs": [
        {
          "indexed": true,
          "internalType": "contract IConstantOutflowNFT",
          "name": "constantOutflowNFT",
          "type": "address"
        }
      ],
      "name": "ConstantOutflowNFTCreated",
      "type": "event"
    },
    {
      "anonymous": false,
      "inputs": [
        {
          "indexed": true,
          "internalType": "address",
          "name": "operator",
          "type": "address"
        },
        {
          "indexed": true,
          "internalType": "address",
          "name": "to",
          "type": "address"
        },
        {
          "indexed": false,
          "internalType": "uint256",
          "name": "amount",
          "type": "uint256"
        },
        {
          "indexed": false,
          "internalType": "bytes",
          "name": "data",
          "type": "bytes"
        },
        {
          "indexed": false,
          "internalType": "bytes",
          "name": "operatorData",
          "type": "bytes"
        }
      ],
      "name": "Minted",
      "type": "event"
    },
    {
      "anonymous": false,
      "inputs": [
        {
          "indexed": true,
          "internalType": "address",
          "name": "previousOwner",
          "type": "address"
        },
        {
          "indexed": true,
          "internalType": "address",
          "name": "newOwner",
          "type": "address"
        }
      ],
      "name": "OwnershipTransferred",
      "type": "event"
    },
    {
      "anonymous": false,
      "inputs": [
        {
          "indexed": true,
          "internalType": "address",
          "name": "sponsor",
          "type": "address"
        },
        {
          "indexed": true,
          "internalType": "address",
          "name": "protege",
          "type": "address"
        },
        {
          "indexed": false,
          "internalType": "uint8",
          "name": "level",
          "type": "uint8"
        },
        {
          "indexed": false,
          "internalType": "uint32",
          "name": "totalProtegeCount",
          "type": "uint32"
        },
        {
          "indexed": false,
          "internalType": "uint32",
          "name": "directTotalProtegeCount",
          "type": "uint32"
        }
      ],
      "name": "PROTEGE_UPDATED",
      "type": "event"
    },
    {
      "anonymous": false,
      "inputs": [
        {
          "indexed": true,
          "internalType": "address",
          "name": "operator",
          "type": "address"
        },
        {
          "indexed": true,
          "internalType": "address",
          "name": "tokenHolder",
          "type": "address"
        }
      ],
      "name": "RevokedOperator",
      "type": "event"
    },
    {
      "anonymous": false,
      "inputs": [
        {
          "indexed": true,
          "internalType": "address",
          "name": "operator",
          "type": "address"
        },
        {
          "indexed": true,
          "internalType": "address",
          "name": "from",
          "type": "address"
        },
        {
          "indexed": true,
          "internalType": "address",
          "name": "to",
          "type": "address"
        },
        {
          "indexed": false,
          "internalType": "uint256",
          "name": "amount",
          "type": "uint256"
        },
        {
          "indexed": false,
          "internalType": "bytes",
          "name": "data",
          "type": "bytes"
        },
        {
          "indexed": false,
          "internalType": "bytes",
          "name": "operatorData",
          "type": "bytes"
        }
      ],
      "name": "Sent",
      "type": "event"
    },
    {
      "anonymous": false,
      "inputs": [
        {
          "indexed": true,
          "internalType": "address",
          "name": "account",
          "type": "address"
        },
        {
          "indexed": false,
          "internalType": "uint256",
          "name": "amount",
          "type": "uint256"
        }
      ],
      "name": "TokenDowngraded",
      "type": "event"
    },
    {
      "anonymous": false,
      "inputs": [
        {
          "indexed": true,
          "internalType": "address",
          "name": "account",
          "type": "address"
        },
        {
          "indexed": false,
          "internalType": "uint256",
          "name": "amount",
          "type": "uint256"
        }
      ],
      "name": "TokenUpgraded",
      "type": "event"
    },
    {
      "anonymous": false,
      "inputs": [
        {
          "indexed": true,
          "internalType": "address",
          "name": "from",
          "type": "address"
        },
        {
          "indexed": true,
          "internalType": "address",
          "name": "to",
          "type": "address"
        },
        {
          "indexed": false,
          "internalType": "uint256",
          "name": "value",
          "type": "uint256"
        }
      ],
      "name": "Transfer",
      "type": "event"
    },
    {
      "inputs": [],
      "name": "CONSTANT_INFLOW_NFT",
      "outputs": [
        {
          "internalType": "contract IConstantInflowNFT",
          "name": "",
          "type": "address"
        }
      ],
      "stateMutability": "view",
      "type": "function"
    },
    {
      "inputs": [],
      "name": "CONSTANT_OUTFLOW_NFT",
      "outputs": [
        {
          "internalType": "contract IConstantOutflowNFT",
          "name": "",
          "type": "address"
        }
      ],
      "stateMutability": "view",
      "type": "function"
    },
    {
      "inputs": [],
      "name": "FLAT_COST_SPONSORSHIP",
      "outputs": [
        {
          "internalType": "uint256",
          "name": "",
          "type": "uint256"
        }
      ],
      "stateMutability": "view",
      "type": "function"
    },
    {
      "inputs": [],
      "name": "MAX_SPONSORSHIP_LEVEL",
      "outputs": [
        {
          "internalType": "uint256",
          "name": "",
          "type": "uint256"
        }
      ],
      "stateMutability": "view",
      "type": "function"
    },
    {
      "inputs": [],
      "name": "MAX_SPONSORSHIP_PATH_OUTFLOW",
      "outputs": [
        {
          "internalType": "uint256",
          "name": "",
          "type": "uint256"
        }
      ],
      "stateMutability": "view",
      "type": "function"
    },
    {
      "inputs": [
        {
          "internalType": "string",
          "name": "clubName",
          "type": "string"
        },
        {
          "internalType": "string",
          "name": "clubSymbol",
          "type": "string"
        }
      ],
      "name": "_initialize",
      "outputs": [],
      "stateMutability": "nonpayable",
      "type": "function"
    },
    {
      "inputs": [
        {
          "internalType": "address",
          "name": "account",
          "type": "address"
        },
        {
          "internalType": "address",
          "name": "spender",
          "type": "address"
        }
      ],
      "name": "allowance",
      "outputs": [
        {
          "internalType": "uint256",
          "name": "",
          "type": "uint256"
        }
      ],
      "stateMutability": "view",
      "type": "function"
    },
    {
      "inputs": [
        {
          "internalType": "address",
          "name": "spender",
          "type": "address"
        },
        {
          "internalType": "uint256",
          "name": "amount",
          "type": "uint256"
        }
      ],
      "name": "approve",
      "outputs": [
        {
          "internalType": "bool",
          "name": "",
          "type": "bool"
        }
      ],
      "stateMutability": "nonpayable",
      "type": "function"
    },
    {
      "inputs": [
        {
          "internalType": "address",
          "name": "operator",
          "type": "address"
        }
      ],
      "name": "authorizeOperator",
      "outputs": [],
      "stateMutability": "nonpayable",
      "type": "function"
    },
    {
      "inputs": [
        {
          "internalType": "address",
          "name": "account",
          "type": "address"
        }
      ],
      "name": "balanceOf",
      "outputs": [
        {
          "internalType": "uint256",
          "name": "balance",
          "type": "uint256"
        }
      ],
      "stateMutability": "view",
      "type": "function"
    },
    {
      "inputs": [
        {
          "internalType": "uint256",
          "name": "amount",
          "type": "uint256"
        },
        {
          "internalType": "bytes",
          "name": "userData",
          "type": "bytes"
        }
      ],
      "name": "burn",
      "outputs": [],
      "stateMutability": "nonpayable",
      "type": "function"
    },
    {
      "inputs": [
        {
          "internalType": "uint32",
          "name": "totalProtegeCount",
          "type": "uint32"
        }
      ],
      "name": "calculateFlowRate",
      "outputs": [
        {
          "internalType": "int96",
          "name": "flowRate",
          "type": "int96"
        }
      ],
      "stateMutability": "pure",
      "type": "function"
    },
    {
      "inputs": [
        {
          "internalType": "bytes32",
          "name": "id",
          "type": "bytes32"
        },
        {
          "internalType": "bytes32[]",
          "name": "data",
          "type": "bytes32[]"
        }
      ],
      "name": "createAgreement",
      "outputs": [],
      "stateMutability": "nonpayable",
      "type": "function"
    },
    {
      "inputs": [],
      "name": "decimals",
      "outputs": [
        {
          "internalType": "uint8",
          "name": "",
          "type": "uint8"
        }
      ],
      "stateMutability": "pure",
      "type": "function"
    },
    {
      "inputs": [
        {
          "internalType": "address",
          "name": "spender",
          "type": "address"
        },
        {
          "internalType": "uint256",
          "name": "subtractedValue",
          "type": "uint256"
        }
      ],
      "name": "decreaseAllowance",
      "outputs": [
        {
          "internalType": "bool",
          "name": "",
          "type": "bool"
        }
      ],
      "stateMutability": "nonpayable",
      "type": "function"
    },
    {
      "inputs": [],
      "name": "defaultOperators",
      "outputs": [
        {
          "internalType": "address[]",
          "name": "",
          "type": "address[]"
        }
      ],
      "stateMutability": "view",
      "type": "function"
    },
    {
      "inputs": [
        {
          "internalType": "uint256",
          "name": "amount",
          "type": "uint256"
        }
      ],
      "name": "downgrade",
      "outputs": [],
      "stateMutability": "nonpayable",
      "type": "function"
    },
    {
      "inputs": [
        {
          "internalType": "address",
          "name": "to",
          "type": "address"
        },
        {
          "internalType": "uint256",
          "name": "amount",
          "type": "uint256"
        }
      ],
      "name": "downgradeTo",
      "outputs": [],
      "stateMutability": "nonpayable",
      "type": "function"
    },
    {
      "inputs": [
        {
          "internalType": "uint32",
          "name": "directProtegeCount",
          "type": "uint32"
        }
      ],
      "name": "fee",
      "outputs": [
        {
          "internalType": "uint256",
          "name": "feeAmount",
          "type": "uint256"
        }
      ],
      "stateMutability": "pure",
      "type": "function"
    },
    {
      "inputs": [
        {
          "internalType": "address",
          "name": "account",
          "type": "address"
        }
      ],
      "name": "getAccountActiveAgreements",
      "outputs": [
        {
          "internalType": "contract ISuperAgreement[]",
          "name": "",
          "type": "address[]"
        }
      ],
      "stateMutability": "view",
      "type": "function"
    },
    {
      "inputs": [
        {
          "internalType": "address",
          "name": "agreementClass",
          "type": "address"
        },
        {
          "internalType": "bytes32",
          "name": "id",
          "type": "bytes32"
        },
        {
          "internalType": "uint256",
          "name": "dataLength",
          "type": "uint256"
        }
      ],
      "name": "getAgreementData",
      "outputs": [
        {
          "internalType": "bytes32[]",
          "name": "data",
          "type": "bytes32[]"
        }
      ],
      "stateMutability": "view",
      "type": "function"
    },
    {
      "inputs": [
        {
          "internalType": "address",
          "name": "agreementClass",
          "type": "address"
        },
        {
          "internalType": "address",
          "name": "account",
          "type": "address"
        },
        {
          "internalType": "uint256",
          "name": "slotId",
          "type": "uint256"
        },
        {
          "internalType": "uint256",
          "name": "dataLength",
          "type": "uint256"
        }
      ],
      "name": "getAgreementStateSlot",
      "outputs": [
        {
          "internalType": "bytes32[]",
          "name": "slotData",
          "type": "bytes32[]"
        }
      ],
      "stateMutability": "view",
      "type": "function"
    },
    {
      "inputs": [
        {
          "internalType": "address",
          "name": "protege",
          "type": "address"
        }
      ],
      "name": "getChainOfSponsors",
      "outputs": [
        {
          "components": [
            {
              "internalType": "address",
              "name": "sponsor",
              "type": "address"
            },
            {
              "internalType": "uint8",
              "name": "level",
              "type": "uint8"
            },
            {
              "internalType": "uint32",
              "name": "totalProtegeCount",
              "type": "uint32"
            },
            {
              "internalType": "uint32",
              "name": "directTotalProtegeCount",
              "type": "uint32"
            },
            {
              "internalType": "int96",
              "name": "desiredFlowRate",
              "type": "int96"
            }
          ],
          "internalType": "struct SuperfluidClub.Protege[6]",
          "name": "sponsors",
          "type": "tuple[6]"
        }
      ],
      "stateMutability": "view",
      "type": "function"
    },
    {
      "inputs": [],
      "name": "getHost",
      "outputs": [
        {
          "internalType": "address",
          "name": "host",
          "type": "address"
        }
      ],
      "stateMutability": "view",
      "type": "function"
    },
    {
      "inputs": [
        {
          "internalType": "address",
          "name": "protege",
          "type": "address"
        }
      ],
      "name": "getProtege",
      "outputs": [
        {
          "components": [
            {
              "internalType": "address",
              "name": "sponsor",
              "type": "address"
            },
            {
              "internalType": "uint8",
              "name": "level",
              "type": "uint8"
            },
            {
              "internalType": "uint32",
              "name": "totalProtegeCount",
              "type": "uint32"
            },
            {
              "internalType": "uint32",
              "name": "directTotalProtegeCount",
              "type": "uint32"
            },
            {
              "internalType": "int96",
              "name": "desiredFlowRate",
              "type": "int96"
            }
          ],
          "internalType": "struct SuperfluidClub.Protege",
          "name": "",
          "type": "tuple"
        }
      ],
      "stateMutability": "view",
      "type": "function"
    },
    {
      "inputs": [],
      "name": "getUnderlyingToken",
      "outputs": [
        {
          "internalType": "address",
          "name": "",
          "type": "address"
        }
      ],
      "stateMutability": "view",
      "type": "function"
    },
    {
      "inputs": [],
      "name": "granularity",
      "outputs": [
        {
          "internalType": "uint256",
          "name": "",
          "type": "uint256"
        }
      ],
      "stateMutability": "pure",
      "type": "function"
    },
    {
      "inputs": [
        {
          "internalType": "address",
          "name": "spender",
          "type": "address"
        },
        {
          "internalType": "uint256",
          "name": "addedValue",
          "type": "uint256"
        }
      ],
      "name": "increaseAllowance",
      "outputs": [
        {
          "internalType": "bool",
          "name": "",
          "type": "bool"
        }
      ],
      "stateMutability": "nonpayable",
      "type": "function"
    },
    {
      "inputs": [
        {
          "internalType": "contract IERC20",
          "name": "underlyingToken",
          "type": "address"
        },
        {
          "internalType": "uint8",
          "name": "underlyingDecimals",
          "type": "uint8"
        },
        {
          "internalType": "string",
          "name": "n",
          "type": "string"
        },
        {
          "internalType": "string",
          "name": "s",
          "type": "string"
        }
      ],
      "name": "initialize",
      "outputs": [],
      "stateMutability": "nonpayable",
      "type": "function"
    },
    {
      "inputs": [
        {
          "internalType": "address",
          "name": "account",
          "type": "address"
        },
        {
          "internalType": "uint256",
          "name": "timestamp",
          "type": "uint256"
        }
      ],
      "name": "isAccountCritical",
      "outputs": [
        {
          "internalType": "bool",
          "name": "isCritical",
          "type": "bool"
        }
      ],
      "stateMutability": "view",
      "type": "function"
    },
    {
      "inputs": [
        {
          "internalType": "address",
          "name": "account",
          "type": "address"
        }
      ],
      "name": "isAccountCriticalNow",
      "outputs": [
        {
          "internalType": "bool",
          "name": "isCritical",
          "type": "bool"
        }
      ],
      "stateMutability": "view",
      "type": "function"
    },
    {
      "inputs": [
        {
          "internalType": "address",
          "name": "account",
          "type": "address"
        },
        {
          "internalType": "uint256",
          "name": "timestamp",
          "type": "uint256"
        }
      ],
      "name": "isAccountSolvent",
      "outputs": [
        {
          "internalType": "bool",
          "name": "isSolvent",
          "type": "bool"
        }
      ],
      "stateMutability": "view",
      "type": "function"
    },
    {
      "inputs": [
        {
          "internalType": "address",
          "name": "account",
          "type": "address"
        }
      ],
      "name": "isAccountSolventNow",
      "outputs": [
        {
          "internalType": "bool",
          "name": "isSolvent",
          "type": "bool"
        }
      ],
      "stateMutability": "view",
      "type": "function"
    },
    {
      "inputs": [
        {
          "internalType": "address",
          "name": "operator",
          "type": "address"
        },
        {
          "internalType": "address",
          "name": "tokenHolder",
          "type": "address"
        }
      ],
      "name": "isOperatorFor",
      "outputs": [
        {
          "internalType": "bool",
          "name": "",
          "type": "bool"
        }
      ],
      "stateMutability": "view",
      "type": "function"
    },
    {
      "inputs": [
        {
          "internalType": "address",
          "name": "protege",
          "type": "address"
        }
      ],
      "name": "isProtege",
      "outputs": [
        {
          "internalType": "bool",
          "name": "",
          "type": "bool"
        }
      ],
      "stateMutability": "view",
      "type": "function"
    },
    {
      "inputs": [
        {
          "internalType": "bytes32",
          "name": "id",
          "type": "bytes32"
        },
        {
          "internalType": "bytes",
          "name": "liquidationTypeData",
          "type": "bytes"
        },
        {
          "internalType": "address",
          "name": "liquidatorAccount",
          "type": "address"
        },
        {
          "internalType": "bool",
          "name": "useDefaultRewardAccount",
          "type": "bool"
        },
        {
          "internalType": "address",
          "name": "targetAccount",
          "type": "address"
        },
        {
          "internalType": "uint256",
          "name": "rewardAmount",
          "type": "uint256"
        },
        {
          "internalType": "int256",
          "name": "targetAccountBalanceDelta",
          "type": "int256"
        }
      ],
      "name": "makeLiquidationPayoutsV2",
      "outputs": [],
      "stateMutability": "nonpayable",
      "type": "function"
    },
    {
      "inputs": [
        {
          "internalType": "uint256",
          "name": "amount",
          "type": "uint256"
        }
      ],
      "name": "mint",
      "outputs": [],
      "stateMutability": "nonpayable",
      "type": "function"
    },
    {
      "inputs": [],
      "name": "name",
      "outputs": [
        {
          "internalType": "string",
          "name": "",
          "type": "string"
        }
      ],
      "stateMutability": "view",
      "type": "function"
    },
    {
      "inputs": [
        {
          "internalType": "address",
          "name": "account",
          "type": "address"
        },
        {
          "internalType": "address",
          "name": "spender",
          "type": "address"
        },
        {
          "internalType": "uint256",
          "name": "amount",
          "type": "uint256"
        }
      ],
      "name": "operationApprove",
      "outputs": [],
      "stateMutability": "nonpayable",
      "type": "function"
    },
    {
      "inputs": [
        {
          "internalType": "address",
          "name": "account",
          "type": "address"
        },
        {
          "internalType": "address",
          "name": "spender",
          "type": "address"
        },
        {
          "internalType": "uint256",
          "name": "subtractedValue",
          "type": "uint256"
        }
      ],
      "name": "operationDecreaseAllowance",
      "outputs": [],
      "stateMutability": "nonpayable",
      "type": "function"
    },
    {
      "inputs": [
        {
          "internalType": "address",
          "name": "account",
          "type": "address"
        },
        {
          "internalType": "uint256",
          "name": "amount",
          "type": "uint256"
        }
      ],
      "name": "operationDowngrade",
      "outputs": [],
      "stateMutability": "nonpayable",
      "type": "function"
    },
    {
      "inputs": [
        {
          "internalType": "address",
          "name": "account",
          "type": "address"
        },
        {
          "internalType": "address",
          "name": "spender",
          "type": "address"
        },
        {
          "internalType": "uint256",
          "name": "addedValue",
          "type": "uint256"
        }
      ],
      "name": "operationIncreaseAllowance",
      "outputs": [],
      "stateMutability": "nonpayable",
      "type": "function"
    },
    {
      "inputs": [
        {
          "internalType": "address",
          "name": "spender",
          "type": "address"
        },
        {
          "internalType": "address",
          "name": "recipient",
          "type": "address"
        },
        {
          "internalType": "uint256",
          "name": "amount",
          "type": "uint256"
        },
        {
          "internalType": "bytes",
          "name": "userData",
          "type": "bytes"
        }
      ],
      "name": "operationSend",
      "outputs": [],
      "stateMutability": "nonpayable",
      "type": "function"
    },
    {
      "inputs": [
        {
          "internalType": "address",
          "name": "account",
          "type": "address"
        },
        {
          "internalType": "address",
          "name": "spender",
          "type": "address"
        },
        {
          "internalType": "address",
          "name": "recipient",
          "type": "address"
        },
        {
          "internalType": "uint256",
          "name": "amount",
          "type": "uint256"
        }
      ],
      "name": "operationTransferFrom",
      "outputs": [],
      "stateMutability": "nonpayable",
      "type": "function"
    },
    {
      "inputs": [
        {
          "internalType": "address",
          "name": "account",
          "type": "address"
        },
        {
          "internalType": "uint256",
          "name": "amount",
          "type": "uint256"
        }
      ],
      "name": "operationUpgrade",
      "outputs": [],
      "stateMutability": "nonpayable",
      "type": "function"
    },
    {
      "inputs": [
        {
          "internalType": "address",
          "name": "account",
          "type": "address"
        },
        {
          "internalType": "uint256",
          "name": "amount",
          "type": "uint256"
        },
        {
          "internalType": "bytes",
          "name": "userData",
          "type": "bytes"
        },
        {
          "internalType": "bytes",
          "name": "operatorData",
          "type": "bytes"
        }
      ],
      "name": "operatorBurn",
      "outputs": [],
      "stateMutability": "nonpayable",
      "type": "function"
    },
    {
      "inputs": [
        {
          "internalType": "address",
          "name": "sender",
          "type": "address"
        },
        {
          "internalType": "address",
          "name": "recipient",
          "type": "address"
        },
        {
          "internalType": "uint256",
          "name": "amount",
          "type": "uint256"
        },
        {
          "internalType": "bytes",
          "name": "userData",
          "type": "bytes"
        },
        {
          "internalType": "bytes",
          "name": "operatorData",
          "type": "bytes"
        }
      ],
      "name": "operatorSend",
      "outputs": [],
      "stateMutability": "nonpayable",
      "type": "function"
    },
    {
      "inputs": [],
      "name": "owner",
      "outputs": [
        {
          "internalType": "address",
          "name": "",
          "type": "address"
        }
      ],
      "stateMutability": "view",
      "type": "function"
    },
    {
      "inputs": [
        {
          "internalType": "address",
          "name": "account",
          "type": "address"
        },
        {
          "internalType": "uint256",
          "name": "timestamp",
          "type": "uint256"
        }
      ],
      "name": "realtimeBalanceOf",
      "outputs": [
        {
          "internalType": "int256",
          "name": "availableBalance",
          "type": "int256"
        },
        {
          "internalType": "uint256",
          "name": "deposit",
          "type": "uint256"
        },
        {
          "internalType": "uint256",
          "name": "owedDeposit",
          "type": "uint256"
        }
      ],
      "stateMutability": "view",
      "type": "function"
    },
    {
      "inputs": [
        {
          "internalType": "address",
          "name": "account",
          "type": "address"
        }
      ],
      "name": "realtimeBalanceOfNow",
      "outputs": [
        {
          "internalType": "int256",
          "name": "availableBalance",
          "type": "int256"
        },
        {
          "internalType": "uint256",
          "name": "deposit",
          "type": "uint256"
        },
        {
          "internalType": "uint256",
          "name": "owedDeposit",
          "type": "uint256"
        },
        {
          "internalType": "uint256",
          "name": "timestamp",
          "type": "uint256"
        }
      ],
      "stateMutability": "view",
      "type": "function"
    },
    {
      "inputs": [
        {
          "internalType": "address",
          "name": "oldProtege",
          "type": "address"
        }
      ],
      "name": "remove",
      "outputs": [],
      "stateMutability": "nonpayable",
      "type": "function"
    },
    {
      "inputs": [],
      "name": "renounceOwnership",
      "outputs": [],
      "stateMutability": "nonpayable",
      "type": "function"
    },
    {
      "inputs": [],
      "name": "restartStream",
      "outputs": [],
      "stateMutability": "nonpayable",
      "type": "function"
    },
    {
      "inputs": [
        {
          "internalType": "address",
          "name": "operator",
          "type": "address"
        }
      ],
      "name": "revokeOperator",
      "outputs": [],
      "stateMutability": "nonpayable",
      "type": "function"
    },
    {
      "inputs": [
        {
          "internalType": "address",
          "name": "account",
          "type": "address"
        },
        {
          "internalType": "address",
          "name": "spender",
          "type": "address"
        },
        {
          "internalType": "uint256",
          "name": "amount",
          "type": "uint256"
        }
      ],
      "name": "selfApproveFor",
      "outputs": [],
      "stateMutability": "nonpayable",
      "type": "function"
    },
    {
      "inputs": [
        {
          "internalType": "address",
          "name": "account",
          "type": "address"
        },
        {
          "internalType": "uint256",
          "name": "amount",
          "type": "uint256"
        },
        {
          "internalType": "bytes",
          "name": "userData",
          "type": "bytes"
        }
      ],
      "name": "selfBurn",
      "outputs": [],
      "stateMutability": "nonpayable",
      "type": "function"
    },
    {
      "inputs": [
        {
          "internalType": "address",
          "name": "account",
          "type": "address"
        },
        {
          "internalType": "uint256",
          "name": "amount",
          "type": "uint256"
        },
        {
          "internalType": "bytes",
          "name": "userData",
          "type": "bytes"
        }
      ],
      "name": "selfMint",
      "outputs": [],
      "stateMutability": "nonpayable",
      "type": "function"
    },
    {
      "inputs": [
        {
          "internalType": "address",
          "name": "holder",
          "type": "address"
        },
        {
          "internalType": "address",
          "name": "spender",
          "type": "address"
        },
        {
          "internalType": "address",
          "name": "recipient",
          "type": "address"
        },
        {
          "internalType": "uint256",
          "name": "amount",
          "type": "uint256"
        }
      ],
      "name": "selfTransferFrom",
      "outputs": [],
      "stateMutability": "nonpayable",
      "type": "function"
    },
    {
      "inputs": [
        {
          "internalType": "address",
          "name": "recipient",
          "type": "address"
        },
        {
          "internalType": "uint256",
          "name": "amount",
          "type": "uint256"
        },
        {
          "internalType": "bytes",
          "name": "userData",
          "type": "bytes"
        }
      ],
      "name": "send",
      "outputs": [],
      "stateMutability": "nonpayable",
      "type": "function"
    },
    {
      "inputs": [
        {
          "internalType": "address",
          "name": "account",
          "type": "address"
        },
        {
          "internalType": "int256",
          "name": "delta",
          "type": "int256"
        }
      ],
      "name": "settleBalance",
      "outputs": [],
      "stateMutability": "nonpayable",
      "type": "function"
    },
    {
      "inputs": [
        {
          "internalType": "address payable",
          "name": "newProtege",
          "type": "address"
        }
      ],
      "name": "sponsor",
      "outputs": [],
      "stateMutability": "payable",
      "type": "function"
    },
    {
      "inputs": [],
      "name": "symbol",
      "outputs": [
        {
          "internalType": "string",
          "name": "",
          "type": "string"
        }
      ],
      "stateMutability": "view",
      "type": "function"
    },
    {
      "inputs": [
        {
          "internalType": "bytes32",
          "name": "id",
          "type": "bytes32"
        },
        {
          "internalType": "uint256",
          "name": "dataLength",
          "type": "uint256"
        }
      ],
      "name": "terminateAgreement",
      "outputs": [],
      "stateMutability": "nonpayable",
      "type": "function"
    },
    {
      "inputs": [],
      "name": "totalSupply",
      "outputs": [
        {
          "internalType": "uint256",
          "name": "",
          "type": "uint256"
        }
      ],
      "stateMutability": "view",
      "type": "function"
    },
    {
      "inputs": [
        {
          "internalType": "address",
          "name": "recipient",
          "type": "address"
        },
        {
          "internalType": "uint256",
          "name": "amount",
          "type": "uint256"
        }
      ],
      "name": "transfer",
      "outputs": [
        {
          "internalType": "bool",
          "name": "",
          "type": "bool"
        }
      ],
      "stateMutability": "nonpayable",
      "type": "function"
    },
    {
      "inputs": [
        {
          "internalType": "address",
          "name": "recipient",
          "type": "address"
        }
      ],
      "name": "transferAll",
      "outputs": [],
      "stateMutability": "nonpayable",
      "type": "function"
    },
    {
      "inputs": [
        {
          "internalType": "address",
          "name": "holder",
          "type": "address"
        },
        {
          "internalType": "address",
          "name": "recipient",
          "type": "address"
        },
        {
          "internalType": "uint256",
          "name": "amount",
          "type": "uint256"
        }
      ],
      "name": "transferFrom",
      "outputs": [
        {
          "internalType": "bool",
          "name": "",
          "type": "bool"
        }
      ],
      "stateMutability": "nonpayable",
      "type": "function"
    },
    {
      "inputs": [
        {
          "internalType": "address",
          "name": "newOwner",
          "type": "address"
        }
      ],
      "name": "transferOwnership",
      "outputs": [],
      "stateMutability": "nonpayable",
      "type": "function"
    },
    {
      "inputs": [
        {
          "internalType": "bytes32",
          "name": "id",
          "type": "bytes32"
        },
        {
          "internalType": "bytes32[]",
          "name": "data",
          "type": "bytes32[]"
        }
      ],
      "name": "updateAgreementData",
      "outputs": [],
      "stateMutability": "nonpayable",
      "type": "function"
    },
    {
      "inputs": [
        {
          "internalType": "address",
          "name": "account",
          "type": "address"
        },
        {
          "internalType": "uint256",
          "name": "slotId",
          "type": "uint256"
        },
        {
          "internalType": "bytes32[]",
          "name": "slotData",
          "type": "bytes32[]"
        }
      ],
      "name": "updateAgreementStateSlot",
      "outputs": [],
      "stateMutability": "nonpayable",
      "type": "function"
    },
    {
      "inputs": [
        {
          "internalType": "uint256",
          "name": "amount",
          "type": "uint256"
        }
      ],
      "name": "upgrade",
      "outputs": [],
      "stateMutability": "nonpayable",
      "type": "function"
    },
    {
      "inputs": [
        {
          "internalType": "address",
          "name": "to",
          "type": "address"
        },
        {
          "internalType": "uint256",
          "name": "amount",
          "type": "uint256"
        },
        {
          "internalType": "bytes",
          "name": "userData",
          "type": "bytes"
        }
      ],
      "name": "upgradeTo",
      "outputs": [],
      "stateMutability": "nonpayable",
      "type": "function"
    },
    {
      "inputs": [
        {
          "internalType": "address",
          "name": "receiver",
          "type": "address"
        },
        {
          "internalType": "uint256",
          "name": "amount",
          "type": "uint256"
        }
      ],
      "name": "withdraw",
      "outputs": [],
      "stateMutability": "nonpayable",
      "type": "function"
    },
    {
      "stateMutability": "payable",
      "type": "receive"
    }
  ],
  "bytecode": {
    "object": "0x60e06040523480156200001157600080fd5b506040516200657038038062006570833981016040819052620000349162000149565b6001600160a01b0380841660805280831660a081905290821660c052604051849184918491907fcf554eb342edf010a94e07701ae91e99e90b769f649f03aeb1153654ddd43c0190600090a26040516001600160a01b038216907f8837af285f4d380af9227df9ebafa13d992b487fa6d7a4366bd4154576085b8990600090a2505050620000d1620000cb620000da60201b60201c565b620000de565b5050506200019d565b3390565b601f80546001600160a01b038381166001600160a01b0319831681179093556040519116919082907f8be0079c531659141344cd1fd0a4f28419497f9722a3daafe3b4186f6b6457e090600090a35050565b6001600160a01b03811681146200014657600080fd5b50565b6000806000606084860312156200015f57600080fd5b83516200016c8162000130565b60208501519093506200017f8162000130565b6040850151909250620001928162000130565b809150509250925092565b60805160a05160c05161632c6200024460003960006108a801526000610dc201526000818161066801528181611267015281816112d60152818161165301528181611a3c01528181611b0b01528181611c8c01528181611e160152818161253e0152818161298601528181612a5001528181612ae801528181612b5001528181612bd80152818161355c015281816135f3015281816149b10152614bf0015261632c6000f3fe60806040526004361061042a5760003560e01c8063766c4f3711610229578063bb0d196e1161012e578063e4a472c8116100b6578063f349f56a1161007a578063f349f56a14610e04578063f3fef3a314610e21578063fad8b32a14610e41578063fc673c4f14610e61578063fe9d930314610e8157600080fd5b8063e4a472c814610d37578063eb3537cc14610d57578063ee719bc814610d92578063ef43d2c614610db0578063f2fde38b14610de457600080fd5b8063ca789464116100fd578063ca78946414610c71578063cf97256d14610c91578063d95b637114610cb1578063d9d078d614610cd1578063dd62ed3e14610cf157600080fd5b8063bb0d196e14610bf1578063c68d428314610c11578063c780fd8214610c31578063ca0c1e7f14610c5157600080fd5b80639d876741116101b1578063a457c2d711610180578063a457c2d714610b61578063a9059cbb14610b81578063b132a50d14610ba1578063b5c0b7eb14610bbc578063b84cdd4a14610bd157600080fd5b80639d87674114610ae1578063a0712d6814610b01578063a1b2bf8b14610b21578063a3a7e7f314610b4157600080fd5b80638934c79a116101f85780638934c79a14610a4e5780638da5cb5b14610a6e578063959b8c3f14610a8c57806395d89b4114610aac5780639bd9bbc614610ac157600080fd5b8063766c4f37146109c857806379359f6f146109db5780637ae058dc146109fb57806383ba252514610a2e57600080fd5b8063313ce5671161032f578063556f0dc7116102b757806362ad1b831161028657806362ad1b831461093357806366a12fb6146109535780636c2d9f2f1461097357806370a0823114610993578063715018a6146109b357600080fd5b8063556f0dc7146108ca57806357cf7acb146108de5780635b9d09cc146108f357806362aa52871461091357600080fd5b806342fe0980116102fe57806342fe09801461080957806345977d03146108295780634b2763b3146108495780634b61cc33146108695780634c5c0c851461089657600080fd5b8063313ce5671461078d578063386fa221146107a957806339509351146107c957806341b706be146107e957600080fd5b806318160ddd116103b257806323b872dd1161038157806323b872dd146106cd578063245887fc146106ed578063270483971461070d57806329092d0e1461072d5780632ec8eec71461074d57600080fd5b806318160ddd1461061a5780631863e8091461063957806320bc44251461065957806321fb177a146106a057600080fd5b8063098dce13116103f9578063098dce13146104d5578063099e14ce146104f557806311bcc81e146105ba57806312a6a3f8146105da57806316d055d6146105fa57600080fd5b806306e485381461043657806306fdde0314610461578063090c415e14610483578063095ea7b3146104a557600080fd5b3661043157005b600080fd5b34801561044257600080fd5b5061044b610ea1565b604051610458919061504f565b60405180910390f35b34801561046d57600080fd5b50610476610eb2565b60405161045891906150ec565b34801561048f57600080fd5b506104a361049e36600461515f565b610f44565b005b3480156104b157600080fd5b506104c56104c03660046151ba565b610ff7565b6040519015158152602001610458565b3480156104e157600080fd5b506104a36104f0366004615227565b61100e565b34801561050157600080fd5b506105ad610510366004615286565b6040805160a081018252600080825260208201819052918101829052606081018290526080810191909152506001600160a01b0390811660009081526020808052604091829020825160a0810184528154948516815260ff600160a01b8604169281019290925263ffffffff600160a81b8504811693830193909352600160c81b9093049091166060820152600190910154600b0b608082015290565b60405161045891906152ed565b3480156105c657600080fd5b506104a36105d53660046152fb565b611153565b3480156105e657600080fd5b506104a36105f5366004615314565b611182565b34801561060657600080fd5b506104a361061536600461535f565b611265565b34801561062657600080fd5b506002545b604051908152602001610458565b34801561064557600080fd5b506104a3610654366004615481565b6112c1565b34801561066557600080fd5b507f00000000000000000000000000000000000000000000000000000000000000005b6040516001600160a01b039091168152602001610458565b3480156106ac57600080fd5b506106c06106bb366004615286565b611561565b6040516104589190615513565b3480156106d957600080fd5b506104c56106e8366004615550565b61163b565b3480156106f957600080fd5b506104a36107083660046151ba565b611651565b34801561071957600080fd5b506104a3610728366004615591565b6116ca565b34801561073957600080fd5b506104a3610748366004615286565b611766565b34801561075957600080fd5b5061076d610768366004615286565b611a34565b604080519485526020850193909352918301526060820152608001610458565b34801561079957600080fd5b5060405160128152602001610458565b3480156107b557600080fd5b5061044b6107c4366004615286565b611ad7565b3480156107d557600080fd5b506104c56107e43660046151ba565b611b7a565b3480156107f557600080fd5b506104a361080436600461535f565b611bb6565b34801561081557600080fd5b506104a36108243660046155b3565b611be2565b34801561083557600080fd5b506104a36108443660046152fb565b611c5e565b34801561085557600080fd5b506104a3610864366004615550565b611c8a565b34801561087557600080fd5b5061088961088436600461564d565b611d11565b6040516104589190615693565b3480156108a257600080fd5b506106887f000000000000000000000000000000000000000000000000000000000000000081565b3480156108d657600080fd5b50600161062b565b3480156108ea57600080fd5b506104a3611d56565b3480156108ff57600080fd5b506104a361090e3660046156cb565b611dbd565b34801561091f57600080fd5b506104a361092e366004615550565b611e14565b34801561093f57600080fd5b506104a361094e36600461571a565b611e68565b34801561095f57600080fd5b506104a361096e366004615550565b611f0c565b34801561097f57600080fd5b5061088961098e3660046157b8565b611f2c565b34801561099f57600080fd5b5061062b6109ae366004615286565b611f6e565b3480156109bf57600080fd5b506104a3611f97565b6104a36109d6366004615286565b611fa9565b3480156109e757600080fd5b506104c56109f6366004615286565b612536565b348015610a0757600080fd5b50610a1b610a163660046157ed565b6125be565b604051600b9190910b8152602001610458565b348015610a3a57600080fd5b506104a3610a493660046151ba565b6125e1565b348015610a5a57600080fd5b5061062b610a693660046157ed565b61260d565b348015610a7a57600080fd5b50601f546001600160a01b0316610688565b348015610a9857600080fd5b506104a3610aa7366004615286565b6126ae565b348015610ab857600080fd5b506104766126ff565b348015610acd57600080fd5b506104a3610adc3660046156cb565b61270e565b348015610aed57600080fd5b506104a3610afc366004615813565b612762565b348015610b0d57600080fd5b506104a3610b1c3660046152fb565b6127a8565b348015610b2d57600080fd5b506104a3610b3c366004615314565b612812565b348015610b4d57600080fd5b506104a3610b5c366004615286565b6128bc565b348015610b6d57600080fd5b506104c5610b7c3660046151ba565b6128d0565b348015610b8d57600080fd5b506104c5610b9c3660046151ba565b61291f565b348015610bad57600080fd5b5061062b662386f26fc1000081565b348015610bc857600080fd5b5061062b600681565b348015610bdd57600080fd5b506104c5610bec3660046151ba565b61292d565b348015610bfd57600080fd5b506104c5610c0c366004615286565b61297e565b348015610c1d57600080fd5b506104a3610c2c366004615813565b612a06565b348015610c3d57600080fd5b506104a3610c4c366004615550565b612a4e565b348015610c5d57600080fd5b506104a3610c6c36600461586b565b612ae6565b348015610c7d57600080fd5b506104a3610c8c3660046151ba565b612b4e565b348015610c9d57600080fd5b506104a3610cac3660046151ba565b612bc3565b348015610cbd57600080fd5b506104c5610ccc3660046158d6565b612cac565b348015610cdd57600080fd5b506104c5610cec3660046151ba565b612cba565b348015610cfd57600080fd5b5061062b610d0c3660046158d6565b6001600160a01b03918216600090815260106020908152604080832093909416825291909152205490565b348015610d4357600080fd5b506104c5610d52366004615286565b612cd4565b348015610d6357600080fd5b50610d77610d723660046151ba565b612cf3565b60408051938452602084019290925290820152606001610458565b348015610d9e57600080fd5b50600d546001600160a01b0316610688565b348015610dbc57600080fd5b506106887f000000000000000000000000000000000000000000000000000000000000000081565b348015610df057600080fd5b506104a3610dff366004615286565b612e2d565b348015610e1057600080fd5b5061062b68270801d946c940000081565b348015610e2d57600080fd5b506104a3610e3c3660046151ba565b612e94565b348015610e4d57600080fd5b506104a3610e5c366004615286565b612fa1565b348015610e6d57600080fd5b506104a3610e7c36600461590f565b612ff2565b348015610e8d57600080fd5b506104a3610e9c366004615956565b613093565b6060610ead60116130e4565b905090565b6060600e8054610ec190615994565b80601f0160208091040260200160405190810160405280929190818152602001828054610eed90615994565b8015610f3a5780601f10610f0f57610100808354040283529160200191610f3a565b820191906000526020600020905b815481529060010190602001808311610f1d57829003601f168201915b5050505050905090565b6000338585604051602001610f5b939291906159ce565b604051602081830303815290604052805190602001209050610fb08184848080602002602001604051908101604052809392919081815260200183836020028082843760009201919091525061314a92505050565b6040518481526001600160a01b0386169033907f30f416fa68fca014a0f334464c64b000ba53e99b6d2afdea9d5ca756372d59859060200160405180910390a35050505050565b600061100433848461318b565b5060015b92915050565b601f54600160a01b900460ff16156110635760405162461bcd60e51b8152602060048201526013602482015272105b1c9958591e481a5b9a5d1a585b1a5e9959606a1b60448201526064015b60405180910390fd5b601f805460ff60a01b1916600160a01b1790556040516285fc1360e71b815230906342fe0980906110a39060009081908990899089908990600401615a40565b600060405180830381600087803b1580156110bd57600080fd5b505af11580156110d1573d6000803e3d6000fd5b50506040805160008152602081019182905263c68d428360e01b90915230925063c68d4283915061111b908390710125dfa371a19e6f7cb54395ca00000000009060248101615a8e565b600060405180830381600087803b15801561113557600080fd5b505af1158015611149573d6000803e3d6000fd5b5050505050505050565b61117f33333384604051806020016040528060008152506040518060200160405280600081525061323b565b50565b604051339060009061119a9083908790602001615ab5565b60408051601f19818403018152919052805160209091012090506111be81846133fb565b156111dc5760405163782a90fb60e11b815260040160405180910390fd5b6112198185858080602002602001604051908101604052809392919081815260200183836020028082843760009201919091525061314a92505050565b816001600160a01b03167f770ea40a13a4644573ed785e5c7116890709947918747febc5add46feb531e2d86868660405161125693929190615af2565b60405180910390a25050505050565b7f00000000000000000000000000000000000000000000000000000000000000006001600160a01b031633146112ae5760405163c51efddd60e01b815260040160405180910390fd5b6112ba84848484613437565b5050505050565b604051632329212160e21b81523360048201527f00000000000000000000000000000000000000000000000000000000000000006001600160a01b031690638ca4848490602401602060405180830381865afa158015611325573d6000803e3d6000fd5b505050506040513d601f19601f820116820180604052508101906113499190615b33565b6113665760405163327fd99160e21b815260040160405180910390fd5b6000611370613557565b90506001600160a01b0381166113835750845b6000856113905786611392565b815b90506000831361142f576113a583615b66565b6113ae8561369c565b146113bb576113bb615b82565b6113c48461369c565b6001600160a01b038216600090815260016020526040812080549091906113ec908490615b98565b90915550506001600160a01b03851660009081526001602052604081208054859290611419908490615b98565b9091555061142a905085828661370a565b6114f9565b851561143d5761143d615b82565b826114478561369c565b6114519190615b98565b6001600160a01b03831660009081526001602052604081208054909190611479908490615bc0565b9091555061148890508461369c565b6001600160a01b038816600090815260016020526040812080549091906114b0908490615b98565b90915550506001600160a01b038516600090815260016020526040812080548592906114dd908490615b98565b909155506114ee905082888661370a565b6114f982868561370a565b846001600160a01b0316876001600160a01b0316336001600160a01b03167fb8381a3ce157650e06186e3e8f4dd4dc29236f2688b6eed1893d0a60d7c6386f8c8589898f60405161154e959493929190615be0565b60405180910390a4505050505050505050565b611569615002565b8160005b61157682612cd4565b15611634576001600160a01b0380831660009081526020808052604091829020825160a0810184528154948516815260ff600160a01b8604169281019290925263ffffffff600160a81b8504811693830193909352600160c81b9093049091166060820152600190910154600b0b608082015283826115f481615c13565b93506006811061160657611606615c2c565b602090810291909101919091526001600160a01b03928316600090815290805260409020549091169061156d565b5050919050565b600061164933858585613437565b949350505050565b7f00000000000000000000000000000000000000000000000000000000000000006001600160a01b0316331461169a5760405163c51efddd60e01b815260040160405180910390fd5b6116c633838484604051806020016040528060008152506040518060200160405280600081525061323b565b5050565b60405133906000906116e29083908690602001615ab5565b60405160208183030381529060405280519060200120905061170481846133fb565b6117215760405163dae1880960e01b815260040160405180910390fd5b61172b818461373d565b60405184815233907f71a63dc095de07aa5512ad57a7596a39516317e316981a1cd71000057be1537b9060200160405180910390a250505050565b61176f81612cd4565b6117ac5760405162461bcd60e51b815260206004820152600e60248201526d4e6f7420612070726f746567652160901b604482015260640161105a565b60006117c0601f546001600160a01b031690565b6001600160a01b0316336001600160a01b0316146117de57336117e0565b305b6001600160a01b03808416600081815260208080526040808320815160a0810183528154968716815260ff600160a01b8804168185015263ffffffff600160a81b8804811693820193909352600160c81b870483166060820152600182018054600b81900b60808401529686529380526001600160e81b031990961690556bffffffffffffffffffffffff1990931690559293509091906118879030908190879061375e16565b600b0b131561189d5761189b3080856137f6565b505b30600090815260208052604090208054600160a81b900463ffffffff169060156118c683615c42565b82546101009290920a63ffffffff81810219909316918316021790915582516001600160a01b0316600090815260208052604090208054600160c81b90049091169150601961191483615c42565b82546101009290920a63ffffffff8181021990931691831602179091556001600160a01b03841660009081526020805260409020548351600160a81b90910490911691505b61196281612cd4565b156112ba576001600160a01b038116600090815260208052604090208054600160a81b900463ffffffff1681601561199983615c42565b91906101000a81548163ffffffff021916908363ffffffff160217905550506119c1836125be565b6001820180546000906119d8908490600b0b615c62565b82546001600160601b039182166101009390930a9283029190920219909116179055506001810154600b0b600003611a1b57611a153083886137f6565b50611a2e565b6001810154611a2e908390600b0b613815565b50611959565b6000806000807f00000000000000000000000000000000000000000000000000000000000000006001600160a01b031663bbe4fd506040518163ffffffff1660e01b8152600401602060405180830381865afa158015611a98573d6000803e3d6000fd5b505050506040513d601f19601f82011682018060405250810190611abc9190615c94565b9050611ac88582612cf3565b91979096509094509092509050565b6001600160a01b038181166000908152602081905260409081902054905163c56a069d60e01b8152901960048201526060917f0000000000000000000000000000000000000000000000000000000000000000169063c56a069d90602401600060405180830381865afa158015611b52573d6000803e3d6000fd5b505050506040513d6000823e601f3d908101601f191682016040526110089190810190615cad565b3360008181526010602090815260408083206001600160a01b03871684529091528120549091611004918590611bb1908690615d5e565b61318b565b333014611bd657604051630fff4cc960e31b815260040160405180910390fd5b6112ba83858484613437565b600d805460ff8716600160a01b026001600160a81b03199091166001600160a01b03891617179055600e611c17848683615dbf565b50600f611c25828483615dbf565b50611c2f30613841565b60405160008082529081906000805160206162aa833981519152906020015b60405180910390a3505050505050565b61117f333333846040518060200160405280600081525060405180602001604052806000815250613946565b7f00000000000000000000000000000000000000000000000000000000000000006001600160a01b03163314611cd35760405163c51efddd60e01b815260040160405180910390fd5b6001600160a01b03808416600090815260106020908152604080832093861683529290522054611d0c9084908490611bb1908590615d5e565b505050565b60606000858585604051602001611d2a939291906159ce565b604051602081830303815290604052805190602001209050611d4c8184613af9565b9695505050505050565b611d5f33612cd4565b611d9c5760405162461bcd60e51b815260206004820152600e60248201526d4e6f7420612070726f746567652160901b604482015260640161105a565b336000818152602080526040902060010154611dbb9190600b0b613815565b565b611e0e3333868686868080601f016020809104026020016040519081016040528093929190818152602001838380828437600092018290525060408051602081019091529081529250613946915050565b50505050565b7f00000000000000000000000000000000000000000000000000000000000000006001600160a01b03163314611e5d5760405163c51efddd60e01b815260040160405180910390fd5b611d0c83838361318b565b33611e756011828a613b88565b611e925760405163f7f0222760e01b815260040160405180910390fd5b6111498189898989898080601f01602080910402602001604051908101604052809392919081815260200183838082843760009201919091525050604080516020601f8d018190048102820181019092528b815292508b91508a908190840183828082843760009201919091525060019250613c31915050565b333014611e5d57604051630fff4cc960e31b815260040160405180910390fd5b606060008484604051602001611f43929190615ab5565b604051602081830303815290604052805190602001209050611f658184613af9565b95945050505050565b600080611f7a83611a34565b505050905060008112611f8d5780611f90565b60005b9392505050565b611f9f613caa565b611dbb6000613d04565b611fb281612cd4565b15611ff45760405162461bcd60e51b8152602060048201526012602482015271416c726561647920612070726f746567652160701b604482015260640161105a565b600080612009601f546001600160a01b031690565b6001600160a01b0316336001600160a01b0316146120295733600061202d565b3060015b9150915061203a82612cd4565b806120425750805b6120875760405162461bcd60e51b8152602060048201526016602482015275596f7520617265206e6f7420612070726f746567652160501b604482015260640161105a565b6001600160a01b03821660009081526020805260408120543491906120b890600160c81b900463ffffffff1661260d565b9050808210156120fd5760405162461bcd60e51b815260206004820152601060248201526f4e6f7420656e6f75676820636f696e2160801b604482015260640161105a565b6121078183615e7e565b6001600160a01b03851660009081526020805260409020549092506006600160a01b90910460ff161061217c5760405162461bcd60e51b815260206004820152601e60248201527f4d61782073706f6e736f7273686970206c6576656c2072656163686564210000604482015260640161105a565b30600090815260208052604090208054600160a81b900463ffffffff169060156121a583615e91565b82546101009290920a63ffffffff8181021990931691831602179091556001600160a01b038616600090815260208052604090208054600160c81b9004909116915060196121f283615e91565b82546101009290920a63ffffffff8181021990931691831602179091556001600160a01b0386166000908152602080526040902054600160a81b9004169050845b61223c81612cd4565b156123a7576001600160a01b038116600090815260208052604090208054600160a81b900463ffffffff1681601561227383615e91565b91906101000a81548163ffffffff021916908363ffffffff160217905550506122af8160000160159054906101000a900463ffffffff166125be565b6001820180546000906122c6908490600b0b615eb4565b82546001600160601b039182166101009390930a92830291909202199091161790555060018101546122fc908390600b0b613815565b6001600160a01b03878116600090815260208080526040808320543084529281902054815160ff600160a01b830416815263ffffffff600160a81b8304811694820194909452600160c81b909104909216908201528483169291909116907fb03e738d0e6b0d74a2bfbcaa64c76a9dd601ecb77229d0982c9bfe946c8c39a79060600160405180910390a35463ffffffff600160a81b82041692506001600160a01b03169050612233565b846123bc576123b7826001615ee6565b6123be565b815b6040805160a0810182526001600160a01b0389168082526000908152602080805292902054929450919082019061240090600160a01b900460ff166001615f03565b60ff168152600060208201819052604082015260600161241f846125be565b600b90810b9091526001600160a01b03898116600090815260208080526040918290208551815492870151938701516060880151919095166001600160a81b031990931692909217600160a01b60ff909416939093029290921767ffffffffffffffff60a81b1916600160a81b63ffffffff9485160263ffffffff60c81b191617600160c81b91841691909102178155608090930151600190930180546bffffffffffffffffffffffff19166001600160601b0390941693909317928390556124f09230928b9291900b90613d5616565b50831561252d576040516001600160a01b0388169085156108fc029086906000818181858888f19350505050158015611149573d6000803e3d6000fd5b50505050505050565b6000611008827f00000000000000000000000000000000000000000000000000000000000000006001600160a01b031663bbe4fd506040518163ffffffff1660e01b8152600401602060405180830381865afa15801561259a573d6000803e3d6000fd5b505050506040513d601f19601f82011682018060405250810190610cec9190615c94565b60006110086125dc63ffffffff841668270801d946c9400000615f1c565b613d75565b6116c633338484604051806020016040528060008152506040518060200160405280600081525061323b565b6000600c8263ffffffff161161262b5750662386f26fc10000919050565b60188263ffffffff1611612648575067016345785d8a0000919050565b60248263ffffffff161161266557506702c68af0bb140000919050565b60308263ffffffff16116126825750670429d069189e0000919050565b603c8263ffffffff161161269f575067058d15e176280000919050565b50670de0b6b3a7640000919050565b336126bb60118284613db9565b806001600160a01b0316826001600160a01b03167ff4caeb2d6ca8932a215a353d0703c326ec2d81fc68170f320eb2ab49e9df61f960405160405180910390a35050565b6060600f8054610ec190615994565b611e0e3333868686868080601f01602080910402602001604051908101604052809392919081815260200183838082843760009201829052506040805160208101909152908152925060019150613c319050565b33301461278257604051630fff4cc960e31b815260040160405180910390fd5b8051604080516000815260208101909152611d0c91339186918691901515908690613ebd565b6127b0613caa565b6040805160008152602081019182905263c68d428360e01b909152309063c68d4283906127e4908390859060248101615a8e565b600060405180830381600087803b1580156127fe57600080fd5b505af11580156112ba573d6000803e3d6000fd5b604051339060009061282a9083908790602001615ab5565b60405160208183030381529060405280519060200120905061287f8185858080602002602001604051908101604052809392919081815260200183836020028082843760009201919091525061314a92505050565b336001600160a01b03167f0c4c547b3a4fcaa5be8353b3111472b124155bccc86de811d4a481c9e6e9faca86868660405161125693929190615af2565b6116c63333836128cb33611f6e565b613437565b60006110043384611bb1856040518060600160405280602a8152602001616280602a91393360009081526010602090815260408083206001600160a01b038d1684529091529020549190613f7e565b6000611f9033338585613437565b60008060008061293d8686612cf3565b925092509250600061296582841161295657600061369c565b6129608385615e7e565b61369c565b61296f9085615b98565b60001315979650505050505050565b6000611008827f00000000000000000000000000000000000000000000000000000000000000006001600160a01b031663bbe4fd506040518163ffffffff1660e01b8152600401602060405180830381865afa1580156129e2573d6000803e3d6000fd5b505050506040513d601f19601f82011682018060405250810190610bec9190615c94565b333014612a2657604051630fff4cc960e31b815260040160405180910390fd5b8051604080516000815260208101909152611d0c913391869186919015159081908790613faa565b7f00000000000000000000000000000000000000000000000000000000000000006001600160a01b03163314612a975760405163c51efddd60e01b815260040160405180910390fd5b611d0c8383611bb1846040518060600160405280602a8152602001616280602a91396001600160a01b03808a166000908152601060209081526040808320938c16835292905220549190613f7e565b7f00000000000000000000000000000000000000000000000000000000000000006001600160a01b03163314612b2f5760405163c51efddd60e01b815260040160405180910390fd5b611e0e3385858585604051806020016040528060008152506001613c31565b7f00000000000000000000000000000000000000000000000000000000000000006001600160a01b03163314612b975760405163c51efddd60e01b815260040160405180910390fd5b6116c6338384846040518060200160405280600081525060405180602001604052806000815250613946565b604051632329212160e21b81523360048201527f00000000000000000000000000000000000000000000000000000000000000006001600160a01b031690638ca4848490602401602060405180830381865afa158015612c27573d6000803e3d6000fd5b505050506040513d601f19601f82011682018060405250810190612c4b9190615b33565b612c685760405163327fd99160e21b815260040160405180910390fd5b6001600160a01b038216600090815260016020526040902054612c8c908290615b98565b6001600160a01b0390921660009081526001602052604090209190915550565b6000611f9060118484613b88565b600080612cc78484612cf3565b5050600013949350505050565b6001600160a01b03908116600090815260208052604090205416151590565b6001600160a01b038216600090815260016020526040812054908080612d1886611ad7565b905060005b8151811015612e24576000806000848481518110612d3d57612d3d615c2c565b60209081029190910101516040516326cb922f60e21b81523060048201526001600160a01b038c81166024830152604482018c905290911690639b2e48bc90606401606060405180830381865afa158015612d9c573d6000803e3d6000fd5b505050506040513d601f19601f82011682018060405250810190612dc09190615f3e565b91945092509050612dd18288615d5e565b9650612ddd8187615d5e565b9550612dfa818311612df057600061369c565b6129608284615e7e565b612e04848a615b98565b612e0e9190615bc0565b975050505080612e1d90615c13565b9050612d1d565b50509250925092565b612e35613caa565b612e3e81612cd4565b15612e8b5760405162461bcd60e51b815260206004820152601c60248201527f436c75622070726f746567652063616e6e6f74206265206f776e657200000000604482015260640161105a565b61117f81614078565b612e9c613caa565b6001600160a01b038216612ee55760405162461bcd60e51b815260206004820152601060248201526f24b73b30b634b2103932b1b2b4bb32b960811b604482015260640161105a565b60008111612f265760405162461bcd60e51b815260206004820152600e60248201526d125b9d985b1a5908185b5bdd5b9d60921b604482015260640161105a565b80471015612f6b5760405162461bcd60e51b81526020600482015260126024820152714e6f7420656e6f7567682062616c616e636560701b604482015260640161105a565b6040516001600160a01b0383169082156108fc029083906000818181858888f19350505050158015611d0c573d6000803e3d6000fd5b33612fae601182846140ee565b806001600160a01b0316826001600160a01b03167f50546e66e5f44d728365dc3908c63bc5cfeeab470722c1677e3073a6ac294aa160405160405180910390a35050565b33612fff60118289613b88565b61301c5760405163f7f0222760e01b815260040160405180910390fd5b61252d8188898989898080601f01602080910402602001604051908101604052809392919081815260200183838082843760009201919091525050604080516020601f8d018190048102820181019092528b815292508b91508a908190840183828082843760009201919091525061323b92505050565b611d0c3333338686868080601f01602080910402602001604051908101604052809392919081815260200183838082843760009201829052506040805160208101909152908152925061323b915050565b60608160000180548060200260200160405190810160405280929190818152602001828054801561313e57602002820191906000526020600020905b81546001600160a01b03168152600190910190602001808311613120575b50505050509050919050565b60005b8151811015611d0c57600082828151811061316a5761316a615c2c565b602002602001015190508082850155508061318490615c13565b905061314d565b6001600160a01b0383166131b257604051638163862760e01b815260040160405180910390fd5b6001600160a01b0382166131d9576040516337c1c09d60e21b815260040160405180910390fd5b6001600160a01b0383811660008181526010602090815260408083209487168084529482529182902085905590518481527f8c5be1e5ebec7d5bd14f71427d1e84f3dd0314c0f7b2291e5b200ac8c7c3b92591015b60405180910390a3505050565b600d546001600160a01b031661326457604051637bce7b2b60e11b815260040160405180910390fd5b600080613270856141e6565b915091506132878888838751600014158888613ebd565b600d546040516370a0823160e01b81523060048201526000916001600160a01b0316906370a0823190602401602060405180830381865afa1580156132d0573d6000803e3d6000fd5b505050506040513d601f19601f820116820180604052508101906132f49190615c94565b600d5490915061330e906001600160a01b031688856142a2565b600d546040516370a0823160e01b81523060048201526000916001600160a01b0316906370a0823190602401602060405180830381865afa158015613357573d6000803e3d6000fd5b505050506040513d601f19601f8201168201806040525081019061337b9190615c94565b905060006133898284615e7e565b90508085146133ab57604051631c7c26d360e31b815260040160405180910390fd5b896001600160a01b03167f3bc27981aebbb57f9247dc00fde9d6cd91e4b230083fec3238fedbcba1f9ab3d856040516133e691815260200190565b60405180910390a25050505050505050505050565b6000805b8281101561342d5783810154801561341c57600192505050611008565b5061342681615c13565b90506133ff565b5060009392505050565b60006001600160a01b0384166134605760405163eecd6c9b60e01b815260040160405180910390fd5b6001600160a01b0383166134875760405163e219bd3960e01b815260040160405180910390fd5b60003390506134b8818686866040518060200160405280600081525060405180602001604052806000815250614305565b846001600160a01b0316866001600160a01b03161461354b5761354b8587611bb1866040518060600160405280602d81526020016162ca602d9139601060008c6001600160a01b03166001600160a01b0316815260200190815260200160002060008d6001600160a01b03166001600160a01b0316815260200190815260200160002054613f7e9092919063ffffffff16565b50600195945050505050565b6000807f00000000000000000000000000000000000000000000000000000000000000006001600160a01b031663289b3c0d6040518163ffffffff1660e01b8152600401602060405180830381865afa1580156135b8573d6000803e3d6000fd5b505050506040513d601f19601f820116820180604052508101906135dc9190615f6c565b604051638369a0f160e01b81526001600160a01b037f0000000000000000000000000000000000000000000000000000000000000000811660048301523060248301527f9f60ae461adf056670e03ae602566409933242392cb06744f5747c9f38b05d09604483015291925090821690638369a0f190606401602060405180830381865afa158015613672573d6000803e3d6000fd5b505050506040513d601f19601f820116820180604052508101906136969190615f6c565b91505090565b60006001600160ff1b038211156137065760405162461bcd60e51b815260206004820152602860248201527f53616665436173743a2076616c756520646f65736e27742066697420696e2061604482015267371034b73a191a9b60c11b606482015260840161105a565b5090565b816001600160a01b0316836001600160a01b03166000805160206162aa8339815191528360405161322e91815260200190565b60005b81811015611d0c5760008382015561375781615c13565b9050613740565b60008061376a856143a4565b604051631cd43d1160e31b81526001600160a01b03888116600483015287811660248301528681166044830152919350908316915063e6a1e88890606401608060405180830381865afa1580156137c5573d6000803e3d6000fd5b505050506040513d601f19601f820116820180604052508101906137e99190615f89565b5090979650505050505050565b6040805160008082526020820190925261164990859085908590614525565b600061382230808561375e565b600b0b131561383657611d0c308383614650565b611d0c308383613d56565b6040516329965a1d60e01b81526001600160a01b03821660048201527fac7fbab5f54a3ca8194167523c6753bfeb96a445279294b6125b68cce21770546024820152306044820152731820a4b7618bde71dce8cdc73aab6c95905fad24906329965a1d90606401600060405180830381600087803b1580156138c257600080fd5b505af11580156138d6573d6000803e3d6000fd5b50506040516329965a1d60e01b81526001600160a01b03841660048201527faea199e31a596269b42cdafd93407f14436db6e4cad65417994c2eb37381e05a6024820152306044820152731820a4b7618bde71dce8cdc73aab6c95905fad2492506329965a1d91506064016127e4565b600d546001600160a01b031661396f57604051637bce7b2b60e11b815260040160405180910390fd5b60008061397b856141e6565b600d546040516370a0823160e01b81523060048201529294509092506000916001600160a01b03909116906370a0823190602401602060405180830381865afa1580156139cc573d6000803e3d6000fd5b505050506040513d601f19601f820116820180604052508101906139f09190615c94565b600d54909150613a0b906001600160a01b031689308661466f565b600d546040516370a0823160e01b81523060048201526000916001600160a01b0316906370a0823190602401602060405180830381865afa158015613a54573d6000803e3d6000fd5b505050506040513d601f19601f82011682018060405250810190613a789190615c94565b90506000613a868383615e7e565b9050808514613aa857604051631c7c26d360e31b815260040160405180910390fd5b8651613abe908c908b9087901515808c8c613faa565b886001600160a01b03167f25ca84076773b0455db53621c459ddc84fe40840e4932a62706a032566f399df856040516133e691815260200190565b6060816001600160401b03811115613b1357613b136153b0565b604051908082528060200260200182016040528015613b3c578160200160208202803683370190505b50905060005b82811015613b8157600081850154905080838381518110613b6557613b65615c2c565b602090810291909101015250613b7a81615c13565b9050613b42565b5092915050565b6000816001600160a01b0316836001600160a01b03161480613bf757506001600160a01b038316600090815260018501602052604090205460ff168015613bf757506001600160a01b03808316600090815260038601602090815260408083209387168352929052205460ff16155b8061164957506001600160a01b03808316600090815260028601602090815260408083209387168352929052205460ff1690509392505050565b6001600160a01b038616613c585760405163eecd6c9b60e01b815260040160405180910390fd5b6001600160a01b038516613c7f5760405163e219bd3960e01b815260040160405180910390fd5b613c8d8787878787876146a7565b613c9b878787878787614305565b61252d878787878787876147ce565b601f546001600160a01b03163314611dbb5760405162461bcd60e51b815260206004820181905260248201527f4f776e61626c653a2063616c6c6572206973206e6f7420746865206f776e6572604482015260640161105a565b601f80546001600160a01b038381166001600160a01b0319831681179093556040519116919082907f8be0079c531659141344cd1fd0a4f28419497f9722a3daafe3b4186f6b6457e090600090a35050565b604080516000808252602082019092526116499085908590859061491e565b600060016001605f1b038211156137065760405162461bcd60e51b81526020600482015260086024820152676f766572666c6f7760c01b604482015260640161105a565b806001600160a01b0316826001600160a01b031603613e305760405162461bcd60e51b815260206004820152602d60248201527f4552433737374f70657261746f72733a20617574686f72697a696e672073656c60448201526c331030b99037b832b930ba37b960991b606482015260840161105a565b6001600160a01b038116600090815260018401602052604090205460ff1615613e86576001600160a01b03918216600090815260039390930160209081526040808520929093168452529020805460ff19169055565b6001600160a01b0380831660009081526002850160209081526040808320938516835292905220805460ff19166001179055505050565b6001600160a01b038516613ee457604051632e8aac6160e21b815260040160405180910390fd5b8215613ef957613ef9868660008786866146a7565b613f0385856149a9565b846001600160a01b0316866001600160a01b03167fa78a9be3a7b862d26933ad85fb11d80ef66b8f972d7cbba06621d583943a4098868585604051613f4a93929190615fcd565b60405180910390a36040518481526000906001600160a01b038716906000805160206162aa83398151915290602001611c4e565b60008184841115613fa25760405162461bcd60e51b815260040161105a91906150ec565b505050900390565b6001600160a01b038616613fd157604051630d24315760e01b815260040160405180910390fd5b613fdb8686614ab9565b8315613ff157613ff187600088888686896147ce565b856001600160a01b0316876001600160a01b03167f2fe5be0146f74c5bce36c0b80911af6c7d86ff27e89d5cfa61fc681327954e5d87858560405161403893929190615fcd565b60405180910390a36040518581526001600160a01b038716906000906000805160206162aa8339815191529060200160405180910390a350505050505050565b614080613caa565b6001600160a01b0381166140e55760405162461bcd60e51b815260206004820152602660248201527f4f776e61626c653a206e6577206f776e657220697320746865207a65726f206160448201526564647265737360d01b606482015260840161105a565b61117f81613d04565b336001600160a01b038216036141595760405162461bcd60e51b815260206004820152602a60248201527f4552433737374f70657261746f72733a207265766f6b696e672073656c662061604482015269399037b832b930ba37b960b11b606482015260840161105a565b6001600160a01b038116600090815260018401602052604090205460ff16156141b3576001600160a01b0380831660009081526003850160209081526040808320938516835292905220805460ff19166001179055505050565b6001600160a01b03918216600090815260029390930160209081526040808520929093168452529020805460ff19169055565b600d54600090819081906012600160a01b90910460ff16101561424557600d5461421b90600160a01b900460ff166012615ff8565b61422690600a6160f5565b90506142328185615f1c565b925061423e8184616104565b915061429c565b600d546012600160a01b90910460ff16111561429557600d5461427490601290600160a01b900460ff16615ff8565b61427f90600a6160f5565b905061428b8185616104565b925083915061429c565b8391508192505b50915091565b6040516001600160a01b038316602482015260448101829052611d0c90849063a9059cbb60e01b906064015b60408051601f198184030181529190526020810180516001600160e01b03166001600160e01b031990931692909217909152614b13565b61431885856143138661369c565b614be8565b836001600160a01b0316856001600160a01b0316876001600160a01b03167f06b541ddaa720db2b10a4d0cdac39b8d360425fc073085fac19bc8261467798786868660405161436993929190615fcd565b60405180910390a4836001600160a01b0316856001600160a01b03166000805160206162aa83398151915285604051611c4e91815260200190565b7f65599bf746e17a00ea62e3610586992d88101b78eec3cf380706621fb97ea837547fb969d79d88acd02d04ed7ee7d43b949e7daf093d363abcfbbc43dfdfd1ce969a546001600160a01b0381166144f4576001600160a01b03821661446957826001600160a01b03166320bc44256040518163ffffffff1660e01b8152600401602060405180830381865afa158015614442573d6000803e3d6000fd5b505050506040513d601f19601f820116820180604052508101906144669190615f6c565b91505b604051635b69006f60e11b81527fa9214cc96615e0085d3bb077758db69497dc2dce3b2b1e97bc93c3d18d83efd360048201526001600160a01b0383169063b6d200de90602401602060405180830381865afa1580156144cd573d6000803e3d6000fd5b505050506040513d601f19601f820116820180604052508101906144f19190615f6c565b90505b6001600160a01b03821661450a5761450a615b82565b6001600160a01b03811661452057614520615b82565b915091565b600080600061453387614ce7565b91509150816001600160a01b03166339255d5b82836001600160a01b031663b4b333c68b8b8b60006001600160401b03811115614572576145726153b0565b6040519080825280601f01601f19166020018201604052801561459c576020820181803683370190505b506040516024016145b0949392919061611b565b60408051808303601f1901815291815260208201805160e094851b6001600160e01b03909116179052519185901b6001600160e01b03191682526145fb93925090899060040161614f565b6000604051808303816000875af115801561461a573d6000803e3d6000fd5b505050506040513d6000823e601f3d908101601f191682016040526146429190810190616173565b506001979650505050505050565b6040805160008082526020820190925261164990859085908590614e92565b6040516001600160a01b0380851660248301528316604482015260648101829052611e0e9085906323b872dd60e01b906084016142ce565b60405163555ddc6560e11b81526001600160a01b03861660048201527f29ddb589b1fb5fc7cf394961c1adf5f8c6454761adf795e67fe149f658abe8956024820152600090731820a4b7618bde71dce8cdc73aab6c95905fad249063aabbb8ca90604401602060405180830381865afa158015614728573d6000803e3d6000fd5b505050506040513d601f19601f8201168201806040525081019061474c9190615f6c565b90506001600160a01b0381161561252d57604051633ad5cbc160e11b81526001600160a01b038216906375ab978290614793908a908a908a908a908a908a906004016161e0565b600060405180830381600087803b1580156147ad57600080fd5b505af11580156147c1573d6000803e3d6000fd5b5050505050505050505050565b60405163555ddc6560e11b81526001600160a01b03861660048201527fb281fc8c12954d22544db45de3159a39272895b169a852b314f9cc762e44c53b6024820152600090731820a4b7618bde71dce8cdc73aab6c95905fad249063aabbb8ca90604401602060405180830381865afa15801561484f573d6000803e3d6000fd5b505050506040513d601f19601f820116820180604052508101906148739190615f6c565b90506001600160a01b038116156148ef576040516223de2960e01b81526001600160a01b038216906223de29906148b8908b908b908b908b908b908b906004016161e0565b600060405180830381600087803b1580156148d257600080fd5b505af11580156148e6573d6000803e3d6000fd5b50505050611149565b8115611149576001600160a01b0386163b156111495760405163fe737d0560e01b815260040160405180910390fd5b600080600061492c87614ce7565b91509150816001600160a01b03166339255d5b82836001600160a01b03166362fc305e8b8b8b60006001600160401b0381111561496b5761496b6153b0565b6040519080825280601f01601f191660200182016040528015614995576020820181803683370190505b506040516024016145b0949392919061622d565b6000614a31837f00000000000000000000000000000000000000000000000000000000000000006001600160a01b031663bbe4fd506040518163ffffffff1660e01b8152600401602060405180830381865afa158015614a0d573d6000803e3d6000fd5b505050506040513d601f19601f82011682018060405250810190610d729190615c94565b50509050614a3e8261369c565b811215614a5e5760405163043b37d160e21b815260040160405180910390fd5b614a678261369c565b6001600160a01b038416600090815260016020526040902054614a8a9190615bc0565b6001600160a01b038416600090815260016020526040902055600254614ab1908390615e7e565b600255505050565b614ac28161369c565b6001600160a01b038316600090815260016020526040902054614ae59190615b98565b6001600160a01b038316600090815260016020526040902055600254614b0c908290615d5e565b6002555050565b6000614b68826040518060400160405280602081526020017f5361666545524332303a206c6f772d6c6576656c2063616c6c206661696c6564815250856001600160a01b0316614edf9092919063ffffffff16565b9050805160001480614b89575080806020019051810190614b899190615b33565b611d0c5760405162461bcd60e51b815260206004820152602a60248201527f5361666545524332303a204552433230206f7065726174696f6e20646964206e6044820152691bdd081cdd58d8d9595960b21b606482015260840161105a565b6000614c4c847f00000000000000000000000000000000000000000000000000000000000000006001600160a01b031663bbe4fd506040518163ffffffff1660e01b8152600401602060405180830381865afa158015614a0d573d6000803e3d6000fd5b5050905081811215614c7157604051632f4cb94160e01b815260040160405180910390fd5b6001600160a01b038416600090815260016020526040902054614c95908390615bc0565b6001600160a01b038086166000908152600160205260408082209390935590851681522054614cc5908390615b98565b6001600160a01b03909316600090815260016020526040902092909255505050565b7f65599bf746e17a00ea62e3610586992d88101b78eec3cf380706621fb97ea837547fb969d79d88acd02d04ed7ee7d43b949e7daf093d363abcfbbc43dfdfd1ce969a546001600160a01b0381166144f4576001600160a01b038216614dac57826001600160a01b03166320bc44256040518163ffffffff1660e01b8152600401602060405180830381865afa158015614d85573d6000803e3d6000fd5b505050506040513d601f19601f82011682018060405250810190614da99190615f6c565b91505b604051635b69006f60e11b81527fa9214cc96615e0085d3bb077758db69497dc2dce3b2b1e97bc93c3d18d83efd360048201526001600160a01b0383169063b6d200de90602401602060405180830381865afa158015614e10573d6000803e3d6000fd5b505050506040513d601f19601f82011682018060405250810190614e349190615f6c565b9050817f65599bf746e17a00ea62e3610586992d88101b78eec3cf380706621fb97ea83755807fb969d79d88acd02d04ed7ee7d43b949e7daf093d363abcfbbc43dfdfd1ce969a556001600160a01b03821661450a5761450a615b82565b6000806000614ea087614ce7565b91509150816001600160a01b03166339255d5b82836001600160a01b03166350209a628b8b8b60006001600160401b0381111561496b5761496b6153b0565b6060611649848460008585600080866001600160a01b03168587604051614f069190616263565b60006040518083038185875af1925050503d8060008114614f43576040519150601f19603f3d011682016040523d82523d6000602084013e614f48565b606091505b5091509150614f5987838387614f64565b979650505050505050565b60608315614fd3578251600003614fcc576001600160a01b0385163b614fcc5760405162461bcd60e51b815260206004820152601d60248201527f416464726573733a2063616c6c20746f206e6f6e2d636f6e7472616374000000604482015260640161105a565b5081611649565b6116498383815115614fe85781518083602001fd5b8060405162461bcd60e51b815260040161105a91906150ec565b6040518060c001604052806006905b6040805160a0810182526000808252602080830182905292820181905260608201819052608082015282526000199092019101816150115790505090565b6020808252825182820181905260009190848201906040850190845b818110156150905783516001600160a01b03168352928401929184019160010161506b565b50909695505050505050565b60005b838110156150b757818101518382015260200161509f565b50506000910152565b600081518084526150d881602086016020860161509c565b601f01601f19169290920160200192915050565b602081526000611f9060208301846150c0565b6001600160a01b038116811461117f57600080fd5b60008083601f84011261512657600080fd5b5081356001600160401b0381111561513d57600080fd5b6020830191508360208260051b850101111561515857600080fd5b9250929050565b6000806000806060858703121561517557600080fd5b8435615180816150ff565b93506020850135925060408501356001600160401b038111156151a257600080fd5b6151ae87828801615114565b95989497509550505050565b600080604083850312156151cd57600080fd5b82356151d8816150ff565b946020939093013593505050565b60008083601f8401126151f857600080fd5b5081356001600160401b0381111561520f57600080fd5b60208301915083602082850101111561515857600080fd5b6000806000806040858703121561523d57600080fd5b84356001600160401b038082111561525457600080fd5b615260888389016151e6565b9096509450602087013591508082111561527957600080fd5b506151ae878288016151e6565b60006020828403121561529857600080fd5b8135611f90816150ff565b80516001600160a01b0316825260208082015160ff169083015260408082015163ffffffff9081169184019190915260608083015190911690830152608090810151600b0b910152565b60a0810161100882846152a3565b60006020828403121561530d57600080fd5b5035919050565b60008060006040848603121561532957600080fd5b8335925060208401356001600160401b0381111561534657600080fd5b61535286828701615114565b9497909650939450505050565b6000806000806080858703121561537557600080fd5b8435615380816150ff565b93506020850135615390816150ff565b925060408501356153a0816150ff565b9396929550929360600135925050565b634e487b7160e01b600052604160045260246000fd5b604051601f8201601f191681016001600160401b03811182821017156153ee576153ee6153b0565b604052919050565b60006001600160401b0382111561540f5761540f6153b0565b50601f01601f191660200190565b600082601f83011261542e57600080fd5b813561544161543c826153f6565b6153c6565b81815284602083860101111561545657600080fd5b816020850160208301376000918101602001919091529392505050565b801515811461117f57600080fd5b600080600080600080600060e0888a03121561549c57600080fd5b8735965060208801356001600160401b038111156154b957600080fd5b6154c58a828b0161541d565b96505060408801356154d6816150ff565b945060608801356154e681615473565b935060808801356154f6816150ff565b9699959850939692959460a0840135945060c09093013592915050565b6103c08101818360005b6006811015615547576155318383516152a3565b60a092909201916020919091019060010161551d565b50505092915050565b60008060006060848603121561556557600080fd5b8335615570816150ff565b92506020840135615580816150ff565b929592945050506040919091013590565b600080604083850312156155a457600080fd5b50508035926020909101359150565b600080600080600080608087890312156155cc57600080fd5b86356155d7816150ff565b9550602087013560ff811681146155ed57600080fd5b945060408701356001600160401b038082111561560957600080fd5b6156158a838b016151e6565b9096509450606089013591508082111561562e57600080fd5b5061563b89828a016151e6565b979a9699509497509295939492505050565b6000806000806080858703121561566357600080fd5b843561566e816150ff565b9350602085013561567e816150ff565b93969395505050506040820135916060013590565b6020808252825182820181905260009190848201906040850190845b81811015615090578351835292840192918401916001016156af565b600080600080606085870312156156e157600080fd5b84356156ec816150ff565b93506020850135925060408501356001600160401b0381111561570e57600080fd5b6151ae878288016151e6565b600080600080600080600060a0888a03121561573557600080fd5b8735615740816150ff565b96506020880135615750816150ff565b95506040880135945060608801356001600160401b038082111561577357600080fd5b61577f8b838c016151e6565b909650945060808a013591508082111561579857600080fd5b506157a58a828b016151e6565b989b979a50959850939692959293505050565b6000806000606084860312156157cd57600080fd5b83356157d8816150ff565b95602085013595506040909401359392505050565b6000602082840312156157ff57600080fd5b813563ffffffff81168114611f9057600080fd5b60008060006060848603121561582857600080fd5b8335615833816150ff565b92506020840135915060408401356001600160401b0381111561585557600080fd5b6158618682870161541d565b9150509250925092565b6000806000806080858703121561588157600080fd5b843561588c816150ff565b9350602085013561589c816150ff565b92506040850135915060608501356001600160401b038111156158be57600080fd5b6158ca8782880161541d565b91505092959194509250565b600080604083850312156158e957600080fd5b82356158f4816150ff565b91506020830135615904816150ff565b809150509250929050565b6000806000806000806080878903121561592857600080fd5b8635615933816150ff565b95506020870135945060408701356001600160401b038082111561560957600080fd5b60008060006040848603121561596b57600080fd5b8335925060208401356001600160401b0381111561598857600080fd5b615352868287016151e6565b600181811c908216806159a857607f821691505b6020821081036159c857634e487b7160e01b600052602260045260246000fd5b50919050565b6080808252600e908201526d41677265656d656e74537461746560901b60a08201526001600160a01b039384166020820152919092166040820152606081019190915260c00190565b81835281816020850137506000828201602090810191909152601f909101601f19169091010190565b6001600160a01b038716815260ff86166020820152608060408201819052600090615a6e9083018688615a17565b8281036060840152615a81818587615a17565b9998505050505050505050565b60018060a01b0384168152826020820152606060408201526000611f6560608301846150c0565b6060808252600d908201526c41677265656d656e744461746160981b60808201526001600160a01b03929092166020830152604082015260a00190565b838152604060208201819052810182905260006001600160fb1b03831115615b1957600080fd5b8260051b8085606085013791909101606001949350505050565b600060208284031215615b4557600080fd5b8151611f9081615473565b634e487b7160e01b600052601160045260246000fd5b6000600160ff1b8201615b7b57615b7b615b50565b5060000390565b634e487b7160e01b600052600160045260246000fd5b8082018281126000831280158216821582161715615bb857615bb8615b50565b505092915050565b8181036000831280158383131683831282161715613b8157613b81615b50565b85815260018060a01b038516602082015283604082015282606082015260a060808201526000614f5960a08301846150c0565b600060018201615c2557615c25615b50565b5060010190565b634e487b7160e01b600052603260045260246000fd5b600063ffffffff821680615c5857615c58615b50565b6000190192915050565b600b82810b9082900b036b7fffffffffffffffffffffff19811260016001605f1b038213171561100857611008615b50565b600060208284031215615ca657600080fd5b5051919050565b60006020808385031215615cc057600080fd5b82516001600160401b0380821115615cd757600080fd5b818501915085601f830112615ceb57600080fd5b815181811115615cfd57615cfd6153b0565b8060051b9150615d0e8483016153c6565b8181529183018401918481019088841115615d2857600080fd5b938501935b83851015615d525784519250615d42836150ff565b8282529385019390850190615d2d565b98975050505050505050565b8082018082111561100857611008615b50565b601f821115611d0c57600081815260208120601f850160051c81016020861015615d985750805b601f850160051c820191505b81811015615db757828155600101615da4565b505050505050565b6001600160401b03831115615dd657615dd66153b0565b615dea83615de48354615994565b83615d71565b6000601f841160018114615e1e5760008515615e065750838201355b600019600387901b1c1916600186901b1783556112ba565b600083815260209020601f19861690835b82811015615e4f5786850135825560209485019460019092019101615e2f565b5086821015615e6c5760001960f88860031b161c19848701351681555b505060018560011b0183555050505050565b8181038181111561100857611008615b50565b600063ffffffff808316818103615eaa57615eaa615b50565b6001019392505050565b600b81810b9083900b0160016001605f1b0381136b7fffffffffffffffffffffff198212171561100857611008615b50565b63ffffffff818116838216019080821115613b8157613b81615b50565b60ff818116838216019081111561100857611008615b50565b600082615f3957634e487b7160e01b600052601260045260246000fd5b500490565b600080600060608486031215615f5357600080fd5b8351925060208401519150604084015190509250925092565b600060208284031215615f7e57600080fd5b8151611f90816150ff565b60008060008060808587031215615f9f57600080fd5b84519350602085015180600b0b8114615fb757600080fd5b6040860151606090960151949790965092505050565b838152606060208201526000615fe660608301856150c0565b8281036040840152611d4c81856150c0565b60ff828116828216039081111561100857611008615b50565b600181815b8085111561604c57816000190482111561603257616032615b50565b8085161561603f57918102915b93841c9390800290616016565b509250929050565b60008261606357506001611008565b8161607057506000611008565b81600181146160865760028114616090576160ac565b6001915050611008565b60ff8411156160a1576160a1615b50565b50506001821b611008565b5060208310610133831016604e8410600b84101617156160cf575081810a611008565b6160d98383616011565b80600019048211156160ed576160ed615b50565b029392505050565b6000611f9060ff841683616054565b808202811582820484141761100857611008615b50565b6001600160a01b038581168252848116602083015283166040820152608060608201819052600090611d4c908301846150c0565b6001600160a01b0384168152606060208201819052600090615fe6908301856150c0565b60006020828403121561618557600080fd5b81516001600160401b0381111561619b57600080fd5b8201601f810184136161ac57600080fd5b80516161ba61543c826153f6565b8181528560208385010111156161cf57600080fd5b611f6582602083016020860161509c565b6001600160a01b0387811682528681166020830152851660408201526060810184905260c06080820181905260009061621b908301856150c0565b82810360a0840152615a8181856150c0565b6001600160a01b03858116825284166020820152600b83900b6040820152608060608201819052600090611d4c908301846150c0565b6000825161627581846020870161509c565b919091019291505056fe5375706572546f6b656e3a2064656372656173656420616c6c6f77616e63652062656c6f77207a65726fddf252ad1be2c89b69c2b068fc378daa952ba7f163c4a11628f55a4df523b3ef5375706572546f6b656e3a207472616e7366657220616d6f756e74206578636565647320616c6c6f77616e6365a264697066735822122002a4a04c23e7b7e101a3d22172370c638e41a8d12a0c6c2be8d8b31343e852a664736f6c63430008130033",
    "linkReferences": {}
  },
  "methodIdentifiers": {
    "CONSTANT_INFLOW_NFT()": "4c5c0c85",
    "CONSTANT_OUTFLOW_NFT()": "ef43d2c6",
    "FLAT_COST_SPONSORSHIP()": "b132a50d",
    "MAX_SPONSORSHIP_LEVEL()": "b5c0b7eb",
    "MAX_SPONSORSHIP_PATH_OUTFLOW()": "f349f56a",
    "_initialize(string,string)": "098dce13",
    "allowance(address,address)": "dd62ed3e",
    "approve(address,uint256)": "095ea7b3",
    "authorizeOperator(address)": "959b8c3f",
    "balanceOf(address)": "70a08231",
    "burn(uint256,bytes)": "fe9d9303",
    "calculateFlowRate(uint32)": "7ae058dc",
    "createAgreement(bytes32,bytes32[])": "12a6a3f8",
    "decimals()": "313ce567",
    "decreaseAllowance(address,uint256)": "a457c2d7",
    "defaultOperators()": "06e48538",
    "downgrade(uint256)": "11bcc81e",
    "downgradeTo(address,uint256)": "83ba2525",
    "fee(uint32)": "8934c79a",
    "getAccountActiveAgreements(address)": "386fa221",
    "getAgreementData(address,bytes32,uint256)": "6c2d9f2f",
    "getAgreementStateSlot(address,address,uint256,uint256)": "4b61cc33",
    "getChainOfSponsors(address)": "21fb177a",
    "getHost()": "20bc4425",
    "getProtege(address)": "099e14ce",
    "getUnderlyingToken()": "ee719bc8",
    "granularity()": "556f0dc7",
    "increaseAllowance(address,uint256)": "39509351",
    "initialize(address,uint8,string,string)": "42fe0980",
    "isAccountCritical(address,uint256)": "d9d078d6",
    "isAccountCriticalNow(address)": "79359f6f",
    "isAccountSolvent(address,uint256)": "b84cdd4a",
    "isAccountSolventNow(address)": "bb0d196e",
    "isOperatorFor(address,address)": "d95b6371",
    "isProtege(address)": "e4a472c8",
    "makeLiquidationPayoutsV2(bytes32,bytes,address,bool,address,uint256,int256)": "1863e809",
    "mint(uint256)": "a0712d68",
    "name()": "06fdde03",
    "operationApprove(address,address,uint256)": "62aa5287",
    "operationDecreaseAllowance(address,address,uint256)": "c780fd82",
    "operationDowngrade(address,uint256)": "245887fc",
    "operationIncreaseAllowance(address,address,uint256)": "4b2763b3",
    "operationSend(address,address,uint256,bytes)": "ca0c1e7f",
    "operationTransferFrom(address,address,address,uint256)": "16d055d6",
    "operationUpgrade(address,uint256)": "ca789464",
    "operatorBurn(address,uint256,bytes,bytes)": "fc673c4f",
    "operatorSend(address,address,uint256,bytes,bytes)": "62ad1b83",
    "owner()": "8da5cb5b",
    "realtimeBalanceOf(address,uint256)": "eb3537cc",
    "realtimeBalanceOfNow(address)": "2ec8eec7",
    "remove(address)": "29092d0e",
    "renounceOwnership()": "715018a6",
    "restartStream()": "57cf7acb",
    "revokeOperator(address)": "fad8b32a",
    "selfApproveFor(address,address,uint256)": "66a12fb6",
    "selfBurn(address,uint256,bytes)": "9d876741",
    "selfMint(address,uint256,bytes)": "c68d4283",
    "selfTransferFrom(address,address,address,uint256)": "41b706be",
    "send(address,uint256,bytes)": "9bd9bbc6",
    "settleBalance(address,int256)": "cf97256d",
    "sponsor(address)": "766c4f37",
    "symbol()": "95d89b41",
    "terminateAgreement(bytes32,uint256)": "27048397",
    "totalSupply()": "18160ddd",
    "transfer(address,uint256)": "a9059cbb",
    "transferAll(address)": "a3a7e7f3",
    "transferFrom(address,address,uint256)": "23b872dd",
    "transferOwnership(address)": "f2fde38b",
    "updateAgreementData(bytes32,bytes32[])": "a1b2bf8b",
    "updateAgreementStateSlot(address,uint256,bytes32[])": "090c415e",
    "upgrade(uint256)": "45977d03",
    "upgradeTo(address,uint256,bytes)": "5b9d09cc",
    "withdraw(address,uint256)": "f3fef3a3"
  },
  "id": 115
}