{
  "abi": [
    {
      "inputs": [],
      "stateMutability": "nonpayable",
      "type": "constructor"
    },
    {
      "inputs": [],
      "name": "Initialized",
      "type": "error"
    },
    {
      "inputs": [],
      "name": "ZeroAddress",
      "type": "error"
    },
    {
      "anonymous": false,
      "inputs": [
        {
          "indexed": true,
          "internalType": "address",
          "name": "previousOwner",
          "type": "address"
        },
        {
          "indexed": true,
          "internalType": "address",
          "name": "newOwner",
          "type": "address"
        }
      ],
      "name": "OwnershipTransferred",
      "type": "event"
    },
    {
      "anonymous": false,
      "inputs": [
        {
          "indexed": true,
          "internalType": "address",
          "name": "sponsor",
          "type": "address"
        },
        {
          "indexed": true,
          "internalType": "address",
          "name": "protege",
          "type": "address"
        },
        {
          "indexed": false,
          "internalType": "uint8",
          "name": "level",
          "type": "uint8"
        },
        {
          "indexed": false,
          "internalType": "uint32",
          "name": "totalProtegeCount",
          "type": "uint32"
        },
        {
          "indexed": false,
          "internalType": "uint32",
          "name": "directTotalProtegeCount",
          "type": "uint32"
        }
      ],
      "name": "PROTEGE_UPDATED",
      "type": "event"
    },
    {
      "stateMutability": "payable",
      "type": "fallback"
    },
    {
      "inputs": [],
      "name": "FLAT_COST_SPONSORSHIP",
      "outputs": [
        {
          "internalType": "uint256",
          "name": "",
          "type": "uint256"
        }
      ],
      "stateMutability": "view",
      "type": "function"
    },
    {
      "inputs": [],
      "name": "MAX_SPONSORSHIP_LEVEL",
      "outputs": [
        {
          "internalType": "uint256",
          "name": "",
          "type": "uint256"
        }
      ],
      "stateMutability": "view",
      "type": "function"
    },
    {
      "inputs": [],
      "name": "MAX_SPONSORSHIP_PATH_OUTFLOW",
      "outputs": [
        {
          "internalType": "uint256",
          "name": "",
          "type": "uint256"
        }
      ],
      "stateMutability": "view",
      "type": "function"
    },
    {
      "inputs": [
        {
          "internalType": "uint32",
          "name": "totalProtegeCount",
          "type": "uint32"
        },
        {
          "internalType": "uint8",
          "name": "level",
          "type": "uint8"
        }
      ],
      "name": "calculateFlowRate",
      "outputs": [
        {
          "internalType": "int96",
          "name": "flowRate",
          "type": "int96"
        }
      ],
      "stateMutability": "view",
      "type": "function"
    },
    {
      "inputs": [
        {
          "internalType": "uint32",
          "name": "directProtegeCount",
          "type": "uint32"
        }
      ],
      "name": "fee",
      "outputs": [
        {
          "internalType": "uint256",
          "name": "feeAmount",
          "type": "uint256"
        }
      ],
      "stateMutability": "pure",
      "type": "function"
    },
    {
      "inputs": [
        {
          "internalType": "uint8",
          "name": "level",
          "type": "uint8"
        }
      ],
      "name": "getAllocationForLevel",
      "outputs": [
        {
          "internalType": "uint256",
          "name": "allocation",
          "type": "uint256"
        }
      ],
      "stateMutability": "pure",
      "type": "function"
    },
    {
      "inputs": [
        {
          "internalType": "address",
          "name": "protege",
          "type": "address"
        }
      ],
      "name": "getChainOfSponsors",
      "outputs": [
        {
          "components": [
            {
              "internalType": "address",
              "name": "sponsor",
              "type": "address"
            },
            {
              "internalType": "uint8",
              "name": "level",
              "type": "uint8"
            },
            {
              "internalType": "uint32",
              "name": "totalProtegeCount",
              "type": "uint32"
            },
            {
              "internalType": "uint32",
              "name": "directTotalProtegeCount",
              "type": "uint32"
            },
            {
              "internalType": "int96",
              "name": "desiredFlowRate",
              "type": "int96"
            }
          ],
          "internalType": "struct SuperfluidClub.Protege[6]",
          "name": "sponsors",
          "type": "tuple[6]"
        }
      ],
      "stateMutability": "view",
      "type": "function"
    },
    {
      "inputs": [
        {
          "internalType": "address",
          "name": "protege",
          "type": "address"
        }
      ],
      "name": "getProtege",
      "outputs": [
        {
          "components": [
            {
              "internalType": "address",
              "name": "sponsor",
              "type": "address"
            },
            {
              "internalType": "uint8",
              "name": "level",
              "type": "uint8"
            },
            {
              "internalType": "uint32",
              "name": "totalProtegeCount",
              "type": "uint32"
            },
            {
              "internalType": "uint32",
              "name": "directTotalProtegeCount",
              "type": "uint32"
            },
            {
              "internalType": "int96",
              "name": "desiredFlowRate",
              "type": "int96"
            }
          ],
          "internalType": "struct SuperfluidClub.Protege",
          "name": "",
          "type": "tuple"
        }
      ],
      "stateMutability": "view",
      "type": "function"
    },
    {
      "inputs": [
        {
          "internalType": "address",
          "name": "superTokenFactory",
          "type": "address"
        }
      ],
      "name": "initialize",
      "outputs": [],
      "stateMutability": "nonpayable",
      "type": "function"
    },
    {
      "inputs": [
        {
          "internalType": "address",
          "name": "initialAddress",
          "type": "address"
        }
      ],
      "name": "initializeProxy",
      "outputs": [],
      "stateMutability": "nonpayable",
      "type": "function"
    },
    {
      "inputs": [
        {
          "internalType": "address",
          "name": "protege",
          "type": "address"
        }
      ],
      "name": "isProtege",
      "outputs": [
        {
          "internalType": "bool",
          "name": "",
          "type": "bool"
        }
      ],
      "stateMutability": "view",
      "type": "function"
    },
    {
      "inputs": [
        {
          "internalType": "uint256",
          "name": "amount",
          "type": "uint256"
        }
      ],
      "name": "mint",
      "outputs": [],
      "stateMutability": "nonpayable",
      "type": "function"
    },
    {
      "inputs": [],
      "name": "owner",
      "outputs": [
        {
          "internalType": "address",
          "name": "",
          "type": "address"
        }
      ],
      "stateMutability": "view",
      "type": "function"
    },
    {
      "inputs": [
        {
          "internalType": "address",
          "name": "oldProtege",
          "type": "address"
        }
      ],
      "name": "remove",
      "outputs": [],
      "stateMutability": "nonpayable",
      "type": "function"
    },
    {
      "inputs": [],
      "name": "renounceOwnership",
      "outputs": [],
      "stateMutability": "nonpayable",
      "type": "function"
    },
    {
      "inputs": [],
      "name": "restartStream",
      "outputs": [],
      "stateMutability": "nonpayable",
      "type": "function"
    },
    {
      "inputs": [
        {
          "internalType": "address payable",
          "name": "newProtege",
          "type": "address"
        }
      ],
      "name": "sponsor",
      "outputs": [],
      "stateMutability": "payable",
      "type": "function"
    },
    {
      "inputs": [
        {
          "internalType": "address",
          "name": "newOwner",
          "type": "address"
        }
      ],
      "name": "transferOwnership",
      "outputs": [],
      "stateMutability": "nonpayable",
      "type": "function"
    },
    {
      "inputs": [
        {
          "internalType": "address",
          "name": "receiver",
          "type": "address"
        },
        {
          "internalType": "uint256",
          "name": "amount",
          "type": "uint256"
        }
      ],
      "name": "withdraw",
      "outputs": [],
      "stateMutability": "nonpayable",
      "type": "function"
    },
    {
      "stateMutability": "payable",
      "type": "receive"
    }
  ],
  "bytecode": {
    "object": "0x608060405234801561001057600080fd5b5061001a3361001f565b610071565b602080546001600160a01b038381166001600160a01b0319831681179093556040519116919082907f8be0079c531659141344cd1fd0a4f28419497f9722a3daafe3b4186f6b6457e090600090a35050565b6121f4806100806000396000f3fe6080604052600436106101185760003560e01c80638da5cb5b116100a0578063cbb10d3411610064578063cbb10d3414610397578063e4a472c8146103b7578063f2fde38b146103e7578063f349f56a14610407578063f3fef3a3146104245761011f565b80638da5cb5b14610300578063a0712d6814610327578063b132a50d14610347578063b5c0b7eb14610362578063c4d66de8146103775761011f565b80634a0687ef116100e75780634a0687ef1461027557806357cf7acb14610295578063715018a6146102aa578063766c4f37146102bf5780638934c79a146102d25761011f565b806301af0b2214610129578063099e14ce1461016157806321fb177a1461022857806329092d0e146102555761011f565b3661011f57005b610127610444565b005b34801561013557600080fd5b50610149610144366004611b50565b610476565b604051600b9190910b81526020015b60405180910390f35b34801561016d57600080fd5b5061021b61017c366004611b98565b6040805160a081018252600080825260208201819052918101829052606081018290526080810191909152506001600160a01b03908116600090815260216020908152604091829020825160a0810184528154948516815260ff600160a01b8604169281019290925263ffffffff600160a81b8504811693830193909352600160c81b9093049091166060820152600190910154600b0b608082015290565b6040516101589190611c06565b34801561023457600080fd5b50610248610243366004611b98565b6104d7565b6040516101589190611c14565b34801561026157600080fd5b50610127610270366004611b98565b6105b5565b34801561028157600080fd5b50610127610290366004611b98565b610888565b3480156102a157600080fd5b50610127610924565b3480156102b657600080fd5b5061012761098e565b6101276102cd366004611b98565b6109a0565b3480156102de57600080fd5b506102f26102ed366004611c51565b610f27565b604051908152602001610158565b34801561030c57600080fd5b50602080546040516001600160a01b03909116815201610158565b34801561033357600080fd5b50610127610342366004611c6c565b610fcd565b34801561035357600080fd5b506102f2662386f26fc1000081565b34801561036e57600080fd5b506102f2600681565b34801561038357600080fd5b50610127610392366004611b98565b61100d565b3480156103a357600080fd5b506102f26103b2366004611c85565b6110c8565b3480156103c357600080fd5b506103d76103d2366004611b98565b6110ee565b6040519015158152602001610158565b3480156103f357600080fd5b50610127610402366004611b98565b61110e565b34801561041357600080fd5b506102f268270801d946c940000081565b34801561043057600080fd5b5061012761043f366004611ca0565b611184565b61047461046f7f360894a13ba1a3210667c828492db98dca3e2076cc3735a920a3ca505d382bbc5490565b611296565b565b600080610482836110c8565b90506104cf620151806104a363ffffffff8716670de0b6b3a7640000611ce2565b6104b68468270801d946c9400000611ce2565b6104c09190611d0f565b6104ca9190611d0f565b6112ba565b949350505050565b6104df611ade565b8160005b6104ec826110ee565b156105ae576001600160a01b03808316600090815260216020908152604091829020825160a0810184528154948516815260ff600160a01b8604169281019290925263ffffffff600160a81b8504811693830193909352600160c81b9093049091166060820152600190910154600b0b6080820152838261056c81611d23565b93506006811061057e5761057e611d3c565b602090810291909101919091526001600160a01b03928316600090815260219091526040902054909116906104e3565b5050919050565b6105be816110ee565b6106005760405162461bcd60e51b815260206004820152600e60248201526d4e6f7420612070726f746567652160901b60448201526064015b60405180910390fd5b60006106146020546001600160a01b031690565b6001600160a01b0316336001600160a01b0316146106325733610634565b305b6001600160a01b038084166000818152602160208181526040808420815160a0810183528154978816815260ff600160a01b8904168185015263ffffffff600160a81b8904811693820193909352600160c81b880483166060820152600182018054600b81900b6080840152978752949093526001600160e81b03199096169095556001600160601b0319909316905592935091906106d99030908190879061130716565b600b0b13156106ef576106ed30808561139f565b505b3060009081526021602052604090208054600160a81b900463ffffffff1690601561071983611d52565b82546101009290920a63ffffffff81810219909316918316021790915582516001600160a01b031660009081526021602052604090208054600160c81b90049091169150601961076883611d52565b82546101009290920a63ffffffff8181021990931691831602179091556001600160a01b0384166000908152602160205260409020548351600160a81b90910490911691505b6107b7816110ee565b15610881576001600160a01b03811660009081526021602052604090208054600160a81b900463ffffffff168160156107ef83611d52565b91906101000a81548163ffffffff021916908363ffffffff16021790555050610829838260000160149054906101000a900460ff16610476565b6001820180546001600160601b0319166001600160601b03929092169190911790819055600b0b6000036108685761086230838861139f565b5061087b565b600181015461087b908390600b0b6113be565b506107ae565b5050505050565b6001600160a01b0381166108af5760405163d92e233d60e01b815260040160405180910390fd5b60006108d97f360894a13ba1a3210667c828492db98dca3e2076cc3735a920a3ca505d382bbc5490565b6001600160a01b031614610900576040516302ed543d60e51b815260040160405180910390fd5b7f360894a13ba1a3210667c828492db98dca3e2076cc3735a920a3ca505d382bbc55565b61092d336110ee565b61096a5760405162461bcd60e51b815260206004820152600e60248201526d4e6f7420612070726f746567652160901b60448201526064016105f7565b33600081815260216020526040902060010154600b0b9061098b90826113be565b50565b6109966113ea565b6104746000611444565b6109a9816110ee565b156109eb5760405162461bcd60e51b8152602060048201526012602482015271416c726561647920612070726f746567652160701b60448201526064016105f7565b600080610a006020546001600160a01b031690565b6001600160a01b0316336001600160a01b031614610a2057336000610a24565b3060015b91509150610a31826110ee565b80610a395750805b610a7e5760405162461bcd60e51b8152602060048201526016602482015275596f7520617265206e6f7420612070726f746567652160501b60448201526064016105f7565b6001600160a01b038083166000908152602160209081526040808320815160a0810183528154958616815260ff600160a01b8704169381019390935263ffffffff600160a81b8604811692840192909252600160c81b9094041660608201819052600190930154600b0b60808201523492909190610afb90610f27565b905080831015610b405760405162461bcd60e51b815260206004820152601060248201526f4e6f7420656e6f75676820636f696e2160801b60448201526064016105f7565b610b4a8184611d72565b92506006826020015160ff1610610ba35760405162461bcd60e51b815260206004820152601e60248201527f4d61782073706f6e736f7273686970206c6576656c207265616368656421000060448201526064016105f7565b3060009081526021602052604090208054600160a81b900463ffffffff16906015610bcd83611d85565b82546101009290920a63ffffffff8181021990931691831602179091556001600160a01b03871660009081526021602052604090208054600160c81b900490911691506019610c1b83611d85565b91906101000a81548163ffffffff021916908363ffffffff160217905550506040518060a00160405280866001600160a01b0316815260200183602001516001610c659190611da8565b60ff168152602001600063ffffffff168152602001600063ffffffff168152602001610ca584604001516001610c9b9190611dc1565b8560200151610476565b600b0b90526001600160a01b038781166000908152602160209081526040918290208451815492860151938601516060870151919095166001600160a81b031990931692909217600160a01b60ff909416939093029290921767ffffffffffffffff60a81b1916600160a81b63ffffffff9485160263ffffffff60c81b191617600160c81b9390911692909202919091178155608090910151600190910180546001600160601b0319166001600160601b03909216919091179055845b610d6b816110ee565b15610eb3576001600160a01b03811660009081526021602052604090208054600160a81b900463ffffffff16816015610da383611d85565b82546101009290920a63ffffffff818102199093169183160217909155825460029250610de291600160a81b82041690600160a01b900460ff16610476565b610dec9190611de5565b6001820180546001600160601b0319166001600160601b03929092169190911790819055610e1e908390600b0b6113be565b835130600090815260216020908152604091829020548251600160a01b820460ff168152600160a81b820463ffffffff90811693820193909352600160c81b9091049091168183015290516001600160a01b038581169316917fb03e738d0e6b0d74a2bfbcaa64c76a9dd601ecb77229d0982c9bfe946c8c39a7919081900360600190a3546001600160a01b03169050610d62565b6001600160a01b038716600090815260216020526040902060010154610edf9030908990600b0b611496565b508315610f1e576040516001600160a01b0388169085156108fc029086906000818181858888f19350505050158015610f1c573d6000803e3d6000fd5b505b50505050505050565b6000600c8263ffffffff1611610f455750662386f26fc10000919050565b60188263ffffffff1611610f62575067016345785d8a0000919050565b60248263ffffffff1611610f7f57506702c68af0bb140000919050565b60308263ffffffff1611610f9c5750670429d069189e0000919050565b603c8263ffffffff1611610fb9575067058d15e176280000919050565b50670de0b6b3a7640000919050565b919050565b610fd56113ea565b61098b308260005b6040519080825280601f01601f191660200182016040528015611007576020820181803683370190505b506114b5565b602054600160a01b900460ff161561105d5760405162461bcd60e51b8152602060048201526013602482015272105b1c9958591e481a5b9a5d1a585b1a5e9959606a1b60448201526064016105f7565b6020805460ff60a01b1916600160a01b178155604080518082018252600580825264086d8eac4b60db1b8285018190528351808501909452908352928201929092526110aa91839161150a565b61098b30710125dfa371a19e6f7cb54395ca00000000006000610fdd565b60006110d5826002611f22565b6110e89068270801d946c9400000611d0f565b92915050565b6001600160a01b0390811660009081526021602052604090205416151590565b6111166113ea565b6001600160a01b03811661117b5760405162461bcd60e51b815260206004820152602660248201527f4f776e61626c653a206e6577206f776e657220697320746865207a65726f206160448201526564647265737360d01b60648201526084016105f7565b61098b81611444565b61118c6113ea565b6001600160a01b0382166111d55760405162461bcd60e51b815260206004820152601060248201526f24b73b30b634b2103932b1b2b4bb32b960811b60448201526064016105f7565b600081116112165760405162461bcd60e51b815260206004820152600e60248201526d125b9d985b1a5908185b5bdd5b9d60921b60448201526064016105f7565b8047101561125b5760405162461bcd60e51b81526020600482015260126024820152714e6f7420656e6f7567682062616c616e636560701b60448201526064016105f7565b6040516001600160a01b0383169082156108fc029083906000818181858888f19350505050158015611291573d6000803e3d6000fd5b505050565b3660008037600080366000845af43d6000803e8080156112b5573d6000f35b3d6000fd5b60006b7fffffffffffffffffffffff8211156113035760405162461bcd60e51b81526020600482015260086024820152676f766572666c6f7760c01b60448201526064016105f7565b5090565b6000806113138561158d565b604051631cd43d1160e31b81526001600160a01b03888116600483015287811660248301528681166044830152919350908316915063e6a1e88890606401608060405180830381865afa15801561136e573d6000803e3d6000fd5b505050506040513d601f19601f820116820180604052508101906113929190611f31565b5090979650505050505050565b604080516000808252602082019092526104cf9085908590859061170e565b60006113cb308085611307565b600b0b13156113df5761129130838361183a565b611291308383611496565b6020546001600160a01b031633146104745760405162461bcd60e51b815260206004820181905260248201527f4f776e61626c653a2063616c6c6572206973206e6f7420746865206f776e657260448201526064016105f7565b602080546001600160a01b038381166001600160a01b0319831681179093556040519116919082907f8be0079c531659141344cd1fd0a4f28419497f9722a3daafe3b4186f6b6457e090600090a35050565b604080516000808252602082019092526104cf90859085908590611859565b60405163c68d428360e01b8152309063c68d4283906114dc90869086908690600401611fc5565b600060405180830381600087803b1580156114f657600080fd5b505af1158015610f1e573d6000803e3d6000fd5b604051633504b4d160e21b81523060048201526001600160a01b0384169063d412d34490602401600060405180830381600087803b15801561154b57600080fd5b505af115801561155f573d6000803e3d6000fd5b50506040516285fc1360e71b81523092506342fe098091506114dc9060009060129087908790600401611ff5565b7f65599bf746e17a00ea62e3610586992d88101b78eec3cf380706621fb97ea837547fb969d79d88acd02d04ed7ee7d43b949e7daf093d363abcfbbc43dfdfd1ce969a546001600160a01b0381166116dd576001600160a01b03821661165257826001600160a01b03166320bc44256040518163ffffffff1660e01b8152600401602060405180830381865afa15801561162b573d6000803e3d6000fd5b505050506040513d601f19601f8201168201806040525081019061164f919061203f565b91505b604051635b69006f60e11b81527fa9214cc96615e0085d3bb077758db69497dc2dce3b2b1e97bc93c3d18d83efd360048201526001600160a01b0383169063b6d200de90602401602060405180830381865afa1580156116b6573d6000803e3d6000fd5b505050506040513d601f19601f820116820180604052508101906116da919061203f565b90505b6001600160a01b0382166116f3576116f361205c565b6001600160a01b0381166117095761170961205c565b915091565b600080600061171c876118e5565b91509150816001600160a01b03166339255d5b82836001600160a01b031663b4b333c68b8b8b600067ffffffffffffffff81111561175c5761175c611e28565b6040519080825280601f01601f191660200182016040528015611786576020820181803683370190505b5060405160240161179a9493929190612072565b60408051808303601f1901815291815260208201805160e094851b6001600160e01b03909116179052519185901b6001600160e01b03191682526117e59392509089906004016120b0565b6000604051808303816000875af1158015611804573d6000803e3d6000fd5b505050506040513d6000823e601f3d908101601f1916820160405261182c91908101906120e6565b506001979650505050505050565b604080516000808252602082019092526104cf90859085908590611a90565b6000806000611867876118e5565b91509150816001600160a01b03166339255d5b82836001600160a01b03166362fc305e8b8b8b600067ffffffffffffffff8111156118a7576118a7611e28565b6040519080825280601f01601f1916602001820160405280156118d1576020820181803683370190505b5060405160240161179a9493929190612188565b7f65599bf746e17a00ea62e3610586992d88101b78eec3cf380706621fb97ea837547fb969d79d88acd02d04ed7ee7d43b949e7daf093d363abcfbbc43dfdfd1ce969a546001600160a01b0381166116dd576001600160a01b0382166119aa57826001600160a01b03166320bc44256040518163ffffffff1660e01b8152600401602060405180830381865afa158015611983573d6000803e3d6000fd5b505050506040513d601f19601f820116820180604052508101906119a7919061203f565b91505b604051635b69006f60e11b81527fa9214cc96615e0085d3bb077758db69497dc2dce3b2b1e97bc93c3d18d83efd360048201526001600160a01b0383169063b6d200de90602401602060405180830381865afa158015611a0e573d6000803e3d6000fd5b505050506040513d601f19601f82011682018060405250810190611a32919061203f565b9050817f65599bf746e17a00ea62e3610586992d88101b78eec3cf380706621fb97ea83755807fb969d79d88acd02d04ed7ee7d43b949e7daf093d363abcfbbc43dfdfd1ce969a556001600160a01b0382166116f3576116f361205c565b6000806000611a9e876118e5565b91509150816001600160a01b03166339255d5b82836001600160a01b03166350209a628b8b8b600067ffffffffffffffff8111156118a7576118a7611e28565b6040518060c001604052806006905b6040805160a081018252600080825260208083018290529282018190526060820181905260808201528252600019909201910181611aed5790505090565b803563ffffffff81168114610fc857600080fd5b803560ff81168114610fc857600080fd5b60008060408385031215611b6357600080fd5b611b6c83611b2b565b9150611b7a60208401611b3f565b90509250929050565b6001600160a01b038116811461098b57600080fd5b600060208284031215611baa57600080fd5b8135611bb581611b83565b9392505050565b80516001600160a01b0316825260208082015160ff169083015260408082015163ffffffff9081169184019190915260608083015190911690830152608090810151600b0b910152565b60a081016110e88284611bbc565b6103c08101818360005b6006811015611c4857611c32838351611bbc565b60a0929092019160209190910190600101611c1e565b50505092915050565b600060208284031215611c6357600080fd5b611bb582611b2b565b600060208284031215611c7e57600080fd5b5035919050565b600060208284031215611c9757600080fd5b611bb582611b3f565b60008060408385031215611cb357600080fd5b8235611cbe81611b83565b946020939093013593505050565b634e487b7160e01b600052601160045260246000fd5b80820281158282048414176110e8576110e8611ccc565b634e487b7160e01b600052601260045260246000fd5b600082611d1e57611d1e611cf9565b500490565b600060018201611d3557611d35611ccc565b5060010190565b634e487b7160e01b600052603260045260246000fd5b600063ffffffff821680611d6857611d68611ccc565b6000190192915050565b818103818111156110e8576110e8611ccc565b600063ffffffff808316818103611d9e57611d9e611ccc565b6001019392505050565b60ff81811683821601908111156110e8576110e8611ccc565b63ffffffff818116838216019080821115611dde57611dde611ccc565b5092915050565b600081600b0b83600b0b80611dfc57611dfc611cf9565b6b7fffffffffffffffffffffff19821460001982141615611e1f57611e1f611ccc565b90059392505050565b634e487b7160e01b600052604160045260246000fd5b600181815b80851115611e79578160001904821115611e5f57611e5f611ccc565b80851615611e6c57918102915b93841c9390800290611e43565b509250929050565b600082611e90575060016110e8565b81611e9d575060006110e8565b8160018114611eb35760028114611ebd57611ed9565b60019150506110e8565b60ff841115611ece57611ece611ccc565b50506001821b6110e8565b5060208310610133831016604e8410600b8410161715611efc575081810a6110e8565b611f068383611e3e565b8060001904821115611f1a57611f1a611ccc565b029392505050565b6000611bb560ff841683611e81565b60008060008060808587031215611f4757600080fd5b84519350602085015180600b0b8114611f5f57600080fd5b6040860151606090960151949790965092505050565b60005b83811015611f90578181015183820152602001611f78565b50506000910152565b60008151808452611fb1816020860160208601611f75565b601f01601f19169290920160200192915050565b60018060a01b0384168152826020820152606060408201526000611fec6060830184611f99565b95945050505050565b6001600160a01b038516815260ff8416602082015260806040820181905260009061202290830185611f99565b82810360608401526120348185611f99565b979650505050505050565b60006020828403121561205157600080fd5b8151611bb581611b83565b634e487b7160e01b600052600160045260246000fd5b6001600160a01b0385811682528481166020830152831660408201526080606082018190526000906120a690830184611f99565b9695505050505050565b6001600160a01b03841681526060602082018190526000906120d490830185611f99565b82810360408401526120a68185611f99565b6000602082840312156120f857600080fd5b815167ffffffffffffffff8082111561211057600080fd5b818401915084601f83011261212457600080fd5b81518181111561213657612136611e28565b604051601f8201601f19908116603f0116810190838211818310171561215e5761215e611e28565b8160405282815287602084870101111561217757600080fd5b612034836020830160208801611f75565b6001600160a01b03858116825284166020820152600b83900b60408201526080606082018190526000906120a690830184611f9956fea26469706673582212202b8a21a6051489f17f91148d71e449c893d4a7aa7421744e6e723d42faf6808664736f6c63430008130033",
    "linkReferences": {}
  },
  "methodIdentifiers": {
    "FLAT_COST_SPONSORSHIP()": "b132a50d",
    "MAX_SPONSORSHIP_LEVEL()": "b5c0b7eb",
    "MAX_SPONSORSHIP_PATH_OUTFLOW()": "f349f56a",
    "calculateFlowRate(uint32,uint8)": "01af0b22",
    "fee(uint32)": "8934c79a",
    "getAllocationForLevel(uint8)": "cbb10d34",
    "getChainOfSponsors(address)": "21fb177a",
    "getProtege(address)": "099e14ce",
    "initialize(address)": "c4d66de8",
    "initializeProxy(address)": "4a0687ef",
    "isProtege(address)": "e4a472c8",
    "mint(uint256)": "a0712d68",
    "owner()": "8da5cb5b",
    "remove(address)": "29092d0e",
    "renounceOwnership()": "715018a6",
    "restartStream()": "57cf7acb",
    "sponsor(address)": "766c4f37",
    "transferOwnership(address)": "f2fde38b",
    "withdraw(address,uint256)": "f3fef3a3"
  },
  "id": 115
}