{
  "abi": [
    {
      "inputs": [],
      "stateMutability": "nonpayable",
      "type": "constructor"
    },
    {
      "inputs": [],
      "name": "Initialized",
      "type": "error"
    },
    {
      "inputs": [],
      "name": "ZeroAddress",
      "type": "error"
    },
    {
      "anonymous": false,
      "inputs": [
        {
          "indexed": true,
          "internalType": "address",
          "name": "previousOwner",
          "type": "address"
        },
        {
          "indexed": true,
          "internalType": "address",
          "name": "newOwner",
          "type": "address"
        }
      ],
      "name": "OwnershipTransferred",
      "type": "event"
    },
    {
      "stateMutability": "payable",
      "type": "fallback"
    },
    {
      "inputs": [],
      "name": "FIRST_ELEMENT_PROGRESSION",
      "outputs": [
        {
          "internalType": "uint256",
          "name": "",
          "type": "uint256"
        }
      ],
      "stateMutability": "view",
      "type": "function"
    },
    {
      "inputs": [],
      "name": "FLAT_COST_SPONSORSHIP",
      "outputs": [
        {
          "internalType": "uint256",
          "name": "",
          "type": "uint256"
        }
      ],
      "stateMutability": "view",
      "type": "function"
    },
    {
      "inputs": [],
      "name": "MAX_SPONSORSHIP_LEVEL",
      "outputs": [
        {
          "internalType": "uint256",
          "name": "",
          "type": "uint256"
        }
      ],
      "stateMutability": "view",
      "type": "function"
    },
    {
      "inputs": [],
      "name": "MAX_SPONSORSHIP_PATH_OUTFLOW",
      "outputs": [
        {
          "internalType": "uint256",
          "name": "",
          "type": "uint256"
        }
      ],
      "stateMutability": "view",
      "type": "function"
    },
    {
      "inputs": [
        {
          "internalType": "uint8",
          "name": "level",
          "type": "uint8"
        },
        {
          "internalType": "uint32",
          "name": "protegeCount",
          "type": "uint32"
        },
        {
          "internalType": "uint256",
          "name": "totalWeightedFactor",
          "type": "uint256"
        }
      ],
      "name": "calculateSponsorAmount",
      "outputs": [
        {
          "internalType": "int96",
          "name": "flow",
          "type": "int96"
        }
      ],
      "stateMutability": "pure",
      "type": "function"
    },
    {
      "inputs": [
        {
          "internalType": "uint8",
          "name": "level",
          "type": "uint8"
        }
      ],
      "name": "getAllocation",
      "outputs": [
        {
          "internalType": "uint256",
          "name": "allocation",
          "type": "uint256"
        }
      ],
      "stateMutability": "pure",
      "type": "function"
    },
    {
      "inputs": [
        {
          "internalType": "address",
          "name": "protege",
          "type": "address"
        }
      ],
      "name": "getChainOfSponsors",
      "outputs": [
        {
          "components": [
            {
              "internalType": "address",
              "name": "sponsor",
              "type": "address"
            },
            {
              "internalType": "uint8",
              "name": "level",
              "type": "uint8"
            },
            {
              "internalType": "uint32",
              "name": "protegeCount",
              "type": "uint32"
            }
          ],
          "internalType": "struct SuperfluidClub.Protege[6]",
          "name": "sponsors",
          "type": "tuple[6]"
        }
      ],
      "stateMutability": "view",
      "type": "function"
    },
    {
      "inputs": [
        {
          "internalType": "uint8",
          "name": "protegeLvl",
          "type": "uint8"
        }
      ],
      "name": "getFlowRateAmount",
      "outputs": [
        {
          "internalType": "int96",
          "name": "flowRate",
          "type": "int96"
        }
      ],
      "stateMutability": "pure",
      "type": "function"
    },
    {
      "inputs": [
        {
          "internalType": "uint8",
          "name": "sponsorLvl",
          "type": "uint8"
        }
      ],
      "name": "getMaxFlowRateByLevel",
      "outputs": [
        {
          "internalType": "int96",
          "name": "maxFlowRate",
          "type": "int96"
        }
      ],
      "stateMutability": "pure",
      "type": "function"
    },
    {
      "inputs": [
        {
          "internalType": "address",
          "name": "protege",
          "type": "address"
        }
      ],
      "name": "getProtege",
      "outputs": [
        {
          "components": [
            {
              "internalType": "address",
              "name": "sponsor",
              "type": "address"
            },
            {
              "internalType": "uint8",
              "name": "level",
              "type": "uint8"
            },
            {
              "internalType": "uint32",
              "name": "protegeCount",
              "type": "uint32"
            }
          ],
          "internalType": "struct SuperfluidClub.Protege",
          "name": "",
          "type": "tuple"
        }
      ],
      "stateMutability": "view",
      "type": "function"
    },
    {
      "inputs": [
        {
          "internalType": "uint8",
          "name": "protegeLvl",
          "type": "uint8"
        }
      ],
      "name": "getProtegeLevelWeight",
      "outputs": [
        {
          "internalType": "uint256",
          "name": "levelWeight",
          "type": "uint256"
        }
      ],
      "stateMutability": "pure",
      "type": "function"
    },
    {
      "inputs": [
        {
          "internalType": "address",
          "name": "superTokenFactory",
          "type": "address"
        }
      ],
      "name": "initialize",
      "outputs": [],
      "stateMutability": "nonpayable",
      "type": "function"
    },
    {
      "inputs": [
        {
          "internalType": "address",
          "name": "initialAddress",
          "type": "address"
        }
      ],
      "name": "initializeProxy",
      "outputs": [],
      "stateMutability": "nonpayable",
      "type": "function"
    },
    {
      "inputs": [
        {
          "internalType": "address",
          "name": "protege",
          "type": "address"
        }
      ],
      "name": "isProtege",
      "outputs": [
        {
          "internalType": "bool",
          "name": "",
          "type": "bool"
        }
      ],
      "stateMutability": "view",
      "type": "function"
    },
    {
      "inputs": [
        {
          "internalType": "uint256",
          "name": "amount",
          "type": "uint256"
        }
      ],
      "name": "mint",
      "outputs": [],
      "stateMutability": "nonpayable",
      "type": "function"
    },
    {
      "inputs": [],
      "name": "owner",
      "outputs": [
        {
          "internalType": "address",
          "name": "",
          "type": "address"
        }
      ],
      "stateMutability": "view",
      "type": "function"
    },
    {
      "inputs": [],
      "name": "renounceOwnership",
      "outputs": [],
      "stateMutability": "nonpayable",
      "type": "function"
    },
    {
      "inputs": [],
      "name": "restartStream",
      "outputs": [],
      "stateMutability": "nonpayable",
      "type": "function"
    },
    {
      "inputs": [
        {
          "internalType": "address payable",
          "name": "newProtege",
          "type": "address"
        }
      ],
      "name": "sponsor",
      "outputs": [],
      "stateMutability": "payable",
      "type": "function"
    },
    {
      "inputs": [
        {
          "internalType": "address",
          "name": "newOwner",
          "type": "address"
        }
      ],
      "name": "transferOwnership",
      "outputs": [],
      "stateMutability": "nonpayable",
      "type": "function"
    },
    {
      "inputs": [
        {
          "internalType": "address",
          "name": "receiver",
          "type": "address"
        },
        {
          "internalType": "uint256",
          "name": "amount",
          "type": "uint256"
        }
      ],
      "name": "withdraw",
      "outputs": [],
      "stateMutability": "nonpayable",
      "type": "function"
    },
    {
      "stateMutability": "payable",
      "type": "receive"
    }
  ],
  "bytecode": {
    "object": "0x608060405234801561001057600080fd5b5061001a3361001f565b610071565b602080546001600160a01b038381166001600160a01b0319831681179093556040519116919082907f8be0079c531659141344cd1fd0a4f28419497f9722a3daafe3b4186f6b6457e090600090a35050565b611d21806100806000396000f3fe60806040526004361061012e5760003560e01c8063a2698fc0116100ab578063c4d66de81161006f578063c4d66de814610394578063da3a6a12146103b4578063e4a472c8146103d4578063f2fde38b14610404578063f349f56a14610424578063f3fef3a31461044157610135565b8063a2698fc0146102f4578063b132a50d14610311578063b144a77b1461032c578063b5c0b7eb1461035f578063c41a47351461037457610135565b8063715018a6116100f2578063715018a614610265578063766c4f371461027a578063785756431461028d5780638da5cb5b146102ad578063a0712d68146102d457610135565b8063099e14ce1461013f5780631c945f59146101d557806321fb177a146102035780634a0687ef1461023057806357cf7acb1461025057610135565b3661013557005b61013d610461565b005b34801561014b57600080fd5b506101bf61015a366004611722565b6040805160608082018352600080835260208084018290529284018190526001600160a01b0394851681526021835283902083519182018452549384168152600160a01b840460ff1691810191909152600160a81b90920463ffffffff169082015290565b6040516101cc9190611746565b60405180910390f35b3480156101e157600080fd5b506101f56101f036600461178a565b610493565b6040519081526020016101cc565b34801561020f57600080fd5b5061022361021e366004611722565b6104b9565b6040516101cc91906117a5565b34801561023c57600080fd5b5061013d61024b366004611722565b610576565b34801561025c57600080fd5b5061013d610612565b34801561027157600080fd5b5061013d6106e4565b61013d610288366004611722565b6106f6565b34801561029957600080fd5b506101f56102a836600461178a565b610aa9565b3480156102b957600080fd5b50602080546040516001600160a01b039091168152016101cc565b3480156102e057600080fd5b5061013d6102ef366004611808565b610b17565b34801561030057600080fd5b506101f56813d64c843842b1000081565b34801561031d57600080fd5b506101f5662386f26fc1000081565b34801561033857600080fd5b5061034c610347366004611821565b610b5a565b604051600b9190910b81526020016101cc565b34801561036b57600080fd5b506101f5600681565b34801561038057600080fd5b5061034c61038f36600461178a565b610bb6565b3480156103a057600080fd5b5061013d6103af366004611722565b610c2f565b3480156103c057600080fd5b5061034c6103cf36600461178a565b610cea565b3480156103e057600080fd5b506103f46103ef366004611722565b610d78565b60405190151581526020016101cc565b34801561041057600080fd5b5061013d61041f366004611722565b610d98565b34801561043057600080fd5b506101f568270801d946c940000081565b34801561044d57600080fd5b5061013d61045c366004611869565b610e0e565b61049161048c7f360894a13ba1a3210667c828492db98dca3e2076cc3735a920a3ca505d382bbc5490565b610f20565b565b60006104a082600261198f565b6104b3906813d64c843842b1000061199e565b92915050565b6104c16116ce565b8160005b6104ce82610d78565b1561056f576001600160a01b03828116600090815260216020908152604091829020825160608101845290549384168152600160a01b840460ff1691810191909152600160a81b90920463ffffffff1690820152838261052d816119c0565b93506006811061053f5761053f6119d9565b602090810291909101919091526001600160a01b03928316600090815260219091526040902054909116906104c5565b5050919050565b6001600160a01b03811661059d5760405163d92e233d60e01b815260040160405180910390fd5b60006105c77f360894a13ba1a3210667c828492db98dca3e2076cc3735a920a3ca505d382bbc5490565b6001600160a01b0316146105ee576040516302ed543d60e51b815260040160405180910390fd5b7f360894a13ba1a3210667c828492db98dca3e2076cc3735a920a3ca505d382bbc55565b61061b33610d78565b61065d5760405162461bcd60e51b815260206004820152600e60248201526d4e6f7420612070726f746567652160901b60448201526064015b60405180910390fd5b600061066a308033610f44565b905080600b0b6000146106b05760405162461bcd60e51b815260206004820152600e60248201526d53747265616d2072756e6e696e6760901b6044820152606401610654565b336000818152602160205260409020546106e091906106d890600160a01b900460ff16610bb6565b309190610fdc565b5050565b6106ec611003565b610491600061105d565b6106ff81610d78565b156107415760405162461bcd60e51b8152602060048201526012602482015271416c726561647920612070726f746567652160701b6044820152606401610654565b6000806107566020546001600160a01b031690565b6001600160a01b0316336001600160a01b0316146107765733600061077a565b3060015b9150915061078782610d78565b8061078f5750805b6107d45760405162461bcd60e51b8152602060048201526016602482015275596f7520617265206e6f7420612070726f746567652160501b6044820152606401610654565b6001600160a01b0382166000908152602160205260409020543490600160a01b900460ff16662386f26fc100008210156108435760405162461bcd60e51b815260206004820152601060248201526f4e6f7420656e6f75676820636f696e2160801b6044820152606401610654565b610854662386f26fc10000836119ef565b915060068160ff16106108a95760405162461bcd60e51b815260206004820152601e60248201527f4d61782073706f6e736f7273686970206c6576656c20726561636865642100006044820152606401610654565b3060009081526021602052604090208054600160a81b900463ffffffff169060156108d383611a02565b91906101000a81548163ffffffff021916908363ffffffff160217905550506040518060600160405280856001600160a01b031681526020018260016109199190611a25565b60ff9081168252600060209283018190526001600160a01b03808a1682526021845260408083208651815496880151979092015163ffffffff16600160a81b0263ffffffff60a81b1997909516600160a01b026001600160a81b03199096169190921617939093179390931617905581855b61099481610d78565b15610a4e576001600160a01b03811660009081526021602052604090208054600160a81b900463ffffffff168160156109cc83611a02565b91906101000a81548163ffffffff021916908363ffffffff160217905550506109f483610493565b6109fe9085611a3e565b935082610a0a81611a51565b8254909450610a3d91508390610a3890600160a01b810460ff1690600160a81b900463ffffffff1688610b5a565b6110af565b546001600160a01b0316905061098b565b610a60886106d861038f876001611a25565b508415610a9f576040516001600160a01b0389169086156108fc029087906000818181858888f19350505050158015610a9d573d6000803e3d6000fd5b505b5050505050505050565b60008160ff16600103610abe57506032919050565b8160ff16600203610ad157506019919050565b8160ff16600303610ae45750600c919050565b8160ff16600403610af757506006919050565b8160ff16600503610b0a57506003919050565b506001919050565b919050565b610b1f611003565b610b57308260005b6040519080825280601f01601f191660200182016040528015610b51576020820181803683370190505b506110db565b50565b6000808363ffffffff16610b6d86610493565b610b779190611a84565b9050610bad6201518084610b948468270801d946c9400000611a84565b610b9e919061199e565b610ba8919061199e565b611139565b95945050505050565b600080610bc283610cea565b905060006064610bd185610aa9565b610be49068270801d946c9400000611a84565b610bee919061199e565b905060006bffffffffffffffffffffffff83168211610c0d5781610c1d565b6bffffffffffffffffffffffff83165b9050610bad610ba8620151808361199e565b602054600160a01b900460ff1615610c7f5760405162461bcd60e51b8152602060048201526013602482015272105b1c9958591e481a5b9a5d1a585b1a5e9959606a1b6044820152606401610654565b6020805460ff60a01b1916600160a01b178155604080518082018252600580825264086d8eac4b60db1b828501819052835180850190945290835292820192909252610ccc918391611186565b610b5730710125dfa371a19e6f7cb54395ca00000000006000610b27565b60008160ff16600103610d06575067016345785d8a0000919050565b8160ff16600203610d1f575066b1a2bc2ec50000919050565b8160ff16600303610d38575066470de4df820000919050565b8160ff16600403610d515750662386f26fc10000919050565b8160ff16600503610d6a57506611c37937e08000919050565b5066038d7ea4c68000919050565b6001600160a01b0390811660009081526021602052604090205416151590565b610da0611003565b6001600160a01b038116610e055760405162461bcd60e51b815260206004820152602660248201527f4f776e61626c653a206e6577206f776e657220697320746865207a65726f206160448201526564647265737360d01b6064820152608401610654565b610b578161105d565b610e16611003565b6001600160a01b038216610e5f5760405162461bcd60e51b815260206004820152601060248201526f24b73b30b634b2103932b1b2b4bb32b960811b6044820152606401610654565b60008111610ea05760405162461bcd60e51b815260206004820152600e60248201526d125b9d985b1a5908185b5bdd5b9d60921b6044820152606401610654565b80471015610ee55760405162461bcd60e51b81526020600482015260126024820152714e6f7420656e6f7567682062616c616e636560701b6044820152606401610654565b6040516001600160a01b0383169082156108fc029083906000818181858888f19350505050158015610f1b573d6000803e3d6000fd5b505050565b3660008037600080366000845af43d6000803e808015610f3f573d6000f35b3d6000fd5b600080610f5085611209565b604051631cd43d1160e31b81526001600160a01b03888116600483015287811660248301528681166044830152919350908316915063e6a1e88890606401608060405180830381865afa158015610fab573d6000803e3d6000fd5b505050506040513d601f19601f82011682018060405250810190610fcf9190611a9b565b5090979650505050505050565b60408051600080825260208201909252610ffb9085908590859061138a565b949350505050565b6020546001600160a01b031633146104915760405162461bcd60e51b815260206004820181905260248201527f4f776e61626c653a2063616c6c6572206973206e6f7420746865206f776e65726044820152606401610654565b602080546001600160a01b038381166001600160a01b0319831681179093556040519116919082907f8be0079c531659141344cd1fd0a4f28419497f9722a3daafe3b4186f6b6457e090600090a35050565b60006110bc308085610f44565b600b0b13156110d057610f1b3083836114b6565b610f1b308383610fdc565b60405163c68d428360e01b8152309063c68d42839061110290869086908690600401611b2f565b600060405180830381600087803b15801561111c57600080fd5b505af1158015611130573d6000803e3d6000fd5b50505050505050565b60006b7fffffffffffffffffffffff8211156111825760405162461bcd60e51b81526020600482015260086024820152676f766572666c6f7760c01b6044820152606401610654565b5090565b604051633504b4d160e21b81523060048201526001600160a01b0384169063d412d34490602401600060405180830381600087803b1580156111c757600080fd5b505af11580156111db573d6000803e3d6000fd5b50506040516285fc1360e71b81523092506342fe098091506111029060009060129087908790600401611b56565b7f65599bf746e17a00ea62e3610586992d88101b78eec3cf380706621fb97ea837547fb969d79d88acd02d04ed7ee7d43b949e7daf093d363abcfbbc43dfdfd1ce969a546001600160a01b038116611359576001600160a01b0382166112ce57826001600160a01b03166320bc44256040518163ffffffff1660e01b8152600401602060405180830381865afa1580156112a7573d6000803e3d6000fd5b505050506040513d601f19601f820116820180604052508101906112cb9190611ba0565b91505b604051635b69006f60e11b81527fa9214cc96615e0085d3bb077758db69497dc2dce3b2b1e97bc93c3d18d83efd360048201526001600160a01b0383169063b6d200de90602401602060405180830381865afa158015611332573d6000803e3d6000fd5b505050506040513d601f19601f820116820180604052508101906113569190611ba0565b90505b6001600160a01b03821661136f5761136f611bbd565b6001600160a01b03811661138557611385611bbd565b915091565b6000806000611398876114d5565b91509150816001600160a01b03166339255d5b82836001600160a01b03166362fc305e8b8b8b600067ffffffffffffffff8111156113d8576113d8611a6e565b6040519080825280601f01601f191660200182016040528015611402576020820181803683370190505b506040516024016114169493929190611bd3565b60408051808303601f1901815291815260208201805160e094851b6001600160e01b03909116179052519185901b6001600160e01b0319168252611461939250908990600401611c13565b6000604051808303816000875af1158015611480573d6000803e3d6000fd5b505050506040513d6000823e601f3d908101601f191682016040526114a89190810190611c49565b506001979650505050505050565b60408051600080825260208201909252610ffb90859085908590611680565b7f65599bf746e17a00ea62e3610586992d88101b78eec3cf380706621fb97ea837547fb969d79d88acd02d04ed7ee7d43b949e7daf093d363abcfbbc43dfdfd1ce969a546001600160a01b038116611359576001600160a01b03821661159a57826001600160a01b03166320bc44256040518163ffffffff1660e01b8152600401602060405180830381865afa158015611573573d6000803e3d6000fd5b505050506040513d601f19601f820116820180604052508101906115979190611ba0565b91505b604051635b69006f60e11b81527fa9214cc96615e0085d3bb077758db69497dc2dce3b2b1e97bc93c3d18d83efd360048201526001600160a01b0383169063b6d200de90602401602060405180830381865afa1580156115fe573d6000803e3d6000fd5b505050506040513d601f19601f820116820180604052508101906116229190611ba0565b9050817f65599bf746e17a00ea62e3610586992d88101b78eec3cf380706621fb97ea83755807fb969d79d88acd02d04ed7ee7d43b949e7daf093d363abcfbbc43dfdfd1ce969a556001600160a01b03821661136f5761136f611bbd565b600080600061168e876114d5565b91509150816001600160a01b03166339255d5b82836001600160a01b03166350209a628b8b8b600067ffffffffffffffff8111156113d8576113d8611a6e565b6040518060c001604052806006905b60408051606081018252600080825260208083018290529282015282526000199092019101816116dd5790505090565b6001600160a01b0381168114610b5757600080fd5b60006020828403121561173457600080fd5b813561173f8161170d565b9392505050565b81516001600160a01b0316815260208083015160ff169082015260408083015163ffffffff1690820152606081016104b3565b803560ff81168114610b1257600080fd5b60006020828403121561179c57600080fd5b61173f82611779565b6102408101818360005b60068110156117ff576117e983835180516001600160a01b0316825260208082015160ff169083015260409081015163ffffffff16910152565b60609290920191602091909101906001016117af565b50505092915050565b60006020828403121561181a57600080fd5b5035919050565b60008060006060848603121561183657600080fd5b61183f84611779565b9250602084013563ffffffff8116811461185857600080fd5b929592945050506040919091013590565b6000806040838503121561187c57600080fd5b82356118878161170d565b946020939093013593505050565b634e487b7160e01b600052601160045260246000fd5b600181815b808511156118e65781600019048211156118cc576118cc611895565b808516156118d957918102915b93841c93908002906118b0565b509250929050565b6000826118fd575060016104b3565b8161190a575060006104b3565b8160018114611920576002811461192a57611946565b60019150506104b3565b60ff84111561193b5761193b611895565b50506001821b6104b3565b5060208310610133831016604e8410600b8410161715611969575081810a6104b3565b61197383836118ab565b806000190482111561198757611987611895565b029392505050565b600061173f60ff8416836118ee565b6000826119bb57634e487b7160e01b600052601260045260246000fd5b500490565b6000600182016119d2576119d2611895565b5060010190565b634e487b7160e01b600052603260045260246000fd5b818103818111156104b3576104b3611895565b600063ffffffff808316818103611a1b57611a1b611895565b6001019392505050565b60ff81811683821601908111156104b3576104b3611895565b808201808211156104b3576104b3611895565b600060ff821680611a6457611a64611895565b6000190192915050565b634e487b7160e01b600052604160045260246000fd5b80820281158282048414176104b3576104b3611895565b60008060008060808587031215611ab157600080fd5b84519350602085015180600b0b8114611ac957600080fd5b6040860151606090960151949790965092505050565b60005b83811015611afa578181015183820152602001611ae2565b50506000910152565b60008151808452611b1b816020860160208601611adf565b601f01601f19169290920160200192915050565b60018060a01b0384168152826020820152606060408201526000610bad6060830184611b03565b6001600160a01b038516815260ff84166020820152608060408201819052600090611b8390830185611b03565b8281036060840152611b958185611b03565b979650505050505050565b600060208284031215611bb257600080fd5b815161173f8161170d565b634e487b7160e01b600052600160045260246000fd5b6001600160a01b03858116825284166020820152600b83900b6040820152608060608201819052600090611c0990830184611b03565b9695505050505050565b6001600160a01b0384168152606060208201819052600090611c3790830185611b03565b8281036040840152611c098185611b03565b600060208284031215611c5b57600080fd5b815167ffffffffffffffff80821115611c7357600080fd5b818401915084601f830112611c8757600080fd5b815181811115611c9957611c99611a6e565b604051601f8201601f19908116603f01168101908382118183101715611cc157611cc1611a6e565b81604052828152876020848701011115611cda57600080fd5b611b95836020830160208801611adf56fea26469706673582212209ba09074cc7b07585afc464cb1ba29dc080f7e4e55911a5487190e4c47029c1f64736f6c63430008130033",
    "linkReferences": {}
  },
  "methodIdentifiers": {
    "FIRST_ELEMENT_PROGRESSION()": "a2698fc0",
    "FLAT_COST_SPONSORSHIP()": "b132a50d",
    "MAX_SPONSORSHIP_LEVEL()": "b5c0b7eb",
    "MAX_SPONSORSHIP_PATH_OUTFLOW()": "f349f56a",
    "calculateSponsorAmount(uint8,uint32,uint256)": "b144a77b",
    "getAllocation(uint8)": "1c945f59",
    "getChainOfSponsors(address)": "21fb177a",
    "getFlowRateAmount(uint8)": "c41a4735",
    "getMaxFlowRateByLevel(uint8)": "da3a6a12",
    "getProtege(address)": "099e14ce",
    "getProtegeLevelWeight(uint8)": "78575643",
    "initialize(address)": "c4d66de8",
    "initializeProxy(address)": "4a0687ef",
    "isProtege(address)": "e4a472c8",
    "mint(uint256)": "a0712d68",
    "owner()": "8da5cb5b",
    "renounceOwnership()": "715018a6",
    "restartStream()": "57cf7acb",
    "sponsor(address)": "766c4f37",
    "transferOwnership(address)": "f2fde38b",
    "withdraw(address,uint256)": "f3fef3a3"
  },
  "id": 115
}