{
  "abi": [
    {
      "inputs": [
        {
          "internalType": "contract ISuperfluid",
          "name": "host",
          "type": "address"
        },
        {
          "internalType": "contract IConstantOutflowNFT",
          "name": "constantOutflowNFT",
          "type": "address"
        },
        {
          "internalType": "contract IConstantInflowNFT",
          "name": "constantInflowNFT",
          "type": "address"
        }
      ],
      "stateMutability": "nonpayable",
      "type": "constructor"
    },
    {
      "inputs": [],
      "name": "Initialized",
      "type": "error"
    },
    {
      "inputs": [],
      "name": "SF_TOKEN_AGREEMENT_ALREADY_EXISTS",
      "type": "error"
    },
    {
      "inputs": [],
      "name": "SF_TOKEN_AGREEMENT_DOES_NOT_EXIST",
      "type": "error"
    },
    {
      "inputs": [],
      "name": "SF_TOKEN_BURN_INSUFFICIENT_BALANCE",
      "type": "error"
    },
    {
      "inputs": [],
      "name": "SF_TOKEN_MOVE_INSUFFICIENT_BALANCE",
      "type": "error"
    },
    {
      "inputs": [],
      "name": "SF_TOKEN_ONLY_HOST",
      "type": "error"
    },
    {
      "inputs": [],
      "name": "SF_TOKEN_ONLY_LISTED_AGREEMENT",
      "type": "error"
    },
    {
      "inputs": [],
      "name": "SUPER_TOKEN_APPROVE_FROM_ZERO_ADDRESS",
      "type": "error"
    },
    {
      "inputs": [],
      "name": "SUPER_TOKEN_APPROVE_TO_ZERO_ADDRESS",
      "type": "error"
    },
    {
      "inputs": [],
      "name": "SUPER_TOKEN_BURN_FROM_ZERO_ADDRESS",
      "type": "error"
    },
    {
      "inputs": [],
      "name": "SUPER_TOKEN_CALLER_IS_NOT_OPERATOR_FOR_HOLDER",
      "type": "error"
    },
    {
      "inputs": [],
      "name": "SUPER_TOKEN_INFLATIONARY_DEFLATIONARY_NOT_SUPPORTED",
      "type": "error"
    },
    {
      "inputs": [],
      "name": "SUPER_TOKEN_MINT_TO_ZERO_ADDRESS",
      "type": "error"
    },
    {
      "inputs": [],
      "name": "SUPER_TOKEN_NFT_PROXY_ADDRESS_CHANGED",
      "type": "error"
    },
    {
      "inputs": [],
      "name": "SUPER_TOKEN_NOT_ERC777_TOKENS_RECIPIENT",
      "type": "error"
    },
    {
      "inputs": [],
      "name": "SUPER_TOKEN_NO_UNDERLYING_TOKEN",
      "type": "error"
    },
    {
      "inputs": [],
      "name": "SUPER_TOKEN_ONLY_GOV_OWNER",
      "type": "error"
    },
    {
      "inputs": [],
      "name": "SUPER_TOKEN_ONLY_HOST",
      "type": "error"
    },
    {
      "inputs": [],
      "name": "SUPER_TOKEN_ONLY_SELF",
      "type": "error"
    },
    {
      "inputs": [],
      "name": "SUPER_TOKEN_TRANSFER_FROM_ZERO_ADDRESS",
      "type": "error"
    },
    {
      "inputs": [],
      "name": "SUPER_TOKEN_TRANSFER_TO_ZERO_ADDRESS",
      "type": "error"
    },
    {
      "inputs": [],
      "name": "ZeroAddress",
      "type": "error"
    },
    {
      "anonymous": false,
      "inputs": [
        {
          "indexed": true,
          "internalType": "address",
          "name": "agreementClass",
          "type": "address"
        },
        {
          "indexed": false,
          "internalType": "bytes32",
          "name": "id",
          "type": "bytes32"
        },
        {
          "indexed": false,
          "internalType": "bytes32[]",
          "name": "data",
          "type": "bytes32[]"
        }
      ],
      "name": "AgreementCreated",
      "type": "event"
    },
    {
      "anonymous": false,
      "inputs": [
        {
          "indexed": true,
          "internalType": "address",
          "name": "agreementClass",
          "type": "address"
        },
        {
          "indexed": false,
          "internalType": "bytes32",
          "name": "id",
          "type": "bytes32"
        },
        {
          "indexed": true,
          "internalType": "address",
          "name": "penaltyAccount",
          "type": "address"
        },
        {
          "indexed": true,
          "internalType": "address",
          "name": "rewardAccount",
          "type": "address"
        },
        {
          "indexed": false,
          "internalType": "uint256",
          "name": "rewardAmount",
          "type": "uint256"
        }
      ],
      "name": "AgreementLiquidated",
      "type": "event"
    },
    {
      "anonymous": false,
      "inputs": [
        {
          "indexed": false,
          "internalType": "address",
          "name": "liquidatorAccount",
          "type": "address"
        },
        {
          "indexed": true,
          "internalType": "address",
          "name": "agreementClass",
          "type": "address"
        },
        {
          "indexed": false,
          "internalType": "bytes32",
          "name": "id",
          "type": "bytes32"
        },
        {
          "indexed": true,
          "internalType": "address",
          "name": "penaltyAccount",
          "type": "address"
        },
        {
          "indexed": true,
          "internalType": "address",
          "name": "bondAccount",
          "type": "address"
        },
        {
          "indexed": false,
          "internalType": "uint256",
          "name": "rewardAmount",
          "type": "uint256"
        },
        {
          "indexed": false,
          "internalType": "uint256",
          "name": "bailoutAmount",
          "type": "uint256"
        }
      ],
      "name": "AgreementLiquidatedBy",
      "type": "event"
    },
    {
      "anonymous": false,
      "inputs": [
        {
          "indexed": true,
          "internalType": "address",
          "name": "agreementClass",
          "type": "address"
        },
        {
          "indexed": false,
          "internalType": "bytes32",
          "name": "id",
          "type": "bytes32"
        },
        {
          "indexed": true,
          "internalType": "address",
          "name": "liquidatorAccount",
          "type": "address"
        },
        {
          "indexed": true,
          "internalType": "address",
          "name": "targetAccount",
          "type": "address"
        },
        {
          "indexed": false,
          "internalType": "address",
          "name": "rewardAmountReceiver",
          "type": "address"
        },
        {
          "indexed": false,
          "internalType": "uint256",
          "name": "rewardAmount",
          "type": "uint256"
        },
        {
          "indexed": false,
          "internalType": "int256",
          "name": "targetAccountBalanceDelta",
          "type": "int256"
        },
        {
          "indexed": false,
          "internalType": "bytes",
          "name": "liquidationTypeData",
          "type": "bytes"
        }
      ],
      "name": "AgreementLiquidatedV2",
      "type": "event"
    },
    {
      "anonymous": false,
      "inputs": [
        {
          "indexed": true,
          "internalType": "address",
          "name": "agreementClass",
          "type": "address"
        },
        {
          "indexed": true,
          "internalType": "address",
          "name": "account",
          "type": "address"
        },
        {
          "indexed": false,
          "internalType": "uint256",
          "name": "slotId",
          "type": "uint256"
        }
      ],
      "name": "AgreementStateUpdated",
      "type": "event"
    },
    {
      "anonymous": false,
      "inputs": [
        {
          "indexed": true,
          "internalType": "address",
          "name": "agreementClass",
          "type": "address"
        },
        {
          "indexed": false,
          "internalType": "bytes32",
          "name": "id",
          "type": "bytes32"
        }
      ],
      "name": "AgreementTerminated",
      "type": "event"
    },
    {
      "anonymous": false,
      "inputs": [
        {
          "indexed": true,
          "internalType": "address",
          "name": "agreementClass",
          "type": "address"
        },
        {
          "indexed": false,
          "internalType": "bytes32",
          "name": "id",
          "type": "bytes32"
        },
        {
          "indexed": false,
          "internalType": "bytes32[]",
          "name": "data",
          "type": "bytes32[]"
        }
      ],
      "name": "AgreementUpdated",
      "type": "event"
    },
    {
      "anonymous": false,
      "inputs": [
        {
          "indexed": true,
          "internalType": "address",
          "name": "owner",
          "type": "address"
        },
        {
          "indexed": true,
          "internalType": "address",
          "name": "spender",
          "type": "address"
        },
        {
          "indexed": false,
          "internalType": "uint256",
          "name": "value",
          "type": "uint256"
        }
      ],
      "name": "Approval",
      "type": "event"
    },
    {
      "anonymous": false,
      "inputs": [
        {
          "indexed": true,
          "internalType": "address",
          "name": "operator",
          "type": "address"
        },
        {
          "indexed": true,
          "internalType": "address",
          "name": "tokenHolder",
          "type": "address"
        }
      ],
      "name": "AuthorizedOperator",
      "type": "event"
    },
    {
      "anonymous": false,
      "inputs": [
        {
          "indexed": true,
          "internalType": "address",
          "name": "bailoutAccount",
          "type": "address"
        },
        {
          "indexed": false,
          "internalType": "uint256",
          "name": "bailoutAmount",
          "type": "uint256"
        }
      ],
      "name": "Bailout",
      "type": "event"
    },
    {
      "anonymous": false,
      "inputs": [
        {
          "indexed": true,
          "internalType": "address",
          "name": "operator",
          "type": "address"
        },
        {
          "indexed": true,
          "internalType": "address",
          "name": "from",
          "type": "address"
        },
        {
          "indexed": false,
          "internalType": "uint256",
          "name": "amount",
          "type": "uint256"
        },
        {
          "indexed": false,
          "internalType": "bytes",
          "name": "data",
          "type": "bytes"
        },
        {
          "indexed": false,
          "internalType": "bytes",
          "name": "operatorData",
          "type": "bytes"
        }
      ],
      "name": "Burned",
      "type": "event"
    },
    {
      "anonymous": false,
      "inputs": [
        {
          "indexed": true,
          "internalType": "contract IConstantInflowNFT",
          "name": "constantInflowNFT",
          "type": "address"
        }
      ],
      "name": "ConstantInflowNFTCreated",
      "type": "event"
    },
    {
      "anonymous": false,
      "inputs": [
        {
          "indexed": true,
          "internalType": "contract IConstantOutflowNFT",
          "name": "constantOutflowNFT",
          "type": "address"
        }
      ],
      "name": "ConstantOutflowNFTCreated",
      "type": "event"
    },
    {
      "anonymous": false,
      "inputs": [
        {
          "indexed": true,
          "internalType": "address",
          "name": "operator",
          "type": "address"
        },
        {
          "indexed": true,
          "internalType": "address",
          "name": "to",
          "type": "address"
        },
        {
          "indexed": false,
          "internalType": "uint256",
          "name": "amount",
          "type": "uint256"
        },
        {
          "indexed": false,
          "internalType": "bytes",
          "name": "data",
          "type": "bytes"
        },
        {
          "indexed": false,
          "internalType": "bytes",
          "name": "operatorData",
          "type": "bytes"
        }
      ],
      "name": "Minted",
      "type": "event"
    },
    {
      "anonymous": false,
      "inputs": [
        {
          "indexed": true,
          "internalType": "address",
          "name": "previousOwner",
          "type": "address"
        },
        {
          "indexed": true,
          "internalType": "address",
          "name": "newOwner",
          "type": "address"
        }
      ],
      "name": "OwnershipTransferred",
      "type": "event"
    },
    {
      "anonymous": false,
      "inputs": [
        {
          "indexed": true,
          "internalType": "address",
          "name": "sponsor",
          "type": "address"
        },
        {
          "indexed": true,
          "internalType": "address",
          "name": "protege",
          "type": "address"
        },
        {
          "indexed": false,
          "internalType": "uint8",
          "name": "level",
          "type": "uint8"
        },
        {
          "indexed": false,
          "internalType": "uint32",
          "name": "totalProtegeCount",
          "type": "uint32"
        },
        {
          "indexed": false,
          "internalType": "uint32",
          "name": "directTotalProtegeCount",
          "type": "uint32"
        }
      ],
      "name": "PROTEGE_UPDATED",
      "type": "event"
    },
    {
      "anonymous": false,
      "inputs": [
        {
          "indexed": true,
          "internalType": "address",
          "name": "operator",
          "type": "address"
        },
        {
          "indexed": true,
          "internalType": "address",
          "name": "tokenHolder",
          "type": "address"
        }
      ],
      "name": "RevokedOperator",
      "type": "event"
    },
    {
      "anonymous": false,
      "inputs": [
        {
          "indexed": true,
          "internalType": "address",
          "name": "operator",
          "type": "address"
        },
        {
          "indexed": true,
          "internalType": "address",
          "name": "from",
          "type": "address"
        },
        {
          "indexed": true,
          "internalType": "address",
          "name": "to",
          "type": "address"
        },
        {
          "indexed": false,
          "internalType": "uint256",
          "name": "amount",
          "type": "uint256"
        },
        {
          "indexed": false,
          "internalType": "bytes",
          "name": "data",
          "type": "bytes"
        },
        {
          "indexed": false,
          "internalType": "bytes",
          "name": "operatorData",
          "type": "bytes"
        }
      ],
      "name": "Sent",
      "type": "event"
    },
    {
      "anonymous": false,
      "inputs": [
        {
          "indexed": true,
          "internalType": "address",
          "name": "account",
          "type": "address"
        },
        {
          "indexed": false,
          "internalType": "uint256",
          "name": "amount",
          "type": "uint256"
        }
      ],
      "name": "TokenDowngraded",
      "type": "event"
    },
    {
      "anonymous": false,
      "inputs": [
        {
          "indexed": true,
          "internalType": "address",
          "name": "account",
          "type": "address"
        },
        {
          "indexed": false,
          "internalType": "uint256",
          "name": "amount",
          "type": "uint256"
        }
      ],
      "name": "TokenUpgraded",
      "type": "event"
    },
    {
      "anonymous": false,
      "inputs": [
        {
          "indexed": true,
          "internalType": "address",
          "name": "from",
          "type": "address"
        },
        {
          "indexed": true,
          "internalType": "address",
          "name": "to",
          "type": "address"
        },
        {
          "indexed": false,
          "internalType": "uint256",
          "name": "value",
          "type": "uint256"
        }
      ],
      "name": "Transfer",
      "type": "event"
    },
    {
      "stateMutability": "payable",
      "type": "fallback"
    },
    {
      "inputs": [],
      "name": "CONSTANT_INFLOW_NFT",
      "outputs": [
        {
          "internalType": "contract IConstantInflowNFT",
          "name": "",
          "type": "address"
        }
      ],
      "stateMutability": "view",
      "type": "function"
    },
    {
      "inputs": [],
      "name": "CONSTANT_OUTFLOW_NFT",
      "outputs": [
        {
          "internalType": "contract IConstantOutflowNFT",
          "name": "",
          "type": "address"
        }
      ],
      "stateMutability": "view",
      "type": "function"
    },
    {
      "inputs": [],
      "name": "FLAT_COST_SPONSORSHIP",
      "outputs": [
        {
          "internalType": "uint256",
          "name": "",
          "type": "uint256"
        }
      ],
      "stateMutability": "view",
      "type": "function"
    },
    {
      "inputs": [],
      "name": "MAX_SPONSORSHIP_LEVEL",
      "outputs": [
        {
          "internalType": "uint256",
          "name": "",
          "type": "uint256"
        }
      ],
      "stateMutability": "view",
      "type": "function"
    },
    {
      "inputs": [],
      "name": "MAX_SPONSORSHIP_PATH_OUTFLOW",
      "outputs": [
        {
          "internalType": "uint256",
          "name": "",
          "type": "uint256"
        }
      ],
      "stateMutability": "view",
      "type": "function"
    },
    {
      "inputs": [
        {
          "internalType": "string",
          "name": "clubName",
          "type": "string"
        },
        {
          "internalType": "string",
          "name": "clubSymbol",
          "type": "string"
        }
      ],
      "name": "_initialize",
      "outputs": [],
      "stateMutability": "nonpayable",
      "type": "function"
    },
    {
      "inputs": [
        {
          "internalType": "address",
          "name": "account",
          "type": "address"
        },
        {
          "internalType": "address",
          "name": "spender",
          "type": "address"
        }
      ],
      "name": "allowance",
      "outputs": [
        {
          "internalType": "uint256",
          "name": "",
          "type": "uint256"
        }
      ],
      "stateMutability": "view",
      "type": "function"
    },
    {
      "inputs": [
        {
          "internalType": "address",
          "name": "spender",
          "type": "address"
        },
        {
          "internalType": "uint256",
          "name": "amount",
          "type": "uint256"
        }
      ],
      "name": "approve",
      "outputs": [
        {
          "internalType": "bool",
          "name": "",
          "type": "bool"
        }
      ],
      "stateMutability": "nonpayable",
      "type": "function"
    },
    {
      "inputs": [
        {
          "internalType": "address",
          "name": "operator",
          "type": "address"
        }
      ],
      "name": "authorizeOperator",
      "outputs": [],
      "stateMutability": "nonpayable",
      "type": "function"
    },
    {
      "inputs": [
        {
          "internalType": "address",
          "name": "account",
          "type": "address"
        }
      ],
      "name": "balanceOf",
      "outputs": [
        {
          "internalType": "uint256",
          "name": "balance",
          "type": "uint256"
        }
      ],
      "stateMutability": "view",
      "type": "function"
    },
    {
      "inputs": [
        {
          "internalType": "uint256",
          "name": "amount",
          "type": "uint256"
        },
        {
          "internalType": "bytes",
          "name": "userData",
          "type": "bytes"
        }
      ],
      "name": "burn",
      "outputs": [],
      "stateMutability": "nonpayable",
      "type": "function"
    },
    {
      "inputs": [
        {
          "internalType": "uint32",
          "name": "totalProtegeCount",
          "type": "uint32"
        }
      ],
      "name": "calculateFlowRate",
      "outputs": [
        {
          "internalType": "int96",
          "name": "flowRate",
          "type": "int96"
        }
      ],
      "stateMutability": "pure",
      "type": "function"
    },
    {
      "inputs": [
        {
          "internalType": "bytes32",
          "name": "id",
          "type": "bytes32"
        },
        {
          "internalType": "bytes32[]",
          "name": "data",
          "type": "bytes32[]"
        }
      ],
      "name": "createAgreement",
      "outputs": [],
      "stateMutability": "nonpayable",
      "type": "function"
    },
    {
      "inputs": [],
      "name": "decimals",
      "outputs": [
        {
          "internalType": "uint8",
          "name": "",
          "type": "uint8"
        }
      ],
      "stateMutability": "pure",
      "type": "function"
    },
    {
      "inputs": [
        {
          "internalType": "address",
          "name": "spender",
          "type": "address"
        },
        {
          "internalType": "uint256",
          "name": "subtractedValue",
          "type": "uint256"
        }
      ],
      "name": "decreaseAllowance",
      "outputs": [
        {
          "internalType": "bool",
          "name": "",
          "type": "bool"
        }
      ],
      "stateMutability": "nonpayable",
      "type": "function"
    },
    {
      "inputs": [],
      "name": "defaultOperators",
      "outputs": [
        {
          "internalType": "address[]",
          "name": "",
          "type": "address[]"
        }
      ],
      "stateMutability": "view",
      "type": "function"
    },
    {
      "inputs": [
        {
          "internalType": "uint256",
          "name": "amount",
          "type": "uint256"
        }
      ],
      "name": "downgrade",
      "outputs": [],
      "stateMutability": "nonpayable",
      "type": "function"
    },
    {
      "inputs": [
        {
          "internalType": "address",
          "name": "to",
          "type": "address"
        },
        {
          "internalType": "uint256",
          "name": "amount",
          "type": "uint256"
        }
      ],
      "name": "downgradeTo",
      "outputs": [],
      "stateMutability": "nonpayable",
      "type": "function"
    },
    {
      "inputs": [
        {
          "internalType": "uint32",
          "name": "directProtegeCount",
          "type": "uint32"
        }
      ],
      "name": "fee",
      "outputs": [
        {
          "internalType": "uint256",
          "name": "feeAmount",
          "type": "uint256"
        }
      ],
      "stateMutability": "pure",
      "type": "function"
    },
    {
      "inputs": [
        {
          "internalType": "address",
          "name": "account",
          "type": "address"
        }
      ],
      "name": "getAccountActiveAgreements",
      "outputs": [
        {
          "internalType": "contract ISuperAgreement[]",
          "name": "",
          "type": "address[]"
        }
      ],
      "stateMutability": "view",
      "type": "function"
    },
    {
      "inputs": [
        {
          "internalType": "address",
          "name": "agreementClass",
          "type": "address"
        },
        {
          "internalType": "bytes32",
          "name": "id",
          "type": "bytes32"
        },
        {
          "internalType": "uint256",
          "name": "dataLength",
          "type": "uint256"
        }
      ],
      "name": "getAgreementData",
      "outputs": [
        {
          "internalType": "bytes32[]",
          "name": "data",
          "type": "bytes32[]"
        }
      ],
      "stateMutability": "view",
      "type": "function"
    },
    {
      "inputs": [
        {
          "internalType": "address",
          "name": "agreementClass",
          "type": "address"
        },
        {
          "internalType": "address",
          "name": "account",
          "type": "address"
        },
        {
          "internalType": "uint256",
          "name": "slotId",
          "type": "uint256"
        },
        {
          "internalType": "uint256",
          "name": "dataLength",
          "type": "uint256"
        }
      ],
      "name": "getAgreementStateSlot",
      "outputs": [
        {
          "internalType": "bytes32[]",
          "name": "slotData",
          "type": "bytes32[]"
        }
      ],
      "stateMutability": "view",
      "type": "function"
    },
    {
      "inputs": [
        {
          "internalType": "address",
          "name": "protege",
          "type": "address"
        }
      ],
      "name": "getChainOfSponsors",
      "outputs": [
        {
          "components": [
            {
              "internalType": "address",
              "name": "sponsor",
              "type": "address"
            },
            {
              "internalType": "uint8",
              "name": "level",
              "type": "uint8"
            },
            {
              "internalType": "uint32",
              "name": "totalProtegeCount",
              "type": "uint32"
            },
            {
              "internalType": "uint32",
              "name": "directTotalProtegeCount",
              "type": "uint32"
            },
            {
              "internalType": "int96",
              "name": "desiredFlowRate",
              "type": "int96"
            }
          ],
          "internalType": "struct SuperfluidClub.Protege[6]",
          "name": "sponsors",
          "type": "tuple[6]"
        }
      ],
      "stateMutability": "view",
      "type": "function"
    },
    {
      "inputs": [],
      "name": "getHost",
      "outputs": [
        {
          "internalType": "address",
          "name": "host",
          "type": "address"
        }
      ],
      "stateMutability": "view",
      "type": "function"
    },
    {
      "inputs": [
        {
          "internalType": "address",
          "name": "protege",
          "type": "address"
        }
      ],
      "name": "getProtege",
      "outputs": [
        {
          "components": [
            {
              "internalType": "address",
              "name": "sponsor",
              "type": "address"
            },
            {
              "internalType": "uint8",
              "name": "level",
              "type": "uint8"
            },
            {
              "internalType": "uint32",
              "name": "totalProtegeCount",
              "type": "uint32"
            },
            {
              "internalType": "uint32",
              "name": "directTotalProtegeCount",
              "type": "uint32"
            },
            {
              "internalType": "int96",
              "name": "desiredFlowRate",
              "type": "int96"
            }
          ],
          "internalType": "struct SuperfluidClub.Protege",
          "name": "",
          "type": "tuple"
        }
      ],
      "stateMutability": "view",
      "type": "function"
    },
    {
      "inputs": [],
      "name": "getUnderlyingToken",
      "outputs": [
        {
          "internalType": "address",
          "name": "",
          "type": "address"
        }
      ],
      "stateMutability": "view",
      "type": "function"
    },
    {
      "inputs": [],
      "name": "granularity",
      "outputs": [
        {
          "internalType": "uint256",
          "name": "",
          "type": "uint256"
        }
      ],
      "stateMutability": "pure",
      "type": "function"
    },
    {
      "inputs": [
        {
          "internalType": "address",
          "name": "spender",
          "type": "address"
        },
        {
          "internalType": "uint256",
          "name": "addedValue",
          "type": "uint256"
        }
      ],
      "name": "increaseAllowance",
      "outputs": [
        {
          "internalType": "bool",
          "name": "",
          "type": "bool"
        }
      ],
      "stateMutability": "nonpayable",
      "type": "function"
    },
    {
      "inputs": [
        {
          "internalType": "contract IERC20",
          "name": "underlyingToken",
          "type": "address"
        },
        {
          "internalType": "uint8",
          "name": "underlyingDecimals",
          "type": "uint8"
        },
        {
          "internalType": "string",
          "name": "n",
          "type": "string"
        },
        {
          "internalType": "string",
          "name": "s",
          "type": "string"
        }
      ],
      "name": "initialize",
      "outputs": [],
      "stateMutability": "nonpayable",
      "type": "function"
    },
    {
      "inputs": [
        {
          "internalType": "address",
          "name": "initialAddress",
          "type": "address"
        }
      ],
      "name": "initializeProxy",
      "outputs": [],
      "stateMutability": "nonpayable",
      "type": "function"
    },
    {
      "inputs": [
        {
          "internalType": "address",
          "name": "account",
          "type": "address"
        },
        {
          "internalType": "uint256",
          "name": "timestamp",
          "type": "uint256"
        }
      ],
      "name": "isAccountCritical",
      "outputs": [
        {
          "internalType": "bool",
          "name": "isCritical",
          "type": "bool"
        }
      ],
      "stateMutability": "view",
      "type": "function"
    },
    {
      "inputs": [
        {
          "internalType": "address",
          "name": "account",
          "type": "address"
        }
      ],
      "name": "isAccountCriticalNow",
      "outputs": [
        {
          "internalType": "bool",
          "name": "isCritical",
          "type": "bool"
        }
      ],
      "stateMutability": "view",
      "type": "function"
    },
    {
      "inputs": [
        {
          "internalType": "address",
          "name": "account",
          "type": "address"
        },
        {
          "internalType": "uint256",
          "name": "timestamp",
          "type": "uint256"
        }
      ],
      "name": "isAccountSolvent",
      "outputs": [
        {
          "internalType": "bool",
          "name": "isSolvent",
          "type": "bool"
        }
      ],
      "stateMutability": "view",
      "type": "function"
    },
    {
      "inputs": [
        {
          "internalType": "address",
          "name": "account",
          "type": "address"
        }
      ],
      "name": "isAccountSolventNow",
      "outputs": [
        {
          "internalType": "bool",
          "name": "isSolvent",
          "type": "bool"
        }
      ],
      "stateMutability": "view",
      "type": "function"
    },
    {
      "inputs": [
        {
          "internalType": "address",
          "name": "operator",
          "type": "address"
        },
        {
          "internalType": "address",
          "name": "tokenHolder",
          "type": "address"
        }
      ],
      "name": "isOperatorFor",
      "outputs": [
        {
          "internalType": "bool",
          "name": "",
          "type": "bool"
        }
      ],
      "stateMutability": "view",
      "type": "function"
    },
    {
      "inputs": [
        {
          "internalType": "address",
          "name": "protege",
          "type": "address"
        }
      ],
      "name": "isProtege",
      "outputs": [
        {
          "internalType": "bool",
          "name": "",
          "type": "bool"
        }
      ],
      "stateMutability": "view",
      "type": "function"
    },
    {
      "inputs": [
        {
          "internalType": "bytes32",
          "name": "id",
          "type": "bytes32"
        },
        {
          "internalType": "bytes",
          "name": "liquidationTypeData",
          "type": "bytes"
        },
        {
          "internalType": "address",
          "name": "liquidatorAccount",
          "type": "address"
        },
        {
          "internalType": "bool",
          "name": "useDefaultRewardAccount",
          "type": "bool"
        },
        {
          "internalType": "address",
          "name": "targetAccount",
          "type": "address"
        },
        {
          "internalType": "uint256",
          "name": "rewardAmount",
          "type": "uint256"
        },
        {
          "internalType": "int256",
          "name": "targetAccountBalanceDelta",
          "type": "int256"
        }
      ],
      "name": "makeLiquidationPayoutsV2",
      "outputs": [],
      "stateMutability": "nonpayable",
      "type": "function"
    },
    {
      "inputs": [
        {
          "internalType": "uint256",
          "name": "amount",
          "type": "uint256"
        }
      ],
      "name": "mint",
      "outputs": [],
      "stateMutability": "nonpayable",
      "type": "function"
    },
    {
      "inputs": [],
      "name": "name",
      "outputs": [
        {
          "internalType": "string",
          "name": "",
          "type": "string"
        }
      ],
      "stateMutability": "view",
      "type": "function"
    },
    {
      "inputs": [
        {
          "internalType": "address",
          "name": "account",
          "type": "address"
        },
        {
          "internalType": "address",
          "name": "spender",
          "type": "address"
        },
        {
          "internalType": "uint256",
          "name": "amount",
          "type": "uint256"
        }
      ],
      "name": "operationApprove",
      "outputs": [],
      "stateMutability": "nonpayable",
      "type": "function"
    },
    {
      "inputs": [
        {
          "internalType": "address",
          "name": "account",
          "type": "address"
        },
        {
          "internalType": "address",
          "name": "spender",
          "type": "address"
        },
        {
          "internalType": "uint256",
          "name": "subtractedValue",
          "type": "uint256"
        }
      ],
      "name": "operationDecreaseAllowance",
      "outputs": [],
      "stateMutability": "nonpayable",
      "type": "function"
    },
    {
      "inputs": [
        {
          "internalType": "address",
          "name": "account",
          "type": "address"
        },
        {
          "internalType": "uint256",
          "name": "amount",
          "type": "uint256"
        }
      ],
      "name": "operationDowngrade",
      "outputs": [],
      "stateMutability": "nonpayable",
      "type": "function"
    },
    {
      "inputs": [
        {
          "internalType": "address",
          "name": "account",
          "type": "address"
        },
        {
          "internalType": "address",
          "name": "spender",
          "type": "address"
        },
        {
          "internalType": "uint256",
          "name": "addedValue",
          "type": "uint256"
        }
      ],
      "name": "operationIncreaseAllowance",
      "outputs": [],
      "stateMutability": "nonpayable",
      "type": "function"
    },
    {
      "inputs": [
        {
          "internalType": "address",
          "name": "spender",
          "type": "address"
        },
        {
          "internalType": "address",
          "name": "recipient",
          "type": "address"
        },
        {
          "internalType": "uint256",
          "name": "amount",
          "type": "uint256"
        },
        {
          "internalType": "bytes",
          "name": "userData",
          "type": "bytes"
        }
      ],
      "name": "operationSend",
      "outputs": [],
      "stateMutability": "nonpayable",
      "type": "function"
    },
    {
      "inputs": [
        {
          "internalType": "address",
          "name": "account",
          "type": "address"
        },
        {
          "internalType": "address",
          "name": "spender",
          "type": "address"
        },
        {
          "internalType": "address",
          "name": "recipient",
          "type": "address"
        },
        {
          "internalType": "uint256",
          "name": "amount",
          "type": "uint256"
        }
      ],
      "name": "operationTransferFrom",
      "outputs": [],
      "stateMutability": "nonpayable",
      "type": "function"
    },
    {
      "inputs": [
        {
          "internalType": "address",
          "name": "account",
          "type": "address"
        },
        {
          "internalType": "uint256",
          "name": "amount",
          "type": "uint256"
        }
      ],
      "name": "operationUpgrade",
      "outputs": [],
      "stateMutability": "nonpayable",
      "type": "function"
    },
    {
      "inputs": [
        {
          "internalType": "address",
          "name": "account",
          "type": "address"
        },
        {
          "internalType": "uint256",
          "name": "amount",
          "type": "uint256"
        },
        {
          "internalType": "bytes",
          "name": "userData",
          "type": "bytes"
        },
        {
          "internalType": "bytes",
          "name": "operatorData",
          "type": "bytes"
        }
      ],
      "name": "operatorBurn",
      "outputs": [],
      "stateMutability": "nonpayable",
      "type": "function"
    },
    {
      "inputs": [
        {
          "internalType": "address",
          "name": "sender",
          "type": "address"
        },
        {
          "internalType": "address",
          "name": "recipient",
          "type": "address"
        },
        {
          "internalType": "uint256",
          "name": "amount",
          "type": "uint256"
        },
        {
          "internalType": "bytes",
          "name": "userData",
          "type": "bytes"
        },
        {
          "internalType": "bytes",
          "name": "operatorData",
          "type": "bytes"
        }
      ],
      "name": "operatorSend",
      "outputs": [],
      "stateMutability": "nonpayable",
      "type": "function"
    },
    {
      "inputs": [],
      "name": "owner",
      "outputs": [
        {
          "internalType": "address",
          "name": "",
          "type": "address"
        }
      ],
      "stateMutability": "view",
      "type": "function"
    },
    {
      "inputs": [
        {
          "internalType": "address",
          "name": "account",
          "type": "address"
        },
        {
          "internalType": "uint256",
          "name": "timestamp",
          "type": "uint256"
        }
      ],
      "name": "realtimeBalanceOf",
      "outputs": [
        {
          "internalType": "int256",
          "name": "availableBalance",
          "type": "int256"
        },
        {
          "internalType": "uint256",
          "name": "deposit",
          "type": "uint256"
        },
        {
          "internalType": "uint256",
          "name": "owedDeposit",
          "type": "uint256"
        }
      ],
      "stateMutability": "view",
      "type": "function"
    },
    {
      "inputs": [
        {
          "internalType": "address",
          "name": "account",
          "type": "address"
        }
      ],
      "name": "realtimeBalanceOfNow",
      "outputs": [
        {
          "internalType": "int256",
          "name": "availableBalance",
          "type": "int256"
        },
        {
          "internalType": "uint256",
          "name": "deposit",
          "type": "uint256"
        },
        {
          "internalType": "uint256",
          "name": "owedDeposit",
          "type": "uint256"
        },
        {
          "internalType": "uint256",
          "name": "timestamp",
          "type": "uint256"
        }
      ],
      "stateMutability": "view",
      "type": "function"
    },
    {
      "inputs": [
        {
          "internalType": "address",
          "name": "oldProtege",
          "type": "address"
        }
      ],
      "name": "remove",
      "outputs": [],
      "stateMutability": "nonpayable",
      "type": "function"
    },
    {
      "inputs": [],
      "name": "renounceOwnership",
      "outputs": [],
      "stateMutability": "nonpayable",
      "type": "function"
    },
    {
      "inputs": [],
      "name": "restartStream",
      "outputs": [],
      "stateMutability": "nonpayable",
      "type": "function"
    },
    {
      "inputs": [
        {
          "internalType": "address",
          "name": "operator",
          "type": "address"
        }
      ],
      "name": "revokeOperator",
      "outputs": [],
      "stateMutability": "nonpayable",
      "type": "function"
    },
    {
      "inputs": [
        {
          "internalType": "address",
          "name": "account",
          "type": "address"
        },
        {
          "internalType": "address",
          "name": "spender",
          "type": "address"
        },
        {
          "internalType": "uint256",
          "name": "amount",
          "type": "uint256"
        }
      ],
      "name": "selfApproveFor",
      "outputs": [],
      "stateMutability": "nonpayable",
      "type": "function"
    },
    {
      "inputs": [
        {
          "internalType": "address",
          "name": "account",
          "type": "address"
        },
        {
          "internalType": "uint256",
          "name": "amount",
          "type": "uint256"
        },
        {
          "internalType": "bytes",
          "name": "userData",
          "type": "bytes"
        }
      ],
      "name": "selfBurn",
      "outputs": [],
      "stateMutability": "nonpayable",
      "type": "function"
    },
    {
      "inputs": [
        {
          "internalType": "address",
          "name": "account",
          "type": "address"
        },
        {
          "internalType": "uint256",
          "name": "amount",
          "type": "uint256"
        },
        {
          "internalType": "bytes",
          "name": "userData",
          "type": "bytes"
        }
      ],
      "name": "selfMint",
      "outputs": [],
      "stateMutability": "nonpayable",
      "type": "function"
    },
    {
      "inputs": [
        {
          "internalType": "address",
          "name": "holder",
          "type": "address"
        },
        {
          "internalType": "address",
          "name": "spender",
          "type": "address"
        },
        {
          "internalType": "address",
          "name": "recipient",
          "type": "address"
        },
        {
          "internalType": "uint256",
          "name": "amount",
          "type": "uint256"
        }
      ],
      "name": "selfTransferFrom",
      "outputs": [],
      "stateMutability": "nonpayable",
      "type": "function"
    },
    {
      "inputs": [
        {
          "internalType": "address",
          "name": "recipient",
          "type": "address"
        },
        {
          "internalType": "uint256",
          "name": "amount",
          "type": "uint256"
        },
        {
          "internalType": "bytes",
          "name": "userData",
          "type": "bytes"
        }
      ],
      "name": "send",
      "outputs": [],
      "stateMutability": "nonpayable",
      "type": "function"
    },
    {
      "inputs": [
        {
          "internalType": "address",
          "name": "account",
          "type": "address"
        },
        {
          "internalType": "int256",
          "name": "delta",
          "type": "int256"
        }
      ],
      "name": "settleBalance",
      "outputs": [],
      "stateMutability": "nonpayable",
      "type": "function"
    },
    {
      "inputs": [
        {
          "internalType": "address payable",
          "name": "newProtege",
          "type": "address"
        }
      ],
      "name": "sponsor",
      "outputs": [],
      "stateMutability": "payable",
      "type": "function"
    },
    {
      "inputs": [],
      "name": "symbol",
      "outputs": [
        {
          "internalType": "string",
          "name": "",
          "type": "string"
        }
      ],
      "stateMutability": "view",
      "type": "function"
    },
    {
      "inputs": [
        {
          "internalType": "bytes32",
          "name": "id",
          "type": "bytes32"
        },
        {
          "internalType": "uint256",
          "name": "dataLength",
          "type": "uint256"
        }
      ],
      "name": "terminateAgreement",
      "outputs": [],
      "stateMutability": "nonpayable",
      "type": "function"
    },
    {
      "inputs": [],
      "name": "totalSupply",
      "outputs": [
        {
          "internalType": "uint256",
          "name": "",
          "type": "uint256"
        }
      ],
      "stateMutability": "view",
      "type": "function"
    },
    {
      "inputs": [
        {
          "internalType": "address",
          "name": "recipient",
          "type": "address"
        },
        {
          "internalType": "uint256",
          "name": "amount",
          "type": "uint256"
        }
      ],
      "name": "transfer",
      "outputs": [
        {
          "internalType": "bool",
          "name": "",
          "type": "bool"
        }
      ],
      "stateMutability": "nonpayable",
      "type": "function"
    },
    {
      "inputs": [
        {
          "internalType": "address",
          "name": "recipient",
          "type": "address"
        }
      ],
      "name": "transferAll",
      "outputs": [],
      "stateMutability": "nonpayable",
      "type": "function"
    },
    {
      "inputs": [
        {
          "internalType": "address",
          "name": "holder",
          "type": "address"
        },
        {
          "internalType": "address",
          "name": "recipient",
          "type": "address"
        },
        {
          "internalType": "uint256",
          "name": "amount",
          "type": "uint256"
        }
      ],
      "name": "transferFrom",
      "outputs": [
        {
          "internalType": "bool",
          "name": "",
          "type": "bool"
        }
      ],
      "stateMutability": "nonpayable",
      "type": "function"
    },
    {
      "inputs": [
        {
          "internalType": "address",
          "name": "newOwner",
          "type": "address"
        }
      ],
      "name": "transferOwnership",
      "outputs": [],
      "stateMutability": "nonpayable",
      "type": "function"
    },
    {
      "inputs": [
        {
          "internalType": "bytes32",
          "name": "id",
          "type": "bytes32"
        },
        {
          "internalType": "bytes32[]",
          "name": "data",
          "type": "bytes32[]"
        }
      ],
      "name": "updateAgreementData",
      "outputs": [],
      "stateMutability": "nonpayable",
      "type": "function"
    },
    {
      "inputs": [
        {
          "internalType": "address",
          "name": "account",
          "type": "address"
        },
        {
          "internalType": "uint256",
          "name": "slotId",
          "type": "uint256"
        },
        {
          "internalType": "bytes32[]",
          "name": "slotData",
          "type": "bytes32[]"
        }
      ],
      "name": "updateAgreementStateSlot",
      "outputs": [],
      "stateMutability": "nonpayable",
      "type": "function"
    },
    {
      "inputs": [
        {
          "internalType": "uint256",
          "name": "amount",
          "type": "uint256"
        }
      ],
      "name": "upgrade",
      "outputs": [],
      "stateMutability": "nonpayable",
      "type": "function"
    },
    {
      "inputs": [
        {
          "internalType": "address",
          "name": "to",
          "type": "address"
        },
        {
          "internalType": "uint256",
          "name": "amount",
          "type": "uint256"
        },
        {
          "internalType": "bytes",
          "name": "userData",
          "type": "bytes"
        }
      ],
      "name": "upgradeTo",
      "outputs": [],
      "stateMutability": "nonpayable",
      "type": "function"
    },
    {
      "inputs": [
        {
          "internalType": "address",
          "name": "receiver",
          "type": "address"
        },
        {
          "internalType": "uint256",
          "name": "amount",
          "type": "uint256"
        }
      ],
      "name": "withdraw",
      "outputs": [],
      "stateMutability": "nonpayable",
      "type": "function"
    },
    {
      "stateMutability": "payable",
      "type": "receive"
    }
  ],
  "bytecode": {
    "object": "0x60e06040523480156200001157600080fd5b506040516200673438038062006734833981016040819052620000349162000149565b6001600160a01b0380841660805280831660a081905290821660c052604051849184918491907fcf554eb342edf010a94e07701ae91e99e90b769f649f03aeb1153654ddd43c0190600090a26040516001600160a01b038216907f8837af285f4d380af9227df9ebafa13d992b487fa6d7a4366bd4154576085b8990600090a2505050620000d1620000cb620000da60201b60201c565b620000de565b5050506200019d565b3390565b601f80546001600160a01b038381166001600160a01b0319831681179093556040519116919082907f8be0079c531659141344cd1fd0a4f28419497f9722a3daafe3b4186f6b6457e090600090a35050565b6001600160a01b03811681146200014657600080fd5b50565b6000806000606084860312156200015f57600080fd5b83516200016c8162000130565b60208501519093506200017f8162000130565b6040850151909250620001928162000130565b809150509250925092565b60805160a05160c0516164f06200024460003960006108d601526000610df0015260008181610676015281816112c701528181611336015281816116b301528181611a9c01528181611b6b01528181611e2e01528181611fb6015281816126de01528181612b2601528181612bf001528181612c8801528181612cf001528181612d7801528181613720015281816137b701528181614b750152614db401526164f06000f3fe6080604052600436106104355760003560e01c8063766c4f3711610229578063bb0d196e1161012e578063e4a472c8116100b6578063f349f56a1161007a578063f349f56a14610e32578063f3fef3a314610e4f578063fad8b32a14610e6f578063fc673c4f14610e8f578063fe9d930314610eaf5761043c565b8063e4a472c814610d65578063eb3537cc14610d85578063ee719bc814610dc0578063ef43d2c614610dde578063f2fde38b14610e125761043c565b8063ca789464116100fd578063ca78946414610c9f578063cf97256d14610cbf578063d95b637114610cdf578063d9d078d614610cff578063dd62ed3e14610d1f5761043c565b8063bb0d196e14610c1f578063c68d428314610c3f578063c780fd8214610c5f578063ca0c1e7f14610c7f5761043c565b80639d876741116101b1578063a457c2d711610180578063a457c2d714610b8f578063a9059cbb14610baf578063b132a50d14610bcf578063b5c0b7eb14610bea578063b84cdd4a14610bff5761043c565b80639d87674114610b0f578063a0712d6814610b2f578063a1b2bf8b14610b4f578063a3a7e7f314610b6f5761043c565b80638934c79a116101f85780638934c79a14610a7c5780638da5cb5b14610a9c578063959b8c3f14610aba57806395d89b4114610ada5780639bd9bbc614610aef5761043c565b8063766c4f37146109f657806379359f6f14610a095780637ae058dc14610a2957806383ba252514610a5c5761043c565b8063313ce5671161033a5780634c5c0c85116102c257806362ad1b831161028657806362ad1b831461096157806366a12fb6146109815780636c2d9f2f146109a157806370a08231146109c1578063715018a6146109e15761043c565b80634c5c0c85146108c4578063556f0dc7146108f857806357cf7acb1461090c5780635b9d09cc1461092157806362aa5287146109415761043c565b806342fe09801161030957806342fe09801461081757806345977d03146108375780634a0687ef146108575780634b2763b3146108775780634b61cc33146108975761043c565b8063313ce5671461079b578063386fa221146107b757806339509351146107d757806341b706be146107f75761043c565b806318160ddd116103bd57806323b872dd1161038c57806323b872dd146106db578063245887fc146106fb578063270483971461071b57806329092d0e1461073b5780632ec8eec71461075b5761043c565b806318160ddd146106285780631863e8091461064757806320bc44251461066757806321fb177a146106ae5761043c565b8063098dce1311610404578063098dce13146104e3578063099e14ce1461050357806311bcc81e146105c857806312a6a3f8146105e857806316d055d6146106085761043c565b806306e485381461044657806306fdde0314610471578063090c415e14610493578063095ea7b3146104b35761043c565b3661043c57005b610444610ecf565b005b34801561045257600080fd5b5061045b610f01565b6040516104689190615213565b60405180910390f35b34801561047d57600080fd5b50610486610f12565b60405161046891906152b0565b34801561049f57600080fd5b506104446104ae366004615323565b610fa4565b3480156104bf57600080fd5b506104d36104ce36600461537e565b611057565b6040519015158152602001610468565b3480156104ef57600080fd5b506104446104fe3660046153eb565b61106e565b34801561050f57600080fd5b506105bb61051e36600461544a565b6040805160a081018252600080825260208201819052918101829052606081018290526080810191909152506001600160a01b0390811660009081526020808052604091829020825160a0810184528154948516815260ff600160a01b8604169281019290925263ffffffff600160a81b8504811693830193909352600160c81b9093049091166060820152600190910154600b0b608082015290565b60405161046891906154b1565b3480156105d457600080fd5b506104446105e33660046154bf565b6111b3565b3480156105f457600080fd5b506104446106033660046154d8565b6111e2565b34801561061457600080fd5b50610444610623366004615523565b6112c5565b34801561063457600080fd5b506002545b604051908152602001610468565b34801561065357600080fd5b50610444610662366004615645565b611321565b34801561067357600080fd5b507f00000000000000000000000000000000000000000000000000000000000000005b6040516001600160a01b039091168152602001610468565b3480156106ba57600080fd5b506106ce6106c936600461544a565b6115c1565b60405161046891906156d7565b3480156106e757600080fd5b506104d36106f6366004615714565b61169b565b34801561070757600080fd5b5061044461071636600461537e565b6116b1565b34801561072757600080fd5b50610444610736366004615755565b61172a565b34801561074757600080fd5b5061044461075636600461544a565b6117c6565b34801561076757600080fd5b5061077b61077636600461544a565b611a94565b604080519485526020850193909352918301526060820152608001610468565b3480156107a757600080fd5b5060405160128152602001610468565b3480156107c357600080fd5b5061045b6107d236600461544a565b611b37565b3480156107e357600080fd5b506104d36107f236600461537e565b611bda565b34801561080357600080fd5b50610444610812366004615523565b611c16565b34801561082357600080fd5b50610444610832366004615777565b611c42565b34801561084357600080fd5b506104446108523660046154bf565b611d64565b34801561086357600080fd5b5061044461087236600461544a565b611d90565b34801561088357600080fd5b50610444610892366004615714565b611e2c565b3480156108a357600080fd5b506108b76108b2366004615811565b611eb3565b6040516104689190615857565b3480156108d057600080fd5b506106967f000000000000000000000000000000000000000000000000000000000000000081565b34801561090457600080fd5b506001610639565b34801561091857600080fd5b50610444611ef8565b34801561092d57600080fd5b5061044461093c36600461588f565b611f5d565b34801561094d57600080fd5b5061044461095c366004615714565b611fb4565b34801561096d57600080fd5b5061044461097c3660046158de565b612008565b34801561098d57600080fd5b5061044461099c366004615714565b6120ac565b3480156109ad57600080fd5b506108b76109bc36600461597c565b6120cc565b3480156109cd57600080fd5b506106396109dc36600461544a565b61210e565b3480156109ed57600080fd5b50610444612137565b610444610a0436600461544a565b612149565b348015610a1557600080fd5b506104d3610a2436600461544a565b6126d6565b348015610a3557600080fd5b50610a49610a443660046159b1565b61275e565b604051600b9190910b8152602001610468565b348015610a6857600080fd5b50610444610a7736600461537e565b612781565b348015610a8857600080fd5b50610639610a973660046159b1565b6127ad565b348015610aa857600080fd5b50601f546001600160a01b0316610696565b348015610ac657600080fd5b50610444610ad536600461544a565b61284e565b348015610ae657600080fd5b5061048661289f565b348015610afb57600080fd5b50610444610b0a36600461588f565b6128ae565b348015610b1b57600080fd5b50610444610b2a3660046159d7565b612902565b348015610b3b57600080fd5b50610444610b4a3660046154bf565b612948565b348015610b5b57600080fd5b50610444610b6a3660046154d8565b6129b2565b348015610b7b57600080fd5b50610444610b8a36600461544a565b612a5c565b348015610b9b57600080fd5b506104d3610baa36600461537e565b612a70565b348015610bbb57600080fd5b506104d3610bca36600461537e565b612abf565b348015610bdb57600080fd5b50610639662386f26fc1000081565b348015610bf657600080fd5b50610639600681565b348015610c0b57600080fd5b506104d3610c1a36600461537e565b612acd565b348015610c2b57600080fd5b506104d3610c3a36600461544a565b612b1e565b348015610c4b57600080fd5b50610444610c5a3660046159d7565b612ba6565b348015610c6b57600080fd5b50610444610c7a366004615714565b612bee565b348015610c8b57600080fd5b50610444610c9a366004615a2f565b612c86565b348015610cab57600080fd5b50610444610cba36600461537e565b612cee565b348015610ccb57600080fd5b50610444610cda36600461537e565b612d63565b348015610ceb57600080fd5b506104d3610cfa366004615a9a565b612e4c565b348015610d0b57600080fd5b506104d3610d1a36600461537e565b612e5a565b348015610d2b57600080fd5b50610639610d3a366004615a9a565b6001600160a01b03918216600090815260106020908152604080832093909416825291909152205490565b348015610d7157600080fd5b506104d3610d8036600461544a565b612e74565b348015610d9157600080fd5b50610da5610da036600461537e565b612e93565b60408051938452602084019290925290820152606001610468565b348015610dcc57600080fd5b50600d546001600160a01b0316610696565b348015610dea57600080fd5b506106967f000000000000000000000000000000000000000000000000000000000000000081565b348015610e1e57600080fd5b50610444610e2d36600461544a565b612fcd565b348015610e3e57600080fd5b5061063968270801d946c940000081565b348015610e5b57600080fd5b50610444610e6a36600461537e565b613034565b348015610e7b57600080fd5b50610444610e8a36600461544a565b613141565b348015610e9b57600080fd5b50610444610eaa366004615ad3565b613192565b348015610ebb57600080fd5b50610444610eca366004615b1a565b613233565b610eff610efa7f360894a13ba1a3210667c828492db98dca3e2076cc3735a920a3ca505d382bbc5490565b613284565b565b6060610f0d60116132a8565b905090565b6060600e8054610f2190615b58565b80601f0160208091040260200160405190810160405280929190818152602001828054610f4d90615b58565b8015610f9a5780601f10610f6f57610100808354040283529160200191610f9a565b820191906000526020600020905b815481529060010190602001808311610f7d57829003601f168201915b5050505050905090565b6000338585604051602001610fbb93929190615b92565b6040516020818303038152906040528051906020012090506110108184848080602002602001604051908101604052809392919081815260200183836020028082843760009201919091525061330e92505050565b6040518481526001600160a01b0386169033907f30f416fa68fca014a0f334464c64b000ba53e99b6d2afdea9d5ca756372d59859060200160405180910390a35050505050565b600061106433848461334f565b5060015b92915050565b601f54600160a01b900460ff16156110c35760405162461bcd60e51b8152602060048201526013602482015272105b1c9958591e481a5b9a5d1a585b1a5e9959606a1b60448201526064015b60405180910390fd5b601f805460ff60a01b1916600160a01b1790556040516285fc1360e71b815230906342fe0980906111039060009081908990899089908990600401615c04565b600060405180830381600087803b15801561111d57600080fd5b505af1158015611131573d6000803e3d6000fd5b50506040805160008152602081019182905263c68d428360e01b90915230925063c68d4283915061117b908390710125dfa371a19e6f7cb54395ca00000000009060248101615c52565b600060405180830381600087803b15801561119557600080fd5b505af11580156111a9573d6000803e3d6000fd5b5050505050505050565b6111df3333338460405180602001604052806000815250604051806020016040528060008152506133ff565b50565b60405133906000906111fa9083908790602001615c79565b60408051601f198184030181529190528051602090910120905061121e81846135bf565b1561123c5760405163782a90fb60e11b815260040160405180910390fd5b6112798185858080602002602001604051908101604052809392919081815260200183836020028082843760009201919091525061330e92505050565b816001600160a01b03167f770ea40a13a4644573ed785e5c7116890709947918747febc5add46feb531e2d8686866040516112b693929190615cb6565b60405180910390a25050505050565b7f00000000000000000000000000000000000000000000000000000000000000006001600160a01b0316331461130e5760405163c51efddd60e01b815260040160405180910390fd5b61131a848484846135fb565b5050505050565b604051632329212160e21b81523360048201527f00000000000000000000000000000000000000000000000000000000000000006001600160a01b031690638ca4848490602401602060405180830381865afa158015611385573d6000803e3d6000fd5b505050506040513d601f19601f820116820180604052508101906113a99190615cf7565b6113c65760405163327fd99160e21b815260040160405180910390fd5b60006113d061371b565b90506001600160a01b0381166113e35750845b6000856113f057866113f2565b815b90506000831361148f5761140583615d2a565b61140e85613860565b1461141b5761141b615d46565b61142484613860565b6001600160a01b0382166000908152600160205260408120805490919061144c908490615d5c565b90915550506001600160a01b03851660009081526001602052604081208054859290611479908490615d5c565b9091555061148a90508582866138ce565b611559565b851561149d5761149d615d46565b826114a785613860565b6114b19190615d5c565b6001600160a01b038316600090815260016020526040812080549091906114d9908490615d84565b909155506114e8905084613860565b6001600160a01b03881660009081526001602052604081208054909190611510908490615d5c565b90915550506001600160a01b0385166000908152600160205260408120805485929061153d908490615d5c565b9091555061154e90508288866138ce565b6115598286856138ce565b846001600160a01b0316876001600160a01b0316336001600160a01b03167fb8381a3ce157650e06186e3e8f4dd4dc29236f2688b6eed1893d0a60d7c6386f8c8589898f6040516115ae959493929190615da4565b60405180910390a4505050505050505050565b6115c96151c6565b8160005b6115d682612e74565b15611694576001600160a01b0380831660009081526020808052604091829020825160a0810184528154948516815260ff600160a01b8604169281019290925263ffffffff600160a81b8504811693830193909352600160c81b9093049091166060820152600190910154600b0b6080820152838261165481615dd7565b93506006811061166657611666615df0565b602090810291909101919091526001600160a01b0392831660009081529080526040902054909116906115cd565b5050919050565b60006116a9338585856135fb565b949350505050565b7f00000000000000000000000000000000000000000000000000000000000000006001600160a01b031633146116fa5760405163c51efddd60e01b815260040160405180910390fd5b6117263383848460405180602001604052806000815250604051806020016040528060008152506133ff565b5050565b60405133906000906117429083908690602001615c79565b60405160208183030381529060405280519060200120905061176481846135bf565b6117815760405163dae1880960e01b815260040160405180910390fd5b61178b8184613901565b60405184815233907f71a63dc095de07aa5512ad57a7596a39516317e316981a1cd71000057be1537b9060200160405180910390a250505050565b6117cf81612e74565b61180c5760405162461bcd60e51b815260206004820152600e60248201526d4e6f7420612070726f746567652160901b60448201526064016110ba565b6000611820601f546001600160a01b031690565b6001600160a01b0316336001600160a01b03161461183e5733611840565b305b6001600160a01b03808416600081815260208080526040808320815160a0810183528154968716815260ff600160a01b8804168185015263ffffffff600160a81b8804811693820193909352600160c81b870483166060820152600182018054600b81900b60808401529686529380526001600160e81b031990961690556bffffffffffffffffffffffff1990931690559293509091906118e79030908190879061392216565b600b0b13156118fd576118fb3080856139ba565b505b30600090815260208052604090208054600160a81b900463ffffffff1690601561192683615e06565b82546101009290920a63ffffffff81810219909316918316021790915582516001600160a01b0316600090815260208052604090208054600160c81b90049091169150601961197483615e06565b82546101009290920a63ffffffff8181021990931691831602179091556001600160a01b03841660009081526020805260409020548351600160a81b90910490911691505b6119c281612e74565b1561131a576001600160a01b038116600090815260208052604090208054600160a81b900463ffffffff168160156119f983615e06565b91906101000a81548163ffffffff021916908363ffffffff16021790555050611a218361275e565b600182018054600090611a38908490600b0b615e26565b82546001600160601b039182166101009390930a9283029190920219909116179055506001810154600b0b600003611a7b57611a753083886139ba565b50611a8e565b6001810154611a8e908390600b0b6139d9565b506119b9565b6000806000807f00000000000000000000000000000000000000000000000000000000000000006001600160a01b031663bbe4fd506040518163ffffffff1660e01b8152600401602060405180830381865afa158015611af8573d6000803e3d6000fd5b505050506040513d601f19601f82011682018060405250810190611b1c9190615e58565b9050611b288582612e93565b91979096509094509092509050565b6001600160a01b038181166000908152602081905260409081902054905163c56a069d60e01b8152901960048201526060917f0000000000000000000000000000000000000000000000000000000000000000169063c56a069d90602401600060405180830381865afa158015611bb2573d6000803e3d6000fd5b505050506040513d6000823e601f3d908101601f191682016040526110689190810190615e71565b3360008181526010602090815260408083206001600160a01b03871684529091528120549091611064918590611c11908690615f22565b61334f565b333014611c3657604051630fff4cc960e31b815260040160405180910390fd5b61131a838584846135fb565b600e8054611c4f90615b58565b159050611c9e5760405162461bcd60e51b815260206004820152601f60248201527f5375706572546f6b656e3a20616c726561647920696e697469616c697a65640060448201526064016110ba565b6000839003611ce85760405162461bcd60e51b81526020600482015260166024820152755375706572546f6b656e3a20656d707479206e616d6560501b60448201526064016110ba565b600d805460ff8716600160a01b026001600160a81b03199091166001600160a01b03891617179055600e611d1d848683615f83565b50600f611d2b828483615f83565b50611d3530613a05565b604051600080825290819060008051602061646e833981519152906020015b60405180910390a3505050505050565b6111df333333846040518060200160405280600081525060405180602001604052806000815250613b0a565b6001600160a01b038116611db75760405163d92e233d60e01b815260040160405180910390fd5b6000611de17f360894a13ba1a3210667c828492db98dca3e2076cc3735a920a3ca505d382bbc5490565b6001600160a01b031614611e08576040516302ed543d60e51b815260040160405180910390fd5b7f360894a13ba1a3210667c828492db98dca3e2076cc3735a920a3ca505d382bbc55565b7f00000000000000000000000000000000000000000000000000000000000000006001600160a01b03163314611e755760405163c51efddd60e01b815260040160405180910390fd5b6001600160a01b03808416600090815260106020908152604080832093861683529290522054611eae9084908490611c11908590615f22565b505050565b60606000858585604051602001611ecc93929190615b92565b604051602081830303815290604052805190602001209050611eee8184613cbd565b9695505050505050565b611f0133612e74565b611f3e5760405162461bcd60e51b815260206004820152600e60248201526d4e6f7420612070726f746567652160901b60448201526064016110ba565b336000818152602080526040902060010154610eff9190600b0b6139d9565b611fae3333868686868080601f016020809104026020016040519081016040528093929190818152602001838380828437600092018290525060408051602081019091529081529250613b0a915050565b50505050565b7f00000000000000000000000000000000000000000000000000000000000000006001600160a01b03163314611ffd5760405163c51efddd60e01b815260040160405180910390fd5b611eae83838361334f565b336120156011828a613d4c565b6120325760405163f7f0222760e01b815260040160405180910390fd5b6111a98189898989898080601f01602080910402602001604051908101604052809392919081815260200183838082843760009201919091525050604080516020601f8d018190048102820181019092528b815292508b91508a908190840183828082843760009201919091525060019250613df5915050565b333014611ffd57604051630fff4cc960e31b815260040160405180910390fd5b6060600084846040516020016120e3929190615c79565b6040516020818303038152906040528051906020012090506121058184613cbd565b95945050505050565b60008061211a83611a94565b50505090506000811261212d5780612130565b60005b9392505050565b61213f613e6e565b610eff6000613ec8565b61215281612e74565b156121945760405162461bcd60e51b8152602060048201526012602482015271416c726561647920612070726f746567652160701b60448201526064016110ba565b6000806121a9601f546001600160a01b031690565b6001600160a01b0316336001600160a01b0316146121c9573360006121cd565b3060015b915091506121da82612e74565b806121e25750805b6122275760405162461bcd60e51b8152602060048201526016602482015275596f7520617265206e6f7420612070726f746567652160501b60448201526064016110ba565b6001600160a01b038216600090815260208052604081205434919061225890600160c81b900463ffffffff166127ad565b90508082101561229d5760405162461bcd60e51b815260206004820152601060248201526f4e6f7420656e6f75676820636f696e2160801b60448201526064016110ba565b6122a78183616042565b6001600160a01b03851660009081526020805260409020549092506006600160a01b90910460ff161061231c5760405162461bcd60e51b815260206004820152601e60248201527f4d61782073706f6e736f7273686970206c6576656c207265616368656421000060448201526064016110ba565b30600090815260208052604090208054600160a81b900463ffffffff1690601561234583616055565b82546101009290920a63ffffffff8181021990931691831602179091556001600160a01b038616600090815260208052604090208054600160c81b90049091169150601961239283616055565b82546101009290920a63ffffffff8181021990931691831602179091556001600160a01b0386166000908152602080526040902054600160a81b9004169050845b6123dc81612e74565b15612547576001600160a01b038116600090815260208052604090208054600160a81b900463ffffffff1681601561241383616055565b91906101000a81548163ffffffff021916908363ffffffff1602179055505061244f8160000160159054906101000a900463ffffffff1661275e565b600182018054600090612466908490600b0b616078565b82546001600160601b039182166101009390930a928302919092021990911617905550600181015461249c908390600b0b6139d9565b6001600160a01b03878116600090815260208080526040808320543084529281902054815160ff600160a01b830416815263ffffffff600160a81b8304811694820194909452600160c81b909104909216908201528483169291909116907fb03e738d0e6b0d74a2bfbcaa64c76a9dd601ecb77229d0982c9bfe946c8c39a79060600160405180910390a35463ffffffff600160a81b82041692506001600160a01b031690506123d3565b8461255c576125578260016160aa565b61255e565b815b6040805160a0810182526001600160a01b038916808252600090815260208080529290205492945091908201906125a090600160a01b900460ff1660016160c7565b60ff16815260006020820181905260408201526060016125bf8461275e565b600b90810b9091526001600160a01b03898116600090815260208080526040918290208551815492870151938701516060880151919095166001600160a81b031990931692909217600160a01b60ff909416939093029290921767ffffffffffffffff60a81b1916600160a81b63ffffffff9485160263ffffffff60c81b191617600160c81b91841691909102178155608090930151600190930180546bffffffffffffffffffffffff19166001600160601b0390941693909317928390556126909230928b9291900b90613f1a16565b5083156126cd576040516001600160a01b0388169085156108fc029086906000818181858888f193505050501580156111a9573d6000803e3d6000fd5b50505050505050565b6000611068827f00000000000000000000000000000000000000000000000000000000000000006001600160a01b031663bbe4fd506040518163ffffffff1660e01b8152600401602060405180830381865afa15801561273a573d6000803e3d6000fd5b505050506040513d601f19601f82011682018060405250810190610d1a9190615e58565b600061106861277c63ffffffff841668270801d946c94000006160e0565b613f39565b6117263333848460405180602001604052806000815250604051806020016040528060008152506133ff565b6000600c8263ffffffff16116127cb5750662386f26fc10000919050565b60188263ffffffff16116127e8575067016345785d8a0000919050565b60248263ffffffff161161280557506702c68af0bb140000919050565b60308263ffffffff16116128225750670429d069189e0000919050565b603c8263ffffffff161161283f575067058d15e176280000919050565b50670de0b6b3a7640000919050565b3361285b60118284613f7d565b806001600160a01b0316826001600160a01b03167ff4caeb2d6ca8932a215a353d0703c326ec2d81fc68170f320eb2ab49e9df61f960405160405180910390a35050565b6060600f8054610f2190615b58565b611fae3333868686868080601f01602080910402602001604051908101604052809392919081815260200183838082843760009201829052506040805160208101909152908152925060019150613df59050565b33301461292257604051630fff4cc960e31b815260040160405180910390fd5b8051604080516000815260208101909152611eae91339186918691901515908690614081565b612950613e6e565b6040805160008152602081019182905263c68d428360e01b909152309063c68d428390612984908390859060248101615c52565b600060405180830381600087803b15801561299e57600080fd5b505af115801561131a573d6000803e3d6000fd5b60405133906000906129ca9083908790602001615c79565b604051602081830303815290604052805190602001209050612a1f8185858080602002602001604051908101604052809392919081815260200183836020028082843760009201919091525061330e92505050565b336001600160a01b03167f0c4c547b3a4fcaa5be8353b3111472b124155bccc86de811d4a481c9e6e9faca8686866040516112b693929190615cb6565b611726333383612a6b3361210e565b6135fb565b60006110643384611c11856040518060600160405280602a8152602001616444602a91393360009081526010602090815260408083206001600160a01b038d1684529091529020549190614142565b6000612130333385856135fb565b600080600080612add8686612e93565b9250925092506000612b05828411612af6576000613860565b612b008385616042565b613860565b612b0f9085615d5c565b60001315979650505050505050565b6000611068827f00000000000000000000000000000000000000000000000000000000000000006001600160a01b031663bbe4fd506040518163ffffffff1660e01b8152600401602060405180830381865afa158015612b82573d6000803e3d6000fd5b505050506040513d601f19601f82011682018060405250810190610c1a9190615e58565b333014612bc657604051630fff4cc960e31b815260040160405180910390fd5b8051604080516000815260208101909152611eae91339186918691901515908190879061416e565b7f00000000000000000000000000000000000000000000000000000000000000006001600160a01b03163314612c375760405163c51efddd60e01b815260040160405180910390fd5b611eae8383611c11846040518060600160405280602a8152602001616444602a91396001600160a01b03808a166000908152601060209081526040808320938c16835292905220549190614142565b7f00000000000000000000000000000000000000000000000000000000000000006001600160a01b03163314612ccf5760405163c51efddd60e01b815260040160405180910390fd5b611fae3385858585604051806020016040528060008152506001613df5565b7f00000000000000000000000000000000000000000000000000000000000000006001600160a01b03163314612d375760405163c51efddd60e01b815260040160405180910390fd5b611726338384846040518060200160405280600081525060405180602001604052806000815250613b0a565b604051632329212160e21b81523360048201527f00000000000000000000000000000000000000000000000000000000000000006001600160a01b031690638ca4848490602401602060405180830381865afa158015612dc7573d6000803e3d6000fd5b505050506040513d601f19601f82011682018060405250810190612deb9190615cf7565b612e085760405163327fd99160e21b815260040160405180910390fd5b6001600160a01b038216600090815260016020526040902054612e2c908290615d5c565b6001600160a01b0390921660009081526001602052604090209190915550565b600061213060118484613d4c565b600080612e678484612e93565b5050600013949350505050565b6001600160a01b03908116600090815260208052604090205416151590565b6001600160a01b038216600090815260016020526040812054908080612eb886611b37565b905060005b8151811015612fc4576000806000848481518110612edd57612edd615df0565b60209081029190910101516040516326cb922f60e21b81523060048201526001600160a01b038c81166024830152604482018c905290911690639b2e48bc90606401606060405180830381865afa158015612f3c573d6000803e3d6000fd5b505050506040513d601f19601f82011682018060405250810190612f609190616102565b91945092509050612f718288615f22565b9650612f7d8187615f22565b9550612f9a818311612f90576000613860565b612b008284616042565b612fa4848a615d5c565b612fae9190615d84565b975050505080612fbd90615dd7565b9050612ebd565b50509250925092565b612fd5613e6e565b612fde81612e74565b1561302b5760405162461bcd60e51b815260206004820152601c60248201527f436c75622070726f746567652063616e6e6f74206265206f776e65720000000060448201526064016110ba565b6111df8161423c565b61303c613e6e565b6001600160a01b0382166130855760405162461bcd60e51b815260206004820152601060248201526f24b73b30b634b2103932b1b2b4bb32b960811b60448201526064016110ba565b600081116130c65760405162461bcd60e51b815260206004820152600e60248201526d125b9d985b1a5908185b5bdd5b9d60921b60448201526064016110ba565b8047101561310b5760405162461bcd60e51b81526020600482015260126024820152714e6f7420656e6f7567682062616c616e636560701b60448201526064016110ba565b6040516001600160a01b0383169082156108fc029083906000818181858888f19350505050158015611eae573d6000803e3d6000fd5b3361314e601182846142b2565b806001600160a01b0316826001600160a01b03167f50546e66e5f44d728365dc3908c63bc5cfeeab470722c1677e3073a6ac294aa160405160405180910390a35050565b3361319f60118289613d4c565b6131bc5760405163f7f0222760e01b815260040160405180910390fd5b6126cd8188898989898080601f01602080910402602001604051908101604052809392919081815260200183838082843760009201919091525050604080516020601f8d018190048102820181019092528b815292508b91508a90819084018382808284376000920191909152506133ff92505050565b611eae3333338686868080601f0160208091040260200160405190810160405280939291908181526020018383808284376000920182905250604080516020810190915290815292506133ff915050565b3660008037600080366000845af43d6000803e8080156132a3573d6000f35b3d6000fd5b60608160000180548060200260200160405190810160405280929190818152602001828054801561330257602002820191906000526020600020905b81546001600160a01b031681526001909101906020018083116132e4575b50505050509050919050565b60005b8151811015611eae57600082828151811061332e5761332e615df0565b602002602001015190508082850155508061334890615dd7565b9050613311565b6001600160a01b03831661337657604051638163862760e01b815260040160405180910390fd5b6001600160a01b03821661339d576040516337c1c09d60e21b815260040160405180910390fd5b6001600160a01b0383811660008181526010602090815260408083209487168084529482529182902085905590518481527f8c5be1e5ebec7d5bd14f71427d1e84f3dd0314c0f7b2291e5b200ac8c7c3b92591015b60405180910390a3505050565b600d546001600160a01b031661342857604051637bce7b2b60e11b815260040160405180910390fd5b600080613434856143aa565b9150915061344b8888838751600014158888614081565b600d546040516370a0823160e01b81523060048201526000916001600160a01b0316906370a0823190602401602060405180830381865afa158015613494573d6000803e3d6000fd5b505050506040513d601f19601f820116820180604052508101906134b89190615e58565b600d549091506134d2906001600160a01b03168885614466565b600d546040516370a0823160e01b81523060048201526000916001600160a01b0316906370a0823190602401602060405180830381865afa15801561351b573d6000803e3d6000fd5b505050506040513d601f19601f8201168201806040525081019061353f9190615e58565b9050600061354d8284616042565b905080851461356f57604051631c7c26d360e31b815260040160405180910390fd5b896001600160a01b03167f3bc27981aebbb57f9247dc00fde9d6cd91e4b230083fec3238fedbcba1f9ab3d856040516135aa91815260200190565b60405180910390a25050505050505050505050565b6000805b828110156135f1578381015480156135e057600192505050611068565b506135ea81615dd7565b90506135c3565b5060009392505050565b60006001600160a01b0384166136245760405163eecd6c9b60e01b815260040160405180910390fd5b6001600160a01b03831661364b5760405163e219bd3960e01b815260040160405180910390fd5b600033905061367c8186868660405180602001604052806000815250604051806020016040528060008152506144c9565b846001600160a01b0316866001600160a01b03161461370f5761370f8587611c11866040518060600160405280602d815260200161648e602d9139601060008c6001600160a01b03166001600160a01b0316815260200190815260200160002060008d6001600160a01b03166001600160a01b03168152602001908152602001600020546141429092919063ffffffff16565b50600195945050505050565b6000807f00000000000000000000000000000000000000000000000000000000000000006001600160a01b031663289b3c0d6040518163ffffffff1660e01b8152600401602060405180830381865afa15801561377c573d6000803e3d6000fd5b505050506040513d601f19601f820116820180604052508101906137a09190616130565b604051638369a0f160e01b81526001600160a01b037f0000000000000000000000000000000000000000000000000000000000000000811660048301523060248301527f9f60ae461adf056670e03ae602566409933242392cb06744f5747c9f38b05d09604483015291925090821690638369a0f190606401602060405180830381865afa158015613836573d6000803e3d6000fd5b505050506040513d601f19601f8201168201806040525081019061385a9190616130565b91505090565b60006001600160ff1b038211156138ca5760405162461bcd60e51b815260206004820152602860248201527f53616665436173743a2076616c756520646f65736e27742066697420696e2061604482015267371034b73a191a9b60c11b60648201526084016110ba565b5090565b816001600160a01b0316836001600160a01b031660008051602061646e833981519152836040516133f291815260200190565b60005b81811015611eae5760008382015561391b81615dd7565b9050613904565b60008061392e85614568565b604051631cd43d1160e31b81526001600160a01b03888116600483015287811660248301528681166044830152919350908316915063e6a1e88890606401608060405180830381865afa158015613989573d6000803e3d6000fd5b505050506040513d601f19601f820116820180604052508101906139ad919061614d565b5090979650505050505050565b604080516000808252602082019092526116a9908590859085906146e9565b60006139e6308085613922565b600b0b13156139fa57611eae308383614814565b611eae308383613f1a565b6040516329965a1d60e01b81526001600160a01b03821660048201527fac7fbab5f54a3ca8194167523c6753bfeb96a445279294b6125b68cce21770546024820152306044820152731820a4b7618bde71dce8cdc73aab6c95905fad24906329965a1d90606401600060405180830381600087803b158015613a8657600080fd5b505af1158015613a9a573d6000803e3d6000fd5b50506040516329965a1d60e01b81526001600160a01b03841660048201527faea199e31a596269b42cdafd93407f14436db6e4cad65417994c2eb37381e05a6024820152306044820152731820a4b7618bde71dce8cdc73aab6c95905fad2492506329965a1d9150606401612984565b600d546001600160a01b0316613b3357604051637bce7b2b60e11b815260040160405180910390fd5b600080613b3f856143aa565b600d546040516370a0823160e01b81523060048201529294509092506000916001600160a01b03909116906370a0823190602401602060405180830381865afa158015613b90573d6000803e3d6000fd5b505050506040513d601f19601f82011682018060405250810190613bb49190615e58565b600d54909150613bcf906001600160a01b0316893086614833565b600d546040516370a0823160e01b81523060048201526000916001600160a01b0316906370a0823190602401602060405180830381865afa158015613c18573d6000803e3d6000fd5b505050506040513d601f19601f82011682018060405250810190613c3c9190615e58565b90506000613c4a8383616042565b9050808514613c6c57604051631c7c26d360e31b815260040160405180910390fd5b8651613c82908c908b9087901515808c8c61416e565b886001600160a01b03167f25ca84076773b0455db53621c459ddc84fe40840e4932a62706a032566f399df856040516135aa91815260200190565b6060816001600160401b03811115613cd757613cd7615574565b604051908082528060200260200182016040528015613d00578160200160208202803683370190505b50905060005b82811015613d4557600081850154905080838381518110613d2957613d29615df0565b602090810291909101015250613d3e81615dd7565b9050613d06565b5092915050565b6000816001600160a01b0316836001600160a01b03161480613dbb57506001600160a01b038316600090815260018501602052604090205460ff168015613dbb57506001600160a01b03808316600090815260038601602090815260408083209387168352929052205460ff16155b806116a957506001600160a01b03808316600090815260028601602090815260408083209387168352929052205460ff1690509392505050565b6001600160a01b038616613e1c5760405163eecd6c9b60e01b815260040160405180910390fd5b6001600160a01b038516613e435760405163e219bd3960e01b815260040160405180910390fd5b613e5187878787878761486b565b613e5f8787878787876144c9565b6126cd87878787878787614992565b601f546001600160a01b03163314610eff5760405162461bcd60e51b815260206004820181905260248201527f4f776e61626c653a2063616c6c6572206973206e6f7420746865206f776e657260448201526064016110ba565b601f80546001600160a01b038381166001600160a01b0319831681179093556040519116919082907f8be0079c531659141344cd1fd0a4f28419497f9722a3daafe3b4186f6b6457e090600090a35050565b604080516000808252602082019092526116a990859085908590614ae2565b600060016001605f1b038211156138ca5760405162461bcd60e51b81526020600482015260086024820152676f766572666c6f7760c01b60448201526064016110ba565b806001600160a01b0316826001600160a01b031603613ff45760405162461bcd60e51b815260206004820152602d60248201527f4552433737374f70657261746f72733a20617574686f72697a696e672073656c60448201526c331030b99037b832b930ba37b960991b60648201526084016110ba565b6001600160a01b038116600090815260018401602052604090205460ff161561404a576001600160a01b03918216600090815260039390930160209081526040808520929093168452529020805460ff19169055565b6001600160a01b0380831660009081526002850160209081526040808320938516835292905220805460ff19166001179055505050565b6001600160a01b0385166140a857604051632e8aac6160e21b815260040160405180910390fd5b82156140bd576140bd8686600087868661486b565b6140c78585614b6d565b846001600160a01b0316866001600160a01b03167fa78a9be3a7b862d26933ad85fb11d80ef66b8f972d7cbba06621d583943a409886858560405161410e93929190616191565b60405180910390a36040518481526000906001600160a01b0387169060008051602061646e83398151915290602001611d54565b600081848411156141665760405162461bcd60e51b81526004016110ba91906152b0565b505050900390565b6001600160a01b03861661419557604051630d24315760e01b815260040160405180910390fd5b61419f8686614c7d565b83156141b5576141b58760008888868689614992565b856001600160a01b0316876001600160a01b03167f2fe5be0146f74c5bce36c0b80911af6c7d86ff27e89d5cfa61fc681327954e5d8785856040516141fc93929190616191565b60405180910390a36040518581526001600160a01b0387169060009060008051602061646e8339815191529060200160405180910390a350505050505050565b614244613e6e565b6001600160a01b0381166142a95760405162461bcd60e51b815260206004820152602660248201527f4f776e61626c653a206e6577206f776e657220697320746865207a65726f206160448201526564647265737360d01b60648201526084016110ba565b6111df81613ec8565b336001600160a01b0382160361431d5760405162461bcd60e51b815260206004820152602a60248201527f4552433737374f70657261746f72733a207265766f6b696e672073656c662061604482015269399037b832b930ba37b960b11b60648201526084016110ba565b6001600160a01b038116600090815260018401602052604090205460ff1615614377576001600160a01b0380831660009081526003850160209081526040808320938516835292905220805460ff19166001179055505050565b6001600160a01b03918216600090815260029390930160209081526040808520929093168452529020805460ff19169055565b600d54600090819081906012600160a01b90910460ff16101561440957600d546143df90600160a01b900460ff1660126161bc565b6143ea90600a6162b9565b90506143f681856160e0565b925061440281846162c8565b9150614460565b600d546012600160a01b90910460ff16111561445957600d5461443890601290600160a01b900460ff166161bc565b61444390600a6162b9565b905061444f81856162c8565b9250839150614460565b8391508192505b50915091565b6040516001600160a01b038316602482015260448101829052611eae90849063a9059cbb60e01b906064015b60408051601f198184030181529190526020810180516001600160e01b03166001600160e01b031990931692909217909152614cd7565b6144dc85856144d786613860565b614dac565b836001600160a01b0316856001600160a01b0316876001600160a01b03167f06b541ddaa720db2b10a4d0cdac39b8d360425fc073085fac19bc8261467798786868660405161452d93929190616191565b60405180910390a4836001600160a01b0316856001600160a01b031660008051602061646e83398151915285604051611d5491815260200190565b7f65599bf746e17a00ea62e3610586992d88101b78eec3cf380706621fb97ea837547fb969d79d88acd02d04ed7ee7d43b949e7daf093d363abcfbbc43dfdfd1ce969a546001600160a01b0381166146b8576001600160a01b03821661462d57826001600160a01b03166320bc44256040518163ffffffff1660e01b8152600401602060405180830381865afa158015614606573d6000803e3d6000fd5b505050506040513d601f19601f8201168201806040525081019061462a9190616130565b91505b604051635b69006f60e11b81527fa9214cc96615e0085d3bb077758db69497dc2dce3b2b1e97bc93c3d18d83efd360048201526001600160a01b0383169063b6d200de90602401602060405180830381865afa158015614691573d6000803e3d6000fd5b505050506040513d601f19601f820116820180604052508101906146b59190616130565b90505b6001600160a01b0382166146ce576146ce615d46565b6001600160a01b0381166146e4576146e4615d46565b915091565b60008060006146f787614eab565b91509150816001600160a01b03166339255d5b82836001600160a01b031663b4b333c68b8b8b60006001600160401b0381111561473657614736615574565b6040519080825280601f01601f191660200182016040528015614760576020820181803683370190505b5060405160240161477494939291906162df565b60408051808303601f1901815291815260208201805160e094851b6001600160e01b03909116179052519185901b6001600160e01b03191682526147bf939250908990600401616313565b6000604051808303816000875af11580156147de573d6000803e3d6000fd5b505050506040513d6000823e601f3d908101601f191682016040526148069190810190616337565b506001979650505050505050565b604080516000808252602082019092526116a990859085908590615056565b6040516001600160a01b0380851660248301528316604482015260648101829052611fae9085906323b872dd60e01b90608401614492565b60405163555ddc6560e11b81526001600160a01b03861660048201527f29ddb589b1fb5fc7cf394961c1adf5f8c6454761adf795e67fe149f658abe8956024820152600090731820a4b7618bde71dce8cdc73aab6c95905fad249063aabbb8ca90604401602060405180830381865afa1580156148ec573d6000803e3d6000fd5b505050506040513d601f19601f820116820180604052508101906149109190616130565b90506001600160a01b038116156126cd57604051633ad5cbc160e11b81526001600160a01b038216906375ab978290614957908a908a908a908a908a908a906004016163a4565b600060405180830381600087803b15801561497157600080fd5b505af1158015614985573d6000803e3d6000fd5b5050505050505050505050565b60405163555ddc6560e11b81526001600160a01b03861660048201527fb281fc8c12954d22544db45de3159a39272895b169a852b314f9cc762e44c53b6024820152600090731820a4b7618bde71dce8cdc73aab6c95905fad249063aabbb8ca90604401602060405180830381865afa158015614a13573d6000803e3d6000fd5b505050506040513d601f19601f82011682018060405250810190614a379190616130565b90506001600160a01b03811615614ab3576040516223de2960e01b81526001600160a01b038216906223de2990614a7c908b908b908b908b908b908b906004016163a4565b600060405180830381600087803b158015614a9657600080fd5b505af1158015614aaa573d6000803e3d6000fd5b505050506111a9565b81156111a9576001600160a01b0386163b156111a95760405163fe737d0560e01b815260040160405180910390fd5b6000806000614af087614eab565b91509150816001600160a01b03166339255d5b82836001600160a01b03166362fc305e8b8b8b60006001600160401b03811115614b2f57614b2f615574565b6040519080825280601f01601f191660200182016040528015614b59576020820181803683370190505b5060405160240161477494939291906163f1565b6000614bf5837f00000000000000000000000000000000000000000000000000000000000000006001600160a01b031663bbe4fd506040518163ffffffff1660e01b8152600401602060405180830381865afa158015614bd1573d6000803e3d6000fd5b505050506040513d601f19601f82011682018060405250810190610da09190615e58565b50509050614c0282613860565b811215614c225760405163043b37d160e21b815260040160405180910390fd5b614c2b82613860565b6001600160a01b038416600090815260016020526040902054614c4e9190615d84565b6001600160a01b038416600090815260016020526040902055600254614c75908390616042565b600255505050565b614c8681613860565b6001600160a01b038316600090815260016020526040902054614ca99190615d5c565b6001600160a01b038316600090815260016020526040902055600254614cd0908290615f22565b6002555050565b6000614d2c826040518060400160405280602081526020017f5361666545524332303a206c6f772d6c6576656c2063616c6c206661696c6564815250856001600160a01b03166150a39092919063ffffffff16565b9050805160001480614d4d575080806020019051810190614d4d9190615cf7565b611eae5760405162461bcd60e51b815260206004820152602a60248201527f5361666545524332303a204552433230206f7065726174696f6e20646964206e6044820152691bdd081cdd58d8d9595960b21b60648201526084016110ba565b6000614e10847f00000000000000000000000000000000000000000000000000000000000000006001600160a01b031663bbe4fd506040518163ffffffff1660e01b8152600401602060405180830381865afa158015614bd1573d6000803e3d6000fd5b5050905081811215614e3557604051632f4cb94160e01b815260040160405180910390fd5b6001600160a01b038416600090815260016020526040902054614e59908390615d84565b6001600160a01b038086166000908152600160205260408082209390935590851681522054614e89908390615d5c565b6001600160a01b03909316600090815260016020526040902092909255505050565b7f65599bf746e17a00ea62e3610586992d88101b78eec3cf380706621fb97ea837547fb969d79d88acd02d04ed7ee7d43b949e7daf093d363abcfbbc43dfdfd1ce969a546001600160a01b0381166146b8576001600160a01b038216614f7057826001600160a01b03166320bc44256040518163ffffffff1660e01b8152600401602060405180830381865afa158015614f49573d6000803e3d6000fd5b505050506040513d601f19601f82011682018060405250810190614f6d9190616130565b91505b604051635b69006f60e11b81527fa9214cc96615e0085d3bb077758db69497dc2dce3b2b1e97bc93c3d18d83efd360048201526001600160a01b0383169063b6d200de90602401602060405180830381865afa158015614fd4573d6000803e3d6000fd5b505050506040513d601f19601f82011682018060405250810190614ff89190616130565b9050817f65599bf746e17a00ea62e3610586992d88101b78eec3cf380706621fb97ea83755807fb969d79d88acd02d04ed7ee7d43b949e7daf093d363abcfbbc43dfdfd1ce969a556001600160a01b0382166146ce576146ce615d46565b600080600061506487614eab565b91509150816001600160a01b03166339255d5b82836001600160a01b03166350209a628b8b8b60006001600160401b03811115614b2f57614b2f615574565b60606116a9848460008585600080866001600160a01b031685876040516150ca9190616427565b60006040518083038185875af1925050503d8060008114615107576040519150601f19603f3d011682016040523d82523d6000602084013e61510c565b606091505b509150915061511d87838387615128565b979650505050505050565b60608315615197578251600003615190576001600160a01b0385163b6151905760405162461bcd60e51b815260206004820152601d60248201527f416464726573733a2063616c6c20746f206e6f6e2d636f6e747261637400000060448201526064016110ba565b50816116a9565b6116a983838151156151ac5781518083602001fd5b8060405162461bcd60e51b81526004016110ba91906152b0565b6040518060c001604052806006905b6040805160a0810182526000808252602080830182905292820181905260608201819052608082015282526000199092019101816151d55790505090565b6020808252825182820181905260009190848201906040850190845b818110156152545783516001600160a01b03168352928401929184019160010161522f565b50909695505050505050565b60005b8381101561527b578181015183820152602001615263565b50506000910152565b6000815180845261529c816020860160208601615260565b601f01601f19169290920160200192915050565b6020815260006121306020830184615284565b6001600160a01b03811681146111df57600080fd5b60008083601f8401126152ea57600080fd5b5081356001600160401b0381111561530157600080fd5b6020830191508360208260051b850101111561531c57600080fd5b9250929050565b6000806000806060858703121561533957600080fd5b8435615344816152c3565b93506020850135925060408501356001600160401b0381111561536657600080fd5b615372878288016152d8565b95989497509550505050565b6000806040838503121561539157600080fd5b823561539c816152c3565b946020939093013593505050565b60008083601f8401126153bc57600080fd5b5081356001600160401b038111156153d357600080fd5b60208301915083602082850101111561531c57600080fd5b6000806000806040858703121561540157600080fd5b84356001600160401b038082111561541857600080fd5b615424888389016153aa565b9096509450602087013591508082111561543d57600080fd5b50615372878288016153aa565b60006020828403121561545c57600080fd5b8135612130816152c3565b80516001600160a01b0316825260208082015160ff169083015260408082015163ffffffff9081169184019190915260608083015190911690830152608090810151600b0b910152565b60a081016110688284615467565b6000602082840312156154d157600080fd5b5035919050565b6000806000604084860312156154ed57600080fd5b8335925060208401356001600160401b0381111561550a57600080fd5b615516868287016152d8565b9497909650939450505050565b6000806000806080858703121561553957600080fd5b8435615544816152c3565b93506020850135615554816152c3565b92506040850135615564816152c3565b9396929550929360600135925050565b634e487b7160e01b600052604160045260246000fd5b604051601f8201601f191681016001600160401b03811182821017156155b2576155b2615574565b604052919050565b60006001600160401b038211156155d3576155d3615574565b50601f01601f191660200190565b600082601f8301126155f257600080fd5b8135615605615600826155ba565b61558a565b81815284602083860101111561561a57600080fd5b816020850160208301376000918101602001919091529392505050565b80151581146111df57600080fd5b600080600080600080600060e0888a03121561566057600080fd5b8735965060208801356001600160401b0381111561567d57600080fd5b6156898a828b016155e1565b965050604088013561569a816152c3565b945060608801356156aa81615637565b935060808801356156ba816152c3565b9699959850939692959460a0840135945060c09093013592915050565b6103c08101818360005b600681101561570b576156f5838351615467565b60a09290920191602091909101906001016156e1565b50505092915050565b60008060006060848603121561572957600080fd5b8335615734816152c3565b92506020840135615744816152c3565b929592945050506040919091013590565b6000806040838503121561576857600080fd5b50508035926020909101359150565b6000806000806000806080878903121561579057600080fd5b863561579b816152c3565b9550602087013560ff811681146157b157600080fd5b945060408701356001600160401b03808211156157cd57600080fd5b6157d98a838b016153aa565b909650945060608901359150808211156157f257600080fd5b506157ff89828a016153aa565b979a9699509497509295939492505050565b6000806000806080858703121561582757600080fd5b8435615832816152c3565b93506020850135615842816152c3565b93969395505050506040820135916060013590565b6020808252825182820181905260009190848201906040850190845b8181101561525457835183529284019291840191600101615873565b600080600080606085870312156158a557600080fd5b84356158b0816152c3565b93506020850135925060408501356001600160401b038111156158d257600080fd5b615372878288016153aa565b600080600080600080600060a0888a0312156158f957600080fd5b8735615904816152c3565b96506020880135615914816152c3565b95506040880135945060608801356001600160401b038082111561593757600080fd5b6159438b838c016153aa565b909650945060808a013591508082111561595c57600080fd5b506159698a828b016153aa565b989b979a50959850939692959293505050565b60008060006060848603121561599157600080fd5b833561599c816152c3565b95602085013595506040909401359392505050565b6000602082840312156159c357600080fd5b813563ffffffff8116811461213057600080fd5b6000806000606084860312156159ec57600080fd5b83356159f7816152c3565b92506020840135915060408401356001600160401b03811115615a1957600080fd5b615a25868287016155e1565b9150509250925092565b60008060008060808587031215615a4557600080fd5b8435615a50816152c3565b93506020850135615a60816152c3565b92506040850135915060608501356001600160401b03811115615a8257600080fd5b615a8e878288016155e1565b91505092959194509250565b60008060408385031215615aad57600080fd5b8235615ab8816152c3565b91506020830135615ac8816152c3565b809150509250929050565b60008060008060008060808789031215615aec57600080fd5b8635615af7816152c3565b95506020870135945060408701356001600160401b03808211156157cd57600080fd5b600080600060408486031215615b2f57600080fd5b8335925060208401356001600160401b03811115615b4c57600080fd5b615516868287016153aa565b600181811c90821680615b6c57607f821691505b602082108103615b8c57634e487b7160e01b600052602260045260246000fd5b50919050565b6080808252600e908201526d41677265656d656e74537461746560901b60a08201526001600160a01b039384166020820152919092166040820152606081019190915260c00190565b81835281816020850137506000828201602090810191909152601f909101601f19169091010190565b6001600160a01b038716815260ff86166020820152608060408201819052600090615c329083018688615bdb565b8281036060840152615c45818587615bdb565b9998505050505050505050565b60018060a01b03841681528260208201526060604082015260006121056060830184615284565b6060808252600d908201526c41677265656d656e744461746160981b60808201526001600160a01b03929092166020830152604082015260a00190565b838152604060208201819052810182905260006001600160fb1b03831115615cdd57600080fd5b8260051b8085606085013791909101606001949350505050565b600060208284031215615d0957600080fd5b815161213081615637565b634e487b7160e01b600052601160045260246000fd5b6000600160ff1b8201615d3f57615d3f615d14565b5060000390565b634e487b7160e01b600052600160045260246000fd5b8082018281126000831280158216821582161715615d7c57615d7c615d14565b505092915050565b8181036000831280158383131683831282161715613d4557613d45615d14565b85815260018060a01b038516602082015283604082015282606082015260a06080820152600061511d60a0830184615284565b600060018201615de957615de9615d14565b5060010190565b634e487b7160e01b600052603260045260246000fd5b600063ffffffff821680615e1c57615e1c615d14565b6000190192915050565b600b82810b9082900b036b7fffffffffffffffffffffff19811260016001605f1b038213171561106857611068615d14565b600060208284031215615e6a57600080fd5b5051919050565b60006020808385031215615e8457600080fd5b82516001600160401b0380821115615e9b57600080fd5b818501915085601f830112615eaf57600080fd5b815181811115615ec157615ec1615574565b8060051b9150615ed284830161558a565b8181529183018401918481019088841115615eec57600080fd5b938501935b83851015615f165784519250615f06836152c3565b8282529385019390850190615ef1565b98975050505050505050565b8082018082111561106857611068615d14565b601f821115611eae57600081815260208120601f850160051c81016020861015615f5c5750805b601f850160051c820191505b81811015615f7b57828155600101615f68565b505050505050565b6001600160401b03831115615f9a57615f9a615574565b615fae83615fa88354615b58565b83615f35565b6000601f841160018114615fe25760008515615fca5750838201355b600019600387901b1c1916600186901b17835561131a565b600083815260209020601f19861690835b828110156160135786850135825560209485019460019092019101615ff3565b50868210156160305760001960f88860031b161c19848701351681555b505060018560011b0183555050505050565b8181038181111561106857611068615d14565b600063ffffffff80831681810361606e5761606e615d14565b6001019392505050565b600b81810b9083900b0160016001605f1b0381136b7fffffffffffffffffffffff198212171561106857611068615d14565b63ffffffff818116838216019080821115613d4557613d45615d14565b60ff818116838216019081111561106857611068615d14565b6000826160fd57634e487b7160e01b600052601260045260246000fd5b500490565b60008060006060848603121561611757600080fd5b8351925060208401519150604084015190509250925092565b60006020828403121561614257600080fd5b8151612130816152c3565b6000806000806080858703121561616357600080fd5b84519350602085015180600b0b811461617b57600080fd5b6040860151606090960151949790965092505050565b8381526060602082015260006161aa6060830185615284565b8281036040840152611eee8185615284565b60ff828116828216039081111561106857611068615d14565b600181815b808511156162105781600019048211156161f6576161f6615d14565b8085161561620357918102915b93841c93908002906161da565b509250929050565b60008261622757506001611068565b8161623457506000611068565b816001811461624a576002811461625457616270565b6001915050611068565b60ff84111561626557616265615d14565b50506001821b611068565b5060208310610133831016604e8410600b8410161715616293575081810a611068565b61629d83836161d5565b80600019048211156162b1576162b1615d14565b029392505050565b600061213060ff841683616218565b808202811582820484141761106857611068615d14565b6001600160a01b038581168252848116602083015283166040820152608060608201819052600090611eee90830184615284565b6001600160a01b03841681526060602082018190526000906161aa90830185615284565b60006020828403121561634957600080fd5b81516001600160401b0381111561635f57600080fd5b8201601f8101841361637057600080fd5b805161637e615600826155ba565b81815285602083850101111561639357600080fd5b612105826020830160208601615260565b6001600160a01b0387811682528681166020830152851660408201526060810184905260c0608082018190526000906163df90830185615284565b82810360a0840152615c458185615284565b6001600160a01b03858116825284166020820152600b83900b6040820152608060608201819052600090611eee90830184615284565b60008251616439818460208701615260565b919091019291505056fe5375706572546f6b656e3a2064656372656173656420616c6c6f77616e63652062656c6f77207a65726fddf252ad1be2c89b69c2b068fc378daa952ba7f163c4a11628f55a4df523b3ef5375706572546f6b656e3a207472616e7366657220616d6f756e74206578636565647320616c6c6f77616e6365a2646970667358221220bc58a6b8a011ac7d9ea78b0bac1d57fabb1591a4c1ee700104af80c2336caa5a64736f6c63430008130033",
    "linkReferences": {}
  },
  "methodIdentifiers": {
    "CONSTANT_INFLOW_NFT()": "4c5c0c85",
    "CONSTANT_OUTFLOW_NFT()": "ef43d2c6",
    "FLAT_COST_SPONSORSHIP()": "b132a50d",
    "MAX_SPONSORSHIP_LEVEL()": "b5c0b7eb",
    "MAX_SPONSORSHIP_PATH_OUTFLOW()": "f349f56a",
    "_initialize(string,string)": "098dce13",
    "allowance(address,address)": "dd62ed3e",
    "approve(address,uint256)": "095ea7b3",
    "authorizeOperator(address)": "959b8c3f",
    "balanceOf(address)": "70a08231",
    "burn(uint256,bytes)": "fe9d9303",
    "calculateFlowRate(uint32)": "7ae058dc",
    "createAgreement(bytes32,bytes32[])": "12a6a3f8",
    "decimals()": "313ce567",
    "decreaseAllowance(address,uint256)": "a457c2d7",
    "defaultOperators()": "06e48538",
    "downgrade(uint256)": "11bcc81e",
    "downgradeTo(address,uint256)": "83ba2525",
    "fee(uint32)": "8934c79a",
    "getAccountActiveAgreements(address)": "386fa221",
    "getAgreementData(address,bytes32,uint256)": "6c2d9f2f",
    "getAgreementStateSlot(address,address,uint256,uint256)": "4b61cc33",
    "getChainOfSponsors(address)": "21fb177a",
    "getHost()": "20bc4425",
    "getProtege(address)": "099e14ce",
    "getUnderlyingToken()": "ee719bc8",
    "granularity()": "556f0dc7",
    "increaseAllowance(address,uint256)": "39509351",
    "initialize(address,uint8,string,string)": "42fe0980",
    "initializeProxy(address)": "4a0687ef",
    "isAccountCritical(address,uint256)": "d9d078d6",
    "isAccountCriticalNow(address)": "79359f6f",
    "isAccountSolvent(address,uint256)": "b84cdd4a",
    "isAccountSolventNow(address)": "bb0d196e",
    "isOperatorFor(address,address)": "d95b6371",
    "isProtege(address)": "e4a472c8",
    "makeLiquidationPayoutsV2(bytes32,bytes,address,bool,address,uint256,int256)": "1863e809",
    "mint(uint256)": "a0712d68",
    "name()": "06fdde03",
    "operationApprove(address,address,uint256)": "62aa5287",
    "operationDecreaseAllowance(address,address,uint256)": "c780fd82",
    "operationDowngrade(address,uint256)": "245887fc",
    "operationIncreaseAllowance(address,address,uint256)": "4b2763b3",
    "operationSend(address,address,uint256,bytes)": "ca0c1e7f",
    "operationTransferFrom(address,address,address,uint256)": "16d055d6",
    "operationUpgrade(address,uint256)": "ca789464",
    "operatorBurn(address,uint256,bytes,bytes)": "fc673c4f",
    "operatorSend(address,address,uint256,bytes,bytes)": "62ad1b83",
    "owner()": "8da5cb5b",
    "realtimeBalanceOf(address,uint256)": "eb3537cc",
    "realtimeBalanceOfNow(address)": "2ec8eec7",
    "remove(address)": "29092d0e",
    "renounceOwnership()": "715018a6",
    "restartStream()": "57cf7acb",
    "revokeOperator(address)": "fad8b32a",
    "selfApproveFor(address,address,uint256)": "66a12fb6",
    "selfBurn(address,uint256,bytes)": "9d876741",
    "selfMint(address,uint256,bytes)": "c68d4283",
    "selfTransferFrom(address,address,address,uint256)": "41b706be",
    "send(address,uint256,bytes)": "9bd9bbc6",
    "settleBalance(address,int256)": "cf97256d",
    "sponsor(address)": "766c4f37",
    "symbol()": "95d89b41",
    "terminateAgreement(bytes32,uint256)": "27048397",
    "totalSupply()": "18160ddd",
    "transfer(address,uint256)": "a9059cbb",
    "transferAll(address)": "a3a7e7f3",
    "transferFrom(address,address,uint256)": "23b872dd",
    "transferOwnership(address)": "f2fde38b",
    "updateAgreementData(bytes32,bytes32[])": "a1b2bf8b",
    "updateAgreementStateSlot(address,uint256,bytes32[])": "090c415e",
    "upgrade(uint256)": "45977d03",
    "upgradeTo(address,uint256,bytes)": "5b9d09cc",
    "withdraw(address,uint256)": "f3fef3a3"
  },
  "id": 115
}