{
  "abi": [
    {
      "inputs": [],
      "stateMutability": "nonpayable",
      "type": "constructor"
    },
    {
      "inputs": [],
      "name": "Initialized",
      "type": "error"
    },
    {
      "inputs": [],
      "name": "ZeroAddress",
      "type": "error"
    },
    {
      "anonymous": false,
      "inputs": [
        {
          "indexed": true,
          "internalType": "address",
          "name": "previousOwner",
          "type": "address"
        },
        {
          "indexed": true,
          "internalType": "address",
          "name": "newOwner",
          "type": "address"
        }
      ],
      "name": "OwnershipTransferred",
      "type": "event"
    },
    {
      "anonymous": false,
      "inputs": [
        {
          "indexed": true,
          "internalType": "address",
          "name": "sponsor",
          "type": "address"
        },
        {
          "indexed": true,
          "internalType": "address",
          "name": "protege",
          "type": "address"
        },
        {
          "indexed": false,
          "internalType": "uint8",
          "name": "level",
          "type": "uint8"
        },
        {
          "indexed": false,
          "internalType": "uint32",
          "name": "totalProtegeCount",
          "type": "uint32"
        },
        {
          "indexed": false,
          "internalType": "uint32",
          "name": "directTotalProtegeCount",
          "type": "uint32"
        }
      ],
      "name": "PROTEGE_UPDATED",
      "type": "event"
    },
    {
      "stateMutability": "payable",
      "type": "fallback"
    },
    {
      "inputs": [],
      "name": "FLAT_COST_SPONSORSHIP",
      "outputs": [
        {
          "internalType": "uint256",
          "name": "",
          "type": "uint256"
        }
      ],
      "stateMutability": "view",
      "type": "function"
    },
    {
      "inputs": [],
      "name": "MAX_SPONSORSHIP_LEVEL",
      "outputs": [
        {
          "internalType": "uint256",
          "name": "",
          "type": "uint256"
        }
      ],
      "stateMutability": "view",
      "type": "function"
    },
    {
      "inputs": [],
      "name": "MAX_SPONSORSHIP_PATH_OUTFLOW",
      "outputs": [
        {
          "internalType": "uint256",
          "name": "",
          "type": "uint256"
        }
      ],
      "stateMutability": "view",
      "type": "function"
    },
    {
      "inputs": [
        {
          "internalType": "uint32",
          "name": "totalProtegeCount",
          "type": "uint32"
        }
      ],
      "name": "calculateFlowRate",
      "outputs": [
        {
          "internalType": "int96",
          "name": "flowRate",
          "type": "int96"
        }
      ],
      "stateMutability": "view",
      "type": "function"
    },
    {
      "inputs": [
        {
          "internalType": "uint32",
          "name": "directProtegeCount",
          "type": "uint32"
        }
      ],
      "name": "fee",
      "outputs": [
        {
          "internalType": "uint256",
          "name": "feeAmount",
          "type": "uint256"
        }
      ],
      "stateMutability": "pure",
      "type": "function"
    },
    {
      "inputs": [
        {
          "internalType": "uint8",
          "name": "level",
          "type": "uint8"
        }
      ],
      "name": "getAllocationForLevel",
      "outputs": [
        {
          "internalType": "uint256",
          "name": "allocation",
          "type": "uint256"
        }
      ],
      "stateMutability": "pure",
      "type": "function"
    },
    {
      "inputs": [
        {
          "internalType": "address",
          "name": "protege",
          "type": "address"
        }
      ],
      "name": "getChainOfSponsors",
      "outputs": [
        {
          "components": [
            {
              "internalType": "address",
              "name": "sponsor",
              "type": "address"
            },
            {
              "internalType": "uint8",
              "name": "level",
              "type": "uint8"
            },
            {
              "internalType": "uint32",
              "name": "totalProtegeCount",
              "type": "uint32"
            },
            {
              "internalType": "uint32",
              "name": "directTotalProtegeCount",
              "type": "uint32"
            },
            {
              "internalType": "int96",
              "name": "desiredFlowRate",
              "type": "int96"
            }
          ],
          "internalType": "struct SuperfluidClub.Protege[6]",
          "name": "sponsors",
          "type": "tuple[6]"
        }
      ],
      "stateMutability": "view",
      "type": "function"
    },
    {
      "inputs": [
        {
          "internalType": "address",
          "name": "protege",
          "type": "address"
        }
      ],
      "name": "getProtege",
      "outputs": [
        {
          "components": [
            {
              "internalType": "address",
              "name": "sponsor",
              "type": "address"
            },
            {
              "internalType": "uint8",
              "name": "level",
              "type": "uint8"
            },
            {
              "internalType": "uint32",
              "name": "totalProtegeCount",
              "type": "uint32"
            },
            {
              "internalType": "uint32",
              "name": "directTotalProtegeCount",
              "type": "uint32"
            },
            {
              "internalType": "int96",
              "name": "desiredFlowRate",
              "type": "int96"
            }
          ],
          "internalType": "struct SuperfluidClub.Protege",
          "name": "",
          "type": "tuple"
        }
      ],
      "stateMutability": "view",
      "type": "function"
    },
    {
      "inputs": [
        {
          "internalType": "address",
          "name": "superTokenFactory",
          "type": "address"
        }
      ],
      "name": "initialize",
      "outputs": [],
      "stateMutability": "nonpayable",
      "type": "function"
    },
    {
      "inputs": [
        {
          "internalType": "address",
          "name": "initialAddress",
          "type": "address"
        }
      ],
      "name": "initializeProxy",
      "outputs": [],
      "stateMutability": "nonpayable",
      "type": "function"
    },
    {
      "inputs": [
        {
          "internalType": "address",
          "name": "protege",
          "type": "address"
        }
      ],
      "name": "isProtege",
      "outputs": [
        {
          "internalType": "bool",
          "name": "",
          "type": "bool"
        }
      ],
      "stateMutability": "view",
      "type": "function"
    },
    {
      "inputs": [
        {
          "internalType": "uint256",
          "name": "amount",
          "type": "uint256"
        }
      ],
      "name": "mint",
      "outputs": [],
      "stateMutability": "nonpayable",
      "type": "function"
    },
    {
      "inputs": [],
      "name": "owner",
      "outputs": [
        {
          "internalType": "address",
          "name": "",
          "type": "address"
        }
      ],
      "stateMutability": "view",
      "type": "function"
    },
    {
      "inputs": [
        {
          "internalType": "address",
          "name": "oldProtege",
          "type": "address"
        }
      ],
      "name": "remove",
      "outputs": [],
      "stateMutability": "nonpayable",
      "type": "function"
    },
    {
      "inputs": [],
      "name": "renounceOwnership",
      "outputs": [],
      "stateMutability": "nonpayable",
      "type": "function"
    },
    {
      "inputs": [],
      "name": "restartStream",
      "outputs": [],
      "stateMutability": "nonpayable",
      "type": "function"
    },
    {
      "inputs": [
        {
          "internalType": "address payable",
          "name": "newProtege",
          "type": "address"
        }
      ],
      "name": "sponsor",
      "outputs": [],
      "stateMutability": "payable",
      "type": "function"
    },
    {
      "inputs": [
        {
          "internalType": "address",
          "name": "newOwner",
          "type": "address"
        }
      ],
      "name": "transferOwnership",
      "outputs": [],
      "stateMutability": "nonpayable",
      "type": "function"
    },
    {
      "inputs": [
        {
          "internalType": "address",
          "name": "receiver",
          "type": "address"
        },
        {
          "internalType": "uint256",
          "name": "amount",
          "type": "uint256"
        }
      ],
      "name": "withdraw",
      "outputs": [],
      "stateMutability": "nonpayable",
      "type": "function"
    },
    {
      "stateMutability": "payable",
      "type": "receive"
    }
  ],
  "bytecode": {
    "object": "0x608060405234801561001057600080fd5b5061001a3361001f565b610071565b602080546001600160a01b038381166001600160a01b0319831681179093556040519116919082907f8be0079c531659141344cd1fd0a4f28419497f9722a3daafe3b4186f6b6457e090600090a35050565b612197806100806000396000f3fe6080604052600436106101185760003560e01c80638da5cb5b116100a0578063cbb10d3411610064578063cbb10d341461039b578063e4a472c8146103bb578063f2fde38b146103eb578063f349f56a1461040b578063f3fef3a3146104285761011f565b80638da5cb5b14610304578063a0712d681461032b578063b132a50d1461034b578063b5c0b7eb14610366578063c4d66de81461037b5761011f565b806357cf7acb116100e757806357cf7acb14610266578063715018a61461027b578063766c4f37146102905780637ae058dc146102a35780638934c79a146102d65761011f565b8063099e14ce1461012957806321fb177a146101f957806329092d0e146102265780634a0687ef146102465761011f565b3661011f57005b610127610448565b005b34801561013557600080fd5b506101e3610144366004611b26565b6040805160a081018252600080825260208201819052918101829052606081018290526080810191909152506001600160a01b03908116600090815260216020908152604091829020825160a0810184528154948516815260ff600160a01b8604169281019290925263ffffffff600160a81b8504811693830193909352600160c81b9093049091166060820152600190910154600b0b608082015290565b6040516101f09190611b94565b60405180910390f35b34801561020557600080fd5b50610219610214366004611b26565b61047a565b6040516101f09190611ba2565b34801561023257600080fd5b50610127610241366004611b26565b610558565b34801561025257600080fd5b50610127610261366004611b26565b610839565b34801561027257600080fd5b506101276108d5565b34801561028757600080fd5b5061012761093f565b61012761029e366004611b26565b610951565b3480156102af57600080fd5b506102c36102be366004611bdf565b610eec565b604051600b9190910b81526020016101f0565b3480156102e257600080fd5b506102f66102f1366004611bdf565b610f15565b6040519081526020016101f0565b34801561031057600080fd5b50602080546040516001600160a01b039091168152016101f0565b34801561033757600080fd5b50610127610346366004611c05565b610fb6565b34801561035757600080fd5b506102f6662386f26fc1000081565b34801561037257600080fd5b506102f6600681565b34801561038757600080fd5b50610127610396366004611b26565b610ff6565b3480156103a757600080fd5b506102f66103b6366004611c1e565b6110b1565b3480156103c757600080fd5b506103db6103d6366004611b26565b6110d1565b60405190151581526020016101f0565b3480156103f757600080fd5b50610127610406366004611b26565b6110f1565b34801561041757600080fd5b506102f668270801d946c940000081565b34801561043457600080fd5b50610127610443366004611c41565b611167565b6104786104737f360894a13ba1a3210667c828492db98dca3e2076cc3735a920a3ca505d382bbc5490565b611279565b565b610482611ac4565b8160005b61048f826110d1565b15610551576001600160a01b03808316600090815260216020908152604091829020825160a0810184528154948516815260ff600160a01b8604169281019290925263ffffffff600160a81b8504811693830193909352600160c81b9093049091166060820152600190910154600b0b6080820152838261050f81611c83565b93506006811061052157610521611c9c565b602090810291909101919091526001600160a01b0392831660009081526021909152604090205490911690610486565b5050919050565b610561816110d1565b6105a35760405162461bcd60e51b815260206004820152600e60248201526d4e6f7420612070726f746567652160901b60448201526064015b60405180910390fd5b60006105b76020546001600160a01b031690565b6001600160a01b0316336001600160a01b0316146105d557336105d7565b305b6001600160a01b038084166000818152602160208181526040808420815160a0810183528154978816815260ff600160a01b8904168185015263ffffffff600160a81b8904811693820193909352600160c81b880483166060820152600182018054600b81900b6080840152978752949093526001600160e81b03199096169095556bffffffffffffffffffffffff19909316905592935091906106819030908190879061129d16565b600b0b131561069757610695308085611335565b505b3060009081526021602052604090208054600160a81b900463ffffffff169060156106c183611cb2565b82546101009290920a63ffffffff81810219909316918316021790915582516001600160a01b031660009081526021602052604090208054600160c81b90049091169150601961071083611cb2565b82546101009290920a63ffffffff8181021990931691831602179091556001600160a01b0384166000908152602160205260409020548351600160a81b90910490911691505b61075f816110d1565b15610832576001600160a01b03811660009081526021602052604090208054600160a81b900463ffffffff1681601561079783611cb2565b91906101000a81548163ffffffff021916908363ffffffff160217905550506107bf83610eec565b6001820180546000906107d6908490600b0b611cd2565b82546001600160601b039182166101009390930a9283029190920219909116179055506001810154600b0b60000361081957610813308388611335565b5061082c565b600181015461082c908390600b0b61135c565b50610756565b5050505050565b6001600160a01b0381166108605760405163d92e233d60e01b815260040160405180910390fd5b600061088a7f360894a13ba1a3210667c828492db98dca3e2076cc3735a920a3ca505d382bbc5490565b6001600160a01b0316146108b1576040516302ed543d60e51b815260040160405180910390fd5b7f360894a13ba1a3210667c828492db98dca3e2076cc3735a920a3ca505d382bbc55565b6108de336110d1565b61091b5760405162461bcd60e51b815260206004820152600e60248201526d4e6f7420612070726f746567652160901b604482015260640161059a565b33600081815260216020526040902060010154600b0b9061093c908261135c565b50565b610947611388565b61047860006113e2565b61095a816110d1565b1561099c5760405162461bcd60e51b8152602060048201526012602482015271416c726561647920612070726f746567652160701b604482015260640161059a565b6000806109b16020546001600160a01b031690565b6001600160a01b0316336001600160a01b0316146109d1573360006109d5565b3060015b915091506109e2826110d1565b806109ea5750805b610a2f5760405162461bcd60e51b8152602060048201526016602482015275596f7520617265206e6f7420612070726f746567652160501b604482015260640161059a565b6001600160a01b038216600090815260216020526040812054349190610a6190600160c81b900463ffffffff16610f15565b905080821015610aa65760405162461bcd60e51b815260206004820152601060248201526f4e6f7420656e6f75676820636f696e2160801b604482015260640161059a565b610ab08183611d04565b6001600160a01b0385166000908152602160205260409020549092506006600160a01b90910460ff1610610b265760405162461bcd60e51b815260206004820152601e60248201527f4d61782073706f6e736f7273686970206c6576656c2072656163686564210000604482015260640161059a565b3060009081526021602052604090208054600160a81b900463ffffffff16906015610b5083611d17565b82546101009290920a63ffffffff8181021990931691831602179091556001600160a01b03861660009081526021602052604090208054600160c81b900490911691506019610b9e83611d17565b82546101009290920a63ffffffff8181021990931691831602179091556001600160a01b038616600090815260216020526040902054600160a81b9004169050845b610be9816110d1565b15610d57576001600160a01b03811660009081526021602052604090208054600160a81b900463ffffffff16816015610c2183611d17565b91906101000a81548163ffffffff021916908363ffffffff16021790555050610c5d8160000160159054906101000a900463ffffffff16610eec565b600182018054600090610c74908490600b0b611d3a565b82546001600160601b039182166101009390930a9283029190920219909116179055506001810154610caa908390600b0b61135c565b6001600160a01b038781166000908152602160209081526040808320543084529281902054815160ff600160a01b830416815263ffffffff600160a81b8304811694820194909452600160c81b909104909216908201528483169291909116907fb03e738d0e6b0d74a2bfbcaa64c76a9dd601ecb77229d0982c9bfe946c8c39a79060600160405180910390a35463ffffffff600160a81b82041692506001600160a01b03169050610be0565b84610d6c57610d67826001611d6c565b610d6e565b815b6040805160a0810182526001600160a01b038916808252600090815260216020908152929020549294509190820190610db290600160a01b900460ff166001611d90565b60ff1681526000602082018190526040820152606001610dd184610eec565b600b90810b9091526001600160a01b038981166000908152602160209081526040918290208551815492870151938701516060880151919095166001600160a81b031990931692909217600160a01b60ff909416939093029290921767ffffffffffffffff60a81b1916600160a81b63ffffffff9485160263ffffffff60c81b191617600160c81b91841691909102178155608090930151600190930180546bffffffffffffffffffffffff19166001600160601b039094169390931792839055610ea49230928b9291900b9061143416565b508315610ee3576040516001600160a01b0388169085156108fc029086906000818181858888f19350505050158015610ee1573d6000803e3d6000fd5b505b50505050505050565b6000610f0f610f0a63ffffffff841668270801d946c9400000611da9565b611453565b92915050565b6000600c8263ffffffff1611610f335750662386f26fc10000919050565b60188263ffffffff1611610f50575067016345785d8a0000919050565b60248263ffffffff1611610f6d57506702c68af0bb140000919050565b60308263ffffffff1611610f8a5750670429d069189e0000919050565b603c8263ffffffff1611610fa7575067058d15e176280000919050565b50670de0b6b3a7640000919050565b610fbe611388565b61093c308260005b6040519080825280601f01601f191660200182016040528015610ff0576020820181803683370190505b5061149b565b602054600160a01b900460ff16156110465760405162461bcd60e51b8152602060048201526013602482015272105b1c9958591e481a5b9a5d1a585b1a5e9959606a1b604482015260640161059a565b6020805460ff60a01b1916600160a01b178155604080518082018252600580825264086d8eac4b60db1b8285018190528351808501909452908352928201929092526110939183916114f0565b61093c30710125dfa371a19e6f7cb54395ca00000000006000610fc6565b60006110be826002611ec5565b610f0f9068270801d946c9400000611da9565b6001600160a01b0390811660009081526021602052604090205416151590565b6110f9611388565b6001600160a01b03811661115e5760405162461bcd60e51b815260206004820152602660248201527f4f776e61626c653a206e6577206f776e657220697320746865207a65726f206160448201526564647265737360d01b606482015260840161059a565b61093c816113e2565b61116f611388565b6001600160a01b0382166111b85760405162461bcd60e51b815260206004820152601060248201526f24b73b30b634b2103932b1b2b4bb32b960811b604482015260640161059a565b600081116111f95760405162461bcd60e51b815260206004820152600e60248201526d125b9d985b1a5908185b5bdd5b9d60921b604482015260640161059a565b8047101561123e5760405162461bcd60e51b81526020600482015260126024820152714e6f7420656e6f7567682062616c616e636560701b604482015260640161059a565b6040516001600160a01b0383169082156108fc029083906000818181858888f19350505050158015611274573d6000803e3d6000fd5b505050565b3660008037600080366000845af43d6000803e808015611298573d6000f35b3d6000fd5b6000806112a985611573565b604051631cd43d1160e31b81526001600160a01b03888116600483015287811660248301528681166044830152919350908316915063e6a1e88890606401608060405180830381865afa158015611304573d6000803e3d6000fd5b505050506040513d601f19601f820116820180604052508101906113289190611ed4565b5090979650505050505050565b60408051600080825260208201909252611354908590859085906116f4565b949350505050565b600061136930808561129d565b600b0b131561137d57611274308383611820565b611274308383611434565b6020546001600160a01b031633146104785760405162461bcd60e51b815260206004820181905260248201527f4f776e61626c653a2063616c6c6572206973206e6f7420746865206f776e6572604482015260640161059a565b602080546001600160a01b038381166001600160a01b0319831681179093556040519116919082907f8be0079c531659141344cd1fd0a4f28419497f9722a3daafe3b4186f6b6457e090600090a35050565b604080516000808252602082019092526113549085908590859061183f565b600060016001605f1b038211156114975760405162461bcd60e51b81526020600482015260086024820152676f766572666c6f7760c01b604482015260640161059a565b5090565b60405163c68d428360e01b8152309063c68d4283906114c290869086908690600401611f68565b600060405180830381600087803b1580156114dc57600080fd5b505af1158015610ee3573d6000803e3d6000fd5b604051633504b4d160e21b81523060048201526001600160a01b0384169063d412d34490602401600060405180830381600087803b15801561153157600080fd5b505af1158015611545573d6000803e3d6000fd5b50506040516285fc1360e71b81523092506342fe098091506114c29060009060129087908790600401611f98565b7f65599bf746e17a00ea62e3610586992d88101b78eec3cf380706621fb97ea837547fb969d79d88acd02d04ed7ee7d43b949e7daf093d363abcfbbc43dfdfd1ce969a546001600160a01b0381166116c3576001600160a01b03821661163857826001600160a01b03166320bc44256040518163ffffffff1660e01b8152600401602060405180830381865afa158015611611573d6000803e3d6000fd5b505050506040513d601f19601f820116820180604052508101906116359190611fe2565b91505b604051635b69006f60e11b81527fa9214cc96615e0085d3bb077758db69497dc2dce3b2b1e97bc93c3d18d83efd360048201526001600160a01b0383169063b6d200de90602401602060405180830381865afa15801561169c573d6000803e3d6000fd5b505050506040513d601f19601f820116820180604052508101906116c09190611fe2565b90505b6001600160a01b0382166116d9576116d9611fff565b6001600160a01b0381166116ef576116ef611fff565b915091565b6000806000611702876118cb565b91509150816001600160a01b03166339255d5b82836001600160a01b031663b4b333c68b8b8b600067ffffffffffffffff81111561174257611742611dcb565b6040519080825280601f01601f19166020018201604052801561176c576020820181803683370190505b506040516024016117809493929190612015565b60408051808303601f1901815291815260208201805160e094851b6001600160e01b03909116179052519185901b6001600160e01b03191682526117cb939250908990600401612053565b6000604051808303816000875af11580156117ea573d6000803e3d6000fd5b505050506040513d6000823e601f3d908101601f191682016040526118129190810190612089565b506001979650505050505050565b6040805160008082526020820190925261135490859085908590611a76565b600080600061184d876118cb565b91509150816001600160a01b03166339255d5b82836001600160a01b03166362fc305e8b8b8b600067ffffffffffffffff81111561188d5761188d611dcb565b6040519080825280601f01601f1916602001820160405280156118b7576020820181803683370190505b50604051602401611780949392919061212b565b7f65599bf746e17a00ea62e3610586992d88101b78eec3cf380706621fb97ea837547fb969d79d88acd02d04ed7ee7d43b949e7daf093d363abcfbbc43dfdfd1ce969a546001600160a01b0381166116c3576001600160a01b03821661199057826001600160a01b03166320bc44256040518163ffffffff1660e01b8152600401602060405180830381865afa158015611969573d6000803e3d6000fd5b505050506040513d601f19601f8201168201806040525081019061198d9190611fe2565b91505b604051635b69006f60e11b81527fa9214cc96615e0085d3bb077758db69497dc2dce3b2b1e97bc93c3d18d83efd360048201526001600160a01b0383169063b6d200de90602401602060405180830381865afa1580156119f4573d6000803e3d6000fd5b505050506040513d601f19601f82011682018060405250810190611a189190611fe2565b9050817f65599bf746e17a00ea62e3610586992d88101b78eec3cf380706621fb97ea83755807fb969d79d88acd02d04ed7ee7d43b949e7daf093d363abcfbbc43dfdfd1ce969a556001600160a01b0382166116d9576116d9611fff565b6000806000611a84876118cb565b91509150816001600160a01b03166339255d5b82836001600160a01b03166350209a628b8b8b600067ffffffffffffffff81111561188d5761188d611dcb565b6040518060c001604052806006905b6040805160a081018252600080825260208083018290529282018190526060820181905260808201528252600019909201910181611ad35790505090565b6001600160a01b038116811461093c57600080fd5b600060208284031215611b3857600080fd5b8135611b4381611b11565b9392505050565b80516001600160a01b0316825260208082015160ff169083015260408082015163ffffffff9081169184019190915260608083015190911690830152608090810151600b0b910152565b60a08101610f0f8284611b4a565b6103c08101818360005b6006811015611bd657611bc0838351611b4a565b60a0929092019160209190910190600101611bac565b50505092915050565b600060208284031215611bf157600080fd5b813563ffffffff81168114611b4357600080fd5b600060208284031215611c1757600080fd5b5035919050565b600060208284031215611c3057600080fd5b813560ff81168114611b4357600080fd5b60008060408385031215611c5457600080fd5b8235611c5f81611b11565b946020939093013593505050565b634e487b7160e01b600052601160045260246000fd5b600060018201611c9557611c95611c6d565b5060010190565b634e487b7160e01b600052603260045260246000fd5b600063ffffffff821680611cc857611cc8611c6d565b6000190192915050565b600b82810b9082900b036b7fffffffffffffffffffffff19811260016001605f1b0382131715610f0f57610f0f611c6d565b81810381811115610f0f57610f0f611c6d565b600063ffffffff808316818103611d3057611d30611c6d565b6001019392505050565b600b81810b9083900b0160016001605f1b0381136b7fffffffffffffffffffffff1982121715610f0f57610f0f611c6d565b63ffffffff818116838216019080821115611d8957611d89611c6d565b5092915050565b60ff8181168382160190811115610f0f57610f0f611c6d565b600082611dc657634e487b7160e01b600052601260045260246000fd5b500490565b634e487b7160e01b600052604160045260246000fd5b600181815b80851115611e1c578160001904821115611e0257611e02611c6d565b80851615611e0f57918102915b93841c9390800290611de6565b509250929050565b600082611e3357506001610f0f565b81611e4057506000610f0f565b8160018114611e565760028114611e6057611e7c565b6001915050610f0f565b60ff841115611e7157611e71611c6d565b50506001821b610f0f565b5060208310610133831016604e8410600b8410161715611e9f575081810a610f0f565b611ea98383611de1565b8060001904821115611ebd57611ebd611c6d565b029392505050565b6000611b4360ff841683611e24565b60008060008060808587031215611eea57600080fd5b84519350602085015180600b0b8114611f0257600080fd5b6040860151606090960151949790965092505050565b60005b83811015611f33578181015183820152602001611f1b565b50506000910152565b60008151808452611f54816020860160208601611f18565b601f01601f19169290920160200192915050565b60018060a01b0384168152826020820152606060408201526000611f8f6060830184611f3c565b95945050505050565b6001600160a01b038516815260ff84166020820152608060408201819052600090611fc590830185611f3c565b8281036060840152611fd78185611f3c565b979650505050505050565b600060208284031215611ff457600080fd5b8151611b4381611b11565b634e487b7160e01b600052600160045260246000fd5b6001600160a01b03858116825284811660208301528316604082015260806060820181905260009061204990830184611f3c565b9695505050505050565b6001600160a01b038416815260606020820181905260009061207790830185611f3c565b82810360408401526120498185611f3c565b60006020828403121561209b57600080fd5b815167ffffffffffffffff808211156120b357600080fd5b818401915084601f8301126120c757600080fd5b8151818111156120d9576120d9611dcb565b604051601f8201601f19908116603f0116810190838211818310171561210157612101611dcb565b8160405282815287602084870101111561211a57600080fd5b611fd7836020830160208801611f18565b6001600160a01b03858116825284166020820152600b83900b604082015260806060820181905260009061204990830184611f3c56fea26469706673582212206e9e4a562a159875493d900438972e0a46acb1665a6fc8378e4493fe1f0e1d6564736f6c63430008130033",
    "linkReferences": {}
  },
  "methodIdentifiers": {
    "FLAT_COST_SPONSORSHIP()": "b132a50d",
    "MAX_SPONSORSHIP_LEVEL()": "b5c0b7eb",
    "MAX_SPONSORSHIP_PATH_OUTFLOW()": "f349f56a",
    "calculateFlowRate(uint32)": "7ae058dc",
    "fee(uint32)": "8934c79a",
    "getAllocationForLevel(uint8)": "cbb10d34",
    "getChainOfSponsors(address)": "21fb177a",
    "getProtege(address)": "099e14ce",
    "initialize(address)": "c4d66de8",
    "initializeProxy(address)": "4a0687ef",
    "isProtege(address)": "e4a472c8",
    "mint(uint256)": "a0712d68",
    "owner()": "8da5cb5b",
    "remove(address)": "29092d0e",
    "renounceOwnership()": "715018a6",
    "restartStream()": "57cf7acb",
    "sponsor(address)": "766c4f37",
    "transferOwnership(address)": "f2fde38b",
    "withdraw(address,uint256)": "f3fef3a3"
  },
  "id": 115
}