{
  "abi": [
    {
      "stateMutability": "payable",
      "type": "fallback"
    },
    {
      "inputs": [
        {
          "internalType": "address",
          "name": "initialAddress",
          "type": "address"
        }
      ],
      "name": "initializeProxy",
      "outputs": [],
      "stateMutability": "nonpayable",
      "type": "function"
    },
    {
      "stateMutability": "payable",
      "type": "receive"
    }
  ],
  "bytecode": {
    "object": "0x608060405234801561001057600080fd5b50610205806100206000396000f3fe6080604052600436106100225760003560e01c80634a0687ef1461003957610031565b366100315761002f610059565b005b61002f610059565b34801561004557600080fd5b5061002f61005436600461017f565b61006b565b610069610064610139565b610148565b565b6001600160a01b0381166100c05760405162461bcd60e51b81526020600482015260176024820152765555505350726f78793a207a65726f206164647265737360481b60448201526064015b60405180910390fd5b60006100ca61016c565b6001600160a01b0316146101205760405162461bcd60e51b815260206004820152601e60248201527f5555505350726f78793a20616c726561647920696e697469616c697a6564000060448201526064016100b7565b610136816000805160206101b083398151915255565b50565b600061014361016c565b905090565b3660008037600080366000845af43d6000803e808015610167573d6000f35b3d6000fd5b6000805160206101b08339815191525490565b60006020828403121561019157600080fd5b81356001600160a01b03811681146101a857600080fd5b939250505056fe360894a13ba1a3210667c828492db98dca3e2076cc3735a920a3ca505d382bbca26469706673582212202bd66840fde63fd7c6d94a685aab9abeb6a0d8dad446932c40714925367b95d764736f6c63430008130033",
    "linkReferences": {}
  },
  "methodIdentifiers": {
    "initializeProxy(address)": "4a0687ef"
  },
  "id": 96
}