{
  "abi": [
    {
      "inputs": [
        {
          "internalType": "contract ISuperfluidToken",
          "name": "token",
          "type": "ISuperfluidToken"
        },
        {
          "internalType": "address",
          "name": "account",
          "type": "address"
        },
        {
          "internalType": "uint256",
          "name": "bitmapStateSlotId",
          "type": "uint256"
        },
        {
          "internalType": "uint256",
          "name": "dataStateSlotIDStart",
          "type": "uint256"
        }
      ],
      "name": "listData",
      "outputs": [
        {
          "internalType": "uint32[]",
          "name": "slotIds",
          "type": "uint32[]"
        },
        {
          "internalType": "bytes32[]",
          "name": "dataList",
          "type": "bytes32[]"
        }
      ],
      "stateMutability": "view",
      "type": "function"
    }
  ],
  "bytecode": {
    "object": "0x610a9361003a600b82828239805160001a60731461002d57634e487b7160e01b600052600060045260246000fd5b30600052607381538281f3fe730000000000000000000000000000000000000000301460806040526004361061004b5760003560e01c806306967a8c14610050578063a32470101461007a578063a9472bf8146100af575b600080fd5b61006361005e3660046106f9565b6100d1565b60405161007192919061073f565b60405180910390f35b81801561008657600080fd5b5061009a6100953660046107c0565b6102f7565b60405163ffffffff9091168152602001610071565b8180156100bb57600080fd5b506100cf6100ca366004610811565b610571565b005b6060806000866001600160a01b0316634b61cc3330888860016040518563ffffffff1660e01b8152600401610109949392919061086d565b600060405180830381865afa158015610126573d6000803e3d6000fd5b505050506040513d6000823e601f3d908101601f1916820160405261014e91908101906108ac565b60008151811061016057610160610969565b60209081029190910101516040805161010080825261202082019092529192508160200160208202803683375050604080516101008082526120208201909252929550905060208201612000803683370190505091506000805b61010063ffffffff821610156102e557600163ffffffff821684901c16156102d557808583815181106101ef576101ef610969565b602002602001019063ffffffff16908163ffffffff1681525050886001600160a01b0316634b61cc33308a8463ffffffff168a61022c9190610995565b60016040518563ffffffff1660e01b815260040161024d949392919061086d565b600060405180830381865afa15801561026a573d6000803e3d6000fd5b505050506040513d6000823e601f3d908101601f1916820160405261029291908101906108ac565b6000815181106102a4576102a4610969565b60200260200101518483815181106102be576102be610969565b60209081029190910101526102d2826109ae565b91505b6102de816109c7565b90506101ba565b50808452808352505094509492505050565b600080866001600160a01b0316634b61cc3330888860016040518563ffffffff1660e01b815260040161032d949392919061086d565b600060405180830381865afa15801561034a573d6000803e3d6000fd5b505050506040513d6000823e601f3d908101601f1916820160405261037291908101906108ac565b60008151811061038457610384610969565b602002602001015160001c9050600091505b61010063ffffffff83161015610512578163ffffffff1681901c600116600003610502576040805160018082528183019092526000916020808301908036833701905050905083816000815181106103f0576103f0610969565b60209081029190910101526001600160a01b03881663090c415e8861041b63ffffffff871689610995565b846040518463ffffffff1660e01b815260040161043a939291906109ea565b600060405180830381600087803b15801561045457600080fd5b505af1158015610468573d6000803e3d6000fd5b505050508263ffffffff166001901b821760001b8160008151811061048f5761048f610969565b602090810291909101015260405163048620af60e11b81526001600160a01b0389169063090c415e906104ca908a908a9086906004016109ea565b600060405180830381600087803b1580156104e457600080fd5b505af11580156104f8573d6000803e3d6000fd5b5050505050610512565b61050b826109c7565b9150610396565b61010063ffffffff8316106105675760405162461bcd60e51b815260206004820152601760248201527614db1bdd109a5d1b585c081bdd5d081bd988189bdd5b99604a1b604482015260640160405180910390fd5b5095945050505050565b604051634b61cc3360e01b81526000906001600160a01b03861690634b61cc33906105a79030908890889060019060040161086d565b600060405180830381865afa1580156105c4573d6000803e3d6000fd5b505050506040513d6000823e601f3d908101601f191682016040526105ec91908101906108ac565b6000815181106105fe576105fe610969565b6020908102919091018101516040805160018082528183019092529193506000928281019080368337019050509050600163ffffffff84161b821660000361064857610648610a47565b8263ffffffff166001901b19821660001b8160008151811061066c5761066c610969565b602090810291909101015260405163048620af60e11b81526001600160a01b0387169063090c415e906106a7908890889086906004016109ea565b600060405180830381600087803b1580156106c157600080fd5b505af11580156106d5573d6000803e3d6000fd5b50505050505050505050565b6001600160a01b03811681146106f657600080fd5b50565b6000806000806080858703121561070f57600080fd5b843561071a816106e1565b9350602085013561072a816106e1565b93969395505050506040820135916060013590565b604080825283519082018190526000906020906060840190828701845b8281101561077e57815163ffffffff168452928401929084019060010161075c565b5050508381038285015284518082528583019183019060005b818110156107b357835183529284019291840191600101610797565b5090979650505050505050565b600080600080600060a086880312156107d857600080fd5b85356107e3816106e1565b945060208601356107f3816106e1565b94979496505050506040830135926060810135926080909101359150565b6000806000806080858703121561082757600080fd5b8435610832816106e1565b93506020850135610842816106e1565b925060408501359150606085013563ffffffff8116811461086257600080fd5b939692955090935050565b6001600160a01b0394851681529290931660208301526040820152606081019190915260800190565b634e487b7160e01b600052604160045260246000fd5b600060208083850312156108bf57600080fd5b82516001600160401b03808211156108d657600080fd5b818501915085601f8301126108ea57600080fd5b8151818111156108fc576108fc610896565b8060051b604051601f19603f8301168101818110858211171561092157610921610896565b60405291825284820192508381018501918883111561093f57600080fd5b938501935b8285101561095d57845184529385019392850192610944565b98975050505050505050565b634e487b7160e01b600052603260045260246000fd5b634e487b7160e01b600052601160045260246000fd5b808201808211156109a8576109a861097f565b92915050565b6000600182016109c0576109c061097f565b5060010190565b600063ffffffff8083168181036109e0576109e061097f565b6001019392505050565b6001600160a01b038416815260208082018490526060604083018190528351908301819052600091848101916080850190845b81811015610a3957845183529383019391830191600101610a1d565b509098975050505050505050565b634e487b7160e01b600052600160045260246000fdfea26469706673582212203dff466f621be7d226cfc7c1fff5946fbf21d8c8e95ff5054d1eef0dc8a77d6a64736f6c63430008130033",
    "linkReferences": {}
  },
  "methodIdentifiers": {
    "clearSlot(ISuperfluidToken,address,uint256,uint32)": "a9472bf8",
    "findEmptySlotAndFill(ISuperfluidToken,address,uint256,uint256,bytes32)": "a3247010",
    "listData(ISuperfluidToken,address,uint256,uint256)": "06967a8c"
  },
  "id": 84
}