{
  "abi": [
    {
      "inputs": [],
      "name": "DEPLOY_AGREEMENTS_REQUIRES_DEPLOY_CORE",
      "type": "error"
    },
    {
      "inputs": [],
      "name": "DEPLOY_PERIPHERALS_REQUIRES_DEPLOY_AGREEMENTS",
      "type": "error"
    },
    {
      "inputs": [],
      "name": "DEPLOY_PERIPHERALS_REQUIRES_DEPLOY_CORE",
      "type": "error"
    },
    {
      "inputs": [],
      "name": "DEPLOY_SUPER_TOKEN_CONTRACTS_REQUIRES_DEPLOY_CORE",
      "type": "error"
    },
    {
      "inputs": [],
      "name": "DEPLOY_SUPER_TOKEN_REQUIRES_1820",
      "type": "error"
    },
    {
      "inputs": [],
      "name": "DEPLOY_SUPER_TOKEN_REQUIRES_DEPLOY_SUPER_TOKEN_CONTRACTS",
      "type": "error"
    },
    {
      "inputs": [],
      "name": "DEPLOY_TOGA_REQUIRES_1820",
      "type": "error"
    },
    {
      "inputs": [],
      "name": "RESOLVER_LIST_REQUIRES_DEPLOY_PERIPHERALS",
      "type": "error"
    },
    {
      "inputs": [],
      "name": "DEFAULT_APP_WHITELISTING_ENABLED",
      "outputs": [
        {
          "internalType": "bool",
          "name": "",
          "type": "bool"
        }
      ],
      "stateMutability": "view",
      "type": "function"
    },
    {
      "inputs": [],
      "name": "DEFAULT_LIQUIDATION_PERIOD",
      "outputs": [
        {
          "internalType": "uint256",
          "name": "",
          "type": "uint256"
        }
      ],
      "stateMutability": "view",
      "type": "function"
    },
    {
      "inputs": [],
      "name": "DEFAULT_NON_UPGRADEABLE",
      "outputs": [
        {
          "internalType": "bool",
          "name": "",
          "type": "bool"
        }
      ],
      "stateMutability": "view",
      "type": "function"
    },
    {
      "inputs": [],
      "name": "DEFAULT_PATRICIAN_PERIOD",
      "outputs": [
        {
          "internalType": "uint256",
          "name": "",
          "type": "uint256"
        }
      ],
      "stateMutability": "view",
      "type": "function"
    },
    {
      "inputs": [],
      "name": "DEFAULT_REWARD_ADDRESS",
      "outputs": [
        {
          "internalType": "address",
          "name": "",
          "type": "address"
        }
      ],
      "stateMutability": "view",
      "type": "function"
    },
    {
      "inputs": [],
      "name": "DEFAULT_TOGA_MIN_BOND_DURATION",
      "outputs": [
        {
          "internalType": "uint256",
          "name": "",
          "type": "uint256"
        }
      ],
      "stateMutability": "view",
      "type": "function"
    },
    {
      "inputs": [
        {
          "internalType": "uint256",
          "name": "",
          "type": "uint256"
        }
      ],
      "name": "DEFAULT_TRUSTED_FORWARDERS",
      "outputs": [
        {
          "internalType": "address",
          "name": "",
          "type": "address"
        }
      ],
      "stateMutability": "view",
      "type": "function"
    },
    {
      "inputs": [],
      "name": "RESOLVER_BASE_SUPER_TOKEN_KEY",
      "outputs": [
        {
          "internalType": "string",
          "name": "",
          "type": "string"
        }
      ],
      "stateMutability": "view",
      "type": "function"
    },
    {
      "inputs": [],
      "name": "RESOLVER_BASE_TOKEN_KEY",
      "outputs": [
        {
          "internalType": "string",
          "name": "",
          "type": "string"
        }
      ],
      "stateMutability": "view",
      "type": "function"
    },
    {
      "inputs": [],
      "name": "deployAgreementContracts",
      "outputs": [],
      "stateMutability": "nonpayable",
      "type": "function"
    },
    {
      "inputs": [],
      "name": "deployCoreContracts",
      "outputs": [],
      "stateMutability": "nonpayable",
      "type": "function"
    },
    {
      "inputs": [
        {
          "components": [
            {
              "internalType": "bool",
              "name": "nonUpgradeable",
              "type": "bool"
            },
            {
              "internalType": "bool",
              "name": "appWhitelistingEnabled",
              "type": "bool"
            },
            {
              "internalType": "address[]",
              "name": "trustedForwarders",
              "type": "address[]"
            },
            {
              "internalType": "address",
              "name": "defaultRewardAddress",
              "type": "address"
            },
            {
              "internalType": "uint256",
              "name": "liquidationPeriod",
              "type": "uint256"
            },
            {
              "internalType": "uint256",
              "name": "patricianPeriod",
              "type": "uint256"
            },
            {
              "internalType": "uint256",
              "name": "minBondDuration",
              "type": "uint256"
            }
          ],
          "internalType": "struct SuperfluidFrameworkDeployer.TestFrameworkConfigs",
          "name": "configs",
          "type": "tuple"
        }
      ],
      "name": "deployCoreContracts",
      "outputs": [],
      "stateMutability": "nonpayable",
      "type": "function"
    },
    {
      "inputs": [
        {
          "internalType": "string",
          "name": "_name",
          "type": "string"
        },
        {
          "internalType": "string",
          "name": "_symbol",
          "type": "string"
        }
      ],
      "name": "deployNativeAssetSuperToken",
      "outputs": [
        {
          "internalType": "contract ISETH",
          "name": "nativeAssetSuperToken",
          "type": "address"
        }
      ],
      "stateMutability": "nonpayable",
      "type": "function"
    },
    {
      "inputs": [],
      "name": "deployPeripheralContracts",
      "outputs": [],
      "stateMutability": "nonpayable",
      "type": "function"
    },
    {
      "inputs": [
        {
          "components": [
            {
              "internalType": "bool",
              "name": "nonUpgradeable",
              "type": "bool"
            },
            {
              "internalType": "bool",
              "name": "appWhitelistingEnabled",
              "type": "bool"
            },
            {
              "internalType": "address[]",
              "name": "trustedForwarders",
              "type": "address[]"
            },
            {
              "internalType": "address",
              "name": "defaultRewardAddress",
              "type": "address"
            },
            {
              "internalType": "uint256",
              "name": "liquidationPeriod",
              "type": "uint256"
            },
            {
              "internalType": "uint256",
              "name": "patricianPeriod",
              "type": "uint256"
            },
            {
              "internalType": "uint256",
              "name": "minBondDuration",
              "type": "uint256"
            }
          ],
          "internalType": "struct SuperfluidFrameworkDeployer.TestFrameworkConfigs",
          "name": "configs",
          "type": "tuple"
        }
      ],
      "name": "deployPeripheralContracts",
      "outputs": [],
      "stateMutability": "nonpayable",
      "type": "function"
    },
    {
      "inputs": [
        {
          "internalType": "string",
          "name": "_name",
          "type": "string"
        },
        {
          "internalType": "string",
          "name": "_symbol",
          "type": "string"
        },
        {
          "internalType": "uint256",
          "name": "_initialSupply",
          "type": "uint256"
        }
      ],
      "name": "deployPureSuperToken",
      "outputs": [
        {
          "internalType": "contract IPureSuperToken",
          "name": "pureSuperToken",
          "type": "address"
        }
      ],
      "stateMutability": "nonpayable",
      "type": "function"
    },
    {
      "inputs": [],
      "name": "deploySuperTokenContracts",
      "outputs": [],
      "stateMutability": "nonpayable",
      "type": "function"
    },
    {
      "inputs": [],
      "name": "deployTestFramework",
      "outputs": [],
      "stateMutability": "nonpayable",
      "type": "function"
    },
    {
      "inputs": [
        {
          "internalType": "string",
          "name": "_underlyingName",
          "type": "string"
        },
        {
          "internalType": "string",
          "name": "_underlyingSymbol",
          "type": "string"
        },
        {
          "internalType": "uint8",
          "name": "_decimals",
          "type": "uint8"
        },
        {
          "internalType": "uint256",
          "name": "_mintLimit",
          "type": "uint256"
        }
      ],
      "name": "deployWrapperSuperToken",
      "outputs": [
        {
          "internalType": "contract TestToken",
          "name": "underlyingToken",
          "type": "address"
        },
        {
          "internalType": "contract SuperToken",
          "name": "superToken",
          "type": "address"
        }
      ],
      "stateMutability": "nonpayable",
      "type": "function"
    },
    {
      "inputs": [
        {
          "internalType": "uint8",
          "name": "step",
          "type": "uint8"
        }
      ],
      "name": "executeStep",
      "outputs": [],
      "stateMutability": "nonpayable",
      "type": "function"
    },
    {
      "inputs": [],
      "name": "getFramework",
      "outputs": [
        {
          "components": [
            {
              "internalType": "contract TestGovernance",
              "name": "governance",
              "type": "address"
            },
            {
              "internalType": "contract Superfluid",
              "name": "host",
              "type": "address"
            },
            {
              "internalType": "contract ConstantFlowAgreementV1",
              "name": "cfa",
              "type": "address"
            },
            {
              "components": [
                {
                  "internalType": "contract ISuperfluid",
                  "name": "host",
                  "type": "address"
                },
                {
                  "internalType": "contract IConstantFlowAgreementV1",
                  "name": "cfa",
                  "type": "address"
                }
              ],
              "internalType": "struct CFAv1Library.InitData",
              "name": "cfaLib",
              "type": "tuple"
            },
            {
              "internalType": "contract InstantDistributionAgreementV1",
              "name": "ida",
              "type": "address"
            },
            {
              "components": [
                {
                  "internalType": "contract ISuperfluid",
                  "name": "host",
                  "type": "address"
                },
                {
                  "internalType": "contract IInstantDistributionAgreementV1",
                  "name": "ida",
                  "type": "address"
                }
              ],
              "internalType": "struct IDAv1Library.InitData",
              "name": "idaLib",
              "type": "tuple"
            },
            {
              "internalType": "contract SuperTokenFactory",
              "name": "superTokenFactory",
              "type": "address"
            },
            {
              "internalType": "contract TestResolver",
              "name": "resolver",
              "type": "address"
            },
            {
              "internalType": "contract SuperfluidLoader",
              "name": "superfluidLoader",
              "type": "address"
            },
            {
              "internalType": "contract CFAv1Forwarder",
              "name": "cfaV1Forwarder",
              "type": "address"
            },
            {
              "internalType": "contract IDAv1Forwarder",
              "name": "idaV1Forwarder",
              "type": "address"
            },
            {
              "internalType": "contract TOGA",
              "name": "toga",
              "type": "address"
            }
          ],
          "internalType": "struct SuperfluidFrameworkDeploymentSteps.Framework",
          "name": "sf",
          "type": "tuple"
        }
      ],
      "stateMutability": "view",
      "type": "function"
    },
    {
      "inputs": [],
      "name": "getNumSteps",
      "outputs": [
        {
          "internalType": "uint8",
          "name": "",
          "type": "uint8"
        }
      ],
      "stateMutability": "pure",
      "type": "function"
    },
    {
      "inputs": [
        {
          "internalType": "address",
          "name": "newOwner",
          "type": "address"
        }
      ],
      "name": "transferOwnership",
      "outputs": [],
      "stateMutability": "nonpayable",
      "type": "function"
    }
  ],
  "bytecode": {
    "object": "0x6000608081905260a060408190526200001a9190816200002f565b503480156200002857600080fd5b50620000b0565b82805482825590600052602060002090810192821562000087579160200282015b828111156200008757825182546001600160a01b0319166001600160a01b0390911617825560209092019160019091019062000050565b506200009592915062000099565b5090565b5b808211156200009557600081556001016200009a565b61567880620000c06000396000f3fe60806040523480156200001157600080fd5b5060043610620001365760003560e01c806305bfa3e0146200013b57806306e8358614620001585780631903410d14620001645780632a496648146200018a57806338bc37a414620001945780633df285fe146200019e5780634d59c13614620001de5780635209947014620001e8578063547047c7146200020257806362a32e1e146200020c5780637296cb5a146200023857806376f30be8146200024f5780637dc2dc121462000259578063888a37b1146200028057806393786bf0146200028b578063acbeaa071462000294578063ad6eb49914620002ab578063b3083cf814620001e8578063c8c25ad514620002c2578063cbcd744914620002d2578063dfa98ad514620002e9578063f2fde38b1462000431578063fa0215fc1462000448575b600080fd5b6200014561070881565b6040519081526020015b60405180910390f35b620001626200045f565b005b6200017b6200017536600462002962565b6200046b565b6040516200014f91906200297c565b6200016262000496565b62000162620004a0565b620001cf6040518060400160405280601181526020017039bab832b93a37b5b2b739973a32b9ba1760791b81525081565b6040516200014f9190620029e4565b6200014561384081565b620001f1600081565b60405190151581526020016200014f565b62000162620004c3565b620001cf6040518060400160405280600c81526020016b3a37b5b2b739973a32b9ba1760a11b81525081565b620001626200024936600462002b4b565b620004e1565b62000162620004ec565b620002706200026a36600462002c76565b6200058d565b6040516200014f92919062002d14565b6200014562093a8081565b6200017b604581565b62000162620002a536600462002d2e565b620008d1565b62000162620002bc36600462002b4b565b620008dc565b604051600881526020016200014f565b6200017b620002e336600462002d4c565b620008e7565b62000422604080516101808101825260008082526020808301829052828401829052835180850185528281528082018390526060840152608083018290528351808501909452818452830181905260a082019290925260c0810182905260e081018290526101008101829052610120810182905261014081018290526101608101919091525060408051610180810182526001546001600160a01b03610100918290048116835260025481166020808501829052600354831685870181905286518088018852838152808301919091526060860152600554831660808601819052865180880190975291865285015260a0830193909352600c54831660c0830152600e54831660e0830152600f548316908201526010548216610120820152601154821661014082015260135490911661016082015290565b6040516200014f919062002dd9565b620001626200044236600462002ee8565b62000aef565b6200017b6200045936600462002f08565b62000b5c565b6200046962000dd3565b565b600081815481106200047c57600080fd5b6000918252602090912001546001600160a01b0316905081565b6200046962000e11565b620004aa620028fc565b6001815260006020820152620004c08162000e59565b50565b620004cd620028fc565b62093a8060c0820152620004c08162000e78565b620004c08162000e78565b6040805160e08101825260008082526020808301829052815484518183028101830186528181529294840192918591908301828280156200055757602002820191906000526020600020905b81546001600160a01b0316815260019091019060200180831162000538575b5050509183525050604560208201526138406040820152610708606082015262093a806080909101529050620004c08162000f74565b600c5460009081906001600160a01b0316620005bc57604051635006ee6d60e11b815260040160405180910390fd5b620005c662000ff8565b620005e357604051622b682760e71b815260040160405180910390fd5b6040516302a510b960e61b815273__$836f3661f552aa3d46ab242591622d7b50$__9063a9442e409062000626908b908b908b908b908b908b9060040162002fab565b602060405180830381865af415801562000644573d6000803e3d6000fd5b505050506040513d601f19601f820116820180604052508101906200066a919062002fef565b915060008686604051602001620006839291906200300f565b60408051601f1981840301815290829052600c549092506001600160a01b03169063431f1481908590600190620006c1908c908c9060200162003025565b604051602081830303815290604052856040518563ffffffff1660e01b8152600401620006f2949392919062003047565b6020604051808303816000875af115801562000712573d6000803e3d6000fd5b505050506040513d601f19601f8201168201806040525081019062000738919062002fef565b915060006040518060400160405280600c81526020016b3a37b5b2b739973a32b9ba1760a11b815250846001600160a01b03166395d89b416040518163ffffffff1660e01b8152600401600060405180830381865afa158015620007a0573d6000803e3d6000fd5b505050506040513d6000823e601f3d908101601f19168201604052620007ca9190810190620030a4565b604051602001620007dd92919062003142565b6040516020818303038152906040529050620007fc6001828662001013565b60006040518060400160405280601181526020017039bab832b93a37b5b2b739973a32b9ba1760791b815250846001600160a01b03166395d89b416040518163ffffffff1660e01b8152600401600060405180830381865afa15801562000867573d6000803e3d6000fd5b505050506040513d6000823e601f3d908101601f19168201604052620008919190810190620030a4565b604051602001620008a492919062003142565b6040516020818303038152906040529050620008c36001828662001013565b505050965096945050505050565b620004c081620010b2565b620004c08162000e59565b600c546000906001600160a01b03166200091457604051635006ee6d60e11b815260040160405180910390fd5b6200091e62000ff8565b6200093b57604051622b682760e71b815260040160405180910390fd5b600073__$836f3661f552aa3d46ab242591622d7b50$__63f7c3bdc96040518163ffffffff1660e01b8152600401602060405180830381865af415801562000987573d6000803e3d6000fd5b505050506040513d601f19601f82011682018060405250810190620009ad919062002fef565b600c54604051633504b4d160e21b81529193508392506001600160a01b03169063d412d34490620009e39084906004016200297c565b600060405180830381600087803b158015620009fe57600080fd5b505af115801562000a13573d6000803e3d6000fd5b50506040516285fc1360e71b81526001600160a01b03851692506342fe0980915062000a50906000906012908b908b908b908b9060040162003175565b600060405180830381600087803b15801562000a6b57600080fd5b505af115801562000a80573d6000803e3d6000fd5b5050505060006040518060400160405280601181526020017039bab832b93a37b5b2b739973a32b9ba1760791b815250858560405160200162000ac693929190620031c7565b604051602081830303815290604052905062000ae56001828562001013565b5050949350505050565b60015460405163f2fde38b60e01b81526101009091046001600160a01b03169063f2fde38b9062000b259084906004016200297c565b600060405180830381600087803b15801562000b4057600080fd5b505af115801562000b55573d6000803e3d6000fd5b5050505050565b600c546000906001600160a01b031662000b8957604051635006ee6d60e11b815260040160405180910390fd5b62000b9362000ff8565b62000bb057604051622b682760e71b815260040160405180910390fd5b600073__$836f3661f552aa3d46ab242591622d7b50$__631f2d18966040518163ffffffff1660e01b8152600401602060405180830381865af415801562000bfc573d6000803e3d6000fd5b505050506040513d601f19601f8201168201806040525081019062000c22919062002fef565b600c54604051633504b4d160e21b81529192506001600160a01b03169063d412d3449062000c559084906004016200297c565b600060405180830381600087803b15801562000c7057600080fd5b505af115801562000c85573d6000803e3d6000fd5b505060405163588ca48760e11b81526001600160a01b038416925063b119490e915062000cbf908a908a908a908a908a90600401620031f1565b600060405180830381600087803b15801562000cda57600080fd5b505af115801562000cef573d6000803e3d6000fd5b5050505080915062000d5260016040518060400160405280601181526020017039bab832b93a37b5b2b739973a32b9ba1760791b815250878760405160200162000d3c93929190620031c7565b6040516020818303038152906040528462001013565b60405163a9059cbb60e01b81526001600160a01b0383169063a9059cbb9062000d8290339087906004016200322f565b6020604051808303816000875af115801562000da2573d6000803e3d6000fd5b505050506040513d601f19601f8201168201806040525081019062000dc8919062003248565b505095945050505050565b6002546001600160a01b031662000dfd57604051633b8034db60e11b815260040160405180910390fd5b62000e0762001291565b620004696200133b565b6002546001600160a01b031662000e3b5760405163bb57a2c760e01b815260040160405180910390fd5b62000e45620013e5565b62000e4f620018f9565b62000469620019b1565b62000e643062001a78565b620004c08160000151826020015162001b7a565b6002546001600160a01b031662000ea25760405163608e9db560e01b815260040160405180910390fd5b62000ead3062001c1e565b62000eb762001cbe565b600e54604051637048027560e01b81526001600160a01b039091169063704802759062000ee99033906004016200297c565b600060405180830381600087803b15801562000f0457600080fd5b505af115801562000f19573d6000803e3d6000fd5b5050505062000f2762001d68565b62000f3162001e12565b62000f408160c0015162001eba565b6003546001600160a01b031662000f6a576040516302a9c2c560e61b815260040160405180910390fd5b620004c062001eed565b62000f7f8162000e59565b62000f8962001f5e565b62000fa7816060015182608001518360a00151846040015162001fd1565b62000fb162000dd3565b62000fbb6200204e565b62000fc562000e11565b62000fcf62002331565b62000fda8162000e78565b62000fe46200247f565b62000fee620024c5565b620004c06200250b565b731820a4b7618bde71dce8cdc73aab6c95905fad243b151590565b600e546001600160a01b03166200103d5760405163521c4a7d60e01b815260040160405180910390fd5b8215620010ad57600e5460405163a815ff1560e01b81526001600160a01b039091169063a815ff159062001078908590859060040162003268565b600060405180830381600087803b1580156200109357600080fd5b505af1158015620010a8573d6000803e3d6000fd5b505050505b505050565b60015460ff828116911614620011005760405162461bcd60e51b815260206004820152600e60248201526d0496e636f727265637420737465760941b60448201526064015b60405180910390fd5b8060ff166000036200111d57620011173062001a78565b62001260565b8060ff1660010362001137576200111760016000620027a1565b8060ff166002036200114d57620011176200282a565b8060ff166003036200116d57620011636200283e565b6200111762002852565b600460ff82161462001260578060ff166005036200118f5762001117620013e5565b8060ff16600603620011a5576200111762002866565b8060ff166007036200122857620011bc306200287a565b600e54604051637048027560e01b81526001600160a01b0390911690637048027590620011ee9033906004016200297c565b600060405180830381600087803b1580156200120957600080fd5b505af11580156200121e573d6000803e3d6000fd5b5050505062001260565b60405162461bcd60e51b815260206004820152600c60248201526b0496e76616c696420737465760a41b6044820152606401620010f7565b6001805460ff16906000620012758362003294565b91906101000a81548160ff021916908360ff1602179055505050565b600254604051630dbabbff60e11b815273__$d412c98dbcef62e4a5e577aa712fa982a3$__91631b7577fe91620012d5916001600160a01b0316906004016200297c565b602060405180830381865af4158015620012f3573d6000803e3d6000fd5b505050506040513d601f19601f8201168201806040525081019062001319919062002fef565b600480546001600160a01b0319166001600160a01b0392909216919091179055565b600254604051630cce0ce360e31b815273__$5d450739ee6302481014c8888f319cbb05$__916366706718916200137f916001600160a01b0316906004016200297c565b602060405180830381865af41580156200139d573d6000803e3d6000fd5b505050506040513d601f19601f82011682018060405250810190620013c3919062002fef565b600680546001600160a01b0319166001600160a01b0392909216919091179055565b600073__$1b2510be4c6ffe8748904f5f776507ce3a$__63c465e06c6040518163ffffffff1660e01b8152600401602060405180830381865af415801562001431573d6000803e3d6000fd5b505050506040513d601f19601f8201168201806040525081019062001457919062002fef565b9050600073__$1b2510be4c6ffe8748904f5f776507ce3a$__63c465e06c6040518163ffffffff1660e01b8152600401602060405180830381865af4158015620014a5573d6000803e3d6000fd5b505050506040513d601f19601f82011682018060405250810190620014cb919062002fef565b600254604051635e1673bb60e11b815291925073__$052521eaae40fa43960a2c5a8d896a28e2$__9163bc2ce7769162001516916001600160a01b0390911690859060040162002d14565b602060405180830381865af415801562001534573d6000803e3d6000fd5b505050506040513d601f19601f820116820180604052508101906200155a919062002fef565b600780546001600160a01b0319166001600160a01b039290921691821790556040805163132075a760e31b81529051639903ad389160048082019260009290919082900301818387803b158015620015b157600080fd5b505af1158015620015c6573d6000803e3d6000fd5b50506002546040516326c043d360e11b815273__$052521eaae40fa43960a2c5a8d896a28e2$__9350634d8087a6925062001610916001600160a01b031690869060040162002d14565b602060405180830381865af41580156200162e573d6000803e3d6000fd5b505050506040513d601f19601f8201168201806040525081019062001654919062002fef565b600880546001600160a01b0319166001600160a01b039290921691821790556040805163132075a760e31b81529051639903ad389160048082019260009290919082900301818387803b158015620016ab57600080fd5b505af1158015620016c0573d6000803e3d6000fd5b5050600754604051634a0687ef60e01b81526001600160a01b038087169450634a0687ef9350620016f69216906004016200297c565b600060405180830381600087803b1580156200171157600080fd5b505af115801562001726573d6000803e3d6000fd5b5050600854604051634a0687ef60e01b81526001600160a01b038086169450634a0687ef93506200175c9216906004016200297c565b600060405180830381600087803b1580156200177757600080fd5b505af11580156200178c573d6000803e3d6000fd5b50506040805163266c45bb60e11b81526004810191909152601460448201527310dbdb9cdd185b9d0813dd5d199b1bddc813919560621b606482015260806024820152600360848201526221a7a360e91b60a48201526001600160a01b0385169250634cd88b76915060c401600060405180830381600087803b1580156200181357600080fd5b505af115801562001828573d6000803e3d6000fd5b50506040805163266c45bb60e11b81526004810191909152601360448201527210dbdb9cdd185b9d08125b999b1bddc8139195606a1b606482015260806024820152600360848201526221a4a360e91b60a48201526001600160a01b0384169250634cd88b76915060c401600060405180830381600087803b158015620018ae57600080fd5b505af1158015620018c3573d6000803e3d6000fd5b5050600980546001600160a01b039586166001600160a01b031991821617909155600a8054949095169316929092179092555050565b600254600954600a54604051630e07777960e31b815273__$11bab9f39d2a090f71d030c5089fd7ebe6$__9363703bbbc8936200194b936001600160a01b0392831693918316921690600401620032c2565b602060405180830381865af415801562001969573d6000803e3d6000fd5b505050506040513d601f19601f820116820180604052508101906200198f919062002fef565b600b80546001600160a01b0319166001600160a01b0392909216919091179055565b600254600b54600754600854604051630243059d60e01b81526001600160a01b0394851660048201529284166024840152908316604483015291909116606482015273__$87aa05c2eb3f6f4a9d1b2a30ab6857af1a$__90630243059d90608401602060405180830381865af415801562001a30573d6000803e3d6000fd5b505050506040513d601f19601f8201168201806040525081019062001a56919062002fef565b600d80546001600160a01b0319166001600160a01b0392909216919091179055565b73__$ec364b5f847687f411f7aac97ee63693c7$__63c3acf1b36040518163ffffffff1660e01b8152600401602060405180830381865af415801562001ac2573d6000803e3d6000fd5b505050506040513d601f19601f8201168201806040525081019062001ae8919062002fef565b60018054610100600160a81b0319166101006001600160a01b0393841681029190911791829055604051633f5b172b60e11b815273__$ec364b5f847687f411f7aac97ee63693c7$__93637eb62e569362001b4c9390041690859060040162002d14565b60006040518083038186803b15801562001b6557600080fd5b505af415801562000b55573d6000803e3d6000fd5b604051638a25422160e01b81528215156004820152811515602482015273__$b64dc458336693064dc03316c87e5ccace$__90638a25422190604401602060405180830381865af415801562001bd4573d6000803e3d6000fd5b505050506040513d601f19601f8201168201806040525081019062001bfa919062002fef565b600280546001600160a01b0319166001600160a01b03929092169190911790555050565b604051632f0f279d60e01b815273__$87aa05c2eb3f6f4a9d1b2a30ab6857af1a$__90632f0f279d9062001c579084906004016200297c565b602060405180830381865af415801562001c75573d6000803e3d6000fd5b505050506040513d601f19601f8201168201806040525081019062001c9b919062002fef565b600e80546001600160a01b0319166001600160a01b039290921691909117905550565b600e54604051630b5bd8c560e01b815273__$d8594478a12b92450a3093a92fdc39b391$__91630b5bd8c59162001d02916001600160a01b0316906004016200297c565b602060405180830381865af415801562001d20573d6000803e3d6000fd5b505050506040513d601f19601f8201168201806040525081019062001d46919062002fef565b600f80546001600160a01b0319166001600160a01b0392909216919091179055565b60025460405163269c683160e11b815273__$fc84b0432f3e058b09e50f9d35a0fabfa6$__91634d38d0629162001dac916001600160a01b0316906004016200297c565b602060405180830381865af415801562001dca573d6000803e3d6000fd5b505050506040513d601f19601f8201168201806040525081019062001df0919062002fef565b601080546001600160a01b0319166001600160a01b0392909216919091179055565b600254604051623b2bcd60e01b815273__$8e0f7691e0f43a60839c100eec89c3f84c$__91623b2bcd9162001e54916001600160a01b0316906004016200297c565b602060405180830381865af415801562001e72573d6000803e3d6000fd5b505050506040513d601f19601f8201168201806040525081019062001e98919062002fef565b601180546001600160a01b0319166001600160a01b0392909216919091179055565b62001ec462000ff8565b62001ee257604051630c9b12e760e01b815260040160405180910390fd5b620004c0816200288f565b6002546003546040516001600160a01b03928316929091169062001f119062002946565b62001f1e92919062002d14565b604051809103906000f08015801562001f3b573d6000803e3d6000fd5b50601280546001600160a01b0319166001600160a01b0392909216919091179055565b60025460015460405163189acdbd60e31b81526001600160a01b039283169263c4d66de89262001f9b92610100909104909116906004016200297c565b600060405180830381600087803b15801562001fb657600080fd5b505af115801562001fcb573d6000803e3d6000fd5b50505050565b600154600254604051630b520f0360e31b81526001600160a01b03610100909304831692635a90781892620020149291169088908890889088906004016200332b565b600060405180830381600087803b1580156200202f57600080fd5b505af115801562002044573d6000803e3d6000fd5b5050505050505050565b6001546002546004805460405163cadf8f8560e01b81526001600160a01b0361010090950485169463cadf8f8594620020909490821693909116910162002d14565b600060405180830381600087803b158015620020ab57600080fd5b505af1158015620020c0573d6000803e3d6000fd5b50506002546004805460408051633b982ccf60e11b815290516001600160a01b03948516965063b6d200de95509390911692637730599e928281019260209291908290030181865afa1580156200211b573d6000803e3d6000fd5b505050506040513d601f19601f8201168201806040525081019062002141919062003367565b6040518263ffffffff1660e01b81526004016200216091815260200190565b602060405180830381865afa1580156200217e573d6000803e3d6000fd5b505050506040513d601f19601f82011682018060405250810190620021a4919062002fef565b600380546001600160a01b0319166001600160a01b0392831617905560015460025460065460405163cadf8f8560e01b815261010090930484169363cadf8f8593620021fa938216929091169060040162002d14565b600060405180830381600087803b1580156200221557600080fd5b505af11580156200222a573d6000803e3d6000fd5b505060025460065460408051633b982ccf60e11b815290516001600160a01b03938416955063b6d200de94509190921691637730599e9160048083019260209291908290030181865afa15801562002286573d6000803e3d6000fd5b505050506040513d601f19601f82011682018060405250810190620022ac919062003367565b6040518263ffffffff1660e01b8152600401620022cb91815260200190565b602060405180830381865afa158015620022e9573d6000803e3d6000fd5b505050506040513d601f19601f820116820180604052508101906200230f919062002fef565b600580546001600160a01b0319166001600160a01b0392909216919091179055565b6001546002546001600160a01b0361010090920482169163427942a491166000806040519080825280602002602001820160405280156200237c578160200160208202803683370190505b50600d546040516001600160e01b031960e087901b168152620023af949392916001600160a01b03169060040162003381565b600060405180830381600087803b158015620023ca57600080fd5b505af1158015620023df573d6000803e3d6000fd5b50505050600260009054906101000a90046001600160a01b03166001600160a01b031663731aed6e6040518163ffffffff1660e01b8152600401602060405180830381865afa15801562002437573d6000803e3d6000fd5b505050506040513d601f19601f820116820180604052508101906200245d919062002fef565b600c80546001600160a01b0319166001600160a01b0392909216919091179055565b6001546002546010546040516355c2378d60e11b81526101009093046001600160a01b039081169363ab846f1a9362001f9b9390831692600092911690600401620032c2565b6001546002546011546040516355c2378d60e11b81526101009093046001600160a01b039081169363ab846f1a9362001f9b9390831692600092911690600401620032c2565b600e546001546040805163a815ff1560e01b81526004810191909152601360448201527215195cdd11dbdd995c9b985b98d94b9d195cdd606a1b60648201526001600160a01b036101009092048216602482015291169063a815ff1590608401600060405180830381600087803b1580156200258657600080fd5b505af11580156200259b573d6000803e3d6000fd5b5050600e546002546040805163a815ff1560e01b81526004810191909152600f60448201526e14dd5c195c999b1d5a590b9d195cdd608a1b60648201526001600160a01b0391821660248201529116925063a815ff159150608401600060405180830381600087803b1580156200261157600080fd5b505af115801562002626573d6000803e3d6000fd5b5050600e54600f546040805163a815ff1560e01b8152600481019190915260136044820152725375706572666c7569644c6f616465722d763160681b60648201526001600160a01b0391821660248201529116925063a815ff159150608401600060405180830381600087803b158015620026a057600080fd5b505af1158015620026b5573d6000803e3d6000fd5b5050600e80546010546040805163a815ff1560e01b8152600481019190915260448101939093526d21a320bb18a337b93bb0b93232b960911b60648401526001600160a01b03908116602484015216925063a815ff159150608401600060405180830381600087803b1580156200272b57600080fd5b505af115801562002740573d6000803e3d6000fd5b5050600e80546011546040805163a815ff1560e01b8152600481019190915260448101939093526d24a220bb18a337b93bb0b93232b960911b60648401526001600160a01b03908116602484015216925063a815ff15915060840162001f9b565b620027ad828262001b7a565b620027b762001f5e565b62002826604561384061070860008054806020026020016040519081016040528092919081815260200182805480156200281b57602002820191906000526020600020905b81546001600160a01b03168152600190910190602001808311620027fc575b505050505062001fd1565b5050565b6200283462000dfd565b620004696200204e565b6200284862001d68565b620004696200247f565b6200285c62001e12565b62000469620024c5565b6200287062000e45565b6200046962002331565b620028858162001c1e565b62000fee62001cbe565b6002546040516001600160a01b03909116908290620028ae9062002954565b620028bb9291906200322f565b604051809103906000f080158015620028d8573d6000803e3d6000fd5b50601380546001600160a01b0319166001600160a01b039290921691909117905550565b6040518060e001604052806000151581526020016000151581526020016060815260200160006001600160a01b031681526020016000815260200160008152602001600081525090565b610a5b80620033c283390190565b6118268062003e1d83390190565b6000602082840312156200297557600080fd5b5035919050565b6001600160a01b0391909116815260200190565b60005b83811015620029ad57818101518382015260200162002993565b50506000910152565b60008151808452620029d081602086016020860162002990565b601f01601f19169290920160200192915050565b602081526000620029f96020830184620029b6565b9392505050565b634e487b7160e01b600052604160045260246000fd5b60405160e081016001600160401b038111828210171562002a3b5762002a3b62002a00565b60405290565b604051601f8201601f191681016001600160401b038111828210171562002a6c5762002a6c62002a00565b604052919050565b8015158114620004c057600080fd5b803562002a908162002a74565b919050565b6001600160a01b0381168114620004c057600080fd5b803562002a908162002a95565b600082601f83011262002aca57600080fd5b813560206001600160401b0382111562002ae85762002ae862002a00565b8160051b62002af982820162002a41565b928352848101820192828101908785111562002b1457600080fd5b83870192505b8483101562002b4057823562002b308162002a95565b8252918301919083019062002b1a565b979650505050505050565b60006020828403121562002b5e57600080fd5b81356001600160401b038082111562002b7657600080fd5b9083019060e0828603121562002b8b57600080fd5b62002b9562002a16565b62002ba08362002a83565b815262002bb06020840162002a83565b602082015260408301358281111562002bc857600080fd5b62002bd68782860162002ab8565b60408301525062002bea6060840162002aab565b60608201526080830135608082015260a083013560a082015260c083013560c082015280935050505092915050565b60008083601f84011262002c2c57600080fd5b5081356001600160401b0381111562002c4457600080fd5b60208301915083602082850101111562002c5d57600080fd5b9250929050565b803560ff8116811462002a9057600080fd5b6000806000806000806080878903121562002c9057600080fd5b86356001600160401b038082111562002ca857600080fd5b62002cb68a838b0162002c19565b9098509650602089013591508082111562002cd057600080fd5b5062002cdf89828a0162002c19565b909550935062002cf490506040880162002c64565b9150606087013590509295509295509295565b6001600160a01b03169052565b6001600160a01b0392831681529116602082015260400190565b60006020828403121562002d4157600080fd5b620029f98262002c64565b6000806000806040858703121562002d6357600080fd5b84356001600160401b038082111562002d7b57600080fd5b62002d898883890162002c19565b9096509450602087013591508082111562002da357600080fd5b5062002db28782880162002c19565b95989497509550505050565b80516001600160a01b03908116835260209182015116910152565b60006101c08201905062002def82845162002d07565b602083015162002e03602084018262002d07565b50604083015162002e18604084018262002d07565b50606083015162002e2d606084018262002dbe565b50608083015162002e4260a084018262002d07565b5060a083015162002e5760c084018262002dbe565b5060c083015161010062002e6e8185018362002d07565b60e0850151915061012062002e868186018462002d07565b9085015191506101409062002e9e8583018462002d07565b850151915061016062002eb48582018462002d07565b81860151925062002eca61018086018462002d07565b850151915062002ee190506101a084018262002d07565b5092915050565b60006020828403121562002efb57600080fd5b8135620029f98162002a95565b60008060008060006060868803121562002f2157600080fd5b85356001600160401b038082111562002f3957600080fd5b62002f4789838a0162002c19565b9097509550602088013591508082111562002f6157600080fd5b5062002f708882890162002c19565b96999598509660400135949350505050565b81835281816020850137506000828201602090810191909152601f909101601f19169091010190565b60808152600062002fc160808301888a62002f82565b828103602084015262002fd681878962002f82565b60ff959095166040840152505060600152949350505050565b6000602082840312156200300257600080fd5b8151620029f98162002a95565b81838237600f60fb1b9101908152600101919050565b65029bab832b9160d51b81528183600683013760009101600601908152919050565b6001600160a01b03851681526000600385106200307457634e487b7160e01b600052602160045260246000fd5b84602083015260806040830152620030906080830185620029b6565b828103606084015262002b408185620029b6565b600060208284031215620030b757600080fd5b81516001600160401b0380821115620030cf57600080fd5b818401915084601f830112620030e457600080fd5b815181811115620030f957620030f962002a00565b6200310e601f8201601f191660200162002a41565b91508082528560208285010111156200312657600080fd5b6200313981602084016020860162002990565b50949350505050565b600083516200315681846020880162002990565b8351908301906200316c81836020880162002990565b01949350505050565b6001600160a01b038716815260ff86166020820152608060408201819052600090620031a5908301868862002f82565b8281036060840152620031ba81858762002f82565b9998505050505050505050565b60008451620031db81846020890162002990565b8201838582376000930192835250909392505050565b6060815260006200320760608301878962002f82565b82810360208401526200321c81868862002f82565b9150508260408301529695505050505050565b6001600160a01b03929092168252602082015260400190565b6000602082840312156200325b57600080fd5b8151620029f98162002a74565b6040815260006200327d6040830185620029b6565b905060018060a01b03831660208301529392505050565b600060ff821660ff8103620032b957634e487b7160e01b600052601160045260246000fd5b60010192915050565b6001600160a01b0393841681529183166020830152909116604082015260600190565b600081518084526020808501945080840160005b83811015620033205781516001600160a01b031687529582019590820190600101620032f9565b509495945050505050565b6001600160a01b03868116825285166020820152604081018490526060810183905260a06080820181905260009062002b4090830184620032e5565b6000602082840312156200337a57600080fd5b5051919050565b600060018060a01b038087168352808616602084015260806040840152620033ad6080840186620032e5565b91508084166060840152509594505050505056fe60c060405234801561001057600080fd5b50604051610a5b380380610a5b83398101604081905261002f91610062565b6001600160a01b039182166080521660a052610095565b80516001600160a01b038116811461005d57600080fd5b919050565b6000806040838503121561007557600080fd5b61007e83610046565b915061008c60208401610046565b90509250929050565b60805160a0516109796100e260003960008181605601528181610133015281816103d101526103f201526000818160c9015281816101070152818161037801526103a201526109796000f3fe608060405234801561001057600080fd5b506004361061004c5760003560e01c80631054df8c146100515780638dc7d29c1461008e5780638f95895f146100a3578063f437bc59146100c4575b600080fd5b6100787f000000000000000000000000000000000000000000000000000000000000000081565b6040516100859190610667565b60405180910390f35b6100a161009c366004610697565b6100eb565b005b6100b66100b1366004610725565b610346565b604051908152602001610085565b6100787f000000000000000000000000000000000000000000000000000000000000000081565b6040805160008082526020820190925281906001600160a01b037f000000000000000000000000000000000000000000000000000000000000000081169182916339255d5b917f00000000000000000000000000000000000000000000000000000000000000009182169063b4b333c69061016f908c908c908c90604481016107f5565b60408051601f19818403018152918152602080830180516001600160e01b031660e09590951b9490941790935280516000815292830190526101b79392509060448101610833565b60408051601f198184030181529181526020820180516001600160e01b031660e09490941b9390931790925290516101ef9250610869565b6000604051808303816000865af19150503d806000811461022c576040519150601f19603f3d011682016040523d82523d6000602084013e610231565b606091505b50915091508161025157805160000361024957600080fd5b805181602001fd5b6040516370a0823160e01b81526000906001600160a01b038716906370a0823190610280903090600401610667565b602060405180830381865afa15801561029d573d6000803e3d6000fd5b505050506040513d601f19601f820116820180604052508101906102c19190610885565b9050801561033e576040516323b872dd60e01b81526001600160a01b038716906323b872dd906102f99030903390869060040161089e565b6020604051808303816000875af1158015610318573d6000803e3d6000fd5b505050506040513d601f19601f8201168201806040525081019061033c91906108c2565b505b505050505050565b6000838281146103695760405163277c943f60e21b815260040160405180910390fd5b60005b8181101561056e5760007f00000000000000000000000000000000000000000000000000000000000000006001600160a01b03167f00000000000000000000000000000000000000000000000000000000000000006001600160a01b03166339255d5b7f00000000000000000000000000000000000000000000000000000000000000007f00000000000000000000000000000000000000000000000000000000000000006001600160a01b031663b4b333c68e8e8e8a818110610432576104326108eb565b90506020020160208101906104479190610901565b8d8d8b818110610459576104596108eb565b905060200201602081019061046e9190610901565b60408051600081526020810190915261048d93929190604481016107f5565b60408051601f19818403018152918152602080830180516001600160e01b031660e09590951b9490941790935280516000815292830190526104d59392509060448101610833565b60408051601f198184030181529181526020820180516001600160e01b031660e09490941b93909317909252905161050d9250610869565b6000604051808303816000865af19150503d806000811461054a576040519150601f19603f3d011682016040523d82523d6000602084013e61054f565b606091505b505090508015610565576105628461091c565b93505b5060010161036c565b506040516370a0823160e01b81526000906001600160a01b038916906370a082319061059e903090600401610667565b602060405180830381865afa1580156105bb573d6000803e3d6000fd5b505050506040513d601f19601f820116820180604052508101906105df9190610885565b9050801561065c576040516323b872dd60e01b81526001600160a01b038916906323b872dd906106179030903390869060040161089e565b6020604051808303816000875af1158015610636573d6000803e3d6000fd5b505050506040513d601f19601f8201168201806040525081019061065a91906108c2565b505b505095945050505050565b6001600160a01b0391909116815260200190565b80356001600160a01b038116811461069257600080fd5b919050565b6000806000606084860312156106ac57600080fd5b6106b58461067b565b92506106c36020850161067b565b91506106d16040850161067b565b90509250925092565b60008083601f8401126106ec57600080fd5b5081356001600160401b0381111561070357600080fd5b6020830191508360208260051b850101111561071e57600080fd5b9250929050565b60008060008060006060868803121561073d57600080fd5b6107468661067b565b945060208601356001600160401b038082111561076257600080fd5b61076e89838a016106da565b9096509450604088013591508082111561078757600080fd5b50610794888289016106da565b969995985093965092949392505050565b60005b838110156107c05781810151838201526020016107a8565b50506000910152565b600081518084526107e18160208601602086016107a5565b601f01601f19169290920160200192915050565b6001600160a01b038581168252848116602083015283166040820152608060608201819052600090610829908301846107c9565b9695505050505050565b6001600160a01b0384168152606060208201819052600090610857908301856107c9565b828103604084015261082981856107c9565b6000825161087b8184602087016107a5565b9190910192915050565b60006020828403121561089757600080fd5b5051919050565b6001600160a01b039384168152919092166020820152604081019190915260600190565b6000602082840312156108d457600080fd5b815180151581146108e457600080fd5b9392505050565b634e487b7160e01b600052603260045260246000fd5b60006020828403121561091357600080fd5b6108e48261067b565b60006001820161093c57634e487b7160e01b600052601160045260246000fd5b506001019056fea26469706673582212209b9df32459d7d5180886cabb445cf0bac48774ba6abfb1e142d0656f6f88fc7a64736f6c6343000813003360e06040523480156200001157600080fd5b5060405162001826380380620018268339810160408190526200003491620002ab565b6001600160a01b038216608081905260c0829052604051635b69006f60e11b81527fa9214cc96615e0085d3bb077758db69497dc2dce3b2b1e97bc93c3d18d83efd3600482015263b6d200de90602401602060405180830381865afa158015620000a2573d6000803e3d6000fd5b505050506040513d601f19601f82011682018060405250810190620000c89190620002dc565b6001600160a01b031660a0526040516329965a1d60e01b81527fb281fc8c12954d22544db45de3159a39272895b169a852b314f9cc762e44c53b90731820a4b7618bde71dce8cdc73aab6c95905fad24906329965a1d90620001339030908590829060040162000303565b600060405180830381600087803b1580156200014e57600080fd5b505af115801562000163573d6000803e3d6000fd5b50506040516329965a1d60e01b8152731820a4b7618bde71dce8cdc73aab6c95905fad2492506329965a1d9150620001c49030907fece6fc2bcfc93e4c34c28aeaa114be1a6161decb8268f79cbe7c3c7f31b1e8c690829060040162000303565b600060405180830381600087803b158015620001df57600080fd5b505af1158015620001f4573d6000803e3d6000fd5b50506040516329965a1d60e01b8152731820a4b7618bde71dce8cdc73aab6c95905fad2492506329965a1d9150620002559030907fca6323f8f0faf3d4f41f2397ee46c8d85bed576d54aadeb20b6cf7b45b3a696490829060040162000303565b600060405180830381600087803b1580156200027057600080fd5b505af115801562000285573d6000803e3d6000fd5b5050505050505062000326565b6001600160a01b0381168114620002a857600080fd5b50565b60008060408385031215620002bf57600080fd5b8251620002cc8162000292565b6020939093015192949293505050565b600060208284031215620002ef57600080fd5b8151620002fc8162000292565b9392505050565b6001600160a01b0393841681526020810192909252909116604082015260600190565b60805160a05160c051611467620003bf60003960008181610102015281816102a9015281816106db0152818161072b01526108ca01526000818161030a015281816103d801528181610528015281816105b70152818161077f015281816109ab01528181610a790152610c490152600081816103ae015281816104fe0152818161058d01528181610a4f0152610c1f01526114676000f3fe608060405234801561001057600080fd5b506004361061006c5760003560e01c806223de291461007157806302f3c6c51461008657806316e23b9f1461009957806336291063146100c457806360dfa695146100fd578063b8a1403314610132578063bf8903dd14610145575b600080fd5b61008461007f366004610f10565b610167565b005b610084610094366004610fcf565b61020f565b6100ac6100a7366004611008565b6106ce565b604051600b9190910b81526020015b60405180910390f35b6100f06100d2366004611034565b6001600160a01b039081166000908152602081905260409020541690565b6040516100bb9190611058565b6101247f000000000000000000000000000000000000000000000000000000000000000081565b6040519081526020016100bb565b6100ac610140366004611008565b61071e565b610158610153366004611034565b610750565b6040516100bb9392919061106c565b336000818152602081905260409020546001600160a01b038981169116146101c057600084156101a25761019d85870187611090565b6101ac565b6101ac82886106ce565b90506101ba828a8984610831565b50610204565b806001600160a01b03167fb9c1b85a7ee70d95c61aca7cda03ef957abc5265a191ca74cc335faf59409566876040516101fb91815260200190565b60405180910390a25b505050505050505050565b6001600160a01b03808316600090815260208190526040902054163381146102775760405162461bcd60e51b81526020600482015260166024820152751513d1d04e881bdb9b1e48141250c8185b1b1bddd95960521b60448201526064015b60405180910390fd5b600082600b0b121561029b5760405162461bcd60e51b815260040161026e906110ad565b6102a483610d80565b6102d27f0000000000000000000000000000000000000000000000000000000000000000600b85900b611106565b11156102f05760405162461bcd60e51b815260040161026e9061111d565b604051631cd43d1160e31b81526000906001600160a01b037f0000000000000000000000000000000000000000000000000000000000000000169063e6a1e888906103439087903090879060040161114e565b608060405180830381865afa158015610360573d6000803e3d6000fd5b505050506040513d601f19601f820116820180604052508101906103849190611171565b5050915050600081600b0b13801561039f5750600083600b0b135b156104d9576001600160a01b037f00000000000000000000000000000000000000000000000000000000000000008116906339255d5b907f00000000000000000000000000000000000000000000000000000000000000009081166350209a6288878960005b6040519080825280601f01601f19166020018201604052801561042f576020820181803683370190505b506040516024016104439493929190611215565b60408051808303601f1901815291815260208201805160e094851b6001600160e01b03909116179052519185901b6001600160e01b031916825261048c93925090600401611255565b6000604051808303816000875af11580156104ab573d6000803e3d6000fd5b505050506040513d6000823e601f3d908101601f191682016040526104d3919081019061129c565b50610686565b80600b0b60001480156104ef5750600083600b0b135b15610559576001600160a01b037f00000000000000000000000000000000000000000000000000000000000000008116906339255d5b907f00000000000000000000000000000000000000000000000000000000000000009081166362fc305e8887896000610405565b600081600b0b13801561056f575082600b0b6000145b15610686576040805160008152602081019091526001600160a01b037f00000000000000000000000000000000000000000000000000000000000000008116916339255d5b917f0000000000000000000000000000000000000000000000000000000000000000919082169063b4b333c6906105f4908a9030908a9060448101611348565b60408051808303601f1901815291815260208201805160e094851b6001600160e01b03909116179052519185901b6001600160e01b031916825261063d93925090600401611255565b6000604051808303816000875af115801561065c573d6000803e3d6000fd5b505050506040513d6000823e601f3d908101601f19168201604052610684919081019061129c565b505b604051600b84900b81526001600160a01b038516907f0988aefa675e81e1db7fca08264db5dc2a1cc2a604f2a78d902a9747146a56719060200160405180910390a250505050565b60006107156107106107017f00000000000000000000000000000000000000000000000000000000000000006004611106565b61070b908561137c565b610e24565b610e92565b90505b92915050565b600061071561071061070b7f00000000000000000000000000000000000000000000000000000000000000008561137c565b6001600160a01b03818116600090815260208190526040808220549051631cd43d1160e31b81529192839283927f000000000000000000000000000000000000000000000000000000000000000083169263e6a1e888926107ba928992309291169060040161114e565b608060405180830381865afa1580156107d7573d6000803e3d6000fd5b505050506040513d601f19601f820116820180604052508101906107fb9190611171565b50506001600160a01b0380871660009081526020819052604090205491935016905061082685610d80565b925092509193909250565b6001600160a01b038416600090815260208190526040902054600160a01b900460ff16156108a05760405162461bcd60e51b815260206004820152601c60248201527b1513d1d04e881c99595b9d1c985b98de481b9bdd08185b1b1bddd95960221b604482015260640161026e565b600081600b0b12156108c45760405162461bcd60e51b815260040161026e906110ad565b816108f37f0000000000000000000000000000000000000000000000000000000000000000600b84900b611106565b11156109115760405162461bcd60e51b815260040161026e9061111d565b60008261091d86610d80565b610927919061139e565b905080831161096c5760405162461bcd60e51b8152602060048201526011602482015270544f47413a2062696420746f6f206c6f7760781b604482015260640161026e565b6001600160a01b03808616600090815260208190526040808220805460ff60a01b198116600160a01b179091559051631cd43d1160e31b8152908316927f0000000000000000000000000000000000000000000000000000000000000000169063e6a1e888906109e4908a903090879060040161114e565b608060405180830381865afa158015610a01573d6000803e3d6000fd5b505050506040513d601f19601f82011682018060405250810190610a259190611171565b5050915050600081600b0b1315610b48576040805160008152602081019091526001600160a01b037f00000000000000000000000000000000000000000000000000000000000000008116916339255d5b917f0000000000000000000000000000000000000000000000000000000000000000919082169063b4b333c690610ab6908d9030908a9060448101611348565b60408051808303601f1901815291815260208201805160e094851b6001600160e01b03909116179052519185901b6001600160e01b0319168252610aff93925090600401611255565b6000604051808303816000875af1158015610b1e573d6000803e3d6000fd5b505050506040513d6000823e601f3d908101601f19168201604052610b46919081019061129c565b505b6001600160a01b03821615610bcc5760405163a9059cbb60e01b81526001600160a01b0383811660048301526024820185905288169063a9059cbb906044016020604051808303816000875af1158015610ba6573d6000803e3d6000fd5b505050506040513d601f19601f82011682018060405250810190610bca91906113b1565b505b6001600160a01b03878116600090815260208190526040812080546001600160a01b03191692891692909217909155600b85900b1315610d18576040805160008152602081019091526001600160a01b037f00000000000000000000000000000000000000000000000000000000000000008116916339255d5b917f000000000000000000000000000000000000000000000000000000000000000091908216906362fc305e90610c86908d908d908c9060448101611215565b60408051808303601f1901815291815260208201805160e094851b6001600160e01b03909116179052519185901b6001600160e01b0319168252610ccf93925090600401611255565b6000604051808303816000875af1158015610cee573d6000803e3d6000fd5b505050506040513d6000823e601f3d908101601f19168201604052610d16919081019061129c565b505b6001600160a01b03871660008181526020819052604090819020805460ff60a01b19169055517f836808e57755d5535898b7203c7d68b1bfb2701b1943ecb133c675e0d007801590610d6f9089908990899061106c565b60405180910390a250505050505050565b6000806000836001600160a01b0316632ec8eec7306040518263ffffffff1660e01b8152600401610db19190611058565b608060405180830381865afa158015610dce573d6000803e3d6000fd5b505050506040513d601f19601f82011682018060405250810190610df291906113d3565b50509150915060008183610e069190611409565b13610e12576000610e1c565b610e1c8183611409565b949350505050565b60006001600160ff1b03821115610e8e5760405162461bcd60e51b815260206004820152602860248201527f53616665436173743a2076616c756520646f65736e27742066697420696e2061604482015267371034b73a191a9b60c11b606482015260840161026e565b5090565b600060016001605f1b038212610e8e5760016001605f1b0392915050565b6001600160a01b0381168114610ec557600080fd5b50565b60008083601f840112610eda57600080fd5b5081356001600160401b03811115610ef157600080fd5b602083019150836020828501011115610f0957600080fd5b9250929050565b60008060008060008060008060c0898b031215610f2c57600080fd5b8835610f3781610eb0565b97506020890135610f4781610eb0565b96506040890135610f5781610eb0565b95506060890135945060808901356001600160401b0380821115610f7a57600080fd5b610f868c838d01610ec8565b909650945060a08b0135915080821115610f9f57600080fd5b50610fac8b828c01610ec8565b999c989b5096995094979396929594505050565b80600b0b8114610ec557600080fd5b60008060408385031215610fe257600080fd5b8235610fed81610eb0565b91506020830135610ffd81610fc0565b809150509250929050565b6000806040838503121561101b57600080fd5b823561102681610eb0565b946020939093013593505050565b60006020828403121561104657600080fd5b813561105181610eb0565b9392505050565b6001600160a01b0391909116815260200190565b6001600160a01b039390931683526020830191909152600b0b604082015260600190565b6000602082840312156110a257600080fd5b813561105181610fc0565b60208082526023908201527f544f47413a206e65676174697665206578697452617465206e6f7420616c6c6f6040820152621dd95960ea1b606082015260800190565b634e487b7160e01b600052601160045260246000fd5b8082028115828204841417610718576107186110f0565b6020808252601790820152760a89e8e827440caf0d2e8a4c2e8ca40e8dede40d0d2ced604b1b604082015260600190565b6001600160a01b0393841681529183166020830152909116604082015260600190565b6000806000806080858703121561118757600080fd5b84519350602085015161119981610fc0565b6040860151606090960151949790965092505050565b634e487b7160e01b600052604160045260246000fd5b60005b838110156111e05781810151838201526020016111c8565b50506000910152565b600081518084526112018160208601602086016111c5565b601f01601f19169290920160200192915050565b6001600160a01b03858116825284166020820152600b83900b604082015260806060820181905260009061124b908301846111e9565b9695505050505050565b6001600160a01b0383168152606060208201819052600090611279908301846111e9565b8281036040938401526002815261060f60f31b6020820152919091019392505050565b6000602082840312156112ae57600080fd5b81516001600160401b03808211156112c557600080fd5b818401915084601f8301126112d957600080fd5b8151818111156112eb576112eb6111af565b604051601f8201601f19908116603f01168101908382118183101715611313576113136111af565b8160405282815287602084870101111561132c57600080fd5b61133d8360208301602088016111c5565b979650505050505050565b6001600160a01b03858116825284811660208301528316604082015260806060820181905260009061124b908301846111e9565b60008261139957634e487b7160e01b600052601260045260246000fd5b500490565b81810381811115610718576107186110f0565b6000602082840312156113c357600080fd5b8151801515811461105157600080fd5b600080600080608085870312156113e957600080fd5b505082516020840151604085015160609095015191969095509092509050565b8082018281126000831280158216821582161715611429576114296110f0565b50509291505056fea2646970667358221220bf8244753589dc1a3cf1f0d923a2b78efef961f153db8e3bcbec6f80b47b07bd64736f6c63430008130033a264697066735822122031a310efc8885e9596d411d0fa112e4db563efc80eb83a966b4fde200d2dc7c964736f6c63430008130033",
    "linkReferences": {
      "lib/superfluid-protocol-monorepo/packages/ethereum-contracts/contracts/utils/SuperfluidFrameworkDeploymentSteps.sol": {
        "CFAv1ForwarderDeployerLibrary": [
          {
            "start": 7738,
            "length": 20
          }
        ],
        "IDAv1ForwarderDeployerLibrary": [
          {
            "start": 7907,
            "length": 20
          }
        ],
        "ProxyDeployerLibrary": [
          {
            "start": 5289,
            "length": 20
          },
          {
            "start": 5405,
            "length": 20
          }
        ],
        "SuperTokenDeployerLibrary": [
          {
            "start": 6609,
            "length": 20
          }
        ],
        "SuperfluidCFAv1DeployerLibrary": [
          {
            "start": 4963,
            "length": 20
          }
        ],
        "SuperfluidGovDeployerLibrary": [
          {
            "start": 6970,
            "length": 20
          },
          {
            "start": 7134,
            "length": 20
          }
        ],
        "SuperfluidHostDeployerLibrary": [
          {
            "start": 7257,
            "length": 20
          }
        ],
        "SuperfluidIDAv1DeployerLibrary": [
          {
            "start": 5133,
            "length": 20
          }
        ],
        "SuperfluidLoaderDeployerLibrary": [
          {
            "start": 7568,
            "length": 20
          }
        ],
        "SuperfluidNFTLogicDeployerLibrary": [
          {
            "start": 5536,
            "length": 20
          },
          {
            "start": 5786,
            "length": 20
          }
        ],
        "SuperfluidPeripheryDeployerLibrary": [
          {
            "start": 6837,
            "length": 20
          },
          {
            "start": 7405,
            "length": 20
          }
        ],
        "TokenDeployerLibrary": [
          {
            "start": 1714,
            "length": 20
          },
          {
            "start": 2559,
            "length": 20
          },
          {
            "start": 3188,
            "length": 20
          }
        ]
      }
    }
  },
  "methodIdentifiers": {
    "DEFAULT_APP_WHITELISTING_ENABLED()": "b3083cf8",
    "DEFAULT_LIQUIDATION_PERIOD()": "4d59c136",
    "DEFAULT_NON_UPGRADEABLE()": "52099470",
    "DEFAULT_PATRICIAN_PERIOD()": "05bfa3e0",
    "DEFAULT_REWARD_ADDRESS()": "93786bf0",
    "DEFAULT_TOGA_MIN_BOND_DURATION()": "888a37b1",
    "DEFAULT_TRUSTED_FORWARDERS(uint256)": "1903410d",
    "RESOLVER_BASE_SUPER_TOKEN_KEY()": "3df285fe",
    "RESOLVER_BASE_TOKEN_KEY()": "62a32e1e",
    "deployAgreementContracts()": "06e83586",
    "deployCoreContracts((bool,bool,address[],address,uint256,uint256,uint256))": "ad6eb499",
    "deployCoreContracts()": "38bc37a4",
    "deployNativeAssetSuperToken(string,string)": "cbcd7449",
    "deployPeripheralContracts((bool,bool,address[],address,uint256,uint256,uint256))": "7296cb5a",
    "deployPeripheralContracts()": "547047c7",
    "deployPureSuperToken(string,string,uint256)": "fa0215fc",
    "deploySuperTokenContracts()": "2a496648",
    "deployTestFramework()": "76f30be8",
    "deployWrapperSuperToken(string,string,uint8,uint256)": "7dc2dc12",
    "executeStep(uint8)": "acbeaa07",
    "getFramework()": "dfa98ad5",
    "getNumSteps()": "c8c25ad5",
    "transferOwnership(address)": "f2fde38b"
  },
  "id": 103
}