{
  "abi": [
    {
      "inputs": [
        {
          "internalType": "bool",
          "name": "nonUpgradable",
          "type": "bool"
        },
        {
          "internalType": "bool",
          "name": "appWhiteListingEnabled",
          "type": "bool"
        }
      ],
      "stateMutability": "nonpayable",
      "type": "constructor"
    },
    {
      "inputs": [
        {
          "internalType": "uint256",
          "name": "_code",
          "type": "uint256"
        }
      ],
      "name": "APP_RULE",
      "type": "error"
    },
    {
      "inputs": [],
      "name": "HOST_AGREEMENT_ALREADY_REGISTERED",
      "type": "error"
    },
    {
      "inputs": [],
      "name": "HOST_AGREEMENT_CALLBACK_IS_NOT_ACTION",
      "type": "error"
    },
    {
      "inputs": [],
      "name": "HOST_AGREEMENT_IS_NOT_REGISTERED",
      "type": "error"
    },
    {
      "inputs": [],
      "name": "HOST_CALL_AGREEMENT_WITH_CTX_FROM_WRONG_ADDRESS",
      "type": "error"
    },
    {
      "inputs": [],
      "name": "HOST_CALL_APP_ACTION_WITH_CTX_FROM_WRONG_ADDRESS",
      "type": "error"
    },
    {
      "inputs": [],
      "name": "HOST_CANNOT_DOWNGRADE_TO_NON_UPGRADEABLE",
      "type": "error"
    },
    {
      "inputs": [],
      "name": "HOST_INVALID_CONFIG_WORD",
      "type": "error"
    },
    {
      "inputs": [],
      "name": "HOST_INVALID_OR_EXPIRED_SUPER_APP_REGISTRATION_KEY",
      "type": "error"
    },
    {
      "inputs": [],
      "name": "HOST_MAX_256_AGREEMENTS",
      "type": "error"
    },
    {
      "inputs": [],
      "name": "HOST_MUST_BE_CONTRACT",
      "type": "error"
    },
    {
      "inputs": [],
      "name": "HOST_NEED_MORE_GAS",
      "type": "error"
    },
    {
      "inputs": [],
      "name": "HOST_NON_UPGRADEABLE",
      "type": "error"
    },
    {
      "inputs": [],
      "name": "HOST_NON_ZERO_LENGTH_PLACEHOLDER_CTX",
      "type": "error"
    },
    {
      "inputs": [],
      "name": "HOST_NOT_A_SUPER_APP",
      "type": "error"
    },
    {
      "inputs": [],
      "name": "HOST_NO_APP_REGISTRATION_PERMISSIONS",
      "type": "error"
    },
    {
      "inputs": [],
      "name": "HOST_ONLY_GOVERNANCE",
      "type": "error"
    },
    {
      "inputs": [],
      "name": "HOST_ONLY_LISTED_AGREEMENT",
      "type": "error"
    },
    {
      "inputs": [],
      "name": "HOST_RECEIVER_IS_NOT_SUPER_APP",
      "type": "error"
    },
    {
      "inputs": [],
      "name": "HOST_SENDER_IS_NOT_SUPER_APP",
      "type": "error"
    },
    {
      "inputs": [],
      "name": "HOST_SOURCE_APP_NEEDS_HIGHER_APP_LEVEL",
      "type": "error"
    },
    {
      "inputs": [],
      "name": "HOST_SUPER_APP_ALREADY_REGISTERED",
      "type": "error"
    },
    {
      "inputs": [],
      "name": "HOST_SUPER_APP_IS_JAILED",
      "type": "error"
    },
    {
      "inputs": [],
      "name": "HOST_UNAUTHORIZED_SUPER_APP_FACTORY",
      "type": "error"
    },
    {
      "inputs": [],
      "name": "HOST_UNKNOWN_BATCH_CALL_OPERATION_TYPE",
      "type": "error"
    },
    {
      "anonymous": false,
      "inputs": [
        {
          "indexed": false,
          "internalType": "bytes32",
          "name": "agreementType",
          "type": "bytes32"
        },
        {
          "indexed": false,
          "internalType": "address",
          "name": "code",
          "type": "address"
        }
      ],
      "name": "AgreementClassRegistered",
      "type": "event"
    },
    {
      "anonymous": false,
      "inputs": [
        {
          "indexed": false,
          "internalType": "bytes32",
          "name": "agreementType",
          "type": "bytes32"
        },
        {
          "indexed": false,
          "internalType": "address",
          "name": "code",
          "type": "address"
        }
      ],
      "name": "AgreementClassUpdated",
      "type": "event"
    },
    {
      "anonymous": false,
      "inputs": [
        {
          "indexed": true,
          "internalType": "contract ISuperApp",
          "name": "app",
          "type": "address"
        }
      ],
      "name": "AppRegistered",
      "type": "event"
    },
    {
      "anonymous": false,
      "inputs": [
        {
          "indexed": false,
          "internalType": "bytes32",
          "name": "uuid",
          "type": "bytes32"
        },
        {
          "indexed": false,
          "internalType": "address",
          "name": "codeAddress",
          "type": "address"
        }
      ],
      "name": "CodeUpdated",
      "type": "event"
    },
    {
      "anonymous": false,
      "inputs": [
        {
          "indexed": false,
          "internalType": "contract ISuperfluidGovernance",
          "name": "oldGov",
          "type": "address"
        },
        {
          "indexed": false,
          "internalType": "contract ISuperfluidGovernance",
          "name": "newGov",
          "type": "address"
        }
      ],
      "name": "GovernanceReplaced",
      "type": "event"
    },
    {
      "anonymous": false,
      "inputs": [
        {
          "indexed": false,
          "internalType": "uint8",
          "name": "version",
          "type": "uint8"
        }
      ],
      "name": "Initialized",
      "type": "event"
    },
    {
      "anonymous": false,
      "inputs": [
        {
          "indexed": true,
          "internalType": "contract ISuperApp",
          "name": "app",
          "type": "address"
        },
        {
          "indexed": false,
          "internalType": "uint256",
          "name": "reason",
          "type": "uint256"
        }
      ],
      "name": "Jail",
      "type": "event"
    },
    {
      "anonymous": false,
      "inputs": [
        {
          "indexed": false,
          "internalType": "contract ISuperTokenFactory",
          "name": "newFactory",
          "type": "address"
        }
      ],
      "name": "SuperTokenFactoryUpdated",
      "type": "event"
    },
    {
      "anonymous": false,
      "inputs": [
        {
          "indexed": true,
          "internalType": "contract ISuperToken",
          "name": "token",
          "type": "address"
        },
        {
          "indexed": false,
          "internalType": "address",
          "name": "code",
          "type": "address"
        }
      ],
      "name": "SuperTokenLogicUpdated",
      "type": "event"
    },
    {
      "inputs": [],
      "name": "APP_WHITE_LISTING_ENABLED",
      "outputs": [
        {
          "internalType": "bool",
          "name": "",
          "type": "bool"
        }
      ],
      "stateMutability": "view",
      "type": "function"
    },
    {
      "inputs": [],
      "name": "CALLBACK_GAS_LIMIT",
      "outputs": [
        {
          "internalType": "uint64",
          "name": "",
          "type": "uint64"
        }
      ],
      "stateMutability": "view",
      "type": "function"
    },
    {
      "inputs": [],
      "name": "MAX_APP_CALLBACK_LEVEL",
      "outputs": [
        {
          "internalType": "uint256",
          "name": "",
          "type": "uint256"
        }
      ],
      "stateMutability": "view",
      "type": "function"
    },
    {
      "inputs": [],
      "name": "MAX_NUM_AGREEMENTS",
      "outputs": [
        {
          "internalType": "uint32",
          "name": "",
          "type": "uint32"
        }
      ],
      "stateMutability": "view",
      "type": "function"
    },
    {
      "inputs": [],
      "name": "NON_UPGRADABLE_DEPLOYMENT",
      "outputs": [
        {
          "internalType": "bool",
          "name": "",
          "type": "bool"
        }
      ],
      "stateMutability": "view",
      "type": "function"
    },
    {
      "inputs": [
        {
          "internalType": "uint256",
          "name": "bitmap",
          "type": "uint256"
        },
        {
          "internalType": "bytes32",
          "name": "agreementType",
          "type": "bytes32"
        }
      ],
      "name": "addToAgreementClassesBitmap",
      "outputs": [
        {
          "internalType": "uint256",
          "name": "newBitmap",
          "type": "uint256"
        }
      ],
      "stateMutability": "view",
      "type": "function"
    },
    {
      "inputs": [
        {
          "internalType": "contract ISuperApp",
          "name": "targetApp",
          "type": "address"
        }
      ],
      "name": "allowCompositeApp",
      "outputs": [],
      "stateMutability": "nonpayable",
      "type": "function"
    },
    {
      "inputs": [
        {
          "internalType": "bytes",
          "name": "ctx",
          "type": "bytes"
        },
        {
          "internalType": "int256",
          "name": "appCreditUsedDelta",
          "type": "int256"
        }
      ],
      "name": "appCallbackPop",
      "outputs": [
        {
          "internalType": "bytes",
          "name": "newCtx",
          "type": "bytes"
        }
      ],
      "stateMutability": "nonpayable",
      "type": "function"
    },
    {
      "inputs": [
        {
          "internalType": "bytes",
          "name": "ctx",
          "type": "bytes"
        },
        {
          "internalType": "contract ISuperApp",
          "name": "app",
          "type": "address"
        },
        {
          "internalType": "uint256",
          "name": "appCreditGranted",
          "type": "uint256"
        },
        {
          "internalType": "int256",
          "name": "appCreditUsed",
          "type": "int256"
        },
        {
          "internalType": "contract ISuperfluidToken",
          "name": "appCreditToken",
          "type": "address"
        }
      ],
      "name": "appCallbackPush",
      "outputs": [
        {
          "internalType": "bytes",
          "name": "appCtx",
          "type": "bytes"
        }
      ],
      "stateMutability": "nonpayable",
      "type": "function"
    },
    {
      "inputs": [
        {
          "components": [
            {
              "internalType": "uint32",
              "name": "operationType",
              "type": "uint32"
            },
            {
              "internalType": "address",
              "name": "target",
              "type": "address"
            },
            {
              "internalType": "bytes",
              "name": "data",
              "type": "bytes"
            }
          ],
          "internalType": "struct ISuperfluid.Operation[]",
          "name": "operations",
          "type": "tuple[]"
        }
      ],
      "name": "batchCall",
      "outputs": [],
      "stateMutability": "nonpayable",
      "type": "function"
    },
    {
      "inputs": [
        {
          "internalType": "contract ISuperAgreement",
          "name": "agreementClass",
          "type": "address"
        },
        {
          "internalType": "bytes",
          "name": "callData",
          "type": "bytes"
        },
        {
          "internalType": "bytes",
          "name": "userData",
          "type": "bytes"
        }
      ],
      "name": "callAgreement",
      "outputs": [
        {
          "internalType": "bytes",
          "name": "returnedData",
          "type": "bytes"
        }
      ],
      "stateMutability": "nonpayable",
      "type": "function"
    },
    {
      "inputs": [
        {
          "internalType": "contract ISuperAgreement",
          "name": "agreementClass",
          "type": "address"
        },
        {
          "internalType": "bytes",
          "name": "callData",
          "type": "bytes"
        },
        {
          "internalType": "bytes",
          "name": "userData",
          "type": "bytes"
        },
        {
          "internalType": "bytes",
          "name": "ctx",
          "type": "bytes"
        }
      ],
      "name": "callAgreementWithContext",
      "outputs": [
        {
          "internalType": "bytes",
          "name": "newCtx",
          "type": "bytes"
        },
        {
          "internalType": "bytes",
          "name": "returnedData",
          "type": "bytes"
        }
      ],
      "stateMutability": "nonpayable",
      "type": "function"
    },
    {
      "inputs": [
        {
          "internalType": "contract ISuperApp",
          "name": "app",
          "type": "address"
        },
        {
          "internalType": "bytes",
          "name": "callData",
          "type": "bytes"
        }
      ],
      "name": "callAppAction",
      "outputs": [
        {
          "internalType": "bytes",
          "name": "returnedData",
          "type": "bytes"
        }
      ],
      "stateMutability": "nonpayable",
      "type": "function"
    },
    {
      "inputs": [
        {
          "internalType": "contract ISuperApp",
          "name": "app",
          "type": "address"
        },
        {
          "internalType": "bytes",
          "name": "callData",
          "type": "bytes"
        },
        {
          "internalType": "bytes",
          "name": "ctx",
          "type": "bytes"
        }
      ],
      "name": "callAppActionWithContext",
      "outputs": [
        {
          "internalType": "bytes",
          "name": "newCtx",
          "type": "bytes"
        }
      ],
      "stateMutability": "nonpayable",
      "type": "function"
    },
    {
      "inputs": [
        {
          "internalType": "contract ISuperApp",
          "name": "app",
          "type": "address"
        },
        {
          "internalType": "bytes",
          "name": "callData",
          "type": "bytes"
        },
        {
          "internalType": "bool",
          "name": "isTermination",
          "type": "bool"
        },
        {
          "internalType": "bytes",
          "name": "ctx",
          "type": "bytes"
        }
      ],
      "name": "callAppAfterCallback",
      "outputs": [
        {
          "internalType": "bytes",
          "name": "newCtx",
          "type": "bytes"
        }
      ],
      "stateMutability": "nonpayable",
      "type": "function"
    },
    {
      "inputs": [
        {
          "internalType": "contract ISuperApp",
          "name": "app",
          "type": "address"
        },
        {
          "internalType": "bytes",
          "name": "callData",
          "type": "bytes"
        },
        {
          "internalType": "bool",
          "name": "isTermination",
          "type": "bool"
        },
        {
          "internalType": "bytes",
          "name": "ctx",
          "type": "bytes"
        }
      ],
      "name": "callAppBeforeCallback",
      "outputs": [
        {
          "internalType": "bytes",
          "name": "cbdata",
          "type": "bytes"
        }
      ],
      "stateMutability": "nonpayable",
      "type": "function"
    },
    {
      "inputs": [],
      "name": "castrate",
      "outputs": [],
      "stateMutability": "nonpayable",
      "type": "function"
    },
    {
      "inputs": [
        {
          "internalType": "bytes",
          "name": "ctx",
          "type": "bytes"
        },
        {
          "internalType": "int256",
          "name": "appCreditUsedMore",
          "type": "int256"
        }
      ],
      "name": "ctxUseCredit",
      "outputs": [
        {
          "internalType": "bytes",
          "name": "newCtx",
          "type": "bytes"
        }
      ],
      "stateMutability": "nonpayable",
      "type": "function"
    },
    {
      "inputs": [
        {
          "internalType": "bytes",
          "name": "ctx",
          "type": "bytes"
        }
      ],
      "name": "decodeCtx",
      "outputs": [
        {
          "components": [
            {
              "internalType": "uint8",
              "name": "appCallbackLevel",
              "type": "uint8"
            },
            {
              "internalType": "uint8",
              "name": "callType",
              "type": "uint8"
            },
            {
              "internalType": "uint256",
              "name": "timestamp",
              "type": "uint256"
            },
            {
              "internalType": "address",
              "name": "msgSender",
              "type": "address"
            },
            {
              "internalType": "bytes4",
              "name": "agreementSelector",
              "type": "bytes4"
            },
            {
              "internalType": "bytes",
              "name": "userData",
              "type": "bytes"
            },
            {
              "internalType": "uint256",
              "name": "appCreditGranted",
              "type": "uint256"
            },
            {
              "internalType": "uint256",
              "name": "appCreditWantedDeprecated",
              "type": "uint256"
            },
            {
              "internalType": "int256",
              "name": "appCreditUsed",
              "type": "int256"
            },
            {
              "internalType": "address",
              "name": "appAddress",
              "type": "address"
            },
            {
              "internalType": "contract ISuperfluidToken",
              "name": "appCreditToken",
              "type": "address"
            }
          ],
          "internalType": "struct ISuperfluid.Context",
          "name": "context",
          "type": "tuple"
        }
      ],
      "stateMutability": "pure",
      "type": "function"
    },
    {
      "inputs": [
        {
          "components": [
            {
              "internalType": "uint32",
              "name": "operationType",
              "type": "uint32"
            },
            {
              "internalType": "address",
              "name": "target",
              "type": "address"
            },
            {
              "internalType": "bytes",
              "name": "data",
              "type": "bytes"
            }
          ],
          "internalType": "struct ISuperfluid.Operation[]",
          "name": "operations",
          "type": "tuple[]"
        }
      ],
      "name": "forwardBatchCall",
      "outputs": [],
      "stateMutability": "nonpayable",
      "type": "function"
    },
    {
      "inputs": [
        {
          "internalType": "bytes32",
          "name": "agreementType",
          "type": "bytes32"
        }
      ],
      "name": "getAgreementClass",
      "outputs": [
        {
          "internalType": "contract ISuperAgreement",
          "name": "agreementClass",
          "type": "address"
        }
      ],
      "stateMutability": "view",
      "type": "function"
    },
    {
      "inputs": [
        {
          "internalType": "contract ISuperApp",
          "name": "appAddr",
          "type": "address"
        }
      ],
      "name": "getAppCallbackLevel",
      "outputs": [
        {
          "internalType": "uint8",
          "name": "",
          "type": "uint8"
        }
      ],
      "stateMutability": "view",
      "type": "function"
    },
    {
      "inputs": [
        {
          "internalType": "contract ISuperApp",
          "name": "app",
          "type": "address"
        }
      ],
      "name": "getAppManifest",
      "outputs": [
        {
          "internalType": "bool",
          "name": "isSuperApp",
          "type": "bool"
        },
        {
          "internalType": "bool",
          "name": "isJailed",
          "type": "bool"
        },
        {
          "internalType": "uint256",
          "name": "noopMask",
          "type": "uint256"
        }
      ],
      "stateMutability": "view",
      "type": "function"
    },
    {
      "inputs": [],
      "name": "getCodeAddress",
      "outputs": [
        {
          "internalType": "address",
          "name": "codeAddress",
          "type": "address"
        }
      ],
      "stateMutability": "view",
      "type": "function"
    },
    {
      "inputs": [],
      "name": "getGovernance",
      "outputs": [
        {
          "internalType": "contract ISuperfluidGovernance",
          "name": "",
          "type": "address"
        }
      ],
      "stateMutability": "view",
      "type": "function"
    },
    {
      "inputs": [],
      "name": "getNow",
      "outputs": [
        {
          "internalType": "uint256",
          "name": "",
          "type": "uint256"
        }
      ],
      "stateMutability": "view",
      "type": "function"
    },
    {
      "inputs": [],
      "name": "getSuperTokenFactory",
      "outputs": [
        {
          "internalType": "contract ISuperTokenFactory",
          "name": "factory",
          "type": "address"
        }
      ],
      "stateMutability": "view",
      "type": "function"
    },
    {
      "inputs": [],
      "name": "getSuperTokenFactoryLogic",
      "outputs": [
        {
          "internalType": "address",
          "name": "logic",
          "type": "address"
        }
      ],
      "stateMutability": "view",
      "type": "function"
    },
    {
      "inputs": [
        {
          "internalType": "contract ISuperfluidGovernance",
          "name": "gov",
          "type": "address"
        }
      ],
      "name": "initialize",
      "outputs": [],
      "stateMutability": "nonpayable",
      "type": "function"
    },
    {
      "inputs": [
        {
          "internalType": "contract ISuperAgreement",
          "name": "agreementClass",
          "type": "address"
        }
      ],
      "name": "isAgreementClassListed",
      "outputs": [
        {
          "internalType": "bool",
          "name": "yes",
          "type": "bool"
        }
      ],
      "stateMutability": "view",
      "type": "function"
    },
    {
      "inputs": [
        {
          "internalType": "bytes32",
          "name": "agreementType",
          "type": "bytes32"
        }
      ],
      "name": "isAgreementTypeListed",
      "outputs": [
        {
          "internalType": "bool",
          "name": "yes",
          "type": "bool"
        }
      ],
      "stateMutability": "view",
      "type": "function"
    },
    {
      "inputs": [
        {
          "internalType": "contract ISuperApp",
          "name": "app",
          "type": "address"
        }
      ],
      "name": "isApp",
      "outputs": [
        {
          "internalType": "bool",
          "name": "",
          "type": "bool"
        }
      ],
      "stateMutability": "view",
      "type": "function"
    },
    {
      "inputs": [
        {
          "internalType": "contract ISuperApp",
          "name": "app",
          "type": "address"
        }
      ],
      "name": "isAppJailed",
      "outputs": [
        {
          "internalType": "bool",
          "name": "",
          "type": "bool"
        }
      ],
      "stateMutability": "view",
      "type": "function"
    },
    {
      "inputs": [
        {
          "internalType": "contract ISuperApp",
          "name": "app",
          "type": "address"
        },
        {
          "internalType": "contract ISuperApp",
          "name": "targetApp",
          "type": "address"
        }
      ],
      "name": "isCompositeAppAllowed",
      "outputs": [
        {
          "internalType": "bool",
          "name": "",
          "type": "bool"
        }
      ],
      "stateMutability": "view",
      "type": "function"
    },
    {
      "inputs": [
        {
          "internalType": "bytes",
          "name": "ctx",
          "type": "bytes"
        }
      ],
      "name": "isCtxValid",
      "outputs": [
        {
          "internalType": "bool",
          "name": "",
          "type": "bool"
        }
      ],
      "stateMutability": "view",
      "type": "function"
    },
    {
      "inputs": [
        {
          "internalType": "address",
          "name": "forwarder",
          "type": "address"
        }
      ],
      "name": "isTrustedForwarder",
      "outputs": [
        {
          "internalType": "bool",
          "name": "",
          "type": "bool"
        }
      ],
      "stateMutability": "view",
      "type": "function"
    },
    {
      "inputs": [
        {
          "internalType": "bytes",
          "name": "ctx",
          "type": "bytes"
        },
        {
          "internalType": "contract ISuperApp",
          "name": "app",
          "type": "address"
        },
        {
          "internalType": "uint256",
          "name": "reason",
          "type": "uint256"
        }
      ],
      "name": "jailApp",
      "outputs": [
        {
          "internalType": "bytes",
          "name": "newCtx",
          "type": "bytes"
        }
      ],
      "stateMutability": "nonpayable",
      "type": "function"
    },
    {
      "inputs": [
        {
          "internalType": "uint256",
          "name": "bitmap",
          "type": "uint256"
        }
      ],
      "name": "mapAgreementClasses",
      "outputs": [
        {
          "internalType": "contract ISuperAgreement[]",
          "name": "agreementClasses",
          "type": "address[]"
        }
      ],
      "stateMutability": "view",
      "type": "function"
    },
    {
      "inputs": [],
      "name": "proxiableUUID",
      "outputs": [
        {
          "internalType": "bytes32",
          "name": "",
          "type": "bytes32"
        }
      ],
      "stateMutability": "pure",
      "type": "function"
    },
    {
      "inputs": [
        {
          "internalType": "contract ISuperAgreement",
          "name": "agreementClassLogic",
          "type": "address"
        }
      ],
      "name": "registerAgreementClass",
      "outputs": [],
      "stateMutability": "nonpayable",
      "type": "function"
    },
    {
      "inputs": [
        {
          "internalType": "uint256",
          "name": "configWord",
          "type": "uint256"
        }
      ],
      "name": "registerApp",
      "outputs": [],
      "stateMutability": "nonpayable",
      "type": "function"
    },
    {
      "inputs": [
        {
          "internalType": "contract ISuperApp",
          "name": "app",
          "type": "address"
        },
        {
          "internalType": "uint256",
          "name": "configWord",
          "type": "uint256"
        }
      ],
      "name": "registerAppByFactory",
      "outputs": [],
      "stateMutability": "nonpayable",
      "type": "function"
    },
    {
      "inputs": [
        {
          "internalType": "uint256",
          "name": "configWord",
          "type": "uint256"
        },
        {
          "internalType": "string",
          "name": "registrationKey",
          "type": "string"
        }
      ],
      "name": "registerAppWithKey",
      "outputs": [],
      "stateMutability": "nonpayable",
      "type": "function"
    },
    {
      "inputs": [
        {
          "internalType": "uint256",
          "name": "bitmap",
          "type": "uint256"
        },
        {
          "internalType": "bytes32",
          "name": "agreementType",
          "type": "bytes32"
        }
      ],
      "name": "removeFromAgreementClassesBitmap",
      "outputs": [
        {
          "internalType": "uint256",
          "name": "newBitmap",
          "type": "uint256"
        }
      ],
      "stateMutability": "view",
      "type": "function"
    },
    {
      "inputs": [
        {
          "internalType": "contract ISuperfluidGovernance",
          "name": "newGov",
          "type": "address"
        }
      ],
      "name": "replaceGovernance",
      "outputs": [],
      "stateMutability": "nonpayable",
      "type": "function"
    },
    {
      "inputs": [
        {
          "internalType": "contract ISuperAgreement",
          "name": "agreementClassLogic",
          "type": "address"
        }
      ],
      "name": "updateAgreementClass",
      "outputs": [],
      "stateMutability": "nonpayable",
      "type": "function"
    },
    {
      "inputs": [
        {
          "internalType": "address",
          "name": "newAddress",
          "type": "address"
        }
      ],
      "name": "updateCode",
      "outputs": [],
      "stateMutability": "nonpayable",
      "type": "function"
    },
    {
      "inputs": [
        {
          "internalType": "contract ISuperTokenFactory",
          "name": "newFactory",
          "type": "address"
        }
      ],
      "name": "updateSuperTokenFactory",
      "outputs": [],
      "stateMutability": "nonpayable",
      "type": "function"
    },
    {
      "inputs": [
        {
          "internalType": "contract ISuperToken",
          "name": "token",
          "type": "address"
        },
        {
          "internalType": "address",
          "name": "newLogicOverride",
          "type": "address"
        }
      ],
      "name": "updateSuperTokenLogic",
      "outputs": [],
      "stateMutability": "nonpayable",
      "type": "function"
    },
    {
      "inputs": [],
      "name": "versionRecipient",
      "outputs": [
        {
          "internalType": "string",
          "name": "",
          "type": "string"
        }
      ],
      "stateMutability": "pure",
      "type": "function"
    }
  ],
  "bytecode": {
    "object": "0x60c06040523480156200001157600080fd5b50604051620052293803806200522983398101604081905262000034916200005b565b901515608052151560a05262000093565b805180151581146200005657600080fd5b919050565b600080604083850312156200006f57600080fd5b6200007a8362000045565b91506200008a6020840162000045565b90509250929050565b60805160a051615131620000f8600039600081816105c901528181611ca0015281816121730152612587015260008181610705015281816107da01528181610a6b01528181611093015281816111ce0152818161132d01526124b501526151316000f3fe608060405234801561001057600080fd5b50600436106102d65760003560e01c80638ca4848411610182578063bbe4fd50116100e9578063c56a069d116100a2578063f2e55caf1161007c578063f2e55caf14610749578063f373305214610751578063f9f522f414610764578063fa6e0cfe1461079457600080fd5b8063c56a069d146106e0578063cd312ec414610700578063e8dccb7d1461072757600080fd5b8063bbe4fd5014610686578063bced3ddc1461068c578063bd1c448b1461069f578063bd3252c8146106b2578063bf428734146106ba578063c4d66de8146106cd57600080fd5b8063a5dbbbcd1161013b578063a5dbbbcd146105eb578063ad3915c8146105fe578063b6d200de14610611578063b724211e14610624578063ba48b5f814610637578063bb84cfa11461064a57600080fd5b80638ca48484146105535780638ceddd7a146105665780639378fa1314610584578063989b0c3e146105a95780639903ad38146105bc5780639d297e30146105c457600080fd5b806350d75d2511610241578063670e77e3116101fa5780637283100c116101d45780637283100c14610509578063731aed6e1461051c57806374041e021461052d578063768fabb01461054057600080fd5b8063670e77e3146104d05780636ad3ca7d146104e35780636b4f3335146104f657600080fd5b806350d75d251461044c57806352d1902d1461045457806354fbc4931461048457806357121e0c14610497578063572b6c05146104aa57806359a29141146104bd57600080fd5b806339255d5b1161029357806339255d5b1461038c5780633ca3ad4e1461039f5780633f6c923a146103da5780634329d293146103fa578063469519541461041b578063486ff0cd1461042e57600080fd5b806306cecba8146102db57806315a024e1146102f05780631e6d0a84146103035780631e855cf31461032c578063289b3c0d1461033f57806333d608f11461036a575b600080fd5b6102ee6102e9366004614000565b6107a7565b005b6102ee6102fe366004614000565b61097e565b61031661031136600461407a565b610bce565b6040516103239190614160565b60405180910390f35b61031661033a366004614236565b610e1a565b6000546201000090046001600160a01b03165b6040516001600160a01b039091168152602001610323565b610374622dc6c081565b6040516001600160401b039091168152602001610323565b61031661039a366004614285565b610e30565b6103ca6103ad366004614000565b6001600160a01b0316600090815260046020526040902054151590565b6040519015158152602001610323565b6103ed6103e83660046142fa565b610e46565b604051610323919061432e565b61040d61040836600461440f565b610e57565b6040516103239291906144bb565b6102ee610429366004614000565b611060565b604080518082019091526002815261763160f01b6020820152610316565b61035261115c565b7fcd355cae2c435f8c5e0c626c4691d22fd85aa7422a424c6f0bced6e64c7aba745b604051908152602001610323565b6102ee610492366004614000565b61118b565b6102ee6104a5366004614000565b61140e565b6103ca6104b8366004614000565b6114dc565b6103166104cb3660046144e0565b611566565b6102ee6104de36600461452b565b611648565b6102ee6104f136600461452b565b61165e565b6103ca610504366004614000565b611669565b6102ee610517366004614000565b61168d565b6003546001600160a01b0316610352565b61031661053b36600461407a565b611735565b61031661054e36600461459f565b611884565b6103ca610561366004614000565b611a20565b61056f61010081565b60405163ffffffff9091168152602001610323565b610597610592366004614000565b611ae5565b60405160ff9091168152602001610323565b6103166105b73660046144e0565b611b06565b6102ee611b99565b6103ca7f000000000000000000000000000000000000000000000000000000000000000081565b6104766105f936600461461a565b611c54565b6102ee61060c36600461463c565b611c9e565b61035261061f36600461463c565b611ce9565b610316610632366004614655565b611d50565b6103166106453660046146b1565b611e11565b6103ca610658366004614733565b6001600160a01b03918216600090815260056020908152604080832093909416825291909152205460ff1690565b42610476565b61047661069a36600461461a565b612128565b6102ee6106ad36600461476c565b612171565b610476600181565b6103ca6106c83660046147b7565b612289565b6102ee6106db366004614000565b6122ca565b6106f36106ee36600461463c565b6123ae565b60405161032391906147f8565b6103ca7f000000000000000000000000000000000000000000000000000000000000000081565b6103ca61073536600461463c565b600090815260026020526040902054151590565b610352612498565b6102ee61075f366004614845565b612560565b610777610772366004614000565b612668565b604080519315158452911515602084015290820152606001610323565b6102ee6107a2366004614733565b6126b7565b6000546201000090046001600160a01b031633146107d8576040516362e9152760e11b815260040160405180910390fd5b7f000000000000000000000000000000000000000000000000000000000000000015610817576040516314f72c9f60e01b815260040160405180910390fd5b6000816001600160a01b0316637730599e6040518163ffffffff1660e01b8152600401602060405180830381865afa158015610857573d6000803e3d6000fd5b505050506040513d601f19601f8201168201806040525081019061087b9190614871565b6000818152600260205260408120549192508190036108ad57604051630e4f4df560e11b815260040160405180910390fd5b600060016108bb81846148a0565b815481106108cb576108cb6148b3565b6000918252602090912001546040516311a5465560e21b81526001600160a01b03868116600483015290911691508190634695195490602401600060405180830381600087803b15801561091e57600080fd5b505af1158015610932573d6000803e3d6000fd5b5050604080518681526001600160a01b03881660208201527f9279aa773f2b588996032d8de89911555039f28b13a11a7c17074330bc082d9a935001905060405180910390a150505050565b6000546201000090046001600160a01b031633146109af576040516362e9152760e11b815260040160405180910390fd5b6000816001600160a01b0316637730599e6040518163ffffffff1660e01b8152600401602060405180830381865afa1580156109ef573d6000803e3d6000fd5b505050506040513d601f19601f82011682018060405250810190610a139190614871565b60008181526002602052604090205490915015610a4357604051631b93bb7560e31b815260040160405180910390fd5b60015461010011610a6757604051630f85034f60e31b815260040160405180910390fd5b60007f0000000000000000000000000000000000000000000000000000000000000000610b21576000604051610a9c90613f83565b604051809103906000f080158015610ab8573d6000803e3d6000fd5b50604051634a0687ef60e01b81526001600160a01b03868116600483015291925090821690634a0687ef90602401600060405180830381600087803b158015610b0057600080fd5b505af1158015610b14573d6000803e3d6000fd5b5050505080915050610b24565b50815b6001805480820182557fb10e2d527612073b26eecdfd717e6a320cf44b4afac2b0732d9fcbe2b7fa0cf60180546001600160a01b0384166001600160a01b0319909116179055546000838152600260205260409081902091909155517f878135063a6cfb3bc333e534b1fdc83f4f12221cad6705c31c0567048a8bd3d190610bc190849086909182526001600160a01b0316602082015260400190565b60405180910390a1505050565b6060610bd933611a20565b610bf65760405163619c535960e01b815260040160405180910390fd5b82828080601f016020809104026020016040519081016040528093929190818152602001838380828437600092019190915250610c38925083915061281a9050565b610c4457610c446148c9565b600080610cbe8a6000898c8c8080601f01602080910402602001604051908101604052809392919081815260200183838082843760009201919091525050604080516020601f8f018190048102820181019092528d815292508d91508c908190840183828082843760009201919091525061283a92505050565b915091508115610dd357610cd18161298c565b15610d6b5780806020019051810190610cea9190614924565b9350610cf58461281a565b610d665786610d1f5760405163a85ba64f60e01b8152601460048201526024015b60405180910390fd5b85858080601f016020809104026020016040519081016040528093929190818152602001838380828437600092019190915250929650610d6692508c9150601490506129e0565b610e0d565b86610d8c5760405163a85ba64f60e01b815260166004820152602401610d16565b85858080601f016020809104026020016040519081016040528093929190818152602001838380828437600092019190915250929650610d6692508c9150601690506129e0565b85858080601f0160208091040260200160405190810160405280939291908181526020018383808284376000920191909152509296505050505b5050509695505050505050565b6060610e27338484612a61565b90505b92915050565b6060610e3e33858585612c9c565b949350505050565b610e4e613f90565b610e2a82612dab565b60608083838080601f016020809104026020016040519081016040528093929190818152602001838380828437600092019190915250610e9c925083915061281a9050565b610ebc5760405163a85ba64f60e01b815260146004820152602401610d16565b89610ec681611a20565b610ee35760405163619c535960e01b815260040160405180910390fd5b6000610f2487878080601f016020809104026020016040519081016040528093929190818152602001838380828437600092019190915250610e4692505050565b6101208101519091506001600160a01b03163314610f555760405163066875e160e11b815260040160405180910390fd5b60608101805133909152604080516020601f8c018190048102820181019092528a8152908b908b908190840183828082843760009201919091525050505060a0830152610fa182612e76565b95506000610fe78e8e8e8080601f0160208091040260200160405190810160405280939291908181526020018383808284376000920191909152508c9250612faa915050565b96509050801561104657858060200190518101906110059190614924565b96506110108761281a565b61101c5761101c6148c9565b61102587610e46565b6001600160a01b0383166060820152925061103f83612e76565b965061104f565b61104f86613063565b505050505097509795505050505050565b6000546201000090046001600160a01b03163314611091576040516362e9152760e11b815260040160405180910390fd5b7f0000000000000000000000000000000000000000000000000000000000000000156110d0576040516314f72c9f60e01b815260040160405180910390fd5b806001600160a01b031663cd312ec46040518163ffffffff1660e01b8152600401602060405180830381865afa15801561110e573d6000803e3d6000fd5b505050506040513d601f19601f820116820180604052508101906111329190614958565b156111505760405163474e764160e01b815260040160405180910390fd5b6111598161316e565b50565b60006111867f360894a13ba1a3210667c828492db98dca3e2076cc3735a920a3ca505d382bbc5490565b905090565b6000546201000090046001600160a01b031633146111bc576040516362e9152760e11b815260040160405180910390fd5b6003546001600160a01b031661132b577f00000000000000000000000000000000000000000000000000000000000000006112a25760006040516111ff90613f83565b604051809103906000f08015801561121b573d6000803e3d6000fd5b50604051634a0687ef60e01b81526001600160a01b03848116600483015291925090821690634a0687ef90602401600060405180830381600087803b15801561126357600080fd5b505af1158015611277573d6000803e3d6000fd5b5050600380546001600160a01b0319166001600160a01b039490941693909317909255506112be9050565b600380546001600160a01b0319166001600160a01b0383161790555b600360009054906101000a90046001600160a01b03166001600160a01b0316638129fc1c6040518163ffffffff1660e01b8152600401600060405180830381600087803b15801561130e57600080fd5b505af1158015611322573d6000803e3d6000fd5b505050506113ca565b7f00000000000000000000000000000000000000000000000000000000000000001561136a576040516314f72c9f60e01b815260040160405180910390fd5b6003546040516311a5465560e21b81526001600160a01b03838116600483015290911690634695195490602401600060405180830381600087803b1580156113b157600080fd5b505af11580156113c5573d6000803e3d6000fd5b505050505b6003546040516001600160a01b0390911681527fce13a9895a1719ad4493b2ac1a9bfb36070566161abab408e7ecbe586da8d499906020015b60405180910390a150565b3360008181526004602052604090205461143b576040516302eb3f7160e61b815260040160405180910390fd5b6001600160a01b03821660009081526004602052604090205461147157604051634b5518af60e11b815260040160405180910390fd5b61147a82611ae5565b60ff1661148682611ae5565b60ff16116114a757604051630447252760e41b815260040160405180910390fd5b6001600160a01b039081166000908152600560209081526040808320949093168252929092529020805460ff19166001179055565b600080546201000090046001600160a01b03166380f70cba30836114ff866133a8565b6040518463ffffffff1660e01b815260040161151d93929190614975565b602060405180830381865afa15801561153a573d6000803e3d6000fd5b505050506040513d601f19601f8201168201806040525081019061155e9190614871565b151592915050565b606061157133611a20565b61158e5760405163619c535960e01b815260040160405180910390fd5b83838080601f0160208091040260200160405190810160405280939291908181526020018383808284376000920191909152506115d0925083915061281a9050565b6115dc576115dc6148c9565b600061161d86868080601f016020809104026020016040519081016040528093929190818152602001838380828437600092019190915250610e4692505050565b90508381610100018181516116329190614999565b90525061163e81612e76565b9695505050505050565b61165a611653613430565b8383613498565b5050565b61165a338383613498565b6001600160a01b038116600090815260046020526040812054618000161515610e2a565b6000546201000090046001600160a01b031633146116be576040516362e9152760e11b815260040160405180910390fd5b600054604080516001600160a01b03620100009093048316815291831660208301527f13abda02e63c790d0e2818b251282cfe5cbe0a8abd69c54bf5d2260c0907bd2e910160405180910390a1600080546001600160a01b03909216620100000262010000600160b01b0319909216919091179055565b606061174033611a20565b61175d5760405163619c535960e01b815260040160405180910390fd5b82828080601f01602080910402602001604051908101604052809392919081815260200183838082843760009201919091525061179f925083915061281a9050565b6117ab576117ab6148c9565b6000806118258a6001898c8c8080601f01602080910402602001604051908101604052809392919081815260200183838082843760009201919091525050604080516020601f8f018190048102820181019092528d815292508d91508c908190840183828082843760009201919091525061283a92505050565b915091508115610e0d576118388161298c565b1561185857808060200190518101906118519190614924565b9350610e0d565b866118795760405163a85ba64f60e01b815260166004820152602401610d16565b610e0d8a60166129e0565b606061188f33611a20565b6118ac5760405163619c535960e01b815260040160405180910390fd5b86868080601f0160208091040260200160405190810160405280939291908181526020018383808284376000920191909152506118ee925083915061281a9050565b6118fa576118fa6148c9565b600061193b89898080601f016020809104026020016040519081016040528093929190818152602001838380828437600092019190915250610e4692505050565b905061196281606001516001600160a01b0316600090815260046020526040902054151590565b801561197657506001816000015160ff1610155b156119c95760608101516001600160a01b039081166000908152600560209081526040808320938b168352929052205460ff166119c95760405163a85ba64f60e01b8152601e6004820152602401610d16565b8051816119d5826149c1565b60ff169052506003602082015260c0810186905261010081018590526001600160a01b038088166101208301528416610140820152611a1381612e76565b9998505050505050505050565b600080826001600160a01b0316637730599e6040518163ffffffff1660e01b8152600401602060405180830381865afa158015611a61573d6000803e3d6000fd5b505050506040513d601f19601f82011682018060405250810190611a859190614871565b6000818152600260205260409020549091508015801590610e3e57506001600160a01b0384166001611ab781846148a0565b81548110611ac757611ac76148b3565b6000918252602090912001546001600160a01b031614949350505050565b6001600160a01b03811660009081526004602052604081205460ff16610e2a565b6060611b1133611a20565b611b2e5760405163619c535960e01b815260040160405180910390fd5b6000611b6f85858080601f016020809104026020016040519081016040528093929190818152602001838380828437600092019190915250610e4692505050565b9050828161010001818151611b849190614999565b905250611b9081612e76565b95945050505050565b600054610100900460ff1615808015611bb95750600054600160ff909116105b80611bd35750303b158015611bd3575060005460ff166001145b611bef5760405162461bcd60e51b8152600401610d16906149e0565b6000805460ff191660011790558015611c12576000805461ff0019166101001790555b8015611159576000805461ff0019169055604051600181527f7f26b83ff96e1f2b6a682f133852f6798a09c465da95921460cefb384740249890602001611403565b600081815260026020526040812054808203611c8357604051630e4f4df560e11b815260040160405180910390fd5b611c8e6001826148a0565b6001901b19841691505092915050565b7f000000000000000000000000000000000000000000000000000000000000000015611cdd576040516305b93ebf60e41b815260040160405180910390fd5b61115981336001613be8565b600081815260026020526040812054808203611d1857604051630e4f4df560e11b815260040160405180910390fd5b6001611d2481836148a0565b81548110611d3457611d346148b3565b6000918252602090912001546001600160a01b03169392505050565b6060611d5b33611a20565b611d785760405163619c535960e01b815260040160405180910390fd5b84848080601f016020809104026020016040519081016040528093929190818152602001838380828437600092019190915250611dba925083915061281a9050565b611dc657611dc66148c9565b611dd084846129e0565b85858080601f016020809104026020016040519081016040528093929190818152602001838380828437600092019190915250929998505050505050505050565b606082828080601f016020809104026020016040519081016040528093929190818152602001838380828437600092019190915250611e55925083915061281a9050565b611e755760405163a85ba64f60e01b815260146004820152602401610d16565b6001600160a01b0387166000908152600460205260408120548891819003611eb05760405163163cbe4360e01b815260040160405180910390fd5b618000811615611ed257604051628e12d960e21b815260040160405180910390fd5b87878080601f01602080910402602001604051908101604052809392919081815260200183838082843760009201829052509250611f139150839050613d07565b90506001600160e01b031981166330d9c91560e01b1480611f4457506001600160e01b0319811663d86ed3e560e01b145b80611f5f57506001600160e01b03198116630221347d60e61b145b80611f7a57506001600160e01b0319811663230dbd2960e01b145b80611f9557506001600160e01b03198116635f9e7d7760e01b145b80611fb057506001600160e01b031981166353c11f9960e01b145b15611fce576040516377a14afb60e11b815260040160405180910390fd5b600061200f89898080601f016020809104026020016040519081016040528093929190818152602001838380828437600092019190915250610e4692505050565b6101208101519091506001600160a01b03163314612040576040516311cfdef560e21b815260040160405180910390fd5b6060810180513390915261205382612e76565b975060008061209a8f8f8f8080601f0160208091040260200160405190810160405280939291908181526020018383808284376000920191909152508f9250612faa915050565b91509150811561210d57808060200190518101906120b89190614924565b99506120c38a61281a565b6120e35760405163a85ba64f60e01b815260146004820152602401610d16565b6120ec8a610e46565b6001600160a01b0384166060820152935061210684612e76565b9950612116565b61211681613063565b50505050505050505095945050505050565b60008181526002602052604081205480820361215757604051630e4f4df560e11b815260040160405180910390fd5b6121626001826148a0565b6001901b841791505092915050565b7f0000000000000000000000000000000000000000000000000000000000000000156122785760006121d93284848080601f016020809104026020016040519081016040528093929190818152602001838380828437600092019190915250613d6392505050565b6000805460405163407b865d60e11b81529293504292620100009091046001600160a01b0316916380f70cba916122169130918790600401614975565b602060405180830381865afa158015612233573d6000803e3d6000fd5b505050506040513d601f19601f820116820180604052508101906122579190614871565b1015612276576040516319ab84d160e01b815260040160405180910390fd5b505b61228483336001613be8565b505050565b6000610e2783838080601f01602080910402602001604051908101604052809392919081815260200183838082843760009201919091525061281a92505050565b600054610100900460ff16158080156122ea5750600054600160ff909116105b806123045750303b158015612304575060005460ff166001145b6123205760405162461bcd60e51b8152600401610d16906149e0565b6000805460ff191660011790558015612343576000805461ff0019166101001790555b6000805462010000600160b01b031916620100006001600160a01b03851602179055801561165a576000805461ff0019169055604051600181527f7f26b83ff96e1f2b6a682f133852f6798a09c465da95921460cefb38474024989060200160405180910390a15050565b60606000806001805490506001600160401b038111156123d0576123d0614173565b6040519080825280602002602001820160405280156123f9578160200160208202803683370190505b50925060009050600091505b600154821015612490576001821b841615612480576001828154811061242d5761242d6148b3565b6000918252602090912001546001600160a01b0316838261244d81614a2e565b93508151811061245f5761245f6148b3565b60200260200101906001600160a01b031690816001600160a01b0316815250505b61248982614a2e565b9150612405565b825250919050565b6003546000906001600160a01b03166124b3576124b36148c9565b7f0000000000000000000000000000000000000000000000000000000000000000156124e957506003546001600160a01b031690565b600360009054906101000a90046001600160a01b03166001600160a01b03166350d75d256040518163ffffffff1660e01b8152600401602060405180830381865afa15801561253c573d6000803e3d6000fd5b505050506040513d601f19601f820116820180604052508101906111869190614a47565b333b60008190036125845760405163353dacc360e21b815260040160405180910390fd5b507f00000000000000000000000000000000000000000000000000000000000000001561265c5760006125b633613d96565b6000805460405163407b865d60e11b81529293509091620100009091046001600160a01b0316906380f70cba906125f590309085908790600401614975565b602060405180830381865afa158015612612573d6000803e3d6000fd5b505050506040513d601f19601f820116820180604052508101906126369190614871565b6001149050806126595760405163289533c560e01b815260040160405180910390fd5b50505b61165a81836000613be8565b6001600160a01b0381166000908152600460209081526040808320815192830190915254808252158015929182916126af57805161800081161515935064ff000000001691505b509193909250565b6000546201000090046001600160a01b031633146126e8576040516362e9152760e11b815260040160405180910390fd5b60006001600160a01b03821661277457600360009054906101000a90046001600160a01b03166001600160a01b0316639470a5b26040518163ffffffff1660e01b8152600401602060405180830381865afa15801561274b573d6000803e3d6000fd5b505050506040513d601f19601f8201168201806040525081019061276f9190614a47565b612776565b815b6040516311a5465560e21b81526001600160a01b03808316600483015291925090841690634695195490602401600060405180830381600087803b1580156127bd57600080fd5b505af11580156127d1573d6000803e3d6000fd5b50506040516001600160a01b038481168252861692507f840acbd291b38534819f47f875839277e502f40e1c7bfea2c5fc2c8017442cd3915060200160405180910390a2505050565b60008151600014158015610e2a5750600654825160208401201492915050565b600060606001600160a01b038716612854576128546148c9565b61285e8484613e10565b9350622dc6c060005a905087156128d457886001600160a01b031682876040516128889190614a64565b6000604051808303818686fa925050503d80600081146128c4576040519150601f19603f3d011682016040523d82523d6000602084013e6128c9565b606091505b509094509250612937565b886001600160a01b031682876040516128ed9190614a64565b60006040518083038160008787f1925050503d806000811461292b576040519150601f19603f3d011682016040523d82523d6000602084013e612930565b606091505b5090945092505b836129805761294581613ec7565b612967578661295c5761295783613063565b612980565b61295789600a6129e0565b604051636a7aea4b60e11b815260040160405180910390fd5b50509550959350505050565b60006040825110156129a057506000919050565b6020828101519060009082146129ba575060009392505050565b5060408301516129c981613edd565b6129d4906040614a80565b84511492505050919050565b6001600160a01b03821660009081526004602052604081205461800016900361165a576001600160a01b038216600081815260046020526040908190208054618000179055517fbe3aa33bd245135e4e26b223d79d14ea479a47bff09f2b03c53838af1edbb14b90612a559084815260200190565b60405180910390a25050565b60065460609015612a885760405163a85ba64f60e01b815260156004820152602401610d16565b6001600160a01b0383166000908152600460205260408120548491819003612ac35760405163163cbe4360e01b815260040160405180910390fd5b618000811615612ae557604051628e12d960e21b815260040160405180910390fd5b836000612af182613d07565b90506001600160e01b031981166330d9c91560e01b1480612b2257506001600160e01b0319811663d86ed3e560e01b145b80612b3d57506001600160e01b03198116630221347d60e61b145b80612b5857506001600160e01b0319811663230dbd2960e01b145b80612b7357506001600160e01b03198116635f9e7d7760e01b145b80612b8e57506001600160e01b031981166353c11f9960e01b145b15612bac576040516377a14afb60e11b815260040160405180910390fd5b60408051610160810182526000808252600260208084019190915242838501526001600160a01b03808d16606085015260808401839052845191820190945281815260a083015260c0820181905260e0820181905261010082018190529189166101208201526101408101829052612c2390612e76565b90506000612c32898984612faa565b975090508015612c805786806020019051810190612c509190614924565b9150612c5b8261281a565b612c7b5760405163a85ba64f60e01b815260146004820152602401610d16565b612c89565b612c8987613063565b5050600060065550929695505050505050565b60065460609015612cc35760405163a85ba64f60e01b815260156004820152602401610d16565b83612ccd81611a20565b612cea5760405163619c535960e01b815260040160405180910390fd5b6000612cf585613d07565b6040805161016081018252600080825260016020830152929350612d789181014281526020018a6001600160a01b03168152602001846001600160e01b031916815260200187815260200160008152602001600081526020016000815260200160006001600160a01b0316815260200160006001600160a01b0316815250612e76565b90506000612d87888884612faa565b9550905080612d9957612d9985613063565b50506000600655509095945050505050565b612db3613f90565b60608083806020019051810190612dca9190614a93565b81519193509150600090612de79084016020908101908501614aec565b60a08901526001600160e01b03191660808801526001600160a01b031660608701526040860152602081811c600f168187015260ff9091168552825160009250612e38919084018101908401614b70565b6001600160a01b03908116610140890152166101208701526101008601526001600160801b03811660c086015260801c60e085015250919392505050565b60606001826000015160ff161115612ea45760405163a85ba64f60e01b815260286004820152602401610d16565b815160208084015160009260ff1664ff000000009190921b1617905060006080612ed18560e00151613f16565b6001600160801b0316901b612ee98560c00151613f16565b6001600160801b0316179050818460400151856060015186608001518760a00151604051602001612f1e959493929190614bbb565b60408051601f1981840301815282825261010087015161012088015161014089015160208601879052938501919091526001600160a01b03908116606085015290911660808301529060a00160408051601f1981840301815290829052612f8892916020016144bb565b60408051601f1981840301815291905280516020820120600655949350505050565b600060606001600160a01b038516612fc457612fc46148c9565b612fce8484613e10565b9350846001600160a01b031684604051612fe89190614a64565b6000604051808303816000865af19150503d8060008114613025576040519150601f19603f3d011682016040523d82523d6000602084013e61302a565b606091505b509092509050811561305b57805160000361305b5760405163a85ba64f60e01b815260166004820152602401610d16565b935093915050565b6004815110156130b55760405162461bcd60e51b815260206004820152601a60248201527f43616c6c5574696c733a207461726765742072657665727428290000000000006044820152606401610d16565b602081015163b1b7848f60e01b6001600160e01b03198216016131655760408051808201825260208082527f43616c6c5574696c733a207461726765742070616e69636b65643a2030785f5f90820190815260248501517f43616c6c5574696c733a207461726765742070616e69636b65643a2030780000600482811c600f908116603090810160081b918516011791909117909252925162461bcd60e51b8152919291610d1691849101614160565b81518060208401fd5b60006131987f360894a13ba1a3210667c828492db98dca3e2076cc3735a920a3ca505d382bbc5490565b6001600160a01b0316036131ee5760405162461bcd60e51b815260206004820152601d60248201527f5555505350726f786961626c653a206e6f742075706772616461626c650000006044820152606401610d16565b806001600160a01b03166352d1902d6040518163ffffffff1660e01b8152600401602060405180830381865afa15801561322c573d6000803e3d6000fd5b505050506040513d601f19601f820116820180604052508101906132509190614871565b7fcd355cae2c435f8c5e0c626c4691d22fd85aa7422a424c6f0bced6e64c7aba74146132ca5760405162461bcd60e51b815260206004820152602360248201527f5555505350726f786961626c653a206e6f7420636f6d70617469626c65206c6f60448201526267696360e81b6064820152608401610d16565b6001600160a01b03811630036133225760405162461bcd60e51b815260206004820152601960248201527f5555505350726f786961626c653a2070726f7879206c6f6f70000000000000006044820152606401610d16565b61334a817f360894a13ba1a3210667c828492db98dca3e2076cc3735a920a3ca505d382bbc55565b7fe011bc04c286c344a8fcbb8de77f953da762c3e25d8cdea984147fc4168a5dcc7fcd355cae2c435f8c5e0c626c4691d22fd85aa7422a424c6f0bced6e64c7aba74604080519182526001600160a01b038416602083015201611403565b6040805160208101829052603260608201527f6f72672e7375706572666c7569642d66696e616e63652e7375706572666c756960808201527132173a393ab9ba32b22337b93bb0b93232b960711b60a08201526001600160a01b0383169181019190915260009060c0015b604051602081830303815290604052805190602001209050919050565b6000601836108015906134475750613447336114dc565b61348b5760405162461bcd60e51b81526020600482015260156024820152742737ba103a393ab9ba32b2103337b93bb0b93232b960591b6044820152606401610d16565b5060131936013560601c90565b60005b81811015613be25760008383838181106134b7576134b76148b3565b90506020028101906134c99190614c07565b6134d7906020810190614c1d565b905060001963ffffffff8216016135cb576000808585858181106134fd576134fd6148b3565b905060200281019061350f9190614c07565b61351d906040810190614c43565b81019061352a9190614845565b91509150858585818110613540576135406148b3565b90506020028101906135529190614c07565b613563906040810190602001614000565b6001600160a01b03166362aa52878884846040518463ffffffff1660e01b815260040161359293929190614975565b600060405180830381600087803b1580156135ac57600080fd5b505af11580156135c0573d6000803e3d6000fd5b505050505050613bd1565b60011963ffffffff8216016136d65760008060008686868181106135f1576135f16148b3565b90506020028101906136039190614c07565b613611906040810190614c43565b81019061361e9190614c89565b925092509250868686818110613636576136366148b3565b90506020028101906136489190614c07565b613659906040810190602001614000565b604051630b682aeb60e11b81526001600160a01b038a81166004830152858116602483015284811660448301526064820184905291909116906316d055d6906084015b600060405180830381600087803b1580156136b657600080fd5b505af11580156136ca573d6000803e3d6000fd5b50505050505050613bd1565b60021963ffffffff8216016137955760008060008686868181106136fc576136fc6148b3565b905060200281019061370e9190614c07565b61371c906040810190614c43565b8101906137299190614cca565b925092509250868686818110613741576137416148b3565b90506020028101906137539190614c07565b613764906040810190602001614000565b6001600160a01b031663ca0c1e7f898585856040518563ffffffff1660e01b815260040161369c9493929190614d18565b60031963ffffffff82160161384e576000808585858181106137b9576137b96148b3565b90506020028101906137cb9190614c07565b6137d9906040810190614c43565b8101906137e69190614845565b915091508585858181106137fc576137fc6148b3565b905060200281019061380e9190614c07565b61381f906040810190602001614000565b6001600160a01b0316634b2763b38884846040518463ffffffff1660e01b815260040161359293929190614975565b60041963ffffffff82160161390757600080858585818110613872576138726148b3565b90506020028101906138849190614c07565b613892906040810190614c43565b81019061389f9190614845565b915091508585858181106138b5576138b56148b3565b90506020028101906138c79190614c07565b6138d8906040810190602001614000565b6001600160a01b031663c780fd828884846040518463ffffffff1660e01b815260040161359293929190614975565b60641963ffffffff8216016139fc57838383818110613928576139286148b3565b905060200281019061393a9190614c07565b61394b906040810190602001614000565b6001600160a01b031663ca7894648686868681811061396c5761396c6148b3565b905060200281019061397e9190614c07565b61398c906040810190614c43565b810190613999919061463c565b6040516001600160e01b031960e085901b1681526001600160a01b0390921660048301526024820152604401600060405180830381600087803b1580156139df57600080fd5b505af11580156139f3573d6000803e3d6000fd5b50505050613bd1565b60651963ffffffff821601613a6157838383818110613a1d57613a1d6148b3565b9050602002810190613a2f9190614c07565b613a40906040810190602001614000565b6001600160a01b031663245887fc8686868681811061396c5761396c6148b3565b60c81963ffffffff821601613afe57600080858585818110613a8557613a856148b3565b9050602002810190613a979190614c07565b613aa5906040810190614c43565b810190613ab29190614d4b565b91509150613af687878787818110613acc57613acc6148b3565b9050602002810190613ade9190614c07565b613aef906040810190602001614000565b8484612c9c565b505050613bd1565b60c91963ffffffff821601613bb857613bb285858585818110613b2357613b236148b3565b9050602002810190613b359190614c07565b613b46906040810190602001614000565b868686818110613b5857613b586148b3565b9050602002810190613b6a9190614c07565b613b78906040810190614c43565b8080601f016020809104026020016040519081016040528093929190818152602001838380828437600092019190915250612a6192505050565b50613bd1565b60405163b477011560e01b815260040160405180910390fd5b50613bdb81614a2e565b905061349b565b50505050565b323303613c0b5760405163a85ba64f60e01b815260026004820152602401610d16565b8015613c3757813b8015613c355760405163a85ba64f60e01b815260016004820152602401610d16565b505b64ff000080ff198316151580613c4e575060ff8316155b80613c5c5750618000831615155b15613c7a57604051633d3200a960e21b815260040160405180910390fd5b6001600160a01b03821660009081526004602052604090205415613cb1576040516301b0a93560e01b815260040160405180910390fd5b60408051602080820183528582526001600160a01b038516600081815260049092528382209251909255915190917f0d540ad8f39e07d19909687352b9fa017405d93c91a6760981fbae9cf28bfef791a2505050565b6000600482511015613d5b5760405162461bcd60e51b815260206004820152601b60248201527f43616c6c5574696c733a20696e76616c69642063616c6c4461746100000000006044820152606401610d16565b506020015190565b60008282604051602001613d78929190614da4565b60405160208183030381529060405280519060200120905092915050565b6040805160208101829052603960608201527f6f72672e7375706572666c7569642d66696e616e63652e7375706572666c756960808201527f642e61707057686974654c697374696e672e666163746f72790000000000000060a08201526001600160a01b0383169181019190915260009060c001613413565b815180830151606091908015613e39576040516367e9985b60e01b815260040160405180910390fd5b50601f1981018452825184908481613e5081613edd565b613e5a91906148a0565b6001600160401b03811115613e7157613e71614173565b6040519080825280601f01601f191660200182016040528015613e9b576020820181803683370190505b50604051602001613eaf9493929190614e29565b60405160208183030381529060405291505092915050565b6000613ed4603f83614e78565b5a111592915050565b60008082601f1611613ef0576000613ef3565b60015b60ff16613f01602084614e78565b613f0b9190614a80565b610e2a906020614e9a565b60006001600160801b03821115613f7f5760405162461bcd60e51b815260206004820152602760248201527f53616665436173743a2076616c756520646f65736e27742066697420696e20316044820152663238206269747360c81b6064820152608401610d16565b5090565b61024a80614eb283390190565b604080516101608101825260008082526020820181905291810182905260608082018390526080820183905260a082015260c0810182905260e081018290526101008101829052610120810182905261014081019190915290565b6001600160a01b038116811461115957600080fd5b60006020828403121561401257600080fd5b813561401d81613feb565b9392505050565b60008083601f84011261403657600080fd5b5081356001600160401b0381111561404d57600080fd5b60208301915083602082850101111561406557600080fd5b9250929050565b801515811461115957600080fd5b6000806000806000806080878903121561409357600080fd5b863561409e81613feb565b955060208701356001600160401b03808211156140ba57600080fd5b6140c68a838b01614024565b9097509550604089013591506140db8261406c565b909350606088013590808211156140f157600080fd5b506140fe89828a01614024565b979a9699509497509295939492505050565b60005b8381101561412b578181015183820152602001614113565b50506000910152565b6000815180845261414c816020860160208601614110565b601f01601f19169290920160200192915050565b602081526000610e276020830184614134565b634e487b7160e01b600052604160045260246000fd5b604051601f8201601f191681016001600160401b03811182821017156141b1576141b1614173565b604052919050565b60006001600160401b038211156141d2576141d2614173565b50601f01601f191660200190565b600082601f8301126141f157600080fd5b81356142046141ff826141b9565b614189565b81815284602083860101111561421957600080fd5b816020850160208301376000918101602001919091529392505050565b6000806040838503121561424957600080fd5b823561425481613feb565b915060208301356001600160401b0381111561426f57600080fd5b61427b858286016141e0565b9150509250929050565b60008060006060848603121561429a57600080fd5b83356142a581613feb565b925060208401356001600160401b03808211156142c157600080fd5b6142cd878388016141e0565b935060408601359150808211156142e357600080fd5b506142f0868287016141e0565b9150509250925092565b60006020828403121561430c57600080fd5b81356001600160401b0381111561432257600080fd5b610e3e848285016141e0565b6020815261434260208201835160ff169052565b60006020830151614358604084018260ff169052565b5060408301516060830152606083015161437d60808401826001600160a01b03169052565b5060808301516001600160e01b0319811660a08401525060a08301516101608060c08501526143b0610180850183614134565b915060c085015160e085015260e08501516101008181870152808701519150506101208181870152808701519150506101406143f6818701836001600160a01b03169052565b909501516001600160a01b031693019290925250919050565b60008060008060008060006080888a03121561442a57600080fd5b873561443581613feb565b965060208801356001600160401b038082111561445157600080fd5b61445d8b838c01614024565b909850965060408a013591508082111561447657600080fd5b6144828b838c01614024565b909650945060608a013591508082111561449b57600080fd5b506144a88a828b01614024565b989b979a50959850939692959293505050565b6040815260006144ce6040830185614134565b8281036020840152611b908185614134565b6000806000604084860312156144f557600080fd5b83356001600160401b0381111561450b57600080fd5b61451786828701614024565b909790965060209590950135949350505050565b6000806020838503121561453e57600080fd5b82356001600160401b038082111561455557600080fd5b818501915085601f83011261456957600080fd5b81358181111561457857600080fd5b8660208260051b850101111561458d57600080fd5b60209290920196919550909350505050565b60008060008060008060a087890312156145b857600080fd5b86356001600160401b038111156145ce57600080fd5b6145da89828a01614024565b90975095505060208701356145ee81613feb565b93506040870135925060608701359150608087013561460c81613feb565b809150509295509295509295565b6000806040838503121561462d57600080fd5b50508035926020909101359150565b60006020828403121561464e57600080fd5b5035919050565b6000806000806060858703121561466b57600080fd5b84356001600160401b0381111561468157600080fd5b61468d87828801614024565b90955093505060208501356146a181613feb565b9396929550929360400135925050565b6000806000806000606086880312156146c957600080fd5b85356146d481613feb565b945060208601356001600160401b03808211156146f057600080fd5b6146fc89838a01614024565b9096509450604088013591508082111561471557600080fd5b5061472288828901614024565b969995985093965092949392505050565b6000806040838503121561474657600080fd5b823561475181613feb565b9150602083013561476181613feb565b809150509250929050565b60008060006040848603121561478157600080fd5b8335925060208401356001600160401b0381111561479e57600080fd5b6147aa86828701614024565b9497909650939450505050565b600080602083850312156147ca57600080fd5b82356001600160401b038111156147e057600080fd5b6147ec85828601614024565b90969095509350505050565b6020808252825182820181905260009190848201906040850190845b818110156148395783516001600160a01b031683529284019291840191600101614814565b50909695505050505050565b6000806040838503121561485857600080fd5b823561486381613feb565b946020939093013593505050565b60006020828403121561488357600080fd5b5051919050565b634e487b7160e01b600052601160045260246000fd5b81810381811115610e2a57610e2a61488a565b634e487b7160e01b600052603260045260246000fd5b634e487b7160e01b600052600160045260246000fd5b600082601f8301126148f057600080fd5b81516148fe6141ff826141b9565b81815284602083860101111561491357600080fd5b610e3e826020830160208701614110565b60006020828403121561493657600080fd5b81516001600160401b0381111561494c57600080fd5b610e3e848285016148df565b60006020828403121561496a57600080fd5b815161401d8161406c565b6001600160a01b039384168152919092166020820152604081019190915260600190565b80820182811260008312801582168215821617156149b9576149b961488a565b505092915050565b600060ff821660ff81036149d7576149d761488a565b60010192915050565b6020808252602e908201527f496e697469616c697a61626c653a20636f6e747261637420697320616c72656160408201526d191e481a5b9a5d1a585b1a5e995960921b606082015260800190565b600060018201614a4057614a4061488a565b5060010190565b600060208284031215614a5957600080fd5b815161401d81613feb565b60008251614a76818460208701614110565b9190910192915050565b80820180821115610e2a57610e2a61488a565b60008060408385031215614aa657600080fd5b82516001600160401b0380821115614abd57600080fd5b614ac9868387016148df565b93506020850151915080821115614adf57600080fd5b5061427b858286016148df565b600080600080600060a08688031215614b0457600080fd5b85519450602086015193506040860151614b1d81613feb565b60608701519093506001600160e01b031981168114614b3b57600080fd5b60808701519092506001600160401b03811115614b5757600080fd5b614b63888289016148df565b9150509295509295909350565b60008060008060808587031215614b8657600080fd5b84519350602085015192506040850151614b9f81613feb565b6060860151909250614bb081613feb565b939692955090935050565b858152602081018590526001600160a01b03841660408201526001600160e01b03198316606082015260a060808201819052600090614bfc90830184614134565b979650505050505050565b60008235605e19833603018112614a7657600080fd5b600060208284031215614c2f57600080fd5b813563ffffffff8116811461401d57600080fd5b6000808335601e19843603018112614c5a57600080fd5b8301803591506001600160401b03821115614c7457600080fd5b60200191503681900382131561406557600080fd5b600080600060608486031215614c9e57600080fd5b8335614ca981613feb565b92506020840135614cb981613feb565b929592945050506040919091013590565b600080600060608486031215614cdf57600080fd5b8335614cea81613feb565b92506020840135915060408401356001600160401b03811115614d0c57600080fd5b6142f0868287016141e0565b6001600160a01b038581168252841660208201526040810183905260806060820181905260009061163e90830184614134565b60008060408385031215614d5e57600080fd5b82356001600160401b0380821115614d7557600080fd5b614d81868387016141e0565b93506020850135915080821115614d9757600080fd5b5061427b858286016141e0565b60608152604160608201527f6f72672e7375706572666c7569642d66696e616e63652e7375706572666c756960808201527f642e61707057686974654c697374696e672e726567697374726174696f6e4b6560a0820152607960f81b60c082015260018060a01b038316602082015260e060408201526000610e3e60e0830184614134565b600085516020614e3c8285838b01614110565b81840191508682528551614e5581838501848a01614110565b8551920191614e6981838501848901614110565b91909101019695505050505050565b600082614e9557634e487b7160e01b600052601260045260246000fd5b500490565b8082028115828204841417610e2a57610e2a61488a56fe608060405234801561001057600080fd5b5061022a806100206000396000f3fe6080604052600436106100225760003560e01c80634a0687ef1461003957610031565b366100315761002f610059565b005b61002f610059565b34801561004557600080fd5b5061002f6100543660046101c4565b61006b565b610069610064610171565b6101a0565b565b6001600160a01b0381166100c65760405162461bcd60e51b815260206004820152601760248201527f5555505350726f78793a207a65726f206164647265737300000000000000000060448201526064015b60405180910390fd5b60006100f07f360894a13ba1a3210667c828492db98dca3e2076cc3735a920a3ca505d382bbc5490565b6001600160a01b0316146101465760405162461bcd60e51b815260206004820152601e60248201527f5555505350726f78793a20616c726561647920696e697469616c697a6564000060448201526064016100bd565b61016e817f360894a13ba1a3210667c828492db98dca3e2076cc3735a920a3ca505d382bbc55565b50565b600061019b7f360894a13ba1a3210667c828492db98dca3e2076cc3735a920a3ca505d382bbc5490565b905090565b3660008037600080366000845af43d6000803e8080156101bf573d6000f35b3d6000fd5b6000602082840312156101d657600080fd5b81356001600160a01b03811681146101ed57600080fd5b939250505056fea2646970667358221220c6b765b301584778547e97ee3b18ace84dca78431ca0e38d943f6267c0594e7f64736f6c63430008130033a264697066735822122058bce6ba51d18ba42042a36c4abff81481b0d8f0808bb35888a61c55d0fad1ca64736f6c63430008130033",
    "linkReferences": {}
  },
  "methodIdentifiers": {
    "APP_WHITE_LISTING_ENABLED()": "9d297e30",
    "CALLBACK_GAS_LIMIT()": "33d608f1",
    "MAX_APP_CALLBACK_LEVEL()": "bd3252c8",
    "MAX_NUM_AGREEMENTS()": "8ceddd7a",
    "NON_UPGRADABLE_DEPLOYMENT()": "cd312ec4",
    "addToAgreementClassesBitmap(uint256,bytes32)": "bced3ddc",
    "allowCompositeApp(address)": "57121e0c",
    "appCallbackPop(bytes,int256)": "989b0c3e",
    "appCallbackPush(bytes,address,uint256,int256,address)": "768fabb0",
    "batchCall((uint32,address,bytes)[])": "6ad3ca7d",
    "callAgreement(address,bytes,bytes)": "39255d5b",
    "callAgreementWithContext(address,bytes,bytes,bytes)": "4329d293",
    "callAppAction(address,bytes)": "1e855cf3",
    "callAppActionWithContext(address,bytes,bytes)": "ba48b5f8",
    "callAppAfterCallback(address,bytes,bool,bytes)": "1e6d0a84",
    "callAppBeforeCallback(address,bytes,bool,bytes)": "74041e02",
    "castrate()": "9903ad38",
    "ctxUseCredit(bytes,int256)": "59a29141",
    "decodeCtx(bytes)": "3f6c923a",
    "forwardBatchCall((uint32,address,bytes)[])": "670e77e3",
    "getAgreementClass(bytes32)": "b6d200de",
    "getAppCallbackLevel(address)": "9378fa13",
    "getAppManifest(address)": "f9f522f4",
    "getCodeAddress()": "50d75d25",
    "getGovernance()": "289b3c0d",
    "getNow()": "bbe4fd50",
    "getSuperTokenFactory()": "731aed6e",
    "getSuperTokenFactoryLogic()": "f2e55caf",
    "initialize(address)": "c4d66de8",
    "isAgreementClassListed(address)": "8ca48484",
    "isAgreementTypeListed(bytes32)": "e8dccb7d",
    "isApp(address)": "3ca3ad4e",
    "isAppJailed(address)": "6b4f3335",
    "isCompositeAppAllowed(address,address)": "bb84cfa1",
    "isCtxValid(bytes)": "bf428734",
    "isTrustedForwarder(address)": "572b6c05",
    "jailApp(bytes,address,uint256)": "b724211e",
    "mapAgreementClasses(uint256)": "c56a069d",
    "proxiableUUID()": "52d1902d",
    "registerAgreementClass(address)": "15a024e1",
    "registerApp(uint256)": "ad3915c8",
    "registerAppByFactory(address,uint256)": "f3733052",
    "registerAppWithKey(uint256,string)": "bd1c448b",
    "removeFromAgreementClassesBitmap(uint256,bytes32)": "a5dbbbcd",
    "replaceGovernance(address)": "7283100c",
    "updateAgreementClass(address)": "06cecba8",
    "updateCode(address)": "46951954",
    "updateSuperTokenFactory(address)": "54fbc493",
    "updateSuperTokenLogic(address,address)": "fa6e0cfe",
    "versionRecipient()": "486ff0cd"
  },
  "id": 93
}