{
  "abi": [
    {
      "inputs": [
        {
          "internalType": "bool",
          "name": "nonUpgradable",
          "type": "bool"
        },
        {
          "internalType": "bool",
          "name": "appWhiteListingEnabled",
          "type": "bool"
        }
      ],
      "stateMutability": "nonpayable",
      "type": "constructor"
    },
    {
      "inputs": [
        {
          "internalType": "uint256",
          "name": "_code",
          "type": "uint256"
        }
      ],
      "name": "APP_RULE",
      "type": "error"
    },
    {
      "inputs": [],
      "name": "HOST_AGREEMENT_ALREADY_REGISTERED",
      "type": "error"
    },
    {
      "inputs": [],
      "name": "HOST_AGREEMENT_CALLBACK_IS_NOT_ACTION",
      "type": "error"
    },
    {
      "inputs": [],
      "name": "HOST_AGREEMENT_IS_NOT_REGISTERED",
      "type": "error"
    },
    {
      "inputs": [],
      "name": "HOST_CALL_AGREEMENT_WITH_CTX_FROM_WRONG_ADDRESS",
      "type": "error"
    },
    {
      "inputs": [],
      "name": "HOST_CALL_APP_ACTION_WITH_CTX_FROM_WRONG_ADDRESS",
      "type": "error"
    },
    {
      "inputs": [],
      "name": "HOST_CANNOT_DOWNGRADE_TO_NON_UPGRADEABLE",
      "type": "error"
    },
    {
      "inputs": [],
      "name": "HOST_INVALID_CONFIG_WORD",
      "type": "error"
    },
    {
      "inputs": [],
      "name": "HOST_INVALID_OR_EXPIRED_SUPER_APP_REGISTRATION_KEY",
      "type": "error"
    },
    {
      "inputs": [],
      "name": "HOST_MAX_256_AGREEMENTS",
      "type": "error"
    },
    {
      "inputs": [],
      "name": "HOST_MUST_BE_CONTRACT",
      "type": "error"
    },
    {
      "inputs": [],
      "name": "HOST_NEED_MORE_GAS",
      "type": "error"
    },
    {
      "inputs": [],
      "name": "HOST_NON_UPGRADEABLE",
      "type": "error"
    },
    {
      "inputs": [],
      "name": "HOST_NON_ZERO_LENGTH_PLACEHOLDER_CTX",
      "type": "error"
    },
    {
      "inputs": [],
      "name": "HOST_NOT_A_SUPER_APP",
      "type": "error"
    },
    {
      "inputs": [],
      "name": "HOST_NO_APP_REGISTRATION_PERMISSIONS",
      "type": "error"
    },
    {
      "inputs": [],
      "name": "HOST_ONLY_GOVERNANCE",
      "type": "error"
    },
    {
      "inputs": [],
      "name": "HOST_ONLY_LISTED_AGREEMENT",
      "type": "error"
    },
    {
      "inputs": [],
      "name": "HOST_RECEIVER_IS_NOT_SUPER_APP",
      "type": "error"
    },
    {
      "inputs": [],
      "name": "HOST_SENDER_IS_NOT_SUPER_APP",
      "type": "error"
    },
    {
      "inputs": [],
      "name": "HOST_SOURCE_APP_NEEDS_HIGHER_APP_LEVEL",
      "type": "error"
    },
    {
      "inputs": [],
      "name": "HOST_SUPER_APP_ALREADY_REGISTERED",
      "type": "error"
    },
    {
      "inputs": [],
      "name": "HOST_SUPER_APP_IS_JAILED",
      "type": "error"
    },
    {
      "inputs": [],
      "name": "HOST_UNAUTHORIZED_SUPER_APP_FACTORY",
      "type": "error"
    },
    {
      "inputs": [],
      "name": "HOST_UNKNOWN_BATCH_CALL_OPERATION_TYPE",
      "type": "error"
    },
    {
      "anonymous": false,
      "inputs": [
        {
          "indexed": false,
          "internalType": "bytes32",
          "name": "agreementType",
          "type": "bytes32"
        },
        {
          "indexed": false,
          "internalType": "address",
          "name": "code",
          "type": "address"
        }
      ],
      "name": "AgreementClassRegistered",
      "type": "event"
    },
    {
      "anonymous": false,
      "inputs": [
        {
          "indexed": false,
          "internalType": "bytes32",
          "name": "agreementType",
          "type": "bytes32"
        },
        {
          "indexed": false,
          "internalType": "address",
          "name": "code",
          "type": "address"
        }
      ],
      "name": "AgreementClassUpdated",
      "type": "event"
    },
    {
      "anonymous": false,
      "inputs": [
        {
          "indexed": true,
          "internalType": "contract ISuperApp",
          "name": "app",
          "type": "address"
        }
      ],
      "name": "AppRegistered",
      "type": "event"
    },
    {
      "anonymous": false,
      "inputs": [
        {
          "indexed": false,
          "internalType": "bytes32",
          "name": "uuid",
          "type": "bytes32"
        },
        {
          "indexed": false,
          "internalType": "address",
          "name": "codeAddress",
          "type": "address"
        }
      ],
      "name": "CodeUpdated",
      "type": "event"
    },
    {
      "anonymous": false,
      "inputs": [
        {
          "indexed": false,
          "internalType": "contract ISuperfluidGovernance",
          "name": "oldGov",
          "type": "address"
        },
        {
          "indexed": false,
          "internalType": "contract ISuperfluidGovernance",
          "name": "newGov",
          "type": "address"
        }
      ],
      "name": "GovernanceReplaced",
      "type": "event"
    },
    {
      "anonymous": false,
      "inputs": [
        {
          "indexed": false,
          "internalType": "uint8",
          "name": "version",
          "type": "uint8"
        }
      ],
      "name": "Initialized",
      "type": "event"
    },
    {
      "anonymous": false,
      "inputs": [
        {
          "indexed": true,
          "internalType": "contract ISuperApp",
          "name": "app",
          "type": "address"
        },
        {
          "indexed": false,
          "internalType": "uint256",
          "name": "reason",
          "type": "uint256"
        }
      ],
      "name": "Jail",
      "type": "event"
    },
    {
      "anonymous": false,
      "inputs": [
        {
          "indexed": false,
          "internalType": "contract ISuperTokenFactory",
          "name": "newFactory",
          "type": "address"
        }
      ],
      "name": "SuperTokenFactoryUpdated",
      "type": "event"
    },
    {
      "anonymous": false,
      "inputs": [
        {
          "indexed": true,
          "internalType": "contract ISuperToken",
          "name": "token",
          "type": "address"
        },
        {
          "indexed": false,
          "internalType": "address",
          "name": "code",
          "type": "address"
        }
      ],
      "name": "SuperTokenLogicUpdated",
      "type": "event"
    },
    {
      "inputs": [],
      "name": "APP_WHITE_LISTING_ENABLED",
      "outputs": [
        {
          "internalType": "bool",
          "name": "",
          "type": "bool"
        }
      ],
      "stateMutability": "view",
      "type": "function"
    },
    {
      "inputs": [],
      "name": "CALLBACK_GAS_LIMIT",
      "outputs": [
        {
          "internalType": "uint64",
          "name": "",
          "type": "uint64"
        }
      ],
      "stateMutability": "view",
      "type": "function"
    },
    {
      "inputs": [],
      "name": "MAX_APP_CALLBACK_LEVEL",
      "outputs": [
        {
          "internalType": "uint256",
          "name": "",
          "type": "uint256"
        }
      ],
      "stateMutability": "view",
      "type": "function"
    },
    {
      "inputs": [],
      "name": "MAX_NUM_AGREEMENTS",
      "outputs": [
        {
          "internalType": "uint32",
          "name": "",
          "type": "uint32"
        }
      ],
      "stateMutability": "view",
      "type": "function"
    },
    {
      "inputs": [],
      "name": "NON_UPGRADABLE_DEPLOYMENT",
      "outputs": [
        {
          "internalType": "bool",
          "name": "",
          "type": "bool"
        }
      ],
      "stateMutability": "view",
      "type": "function"
    },
    {
      "inputs": [
        {
          "internalType": "uint256",
          "name": "bitmap",
          "type": "uint256"
        },
        {
          "internalType": "bytes32",
          "name": "agreementType",
          "type": "bytes32"
        }
      ],
      "name": "addToAgreementClassesBitmap",
      "outputs": [
        {
          "internalType": "uint256",
          "name": "newBitmap",
          "type": "uint256"
        }
      ],
      "stateMutability": "view",
      "type": "function"
    },
    {
      "inputs": [
        {
          "internalType": "contract ISuperApp",
          "name": "targetApp",
          "type": "address"
        }
      ],
      "name": "allowCompositeApp",
      "outputs": [],
      "stateMutability": "nonpayable",
      "type": "function"
    },
    {
      "inputs": [
        {
          "internalType": "bytes",
          "name": "ctx",
          "type": "bytes"
        },
        {
          "internalType": "int256",
          "name": "appCreditUsedDelta",
          "type": "int256"
        }
      ],
      "name": "appCallbackPop",
      "outputs": [
        {
          "internalType": "bytes",
          "name": "newCtx",
          "type": "bytes"
        }
      ],
      "stateMutability": "nonpayable",
      "type": "function"
    },
    {
      "inputs": [
        {
          "internalType": "bytes",
          "name": "ctx",
          "type": "bytes"
        },
        {
          "internalType": "contract ISuperApp",
          "name": "app",
          "type": "address"
        },
        {
          "internalType": "uint256",
          "name": "appCreditGranted",
          "type": "uint256"
        },
        {
          "internalType": "int256",
          "name": "appCreditUsed",
          "type": "int256"
        },
        {
          "internalType": "contract ISuperfluidToken",
          "name": "appCreditToken",
          "type": "address"
        }
      ],
      "name": "appCallbackPush",
      "outputs": [
        {
          "internalType": "bytes",
          "name": "appCtx",
          "type": "bytes"
        }
      ],
      "stateMutability": "nonpayable",
      "type": "function"
    },
    {
      "inputs": [
        {
          "components": [
            {
              "internalType": "uint32",
              "name": "operationType",
              "type": "uint32"
            },
            {
              "internalType": "address",
              "name": "target",
              "type": "address"
            },
            {
              "internalType": "bytes",
              "name": "data",
              "type": "bytes"
            }
          ],
          "internalType": "struct ISuperfluid.Operation[]",
          "name": "operations",
          "type": "tuple[]"
        }
      ],
      "name": "batchCall",
      "outputs": [],
      "stateMutability": "nonpayable",
      "type": "function"
    },
    {
      "inputs": [
        {
          "internalType": "contract ISuperAgreement",
          "name": "agreementClass",
          "type": "address"
        },
        {
          "internalType": "bytes",
          "name": "callData",
          "type": "bytes"
        },
        {
          "internalType": "bytes",
          "name": "userData",
          "type": "bytes"
        }
      ],
      "name": "callAgreement",
      "outputs": [
        {
          "internalType": "bytes",
          "name": "returnedData",
          "type": "bytes"
        }
      ],
      "stateMutability": "nonpayable",
      "type": "function"
    },
    {
      "inputs": [
        {
          "internalType": "contract ISuperAgreement",
          "name": "agreementClass",
          "type": "address"
        },
        {
          "internalType": "bytes",
          "name": "callData",
          "type": "bytes"
        },
        {
          "internalType": "bytes",
          "name": "userData",
          "type": "bytes"
        },
        {
          "internalType": "bytes",
          "name": "ctx",
          "type": "bytes"
        }
      ],
      "name": "callAgreementWithContext",
      "outputs": [
        {
          "internalType": "bytes",
          "name": "newCtx",
          "type": "bytes"
        },
        {
          "internalType": "bytes",
          "name": "returnedData",
          "type": "bytes"
        }
      ],
      "stateMutability": "nonpayable",
      "type": "function"
    },
    {
      "inputs": [
        {
          "internalType": "contract ISuperApp",
          "name": "app",
          "type": "address"
        },
        {
          "internalType": "bytes",
          "name": "callData",
          "type": "bytes"
        }
      ],
      "name": "callAppAction",
      "outputs": [
        {
          "internalType": "bytes",
          "name": "returnedData",
          "type": "bytes"
        }
      ],
      "stateMutability": "nonpayable",
      "type": "function"
    },
    {
      "inputs": [
        {
          "internalType": "contract ISuperApp",
          "name": "app",
          "type": "address"
        },
        {
          "internalType": "bytes",
          "name": "callData",
          "type": "bytes"
        },
        {
          "internalType": "bytes",
          "name": "ctx",
          "type": "bytes"
        }
      ],
      "name": "callAppActionWithContext",
      "outputs": [
        {
          "internalType": "bytes",
          "name": "newCtx",
          "type": "bytes"
        }
      ],
      "stateMutability": "nonpayable",
      "type": "function"
    },
    {
      "inputs": [
        {
          "internalType": "contract ISuperApp",
          "name": "app",
          "type": "address"
        },
        {
          "internalType": "bytes",
          "name": "callData",
          "type": "bytes"
        },
        {
          "internalType": "bool",
          "name": "isTermination",
          "type": "bool"
        },
        {
          "internalType": "bytes",
          "name": "ctx",
          "type": "bytes"
        }
      ],
      "name": "callAppAfterCallback",
      "outputs": [
        {
          "internalType": "bytes",
          "name": "newCtx",
          "type": "bytes"
        }
      ],
      "stateMutability": "nonpayable",
      "type": "function"
    },
    {
      "inputs": [
        {
          "internalType": "contract ISuperApp",
          "name": "app",
          "type": "address"
        },
        {
          "internalType": "bytes",
          "name": "callData",
          "type": "bytes"
        },
        {
          "internalType": "bool",
          "name": "isTermination",
          "type": "bool"
        },
        {
          "internalType": "bytes",
          "name": "ctx",
          "type": "bytes"
        }
      ],
      "name": "callAppBeforeCallback",
      "outputs": [
        {
          "internalType": "bytes",
          "name": "cbdata",
          "type": "bytes"
        }
      ],
      "stateMutability": "nonpayable",
      "type": "function"
    },
    {
      "inputs": [],
      "name": "castrate",
      "outputs": [],
      "stateMutability": "nonpayable",
      "type": "function"
    },
    {
      "inputs": [
        {
          "internalType": "bytes",
          "name": "ctx",
          "type": "bytes"
        },
        {
          "internalType": "int256",
          "name": "appCreditUsedMore",
          "type": "int256"
        }
      ],
      "name": "ctxUseCredit",
      "outputs": [
        {
          "internalType": "bytes",
          "name": "newCtx",
          "type": "bytes"
        }
      ],
      "stateMutability": "nonpayable",
      "type": "function"
    },
    {
      "inputs": [
        {
          "internalType": "bytes",
          "name": "ctx",
          "type": "bytes"
        }
      ],
      "name": "decodeCtx",
      "outputs": [
        {
          "components": [
            {
              "internalType": "uint8",
              "name": "appCallbackLevel",
              "type": "uint8"
            },
            {
              "internalType": "uint8",
              "name": "callType",
              "type": "uint8"
            },
            {
              "internalType": "uint256",
              "name": "timestamp",
              "type": "uint256"
            },
            {
              "internalType": "address",
              "name": "msgSender",
              "type": "address"
            },
            {
              "internalType": "bytes4",
              "name": "agreementSelector",
              "type": "bytes4"
            },
            {
              "internalType": "bytes",
              "name": "userData",
              "type": "bytes"
            },
            {
              "internalType": "uint256",
              "name": "appCreditGranted",
              "type": "uint256"
            },
            {
              "internalType": "uint256",
              "name": "appCreditWantedDeprecated",
              "type": "uint256"
            },
            {
              "internalType": "int256",
              "name": "appCreditUsed",
              "type": "int256"
            },
            {
              "internalType": "address",
              "name": "appAddress",
              "type": "address"
            },
            {
              "internalType": "contract ISuperfluidToken",
              "name": "appCreditToken",
              "type": "address"
            }
          ],
          "internalType": "struct ISuperfluid.Context",
          "name": "context",
          "type": "tuple"
        }
      ],
      "stateMutability": "pure",
      "type": "function"
    },
    {
      "inputs": [
        {
          "components": [
            {
              "internalType": "uint32",
              "name": "operationType",
              "type": "uint32"
            },
            {
              "internalType": "address",
              "name": "target",
              "type": "address"
            },
            {
              "internalType": "bytes",
              "name": "data",
              "type": "bytes"
            }
          ],
          "internalType": "struct ISuperfluid.Operation[]",
          "name": "operations",
          "type": "tuple[]"
        }
      ],
      "name": "forwardBatchCall",
      "outputs": [],
      "stateMutability": "nonpayable",
      "type": "function"
    },
    {
      "inputs": [
        {
          "internalType": "bytes32",
          "name": "agreementType",
          "type": "bytes32"
        }
      ],
      "name": "getAgreementClass",
      "outputs": [
        {
          "internalType": "contract ISuperAgreement",
          "name": "agreementClass",
          "type": "address"
        }
      ],
      "stateMutability": "view",
      "type": "function"
    },
    {
      "inputs": [
        {
          "internalType": "contract ISuperApp",
          "name": "appAddr",
          "type": "address"
        }
      ],
      "name": "getAppCallbackLevel",
      "outputs": [
        {
          "internalType": "uint8",
          "name": "",
          "type": "uint8"
        }
      ],
      "stateMutability": "view",
      "type": "function"
    },
    {
      "inputs": [
        {
          "internalType": "contract ISuperApp",
          "name": "app",
          "type": "address"
        }
      ],
      "name": "getAppManifest",
      "outputs": [
        {
          "internalType": "bool",
          "name": "isSuperApp",
          "type": "bool"
        },
        {
          "internalType": "bool",
          "name": "isJailed",
          "type": "bool"
        },
        {
          "internalType": "uint256",
          "name": "noopMask",
          "type": "uint256"
        }
      ],
      "stateMutability": "view",
      "type": "function"
    },
    {
      "inputs": [],
      "name": "getCodeAddress",
      "outputs": [
        {
          "internalType": "address",
          "name": "codeAddress",
          "type": "address"
        }
      ],
      "stateMutability": "view",
      "type": "function"
    },
    {
      "inputs": [],
      "name": "getGovernance",
      "outputs": [
        {
          "internalType": "contract ISuperfluidGovernance",
          "name": "",
          "type": "address"
        }
      ],
      "stateMutability": "view",
      "type": "function"
    },
    {
      "inputs": [],
      "name": "getNow",
      "outputs": [
        {
          "internalType": "uint256",
          "name": "",
          "type": "uint256"
        }
      ],
      "stateMutability": "view",
      "type": "function"
    },
    {
      "inputs": [],
      "name": "getSuperTokenFactory",
      "outputs": [
        {
          "internalType": "contract ISuperTokenFactory",
          "name": "factory",
          "type": "address"
        }
      ],
      "stateMutability": "view",
      "type": "function"
    },
    {
      "inputs": [],
      "name": "getSuperTokenFactoryLogic",
      "outputs": [
        {
          "internalType": "address",
          "name": "logic",
          "type": "address"
        }
      ],
      "stateMutability": "view",
      "type": "function"
    },
    {
      "inputs": [
        {
          "internalType": "contract ISuperfluidGovernance",
          "name": "gov",
          "type": "address"
        }
      ],
      "name": "initialize",
      "outputs": [],
      "stateMutability": "nonpayable",
      "type": "function"
    },
    {
      "inputs": [
        {
          "internalType": "contract ISuperAgreement",
          "name": "agreementClass",
          "type": "address"
        }
      ],
      "name": "isAgreementClassListed",
      "outputs": [
        {
          "internalType": "bool",
          "name": "yes",
          "type": "bool"
        }
      ],
      "stateMutability": "view",
      "type": "function"
    },
    {
      "inputs": [
        {
          "internalType": "bytes32",
          "name": "agreementType",
          "type": "bytes32"
        }
      ],
      "name": "isAgreementTypeListed",
      "outputs": [
        {
          "internalType": "bool",
          "name": "yes",
          "type": "bool"
        }
      ],
      "stateMutability": "view",
      "type": "function"
    },
    {
      "inputs": [
        {
          "internalType": "contract ISuperApp",
          "name": "app",
          "type": "address"
        }
      ],
      "name": "isApp",
      "outputs": [
        {
          "internalType": "bool",
          "name": "",
          "type": "bool"
        }
      ],
      "stateMutability": "view",
      "type": "function"
    },
    {
      "inputs": [
        {
          "internalType": "contract ISuperApp",
          "name": "app",
          "type": "address"
        }
      ],
      "name": "isAppJailed",
      "outputs": [
        {
          "internalType": "bool",
          "name": "",
          "type": "bool"
        }
      ],
      "stateMutability": "view",
      "type": "function"
    },
    {
      "inputs": [
        {
          "internalType": "contract ISuperApp",
          "name": "app",
          "type": "address"
        },
        {
          "internalType": "contract ISuperApp",
          "name": "targetApp",
          "type": "address"
        }
      ],
      "name": "isCompositeAppAllowed",
      "outputs": [
        {
          "internalType": "bool",
          "name": "",
          "type": "bool"
        }
      ],
      "stateMutability": "view",
      "type": "function"
    },
    {
      "inputs": [
        {
          "internalType": "bytes",
          "name": "ctx",
          "type": "bytes"
        }
      ],
      "name": "isCtxValid",
      "outputs": [
        {
          "internalType": "bool",
          "name": "",
          "type": "bool"
        }
      ],
      "stateMutability": "view",
      "type": "function"
    },
    {
      "inputs": [
        {
          "internalType": "address",
          "name": "forwarder",
          "type": "address"
        }
      ],
      "name": "isTrustedForwarder",
      "outputs": [
        {
          "internalType": "bool",
          "name": "",
          "type": "bool"
        }
      ],
      "stateMutability": "view",
      "type": "function"
    },
    {
      "inputs": [
        {
          "internalType": "bytes",
          "name": "ctx",
          "type": "bytes"
        },
        {
          "internalType": "contract ISuperApp",
          "name": "app",
          "type": "address"
        },
        {
          "internalType": "uint256",
          "name": "reason",
          "type": "uint256"
        }
      ],
      "name": "jailApp",
      "outputs": [
        {
          "internalType": "bytes",
          "name": "newCtx",
          "type": "bytes"
        }
      ],
      "stateMutability": "nonpayable",
      "type": "function"
    },
    {
      "inputs": [
        {
          "internalType": "uint256",
          "name": "bitmap",
          "type": "uint256"
        }
      ],
      "name": "mapAgreementClasses",
      "outputs": [
        {
          "internalType": "contract ISuperAgreement[]",
          "name": "agreementClasses",
          "type": "address[]"
        }
      ],
      "stateMutability": "view",
      "type": "function"
    },
    {
      "inputs": [],
      "name": "proxiableUUID",
      "outputs": [
        {
          "internalType": "bytes32",
          "name": "",
          "type": "bytes32"
        }
      ],
      "stateMutability": "pure",
      "type": "function"
    },
    {
      "inputs": [
        {
          "internalType": "contract ISuperAgreement",
          "name": "agreementClassLogic",
          "type": "address"
        }
      ],
      "name": "registerAgreementClass",
      "outputs": [],
      "stateMutability": "nonpayable",
      "type": "function"
    },
    {
      "inputs": [
        {
          "internalType": "uint256",
          "name": "configWord",
          "type": "uint256"
        }
      ],
      "name": "registerApp",
      "outputs": [],
      "stateMutability": "nonpayable",
      "type": "function"
    },
    {
      "inputs": [
        {
          "internalType": "contract ISuperApp",
          "name": "app",
          "type": "address"
        },
        {
          "internalType": "uint256",
          "name": "configWord",
          "type": "uint256"
        }
      ],
      "name": "registerAppByFactory",
      "outputs": [],
      "stateMutability": "nonpayable",
      "type": "function"
    },
    {
      "inputs": [
        {
          "internalType": "uint256",
          "name": "configWord",
          "type": "uint256"
        },
        {
          "internalType": "string",
          "name": "registrationKey",
          "type": "string"
        }
      ],
      "name": "registerAppWithKey",
      "outputs": [],
      "stateMutability": "nonpayable",
      "type": "function"
    },
    {
      "inputs": [
        {
          "internalType": "uint256",
          "name": "bitmap",
          "type": "uint256"
        },
        {
          "internalType": "bytes32",
          "name": "agreementType",
          "type": "bytes32"
        }
      ],
      "name": "removeFromAgreementClassesBitmap",
      "outputs": [
        {
          "internalType": "uint256",
          "name": "newBitmap",
          "type": "uint256"
        }
      ],
      "stateMutability": "view",
      "type": "function"
    },
    {
      "inputs": [
        {
          "internalType": "contract ISuperfluidGovernance",
          "name": "newGov",
          "type": "address"
        }
      ],
      "name": "replaceGovernance",
      "outputs": [],
      "stateMutability": "nonpayable",
      "type": "function"
    },
    {
      "inputs": [
        {
          "internalType": "contract ISuperAgreement",
          "name": "agreementClassLogic",
          "type": "address"
        }
      ],
      "name": "updateAgreementClass",
      "outputs": [],
      "stateMutability": "nonpayable",
      "type": "function"
    },
    {
      "inputs": [
        {
          "internalType": "address",
          "name": "newAddress",
          "type": "address"
        }
      ],
      "name": "updateCode",
      "outputs": [],
      "stateMutability": "nonpayable",
      "type": "function"
    },
    {
      "inputs": [
        {
          "internalType": "contract ISuperTokenFactory",
          "name": "newFactory",
          "type": "address"
        }
      ],
      "name": "updateSuperTokenFactory",
      "outputs": [],
      "stateMutability": "nonpayable",
      "type": "function"
    },
    {
      "inputs": [
        {
          "internalType": "contract ISuperToken",
          "name": "token",
          "type": "address"
        },
        {
          "internalType": "address",
          "name": "newLogicOverride",
          "type": "address"
        }
      ],
      "name": "updateSuperTokenLogic",
      "outputs": [],
      "stateMutability": "nonpayable",
      "type": "function"
    },
    {
      "inputs": [],
      "name": "versionRecipient",
      "outputs": [
        {
          "internalType": "string",
          "name": "",
          "type": "string"
        }
      ],
      "stateMutability": "pure",
      "type": "function"
    }
  ],
  "bytecode": {
    "object": "0x60c06040523480156200001157600080fd5b50604051620050fe380380620050fe83398101604081905262000034916200005b565b901515608052151560a05262000093565b805180151581146200005657600080fd5b919050565b600080604083850312156200006f57600080fd5b6200007a8362000045565b91506200008a6020840162000045565b90509250929050565b60805160a051615006620000f8600039600081816104fc01528181611bac0152818161207f01526124880152600081816106380152818161070d0152818161099801528181610fcb0152818161110a0152818161126b01526123b601526150066000f3fe608060405234801561001057600080fd5b50600436106102465760003560e01c806306cecba81461024b57806315a024e1146102605780631e6d0a84146102735780631e855cf31461029c578063289b3c0d146102af57806333d608f1146102cf57806339255d5b146102f15780633ca3ad4e146103045780633f6c923a146103275780634329d293146103475780634695195414610368578063486ff0cd1461037b57806350d75d251461039957806352d1902d146103a157806354fbc493146103b757806357121e0c146103ca578063572b6c05146103dd57806359a29141146103f0578063670e77e3146104035780636ad3ca7d146104165780636b4f3335146104295780637283100c1461043c578063731aed6e1461044f57806374041e0214610460578063768fabb0146104735780638ca48484146104865780638ceddd7a146104995780639378fa13146104b7578063989b0c3e146104dc5780639903ad38146104ef5780639d297e30146104f7578063a5dbbbcd1461051e578063ad3915c814610531578063b6d200de14610544578063b724211e14610557578063ba48b5f81461056a578063bb84cfa11461057d578063bbe4fd50146105b9578063bced3ddc146105bf578063bd1c448b146105d2578063bd3252c8146105e5578063bf428734146105ed578063c4d66de814610600578063c56a069d14610613578063cd312ec414610633578063e8dccb7d1461065a578063f2e55caf1461067c578063f373305214610684578063f9f522f414610697578063fa6e0cfe146106c7575b600080fd5b61025e610259366004613e82565b6106da565b005b61025e61026e366004613e82565b6108ab565b610286610281366004613efc565b610ae9565b6040516102939190613fe2565b60405180910390f35b6102866102aa3660046140b8565b610d35565b6000546201000090046001600160a01b03165b6040516102939190614114565b6102d9622dc6c081565b6040516001600160401b039091168152602001610293565b6102866102ff366004614128565b610d4b565b610317610312366004613e82565b610d61565b6040519015158152602001610293565b61033a61033536600461419d565b610d7e565b60405161029391906141d1565b61035a6103553660046142a4565b610d8f565b604051610293929190614350565b61025e610376366004613e82565b610f98565b604080518082019091526002815261763160f01b6020820152610286565b6102c2611094565b6103a96110a3565b604051908152602001610293565b61025e6103c5366004613e82565b6110c7565b61025e6103d8366004613e82565b611353565b6103176103eb366004613e82565b61140b565b6102866103fe366004614375565b611495565b61025e6104113660046143c0565b611577565b61025e6104243660046143c0565b61158d565b610317610437366004613e82565b611598565b61025e61044a366004613e82565b6115bc565b6003546001600160a01b03166102c2565b61028661046e366004613efc565b611664565b610286610481366004614434565b6117b3565b610317610494366004613e82565b611937565b6104a261010081565b60405163ffffffff9091168152602001610293565b6104ca6104c5366004613e82565b6119fc565b60405160ff9091168152602001610293565b6102866104ea366004614375565b611a1d565b61025e611ab0565b6103177f000000000000000000000000000000000000000000000000000000000000000081565b6103a961052c3660046144af565b611b60565b61025e61053f3660046144d1565b611baa565b6102c26105523660046144d1565b611bf5565b6102866105653660046144ea565b611c5c565b610286610578366004614546565b611d1d565b61031761058b3660046145c8565b6001600160a01b03918216600090815260056020908152604080832093909416825291909152205460ff1690565b426103a9565b6103a96105cd3660046144af565b612034565b61025e6105e0366004614601565b61207d565b6103a9600181565b6103176105fb36600461464c565b612195565b61025e61060e366004613e82565b6121d6565b6106266106213660046144d1565b6122af565b604051610293919061468d565b6103177f000000000000000000000000000000000000000000000000000000000000000081565b6103176106683660046144d1565b600090815260026020526040902054151590565b6102c2612399565b61025e6106923660046146da565b612461565b6106aa6106a5366004613e82565b612569565b604080519315158452911515602084015290820152606001610293565b61025e6106d53660046145c8565b6125b7565b6000546201000090046001600160a01b0316331461070b576040516362e9152760e11b815260040160405180910390fd5b7f00000000000000000000000000000000000000000000000000000000000000001561074a576040516314f72c9f60e01b815260040160405180910390fd5b6000816001600160a01b0316637730599e6040518163ffffffff1660e01b8152600401602060405180830381865afa15801561078a573d6000803e3d6000fd5b505050506040513d601f19601f820116820180604052508101906107ae9190614706565b6000818152600260205260408120549192508190036107e057604051630e4f4df560e11b815260040160405180910390fd5b600060016107ee8184614735565b815481106107fe576107fe614748565b6000918252602090912001546040516311a5465560e21b81526001600160a01b039091169150819063469519549061083a908790600401614114565b600060405180830381600087803b15801561085457600080fd5b505af1158015610868573d6000803e3d6000fd5b505050507f9279aa773f2b588996032d8de89911555039f28b13a11a7c17074330bc082d9a838560405161089d92919061475e565b60405180910390a150505050565b6000546201000090046001600160a01b031633146108dc576040516362e9152760e11b815260040160405180910390fd5b6000816001600160a01b0316637730599e6040518163ffffffff1660e01b8152600401602060405180830381865afa15801561091c573d6000803e3d6000fd5b505050506040513d601f19601f820116820180604052508101906109409190614706565b6000818152600260205260409020549091501561097057604051631b93bb7560e31b815260040160405180910390fd5b6001546101001161099457604051630f85034f60e31b815260040160405180910390fd5b60007f0000000000000000000000000000000000000000000000000000000000000000610a505760006040516109c990613e05565b604051809103906000f0801580156109e5573d6000803e3d6000fd5b50604051634a0687ef60e01b81529091506001600160a01b03821690634a0687ef90610a15908790600401614114565b600060405180830381600087803b158015610a2f57600080fd5b505af1158015610a43573d6000803e3d6000fd5b5050505080915050610a53565b50815b6001805480820182557fb10e2d527612073b26eecdfd717e6a320cf44b4afac2b0732d9fcbe2b7fa0cf60180546001600160a01b0319166001600160a01b038416179055546000838152600260205260409081902091909155517f878135063a6cfb3bc333e534b1fdc83f4f12221cad6705c31c0567048a8bd3d190610adc908490869061475e565b60405180910390a1505050565b6060610af433611937565b610b115760405163619c535960e01b815260040160405180910390fd5b82828080601f016020809104026020016040519081016040528093929190818152602001838380828437600092019190915250610b53925083915061271d9050565b610b5f57610b5f614775565b600080610bd98a6000898c8c8080601f01602080910402602001604051908101604052809392919081815260200183838082843760009201919091525050604080516020601f8f018190048102820181019092528d815292508d91508c908190840183828082843760009201919091525061273d92505050565b915091508115610cee57610bec8161288f565b15610c865780806020019051810190610c0591906147d0565b9350610c108461271d565b610c815786610c3a5760405163a85ba64f60e01b8152601460048201526024015b60405180910390fd5b85858080601f016020809104026020016040519081016040528093929190818152602001838380828437600092019190915250929650610c8192508c9150601490506128e3565b610d28565b86610ca75760405163a85ba64f60e01b815260166004820152602401610c31565b85858080601f016020809104026020016040519081016040528093929190818152602001838380828437600092019190915250929650610c8192508c9150601690506128e3565b85858080601f0160208091040260200160405190810160405280939291908181526020018383808284376000920191909152509296505050505b5050509695505050505050565b6060610d42338484612964565b90505b92915050565b6060610d5933858585612b9f565b949350505050565b6001600160a01b0316600090815260046020526040902054151590565b610d86613e12565b610d4582612cae565b60608083838080601f016020809104026020016040519081016040528093929190818152602001838380828437600092019190915250610dd4925083915061271d9050565b610df45760405163a85ba64f60e01b815260146004820152602401610c31565b89610dfe81611937565b610e1b5760405163619c535960e01b815260040160405180910390fd5b6000610e5c87878080601f016020809104026020016040519081016040528093929190818152602001838380828437600092019190915250610d7e92505050565b6101208101519091506001600160a01b03163314610e8d5760405163066875e160e11b815260040160405180910390fd5b60608101805133909152604080516020601f8c018190048102820181019092528a8152908b908b908190840183828082843760009201919091525050505060a0830152610ed982612d79565b95506000610f1f8e8e8e8080601f0160208091040260200160405190810160405280939291908181526020018383808284376000920191909152508c9250612eac915050565b965090508015610f7e5785806020019051810190610f3d91906147d0565b9650610f488761271d565b610f5457610f54614775565b610f5d87610d7e565b6001600160a01b03831660608201529250610f7783612d79565b9650610f87565b610f8786612f65565b505050505097509795505050505050565b6000546201000090046001600160a01b03163314610fc9576040516362e9152760e11b815260040160405180910390fd5b7f000000000000000000000000000000000000000000000000000000000000000015611008576040516314f72c9f60e01b815260040160405180910390fd5b806001600160a01b031663cd312ec46040518163ffffffff1660e01b8152600401602060405180830381865afa158015611046573d6000803e3d6000fd5b505050506040513d601f19601f8201168201806040525081019061106a9190614804565b156110885760405163474e764160e01b815260040160405180910390fd5b6110918161306d565b50565b600061109e613232565b905090565b7fcd355cae2c435f8c5e0c626c4691d22fd85aa7422a424c6f0bced6e64c7aba7490565b6000546201000090046001600160a01b031633146110f8576040516362e9152760e11b815260040160405180910390fd5b6003546001600160a01b0316611269577f00000000000000000000000000000000000000000000000000000000000000006111e057600060405161113b90613e05565b604051809103906000f080158015611157573d6000803e3d6000fd5b50604051634a0687ef60e01b81529091506001600160a01b03821690634a0687ef90611187908590600401614114565b600060405180830381600087803b1580156111a157600080fd5b505af11580156111b5573d6000803e3d6000fd5b5050600380546001600160a01b0319166001600160a01b039490941693909317909255506111fc9050565b600380546001600160a01b0319166001600160a01b0383161790555b600360009054906101000a90046001600160a01b03166001600160a01b0316638129fc1c6040518163ffffffff1660e01b8152600401600060405180830381600087803b15801561124c57600080fd5b505af1158015611260573d6000803e3d6000fd5b5050505061130b565b7f0000000000000000000000000000000000000000000000000000000000000000156112a8576040516314f72c9f60e01b815260040160405180910390fd5b6003546040516311a5465560e21b81526001600160a01b03909116906346951954906112d8908490600401614114565b600060405180830381600087803b1580156112f257600080fd5b505af1158015611306573d6000803e3d6000fd5b505050505b6003546040517fce13a9895a1719ad4493b2ac1a9bfb36070566161abab408e7ecbe586da8d49991611348916001600160a01b0390911690614114565b60405180910390a150565b3361135d81610d61565b61137a576040516302eb3f7160e61b815260040160405180910390fd5b61138382610d61565b6113a057604051634b5518af60e11b815260040160405180910390fd5b6113a9826119fc565b60ff166113b5826119fc565b60ff16116113d657604051630447252760e41b815260040160405180910390fd5b6001600160a01b039081166000908152600560209081526040808320949093168252929092529020805460ff19166001179055565b600080546201000090046001600160a01b03166380f70cba308361142e86613245565b6040518463ffffffff1660e01b815260040161144c93929190614821565b602060405180830381865afa158015611469573d6000803e3d6000fd5b505050506040513d601f19601f8201168201806040525081019061148d9190614706565b151592915050565b60606114a033611937565b6114bd5760405163619c535960e01b815260040160405180910390fd5b83838080601f0160208091040260200160405190810160405280939291908181526020018383808284376000920191909152506114ff925083915061271d9050565b61150b5761150b614775565b600061154c86868080601f016020809104026020016040519081016040528093929190818152602001838380828437600092019190915250610d7e92505050565b90508381610100018181516115619190614845565b90525061156d81612d79565b9695505050505050565b6115896115826132bb565b8383613323565b5050565b611589338383613323565b6001600160a01b038116600090815260046020526040812054618000161515610d45565b6000546201000090046001600160a01b031633146115ed576040516362e9152760e11b815260040160405180910390fd5b600054604080516001600160a01b03620100009093048316815291831660208301527f13abda02e63c790d0e2818b251282cfe5cbe0a8abd69c54bf5d2260c0907bd2e910160405180910390a1600080546001600160a01b03909216620100000262010000600160b01b0319909216919091179055565b606061166f33611937565b61168c5760405163619c535960e01b815260040160405180910390fd5b82828080601f0160208091040260200160405190810160405280939291908181526020018383808284376000920191909152506116ce925083915061271d9050565b6116da576116da614775565b6000806117548a6001898c8c8080601f01602080910402602001604051908101604052809392919081815260200183838082843760009201919091525050604080516020601f8f018190048102820181019092528d815292508d91508c908190840183828082843760009201919091525061273d92505050565b915091508115610d28576117678161288f565b15611787578080602001905181019061178091906147d0565b9350610d28565b866117a85760405163a85ba64f60e01b815260166004820152602401610c31565b610d288a60166128e3565b60606117be33611937565b6117db5760405163619c535960e01b815260040160405180910390fd5b86868080601f01602080910402602001604051908101604052809392919081815260200183838082843760009201919091525061181d925083915061271d9050565b61182957611829614775565b600061186a89898080601f016020809104026020016040519081016040528093929190818152602001838380828437600092019190915250610d7e92505050565b90506118798160600151610d61565b801561188d57506001816000015160ff1610155b156118e05760608101516001600160a01b039081166000908152600560209081526040808320938b168352929052205460ff166118e05760405163a85ba64f60e01b8152601e6004820152602401610c31565b8051816118ec8261486d565b60ff169052506003602082015260c0810186905261010081018590526001600160a01b03808816610120830152841661014082015261192a81612d79565b9998505050505050505050565b600080826001600160a01b0316637730599e6040518163ffffffff1660e01b8152600401602060405180830381865afa158015611978573d6000803e3d6000fd5b505050506040513d601f19601f8201168201806040525081019061199c9190614706565b6000818152600260205260409020549091508015801590610d5957506001600160a01b03841660016119ce8184614735565b815481106119de576119de614748565b6000918252602090912001546001600160a01b031614949350505050565b6001600160a01b03811660009081526004602052604081205460ff16610d45565b6060611a2833611937565b611a455760405163619c535960e01b815260040160405180910390fd5b6000611a8685858080601f016020809104026020016040519081016040528093929190818152602001838380828437600092019190915250610d7e92505050565b9050828161010001818151611a9b9190614845565b905250611aa781612d79565b95945050505050565b600054610100900460ff1615808015611ad05750600054600160ff909116105b80611af15750611adf30613a73565b158015611af1575060005460ff166001145b611b0d5760405162461bcd60e51b8152600401610c319061488c565b6000805460ff191660011790558015611b30576000805461ff0019166101001790555b8015611091576000805461ff001916905560405160018152600080516020614fb183398151915290602001611348565b600081815260026020526040812054808203611b8f57604051630e4f4df560e11b815260040160405180910390fd5b611b9a600182614735565b6001901b19841691505092915050565b7f000000000000000000000000000000000000000000000000000000000000000015611be9576040516305b93ebf60e41b815260040160405180910390fd5b61109181336001613a82565b600081815260026020526040812054808203611c2457604051630e4f4df560e11b815260040160405180910390fd5b6001611c308183614735565b81548110611c4057611c40614748565b6000918252602090912001546001600160a01b03169392505050565b6060611c6733611937565b611c845760405163619c535960e01b815260040160405180910390fd5b84848080601f016020809104026020016040519081016040528093929190818152602001838380828437600092019190915250611cc6925083915061271d9050565b611cd257611cd2614775565b611cdc84846128e3565b85858080601f016020809104026020016040519081016040528093929190818152602001838380828437600092019190915250929998505050505050505050565b606082828080601f016020809104026020016040519081016040528093929190818152602001838380828437600092019190915250611d61925083915061271d9050565b611d815760405163a85ba64f60e01b815260146004820152602401610c31565b6001600160a01b0387166000908152600460205260408120548891819003611dbc5760405163163cbe4360e01b815260040160405180910390fd5b618000811615611dde57604051628e12d960e21b815260040160405180910390fd5b87878080601f01602080910402602001604051908101604052809392919081815260200183838082843760009201829052509250611e1f9150839050613ba1565b90506001600160e01b031981166330d9c91560e01b1480611e5057506001600160e01b0319811663d86ed3e560e01b145b80611e6b57506001600160e01b03198116630221347d60e61b145b80611e8657506001600160e01b0319811663230dbd2960e01b145b80611ea157506001600160e01b03198116635f9e7d7760e01b145b80611ebc57506001600160e01b031981166353c11f9960e01b145b15611eda576040516377a14afb60e11b815260040160405180910390fd5b6000611f1b89898080601f016020809104026020016040519081016040528093929190818152602001838380828437600092019190915250610d7e92505050565b6101208101519091506001600160a01b03163314611f4c576040516311cfdef560e21b815260040160405180910390fd5b60608101805133909152611f5f82612d79565b9750600080611fa68f8f8f8080601f0160208091040260200160405190810160405280939291908181526020018383808284376000920191909152508f9250612eac915050565b9150915081156120195780806020019051810190611fc491906147d0565b9950611fcf8a61271d565b611fef5760405163a85ba64f60e01b815260146004820152602401610c31565b611ff88a610d7e565b6001600160a01b0384166060820152935061201284612d79565b9950612022565b61202281612f65565b50505050505050505095945050505050565b60008181526002602052604081205480820361206357604051630e4f4df560e11b815260040160405180910390fd5b61206e600182614735565b6001901b841791505092915050565b7f0000000000000000000000000000000000000000000000000000000000000000156121845760006120e53284848080601f016020809104026020016040519081016040528093929190818152602001838380828437600092019190915250613bfb92505050565b6000805460405163407b865d60e11b81529293504292620100009091046001600160a01b0316916380f70cba916121229130918790600401614821565b602060405180830381865afa15801561213f573d6000803e3d6000fd5b505050506040513d601f19601f820116820180604052508101906121639190614706565b1015612182576040516319ab84d160e01b815260040160405180910390fd5b505b61219083336001613a82565b505050565b6000610d4283838080601f01602080910402602001604051908101604052809392919081815260200183838082843760009201919091525061271d92505050565b600054610100900460ff16158080156121f65750600054600160ff909116105b80612217575061220530613a73565b158015612217575060005460ff166001145b6122335760405162461bcd60e51b8152600401610c319061488c565b6000805460ff191660011790558015612256576000805461ff0019166101001790555b6000805462010000600160b01b031916620100006001600160a01b038516021790558015611589576000805461ff001916905560405160018152600080516020614fb18339815191529060200160405180910390a15050565b60606000806001805490506001600160401b038111156122d1576122d1613ff5565b6040519080825280602002602001820160405280156122fa578160200160208202803683370190505b50925060009050600091505b600154821015612391576001821b841615612381576001828154811061232e5761232e614748565b6000918252602090912001546001600160a01b0316838261234e816148da565b93508151811061236057612360614748565b60200260200101906001600160a01b031690816001600160a01b0316815250505b61238a826148da565b9150612306565b825250919050565b6003546000906001600160a01b03166123b4576123b4614775565b7f0000000000000000000000000000000000000000000000000000000000000000156123ea57506003546001600160a01b031690565b600360009054906101000a90046001600160a01b03166001600160a01b03166350d75d256040518163ffffffff1660e01b8152600401602060405180830381865afa15801561243d573d6000803e3d6000fd5b505050506040513d601f19601f8201168201806040525081019061109e91906148f3565b333b60008190036124855760405163353dacc360e21b815260040160405180910390fd5b507f00000000000000000000000000000000000000000000000000000000000000001561255d5760006124b733613c2e565b6000805460405163407b865d60e11b81529293509091620100009091046001600160a01b0316906380f70cba906124f690309085908790600401614821565b602060405180830381865afa158015612513573d6000803e3d6000fd5b505050506040513d601f19601f820116820180604052508101906125379190614706565b60011490508061255a5760405163289533c560e01b815260040160405180910390fd5b50505b61158981836000613a82565b6001600160a01b0381166000908152600460209081526040808320815192830190915254808252158015929182916125af57805161800081161515935060ff60201b1691505b509193909250565b6000546201000090046001600160a01b031633146125e8576040516362e9152760e11b815260040160405180910390fd5b60006001600160a01b03821661267457600360009054906101000a90046001600160a01b03166001600160a01b0316639470a5b26040518163ffffffff1660e01b8152600401602060405180830381865afa15801561264b573d6000803e3d6000fd5b505050506040513d601f19601f8201168201806040525081019061266f91906148f3565b612676565b815b6040516311a5465560e21b81529091506001600160a01b038416906346951954906126a5908490600401614114565b600060405180830381600087803b1580156126bf57600080fd5b505af11580156126d3573d6000803e3d6000fd5b50505050826001600160a01b03167f840acbd291b38534819f47f875839277e502f40e1c7bfea2c5fc2c8017442cd3826040516127109190614114565b60405180910390a2505050565b60008151600014158015610d455750600654825160208401201492915050565b600060606001600160a01b03871661275757612757614775565b6127618484613c92565b9350622dc6c060005a905087156127d757886001600160a01b0316828760405161278b9190614910565b6000604051808303818686fa925050503d80600081146127c7576040519150601f19603f3d011682016040523d82523d6000602084013e6127cc565b606091505b50909450925061283a565b886001600160a01b031682876040516127f09190614910565b60006040518083038160008787f1925050503d806000811461282e576040519150601f19603f3d011682016040523d82523d6000602084013e612833565b606091505b5090945092505b836128835761284881613d49565b61286a578661285f5761285a83612f65565b612883565b61285a89600a6128e3565b604051636a7aea4b60e11b815260040160405180910390fd5b50509550959350505050565b60006040825110156128a357506000919050565b6020828101519060009082146128bd575060009392505050565b5060408301516128cc81613d5f565b6128d790604061492c565b84511492505050919050565b6001600160a01b038216600090815260046020526040812054618000169003611589576001600160a01b038216600081815260046020526040908190208054618000179055517fbe3aa33bd245135e4e26b223d79d14ea479a47bff09f2b03c53838af1edbb14b906129589084815260200190565b60405180910390a25050565b6006546060901561298b5760405163a85ba64f60e01b815260156004820152602401610c31565b6001600160a01b03831660009081526004602052604081205484918190036129c65760405163163cbe4360e01b815260040160405180910390fd5b6180008116156129e857604051628e12d960e21b815260040160405180910390fd5b8360006129f482613ba1565b90506001600160e01b031981166330d9c91560e01b1480612a2557506001600160e01b0319811663d86ed3e560e01b145b80612a4057506001600160e01b03198116630221347d60e61b145b80612a5b57506001600160e01b0319811663230dbd2960e01b145b80612a7657506001600160e01b03198116635f9e7d7760e01b145b80612a9157506001600160e01b031981166353c11f9960e01b145b15612aaf576040516377a14afb60e11b815260040160405180910390fd5b60408051610160810182526000808252600260208084019190915242838501526001600160a01b03808d16606085015260808401839052845191820190945281815260a083015260c0820181905260e0820181905261010082018190529189166101208201526101408101829052612b2690612d79565b90506000612b35898984612eac565b975090508015612b835786806020019051810190612b5391906147d0565b9150612b5e8261271d565b612b7e5760405163a85ba64f60e01b815260146004820152602401610c31565b612b8c565b612b8c87612f65565b5050600060065550929695505050505050565b60065460609015612bc65760405163a85ba64f60e01b815260156004820152602401610c31565b83612bd081611937565b612bed5760405163619c535960e01b815260040160405180910390fd5b6000612bf885613ba1565b6040805161016081018252600080825260016020830152929350612c7b9181014281526020018a6001600160a01b03168152602001846001600160e01b031916815260200187815260200160008152602001600081526020016000815260200160006001600160a01b0316815260200160006001600160a01b0316815250612d79565b90506000612c8a888884612eac565b9550905080612c9c57612c9c85612f65565b50506000600655509095945050505050565b612cb6613e12565b60608083806020019051810190612ccd919061493f565b81519193509150600090612cea9084016020908101908501614998565b60a08901526001600160e01b03191660808801526001600160a01b031660608701526040860152602081811c600f168187015260ff9091168552825160009250612d3b919084018101908401614a1c565b6001600160a01b03908116610140890152166101208701526101008601526001600160801b03811660c086015260801c60e085015250919392505050565b60606001826000015160ff161115612da75760405163a85ba64f60e01b815260286004820152602401610c31565b815160208084015160009260ff1660ff60201b9190921b1617905060006080612dd38560e00151613d98565b6001600160801b0316901b612deb8560c00151613d98565b6001600160801b0316179050818460400151856060015186608001518760a00151604051602001612e20959493929190614a67565b60408051601f1981840301815282825261010087015161012088015161014089015160208601879052938501919091526001600160a01b03908116606085015290911660808301529060a00160408051601f1981840301815290829052612e8a9291602001614350565b60408051601f1981840301815291905280516020820120600655949350505050565b600060606001600160a01b038516612ec657612ec6614775565b612ed08484613c92565b9350846001600160a01b031684604051612eea9190614910565b6000604051808303816000865af19150503d8060008114612f27576040519150601f19603f3d011682016040523d82523d6000602084013e612f2c565b606091505b5090925090508115612f5d578051600003612f5d5760405163a85ba64f60e01b815260166004820152602401610c31565b935093915050565b600481511015612fb45760405162461bcd60e51b815260206004820152601a60248201527943616c6c5574696c733a2074617267657420726576657274282960301b6044820152606401610c31565b602081015163b1b7848f60e01b6001600160e01b03198216016130645760408051808201825260208082527f43616c6c5574696c733a207461726765742070616e69636b65643a2030785f5f90820190815260248501517f43616c6c5574696c733a207461726765742070616e69636b65643a2030780000600482811c600f908116603090810160081b918516011791909117909252925162461bcd60e51b8152919291610c3191849101613fe2565b81518060208401fd5b6000613077613232565b6001600160a01b0316036130cd5760405162461bcd60e51b815260206004820152601d60248201527f5555505350726f786961626c653a206e6f742075706772616461626c650000006044820152606401610c31565b806001600160a01b03166352d1902d6040518163ffffffff1660e01b8152600401602060405180830381865afa15801561310b573d6000803e3d6000fd5b505050506040513d601f19601f8201168201806040525081019061312f9190614706565b6131376110a3565b146131905760405162461bcd60e51b815260206004820152602360248201527f5555505350726f786961626c653a206e6f7420636f6d70617469626c65206c6f60448201526267696360e81b6064820152608401610c31565b6001600160a01b03811630036131e45760405162461bcd60e51b815260206004820152601960248201527805555505350726f786961626c653a2070726f7879206c6f6f7603c1b6044820152606401610c31565b6131fa81600080516020614f9183398151915255565b7fe011bc04c286c344a8fcbb8de77f953da762c3e25d8cdea984147fc4168a5dcc6132236110a3565b8260405161134892919061475e565b600080516020614f918339815191525490565b604080516020810182905260326060820152600080516020614f7183398151915260808201527132173a393ab9ba32b22337b93bb0b93232b960711b60a08201526001600160a01b0383169181019190915260009060c0015b604051602081830303815290604052805190602001209050919050565b6000601836108015906132d257506132d23361140b565b6133165760405162461bcd60e51b81526020600482015260156024820152742737ba103a393ab9ba32b2103337b93bb0b93232b960591b6044820152606401610c31565b5060131936013560601c90565b60005b81811015613a6d57600083838381811061334257613342614748565b90506020028101906133549190614ab3565b613362906020810190614ac9565b905060001963ffffffff8216016134565760008085858581811061338857613388614748565b905060200281019061339a9190614ab3565b6133a8906040810190614aef565b8101906133b591906146da565b915091508585858181106133cb576133cb614748565b90506020028101906133dd9190614ab3565b6133ee906040810190602001613e82565b6001600160a01b03166362aa52878884846040518463ffffffff1660e01b815260040161341d93929190614821565b600060405180830381600087803b15801561343757600080fd5b505af115801561344b573d6000803e3d6000fd5b505050505050613a5c565b60011963ffffffff82160161356157600080600086868681811061347c5761347c614748565b905060200281019061348e9190614ab3565b61349c906040810190614aef565b8101906134a99190614b35565b9250925092508686868181106134c1576134c1614748565b90506020028101906134d39190614ab3565b6134e4906040810190602001613e82565b604051630b682aeb60e11b81526001600160a01b038a81166004830152858116602483015284811660448301526064820184905291909116906316d055d6906084015b600060405180830381600087803b15801561354157600080fd5b505af1158015613555573d6000803e3d6000fd5b50505050505050613a5c565b60021963ffffffff82160161362057600080600086868681811061358757613587614748565b90506020028101906135999190614ab3565b6135a7906040810190614aef565b8101906135b49190614b76565b9250925092508686868181106135cc576135cc614748565b90506020028101906135de9190614ab3565b6135ef906040810190602001613e82565b6001600160a01b031663ca0c1e7f898585856040518563ffffffff1660e01b81526004016135279493929190614bc4565b60031963ffffffff8216016136d95760008085858581811061364457613644614748565b90506020028101906136569190614ab3565b613664906040810190614aef565b81019061367191906146da565b9150915085858581811061368757613687614748565b90506020028101906136999190614ab3565b6136aa906040810190602001613e82565b6001600160a01b0316634b2763b38884846040518463ffffffff1660e01b815260040161341d93929190614821565b60041963ffffffff821601613792576000808585858181106136fd576136fd614748565b905060200281019061370f9190614ab3565b61371d906040810190614aef565b81019061372a91906146da565b9150915085858581811061374057613740614748565b90506020028101906137529190614ab3565b613763906040810190602001613e82565b6001600160a01b031663c780fd828884846040518463ffffffff1660e01b815260040161341d93929190614821565b60641963ffffffff821601613887578383838181106137b3576137b3614748565b90506020028101906137c59190614ab3565b6137d6906040810190602001613e82565b6001600160a01b031663ca789464868686868181106137f7576137f7614748565b90506020028101906138099190614ab3565b613817906040810190614aef565b81019061382491906144d1565b6040516001600160e01b031960e085901b1681526001600160a01b0390921660048301526024820152604401600060405180830381600087803b15801561386a57600080fd5b505af115801561387e573d6000803e3d6000fd5b50505050613a5c565b60651963ffffffff8216016138ec578383838181106138a8576138a8614748565b90506020028101906138ba9190614ab3565b6138cb906040810190602001613e82565b6001600160a01b031663245887fc868686868181106137f7576137f7614748565b60c81963ffffffff8216016139895760008085858581811061391057613910614748565b90506020028101906139229190614ab3565b613930906040810190614aef565b81019061393d9190614bf7565b915091506139818787878781811061395757613957614748565b90506020028101906139699190614ab3565b61397a906040810190602001613e82565b8484612b9f565b505050613a5c565b60c91963ffffffff821601613a4357613a3d858585858181106139ae576139ae614748565b90506020028101906139c09190614ab3565b6139d1906040810190602001613e82565b8686868181106139e3576139e3614748565b90506020028101906139f59190614ab3565b613a03906040810190614aef565b8080601f01602080910402602001604051908101604052809392919081815260200183838082843760009201919091525061296492505050565b50613a5c565b60405163b477011560e01b815260040160405180910390fd5b50613a66816148da565b9050613326565b50505050565b6001600160a01b03163b151590565b323303613aa55760405163a85ba64f60e01b815260026004820152602401610c31565b8015613ad157813b8015613acf5760405163a85ba64f60e01b815260016004820152602401610c31565b505b64ff000080ff198316151580613ae8575060ff8316155b80613af65750618000831615155b15613b1457604051633d3200a960e21b815260040160405180910390fd5b6001600160a01b03821660009081526004602052604090205415613b4b576040516301b0a93560e01b815260040160405180910390fd5b60408051602080820183528582526001600160a01b038516600081815260049092528382209251909255915190917f0d540ad8f39e07d19909687352b9fa017405d93c91a6760981fbae9cf28bfef791a2505050565b6000600482511015613bf35760405162461bcd60e51b815260206004820152601b60248201527a43616c6c5574696c733a20696e76616c69642063616c6c4461746160281b6044820152606401610c31565b506020015190565b60008282604051602001613c10929190614c50565b60405160208183030381529060405280519060200120905092915050565b604080516020810182905260396060820152600080516020614f71833981519152608082015278642e61707057686974654c697374696e672e666163746f727960381b60a08201526001600160a01b0383169181019190915260009060c00161329e565b815180830151606091908015613cbb576040516367e9985b60e01b815260040160405180910390fd5b50601f1981018452825184908481613cd281613d5f565b613cdc9190614735565b6001600160401b03811115613cf357613cf3613ff5565b6040519080825280601f01601f191660200182016040528015613d1d576020820181803683370190505b50604051602001613d319493929190614cc3565b60405160208183030381529060405291505092915050565b6000613d56603f83614d12565b5a111592915050565b60008082601f1611613d72576000613d75565b60015b60ff16613d83602084614d12565b613d8d919061492c565b610d45906020614d34565b60006001600160801b03821115613e015760405162461bcd60e51b815260206004820152602760248201527f53616665436173743a2076616c756520646f65736e27742066697420696e20316044820152663238206269747360c81b6064820152608401610c31565b5090565b61022580614d4c83390190565b604080516101608101825260008082526020820181905291810182905260608082018390526080820183905260a082015260c0810182905260e081018290526101008101829052610120810182905261014081019190915290565b6001600160a01b038116811461109157600080fd5b600060208284031215613e9457600080fd5b8135613e9f81613e6d565b9392505050565b60008083601f840112613eb857600080fd5b5081356001600160401b03811115613ecf57600080fd5b602083019150836020828501011115613ee757600080fd5b9250929050565b801515811461109157600080fd5b60008060008060008060808789031215613f1557600080fd5b8635613f2081613e6d565b955060208701356001600160401b0380821115613f3c57600080fd5b613f488a838b01613ea6565b909750955060408901359150613f5d82613eee565b90935060608801359080821115613f7357600080fd5b50613f8089828a01613ea6565b979a9699509497509295939492505050565b60005b83811015613fad578181015183820152602001613f95565b50506000910152565b60008151808452613fce816020860160208601613f92565b601f01601f19169290920160200192915050565b602081526000610d426020830184613fb6565b634e487b7160e01b600052604160045260246000fd5b604051601f8201601f191681016001600160401b038111828210171561403357614033613ff5565b604052919050565b60006001600160401b0382111561405457614054613ff5565b50601f01601f191660200190565b600082601f83011261407357600080fd5b81356140866140818261403b565b61400b565b81815284602083860101111561409b57600080fd5b816020850160208301376000918101602001919091529392505050565b600080604083850312156140cb57600080fd5b82356140d681613e6d565b915060208301356001600160401b038111156140f157600080fd5b6140fd85828601614062565b9150509250929050565b6001600160a01b03169052565b6001600160a01b0391909116815260200190565b60008060006060848603121561413d57600080fd5b833561414881613e6d565b925060208401356001600160401b038082111561416457600080fd5b61417087838801614062565b9350604086013591508082111561418657600080fd5b5061419386828701614062565b9150509250925092565b6000602082840312156141af57600080fd5b81356001600160401b038111156141c557600080fd5b610d5984828501614062565b602081526141e560208201835160ff169052565b600060208301516141fb604084018260ff169052565b506040830151606083015260608301516142186080840182614107565b5060808301516001600160e01b0319811660a08401525060a08301516101608060c085015261424b610180850183613fb6565b915060c085015160e085015260e085015161010081818701528087015191505061012081818701528087015191505061014061428981870183614107565b860151905061429a85830182614107565b5090949350505050565b60008060008060008060006080888a0312156142bf57600080fd5b87356142ca81613e6d565b965060208801356001600160401b03808211156142e657600080fd5b6142f28b838c01613ea6565b909850965060408a013591508082111561430b57600080fd5b6143178b838c01613ea6565b909650945060608a013591508082111561433057600080fd5b5061433d8a828b01613ea6565b989b979a50959850939692959293505050565b6040815260006143636040830185613fb6565b8281036020840152611aa78185613fb6565b60008060006040848603121561438a57600080fd5b83356001600160401b038111156143a057600080fd5b6143ac86828701613ea6565b909790965060209590950135949350505050565b600080602083850312156143d357600080fd5b82356001600160401b03808211156143ea57600080fd5b818501915085601f8301126143fe57600080fd5b81358181111561440d57600080fd5b8660208260051b850101111561442257600080fd5b60209290920196919550909350505050565b60008060008060008060a0878903121561444d57600080fd5b86356001600160401b0381111561446357600080fd5b61446f89828a01613ea6565b909750955050602087013561448381613e6d565b9350604087013592506060870135915060808701356144a181613e6d565b809150509295509295509295565b600080604083850312156144c257600080fd5b50508035926020909101359150565b6000602082840312156144e357600080fd5b5035919050565b6000806000806060858703121561450057600080fd5b84356001600160401b0381111561451657600080fd5b61452287828801613ea6565b909550935050602085013561453681613e6d565b9396929550929360400135925050565b60008060008060006060868803121561455e57600080fd5b853561456981613e6d565b945060208601356001600160401b038082111561458557600080fd5b61459189838a01613ea6565b909650945060408801359150808211156145aa57600080fd5b506145b788828901613ea6565b969995985093965092949392505050565b600080604083850312156145db57600080fd5b82356145e681613e6d565b915060208301356145f681613e6d565b809150509250929050565b60008060006040848603121561461657600080fd5b8335925060208401356001600160401b0381111561463357600080fd5b61463f86828701613ea6565b9497909650939450505050565b6000806020838503121561465f57600080fd5b82356001600160401b0381111561467557600080fd5b61468185828601613ea6565b90969095509350505050565b6020808252825182820181905260009190848201906040850190845b818110156146ce5783516001600160a01b0316835292840192918401916001016146a9565b50909695505050505050565b600080604083850312156146ed57600080fd5b82356146f881613e6d565b946020939093013593505050565b60006020828403121561471857600080fd5b5051919050565b634e487b7160e01b600052601160045260246000fd5b81810381811115610d4557610d4561471f565b634e487b7160e01b600052603260045260246000fd5b9182526001600160a01b0316602082015260400190565b634e487b7160e01b600052600160045260246000fd5b600082601f83011261479c57600080fd5b81516147aa6140818261403b565b8181528460208386010111156147bf57600080fd5b610d59826020830160208701613f92565b6000602082840312156147e257600080fd5b81516001600160401b038111156147f857600080fd5b610d598482850161478b565b60006020828403121561481657600080fd5b8151613e9f81613eee565b6001600160a01b039384168152919092166020820152604081019190915260600190565b80820182811260008312801582168215821617156148655761486561471f565b505092915050565b600060ff821660ff81036148835761488361471f565b60010192915050565b6020808252602e908201527f496e697469616c697a61626c653a20636f6e747261637420697320616c72656160408201526d191e481a5b9a5d1a585b1a5e995960921b606082015260800190565b6000600182016148ec576148ec61471f565b5060010190565b60006020828403121561490557600080fd5b8151613e9f81613e6d565b60008251614922818460208701613f92565b9190910192915050565b80820180821115610d4557610d4561471f565b6000806040838503121561495257600080fd5b82516001600160401b038082111561496957600080fd5b6149758683870161478b565b9350602085015191508082111561498b57600080fd5b506140fd8582860161478b565b600080600080600060a086880312156149b057600080fd5b855194506020860151935060408601516149c981613e6d565b60608701519093506001600160e01b0319811681146149e757600080fd5b60808701519092506001600160401b03811115614a0357600080fd5b614a0f8882890161478b565b9150509295509295909350565b60008060008060808587031215614a3257600080fd5b84519350602085015192506040850151614a4b81613e6d565b6060860151909250614a5c81613e6d565b939692955090935050565b858152602081018590526001600160a01b03841660408201526001600160e01b03198316606082015260a060808201819052600090614aa890830184613fb6565b979650505050505050565b60008235605e1983360301811261492257600080fd5b600060208284031215614adb57600080fd5b813563ffffffff81168114613e9f57600080fd5b6000808335601e19843603018112614b0657600080fd5b8301803591506001600160401b03821115614b2057600080fd5b602001915036819003821315613ee757600080fd5b600080600060608486031215614b4a57600080fd5b8335614b5581613e6d565b92506020840135614b6581613e6d565b929592945050506040919091013590565b600080600060608486031215614b8b57600080fd5b8335614b9681613e6d565b92506020840135915060408401356001600160401b03811115614bb857600080fd5b61419386828701614062565b6001600160a01b038581168252841660208201526040810183905260806060820181905260009061156d90830184613fb6565b60008060408385031215614c0a57600080fd5b82356001600160401b0380821115614c2157600080fd5b614c2d86838701614062565b93506020850135915080821115614c4357600080fd5b506140fd85828601614062565b6060815260416060820152600080516020614f7183398151915260808201527f642e61707057686974654c697374696e672e726567697374726174696f6e4b6560a0820152607960f81b60c082015260018060a01b038316602082015260e060408201526000610d5960e0830184613fb6565b600085516020614cd68285838b01613f92565b81840191508682528551614cef81838501848a01613f92565b8551920191614d0381838501848901613f92565b91909101019695505050505050565b600082614d2f57634e487b7160e01b600052601260045260246000fd5b500490565b8082028115828204841417610d4557610d4561471f56fe608060405234801561001057600080fd5b50610205806100206000396000f3fe6080604052600436106100225760003560e01c80634a0687ef1461003957610031565b366100315761002f610059565b005b61002f610059565b34801561004557600080fd5b5061002f61005436600461017f565b61006b565b610069610064610139565b610148565b565b6001600160a01b0381166100c05760405162461bcd60e51b81526020600482015260176024820152765555505350726f78793a207a65726f206164647265737360481b60448201526064015b60405180910390fd5b60006100ca61016c565b6001600160a01b0316146101205760405162461bcd60e51b815260206004820152601e60248201527f5555505350726f78793a20616c726561647920696e697469616c697a6564000060448201526064016100b7565b610136816000805160206101b083398151915255565b50565b600061014361016c565b905090565b3660008037600080366000845af43d6000803e808015610167573d6000f35b3d6000fd5b6000805160206101b08339815191525490565b60006020828403121561019157600080fd5b81356001600160a01b03811681146101a857600080fd5b939250505056fe360894a13ba1a3210667c828492db98dca3e2076cc3735a920a3ca505d382bbca26469706673582212202bd66840fde63fd7c6d94a685aab9abeb6a0d8dad446932c40714925367b95d764736f6c634300081300336f72672e7375706572666c7569642d66696e616e63652e7375706572666c7569360894a13ba1a3210667c828492db98dca3e2076cc3735a920a3ca505d382bbc7f26b83ff96e1f2b6a682f133852f6798a09c465da95921460cefb3847402498a264697066735822122047a2578aea74ee7e14ed9418cf178976605887607ab6fa9480931fecde3a42b264736f6c63430008130033",
    "linkReferences": {}
  },
  "methodIdentifiers": {
    "APP_WHITE_LISTING_ENABLED()": "9d297e30",
    "CALLBACK_GAS_LIMIT()": "33d608f1",
    "MAX_APP_CALLBACK_LEVEL()": "bd3252c8",
    "MAX_NUM_AGREEMENTS()": "8ceddd7a",
    "NON_UPGRADABLE_DEPLOYMENT()": "cd312ec4",
    "addToAgreementClassesBitmap(uint256,bytes32)": "bced3ddc",
    "allowCompositeApp(address)": "57121e0c",
    "appCallbackPop(bytes,int256)": "989b0c3e",
    "appCallbackPush(bytes,address,uint256,int256,address)": "768fabb0",
    "batchCall((uint32,address,bytes)[])": "6ad3ca7d",
    "callAgreement(address,bytes,bytes)": "39255d5b",
    "callAgreementWithContext(address,bytes,bytes,bytes)": "4329d293",
    "callAppAction(address,bytes)": "1e855cf3",
    "callAppActionWithContext(address,bytes,bytes)": "ba48b5f8",
    "callAppAfterCallback(address,bytes,bool,bytes)": "1e6d0a84",
    "callAppBeforeCallback(address,bytes,bool,bytes)": "74041e02",
    "castrate()": "9903ad38",
    "ctxUseCredit(bytes,int256)": "59a29141",
    "decodeCtx(bytes)": "3f6c923a",
    "forwardBatchCall((uint32,address,bytes)[])": "670e77e3",
    "getAgreementClass(bytes32)": "b6d200de",
    "getAppCallbackLevel(address)": "9378fa13",
    "getAppManifest(address)": "f9f522f4",
    "getCodeAddress()": "50d75d25",
    "getGovernance()": "289b3c0d",
    "getNow()": "bbe4fd50",
    "getSuperTokenFactory()": "731aed6e",
    "getSuperTokenFactoryLogic()": "f2e55caf",
    "initialize(address)": "c4d66de8",
    "isAgreementClassListed(address)": "8ca48484",
    "isAgreementTypeListed(bytes32)": "e8dccb7d",
    "isApp(address)": "3ca3ad4e",
    "isAppJailed(address)": "6b4f3335",
    "isCompositeAppAllowed(address,address)": "bb84cfa1",
    "isCtxValid(bytes)": "bf428734",
    "isTrustedForwarder(address)": "572b6c05",
    "jailApp(bytes,address,uint256)": "b724211e",
    "mapAgreementClasses(uint256)": "c56a069d",
    "proxiableUUID()": "52d1902d",
    "registerAgreementClass(address)": "15a024e1",
    "registerApp(uint256)": "ad3915c8",
    "registerAppByFactory(address,uint256)": "f3733052",
    "registerAppWithKey(uint256,string)": "bd1c448b",
    "removeFromAgreementClassesBitmap(uint256,bytes32)": "a5dbbbcd",
    "replaceGovernance(address)": "7283100c",
    "updateAgreementClass(address)": "06cecba8",
    "updateCode(address)": "46951954",
    "updateSuperTokenFactory(address)": "54fbc493",
    "updateSuperTokenLogic(address,address)": "fa6e0cfe",
    "versionRecipient()": "486ff0cd"
  },
  "id": 91
}