{
  "abi": [
    {
      "inputs": [
        {
          "internalType": "contract ISuperfluid",
          "name": "host",
          "type": "address"
        },
        {
          "internalType": "contract IConstantOutflowNFT",
          "name": "constantOutflowNFT",
          "type": "address"
        },
        {
          "internalType": "contract IConstantInflowNFT",
          "name": "constantInflowNFT",
          "type": "address"
        }
      ],
      "stateMutability": "nonpayable",
      "type": "constructor"
    },
    {
      "inputs": [],
      "name": "SF_TOKEN_AGREEMENT_ALREADY_EXISTS",
      "type": "error"
    },
    {
      "inputs": [],
      "name": "SF_TOKEN_AGREEMENT_DOES_NOT_EXIST",
      "type": "error"
    },
    {
      "inputs": [],
      "name": "SF_TOKEN_BURN_INSUFFICIENT_BALANCE",
      "type": "error"
    },
    {
      "inputs": [],
      "name": "SF_TOKEN_MOVE_INSUFFICIENT_BALANCE",
      "type": "error"
    },
    {
      "inputs": [],
      "name": "SF_TOKEN_ONLY_HOST",
      "type": "error"
    },
    {
      "inputs": [],
      "name": "SF_TOKEN_ONLY_LISTED_AGREEMENT",
      "type": "error"
    },
    {
      "inputs": [],
      "name": "SUPER_TOKEN_APPROVE_FROM_ZERO_ADDRESS",
      "type": "error"
    },
    {
      "inputs": [],
      "name": "SUPER_TOKEN_APPROVE_TO_ZERO_ADDRESS",
      "type": "error"
    },
    {
      "inputs": [],
      "name": "SUPER_TOKEN_BURN_FROM_ZERO_ADDRESS",
      "type": "error"
    },
    {
      "inputs": [],
      "name": "SUPER_TOKEN_CALLER_IS_NOT_OPERATOR_FOR_HOLDER",
      "type": "error"
    },
    {
      "inputs": [],
      "name": "SUPER_TOKEN_INFLATIONARY_DEFLATIONARY_NOT_SUPPORTED",
      "type": "error"
    },
    {
      "inputs": [],
      "name": "SUPER_TOKEN_MINT_TO_ZERO_ADDRESS",
      "type": "error"
    },
    {
      "inputs": [],
      "name": "SUPER_TOKEN_NFT_PROXY_ADDRESS_CHANGED",
      "type": "error"
    },
    {
      "inputs": [],
      "name": "SUPER_TOKEN_NOT_ERC777_TOKENS_RECIPIENT",
      "type": "error"
    },
    {
      "inputs": [],
      "name": "SUPER_TOKEN_NO_UNDERLYING_TOKEN",
      "type": "error"
    },
    {
      "inputs": [],
      "name": "SUPER_TOKEN_ONLY_GOV_OWNER",
      "type": "error"
    },
    {
      "inputs": [],
      "name": "SUPER_TOKEN_ONLY_HOST",
      "type": "error"
    },
    {
      "inputs": [],
      "name": "SUPER_TOKEN_ONLY_SELF",
      "type": "error"
    },
    {
      "inputs": [],
      "name": "SUPER_TOKEN_TRANSFER_FROM_ZERO_ADDRESS",
      "type": "error"
    },
    {
      "inputs": [],
      "name": "SUPER_TOKEN_TRANSFER_TO_ZERO_ADDRESS",
      "type": "error"
    },
    {
      "anonymous": false,
      "inputs": [
        {
          "indexed": true,
          "internalType": "address",
          "name": "agreementClass",
          "type": "address"
        },
        {
          "indexed": false,
          "internalType": "bytes32",
          "name": "id",
          "type": "bytes32"
        },
        {
          "indexed": false,
          "internalType": "bytes32[]",
          "name": "data",
          "type": "bytes32[]"
        }
      ],
      "name": "AgreementCreated",
      "type": "event"
    },
    {
      "anonymous": false,
      "inputs": [
        {
          "indexed": true,
          "internalType": "address",
          "name": "agreementClass",
          "type": "address"
        },
        {
          "indexed": false,
          "internalType": "bytes32",
          "name": "id",
          "type": "bytes32"
        },
        {
          "indexed": true,
          "internalType": "address",
          "name": "penaltyAccount",
          "type": "address"
        },
        {
          "indexed": true,
          "internalType": "address",
          "name": "rewardAccount",
          "type": "address"
        },
        {
          "indexed": false,
          "internalType": "uint256",
          "name": "rewardAmount",
          "type": "uint256"
        }
      ],
      "name": "AgreementLiquidated",
      "type": "event"
    },
    {
      "anonymous": false,
      "inputs": [
        {
          "indexed": false,
          "internalType": "address",
          "name": "liquidatorAccount",
          "type": "address"
        },
        {
          "indexed": true,
          "internalType": "address",
          "name": "agreementClass",
          "type": "address"
        },
        {
          "indexed": false,
          "internalType": "bytes32",
          "name": "id",
          "type": "bytes32"
        },
        {
          "indexed": true,
          "internalType": "address",
          "name": "penaltyAccount",
          "type": "address"
        },
        {
          "indexed": true,
          "internalType": "address",
          "name": "bondAccount",
          "type": "address"
        },
        {
          "indexed": false,
          "internalType": "uint256",
          "name": "rewardAmount",
          "type": "uint256"
        },
        {
          "indexed": false,
          "internalType": "uint256",
          "name": "bailoutAmount",
          "type": "uint256"
        }
      ],
      "name": "AgreementLiquidatedBy",
      "type": "event"
    },
    {
      "anonymous": false,
      "inputs": [
        {
          "indexed": true,
          "internalType": "address",
          "name": "agreementClass",
          "type": "address"
        },
        {
          "indexed": false,
          "internalType": "bytes32",
          "name": "id",
          "type": "bytes32"
        },
        {
          "indexed": true,
          "internalType": "address",
          "name": "liquidatorAccount",
          "type": "address"
        },
        {
          "indexed": true,
          "internalType": "address",
          "name": "targetAccount",
          "type": "address"
        },
        {
          "indexed": false,
          "internalType": "address",
          "name": "rewardAmountReceiver",
          "type": "address"
        },
        {
          "indexed": false,
          "internalType": "uint256",
          "name": "rewardAmount",
          "type": "uint256"
        },
        {
          "indexed": false,
          "internalType": "int256",
          "name": "targetAccountBalanceDelta",
          "type": "int256"
        },
        {
          "indexed": false,
          "internalType": "bytes",
          "name": "liquidationTypeData",
          "type": "bytes"
        }
      ],
      "name": "AgreementLiquidatedV2",
      "type": "event"
    },
    {
      "anonymous": false,
      "inputs": [
        {
          "indexed": true,
          "internalType": "address",
          "name": "agreementClass",
          "type": "address"
        },
        {
          "indexed": true,
          "internalType": "address",
          "name": "account",
          "type": "address"
        },
        {
          "indexed": false,
          "internalType": "uint256",
          "name": "slotId",
          "type": "uint256"
        }
      ],
      "name": "AgreementStateUpdated",
      "type": "event"
    },
    {
      "anonymous": false,
      "inputs": [
        {
          "indexed": true,
          "internalType": "address",
          "name": "agreementClass",
          "type": "address"
        },
        {
          "indexed": false,
          "internalType": "bytes32",
          "name": "id",
          "type": "bytes32"
        }
      ],
      "name": "AgreementTerminated",
      "type": "event"
    },
    {
      "anonymous": false,
      "inputs": [
        {
          "indexed": true,
          "internalType": "address",
          "name": "agreementClass",
          "type": "address"
        },
        {
          "indexed": false,
          "internalType": "bytes32",
          "name": "id",
          "type": "bytes32"
        },
        {
          "indexed": false,
          "internalType": "bytes32[]",
          "name": "data",
          "type": "bytes32[]"
        }
      ],
      "name": "AgreementUpdated",
      "type": "event"
    },
    {
      "anonymous": false,
      "inputs": [
        {
          "indexed": true,
          "internalType": "address",
          "name": "owner",
          "type": "address"
        },
        {
          "indexed": true,
          "internalType": "address",
          "name": "spender",
          "type": "address"
        },
        {
          "indexed": false,
          "internalType": "uint256",
          "name": "value",
          "type": "uint256"
        }
      ],
      "name": "Approval",
      "type": "event"
    },
    {
      "anonymous": false,
      "inputs": [
        {
          "indexed": true,
          "internalType": "address",
          "name": "operator",
          "type": "address"
        },
        {
          "indexed": true,
          "internalType": "address",
          "name": "tokenHolder",
          "type": "address"
        }
      ],
      "name": "AuthorizedOperator",
      "type": "event"
    },
    {
      "anonymous": false,
      "inputs": [
        {
          "indexed": true,
          "internalType": "address",
          "name": "bailoutAccount",
          "type": "address"
        },
        {
          "indexed": false,
          "internalType": "uint256",
          "name": "bailoutAmount",
          "type": "uint256"
        }
      ],
      "name": "Bailout",
      "type": "event"
    },
    {
      "anonymous": false,
      "inputs": [
        {
          "indexed": true,
          "internalType": "address",
          "name": "operator",
          "type": "address"
        },
        {
          "indexed": true,
          "internalType": "address",
          "name": "from",
          "type": "address"
        },
        {
          "indexed": false,
          "internalType": "uint256",
          "name": "amount",
          "type": "uint256"
        },
        {
          "indexed": false,
          "internalType": "bytes",
          "name": "data",
          "type": "bytes"
        },
        {
          "indexed": false,
          "internalType": "bytes",
          "name": "operatorData",
          "type": "bytes"
        }
      ],
      "name": "Burned",
      "type": "event"
    },
    {
      "anonymous": false,
      "inputs": [
        {
          "indexed": true,
          "internalType": "contract IConstantInflowNFT",
          "name": "constantInflowNFT",
          "type": "address"
        }
      ],
      "name": "ConstantInflowNFTCreated",
      "type": "event"
    },
    {
      "anonymous": false,
      "inputs": [
        {
          "indexed": true,
          "internalType": "contract IConstantOutflowNFT",
          "name": "constantOutflowNFT",
          "type": "address"
        }
      ],
      "name": "ConstantOutflowNFTCreated",
      "type": "event"
    },
    {
      "anonymous": false,
      "inputs": [
        {
          "indexed": true,
          "internalType": "address",
          "name": "operator",
          "type": "address"
        },
        {
          "indexed": true,
          "internalType": "address",
          "name": "to",
          "type": "address"
        },
        {
          "indexed": false,
          "internalType": "uint256",
          "name": "amount",
          "type": "uint256"
        },
        {
          "indexed": false,
          "internalType": "bytes",
          "name": "data",
          "type": "bytes"
        },
        {
          "indexed": false,
          "internalType": "bytes",
          "name": "operatorData",
          "type": "bytes"
        }
      ],
      "name": "Minted",
      "type": "event"
    },
    {
      "anonymous": false,
      "inputs": [
        {
          "indexed": true,
          "internalType": "address",
          "name": "operator",
          "type": "address"
        },
        {
          "indexed": true,
          "internalType": "address",
          "name": "tokenHolder",
          "type": "address"
        }
      ],
      "name": "RevokedOperator",
      "type": "event"
    },
    {
      "anonymous": false,
      "inputs": [
        {
          "indexed": true,
          "internalType": "address",
          "name": "operator",
          "type": "address"
        },
        {
          "indexed": true,
          "internalType": "address",
          "name": "from",
          "type": "address"
        },
        {
          "indexed": true,
          "internalType": "address",
          "name": "to",
          "type": "address"
        },
        {
          "indexed": false,
          "internalType": "uint256",
          "name": "amount",
          "type": "uint256"
        },
        {
          "indexed": false,
          "internalType": "bytes",
          "name": "data",
          "type": "bytes"
        },
        {
          "indexed": false,
          "internalType": "bytes",
          "name": "operatorData",
          "type": "bytes"
        }
      ],
      "name": "Sent",
      "type": "event"
    },
    {
      "anonymous": false,
      "inputs": [
        {
          "indexed": true,
          "internalType": "address",
          "name": "account",
          "type": "address"
        },
        {
          "indexed": false,
          "internalType": "uint256",
          "name": "amount",
          "type": "uint256"
        }
      ],
      "name": "TokenDowngraded",
      "type": "event"
    },
    {
      "anonymous": false,
      "inputs": [
        {
          "indexed": true,
          "internalType": "address",
          "name": "account",
          "type": "address"
        },
        {
          "indexed": false,
          "internalType": "uint256",
          "name": "amount",
          "type": "uint256"
        }
      ],
      "name": "TokenUpgraded",
      "type": "event"
    },
    {
      "anonymous": false,
      "inputs": [
        {
          "indexed": true,
          "internalType": "address",
          "name": "from",
          "type": "address"
        },
        {
          "indexed": true,
          "internalType": "address",
          "name": "to",
          "type": "address"
        },
        {
          "indexed": false,
          "internalType": "uint256",
          "name": "value",
          "type": "uint256"
        }
      ],
      "name": "Transfer",
      "type": "event"
    },
    {
      "inputs": [],
      "name": "CONSTANT_INFLOW_NFT",
      "outputs": [
        {
          "internalType": "contract IConstantInflowNFT",
          "name": "",
          "type": "address"
        }
      ],
      "stateMutability": "view",
      "type": "function"
    },
    {
      "inputs": [],
      "name": "CONSTANT_OUTFLOW_NFT",
      "outputs": [
        {
          "internalType": "contract IConstantOutflowNFT",
          "name": "",
          "type": "address"
        }
      ],
      "stateMutability": "view",
      "type": "function"
    },
    {
      "inputs": [
        {
          "internalType": "address",
          "name": "account",
          "type": "address"
        },
        {
          "internalType": "address",
          "name": "spender",
          "type": "address"
        }
      ],
      "name": "allowance",
      "outputs": [
        {
          "internalType": "uint256",
          "name": "",
          "type": "uint256"
        }
      ],
      "stateMutability": "view",
      "type": "function"
    },
    {
      "inputs": [
        {
          "internalType": "address",
          "name": "spender",
          "type": "address"
        },
        {
          "internalType": "uint256",
          "name": "amount",
          "type": "uint256"
        }
      ],
      "name": "approve",
      "outputs": [
        {
          "internalType": "bool",
          "name": "",
          "type": "bool"
        }
      ],
      "stateMutability": "nonpayable",
      "type": "function"
    },
    {
      "inputs": [
        {
          "internalType": "address",
          "name": "operator",
          "type": "address"
        }
      ],
      "name": "authorizeOperator",
      "outputs": [],
      "stateMutability": "nonpayable",
      "type": "function"
    },
    {
      "inputs": [
        {
          "internalType": "address",
          "name": "account",
          "type": "address"
        }
      ],
      "name": "balanceOf",
      "outputs": [
        {
          "internalType": "uint256",
          "name": "balance",
          "type": "uint256"
        }
      ],
      "stateMutability": "view",
      "type": "function"
    },
    {
      "inputs": [
        {
          "internalType": "uint256",
          "name": "amount",
          "type": "uint256"
        },
        {
          "internalType": "bytes",
          "name": "userData",
          "type": "bytes"
        }
      ],
      "name": "burn",
      "outputs": [],
      "stateMutability": "nonpayable",
      "type": "function"
    },
    {
      "inputs": [
        {
          "internalType": "bytes32",
          "name": "id",
          "type": "bytes32"
        },
        {
          "internalType": "bytes32[]",
          "name": "data",
          "type": "bytes32[]"
        }
      ],
      "name": "createAgreement",
      "outputs": [],
      "stateMutability": "nonpayable",
      "type": "function"
    },
    {
      "inputs": [],
      "name": "decimals",
      "outputs": [
        {
          "internalType": "uint8",
          "name": "",
          "type": "uint8"
        }
      ],
      "stateMutability": "pure",
      "type": "function"
    },
    {
      "inputs": [
        {
          "internalType": "address",
          "name": "spender",
          "type": "address"
        },
        {
          "internalType": "uint256",
          "name": "subtractedValue",
          "type": "uint256"
        }
      ],
      "name": "decreaseAllowance",
      "outputs": [
        {
          "internalType": "bool",
          "name": "",
          "type": "bool"
        }
      ],
      "stateMutability": "nonpayable",
      "type": "function"
    },
    {
      "inputs": [],
      "name": "defaultOperators",
      "outputs": [
        {
          "internalType": "address[]",
          "name": "",
          "type": "address[]"
        }
      ],
      "stateMutability": "view",
      "type": "function"
    },
    {
      "inputs": [
        {
          "internalType": "uint256",
          "name": "amount",
          "type": "uint256"
        }
      ],
      "name": "downgrade",
      "outputs": [],
      "stateMutability": "nonpayable",
      "type": "function"
    },
    {
      "inputs": [
        {
          "internalType": "address",
          "name": "to",
          "type": "address"
        },
        {
          "internalType": "uint256",
          "name": "amount",
          "type": "uint256"
        }
      ],
      "name": "downgradeTo",
      "outputs": [],
      "stateMutability": "nonpayable",
      "type": "function"
    },
    {
      "inputs": [
        {
          "internalType": "address",
          "name": "account",
          "type": "address"
        }
      ],
      "name": "getAccountActiveAgreements",
      "outputs": [
        {
          "internalType": "contract ISuperAgreement[]",
          "name": "",
          "type": "address[]"
        }
      ],
      "stateMutability": "view",
      "type": "function"
    },
    {
      "inputs": [
        {
          "internalType": "address",
          "name": "agreementClass",
          "type": "address"
        },
        {
          "internalType": "bytes32",
          "name": "id",
          "type": "bytes32"
        },
        {
          "internalType": "uint256",
          "name": "dataLength",
          "type": "uint256"
        }
      ],
      "name": "getAgreementData",
      "outputs": [
        {
          "internalType": "bytes32[]",
          "name": "data",
          "type": "bytes32[]"
        }
      ],
      "stateMutability": "view",
      "type": "function"
    },
    {
      "inputs": [
        {
          "internalType": "address",
          "name": "agreementClass",
          "type": "address"
        },
        {
          "internalType": "address",
          "name": "account",
          "type": "address"
        },
        {
          "internalType": "uint256",
          "name": "slotId",
          "type": "uint256"
        },
        {
          "internalType": "uint256",
          "name": "dataLength",
          "type": "uint256"
        }
      ],
      "name": "getAgreementStateSlot",
      "outputs": [
        {
          "internalType": "bytes32[]",
          "name": "slotData",
          "type": "bytes32[]"
        }
      ],
      "stateMutability": "view",
      "type": "function"
    },
    {
      "inputs": [],
      "name": "getHost",
      "outputs": [
        {
          "internalType": "address",
          "name": "host",
          "type": "address"
        }
      ],
      "stateMutability": "view",
      "type": "function"
    },
    {
      "inputs": [],
      "name": "getUnderlyingToken",
      "outputs": [
        {
          "internalType": "address",
          "name": "",
          "type": "address"
        }
      ],
      "stateMutability": "view",
      "type": "function"
    },
    {
      "inputs": [],
      "name": "granularity",
      "outputs": [
        {
          "internalType": "uint256",
          "name": "",
          "type": "uint256"
        }
      ],
      "stateMutability": "pure",
      "type": "function"
    },
    {
      "inputs": [
        {
          "internalType": "address",
          "name": "spender",
          "type": "address"
        },
        {
          "internalType": "uint256",
          "name": "addedValue",
          "type": "uint256"
        }
      ],
      "name": "increaseAllowance",
      "outputs": [
        {
          "internalType": "bool",
          "name": "",
          "type": "bool"
        }
      ],
      "stateMutability": "nonpayable",
      "type": "function"
    },
    {
      "inputs": [
        {
          "internalType": "contract IERC20",
          "name": "underlyingToken",
          "type": "address"
        },
        {
          "internalType": "uint8",
          "name": "underlyingDecimals",
          "type": "uint8"
        },
        {
          "internalType": "string",
          "name": "n",
          "type": "string"
        },
        {
          "internalType": "string",
          "name": "s",
          "type": "string"
        }
      ],
      "name": "initialize",
      "outputs": [],
      "stateMutability": "nonpayable",
      "type": "function"
    },
    {
      "inputs": [
        {
          "internalType": "address",
          "name": "account",
          "type": "address"
        },
        {
          "internalType": "uint256",
          "name": "timestamp",
          "type": "uint256"
        }
      ],
      "name": "isAccountCritical",
      "outputs": [
        {
          "internalType": "bool",
          "name": "isCritical",
          "type": "bool"
        }
      ],
      "stateMutability": "view",
      "type": "function"
    },
    {
      "inputs": [
        {
          "internalType": "address",
          "name": "account",
          "type": "address"
        }
      ],
      "name": "isAccountCriticalNow",
      "outputs": [
        {
          "internalType": "bool",
          "name": "isCritical",
          "type": "bool"
        }
      ],
      "stateMutability": "view",
      "type": "function"
    },
    {
      "inputs": [
        {
          "internalType": "address",
          "name": "account",
          "type": "address"
        },
        {
          "internalType": "uint256",
          "name": "timestamp",
          "type": "uint256"
        }
      ],
      "name": "isAccountSolvent",
      "outputs": [
        {
          "internalType": "bool",
          "name": "isSolvent",
          "type": "bool"
        }
      ],
      "stateMutability": "view",
      "type": "function"
    },
    {
      "inputs": [
        {
          "internalType": "address",
          "name": "account",
          "type": "address"
        }
      ],
      "name": "isAccountSolventNow",
      "outputs": [
        {
          "internalType": "bool",
          "name": "isSolvent",
          "type": "bool"
        }
      ],
      "stateMutability": "view",
      "type": "function"
    },
    {
      "inputs": [
        {
          "internalType": "address",
          "name": "operator",
          "type": "address"
        },
        {
          "internalType": "address",
          "name": "tokenHolder",
          "type": "address"
        }
      ],
      "name": "isOperatorFor",
      "outputs": [
        {
          "internalType": "bool",
          "name": "",
          "type": "bool"
        }
      ],
      "stateMutability": "view",
      "type": "function"
    },
    {
      "inputs": [
        {
          "internalType": "bytes32",
          "name": "id",
          "type": "bytes32"
        },
        {
          "internalType": "bytes",
          "name": "liquidationTypeData",
          "type": "bytes"
        },
        {
          "internalType": "address",
          "name": "liquidatorAccount",
          "type": "address"
        },
        {
          "internalType": "bool",
          "name": "useDefaultRewardAccount",
          "type": "bool"
        },
        {
          "internalType": "address",
          "name": "targetAccount",
          "type": "address"
        },
        {
          "internalType": "uint256",
          "name": "rewardAmount",
          "type": "uint256"
        },
        {
          "internalType": "int256",
          "name": "targetAccountBalanceDelta",
          "type": "int256"
        }
      ],
      "name": "makeLiquidationPayoutsV2",
      "outputs": [],
      "stateMutability": "nonpayable",
      "type": "function"
    },
    {
      "inputs": [],
      "name": "name",
      "outputs": [
        {
          "internalType": "string",
          "name": "",
          "type": "string"
        }
      ],
      "stateMutability": "view",
      "type": "function"
    },
    {
      "inputs": [
        {
          "internalType": "address",
          "name": "account",
          "type": "address"
        },
        {
          "internalType": "address",
          "name": "spender",
          "type": "address"
        },
        {
          "internalType": "uint256",
          "name": "amount",
          "type": "uint256"
        }
      ],
      "name": "operationApprove",
      "outputs": [],
      "stateMutability": "nonpayable",
      "type": "function"
    },
    {
      "inputs": [
        {
          "internalType": "address",
          "name": "account",
          "type": "address"
        },
        {
          "internalType": "address",
          "name": "spender",
          "type": "address"
        },
        {
          "internalType": "uint256",
          "name": "subtractedValue",
          "type": "uint256"
        }
      ],
      "name": "operationDecreaseAllowance",
      "outputs": [],
      "stateMutability": "nonpayable",
      "type": "function"
    },
    {
      "inputs": [
        {
          "internalType": "address",
          "name": "account",
          "type": "address"
        },
        {
          "internalType": "uint256",
          "name": "amount",
          "type": "uint256"
        }
      ],
      "name": "operationDowngrade",
      "outputs": [],
      "stateMutability": "nonpayable",
      "type": "function"
    },
    {
      "inputs": [
        {
          "internalType": "address",
          "name": "account",
          "type": "address"
        },
        {
          "internalType": "address",
          "name": "spender",
          "type": "address"
        },
        {
          "internalType": "uint256",
          "name": "addedValue",
          "type": "uint256"
        }
      ],
      "name": "operationIncreaseAllowance",
      "outputs": [],
      "stateMutability": "nonpayable",
      "type": "function"
    },
    {
      "inputs": [
        {
          "internalType": "address",
          "name": "spender",
          "type": "address"
        },
        {
          "internalType": "address",
          "name": "recipient",
          "type": "address"
        },
        {
          "internalType": "uint256",
          "name": "amount",
          "type": "uint256"
        },
        {
          "internalType": "bytes",
          "name": "userData",
          "type": "bytes"
        }
      ],
      "name": "operationSend",
      "outputs": [],
      "stateMutability": "nonpayable",
      "type": "function"
    },
    {
      "inputs": [
        {
          "internalType": "address",
          "name": "account",
          "type": "address"
        },
        {
          "internalType": "address",
          "name": "spender",
          "type": "address"
        },
        {
          "internalType": "address",
          "name": "recipient",
          "type": "address"
        },
        {
          "internalType": "uint256",
          "name": "amount",
          "type": "uint256"
        }
      ],
      "name": "operationTransferFrom",
      "outputs": [],
      "stateMutability": "nonpayable",
      "type": "function"
    },
    {
      "inputs": [
        {
          "internalType": "address",
          "name": "account",
          "type": "address"
        },
        {
          "internalType": "uint256",
          "name": "amount",
          "type": "uint256"
        }
      ],
      "name": "operationUpgrade",
      "outputs": [],
      "stateMutability": "nonpayable",
      "type": "function"
    },
    {
      "inputs": [
        {
          "internalType": "address",
          "name": "account",
          "type": "address"
        },
        {
          "internalType": "uint256",
          "name": "amount",
          "type": "uint256"
        },
        {
          "internalType": "bytes",
          "name": "userData",
          "type": "bytes"
        },
        {
          "internalType": "bytes",
          "name": "operatorData",
          "type": "bytes"
        }
      ],
      "name": "operatorBurn",
      "outputs": [],
      "stateMutability": "nonpayable",
      "type": "function"
    },
    {
      "inputs": [
        {
          "internalType": "address",
          "name": "sender",
          "type": "address"
        },
        {
          "internalType": "address",
          "name": "recipient",
          "type": "address"
        },
        {
          "internalType": "uint256",
          "name": "amount",
          "type": "uint256"
        },
        {
          "internalType": "bytes",
          "name": "userData",
          "type": "bytes"
        },
        {
          "internalType": "bytes",
          "name": "operatorData",
          "type": "bytes"
        }
      ],
      "name": "operatorSend",
      "outputs": [],
      "stateMutability": "nonpayable",
      "type": "function"
    },
    {
      "inputs": [
        {
          "internalType": "address",
          "name": "account",
          "type": "address"
        },
        {
          "internalType": "uint256",
          "name": "timestamp",
          "type": "uint256"
        }
      ],
      "name": "realtimeBalanceOf",
      "outputs": [
        {
          "internalType": "int256",
          "name": "availableBalance",
          "type": "int256"
        },
        {
          "internalType": "uint256",
          "name": "deposit",
          "type": "uint256"
        },
        {
          "internalType": "uint256",
          "name": "owedDeposit",
          "type": "uint256"
        }
      ],
      "stateMutability": "view",
      "type": "function"
    },
    {
      "inputs": [
        {
          "internalType": "address",
          "name": "account",
          "type": "address"
        }
      ],
      "name": "realtimeBalanceOfNow",
      "outputs": [
        {
          "internalType": "int256",
          "name": "availableBalance",
          "type": "int256"
        },
        {
          "internalType": "uint256",
          "name": "deposit",
          "type": "uint256"
        },
        {
          "internalType": "uint256",
          "name": "owedDeposit",
          "type": "uint256"
        },
        {
          "internalType": "uint256",
          "name": "timestamp",
          "type": "uint256"
        }
      ],
      "stateMutability": "view",
      "type": "function"
    },
    {
      "inputs": [
        {
          "internalType": "address",
          "name": "operator",
          "type": "address"
        }
      ],
      "name": "revokeOperator",
      "outputs": [],
      "stateMutability": "nonpayable",
      "type": "function"
    },
    {
      "inputs": [
        {
          "internalType": "address",
          "name": "account",
          "type": "address"
        },
        {
          "internalType": "address",
          "name": "spender",
          "type": "address"
        },
        {
          "internalType": "uint256",
          "name": "amount",
          "type": "uint256"
        }
      ],
      "name": "selfApproveFor",
      "outputs": [],
      "stateMutability": "nonpayable",
      "type": "function"
    },
    {
      "inputs": [
        {
          "internalType": "address",
          "name": "account",
          "type": "address"
        },
        {
          "internalType": "uint256",
          "name": "amount",
          "type": "uint256"
        },
        {
          "internalType": "bytes",
          "name": "userData",
          "type": "bytes"
        }
      ],
      "name": "selfBurn",
      "outputs": [],
      "stateMutability": "nonpayable",
      "type": "function"
    },
    {
      "inputs": [
        {
          "internalType": "address",
          "name": "account",
          "type": "address"
        },
        {
          "internalType": "uint256",
          "name": "amount",
          "type": "uint256"
        },
        {
          "internalType": "bytes",
          "name": "userData",
          "type": "bytes"
        }
      ],
      "name": "selfMint",
      "outputs": [],
      "stateMutability": "nonpayable",
      "type": "function"
    },
    {
      "inputs": [
        {
          "internalType": "address",
          "name": "holder",
          "type": "address"
        },
        {
          "internalType": "address",
          "name": "spender",
          "type": "address"
        },
        {
          "internalType": "address",
          "name": "recipient",
          "type": "address"
        },
        {
          "internalType": "uint256",
          "name": "amount",
          "type": "uint256"
        }
      ],
      "name": "selfTransferFrom",
      "outputs": [],
      "stateMutability": "nonpayable",
      "type": "function"
    },
    {
      "inputs": [
        {
          "internalType": "address",
          "name": "recipient",
          "type": "address"
        },
        {
          "internalType": "uint256",
          "name": "amount",
          "type": "uint256"
        },
        {
          "internalType": "bytes",
          "name": "userData",
          "type": "bytes"
        }
      ],
      "name": "send",
      "outputs": [],
      "stateMutability": "nonpayable",
      "type": "function"
    },
    {
      "inputs": [
        {
          "internalType": "address",
          "name": "account",
          "type": "address"
        },
        {
          "internalType": "int256",
          "name": "delta",
          "type": "int256"
        }
      ],
      "name": "settleBalance",
      "outputs": [],
      "stateMutability": "nonpayable",
      "type": "function"
    },
    {
      "inputs": [],
      "name": "symbol",
      "outputs": [
        {
          "internalType": "string",
          "name": "",
          "type": "string"
        }
      ],
      "stateMutability": "view",
      "type": "function"
    },
    {
      "inputs": [
        {
          "internalType": "bytes32",
          "name": "id",
          "type": "bytes32"
        },
        {
          "internalType": "uint256",
          "name": "dataLength",
          "type": "uint256"
        }
      ],
      "name": "terminateAgreement",
      "outputs": [],
      "stateMutability": "nonpayable",
      "type": "function"
    },
    {
      "inputs": [],
      "name": "totalSupply",
      "outputs": [
        {
          "internalType": "uint256",
          "name": "",
          "type": "uint256"
        }
      ],
      "stateMutability": "view",
      "type": "function"
    },
    {
      "inputs": [
        {
          "internalType": "address",
          "name": "recipient",
          "type": "address"
        },
        {
          "internalType": "uint256",
          "name": "amount",
          "type": "uint256"
        }
      ],
      "name": "transfer",
      "outputs": [
        {
          "internalType": "bool",
          "name": "",
          "type": "bool"
        }
      ],
      "stateMutability": "nonpayable",
      "type": "function"
    },
    {
      "inputs": [
        {
          "internalType": "address",
          "name": "recipient",
          "type": "address"
        }
      ],
      "name": "transferAll",
      "outputs": [],
      "stateMutability": "nonpayable",
      "type": "function"
    },
    {
      "inputs": [
        {
          "internalType": "address",
          "name": "holder",
          "type": "address"
        },
        {
          "internalType": "address",
          "name": "recipient",
          "type": "address"
        },
        {
          "internalType": "uint256",
          "name": "amount",
          "type": "uint256"
        }
      ],
      "name": "transferFrom",
      "outputs": [
        {
          "internalType": "bool",
          "name": "",
          "type": "bool"
        }
      ],
      "stateMutability": "nonpayable",
      "type": "function"
    },
    {
      "inputs": [
        {
          "internalType": "bytes32",
          "name": "id",
          "type": "bytes32"
        },
        {
          "internalType": "bytes32[]",
          "name": "data",
          "type": "bytes32[]"
        }
      ],
      "name": "updateAgreementData",
      "outputs": [],
      "stateMutability": "nonpayable",
      "type": "function"
    },
    {
      "inputs": [
        {
          "internalType": "address",
          "name": "account",
          "type": "address"
        },
        {
          "internalType": "uint256",
          "name": "slotId",
          "type": "uint256"
        },
        {
          "internalType": "bytes32[]",
          "name": "slotData",
          "type": "bytes32[]"
        }
      ],
      "name": "updateAgreementStateSlot",
      "outputs": [],
      "stateMutability": "nonpayable",
      "type": "function"
    },
    {
      "inputs": [
        {
          "internalType": "uint256",
          "name": "amount",
          "type": "uint256"
        }
      ],
      "name": "upgrade",
      "outputs": [],
      "stateMutability": "nonpayable",
      "type": "function"
    },
    {
      "inputs": [
        {
          "internalType": "address",
          "name": "to",
          "type": "address"
        },
        {
          "internalType": "uint256",
          "name": "amount",
          "type": "uint256"
        },
        {
          "internalType": "bytes",
          "name": "userData",
          "type": "bytes"
        }
      ],
      "name": "upgradeTo",
      "outputs": [],
      "stateMutability": "nonpayable",
      "type": "function"
    }
  ],
  "bytecode": {
    "object": "0x60e06040523480156200001157600080fd5b506040516200456d3803806200456d8339810160408190526200003491620000cf565b6001600160a01b0380841660805282811660a081905290821660c0526040517fcf554eb342edf010a94e07701ae91e99e90b769f649f03aeb1153654ddd43c0190600090a26040516001600160a01b038216907f8837af285f4d380af9227df9ebafa13d992b487fa6d7a4366bd4154576085b8990600090a250505062000123565b6001600160a01b0381168114620000cc57600080fd5b50565b600080600060608486031215620000e557600080fd5b8351620000f281620000b6565b60208501519093506200010581620000b6565b60408501519092506200011881620000b6565b809150509250925092565b60805160a05160c0516143a3620001ca60003960006105920152600061080801526000818161044801528181610ae401528181610b5301528181610df601528181610f1101528181610fe001528181611161015281816112840152818161141701528181611731015281816117fb01528181611893015281816118fb015281816119830152818161217d0152818161221401528181613042015261328101526143a36000f3fe608060405234801561001057600080fd5b50600436106103785760003560e01c80636c2d9f2f116101d3578063c68d428311610104578063dd62ed3e116100a2578063ef43d2c61161007c578063ef43d2c614610803578063fad8b32a1461082a578063fc673c4f1461083d578063fe9d93031461085057600080fd5b8063dd62ed3e1461078b578063eb3537cc146107c4578063ee719bc8146107f257600080fd5b8063ca789464116100de578063ca7894641461073f578063cf97256d14610752578063d95b637114610765578063d9d078d61461077857600080fd5b8063c68d428314610706578063c780fd8214610719578063ca0c1e7f1461072c57600080fd5b80639d87674111610171578063a457c2d71161014b578063a457c2d7146106ba578063a9059cbb146106cd578063b84cdd4a146106e0578063bb0d196e146106f357600080fd5b80639d87674114610681578063a1b2bf8b14610694578063a3a7e7f3146106a757600080fd5b806383ba2525116101ad57806383ba252514610640578063959b8c3f1461065357806395d89b41146106665780639bd9bbc61461066e57600080fd5b80636c2d9f2f1461060757806370a082311461061a57806379359f6f1461062d57600080fd5b8063313ce567116102ad5780634b61cc331161024b5780635b9d09cc116102255780635b9d09cc146105bb57806362aa5287146105ce57806362ad1b83146105e157806366a12fb6146105f457600080fd5b80634b61cc331461056d5780634c5c0c851461058d578063556f0dc7146105b457600080fd5b806341b706be1161028757806341b706be1461052157806342fe09801461053457806345977d03146105475780634b2763b31461055a57600080fd5b8063313ce567146104ec578063386fa221146104fb578063395093511461050e57600080fd5b806318160ddd1161031a57806323b872dd116102f457806323b872dd14610480578063245887fc1461049357806327048397146104a65780632ec8eec7146104b957600080fd5b806318160ddd146104215780631863e8091461043357806320bc44251461044657600080fd5b8063095ea7b311610356578063095ea7b3146103c557806311bcc81e146103e857806312a6a3f8146103fb57806316d055d61461040e57600080fd5b806306e485381461037d57806306fdde031461039b578063090c415e146103b0575b600080fd5b610385610863565b604051610392919061349b565b60405180910390f35b6103a3610874565b6040516103929190613538565b6103c36103be3660046135ab565b610906565b005b6103d86103d3366004613606565b6109b9565b6040519015158152602001610392565b6103c36103f6366004613632565b6109d0565b6103c361040936600461364b565b6109ff565b6103c361041c366004613696565b610ae2565b6002545b604051908152602001610392565b6103c36104413660046137aa565b610b3e565b7f00000000000000000000000000000000000000000000000000000000000000005b6040516001600160a01b039091168152602001610392565b6103d861048e36600461383c565b610dde565b6103c36104a1366004613606565b610df4565b6103c36104b436600461387d565b610e6d565b6104cc6104c736600461389f565b610f09565b604080519485526020850193909352918301526060820152608001610392565b60405160128152602001610392565b61038561050936600461389f565b610fac565b6103d861051c366004613606565b61104f565b6103c361052f366004613696565b61108b565b6103c36105423660046138fd565b6110b7565b6103c3610555366004613632565b611133565b6103c361056836600461383c565b61115f565b61058061057b366004613997565b6111e6565b60405161039291906139dd565b6104687f000000000000000000000000000000000000000000000000000000000000000081565b6001610425565b6103c36105c9366004613a15565b61122b565b6103c36105dc36600461383c565b611282565b6103c36105ef366004613a64565b6112d6565b6103c361060236600461383c565b611384565b610580610615366004613b02565b6113a4565b61042561062836600461389f565b6113e6565b6103d861063b36600461389f565b61140f565b6103c361064e366004613606565b611497565b6103c361066136600461389f565b6114c3565b6103a3611514565b6103c361067c366004613a15565b611523565b6103c361068f366004613b37565b611577565b6103c36106a236600461364b565b6115bd565b6103c36106b536600461389f565b611667565b6103d86106c8366004613606565b61167b565b6103d86106db366004613606565b6116ca565b6103d86106ee366004613606565b6116d8565b6103d861070136600461389f565b611729565b6103c3610714366004613b37565b6117b1565b6103c361072736600461383c565b6117f9565b6103c361073a366004613b8f565b611891565b6103c361074d366004613606565b6118f9565b6103c3610760366004613606565b61196e565b6103d8610773366004613bfa565b611a57565b6103d8610786366004613606565b611a65565b610425610799366004613bfa565b6001600160a01b03918216600090815260106020908152604080832093909416825291909152205490565b6107d76107d2366004613606565b611a7f565b60408051938452602084019290925290820152606001610392565b600d546001600160a01b0316610468565b6104687f000000000000000000000000000000000000000000000000000000000000000081565b6103c361083836600461389f565b611bb9565b6103c361084b366004613c33565b611c0a565b6103c361085e366004613c7a565b611cb4565b606061086f6011611d05565b905090565b6060600e805461088390613cb8565b80601f01602080910402602001604051908101604052809291908181526020018280546108af90613cb8565b80156108fc5780601f106108d1576101008083540402835291602001916108fc565b820191906000526020600020905b8154815290600101906020018083116108df57829003601f168201915b5050505050905090565b600033858560405160200161091d93929190613cf2565b60405160208183030381529060405280519060200120905061097281848480806020026020016040519081016040528093929190818152602001838360200280828437600092019190915250611d6b92505050565b6040518481526001600160a01b0386169033907f30f416fa68fca014a0f334464c64b000ba53e99b6d2afdea9d5ca756372d59859060200160405180910390a35050505050565b60006109c6338484611dac565b5060015b92915050565b6109fc333333846040518060200160405280600081525060405180602001604052806000815250611e5c565b50565b6040513390600090610a179083908790602001613d3b565b60408051601f1981840301815291905280516020909101209050610a3b818461201c565b15610a595760405163782a90fb60e11b815260040160405180910390fd5b610a9681858580806020026020016040519081016040528093929190818152602001838360200280828437600092019190915250611d6b92505050565b816001600160a01b03167f770ea40a13a4644573ed785e5c7116890709947918747febc5add46feb531e2d868686604051610ad393929190613d78565b60405180910390a25050505050565b7f00000000000000000000000000000000000000000000000000000000000000006001600160a01b03163314610b2b5760405163c51efddd60e01b815260040160405180910390fd5b610b3784848484612058565b5050505050565b604051632329212160e21b81523360048201527f00000000000000000000000000000000000000000000000000000000000000006001600160a01b031690638ca4848490602401602060405180830381865afa158015610ba2573d6000803e3d6000fd5b505050506040513d601f19601f82011682018060405250810190610bc69190613db9565b610be35760405163327fd99160e21b815260040160405180910390fd5b6000610bed612178565b90506001600160a01b038116610c005750845b600085610c0d5786610c0f565b815b905060008313610cac57610c2283613dec565b610c2b856122bd565b14610c3857610c38613e08565b610c41846122bd565b6001600160a01b03821660009081526001602052604081208054909190610c69908490613e1e565b90915550506001600160a01b03851660009081526001602052604081208054859290610c96908490613e1e565b90915550610ca79050858286612330565b610d76565b8515610cba57610cba613e08565b82610cc4856122bd565b610cce9190613e1e565b6001600160a01b03831660009081526001602052604081208054909190610cf6908490613e46565b90915550610d059050846122bd565b6001600160a01b03881660009081526001602052604081208054909190610d2d908490613e1e565b90915550506001600160a01b03851660009081526001602052604081208054859290610d5a908490613e1e565b90915550610d6b9050828886612330565b610d76828685612330565b846001600160a01b0316876001600160a01b0316336001600160a01b03167fb8381a3ce157650e06186e3e8f4dd4dc29236f2688b6eed1893d0a60d7c6386f8c8589898f604051610dcb959493929190613e66565b60405180910390a4505050505050505050565b6000610dec33858585612058565b949350505050565b7f00000000000000000000000000000000000000000000000000000000000000006001600160a01b03163314610e3d5760405163c51efddd60e01b815260040160405180910390fd5b610e69338384846040518060200160405280600081525060405180602001604052806000815250611e5c565b5050565b6040513390600090610e859083908690602001613d3b565b604051602081830303815290604052805190602001209050610ea7818461201c565b610ec45760405163dae1880960e01b815260040160405180910390fd5b610ece8184612363565b60405184815233907f71a63dc095de07aa5512ad57a7596a39516317e316981a1cd71000057be1537b9060200160405180910390a250505050565b6000806000807f00000000000000000000000000000000000000000000000000000000000000006001600160a01b031663bbe4fd506040518163ffffffff1660e01b8152600401602060405180830381865afa158015610f6d573d6000803e3d6000fd5b505050506040513d601f19601f82011682018060405250810190610f919190613e99565b9050610f9d8582611a7f565b91979096509094509092509050565b6001600160a01b038181166000908152602081905260409081902054905163c56a069d60e01b8152901960048201526060917f0000000000000000000000000000000000000000000000000000000000000000169063c56a069d90602401600060405180830381865afa158015611027573d6000803e3d6000fd5b505050506040513d6000823e601f3d908101601f191682016040526109ca9190810190613eb2565b3360008181526010602090815260408083206001600160a01b038716845290915281205490916109c6918590611086908690613f63565b611dac565b3330146110ab57604051630fff4cc960e31b815260040160405180910390fd5b610b3783858484612058565b600d805460ff8716600160a01b026001600160a81b03199091166001600160a01b03891617179055600e6110ec848683613fc4565b50600f6110fa828483613fc4565b5061110430612384565b6040516000808252908190600080516020614321833981519152906020015b60405180910390a3505050505050565b6109fc3333338460405180602001604052806000815250604051806020016040528060008152506124b2565b7f00000000000000000000000000000000000000000000000000000000000000006001600160a01b031633146111a85760405163c51efddd60e01b815260040160405180910390fd5b6001600160a01b038084166000908152601060209081526040808320938616835292905220546111e19084908490611086908590613f63565b505050565b606060008585856040516020016111ff93929190613cf2565b6040516020818303038152906040528051906020012090506112218184612665565b9695505050505050565b61127c3333868686868080601f0160208091040260200160405190810160405280939291908181526020018383808284376000920182905250604080516020810190915290815292506124b2915050565b50505050565b7f00000000000000000000000000000000000000000000000000000000000000006001600160a01b031633146112cb5760405163c51efddd60e01b815260040160405180910390fd5b6111e1838383611dac565b336112e36011828a6126f4565b6113005760405163f7f0222760e01b815260040160405180910390fd5b61137a8189898989898080601f01602080910402602001604051908101604052809392919081815260200183838082843760009201919091525050604080516020601f8d018190048102820181019092528b815292508b91508a90819084018382808284376000920191909152506001925061279d915050565b5050505050505050565b3330146112cb57604051630fff4cc960e31b815260040160405180910390fd5b6060600084846040516020016113bb929190613d3b565b6040516020818303038152906040528051906020012090506113dd8184612665565b95945050505050565b6000806113f283610f09565b5050509050600081126114055780611408565b60005b9392505050565b60006109ca827f00000000000000000000000000000000000000000000000000000000000000006001600160a01b031663bbe4fd506040518163ffffffff1660e01b8152600401602060405180830381865afa158015611473573d6000803e3d6000fd5b505050506040513d601f19601f820116820180604052508101906107869190613e99565b610e69333384846040518060200160405280600081525060405180602001604052806000815250611e5c565b336114d060118284612816565b806001600160a01b0316826001600160a01b03167ff4caeb2d6ca8932a215a353d0703c326ec2d81fc68170f320eb2ab49e9df61f960405160405180910390a35050565b6060600f805461088390613cb8565b61127c3333868686868080601f0160208091040260200160405190810160405280939291908181526020018383808284376000920182905250604080516020810190915290815292506001915061279d9050565b33301461159757604051630fff4cc960e31b815260040160405180910390fd5b80516040805160008152602081019091526111e19133918691869190151590869061291a565b60405133906000906115d59083908790602001613d3b565b60405160208183030381529060405280519060200120905061162a81858580806020026020016040519081016040528093929190818152602001838360200280828437600092019190915250611d6b92505050565b336001600160a01b03167f0c4c547b3a4fcaa5be8353b3111472b124155bccc86de811d4a481c9e6e9faca868686604051610ad393929190613d78565b610e69333383611676336113e6565b612058565b60006109c63384611086856040518060600160405280602a81526020016142f7602a91393360009081526010602090815260408083206001600160a01b038d16845290915290205491906129db565b600061140833338585612058565b6000806000806116e88686611a7f565b92509250925060006117108284116117015760006122bd565b61170b8385614083565b6122bd565b61171a9085613e1e565b60001315979650505050505050565b60006109ca827f00000000000000000000000000000000000000000000000000000000000000006001600160a01b031663bbe4fd506040518163ffffffff1660e01b8152600401602060405180830381865afa15801561178d573d6000803e3d6000fd5b505050506040513d601f19601f820116820180604052508101906106ee9190613e99565b3330146117d157604051630fff4cc960e31b815260040160405180910390fd5b80516040805160008152602081019091526111e1913391869186919015159081908790612a07565b7f00000000000000000000000000000000000000000000000000000000000000006001600160a01b031633146118425760405163c51efddd60e01b815260040160405180910390fd5b6111e18383611086846040518060600160405280602a81526020016142f7602a91396001600160a01b03808a166000908152601060209081526040808320938c168352929052205491906129db565b7f00000000000000000000000000000000000000000000000000000000000000006001600160a01b031633146118da5760405163c51efddd60e01b815260040160405180910390fd5b61127c338585858560405180602001604052806000815250600161279d565b7f00000000000000000000000000000000000000000000000000000000000000006001600160a01b031633146119425760405163c51efddd60e01b815260040160405180910390fd5b610e693383848460405180602001604052806000815250604051806020016040528060008152506124b2565b604051632329212160e21b81523360048201527f00000000000000000000000000000000000000000000000000000000000000006001600160a01b031690638ca4848490602401602060405180830381865afa1580156119d2573d6000803e3d6000fd5b505050506040513d601f19601f820116820180604052508101906119f69190613db9565b611a135760405163327fd99160e21b815260040160405180910390fd5b6001600160a01b038216600090815260016020526040902054611a37908290613e1e565b6001600160a01b0390921660009081526001602052604090209190915550565b6000611408601184846126f4565b600080611a728484611a7f565b5050600013949350505050565b6001600160a01b038216600090815260016020526040812054908080611aa486610fac565b905060005b8151811015611bb0576000806000848481518110611ac957611ac9614096565b60209081029190910101516040516326cb922f60e21b81523060048201526001600160a01b038c81166024830152604482018c905290911690639b2e48bc90606401606060405180830381865afa158015611b28573d6000803e3d6000fd5b505050506040513d601f19601f82011682018060405250810190611b4c91906140ac565b91945092509050611b5d8288613f63565b9650611b698187613f63565b9550611b86818311611b7c5760006122bd565b61170b8284614083565b611b90848a613e1e565b611b9a9190613e46565b975050505080611ba9906140da565b9050611aa9565b50509250925092565b33611bc660118284612ad5565b806001600160a01b0316826001600160a01b03167f50546e66e5f44d728365dc3908c63bc5cfeeab470722c1677e3073a6ac294aa160405160405180910390a35050565b33611c17601182896126f4565b611c345760405163f7f0222760e01b815260040160405180910390fd5b611cab8188898989898080601f01602080910402602001604051908101604052809392919081815260200183838082843760009201919091525050604080516020601f8d018190048102820181019092528b815292508b91508a9081908401838280828437600092019190915250611e5c92505050565b50505050505050565b6111e13333338686868080601f016020809104026020016040519081016040528093929190818152602001838380828437600092018290525060408051602081019091529081529250611e5c915050565b606081600001805480602002602001604051908101604052809291908181526020018280548015611d5f57602002820191906000526020600020905b81546001600160a01b03168152600190910190602001808311611d41575b50505050509050919050565b60005b81518110156111e1576000828281518110611d8b57611d8b614096565b6020026020010151905080828501555080611da5906140da565b9050611d6e565b6001600160a01b038316611dd357604051638163862760e01b815260040160405180910390fd5b6001600160a01b038216611dfa576040516337c1c09d60e21b815260040160405180910390fd5b6001600160a01b0383811660008181526010602090815260408083209487168084529482529182902085905590518481527f8c5be1e5ebec7d5bd14f71427d1e84f3dd0314c0f7b2291e5b200ac8c7c3b92591015b60405180910390a3505050565b600d546001600160a01b0316611e8557604051637bce7b2b60e11b815260040160405180910390fd5b600080611e9185612bcd565b91509150611ea8888883875160001415888861291a565b600d546040516370a0823160e01b81523060048201526000916001600160a01b0316906370a0823190602401602060405180830381865afa158015611ef1573d6000803e3d6000fd5b505050506040513d601f19601f82011682018060405250810190611f159190613e99565b600d54909150611f2f906001600160a01b03168885612c89565b600d546040516370a0823160e01b81523060048201526000916001600160a01b0316906370a0823190602401602060405180830381865afa158015611f78573d6000803e3d6000fd5b505050506040513d601f19601f82011682018060405250810190611f9c9190613e99565b90506000611faa8284614083565b9050808514611fcc57604051631c7c26d360e31b815260040160405180910390fd5b896001600160a01b03167f3bc27981aebbb57f9247dc00fde9d6cd91e4b230083fec3238fedbcba1f9ab3d8560405161200791815260200190565b60405180910390a25050505050505050505050565b6000805b8281101561204e5783810154801561203d576001925050506109ca565b50612047816140da565b9050612020565b5060009392505050565b60006001600160a01b0384166120815760405163eecd6c9b60e01b815260040160405180910390fd5b6001600160a01b0383166120a85760405163e219bd3960e01b815260040160405180910390fd5b60003390506120d9818686866040518060200160405280600081525060405180602001604052806000815250612cec565b846001600160a01b0316866001600160a01b03161461216c5761216c8587611086866040518060600160405280602d8152602001614341602d9139601060008c6001600160a01b03166001600160a01b0316815260200190815260200160002060008d6001600160a01b03166001600160a01b03168152602001908152602001600020546129db9092919063ffffffff16565b50600195945050505050565b6000807f00000000000000000000000000000000000000000000000000000000000000006001600160a01b031663289b3c0d6040518163ffffffff1660e01b8152600401602060405180830381865afa1580156121d9573d6000803e3d6000fd5b505050506040513d601f19601f820116820180604052508101906121fd91906140f3565b604051638369a0f160e01b81526001600160a01b037f0000000000000000000000000000000000000000000000000000000000000000811660048301523060248301527f9f60ae461adf056670e03ae602566409933242392cb06744f5747c9f38b05d09604483015291925090821690638369a0f190606401602060405180830381865afa158015612293573d6000803e3d6000fd5b505050506040513d601f19601f820116820180604052508101906122b791906140f3565b91505090565b60006001600160ff1b0382111561232c5760405162461bcd60e51b815260206004820152602860248201527f53616665436173743a2076616c756520646f65736e27742066697420696e2061604482015267371034b73a191a9b60c11b60648201526084015b60405180910390fd5b5090565b816001600160a01b0316836001600160a01b031660008051602061432183398151915283604051611e4f91815260200190565b60005b818110156111e15760008382015561237d816140da565b9050612366565b6040516329965a1d60e01b81526001600160a01b03821660048201527fac7fbab5f54a3ca8194167523c6753bfeb96a445279294b6125b68cce21770546024820152306044820152731820a4b7618bde71dce8cdc73aab6c95905fad24906329965a1d90606401600060405180830381600087803b15801561240557600080fd5b505af1158015612419573d6000803e3d6000fd5b50506040516329965a1d60e01b81526001600160a01b03841660048201527faea199e31a596269b42cdafd93407f14436db6e4cad65417994c2eb37381e05a6024820152306044820152731820a4b7618bde71dce8cdc73aab6c95905fad2492506329965a1d9150606401600060405180830381600087803b15801561249e57600080fd5b505af1158015610b37573d6000803e3d6000fd5b600d546001600160a01b03166124db57604051637bce7b2b60e11b815260040160405180910390fd5b6000806124e785612bcd565b600d546040516370a0823160e01b81523060048201529294509092506000916001600160a01b03909116906370a0823190602401602060405180830381865afa158015612538573d6000803e3d6000fd5b505050506040513d601f19601f8201168201806040525081019061255c9190613e99565b600d54909150612577906001600160a01b0316893086612d8b565b600d546040516370a0823160e01b81523060048201526000916001600160a01b0316906370a0823190602401602060405180830381865afa1580156125c0573d6000803e3d6000fd5b505050506040513d601f19601f820116820180604052508101906125e49190613e99565b905060006125f28383614083565b905080851461261457604051631c7c26d360e31b815260040160405180910390fd5b865161262a908c908b9087901515808c8c612a07565b886001600160a01b03167f25ca84076773b0455db53621c459ddc84fe40840e4932a62706a032566f399df8560405161200791815260200190565b6060816001600160401b0381111561267f5761267f6136e7565b6040519080825280602002602001820160405280156126a8578160200160208202803683370190505b50905060005b828110156126ed576000818501549050808383815181106126d1576126d1614096565b6020908102919091010152506126e6816140da565b90506126ae565b5092915050565b6000816001600160a01b0316836001600160a01b0316148061276357506001600160a01b038316600090815260018501602052604090205460ff16801561276357506001600160a01b03808316600090815260038601602090815260408083209387168352929052205460ff16155b80610dec57506001600160a01b03808316600090815260028601602090815260408083209387168352929052205460ff1690509392505050565b6001600160a01b0386166127c45760405163eecd6c9b60e01b815260040160405180910390fd5b6001600160a01b0385166127eb5760405163e219bd3960e01b815260040160405180910390fd5b6127f9878787878787612dc3565b612807878787878787612cec565b611cab87878787878787612eea565b806001600160a01b0316826001600160a01b03160361288d5760405162461bcd60e51b815260206004820152602d60248201527f4552433737374f70657261746f72733a20617574686f72697a696e672073656c60448201526c331030b99037b832b930ba37b960991b6064820152608401612323565b6001600160a01b038116600090815260018401602052604090205460ff16156128e3576001600160a01b03918216600090815260039390930160209081526040808520929093168452529020805460ff19169055565b6001600160a01b0380831660009081526002850160209081526040808320938516835292905220805460ff19166001179055505050565b6001600160a01b03851661294157604051632e8aac6160e21b815260040160405180910390fd5b82156129565761295686866000878686612dc3565b612960858561303a565b846001600160a01b0316866001600160a01b03167fa78a9be3a7b862d26933ad85fb11d80ef66b8f972d7cbba06621d583943a40988685856040516129a793929190614110565b60405180910390a36040518481526000906001600160a01b0387169060008051602061432183398151915290602001611123565b600081848411156129ff5760405162461bcd60e51b81526004016123239190613538565b505050900390565b6001600160a01b038616612a2e57604051630d24315760e01b815260040160405180910390fd5b612a38868661314a565b8315612a4e57612a4e8760008888868689612eea565b856001600160a01b0316876001600160a01b03167f2fe5be0146f74c5bce36c0b80911af6c7d86ff27e89d5cfa61fc681327954e5d878585604051612a9593929190614110565b60405180910390a36040518581526001600160a01b038716906000906000805160206143218339815191529060200160405180910390a350505050505050565b336001600160a01b03821603612b405760405162461bcd60e51b815260206004820152602a60248201527f4552433737374f70657261746f72733a207265766f6b696e672073656c662061604482015269399037b832b930ba37b960b11b6064820152608401612323565b6001600160a01b038116600090815260018401602052604090205460ff1615612b9a576001600160a01b0380831660009081526003850160209081526040808320938516835292905220805460ff19166001179055505050565b6001600160a01b03918216600090815260029390930160209081526040808520929093168452529020805460ff19169055565b600d54600090819081906012600160a01b90910460ff161015612c2c57600d54612c0290600160a01b900460ff16601261413b565b612c0d90600a614238565b9050612c198185614247565b9250612c258184614269565b9150612c83565b600d546012600160a01b90910460ff161115612c7c57600d54612c5b90601290600160a01b900460ff1661413b565b612c6690600a614238565b9050612c728185614269565b9250839150612c83565b8391508192505b50915091565b6040516001600160a01b0383166024820152604481018290526111e190849063a9059cbb60e01b906064015b60408051601f198184030181529190526020810180516001600160e01b03166001600160e01b0319909316929092179091526131a4565b612cff8585612cfa866122bd565b613279565b836001600160a01b0316856001600160a01b0316876001600160a01b03167f06b541ddaa720db2b10a4d0cdac39b8d360425fc073085fac19bc82614677987868686604051612d5093929190614110565b60405180910390a4836001600160a01b0316856001600160a01b03166000805160206143218339815191528560405161112391815260200190565b6040516001600160a01b038085166024830152831660448201526064810182905261127c9085906323b872dd60e01b90608401612cb5565b60405163555ddc6560e11b81526001600160a01b03861660048201527f29ddb589b1fb5fc7cf394961c1adf5f8c6454761adf795e67fe149f658abe8956024820152600090731820a4b7618bde71dce8cdc73aab6c95905fad249063aabbb8ca90604401602060405180830381865afa158015612e44573d6000803e3d6000fd5b505050506040513d601f19601f82011682018060405250810190612e6891906140f3565b90506001600160a01b03811615611cab57604051633ad5cbc160e11b81526001600160a01b038216906375ab978290612eaf908a908a908a908a908a908a90600401614280565b600060405180830381600087803b158015612ec957600080fd5b505af1158015612edd573d6000803e3d6000fd5b5050505050505050505050565b60405163555ddc6560e11b81526001600160a01b03861660048201527fb281fc8c12954d22544db45de3159a39272895b169a852b314f9cc762e44c53b6024820152600090731820a4b7618bde71dce8cdc73aab6c95905fad249063aabbb8ca90604401602060405180830381865afa158015612f6b573d6000803e3d6000fd5b505050506040513d601f19601f82011682018060405250810190612f8f91906140f3565b90506001600160a01b0381161561300b576040516223de2960e01b81526001600160a01b038216906223de2990612fd4908b908b908b908b908b908b90600401614280565b600060405180830381600087803b158015612fee57600080fd5b505af1158015613002573d6000803e3d6000fd5b5050505061137a565b811561137a576001600160a01b0386163b1561137a5760405163fe737d0560e01b815260040160405180910390fd5b60006130c2837f00000000000000000000000000000000000000000000000000000000000000006001600160a01b031663bbe4fd506040518163ffffffff1660e01b8152600401602060405180830381865afa15801561309e573d6000803e3d6000fd5b505050506040513d601f19601f820116820180604052508101906107d29190613e99565b505090506130cf826122bd565b8112156130ef5760405163043b37d160e21b815260040160405180910390fd5b6130f8826122bd565b6001600160a01b03841660009081526001602052604090205461311b9190613e46565b6001600160a01b038416600090815260016020526040902055600254613142908390614083565b600255505050565b613153816122bd565b6001600160a01b0383166000908152600160205260409020546131769190613e1e565b6001600160a01b03831660009081526001602052604090205560025461319d908290613f63565b6002555050565b60006131f9826040518060400160405280602081526020017f5361666545524332303a206c6f772d6c6576656c2063616c6c206661696c6564815250856001600160a01b03166133789092919063ffffffff16565b905080516000148061321a57508080602001905181019061321a9190613db9565b6111e15760405162461bcd60e51b815260206004820152602a60248201527f5361666545524332303a204552433230206f7065726174696f6e20646964206e6044820152691bdd081cdd58d8d9595960b21b6064820152608401612323565b60006132dd847f00000000000000000000000000000000000000000000000000000000000000006001600160a01b031663bbe4fd506040518163ffffffff1660e01b8152600401602060405180830381865afa15801561309e573d6000803e3d6000fd5b505090508181121561330257604051632f4cb94160e01b815260040160405180910390fd5b6001600160a01b038416600090815260016020526040902054613326908390613e46565b6001600160a01b038086166000908152600160205260408082209390935590851681522054613356908390613e1e565b6001600160a01b03909316600090815260016020526040902092909255505050565b6060610dec848460008585600080866001600160a01b0316858760405161339f91906142da565b60006040518083038185875af1925050503d80600081146133dc576040519150601f19603f3d011682016040523d82523d6000602084013e6133e1565b606091505b50915091506133f2878383876133fd565b979650505050505050565b6060831561346c578251600003613465576001600160a01b0385163b6134655760405162461bcd60e51b815260206004820152601d60248201527f416464726573733a2063616c6c20746f206e6f6e2d636f6e74726163740000006044820152606401612323565b5081610dec565b610dec83838151156134815781518083602001fd5b8060405162461bcd60e51b81526004016123239190613538565b6020808252825182820181905260009190848201906040850190845b818110156134dc5783516001600160a01b0316835292840192918401916001016134b7565b50909695505050505050565b60005b838110156135035781810151838201526020016134eb565b50506000910152565b600081518084526135248160208601602086016134e8565b601f01601f19169290920160200192915050565b602081526000611408602083018461350c565b6001600160a01b03811681146109fc57600080fd5b60008083601f84011261357257600080fd5b5081356001600160401b0381111561358957600080fd5b6020830191508360208260051b85010111156135a457600080fd5b9250929050565b600080600080606085870312156135c157600080fd5b84356135cc8161354b565b93506020850135925060408501356001600160401b038111156135ee57600080fd5b6135fa87828801613560565b95989497509550505050565b6000806040838503121561361957600080fd5b82356136248161354b565b946020939093013593505050565b60006020828403121561364457600080fd5b5035919050565b60008060006040848603121561366057600080fd5b8335925060208401356001600160401b0381111561367d57600080fd5b61368986828701613560565b9497909650939450505050565b600080600080608085870312156136ac57600080fd5b84356136b78161354b565b935060208501356136c78161354b565b925060408501356136d78161354b565b9396929550929360600135925050565b634e487b7160e01b600052604160045260246000fd5b604051601f8201601f191681016001600160401b0381118282101715613725576137256136e7565b604052919050565b600082601f83011261373e57600080fd5b81356001600160401b03811115613757576137576136e7565b61376a601f8201601f19166020016136fd565b81815284602083860101111561377f57600080fd5b816020850160208301376000918101602001919091529392505050565b80151581146109fc57600080fd5b600080600080600080600060e0888a0312156137c557600080fd5b8735965060208801356001600160401b038111156137e257600080fd5b6137ee8a828b0161372d565b96505060408801356137ff8161354b565b9450606088013561380f8161379c565b9350608088013561381f8161354b565b9699959850939692959460a0840135945060c09093013592915050565b60008060006060848603121561385157600080fd5b833561385c8161354b565b9250602084013561386c8161354b565b929592945050506040919091013590565b6000806040838503121561389057600080fd5b50508035926020909101359150565b6000602082840312156138b157600080fd5b81356114088161354b565b60008083601f8401126138ce57600080fd5b5081356001600160401b038111156138e557600080fd5b6020830191508360208285010111156135a457600080fd5b6000806000806000806080878903121561391657600080fd5b86356139218161354b565b9550602087013560ff8116811461393757600080fd5b945060408701356001600160401b038082111561395357600080fd5b61395f8a838b016138bc565b9096509450606089013591508082111561397857600080fd5b5061398589828a016138bc565b979a9699509497509295939492505050565b600080600080608085870312156139ad57600080fd5b84356139b88161354b565b935060208501356139c88161354b565b93969395505050506040820135916060013590565b6020808252825182820181905260009190848201906040850190845b818110156134dc578351835292840192918401916001016139f9565b60008060008060608587031215613a2b57600080fd5b8435613a368161354b565b93506020850135925060408501356001600160401b03811115613a5857600080fd5b6135fa878288016138bc565b600080600080600080600060a0888a031215613a7f57600080fd5b8735613a8a8161354b565b96506020880135613a9a8161354b565b95506040880135945060608801356001600160401b0380821115613abd57600080fd5b613ac98b838c016138bc565b909650945060808a0135915080821115613ae257600080fd5b50613aef8a828b016138bc565b989b979a50959850939692959293505050565b600080600060608486031215613b1757600080fd5b8335613b228161354b565b95602085013595506040909401359392505050565b600080600060608486031215613b4c57600080fd5b8335613b578161354b565b92506020840135915060408401356001600160401b03811115613b7957600080fd5b613b858682870161372d565b9150509250925092565b60008060008060808587031215613ba557600080fd5b8435613bb08161354b565b93506020850135613bc08161354b565b92506040850135915060608501356001600160401b03811115613be257600080fd5b613bee8782880161372d565b91505092959194509250565b60008060408385031215613c0d57600080fd5b8235613c188161354b565b91506020830135613c288161354b565b809150509250929050565b60008060008060008060808789031215613c4c57600080fd5b8635613c578161354b565b95506020870135945060408701356001600160401b038082111561395357600080fd5b600080600060408486031215613c8f57600080fd5b8335925060208401356001600160401b03811115613cac57600080fd5b613689868287016138bc565b600181811c90821680613ccc57607f821691505b602082108103613cec57634e487b7160e01b600052602260045260246000fd5b50919050565b6080808252600e908201526d41677265656d656e74537461746560901b60a08201526001600160a01b039384166020820152919092166040820152606081019190915260c00190565b6060808252600d908201526c41677265656d656e744461746160981b60808201526001600160a01b03929092166020830152604082015260a00190565b838152604060208201819052810182905260006001600160fb1b03831115613d9f57600080fd5b8260051b8085606085013791909101606001949350505050565b600060208284031215613dcb57600080fd5b81516114088161379c565b634e487b7160e01b600052601160045260246000fd5b6000600160ff1b8201613e0157613e01613dd6565b5060000390565b634e487b7160e01b600052600160045260246000fd5b8082018281126000831280158216821582161715613e3e57613e3e613dd6565b505092915050565b81810360008312801583831316838312821617156126ed576126ed613dd6565b85815260018060a01b038516602082015283604082015282606082015260a0608082015260006133f260a083018461350c565b600060208284031215613eab57600080fd5b5051919050565b60006020808385031215613ec557600080fd5b82516001600160401b0380821115613edc57600080fd5b818501915085601f830112613ef057600080fd5b815181811115613f0257613f026136e7565b8060051b9150613f138483016136fd565b8181529183018401918481019088841115613f2d57600080fd5b938501935b83851015613f575784519250613f478361354b565b8282529385019390850190613f32565b98975050505050505050565b808201808211156109ca576109ca613dd6565b601f8211156111e157600081815260208120601f850160051c81016020861015613f9d5750805b601f850160051c820191505b81811015613fbc57828155600101613fa9565b505050505050565b6001600160401b03831115613fdb57613fdb6136e7565b613fef83613fe98354613cb8565b83613f76565b6000601f841160018114614023576000851561400b5750838201355b600019600387901b1c1916600186901b178355610b37565b600083815260209020601f19861690835b828110156140545786850135825560209485019460019092019101614034565b50868210156140715760001960f88860031b161c19848701351681555b505060018560011b0183555050505050565b818103818111156109ca576109ca613dd6565b634e487b7160e01b600052603260045260246000fd5b6000806000606084860312156140c157600080fd5b8351925060208401519150604084015190509250925092565b6000600182016140ec576140ec613dd6565b5060010190565b60006020828403121561410557600080fd5b81516114088161354b565b838152606060208201526000614129606083018561350c565b8281036040840152611221818561350c565b60ff82811682821603908111156109ca576109ca613dd6565b600181815b8085111561418f57816000190482111561417557614175613dd6565b8085161561418257918102915b93841c9390800290614159565b509250929050565b6000826141a6575060016109ca565b816141b3575060006109ca565b81600181146141c957600281146141d3576141ef565b60019150506109ca565b60ff8411156141e4576141e4613dd6565b50506001821b6109ca565b5060208310610133831016604e8410600b8410161715614212575081810a6109ca565b61421c8383614154565b806000190482111561423057614230613dd6565b029392505050565b600061140860ff841683614197565b60008261426457634e487b7160e01b600052601260045260246000fd5b500490565b80820281158282048414176109ca576109ca613dd6565b6001600160a01b0387811682528681166020830152851660408201526060810184905260c0608082018190526000906142bb9083018561350c565b82810360a08401526142cd818561350c565b9998505050505050505050565b600082516142ec8184602087016134e8565b919091019291505056fe5375706572546f6b656e3a2064656372656173656420616c6c6f77616e63652062656c6f77207a65726fddf252ad1be2c89b69c2b068fc378daa952ba7f163c4a11628f55a4df523b3ef5375706572546f6b656e3a207472616e7366657220616d6f756e74206578636565647320616c6c6f77616e6365a26469706673582212201216bd8e781fa36a8a65a347f095c2e222b6ba26afe524c585e3e95fc7dd6e1464736f6c63430008130033",
    "linkReferences": {}
  },
  "methodIdentifiers": {
    "CONSTANT_INFLOW_NFT()": "4c5c0c85",
    "CONSTANT_OUTFLOW_NFT()": "ef43d2c6",
    "allowance(address,address)": "dd62ed3e",
    "approve(address,uint256)": "095ea7b3",
    "authorizeOperator(address)": "959b8c3f",
    "balanceOf(address)": "70a08231",
    "burn(uint256,bytes)": "fe9d9303",
    "createAgreement(bytes32,bytes32[])": "12a6a3f8",
    "decimals()": "313ce567",
    "decreaseAllowance(address,uint256)": "a457c2d7",
    "defaultOperators()": "06e48538",
    "downgrade(uint256)": "11bcc81e",
    "downgradeTo(address,uint256)": "83ba2525",
    "getAccountActiveAgreements(address)": "386fa221",
    "getAgreementData(address,bytes32,uint256)": "6c2d9f2f",
    "getAgreementStateSlot(address,address,uint256,uint256)": "4b61cc33",
    "getHost()": "20bc4425",
    "getUnderlyingToken()": "ee719bc8",
    "granularity()": "556f0dc7",
    "increaseAllowance(address,uint256)": "39509351",
    "initialize(address,uint8,string,string)": "42fe0980",
    "isAccountCritical(address,uint256)": "d9d078d6",
    "isAccountCriticalNow(address)": "79359f6f",
    "isAccountSolvent(address,uint256)": "b84cdd4a",
    "isAccountSolventNow(address)": "bb0d196e",
    "isOperatorFor(address,address)": "d95b6371",
    "makeLiquidationPayoutsV2(bytes32,bytes,address,bool,address,uint256,int256)": "1863e809",
    "name()": "06fdde03",
    "operationApprove(address,address,uint256)": "62aa5287",
    "operationDecreaseAllowance(address,address,uint256)": "c780fd82",
    "operationDowngrade(address,uint256)": "245887fc",
    "operationIncreaseAllowance(address,address,uint256)": "4b2763b3",
    "operationSend(address,address,uint256,bytes)": "ca0c1e7f",
    "operationTransferFrom(address,address,address,uint256)": "16d055d6",
    "operationUpgrade(address,uint256)": "ca789464",
    "operatorBurn(address,uint256,bytes,bytes)": "fc673c4f",
    "operatorSend(address,address,uint256,bytes,bytes)": "62ad1b83",
    "realtimeBalanceOf(address,uint256)": "eb3537cc",
    "realtimeBalanceOfNow(address)": "2ec8eec7",
    "revokeOperator(address)": "fad8b32a",
    "selfApproveFor(address,address,uint256)": "66a12fb6",
    "selfBurn(address,uint256,bytes)": "9d876741",
    "selfMint(address,uint256,bytes)": "c68d4283",
    "selfTransferFrom(address,address,address,uint256)": "41b706be",
    "send(address,uint256,bytes)": "9bd9bbc6",
    "settleBalance(address,int256)": "cf97256d",
    "symbol()": "95d89b41",
    "terminateAgreement(bytes32,uint256)": "27048397",
    "totalSupply()": "18160ddd",
    "transfer(address,uint256)": "a9059cbb",
    "transferAll(address)": "a3a7e7f3",
    "transferFrom(address,address,uint256)": "23b872dd",
    "updateAgreementData(bytes32,bytes32[])": "a1b2bf8b",
    "updateAgreementStateSlot(address,uint256,bytes32[])": "090c415e",
    "upgrade(uint256)": "45977d03",
    "upgradeTo(address,uint256,bytes)": "5b9d09cc"
  },
  "id": 117
}