{
  "abi": [
    {
      "inputs": [
        {
          "internalType": "contract ISuperfluid",
          "name": "host",
          "type": "address"
        },
        {
          "internalType": "contract IConstantOutflowNFT",
          "name": "constantOutflowNFT",
          "type": "address"
        },
        {
          "internalType": "contract IConstantInflowNFT",
          "name": "constantInflowNFT",
          "type": "address"
        }
      ],
      "stateMutability": "nonpayable",
      "type": "constructor"
    },
    {
      "inputs": [],
      "name": "SF_TOKEN_AGREEMENT_ALREADY_EXISTS",
      "type": "error"
    },
    {
      "inputs": [],
      "name": "SF_TOKEN_AGREEMENT_DOES_NOT_EXIST",
      "type": "error"
    },
    {
      "inputs": [],
      "name": "SF_TOKEN_BURN_INSUFFICIENT_BALANCE",
      "type": "error"
    },
    {
      "inputs": [],
      "name": "SF_TOKEN_MOVE_INSUFFICIENT_BALANCE",
      "type": "error"
    },
    {
      "inputs": [],
      "name": "SF_TOKEN_ONLY_HOST",
      "type": "error"
    },
    {
      "inputs": [],
      "name": "SF_TOKEN_ONLY_LISTED_AGREEMENT",
      "type": "error"
    },
    {
      "inputs": [],
      "name": "SUPER_TOKEN_APPROVE_FROM_ZERO_ADDRESS",
      "type": "error"
    },
    {
      "inputs": [],
      "name": "SUPER_TOKEN_APPROVE_TO_ZERO_ADDRESS",
      "type": "error"
    },
    {
      "inputs": [],
      "name": "SUPER_TOKEN_BURN_FROM_ZERO_ADDRESS",
      "type": "error"
    },
    {
      "inputs": [],
      "name": "SUPER_TOKEN_CALLER_IS_NOT_OPERATOR_FOR_HOLDER",
      "type": "error"
    },
    {
      "inputs": [],
      "name": "SUPER_TOKEN_INFLATIONARY_DEFLATIONARY_NOT_SUPPORTED",
      "type": "error"
    },
    {
      "inputs": [],
      "name": "SUPER_TOKEN_MINT_TO_ZERO_ADDRESS",
      "type": "error"
    },
    {
      "inputs": [],
      "name": "SUPER_TOKEN_NFT_PROXY_ADDRESS_CHANGED",
      "type": "error"
    },
    {
      "inputs": [],
      "name": "SUPER_TOKEN_NOT_ERC777_TOKENS_RECIPIENT",
      "type": "error"
    },
    {
      "inputs": [],
      "name": "SUPER_TOKEN_NO_UNDERLYING_TOKEN",
      "type": "error"
    },
    {
      "inputs": [],
      "name": "SUPER_TOKEN_ONLY_GOV_OWNER",
      "type": "error"
    },
    {
      "inputs": [],
      "name": "SUPER_TOKEN_ONLY_HOST",
      "type": "error"
    },
    {
      "inputs": [],
      "name": "SUPER_TOKEN_ONLY_SELF",
      "type": "error"
    },
    {
      "inputs": [],
      "name": "SUPER_TOKEN_TRANSFER_FROM_ZERO_ADDRESS",
      "type": "error"
    },
    {
      "inputs": [],
      "name": "SUPER_TOKEN_TRANSFER_TO_ZERO_ADDRESS",
      "type": "error"
    },
    {
      "anonymous": false,
      "inputs": [
        {
          "indexed": true,
          "internalType": "address",
          "name": "agreementClass",
          "type": "address"
        },
        {
          "indexed": false,
          "internalType": "bytes32",
          "name": "id",
          "type": "bytes32"
        },
        {
          "indexed": false,
          "internalType": "bytes32[]",
          "name": "data",
          "type": "bytes32[]"
        }
      ],
      "name": "AgreementCreated",
      "type": "event"
    },
    {
      "anonymous": false,
      "inputs": [
        {
          "indexed": true,
          "internalType": "address",
          "name": "agreementClass",
          "type": "address"
        },
        {
          "indexed": false,
          "internalType": "bytes32",
          "name": "id",
          "type": "bytes32"
        },
        {
          "indexed": true,
          "internalType": "address",
          "name": "penaltyAccount",
          "type": "address"
        },
        {
          "indexed": true,
          "internalType": "address",
          "name": "rewardAccount",
          "type": "address"
        },
        {
          "indexed": false,
          "internalType": "uint256",
          "name": "rewardAmount",
          "type": "uint256"
        }
      ],
      "name": "AgreementLiquidated",
      "type": "event"
    },
    {
      "anonymous": false,
      "inputs": [
        {
          "indexed": false,
          "internalType": "address",
          "name": "liquidatorAccount",
          "type": "address"
        },
        {
          "indexed": true,
          "internalType": "address",
          "name": "agreementClass",
          "type": "address"
        },
        {
          "indexed": false,
          "internalType": "bytes32",
          "name": "id",
          "type": "bytes32"
        },
        {
          "indexed": true,
          "internalType": "address",
          "name": "penaltyAccount",
          "type": "address"
        },
        {
          "indexed": true,
          "internalType": "address",
          "name": "bondAccount",
          "type": "address"
        },
        {
          "indexed": false,
          "internalType": "uint256",
          "name": "rewardAmount",
          "type": "uint256"
        },
        {
          "indexed": false,
          "internalType": "uint256",
          "name": "bailoutAmount",
          "type": "uint256"
        }
      ],
      "name": "AgreementLiquidatedBy",
      "type": "event"
    },
    {
      "anonymous": false,
      "inputs": [
        {
          "indexed": true,
          "internalType": "address",
          "name": "agreementClass",
          "type": "address"
        },
        {
          "indexed": false,
          "internalType": "bytes32",
          "name": "id",
          "type": "bytes32"
        },
        {
          "indexed": true,
          "internalType": "address",
          "name": "liquidatorAccount",
          "type": "address"
        },
        {
          "indexed": true,
          "internalType": "address",
          "name": "targetAccount",
          "type": "address"
        },
        {
          "indexed": false,
          "internalType": "address",
          "name": "rewardAmountReceiver",
          "type": "address"
        },
        {
          "indexed": false,
          "internalType": "uint256",
          "name": "rewardAmount",
          "type": "uint256"
        },
        {
          "indexed": false,
          "internalType": "int256",
          "name": "targetAccountBalanceDelta",
          "type": "int256"
        },
        {
          "indexed": false,
          "internalType": "bytes",
          "name": "liquidationTypeData",
          "type": "bytes"
        }
      ],
      "name": "AgreementLiquidatedV2",
      "type": "event"
    },
    {
      "anonymous": false,
      "inputs": [
        {
          "indexed": true,
          "internalType": "address",
          "name": "agreementClass",
          "type": "address"
        },
        {
          "indexed": true,
          "internalType": "address",
          "name": "account",
          "type": "address"
        },
        {
          "indexed": false,
          "internalType": "uint256",
          "name": "slotId",
          "type": "uint256"
        }
      ],
      "name": "AgreementStateUpdated",
      "type": "event"
    },
    {
      "anonymous": false,
      "inputs": [
        {
          "indexed": true,
          "internalType": "address",
          "name": "agreementClass",
          "type": "address"
        },
        {
          "indexed": false,
          "internalType": "bytes32",
          "name": "id",
          "type": "bytes32"
        }
      ],
      "name": "AgreementTerminated",
      "type": "event"
    },
    {
      "anonymous": false,
      "inputs": [
        {
          "indexed": true,
          "internalType": "address",
          "name": "agreementClass",
          "type": "address"
        },
        {
          "indexed": false,
          "internalType": "bytes32",
          "name": "id",
          "type": "bytes32"
        },
        {
          "indexed": false,
          "internalType": "bytes32[]",
          "name": "data",
          "type": "bytes32[]"
        }
      ],
      "name": "AgreementUpdated",
      "type": "event"
    },
    {
      "anonymous": false,
      "inputs": [
        {
          "indexed": true,
          "internalType": "address",
          "name": "owner",
          "type": "address"
        },
        {
          "indexed": true,
          "internalType": "address",
          "name": "spender",
          "type": "address"
        },
        {
          "indexed": false,
          "internalType": "uint256",
          "name": "value",
          "type": "uint256"
        }
      ],
      "name": "Approval",
      "type": "event"
    },
    {
      "anonymous": false,
      "inputs": [
        {
          "indexed": true,
          "internalType": "address",
          "name": "operator",
          "type": "address"
        },
        {
          "indexed": true,
          "internalType": "address",
          "name": "tokenHolder",
          "type": "address"
        }
      ],
      "name": "AuthorizedOperator",
      "type": "event"
    },
    {
      "anonymous": false,
      "inputs": [
        {
          "indexed": true,
          "internalType": "address",
          "name": "bailoutAccount",
          "type": "address"
        },
        {
          "indexed": false,
          "internalType": "uint256",
          "name": "bailoutAmount",
          "type": "uint256"
        }
      ],
      "name": "Bailout",
      "type": "event"
    },
    {
      "anonymous": false,
      "inputs": [
        {
          "indexed": true,
          "internalType": "address",
          "name": "operator",
          "type": "address"
        },
        {
          "indexed": true,
          "internalType": "address",
          "name": "from",
          "type": "address"
        },
        {
          "indexed": false,
          "internalType": "uint256",
          "name": "amount",
          "type": "uint256"
        },
        {
          "indexed": false,
          "internalType": "bytes",
          "name": "data",
          "type": "bytes"
        },
        {
          "indexed": false,
          "internalType": "bytes",
          "name": "operatorData",
          "type": "bytes"
        }
      ],
      "name": "Burned",
      "type": "event"
    },
    {
      "anonymous": false,
      "inputs": [
        {
          "indexed": true,
          "internalType": "contract IConstantInflowNFT",
          "name": "constantInflowNFT",
          "type": "address"
        }
      ],
      "name": "ConstantInflowNFTCreated",
      "type": "event"
    },
    {
      "anonymous": false,
      "inputs": [
        {
          "indexed": true,
          "internalType": "contract IConstantOutflowNFT",
          "name": "constantOutflowNFT",
          "type": "address"
        }
      ],
      "name": "ConstantOutflowNFTCreated",
      "type": "event"
    },
    {
      "anonymous": false,
      "inputs": [
        {
          "indexed": true,
          "internalType": "address",
          "name": "operator",
          "type": "address"
        },
        {
          "indexed": true,
          "internalType": "address",
          "name": "to",
          "type": "address"
        },
        {
          "indexed": false,
          "internalType": "uint256",
          "name": "amount",
          "type": "uint256"
        },
        {
          "indexed": false,
          "internalType": "bytes",
          "name": "data",
          "type": "bytes"
        },
        {
          "indexed": false,
          "internalType": "bytes",
          "name": "operatorData",
          "type": "bytes"
        }
      ],
      "name": "Minted",
      "type": "event"
    },
    {
      "anonymous": false,
      "inputs": [
        {
          "indexed": true,
          "internalType": "address",
          "name": "operator",
          "type": "address"
        },
        {
          "indexed": true,
          "internalType": "address",
          "name": "tokenHolder",
          "type": "address"
        }
      ],
      "name": "RevokedOperator",
      "type": "event"
    },
    {
      "anonymous": false,
      "inputs": [
        {
          "indexed": true,
          "internalType": "address",
          "name": "operator",
          "type": "address"
        },
        {
          "indexed": true,
          "internalType": "address",
          "name": "from",
          "type": "address"
        },
        {
          "indexed": true,
          "internalType": "address",
          "name": "to",
          "type": "address"
        },
        {
          "indexed": false,
          "internalType": "uint256",
          "name": "amount",
          "type": "uint256"
        },
        {
          "indexed": false,
          "internalType": "bytes",
          "name": "data",
          "type": "bytes"
        },
        {
          "indexed": false,
          "internalType": "bytes",
          "name": "operatorData",
          "type": "bytes"
        }
      ],
      "name": "Sent",
      "type": "event"
    },
    {
      "anonymous": false,
      "inputs": [
        {
          "indexed": true,
          "internalType": "address",
          "name": "account",
          "type": "address"
        },
        {
          "indexed": false,
          "internalType": "uint256",
          "name": "amount",
          "type": "uint256"
        }
      ],
      "name": "TokenDowngraded",
      "type": "event"
    },
    {
      "anonymous": false,
      "inputs": [
        {
          "indexed": true,
          "internalType": "address",
          "name": "account",
          "type": "address"
        },
        {
          "indexed": false,
          "internalType": "uint256",
          "name": "amount",
          "type": "uint256"
        }
      ],
      "name": "TokenUpgraded",
      "type": "event"
    },
    {
      "anonymous": false,
      "inputs": [
        {
          "indexed": true,
          "internalType": "address",
          "name": "from",
          "type": "address"
        },
        {
          "indexed": true,
          "internalType": "address",
          "name": "to",
          "type": "address"
        },
        {
          "indexed": false,
          "internalType": "uint256",
          "name": "value",
          "type": "uint256"
        }
      ],
      "name": "Transfer",
      "type": "event"
    },
    {
      "inputs": [],
      "name": "CONSTANT_INFLOW_NFT",
      "outputs": [
        {
          "internalType": "contract IConstantInflowNFT",
          "name": "",
          "type": "address"
        }
      ],
      "stateMutability": "view",
      "type": "function"
    },
    {
      "inputs": [],
      "name": "CONSTANT_OUTFLOW_NFT",
      "outputs": [
        {
          "internalType": "contract IConstantOutflowNFT",
          "name": "",
          "type": "address"
        }
      ],
      "stateMutability": "view",
      "type": "function"
    },
    {
      "inputs": [
        {
          "internalType": "address",
          "name": "account",
          "type": "address"
        },
        {
          "internalType": "address",
          "name": "spender",
          "type": "address"
        }
      ],
      "name": "allowance",
      "outputs": [
        {
          "internalType": "uint256",
          "name": "",
          "type": "uint256"
        }
      ],
      "stateMutability": "view",
      "type": "function"
    },
    {
      "inputs": [
        {
          "internalType": "address",
          "name": "spender",
          "type": "address"
        },
        {
          "internalType": "uint256",
          "name": "amount",
          "type": "uint256"
        }
      ],
      "name": "approve",
      "outputs": [
        {
          "internalType": "bool",
          "name": "",
          "type": "bool"
        }
      ],
      "stateMutability": "nonpayable",
      "type": "function"
    },
    {
      "inputs": [
        {
          "internalType": "address",
          "name": "operator",
          "type": "address"
        }
      ],
      "name": "authorizeOperator",
      "outputs": [],
      "stateMutability": "nonpayable",
      "type": "function"
    },
    {
      "inputs": [
        {
          "internalType": "address",
          "name": "account",
          "type": "address"
        }
      ],
      "name": "balanceOf",
      "outputs": [
        {
          "internalType": "uint256",
          "name": "balance",
          "type": "uint256"
        }
      ],
      "stateMutability": "view",
      "type": "function"
    },
    {
      "inputs": [
        {
          "internalType": "uint256",
          "name": "amount",
          "type": "uint256"
        },
        {
          "internalType": "bytes",
          "name": "userData",
          "type": "bytes"
        }
      ],
      "name": "burn",
      "outputs": [],
      "stateMutability": "nonpayable",
      "type": "function"
    },
    {
      "inputs": [
        {
          "internalType": "bytes32",
          "name": "id",
          "type": "bytes32"
        },
        {
          "internalType": "bytes32[]",
          "name": "data",
          "type": "bytes32[]"
        }
      ],
      "name": "createAgreement",
      "outputs": [],
      "stateMutability": "nonpayable",
      "type": "function"
    },
    {
      "inputs": [],
      "name": "decimals",
      "outputs": [
        {
          "internalType": "uint8",
          "name": "",
          "type": "uint8"
        }
      ],
      "stateMutability": "pure",
      "type": "function"
    },
    {
      "inputs": [
        {
          "internalType": "address",
          "name": "spender",
          "type": "address"
        },
        {
          "internalType": "uint256",
          "name": "subtractedValue",
          "type": "uint256"
        }
      ],
      "name": "decreaseAllowance",
      "outputs": [
        {
          "internalType": "bool",
          "name": "",
          "type": "bool"
        }
      ],
      "stateMutability": "nonpayable",
      "type": "function"
    },
    {
      "inputs": [],
      "name": "defaultOperators",
      "outputs": [
        {
          "internalType": "address[]",
          "name": "",
          "type": "address[]"
        }
      ],
      "stateMutability": "view",
      "type": "function"
    },
    {
      "inputs": [
        {
          "internalType": "uint256",
          "name": "amount",
          "type": "uint256"
        }
      ],
      "name": "downgrade",
      "outputs": [],
      "stateMutability": "nonpayable",
      "type": "function"
    },
    {
      "inputs": [
        {
          "internalType": "address",
          "name": "to",
          "type": "address"
        },
        {
          "internalType": "uint256",
          "name": "amount",
          "type": "uint256"
        }
      ],
      "name": "downgradeTo",
      "outputs": [],
      "stateMutability": "nonpayable",
      "type": "function"
    },
    {
      "inputs": [
        {
          "internalType": "address",
          "name": "account",
          "type": "address"
        }
      ],
      "name": "getAccountActiveAgreements",
      "outputs": [
        {
          "internalType": "contract ISuperAgreement[]",
          "name": "",
          "type": "address[]"
        }
      ],
      "stateMutability": "view",
      "type": "function"
    },
    {
      "inputs": [
        {
          "internalType": "address",
          "name": "agreementClass",
          "type": "address"
        },
        {
          "internalType": "bytes32",
          "name": "id",
          "type": "bytes32"
        },
        {
          "internalType": "uint256",
          "name": "dataLength",
          "type": "uint256"
        }
      ],
      "name": "getAgreementData",
      "outputs": [
        {
          "internalType": "bytes32[]",
          "name": "data",
          "type": "bytes32[]"
        }
      ],
      "stateMutability": "view",
      "type": "function"
    },
    {
      "inputs": [
        {
          "internalType": "address",
          "name": "agreementClass",
          "type": "address"
        },
        {
          "internalType": "address",
          "name": "account",
          "type": "address"
        },
        {
          "internalType": "uint256",
          "name": "slotId",
          "type": "uint256"
        },
        {
          "internalType": "uint256",
          "name": "dataLength",
          "type": "uint256"
        }
      ],
      "name": "getAgreementStateSlot",
      "outputs": [
        {
          "internalType": "bytes32[]",
          "name": "slotData",
          "type": "bytes32[]"
        }
      ],
      "stateMutability": "view",
      "type": "function"
    },
    {
      "inputs": [],
      "name": "getHost",
      "outputs": [
        {
          "internalType": "address",
          "name": "host",
          "type": "address"
        }
      ],
      "stateMutability": "view",
      "type": "function"
    },
    {
      "inputs": [],
      "name": "getUnderlyingToken",
      "outputs": [
        {
          "internalType": "address",
          "name": "",
          "type": "address"
        }
      ],
      "stateMutability": "view",
      "type": "function"
    },
    {
      "inputs": [],
      "name": "granularity",
      "outputs": [
        {
          "internalType": "uint256",
          "name": "",
          "type": "uint256"
        }
      ],
      "stateMutability": "pure",
      "type": "function"
    },
    {
      "inputs": [
        {
          "internalType": "address",
          "name": "spender",
          "type": "address"
        },
        {
          "internalType": "uint256",
          "name": "addedValue",
          "type": "uint256"
        }
      ],
      "name": "increaseAllowance",
      "outputs": [
        {
          "internalType": "bool",
          "name": "",
          "type": "bool"
        }
      ],
      "stateMutability": "nonpayable",
      "type": "function"
    },
    {
      "inputs": [
        {
          "internalType": "contract IERC20",
          "name": "underlyingToken",
          "type": "address"
        },
        {
          "internalType": "uint8",
          "name": "underlyingDecimals",
          "type": "uint8"
        },
        {
          "internalType": "string",
          "name": "n",
          "type": "string"
        },
        {
          "internalType": "string",
          "name": "s",
          "type": "string"
        }
      ],
      "name": "initialize",
      "outputs": [],
      "stateMutability": "nonpayable",
      "type": "function"
    },
    {
      "inputs": [
        {
          "internalType": "address",
          "name": "account",
          "type": "address"
        },
        {
          "internalType": "uint256",
          "name": "timestamp",
          "type": "uint256"
        }
      ],
      "name": "isAccountCritical",
      "outputs": [
        {
          "internalType": "bool",
          "name": "isCritical",
          "type": "bool"
        }
      ],
      "stateMutability": "view",
      "type": "function"
    },
    {
      "inputs": [
        {
          "internalType": "address",
          "name": "account",
          "type": "address"
        }
      ],
      "name": "isAccountCriticalNow",
      "outputs": [
        {
          "internalType": "bool",
          "name": "isCritical",
          "type": "bool"
        }
      ],
      "stateMutability": "view",
      "type": "function"
    },
    {
      "inputs": [
        {
          "internalType": "address",
          "name": "account",
          "type": "address"
        },
        {
          "internalType": "uint256",
          "name": "timestamp",
          "type": "uint256"
        }
      ],
      "name": "isAccountSolvent",
      "outputs": [
        {
          "internalType": "bool",
          "name": "isSolvent",
          "type": "bool"
        }
      ],
      "stateMutability": "view",
      "type": "function"
    },
    {
      "inputs": [
        {
          "internalType": "address",
          "name": "account",
          "type": "address"
        }
      ],
      "name": "isAccountSolventNow",
      "outputs": [
        {
          "internalType": "bool",
          "name": "isSolvent",
          "type": "bool"
        }
      ],
      "stateMutability": "view",
      "type": "function"
    },
    {
      "inputs": [
        {
          "internalType": "address",
          "name": "operator",
          "type": "address"
        },
        {
          "internalType": "address",
          "name": "tokenHolder",
          "type": "address"
        }
      ],
      "name": "isOperatorFor",
      "outputs": [
        {
          "internalType": "bool",
          "name": "",
          "type": "bool"
        }
      ],
      "stateMutability": "view",
      "type": "function"
    },
    {
      "inputs": [
        {
          "internalType": "bytes32",
          "name": "id",
          "type": "bytes32"
        },
        {
          "internalType": "bytes",
          "name": "liquidationTypeData",
          "type": "bytes"
        },
        {
          "internalType": "address",
          "name": "liquidatorAccount",
          "type": "address"
        },
        {
          "internalType": "bool",
          "name": "useDefaultRewardAccount",
          "type": "bool"
        },
        {
          "internalType": "address",
          "name": "targetAccount",
          "type": "address"
        },
        {
          "internalType": "uint256",
          "name": "rewardAmount",
          "type": "uint256"
        },
        {
          "internalType": "int256",
          "name": "targetAccountBalanceDelta",
          "type": "int256"
        }
      ],
      "name": "makeLiquidationPayoutsV2",
      "outputs": [],
      "stateMutability": "nonpayable",
      "type": "function"
    },
    {
      "inputs": [],
      "name": "name",
      "outputs": [
        {
          "internalType": "string",
          "name": "",
          "type": "string"
        }
      ],
      "stateMutability": "view",
      "type": "function"
    },
    {
      "inputs": [
        {
          "internalType": "address",
          "name": "account",
          "type": "address"
        },
        {
          "internalType": "address",
          "name": "spender",
          "type": "address"
        },
        {
          "internalType": "uint256",
          "name": "amount",
          "type": "uint256"
        }
      ],
      "name": "operationApprove",
      "outputs": [],
      "stateMutability": "nonpayable",
      "type": "function"
    },
    {
      "inputs": [
        {
          "internalType": "address",
          "name": "account",
          "type": "address"
        },
        {
          "internalType": "address",
          "name": "spender",
          "type": "address"
        },
        {
          "internalType": "uint256",
          "name": "subtractedValue",
          "type": "uint256"
        }
      ],
      "name": "operationDecreaseAllowance",
      "outputs": [],
      "stateMutability": "nonpayable",
      "type": "function"
    },
    {
      "inputs": [
        {
          "internalType": "address",
          "name": "account",
          "type": "address"
        },
        {
          "internalType": "uint256",
          "name": "amount",
          "type": "uint256"
        }
      ],
      "name": "operationDowngrade",
      "outputs": [],
      "stateMutability": "nonpayable",
      "type": "function"
    },
    {
      "inputs": [
        {
          "internalType": "address",
          "name": "account",
          "type": "address"
        },
        {
          "internalType": "address",
          "name": "spender",
          "type": "address"
        },
        {
          "internalType": "uint256",
          "name": "addedValue",
          "type": "uint256"
        }
      ],
      "name": "operationIncreaseAllowance",
      "outputs": [],
      "stateMutability": "nonpayable",
      "type": "function"
    },
    {
      "inputs": [
        {
          "internalType": "address",
          "name": "spender",
          "type": "address"
        },
        {
          "internalType": "address",
          "name": "recipient",
          "type": "address"
        },
        {
          "internalType": "uint256",
          "name": "amount",
          "type": "uint256"
        },
        {
          "internalType": "bytes",
          "name": "userData",
          "type": "bytes"
        }
      ],
      "name": "operationSend",
      "outputs": [],
      "stateMutability": "nonpayable",
      "type": "function"
    },
    {
      "inputs": [
        {
          "internalType": "address",
          "name": "account",
          "type": "address"
        },
        {
          "internalType": "address",
          "name": "spender",
          "type": "address"
        },
        {
          "internalType": "address",
          "name": "recipient",
          "type": "address"
        },
        {
          "internalType": "uint256",
          "name": "amount",
          "type": "uint256"
        }
      ],
      "name": "operationTransferFrom",
      "outputs": [],
      "stateMutability": "nonpayable",
      "type": "function"
    },
    {
      "inputs": [
        {
          "internalType": "address",
          "name": "account",
          "type": "address"
        },
        {
          "internalType": "uint256",
          "name": "amount",
          "type": "uint256"
        }
      ],
      "name": "operationUpgrade",
      "outputs": [],
      "stateMutability": "nonpayable",
      "type": "function"
    },
    {
      "inputs": [
        {
          "internalType": "address",
          "name": "account",
          "type": "address"
        },
        {
          "internalType": "uint256",
          "name": "amount",
          "type": "uint256"
        },
        {
          "internalType": "bytes",
          "name": "userData",
          "type": "bytes"
        },
        {
          "internalType": "bytes",
          "name": "operatorData",
          "type": "bytes"
        }
      ],
      "name": "operatorBurn",
      "outputs": [],
      "stateMutability": "nonpayable",
      "type": "function"
    },
    {
      "inputs": [
        {
          "internalType": "address",
          "name": "sender",
          "type": "address"
        },
        {
          "internalType": "address",
          "name": "recipient",
          "type": "address"
        },
        {
          "internalType": "uint256",
          "name": "amount",
          "type": "uint256"
        },
        {
          "internalType": "bytes",
          "name": "userData",
          "type": "bytes"
        },
        {
          "internalType": "bytes",
          "name": "operatorData",
          "type": "bytes"
        }
      ],
      "name": "operatorSend",
      "outputs": [],
      "stateMutability": "nonpayable",
      "type": "function"
    },
    {
      "inputs": [
        {
          "internalType": "address",
          "name": "account",
          "type": "address"
        },
        {
          "internalType": "uint256",
          "name": "timestamp",
          "type": "uint256"
        }
      ],
      "name": "realtimeBalanceOf",
      "outputs": [
        {
          "internalType": "int256",
          "name": "availableBalance",
          "type": "int256"
        },
        {
          "internalType": "uint256",
          "name": "deposit",
          "type": "uint256"
        },
        {
          "internalType": "uint256",
          "name": "owedDeposit",
          "type": "uint256"
        }
      ],
      "stateMutability": "view",
      "type": "function"
    },
    {
      "inputs": [
        {
          "internalType": "address",
          "name": "account",
          "type": "address"
        }
      ],
      "name": "realtimeBalanceOfNow",
      "outputs": [
        {
          "internalType": "int256",
          "name": "availableBalance",
          "type": "int256"
        },
        {
          "internalType": "uint256",
          "name": "deposit",
          "type": "uint256"
        },
        {
          "internalType": "uint256",
          "name": "owedDeposit",
          "type": "uint256"
        },
        {
          "internalType": "uint256",
          "name": "timestamp",
          "type": "uint256"
        }
      ],
      "stateMutability": "view",
      "type": "function"
    },
    {
      "inputs": [
        {
          "internalType": "address",
          "name": "operator",
          "type": "address"
        }
      ],
      "name": "revokeOperator",
      "outputs": [],
      "stateMutability": "nonpayable",
      "type": "function"
    },
    {
      "inputs": [
        {
          "internalType": "address",
          "name": "account",
          "type": "address"
        },
        {
          "internalType": "address",
          "name": "spender",
          "type": "address"
        },
        {
          "internalType": "uint256",
          "name": "amount",
          "type": "uint256"
        }
      ],
      "name": "selfApproveFor",
      "outputs": [],
      "stateMutability": "nonpayable",
      "type": "function"
    },
    {
      "inputs": [
        {
          "internalType": "address",
          "name": "account",
          "type": "address"
        },
        {
          "internalType": "uint256",
          "name": "amount",
          "type": "uint256"
        },
        {
          "internalType": "bytes",
          "name": "userData",
          "type": "bytes"
        }
      ],
      "name": "selfBurn",
      "outputs": [],
      "stateMutability": "nonpayable",
      "type": "function"
    },
    {
      "inputs": [
        {
          "internalType": "address",
          "name": "account",
          "type": "address"
        },
        {
          "internalType": "uint256",
          "name": "amount",
          "type": "uint256"
        },
        {
          "internalType": "bytes",
          "name": "userData",
          "type": "bytes"
        }
      ],
      "name": "selfMint",
      "outputs": [],
      "stateMutability": "nonpayable",
      "type": "function"
    },
    {
      "inputs": [
        {
          "internalType": "address",
          "name": "holder",
          "type": "address"
        },
        {
          "internalType": "address",
          "name": "spender",
          "type": "address"
        },
        {
          "internalType": "address",
          "name": "recipient",
          "type": "address"
        },
        {
          "internalType": "uint256",
          "name": "amount",
          "type": "uint256"
        }
      ],
      "name": "selfTransferFrom",
      "outputs": [],
      "stateMutability": "nonpayable",
      "type": "function"
    },
    {
      "inputs": [
        {
          "internalType": "address",
          "name": "recipient",
          "type": "address"
        },
        {
          "internalType": "uint256",
          "name": "amount",
          "type": "uint256"
        },
        {
          "internalType": "bytes",
          "name": "userData",
          "type": "bytes"
        }
      ],
      "name": "send",
      "outputs": [],
      "stateMutability": "nonpayable",
      "type": "function"
    },
    {
      "inputs": [
        {
          "internalType": "address",
          "name": "account",
          "type": "address"
        },
        {
          "internalType": "int256",
          "name": "delta",
          "type": "int256"
        }
      ],
      "name": "settleBalance",
      "outputs": [],
      "stateMutability": "nonpayable",
      "type": "function"
    },
    {
      "inputs": [],
      "name": "symbol",
      "outputs": [
        {
          "internalType": "string",
          "name": "",
          "type": "string"
        }
      ],
      "stateMutability": "view",
      "type": "function"
    },
    {
      "inputs": [
        {
          "internalType": "bytes32",
          "name": "id",
          "type": "bytes32"
        },
        {
          "internalType": "uint256",
          "name": "dataLength",
          "type": "uint256"
        }
      ],
      "name": "terminateAgreement",
      "outputs": [],
      "stateMutability": "nonpayable",
      "type": "function"
    },
    {
      "inputs": [],
      "name": "totalSupply",
      "outputs": [
        {
          "internalType": "uint256",
          "name": "",
          "type": "uint256"
        }
      ],
      "stateMutability": "view",
      "type": "function"
    },
    {
      "inputs": [
        {
          "internalType": "address",
          "name": "recipient",
          "type": "address"
        },
        {
          "internalType": "uint256",
          "name": "amount",
          "type": "uint256"
        }
      ],
      "name": "transfer",
      "outputs": [
        {
          "internalType": "bool",
          "name": "",
          "type": "bool"
        }
      ],
      "stateMutability": "nonpayable",
      "type": "function"
    },
    {
      "inputs": [
        {
          "internalType": "address",
          "name": "recipient",
          "type": "address"
        }
      ],
      "name": "transferAll",
      "outputs": [],
      "stateMutability": "nonpayable",
      "type": "function"
    },
    {
      "inputs": [
        {
          "internalType": "address",
          "name": "holder",
          "type": "address"
        },
        {
          "internalType": "address",
          "name": "recipient",
          "type": "address"
        },
        {
          "internalType": "uint256",
          "name": "amount",
          "type": "uint256"
        }
      ],
      "name": "transferFrom",
      "outputs": [
        {
          "internalType": "bool",
          "name": "",
          "type": "bool"
        }
      ],
      "stateMutability": "nonpayable",
      "type": "function"
    },
    {
      "inputs": [
        {
          "internalType": "bytes32",
          "name": "id",
          "type": "bytes32"
        },
        {
          "internalType": "bytes32[]",
          "name": "data",
          "type": "bytes32[]"
        }
      ],
      "name": "updateAgreementData",
      "outputs": [],
      "stateMutability": "nonpayable",
      "type": "function"
    },
    {
      "inputs": [
        {
          "internalType": "address",
          "name": "account",
          "type": "address"
        },
        {
          "internalType": "uint256",
          "name": "slotId",
          "type": "uint256"
        },
        {
          "internalType": "bytes32[]",
          "name": "slotData",
          "type": "bytes32[]"
        }
      ],
      "name": "updateAgreementStateSlot",
      "outputs": [],
      "stateMutability": "nonpayable",
      "type": "function"
    },
    {
      "inputs": [
        {
          "internalType": "uint256",
          "name": "amount",
          "type": "uint256"
        }
      ],
      "name": "upgrade",
      "outputs": [],
      "stateMutability": "nonpayable",
      "type": "function"
    },
    {
      "inputs": [
        {
          "internalType": "address",
          "name": "to",
          "type": "address"
        },
        {
          "internalType": "uint256",
          "name": "amount",
          "type": "uint256"
        },
        {
          "internalType": "bytes",
          "name": "userData",
          "type": "bytes"
        }
      ],
      "name": "upgradeTo",
      "outputs": [],
      "stateMutability": "nonpayable",
      "type": "function"
    }
  ],
  "bytecode": {
    "object": "0x60e06040523480156200001157600080fd5b5060405162004561380380620045618339810160408190526200003491620000cf565b6001600160a01b0380841660805282811660a081905290821660c0526040517fcf554eb342edf010a94e07701ae91e99e90b769f649f03aeb1153654ddd43c0190600090a26040516001600160a01b038216907f8837af285f4d380af9227df9ebafa13d992b487fa6d7a4366bd4154576085b8990600090a250505062000123565b6001600160a01b0381168114620000cc57600080fd5b50565b600080600060608486031215620000e557600080fd5b8351620000f281620000b6565b60208501519093506200010581620000b6565b60408501519092506200011881620000b6565b809150509250925092565b60805160a05160c051614397620001ca60003960006104970152600061070d015260008181610358015281816109e901528181610a5a01528181610d0001528181610e1b01528181610eea0152818161111601528181611239015281816113cc015281816116e6015281816117b001528181611848015281816118b00152818161193a01528181612136015281816121dd01528181612fb501526131f401526143976000f3fe608060405234801561001057600080fd5b50600436106102885760003560e01c806306e485381461028d57806306fdde03146102ab578063090c415e146102c0578063095ea7b3146102d557806311bcc81e146102f857806312a6a3f81461030b57806316d055d61461031e57806318160ddd146103315780631863e8091461034357806320bc44251461035657806323b872dd14610385578063245887fc1461039857806327048397146103ab5780632ec8eec7146103be578063313ce567146103f1578063386fa22114610400578063395093511461041357806341b706be1461042657806342fe09801461043957806345977d031461044c5780634b2763b31461045f5780634b61cc33146104725780634c5c0c8514610492578063556f0dc7146104b95780635b9d09cc146104c057806362aa5287146104d357806362ad1b83146104e657806366a12fb6146104f95780636c2d9f2f1461050c57806370a082311461051f57806379359f6f1461053257806383ba252514610545578063959b8c3f1461055857806395d89b411461056b5780639bd9bbc6146105735780639d87674114610586578063a1b2bf8b14610599578063a3a7e7f3146105ac578063a457c2d7146105bf578063a9059cbb146105d2578063b84cdd4a146105e5578063bb0d196e146105f8578063c68d42831461060b578063c780fd821461061e578063ca0c1e7f14610631578063ca78946414610644578063cf97256d14610657578063d95b63711461066a578063d9d078d61461067d578063dd62ed3e14610690578063eb3537cc146106c9578063ee719bc8146106f7578063ef43d2c614610708578063fad8b32a1461072f578063fc673c4f14610742578063fe9d930314610755575b600080fd5b610295610768565b6040516102a2919061341b565b60405180910390f35b6102b3610779565b6040516102a291906134b8565b6102d36102ce36600461352b565b61080b565b005b6102e86102e3366004613586565b6108be565b60405190151581526020016102a2565b6102d36103063660046135b2565b6108d5565b6102d36103193660046135cb565b610904565b6102d361032c366004613616565b6109e7565b6002545b6040519081526020016102a2565b6102d361035136600461372a565b610a43565b7f00000000000000000000000000000000000000000000000000000000000000005b6040516102a291906137bc565b6102e86103933660046137d0565b610ce8565b6102d36103a6366004613586565b610cfe565b6102d36103b9366004613811565b610d77565b6103d16103cc366004613833565b610e13565b6040805194855260208501939093529183015260608201526080016102a2565b604051601281526020016102a2565b61029561040e366004613833565b610eb6565b6102e8610421366004613586565b610f59565b6102d3610434366004613616565b610f95565b6102d3610447366004613891565b610fc1565b6102d361045a3660046135b2565b6110e8565b6102d361046d3660046137d0565b611114565b61048561048036600461392b565b61119b565b6040516102a29190613971565b6103787f000000000000000000000000000000000000000000000000000000000000000081565b6001610335565b6102d36104ce3660046139a9565b6111e0565b6102d36104e13660046137d0565b611237565b6102d36104f43660046139f8565b61128b565b6102d36105073660046137d0565b611339565b61048561051a366004613a96565b611359565b61033561052d366004613833565b61139b565b6102e8610540366004613833565b6113c4565b6102d3610553366004613586565b61144c565b6102d3610566366004613833565b611478565b6102b36114c9565b6102d36105813660046139a9565b6114d8565b6102d3610594366004613acb565b61152c565b6102d36105a73660046135cb565b611572565b6102d36105ba366004613833565b61161c565b6102e86105cd366004613586565b611630565b6102e86105e0366004613586565b61167f565b6102e86105f3366004613586565b61168d565b6102e8610606366004613833565b6116de565b6102d3610619366004613acb565b611766565b6102d361062c3660046137d0565b6117ae565b6102d361063f366004613b23565b611846565b6102d3610652366004613586565b6118ae565b6102d3610665366004613586565b611923565b6102e8610678366004613b8e565b611a11565b6102e861068b366004613586565b611a1f565b61033561069e366004613b8e565b6001600160a01b03918216600090815260106020908152604080832093909416825291909152205490565b6106dc6106d7366004613586565b611a39565b604080519384526020840192909252908201526060016102a2565b600d546001600160a01b0316610378565b6103787f000000000000000000000000000000000000000000000000000000000000000081565b6102d361073d366004613833565b611b68565b6102d3610750366004613bc7565b611bb9565b6102d3610763366004613c0e565b611c63565b60606107746011611cb4565b905090565b6060600e805461078890613c4c565b80601f01602080910402602001604051908101604052809291908181526020018280546107b490613c4c565b80156108015780601f106107d657610100808354040283529160200191610801565b820191906000526020600020905b8154815290600101906020018083116107e457829003601f168201915b5050505050905090565b600033858560405160200161082293929190613c86565b60405160208183030381529060405280519060200120905061087781848480806020026020016040519081016040528093929190818152602001838360200280828437600092019190915250611d1a92505050565b6040518481526001600160a01b0386169033907f30f416fa68fca014a0f334464c64b000ba53e99b6d2afdea9d5ca756372d59859060200160405180910390a35050505050565b60006108cb338484611d5b565b5060015b92915050565b610901333333846040518060200160405280600081525060405180602001604052806000815250611e0b565b50565b604051339060009061091c9083908790602001613ccf565b60408051601f19818403018152919052805160209091012090506109408184611fd5565b1561095e5760405163782a90fb60e11b815260040160405180910390fd5b61099b81858580806020026020016040519081016040528093929190818152602001838360200280828437600092019190915250611d1a92505050565b816001600160a01b03167f770ea40a13a4644573ed785e5c7116890709947918747febc5add46feb531e2d8686866040516109d893929190613d0c565b60405180910390a25050505050565b7f00000000000000000000000000000000000000000000000000000000000000006001600160a01b03163314610a305760405163c51efddd60e01b815260040160405180910390fd5b610a3c84848484612011565b5050505050565b604051632329212160e21b81526001600160a01b037f00000000000000000000000000000000000000000000000000000000000000001690638ca4848490610a8f9033906004016137bc565b602060405180830381865afa158015610aac573d6000803e3d6000fd5b505050506040513d601f19601f82011682018060405250810190610ad09190613d4d565b610aed5760405163327fd99160e21b815260040160405180910390fd5b6000610af7612131565b90506001600160a01b038116610b0a5750845b600085610b175786610b19565b815b905060008313610bb657610b2c83613d80565b610b3585612270565b14610b4257610b42613d9c565b610b4b84612270565b6001600160a01b03821660009081526001602052604081208054909190610b73908490613db2565b90915550506001600160a01b03851660009081526001602052604081208054859290610ba0908490613db2565b90915550610bb190508582866122de565b610c80565b8515610bc457610bc4613d9c565b82610bce85612270565b610bd89190613db2565b6001600160a01b03831660009081526001602052604081208054909190610c00908490613dda565b90915550610c0f905084612270565b6001600160a01b03881660009081526001602052604081208054909190610c37908490613db2565b90915550506001600160a01b03851660009081526001602052604081208054859290610c64908490613db2565b90915550610c7590508288866122de565b610c808286856122de565b846001600160a01b0316876001600160a01b0316336001600160a01b03167fb8381a3ce157650e06186e3e8f4dd4dc29236f2688b6eed1893d0a60d7c6386f8c8589898f604051610cd5959493929190613dfa565b60405180910390a4505050505050505050565b6000610cf633858585612011565b949350505050565b7f00000000000000000000000000000000000000000000000000000000000000006001600160a01b03163314610d475760405163c51efddd60e01b815260040160405180910390fd5b610d73338384846040518060200160405280600081525060405180602001604052806000815250611e0b565b5050565b6040513390600090610d8f9083908690602001613ccf565b604051602081830303815290604052805190602001209050610db18184611fd5565b610dce5760405163dae1880960e01b815260040160405180910390fd5b610dd88184612311565b60405184815233907f71a63dc095de07aa5512ad57a7596a39516317e316981a1cd71000057be1537b9060200160405180910390a250505050565b6000806000807f00000000000000000000000000000000000000000000000000000000000000006001600160a01b031663bbe4fd506040518163ffffffff1660e01b8152600401602060405180830381865afa158015610e77573d6000803e3d6000fd5b505050506040513d601f19601f82011682018060405250810190610e9b9190613e2d565b9050610ea78582611a39565b91979096509094509092509050565b6001600160a01b038181166000908152602081905260409081902054905163c56a069d60e01b8152901960048201526060917f0000000000000000000000000000000000000000000000000000000000000000169063c56a069d90602401600060405180830381865afa158015610f31573d6000803e3d6000fd5b505050506040513d6000823e601f3d908101601f191682016040526108cf9190810190613e46565b3360008181526010602090815260408083206001600160a01b038716845290915281205490916108cb918590610f90908690613ef7565b611d5b565b333014610fb557604051630fff4cc960e31b815260040160405180910390fd5b610a3c83858484612011565b600e8054610fce90613c4c565b1590506110225760405162461bcd60e51b815260206004820152601f60248201527f5375706572546f6b656e3a20616c726561647920696e697469616c697a65640060448201526064015b60405180910390fd5b600083900361106c5760405162461bcd60e51b81526020600482015260166024820152755375706572546f6b656e3a20656d707479206e616d6560501b6044820152606401611019565b600d805460ff8716600160a01b026001600160a81b03199091166001600160a01b03891617179055600e6110a1848683613f58565b50600f6110af828483613f58565b506110b930612332565b6040516000808252908190600080516020614315833981519152906020015b60405180910390a3505050505050565b610901333333846040518060200160405280600081525060405180602001604052806000815250612448565b7f00000000000000000000000000000000000000000000000000000000000000006001600160a01b0316331461115d5760405163c51efddd60e01b815260040160405180910390fd5b6001600160a01b038084166000908152601060209081526040808320938616835292905220546111969084908490610f90908590613ef7565b505050565b606060008585856040516020016111b493929190613c86565b6040516020818303038152906040528051906020012090506111d68184612605565b9695505050505050565b6112313333868686868080601f016020809104026020016040519081016040528093929190818152602001838380828437600092018290525060408051602081019091529081529250612448915050565b50505050565b7f00000000000000000000000000000000000000000000000000000000000000006001600160a01b031633146112805760405163c51efddd60e01b815260040160405180910390fd5b611196838383611d5b565b336112986011828a612694565b6112b55760405163f7f0222760e01b815260040160405180910390fd5b61132f8189898989898080601f01602080910402602001604051908101604052809392919081815260200183838082843760009201919091525050604080516020601f8d018190048102820181019092528b815292508b91508a90819084018382808284376000920191909152506001925061273d915050565b5050505050505050565b33301461128057604051630fff4cc960e31b815260040160405180910390fd5b606060008484604051602001611370929190613ccf565b6040516020818303038152906040528051906020012090506113928184612605565b95945050505050565b6000806113a783610e13565b5050509050600081126113ba57806113bd565b60005b9392505050565b60006108cf827f00000000000000000000000000000000000000000000000000000000000000006001600160a01b031663bbe4fd506040518163ffffffff1660e01b8152600401602060405180830381865afa158015611428573d6000803e3d6000fd5b505050506040513d601f19601f8201168201806040525081019061068b9190613e2d565b610d73333384846040518060200160405280600081525060405180602001604052806000815250611e0b565b33611485601182846127b6565b806001600160a01b0316826001600160a01b03167ff4caeb2d6ca8932a215a353d0703c326ec2d81fc68170f320eb2ab49e9df61f960405160405180910390a35050565b6060600f805461078890613c4c565b6112313333868686868080601f0160208091040260200160405190810160405280939291908181526020018383808284376000920182905250604080516020810190915290815292506001915061273d9050565b33301461154c57604051630fff4cc960e31b815260040160405180910390fd5b8051604080516000815260208101909152611196913391869186919015159086906128ba565b604051339060009061158a9083908790602001613ccf565b6040516020818303038152906040528051906020012090506115df81858580806020026020016040519081016040528093929190818152602001838360200280828437600092019190915250611d1a92505050565b336001600160a01b03167f0c4c547b3a4fcaa5be8353b3111472b124155bccc86de811d4a481c9e6e9faca8686866040516109d893929190613d0c565b610d7333338361162b3361139b565b612011565b60006108cb3384610f90856040518060600160405280602a81526020016142eb602a91393360009081526010602090815260408083206001600160a01b038d168452909152902054919061297b565b60006113bd33338585612011565b60008060008061169d8686611a39565b92509250925060006116c58284116116b6576000612270565b6116c08385614017565b612270565b6116cf9085613db2565b60001315979650505050505050565b60006108cf827f00000000000000000000000000000000000000000000000000000000000000006001600160a01b031663bbe4fd506040518163ffffffff1660e01b8152600401602060405180830381865afa158015611742573d6000803e3d6000fd5b505050506040513d601f19601f820116820180604052508101906105f39190613e2d565b33301461178657604051630fff4cc960e31b815260040160405180910390fd5b80516040805160008152602081019091526111969133918691869190151590819087906129a7565b7f00000000000000000000000000000000000000000000000000000000000000006001600160a01b031633146117f75760405163c51efddd60e01b815260040160405180910390fd5b6111968383610f90846040518060600160405280602a81526020016142eb602a91396001600160a01b03808a166000908152601060209081526040808320938c1683529290522054919061297b565b7f00000000000000000000000000000000000000000000000000000000000000006001600160a01b0316331461188f5760405163c51efddd60e01b815260040160405180910390fd5b611231338585858560405180602001604052806000815250600161273d565b7f00000000000000000000000000000000000000000000000000000000000000006001600160a01b031633146118f75760405163c51efddd60e01b815260040160405180910390fd5b610d73338384846040518060200160405280600081525060405180602001604052806000815250612448565b604051632329212160e21b81526001600160a01b037f00000000000000000000000000000000000000000000000000000000000000001690638ca484849061196f9033906004016137bc565b602060405180830381865afa15801561198c573d6000803e3d6000fd5b505050506040513d601f19601f820116820180604052508101906119b09190613d4d565b6119cd5760405163327fd99160e21b815260040160405180910390fd5b6001600160a01b0382166000908152600160205260409020546119f1908290613db2565b6001600160a01b0390921660009081526001602052604090209190915550565b60006113bd60118484612694565b600080611a2c8484611a39565b5050600013949350505050565b6001600160a01b038216600090815260016020526040812054908080611a5e86610eb6565b905060005b8151811015611b5f576000806000848481518110611a8357611a8361402a565b60200260200101516001600160a01b0316639b2e48bc308c8c6040518463ffffffff1660e01b8152600401611aba93929190614040565b606060405180830381865afa158015611ad7573d6000803e3d6000fd5b505050506040513d601f19601f82011682018060405250810190611afb9190614064565b91945092509050611b0c8288613ef7565b9650611b188187613ef7565b9550611b35818311611b2b576000612270565b6116c08284614017565b611b3f848a613db2565b611b499190613dda565b975050505080611b5890614092565b9050611a63565b50509250925092565b33611b7560118284612a75565b806001600160a01b0316826001600160a01b03167f50546e66e5f44d728365dc3908c63bc5cfeeab470722c1677e3073a6ac294aa160405160405180910390a35050565b33611bc660118289612694565b611be35760405163f7f0222760e01b815260040160405180910390fd5b611c5a8188898989898080601f01602080910402602001604051908101604052809392919081815260200183838082843760009201919091525050604080516020601f8d018190048102820181019092528b815292508b91508a9081908401838280828437600092019190915250611e0b92505050565b50505050505050565b6111963333338686868080601f016020809104026020016040519081016040528093929190818152602001838380828437600092018290525060408051602081019091529081529250611e0b915050565b606081600001805480602002602001604051908101604052809291908181526020018280548015611d0e57602002820191906000526020600020905b81546001600160a01b03168152600190910190602001808311611cf0575b50505050509050919050565b60005b8151811015611196576000828281518110611d3a57611d3a61402a565b6020026020010151905080828501555080611d5490614092565b9050611d1d565b6001600160a01b038316611d8257604051638163862760e01b815260040160405180910390fd5b6001600160a01b038216611da9576040516337c1c09d60e21b815260040160405180910390fd5b6001600160a01b0383811660008181526010602090815260408083209487168084529482529182902085905590518481527f8c5be1e5ebec7d5bd14f71427d1e84f3dd0314c0f7b2291e5b200ac8c7c3b92591015b60405180910390a3505050565b600d546001600160a01b0316611e3457604051637bce7b2b60e11b815260040160405180910390fd5b600080611e4085612b6d565b91509150611e5788888387516000141588886128ba565b600d546040516370a0823160e01b81526000916001600160a01b0316906370a0823190611e889030906004016137bc565b602060405180830381865afa158015611ea5573d6000803e3d6000fd5b505050506040513d601f19601f82011682018060405250810190611ec99190613e2d565b600d54909150611ee3906001600160a01b03168885612c29565b600d546040516370a0823160e01b81526000916001600160a01b0316906370a0823190611f149030906004016137bc565b602060405180830381865afa158015611f31573d6000803e3d6000fd5b505050506040513d601f19601f82011682018060405250810190611f559190613e2d565b90506000611f638284614017565b9050808514611f8557604051631c7c26d360e31b815260040160405180910390fd5b896001600160a01b03167f3bc27981aebbb57f9247dc00fde9d6cd91e4b230083fec3238fedbcba1f9ab3d85604051611fc091815260200190565b60405180910390a25050505050505050505050565b6000805b8281101561200757838101548015611ff6576001925050506108cf565b5061200081614092565b9050611fd9565b5060009392505050565b60006001600160a01b03841661203a5760405163eecd6c9b60e01b815260040160405180910390fd5b6001600160a01b0383166120615760405163e219bd3960e01b815260040160405180910390fd5b6000339050612092818686866040518060200160405280600081525060405180602001604052806000815250612c7f565b846001600160a01b0316866001600160a01b031614612125576121258587610f90866040518060600160405280602d8152602001614335602d9139601060008c6001600160a01b03166001600160a01b0316815260200190815260200160002060008d6001600160a01b03166001600160a01b031681526020019081526020016000205461297b9092919063ffffffff16565b50600195945050505050565b6000807f00000000000000000000000000000000000000000000000000000000000000006001600160a01b031663289b3c0d6040518163ffffffff1660e01b8152600401602060405180830381865afa158015612192573d6000803e3d6000fd5b505050506040513d601f19601f820116820180604052508101906121b691906140ab565b604051638369a0f160e01b81529091506001600160a01b03821690638369a0f190612229907f00000000000000000000000000000000000000000000000000000000000000009030907f9f60ae461adf056670e03ae602566409933242392cb06744f5747c9f38b05d0990600401614040565b602060405180830381865afa158015612246573d6000803e3d6000fd5b505050506040513d601f19601f8201168201806040525081019061226a91906140ab565b91505090565b60006001600160ff1b038211156122da5760405162461bcd60e51b815260206004820152602860248201527f53616665436173743a2076616c756520646f65736e27742066697420696e2061604482015267371034b73a191a9b60c11b6064820152608401611019565b5090565b816001600160a01b0316836001600160a01b031660008051602061431583398151915283604051611dfe91815260200190565b60005b818110156111965760008382015561232b81614092565b9050612314565b6040516329965a1d60e01b8152731820a4b7618bde71dce8cdc73aab6c95905fad24906329965a1d9061238d9084907fac7fbab5f54a3ca8194167523c6753bfeb96a445279294b6125b68cce21770549030906004016140c8565b600060405180830381600087803b1580156123a757600080fd5b505af11580156123bb573d6000803e3d6000fd5b50506040516329965a1d60e01b8152731820a4b7618bde71dce8cdc73aab6c95905fad2492506329965a1d915061241a9084907faea199e31a596269b42cdafd93407f14436db6e4cad65417994c2eb37381e05a9030906004016140c8565b600060405180830381600087803b15801561243457600080fd5b505af1158015610a3c573d6000803e3d6000fd5b600d546001600160a01b031661247157604051637bce7b2b60e11b815260040160405180910390fd5b60008061247d85612b6d565b600d546040516370a0823160e01b81529294509092506000916001600160a01b03909116906370a08231906124b69030906004016137bc565b602060405180830381865afa1580156124d3573d6000803e3d6000fd5b505050506040513d601f19601f820116820180604052508101906124f79190613e2d565b600d54909150612512906001600160a01b0316893086612d1e565b600d546040516370a0823160e01b81526000916001600160a01b0316906370a08231906125439030906004016137bc565b602060405180830381865afa158015612560573d6000803e3d6000fd5b505050506040513d601f19601f820116820180604052508101906125849190613e2d565b905060006125928383614017565b90508085146125b457604051631c7c26d360e31b815260040160405180910390fd5b86516125ca908c908b9087901515808c8c6129a7565b886001600160a01b03167f25ca84076773b0455db53621c459ddc84fe40840e4932a62706a032566f399df85604051611fc091815260200190565b6060816001600160401b0381111561261f5761261f613667565b604051908082528060200260200182016040528015612648578160200160208202803683370190505b50905060005b8281101561268d576000818501549050808383815181106126715761267161402a565b60209081029190910101525061268681614092565b905061264e565b5092915050565b6000816001600160a01b0316836001600160a01b0316148061270357506001600160a01b038316600090815260018501602052604090205460ff16801561270357506001600160a01b03808316600090815260038601602090815260408083209387168352929052205460ff16155b80610cf657506001600160a01b03808316600090815260028601602090815260408083209387168352929052205460ff1690509392505050565b6001600160a01b0386166127645760405163eecd6c9b60e01b815260040160405180910390fd5b6001600160a01b03851661278b5760405163e219bd3960e01b815260040160405180910390fd5b612799878787878787612d3f565b6127a7878787878787612c7f565b611c5a87878787878787612e5e565b806001600160a01b0316826001600160a01b03160361282d5760405162461bcd60e51b815260206004820152602d60248201527f4552433737374f70657261746f72733a20617574686f72697a696e672073656c60448201526c331030b99037b832b930ba37b960991b6064820152608401611019565b6001600160a01b038116600090815260018401602052604090205460ff1615612883576001600160a01b03918216600090815260039390930160209081526040808520929093168452529020805460ff19169055565b6001600160a01b0380831660009081526002850160209081526040808320938516835292905220805460ff19166001179055505050565b6001600160a01b0385166128e157604051632e8aac6160e21b815260040160405180910390fd5b82156128f6576128f686866000878686612d3f565b6129008585612fad565b846001600160a01b0316866001600160a01b03167fa78a9be3a7b862d26933ad85fb11d80ef66b8f972d7cbba06621d583943a4098868585604051612947939291906140eb565b60405180910390a36040518481526000906001600160a01b03871690600080516020614315833981519152906020016110d8565b6000818484111561299f5760405162461bcd60e51b815260040161101991906134b8565b505050900390565b6001600160a01b0386166129ce57604051630d24315760e01b815260040160405180910390fd5b6129d886866130bd565b83156129ee576129ee8760008888868689612e5e565b856001600160a01b0316876001600160a01b03167f2fe5be0146f74c5bce36c0b80911af6c7d86ff27e89d5cfa61fc681327954e5d878585604051612a35939291906140eb565b60405180910390a36040518581526001600160a01b038716906000906000805160206143158339815191529060200160405180910390a350505050505050565b336001600160a01b03821603612ae05760405162461bcd60e51b815260206004820152602a60248201527f4552433737374f70657261746f72733a207265766f6b696e672073656c662061604482015269399037b832b930ba37b960b11b6064820152608401611019565b6001600160a01b038116600090815260018401602052604090205460ff1615612b3a576001600160a01b0380831660009081526003850160209081526040808320938516835292905220805460ff19166001179055505050565b6001600160a01b03918216600090815260029390930160209081526040808520929093168452529020805460ff19169055565b600d54600090819081906012600160a01b90910460ff161015612bcc57600d54612ba290600160a01b900460ff166012614116565b612bad90600a614213565b9050612bb98185614222565b9250612bc58184614244565b9150612c23565b600d546012600160a01b90910460ff161115612c1c57600d54612bfb90601290600160a01b900460ff16614116565b612c0690600a614213565b9050612c128185614244565b9250839150612c23565b8391508192505b50915091565b6111968363a9059cbb60e01b8484604051602401612c4892919061425b565b60408051601f198184030181529190526020810180516001600160e01b03166001600160e01b031990931692909217909152613117565b612c928585612c8d86612270565b6131ec565b836001600160a01b0316856001600160a01b0316876001600160a01b03167f06b541ddaa720db2b10a4d0cdac39b8d360425fc073085fac19bc82614677987868686604051612ce3939291906140eb565b60405180910390a4836001600160a01b0316856001600160a01b0316600080516020614315833981519152856040516110d891815260200190565b611231846323b872dd60e01b858585604051602401612c4893929190614040565b60405163555ddc6560e11b8152600090731820a4b7618bde71dce8cdc73aab6c95905fad249063aabbb8ca90612d9b9089907f29ddb589b1fb5fc7cf394961c1adf5f8c6454761adf795e67fe149f658abe8959060040161425b565b602060405180830381865afa158015612db8573d6000803e3d6000fd5b505050506040513d601f19601f82011682018060405250810190612ddc91906140ab565b90506001600160a01b03811615611c5a57604051633ad5cbc160e11b81526001600160a01b038216906375ab978290612e23908a908a908a908a908a908a90600401614274565b600060405180830381600087803b158015612e3d57600080fd5b505af1158015612e51573d6000803e3d6000fd5b5050505050505050505050565b60405163555ddc6560e11b8152600090731820a4b7618bde71dce8cdc73aab6c95905fad249063aabbb8ca90612eba9089907fb281fc8c12954d22544db45de3159a39272895b169a852b314f9cc762e44c53b9060040161425b565b602060405180830381865afa158015612ed7573d6000803e3d6000fd5b505050506040513d601f19601f82011682018060405250810190612efb91906140ab565b90506001600160a01b03811615612f77576040516223de2960e01b81526001600160a01b038216906223de2990612f40908b908b908b908b908b908b90600401614274565b600060405180830381600087803b158015612f5a57600080fd5b505af1158015612f6e573d6000803e3d6000fd5b5050505061132f565b811561132f57612f8f866001600160a01b03166132eb565b1561132f5760405163fe737d0560e01b815260040160405180910390fd5b6000613035837f00000000000000000000000000000000000000000000000000000000000000006001600160a01b031663bbe4fd506040518163ffffffff1660e01b8152600401602060405180830381865afa158015613011573d6000803e3d6000fd5b505050506040513d601f19601f820116820180604052508101906106d79190613e2d565b5050905061304282612270565b8112156130625760405163043b37d160e21b815260040160405180910390fd5b61306b82612270565b6001600160a01b03841660009081526001602052604090205461308e9190613dda565b6001600160a01b0384166000908152600160205260409020556002546130b5908390614017565b600255505050565b6130c681612270565b6001600160a01b0383166000908152600160205260409020546130e99190613db2565b6001600160a01b038316600090815260016020526040902055600254613110908290613ef7565b6002555050565b600061316c826040518060400160405280602081526020017f5361666545524332303a206c6f772d6c6576656c2063616c6c206661696c6564815250856001600160a01b03166132fa9092919063ffffffff16565b905080516000148061318d57508080602001905181019061318d9190613d4d565b6111965760405162461bcd60e51b815260206004820152602a60248201527f5361666545524332303a204552433230206f7065726174696f6e20646964206e6044820152691bdd081cdd58d8d9595960b21b6064820152608401611019565b6000613250847f00000000000000000000000000000000000000000000000000000000000000006001600160a01b031663bbe4fd506040518163ffffffff1660e01b8152600401602060405180830381865afa158015613011573d6000803e3d6000fd5b505090508181121561327557604051632f4cb94160e01b815260040160405180910390fd5b6001600160a01b038416600090815260016020526040902054613299908390613dda565b6001600160a01b0380861660009081526001602052604080822093909355908516815220546132c9908390613db2565b6001600160a01b03909316600090815260016020526040902092909255505050565b6001600160a01b03163b151590565b6060610cf6848460008585600080866001600160a01b0316858760405161332191906142ce565b60006040518083038185875af1925050503d806000811461335e576040519150601f19603f3d011682016040523d82523d6000602084013e613363565b606091505b50915091506133748783838761337f565b979650505050505050565b606083156133ec5782516000036133e557613399856132eb565b6133e55760405162461bcd60e51b815260206004820152601d60248201527f416464726573733a2063616c6c20746f206e6f6e2d636f6e74726163740000006044820152606401611019565b5081610cf6565b610cf683838151156134015781518083602001fd5b8060405162461bcd60e51b815260040161101991906134b8565b6020808252825182820181905260009190848201906040850190845b8181101561345c5783516001600160a01b031683529284019291840191600101613437565b50909695505050505050565b60005b8381101561348357818101518382015260200161346b565b50506000910152565b600081518084526134a4816020860160208601613468565b601f01601f19169290920160200192915050565b6020815260006113bd602083018461348c565b6001600160a01b038116811461090157600080fd5b60008083601f8401126134f257600080fd5b5081356001600160401b0381111561350957600080fd5b6020830191508360208260051b850101111561352457600080fd5b9250929050565b6000806000806060858703121561354157600080fd5b843561354c816134cb565b93506020850135925060408501356001600160401b0381111561356e57600080fd5b61357a878288016134e0565b95989497509550505050565b6000806040838503121561359957600080fd5b82356135a4816134cb565b946020939093013593505050565b6000602082840312156135c457600080fd5b5035919050565b6000806000604084860312156135e057600080fd5b8335925060208401356001600160401b038111156135fd57600080fd5b613609868287016134e0565b9497909650939450505050565b6000806000806080858703121561362c57600080fd5b8435613637816134cb565b93506020850135613647816134cb565b92506040850135613657816134cb565b9396929550929360600135925050565b634e487b7160e01b600052604160045260246000fd5b604051601f8201601f191681016001600160401b03811182821017156136a5576136a5613667565b604052919050565b600082601f8301126136be57600080fd5b81356001600160401b038111156136d7576136d7613667565b6136ea601f8201601f191660200161367d565b8181528460208386010111156136ff57600080fd5b816020850160208301376000918101602001919091529392505050565b801515811461090157600080fd5b600080600080600080600060e0888a03121561374557600080fd5b8735965060208801356001600160401b0381111561376257600080fd5b61376e8a828b016136ad565b965050604088013561377f816134cb565b9450606088013561378f8161371c565b9350608088013561379f816134cb565b9699959850939692959460a0840135945060c09093013592915050565b6001600160a01b0391909116815260200190565b6000806000606084860312156137e557600080fd5b83356137f0816134cb565b92506020840135613800816134cb565b929592945050506040919091013590565b6000806040838503121561382457600080fd5b50508035926020909101359150565b60006020828403121561384557600080fd5b81356113bd816134cb565b60008083601f84011261386257600080fd5b5081356001600160401b0381111561387957600080fd5b60208301915083602082850101111561352457600080fd5b600080600080600080608087890312156138aa57600080fd5b86356138b5816134cb565b9550602087013560ff811681146138cb57600080fd5b945060408701356001600160401b03808211156138e757600080fd5b6138f38a838b01613850565b9096509450606089013591508082111561390c57600080fd5b5061391989828a01613850565b979a9699509497509295939492505050565b6000806000806080858703121561394157600080fd5b843561394c816134cb565b9350602085013561395c816134cb565b93969395505050506040820135916060013590565b6020808252825182820181905260009190848201906040850190845b8181101561345c5783518352928401929184019160010161398d565b600080600080606085870312156139bf57600080fd5b84356139ca816134cb565b93506020850135925060408501356001600160401b038111156139ec57600080fd5b61357a87828801613850565b600080600080600080600060a0888a031215613a1357600080fd5b8735613a1e816134cb565b96506020880135613a2e816134cb565b95506040880135945060608801356001600160401b0380821115613a5157600080fd5b613a5d8b838c01613850565b909650945060808a0135915080821115613a7657600080fd5b50613a838a828b01613850565b989b979a50959850939692959293505050565b600080600060608486031215613aab57600080fd5b8335613ab6816134cb565b95602085013595506040909401359392505050565b600080600060608486031215613ae057600080fd5b8335613aeb816134cb565b92506020840135915060408401356001600160401b03811115613b0d57600080fd5b613b19868287016136ad565b9150509250925092565b60008060008060808587031215613b3957600080fd5b8435613b44816134cb565b93506020850135613b54816134cb565b92506040850135915060608501356001600160401b03811115613b7657600080fd5b613b82878288016136ad565b91505092959194509250565b60008060408385031215613ba157600080fd5b8235613bac816134cb565b91506020830135613bbc816134cb565b809150509250929050565b60008060008060008060808789031215613be057600080fd5b8635613beb816134cb565b95506020870135945060408701356001600160401b03808211156138e757600080fd5b600080600060408486031215613c2357600080fd5b8335925060208401356001600160401b03811115613c4057600080fd5b61360986828701613850565b600181811c90821680613c6057607f821691505b602082108103613c8057634e487b7160e01b600052602260045260246000fd5b50919050565b6080808252600e908201526d41677265656d656e74537461746560901b60a08201526001600160a01b039384166020820152919092166040820152606081019190915260c00190565b6060808252600d908201526c41677265656d656e744461746160981b60808201526001600160a01b03929092166020830152604082015260a00190565b838152604060208201819052810182905260006001600160fb1b03831115613d3357600080fd5b8260051b8085606085013791909101606001949350505050565b600060208284031215613d5f57600080fd5b81516113bd8161371c565b634e487b7160e01b600052601160045260246000fd5b6000600160ff1b8201613d9557613d95613d6a565b5060000390565b634e487b7160e01b600052600160045260246000fd5b8082018281126000831280158216821582161715613dd257613dd2613d6a565b505092915050565b818103600083128015838313168383128216171561268d5761268d613d6a565b85815260018060a01b038516602082015283604082015282606082015260a06080820152600061337460a083018461348c565b600060208284031215613e3f57600080fd5b5051919050565b60006020808385031215613e5957600080fd5b82516001600160401b0380821115613e7057600080fd5b818501915085601f830112613e8457600080fd5b815181811115613e9657613e96613667565b8060051b9150613ea784830161367d565b8181529183018401918481019088841115613ec157600080fd5b938501935b83851015613eeb5784519250613edb836134cb565b8282529385019390850190613ec6565b98975050505050505050565b808201808211156108cf576108cf613d6a565b601f82111561119657600081815260208120601f850160051c81016020861015613f315750805b601f850160051c820191505b81811015613f5057828155600101613f3d565b505050505050565b6001600160401b03831115613f6f57613f6f613667565b613f8383613f7d8354613c4c565b83613f0a565b6000601f841160018114613fb75760008515613f9f5750838201355b600019600387901b1c1916600186901b178355610a3c565b600083815260209020601f19861690835b82811015613fe85786850135825560209485019460019092019101613fc8565b50868210156140055760001960f88860031b161c19848701351681555b505060018560011b0183555050505050565b818103818111156108cf576108cf613d6a565b634e487b7160e01b600052603260045260246000fd5b6001600160a01b039384168152919092166020820152604081019190915260600190565b60008060006060848603121561407957600080fd5b8351925060208401519150604084015190509250925092565b6000600182016140a4576140a4613d6a565b5060010190565b6000602082840312156140bd57600080fd5b81516113bd816134cb565b6001600160a01b0393841681526020810192909252909116604082015260600190565b838152606060208201526000614104606083018561348c565b82810360408401526111d6818561348c565b60ff82811682821603908111156108cf576108cf613d6a565b600181815b8085111561416a57816000190482111561415057614150613d6a565b8085161561415d57918102915b93841c9390800290614134565b509250929050565b600082614181575060016108cf565b8161418e575060006108cf565b81600181146141a457600281146141ae576141ca565b60019150506108cf565b60ff8411156141bf576141bf613d6a565b50506001821b6108cf565b5060208310610133831016604e8410600b84101617156141ed575081810a6108cf565b6141f7838361412f565b806000190482111561420b5761420b613d6a565b029392505050565b60006113bd60ff841683614172565b60008261423f57634e487b7160e01b600052601260045260246000fd5b500490565b80820281158282048414176108cf576108cf613d6a565b6001600160a01b03929092168252602082015260400190565b6001600160a01b0387811682528681166020830152851660408201526060810184905260c0608082018190526000906142af9083018561348c565b82810360a08401526142c1818561348c565b9998505050505050505050565b600082516142e0818460208701613468565b919091019291505056fe5375706572546f6b656e3a2064656372656173656420616c6c6f77616e63652062656c6f77207a65726fddf252ad1be2c89b69c2b068fc378daa952ba7f163c4a11628f55a4df523b3ef5375706572546f6b656e3a207472616e7366657220616d6f756e74206578636565647320616c6c6f77616e6365a2646970667358221220131d3ec6b01bde0304add412e989ee515c0fc65d4bb1015f898ba4d4ef27681864736f6c63430008130033",
    "linkReferences": {}
  },
  "methodIdentifiers": {
    "CONSTANT_INFLOW_NFT()": "4c5c0c85",
    "CONSTANT_OUTFLOW_NFT()": "ef43d2c6",
    "allowance(address,address)": "dd62ed3e",
    "approve(address,uint256)": "095ea7b3",
    "authorizeOperator(address)": "959b8c3f",
    "balanceOf(address)": "70a08231",
    "burn(uint256,bytes)": "fe9d9303",
    "createAgreement(bytes32,bytes32[])": "12a6a3f8",
    "decimals()": "313ce567",
    "decreaseAllowance(address,uint256)": "a457c2d7",
    "defaultOperators()": "06e48538",
    "downgrade(uint256)": "11bcc81e",
    "downgradeTo(address,uint256)": "83ba2525",
    "getAccountActiveAgreements(address)": "386fa221",
    "getAgreementData(address,bytes32,uint256)": "6c2d9f2f",
    "getAgreementStateSlot(address,address,uint256,uint256)": "4b61cc33",
    "getHost()": "20bc4425",
    "getUnderlyingToken()": "ee719bc8",
    "granularity()": "556f0dc7",
    "increaseAllowance(address,uint256)": "39509351",
    "initialize(address,uint8,string,string)": "42fe0980",
    "isAccountCritical(address,uint256)": "d9d078d6",
    "isAccountCriticalNow(address)": "79359f6f",
    "isAccountSolvent(address,uint256)": "b84cdd4a",
    "isAccountSolventNow(address)": "bb0d196e",
    "isOperatorFor(address,address)": "d95b6371",
    "makeLiquidationPayoutsV2(bytes32,bytes,address,bool,address,uint256,int256)": "1863e809",
    "name()": "06fdde03",
    "operationApprove(address,address,uint256)": "62aa5287",
    "operationDecreaseAllowance(address,address,uint256)": "c780fd82",
    "operationDowngrade(address,uint256)": "245887fc",
    "operationIncreaseAllowance(address,address,uint256)": "4b2763b3",
    "operationSend(address,address,uint256,bytes)": "ca0c1e7f",
    "operationTransferFrom(address,address,address,uint256)": "16d055d6",
    "operationUpgrade(address,uint256)": "ca789464",
    "operatorBurn(address,uint256,bytes,bytes)": "fc673c4f",
    "operatorSend(address,address,uint256,bytes,bytes)": "62ad1b83",
    "realtimeBalanceOf(address,uint256)": "eb3537cc",
    "realtimeBalanceOfNow(address)": "2ec8eec7",
    "revokeOperator(address)": "fad8b32a",
    "selfApproveFor(address,address,uint256)": "66a12fb6",
    "selfBurn(address,uint256,bytes)": "9d876741",
    "selfMint(address,uint256,bytes)": "c68d4283",
    "selfTransferFrom(address,address,address,uint256)": "41b706be",
    "send(address,uint256,bytes)": "9bd9bbc6",
    "settleBalance(address,int256)": "cf97256d",
    "symbol()": "95d89b41",
    "terminateAgreement(bytes32,uint256)": "27048397",
    "totalSupply()": "18160ddd",
    "transfer(address,uint256)": "a9059cbb",
    "transferAll(address)": "a3a7e7f3",
    "transferFrom(address,address,uint256)": "23b872dd",
    "updateAgreementData(bytes32,bytes32[])": "a1b2bf8b",
    "updateAgreementStateSlot(address,uint256,bytes32[])": "090c415e",
    "upgrade(uint256)": "45977d03",
    "upgradeTo(address,uint256,bytes)": "5b9d09cc"
  },
  "id": 116
}