{
  "abi": [
    {
      "inputs": [
        {
          "internalType": "contract ISuperfluid",
          "name": "host",
          "type": "address"
        },
        {
          "internalType": "contract IConstantOutflowNFT",
          "name": "constantOutflowNFT",
          "type": "address"
        },
        {
          "internalType": "contract IConstantInflowNFT",
          "name": "constantInflowNFT",
          "type": "address"
        }
      ],
      "stateMutability": "nonpayable",
      "type": "constructor"
    },
    {
      "inputs": [],
      "name": "SF_TOKEN_AGREEMENT_ALREADY_EXISTS",
      "type": "error"
    },
    {
      "inputs": [],
      "name": "SF_TOKEN_AGREEMENT_DOES_NOT_EXIST",
      "type": "error"
    },
    {
      "inputs": [],
      "name": "SF_TOKEN_BURN_INSUFFICIENT_BALANCE",
      "type": "error"
    },
    {
      "inputs": [],
      "name": "SF_TOKEN_MOVE_INSUFFICIENT_BALANCE",
      "type": "error"
    },
    {
      "inputs": [],
      "name": "SF_TOKEN_ONLY_HOST",
      "type": "error"
    },
    {
      "inputs": [],
      "name": "SF_TOKEN_ONLY_LISTED_AGREEMENT",
      "type": "error"
    },
    {
      "inputs": [],
      "name": "SUPER_TOKEN_APPROVE_FROM_ZERO_ADDRESS",
      "type": "error"
    },
    {
      "inputs": [],
      "name": "SUPER_TOKEN_APPROVE_TO_ZERO_ADDRESS",
      "type": "error"
    },
    {
      "inputs": [],
      "name": "SUPER_TOKEN_BURN_FROM_ZERO_ADDRESS",
      "type": "error"
    },
    {
      "inputs": [],
      "name": "SUPER_TOKEN_CALLER_IS_NOT_OPERATOR_FOR_HOLDER",
      "type": "error"
    },
    {
      "inputs": [],
      "name": "SUPER_TOKEN_INFLATIONARY_DEFLATIONARY_NOT_SUPPORTED",
      "type": "error"
    },
    {
      "inputs": [],
      "name": "SUPER_TOKEN_MINT_TO_ZERO_ADDRESS",
      "type": "error"
    },
    {
      "inputs": [],
      "name": "SUPER_TOKEN_NFT_PROXY_ADDRESS_CHANGED",
      "type": "error"
    },
    {
      "inputs": [],
      "name": "SUPER_TOKEN_NOT_ERC777_TOKENS_RECIPIENT",
      "type": "error"
    },
    {
      "inputs": [],
      "name": "SUPER_TOKEN_NO_UNDERLYING_TOKEN",
      "type": "error"
    },
    {
      "inputs": [],
      "name": "SUPER_TOKEN_ONLY_GOV_OWNER",
      "type": "error"
    },
    {
      "inputs": [],
      "name": "SUPER_TOKEN_ONLY_HOST",
      "type": "error"
    },
    {
      "inputs": [],
      "name": "SUPER_TOKEN_ONLY_SELF",
      "type": "error"
    },
    {
      "inputs": [],
      "name": "SUPER_TOKEN_TRANSFER_FROM_ZERO_ADDRESS",
      "type": "error"
    },
    {
      "inputs": [],
      "name": "SUPER_TOKEN_TRANSFER_TO_ZERO_ADDRESS",
      "type": "error"
    },
    {
      "anonymous": false,
      "inputs": [
        {
          "indexed": true,
          "internalType": "address",
          "name": "agreementClass",
          "type": "address"
        },
        {
          "indexed": false,
          "internalType": "bytes32",
          "name": "id",
          "type": "bytes32"
        },
        {
          "indexed": false,
          "internalType": "bytes32[]",
          "name": "data",
          "type": "bytes32[]"
        }
      ],
      "name": "AgreementCreated",
      "type": "event"
    },
    {
      "anonymous": false,
      "inputs": [
        {
          "indexed": true,
          "internalType": "address",
          "name": "agreementClass",
          "type": "address"
        },
        {
          "indexed": false,
          "internalType": "bytes32",
          "name": "id",
          "type": "bytes32"
        },
        {
          "indexed": true,
          "internalType": "address",
          "name": "penaltyAccount",
          "type": "address"
        },
        {
          "indexed": true,
          "internalType": "address",
          "name": "rewardAccount",
          "type": "address"
        },
        {
          "indexed": false,
          "internalType": "uint256",
          "name": "rewardAmount",
          "type": "uint256"
        }
      ],
      "name": "AgreementLiquidated",
      "type": "event"
    },
    {
      "anonymous": false,
      "inputs": [
        {
          "indexed": false,
          "internalType": "address",
          "name": "liquidatorAccount",
          "type": "address"
        },
        {
          "indexed": true,
          "internalType": "address",
          "name": "agreementClass",
          "type": "address"
        },
        {
          "indexed": false,
          "internalType": "bytes32",
          "name": "id",
          "type": "bytes32"
        },
        {
          "indexed": true,
          "internalType": "address",
          "name": "penaltyAccount",
          "type": "address"
        },
        {
          "indexed": true,
          "internalType": "address",
          "name": "bondAccount",
          "type": "address"
        },
        {
          "indexed": false,
          "internalType": "uint256",
          "name": "rewardAmount",
          "type": "uint256"
        },
        {
          "indexed": false,
          "internalType": "uint256",
          "name": "bailoutAmount",
          "type": "uint256"
        }
      ],
      "name": "AgreementLiquidatedBy",
      "type": "event"
    },
    {
      "anonymous": false,
      "inputs": [
        {
          "indexed": true,
          "internalType": "address",
          "name": "agreementClass",
          "type": "address"
        },
        {
          "indexed": false,
          "internalType": "bytes32",
          "name": "id",
          "type": "bytes32"
        },
        {
          "indexed": true,
          "internalType": "address",
          "name": "liquidatorAccount",
          "type": "address"
        },
        {
          "indexed": true,
          "internalType": "address",
          "name": "targetAccount",
          "type": "address"
        },
        {
          "indexed": false,
          "internalType": "address",
          "name": "rewardAmountReceiver",
          "type": "address"
        },
        {
          "indexed": false,
          "internalType": "uint256",
          "name": "rewardAmount",
          "type": "uint256"
        },
        {
          "indexed": false,
          "internalType": "int256",
          "name": "targetAccountBalanceDelta",
          "type": "int256"
        },
        {
          "indexed": false,
          "internalType": "bytes",
          "name": "liquidationTypeData",
          "type": "bytes"
        }
      ],
      "name": "AgreementLiquidatedV2",
      "type": "event"
    },
    {
      "anonymous": false,
      "inputs": [
        {
          "indexed": true,
          "internalType": "address",
          "name": "agreementClass",
          "type": "address"
        },
        {
          "indexed": true,
          "internalType": "address",
          "name": "account",
          "type": "address"
        },
        {
          "indexed": false,
          "internalType": "uint256",
          "name": "slotId",
          "type": "uint256"
        }
      ],
      "name": "AgreementStateUpdated",
      "type": "event"
    },
    {
      "anonymous": false,
      "inputs": [
        {
          "indexed": true,
          "internalType": "address",
          "name": "agreementClass",
          "type": "address"
        },
        {
          "indexed": false,
          "internalType": "bytes32",
          "name": "id",
          "type": "bytes32"
        }
      ],
      "name": "AgreementTerminated",
      "type": "event"
    },
    {
      "anonymous": false,
      "inputs": [
        {
          "indexed": true,
          "internalType": "address",
          "name": "agreementClass",
          "type": "address"
        },
        {
          "indexed": false,
          "internalType": "bytes32",
          "name": "id",
          "type": "bytes32"
        },
        {
          "indexed": false,
          "internalType": "bytes32[]",
          "name": "data",
          "type": "bytes32[]"
        }
      ],
      "name": "AgreementUpdated",
      "type": "event"
    },
    {
      "anonymous": false,
      "inputs": [
        {
          "indexed": true,
          "internalType": "address",
          "name": "owner",
          "type": "address"
        },
        {
          "indexed": true,
          "internalType": "address",
          "name": "spender",
          "type": "address"
        },
        {
          "indexed": false,
          "internalType": "uint256",
          "name": "value",
          "type": "uint256"
        }
      ],
      "name": "Approval",
      "type": "event"
    },
    {
      "anonymous": false,
      "inputs": [
        {
          "indexed": true,
          "internalType": "address",
          "name": "operator",
          "type": "address"
        },
        {
          "indexed": true,
          "internalType": "address",
          "name": "tokenHolder",
          "type": "address"
        }
      ],
      "name": "AuthorizedOperator",
      "type": "event"
    },
    {
      "anonymous": false,
      "inputs": [
        {
          "indexed": true,
          "internalType": "address",
          "name": "bailoutAccount",
          "type": "address"
        },
        {
          "indexed": false,
          "internalType": "uint256",
          "name": "bailoutAmount",
          "type": "uint256"
        }
      ],
      "name": "Bailout",
      "type": "event"
    },
    {
      "anonymous": false,
      "inputs": [
        {
          "indexed": true,
          "internalType": "address",
          "name": "operator",
          "type": "address"
        },
        {
          "indexed": true,
          "internalType": "address",
          "name": "from",
          "type": "address"
        },
        {
          "indexed": false,
          "internalType": "uint256",
          "name": "amount",
          "type": "uint256"
        },
        {
          "indexed": false,
          "internalType": "bytes",
          "name": "data",
          "type": "bytes"
        },
        {
          "indexed": false,
          "internalType": "bytes",
          "name": "operatorData",
          "type": "bytes"
        }
      ],
      "name": "Burned",
      "type": "event"
    },
    {
      "anonymous": false,
      "inputs": [
        {
          "indexed": false,
          "internalType": "bytes32",
          "name": "uuid",
          "type": "bytes32"
        },
        {
          "indexed": false,
          "internalType": "address",
          "name": "codeAddress",
          "type": "address"
        }
      ],
      "name": "CodeUpdated",
      "type": "event"
    },
    {
      "anonymous": false,
      "inputs": [
        {
          "indexed": true,
          "internalType": "contract IConstantInflowNFT",
          "name": "constantInflowNFT",
          "type": "address"
        }
      ],
      "name": "ConstantInflowNFTCreated",
      "type": "event"
    },
    {
      "anonymous": false,
      "inputs": [
        {
          "indexed": true,
          "internalType": "contract IConstantOutflowNFT",
          "name": "constantOutflowNFT",
          "type": "address"
        }
      ],
      "name": "ConstantOutflowNFTCreated",
      "type": "event"
    },
    {
      "anonymous": false,
      "inputs": [
        {
          "indexed": false,
          "internalType": "uint8",
          "name": "version",
          "type": "uint8"
        }
      ],
      "name": "Initialized",
      "type": "event"
    },
    {
      "anonymous": false,
      "inputs": [
        {
          "indexed": true,
          "internalType": "address",
          "name": "operator",
          "type": "address"
        },
        {
          "indexed": true,
          "internalType": "address",
          "name": "to",
          "type": "address"
        },
        {
          "indexed": false,
          "internalType": "uint256",
          "name": "amount",
          "type": "uint256"
        },
        {
          "indexed": false,
          "internalType": "bytes",
          "name": "data",
          "type": "bytes"
        },
        {
          "indexed": false,
          "internalType": "bytes",
          "name": "operatorData",
          "type": "bytes"
        }
      ],
      "name": "Minted",
      "type": "event"
    },
    {
      "anonymous": false,
      "inputs": [
        {
          "indexed": true,
          "internalType": "address",
          "name": "operator",
          "type": "address"
        },
        {
          "indexed": true,
          "internalType": "address",
          "name": "tokenHolder",
          "type": "address"
        }
      ],
      "name": "RevokedOperator",
      "type": "event"
    },
    {
      "anonymous": false,
      "inputs": [
        {
          "indexed": true,
          "internalType": "address",
          "name": "operator",
          "type": "address"
        },
        {
          "indexed": true,
          "internalType": "address",
          "name": "from",
          "type": "address"
        },
        {
          "indexed": true,
          "internalType": "address",
          "name": "to",
          "type": "address"
        },
        {
          "indexed": false,
          "internalType": "uint256",
          "name": "amount",
          "type": "uint256"
        },
        {
          "indexed": false,
          "internalType": "bytes",
          "name": "data",
          "type": "bytes"
        },
        {
          "indexed": false,
          "internalType": "bytes",
          "name": "operatorData",
          "type": "bytes"
        }
      ],
      "name": "Sent",
      "type": "event"
    },
    {
      "anonymous": false,
      "inputs": [
        {
          "indexed": true,
          "internalType": "address",
          "name": "account",
          "type": "address"
        },
        {
          "indexed": false,
          "internalType": "uint256",
          "name": "amount",
          "type": "uint256"
        }
      ],
      "name": "TokenDowngraded",
      "type": "event"
    },
    {
      "anonymous": false,
      "inputs": [
        {
          "indexed": true,
          "internalType": "address",
          "name": "account",
          "type": "address"
        },
        {
          "indexed": false,
          "internalType": "uint256",
          "name": "amount",
          "type": "uint256"
        }
      ],
      "name": "TokenUpgraded",
      "type": "event"
    },
    {
      "anonymous": false,
      "inputs": [
        {
          "indexed": true,
          "internalType": "address",
          "name": "from",
          "type": "address"
        },
        {
          "indexed": true,
          "internalType": "address",
          "name": "to",
          "type": "address"
        },
        {
          "indexed": false,
          "internalType": "uint256",
          "name": "value",
          "type": "uint256"
        }
      ],
      "name": "Transfer",
      "type": "event"
    },
    {
      "inputs": [],
      "name": "CONSTANT_INFLOW_NFT",
      "outputs": [
        {
          "internalType": "contract IConstantInflowNFT",
          "name": "",
          "type": "address"
        }
      ],
      "stateMutability": "view",
      "type": "function"
    },
    {
      "inputs": [],
      "name": "CONSTANT_OUTFLOW_NFT",
      "outputs": [
        {
          "internalType": "contract IConstantOutflowNFT",
          "name": "",
          "type": "address"
        }
      ],
      "stateMutability": "view",
      "type": "function"
    },
    {
      "inputs": [
        {
          "internalType": "address",
          "name": "account",
          "type": "address"
        },
        {
          "internalType": "address",
          "name": "spender",
          "type": "address"
        }
      ],
      "name": "allowance",
      "outputs": [
        {
          "internalType": "uint256",
          "name": "",
          "type": "uint256"
        }
      ],
      "stateMutability": "view",
      "type": "function"
    },
    {
      "inputs": [
        {
          "internalType": "address",
          "name": "spender",
          "type": "address"
        },
        {
          "internalType": "uint256",
          "name": "amount",
          "type": "uint256"
        }
      ],
      "name": "approve",
      "outputs": [
        {
          "internalType": "bool",
          "name": "",
          "type": "bool"
        }
      ],
      "stateMutability": "nonpayable",
      "type": "function"
    },
    {
      "inputs": [
        {
          "internalType": "address",
          "name": "operator",
          "type": "address"
        }
      ],
      "name": "authorizeOperator",
      "outputs": [],
      "stateMutability": "nonpayable",
      "type": "function"
    },
    {
      "inputs": [
        {
          "internalType": "address",
          "name": "account",
          "type": "address"
        }
      ],
      "name": "balanceOf",
      "outputs": [
        {
          "internalType": "uint256",
          "name": "balance",
          "type": "uint256"
        }
      ],
      "stateMutability": "view",
      "type": "function"
    },
    {
      "inputs": [
        {
          "internalType": "uint256",
          "name": "amount",
          "type": "uint256"
        },
        {
          "internalType": "bytes",
          "name": "userData",
          "type": "bytes"
        }
      ],
      "name": "burn",
      "outputs": [],
      "stateMutability": "nonpayable",
      "type": "function"
    },
    {
      "inputs": [],
      "name": "castrate",
      "outputs": [],
      "stateMutability": "nonpayable",
      "type": "function"
    },
    {
      "inputs": [
        {
          "internalType": "bytes32",
          "name": "id",
          "type": "bytes32"
        },
        {
          "internalType": "bytes32[]",
          "name": "data",
          "type": "bytes32[]"
        }
      ],
      "name": "createAgreement",
      "outputs": [],
      "stateMutability": "nonpayable",
      "type": "function"
    },
    {
      "inputs": [],
      "name": "decimals",
      "outputs": [
        {
          "internalType": "uint8",
          "name": "",
          "type": "uint8"
        }
      ],
      "stateMutability": "pure",
      "type": "function"
    },
    {
      "inputs": [
        {
          "internalType": "address",
          "name": "spender",
          "type": "address"
        },
        {
          "internalType": "uint256",
          "name": "subtractedValue",
          "type": "uint256"
        }
      ],
      "name": "decreaseAllowance",
      "outputs": [
        {
          "internalType": "bool",
          "name": "",
          "type": "bool"
        }
      ],
      "stateMutability": "nonpayable",
      "type": "function"
    },
    {
      "inputs": [],
      "name": "defaultOperators",
      "outputs": [
        {
          "internalType": "address[]",
          "name": "",
          "type": "address[]"
        }
      ],
      "stateMutability": "view",
      "type": "function"
    },
    {
      "inputs": [
        {
          "internalType": "uint256",
          "name": "amount",
          "type": "uint256"
        }
      ],
      "name": "downgrade",
      "outputs": [],
      "stateMutability": "nonpayable",
      "type": "function"
    },
    {
      "inputs": [
        {
          "internalType": "address",
          "name": "to",
          "type": "address"
        },
        {
          "internalType": "uint256",
          "name": "amount",
          "type": "uint256"
        }
      ],
      "name": "downgradeTo",
      "outputs": [],
      "stateMutability": "nonpayable",
      "type": "function"
    },
    {
      "inputs": [
        {
          "internalType": "address",
          "name": "account",
          "type": "address"
        }
      ],
      "name": "getAccountActiveAgreements",
      "outputs": [
        {
          "internalType": "contract ISuperAgreement[]",
          "name": "",
          "type": "address[]"
        }
      ],
      "stateMutability": "view",
      "type": "function"
    },
    {
      "inputs": [
        {
          "internalType": "address",
          "name": "agreementClass",
          "type": "address"
        },
        {
          "internalType": "bytes32",
          "name": "id",
          "type": "bytes32"
        },
        {
          "internalType": "uint256",
          "name": "dataLength",
          "type": "uint256"
        }
      ],
      "name": "getAgreementData",
      "outputs": [
        {
          "internalType": "bytes32[]",
          "name": "data",
          "type": "bytes32[]"
        }
      ],
      "stateMutability": "view",
      "type": "function"
    },
    {
      "inputs": [
        {
          "internalType": "address",
          "name": "agreementClass",
          "type": "address"
        },
        {
          "internalType": "address",
          "name": "account",
          "type": "address"
        },
        {
          "internalType": "uint256",
          "name": "slotId",
          "type": "uint256"
        },
        {
          "internalType": "uint256",
          "name": "dataLength",
          "type": "uint256"
        }
      ],
      "name": "getAgreementStateSlot",
      "outputs": [
        {
          "internalType": "bytes32[]",
          "name": "slotData",
          "type": "bytes32[]"
        }
      ],
      "stateMutability": "view",
      "type": "function"
    },
    {
      "inputs": [],
      "name": "getCodeAddress",
      "outputs": [
        {
          "internalType": "address",
          "name": "codeAddress",
          "type": "address"
        }
      ],
      "stateMutability": "view",
      "type": "function"
    },
    {
      "inputs": [],
      "name": "getHost",
      "outputs": [
        {
          "internalType": "address",
          "name": "host",
          "type": "address"
        }
      ],
      "stateMutability": "view",
      "type": "function"
    },
    {
      "inputs": [],
      "name": "getUnderlyingToken",
      "outputs": [
        {
          "internalType": "address",
          "name": "",
          "type": "address"
        }
      ],
      "stateMutability": "view",
      "type": "function"
    },
    {
      "inputs": [],
      "name": "granularity",
      "outputs": [
        {
          "internalType": "uint256",
          "name": "",
          "type": "uint256"
        }
      ],
      "stateMutability": "pure",
      "type": "function"
    },
    {
      "inputs": [
        {
          "internalType": "address",
          "name": "spender",
          "type": "address"
        },
        {
          "internalType": "uint256",
          "name": "addedValue",
          "type": "uint256"
        }
      ],
      "name": "increaseAllowance",
      "outputs": [
        {
          "internalType": "bool",
          "name": "",
          "type": "bool"
        }
      ],
      "stateMutability": "nonpayable",
      "type": "function"
    },
    {
      "inputs": [
        {
          "internalType": "contract IERC20",
          "name": "underlyingToken",
          "type": "address"
        },
        {
          "internalType": "uint8",
          "name": "underlyingDecimals",
          "type": "uint8"
        },
        {
          "internalType": "string",
          "name": "n",
          "type": "string"
        },
        {
          "internalType": "string",
          "name": "s",
          "type": "string"
        }
      ],
      "name": "initialize",
      "outputs": [],
      "stateMutability": "nonpayable",
      "type": "function"
    },
    {
      "inputs": [
        {
          "internalType": "address",
          "name": "account",
          "type": "address"
        },
        {
          "internalType": "uint256",
          "name": "timestamp",
          "type": "uint256"
        }
      ],
      "name": "isAccountCritical",
      "outputs": [
        {
          "internalType": "bool",
          "name": "isCritical",
          "type": "bool"
        }
      ],
      "stateMutability": "view",
      "type": "function"
    },
    {
      "inputs": [
        {
          "internalType": "address",
          "name": "account",
          "type": "address"
        }
      ],
      "name": "isAccountCriticalNow",
      "outputs": [
        {
          "internalType": "bool",
          "name": "isCritical",
          "type": "bool"
        }
      ],
      "stateMutability": "view",
      "type": "function"
    },
    {
      "inputs": [
        {
          "internalType": "address",
          "name": "account",
          "type": "address"
        },
        {
          "internalType": "uint256",
          "name": "timestamp",
          "type": "uint256"
        }
      ],
      "name": "isAccountSolvent",
      "outputs": [
        {
          "internalType": "bool",
          "name": "isSolvent",
          "type": "bool"
        }
      ],
      "stateMutability": "view",
      "type": "function"
    },
    {
      "inputs": [
        {
          "internalType": "address",
          "name": "account",
          "type": "address"
        }
      ],
      "name": "isAccountSolventNow",
      "outputs": [
        {
          "internalType": "bool",
          "name": "isSolvent",
          "type": "bool"
        }
      ],
      "stateMutability": "view",
      "type": "function"
    },
    {
      "inputs": [
        {
          "internalType": "address",
          "name": "operator",
          "type": "address"
        },
        {
          "internalType": "address",
          "name": "tokenHolder",
          "type": "address"
        }
      ],
      "name": "isOperatorFor",
      "outputs": [
        {
          "internalType": "bool",
          "name": "",
          "type": "bool"
        }
      ],
      "stateMutability": "view",
      "type": "function"
    },
    {
      "inputs": [
        {
          "internalType": "bytes32",
          "name": "id",
          "type": "bytes32"
        },
        {
          "internalType": "bytes",
          "name": "liquidationTypeData",
          "type": "bytes"
        },
        {
          "internalType": "address",
          "name": "liquidatorAccount",
          "type": "address"
        },
        {
          "internalType": "bool",
          "name": "useDefaultRewardAccount",
          "type": "bool"
        },
        {
          "internalType": "address",
          "name": "targetAccount",
          "type": "address"
        },
        {
          "internalType": "uint256",
          "name": "rewardAmount",
          "type": "uint256"
        },
        {
          "internalType": "int256",
          "name": "targetAccountBalanceDelta",
          "type": "int256"
        }
      ],
      "name": "makeLiquidationPayoutsV2",
      "outputs": [],
      "stateMutability": "nonpayable",
      "type": "function"
    },
    {
      "inputs": [],
      "name": "name",
      "outputs": [
        {
          "internalType": "string",
          "name": "",
          "type": "string"
        }
      ],
      "stateMutability": "view",
      "type": "function"
    },
    {
      "inputs": [
        {
          "internalType": "address",
          "name": "account",
          "type": "address"
        },
        {
          "internalType": "address",
          "name": "spender",
          "type": "address"
        },
        {
          "internalType": "uint256",
          "name": "amount",
          "type": "uint256"
        }
      ],
      "name": "operationApprove",
      "outputs": [],
      "stateMutability": "nonpayable",
      "type": "function"
    },
    {
      "inputs": [
        {
          "internalType": "address",
          "name": "account",
          "type": "address"
        },
        {
          "internalType": "address",
          "name": "spender",
          "type": "address"
        },
        {
          "internalType": "uint256",
          "name": "subtractedValue",
          "type": "uint256"
        }
      ],
      "name": "operationDecreaseAllowance",
      "outputs": [],
      "stateMutability": "nonpayable",
      "type": "function"
    },
    {
      "inputs": [
        {
          "internalType": "address",
          "name": "account",
          "type": "address"
        },
        {
          "internalType": "uint256",
          "name": "amount",
          "type": "uint256"
        }
      ],
      "name": "operationDowngrade",
      "outputs": [],
      "stateMutability": "nonpayable",
      "type": "function"
    },
    {
      "inputs": [
        {
          "internalType": "address",
          "name": "account",
          "type": "address"
        },
        {
          "internalType": "address",
          "name": "spender",
          "type": "address"
        },
        {
          "internalType": "uint256",
          "name": "addedValue",
          "type": "uint256"
        }
      ],
      "name": "operationIncreaseAllowance",
      "outputs": [],
      "stateMutability": "nonpayable",
      "type": "function"
    },
    {
      "inputs": [
        {
          "internalType": "address",
          "name": "spender",
          "type": "address"
        },
        {
          "internalType": "address",
          "name": "recipient",
          "type": "address"
        },
        {
          "internalType": "uint256",
          "name": "amount",
          "type": "uint256"
        },
        {
          "internalType": "bytes",
          "name": "userData",
          "type": "bytes"
        }
      ],
      "name": "operationSend",
      "outputs": [],
      "stateMutability": "nonpayable",
      "type": "function"
    },
    {
      "inputs": [
        {
          "internalType": "address",
          "name": "account",
          "type": "address"
        },
        {
          "internalType": "address",
          "name": "spender",
          "type": "address"
        },
        {
          "internalType": "address",
          "name": "recipient",
          "type": "address"
        },
        {
          "internalType": "uint256",
          "name": "amount",
          "type": "uint256"
        }
      ],
      "name": "operationTransferFrom",
      "outputs": [],
      "stateMutability": "nonpayable",
      "type": "function"
    },
    {
      "inputs": [
        {
          "internalType": "address",
          "name": "account",
          "type": "address"
        },
        {
          "internalType": "uint256",
          "name": "amount",
          "type": "uint256"
        }
      ],
      "name": "operationUpgrade",
      "outputs": [],
      "stateMutability": "nonpayable",
      "type": "function"
    },
    {
      "inputs": [
        {
          "internalType": "address",
          "name": "account",
          "type": "address"
        },
        {
          "internalType": "uint256",
          "name": "amount",
          "type": "uint256"
        },
        {
          "internalType": "bytes",
          "name": "userData",
          "type": "bytes"
        },
        {
          "internalType": "bytes",
          "name": "operatorData",
          "type": "bytes"
        }
      ],
      "name": "operatorBurn",
      "outputs": [],
      "stateMutability": "nonpayable",
      "type": "function"
    },
    {
      "inputs": [
        {
          "internalType": "address",
          "name": "sender",
          "type": "address"
        },
        {
          "internalType": "address",
          "name": "recipient",
          "type": "address"
        },
        {
          "internalType": "uint256",
          "name": "amount",
          "type": "uint256"
        },
        {
          "internalType": "bytes",
          "name": "userData",
          "type": "bytes"
        },
        {
          "internalType": "bytes",
          "name": "operatorData",
          "type": "bytes"
        }
      ],
      "name": "operatorSend",
      "outputs": [],
      "stateMutability": "nonpayable",
      "type": "function"
    },
    {
      "inputs": [],
      "name": "proxiableUUID",
      "outputs": [
        {
          "internalType": "bytes32",
          "name": "",
          "type": "bytes32"
        }
      ],
      "stateMutability": "pure",
      "type": "function"
    },
    {
      "inputs": [
        {
          "internalType": "address",
          "name": "account",
          "type": "address"
        },
        {
          "internalType": "uint256",
          "name": "timestamp",
          "type": "uint256"
        }
      ],
      "name": "realtimeBalanceOf",
      "outputs": [
        {
          "internalType": "int256",
          "name": "availableBalance",
          "type": "int256"
        },
        {
          "internalType": "uint256",
          "name": "deposit",
          "type": "uint256"
        },
        {
          "internalType": "uint256",
          "name": "owedDeposit",
          "type": "uint256"
        }
      ],
      "stateMutability": "view",
      "type": "function"
    },
    {
      "inputs": [
        {
          "internalType": "address",
          "name": "account",
          "type": "address"
        }
      ],
      "name": "realtimeBalanceOfNow",
      "outputs": [
        {
          "internalType": "int256",
          "name": "availableBalance",
          "type": "int256"
        },
        {
          "internalType": "uint256",
          "name": "deposit",
          "type": "uint256"
        },
        {
          "internalType": "uint256",
          "name": "owedDeposit",
          "type": "uint256"
        },
        {
          "internalType": "uint256",
          "name": "timestamp",
          "type": "uint256"
        }
      ],
      "stateMutability": "view",
      "type": "function"
    },
    {
      "inputs": [
        {
          "internalType": "address",
          "name": "operator",
          "type": "address"
        }
      ],
      "name": "revokeOperator",
      "outputs": [],
      "stateMutability": "nonpayable",
      "type": "function"
    },
    {
      "inputs": [
        {
          "internalType": "address",
          "name": "account",
          "type": "address"
        },
        {
          "internalType": "address",
          "name": "spender",
          "type": "address"
        },
        {
          "internalType": "uint256",
          "name": "amount",
          "type": "uint256"
        }
      ],
      "name": "selfApproveFor",
      "outputs": [],
      "stateMutability": "nonpayable",
      "type": "function"
    },
    {
      "inputs": [
        {
          "internalType": "address",
          "name": "account",
          "type": "address"
        },
        {
          "internalType": "uint256",
          "name": "amount",
          "type": "uint256"
        },
        {
          "internalType": "bytes",
          "name": "userData",
          "type": "bytes"
        }
      ],
      "name": "selfBurn",
      "outputs": [],
      "stateMutability": "nonpayable",
      "type": "function"
    },
    {
      "inputs": [
        {
          "internalType": "address",
          "name": "account",
          "type": "address"
        },
        {
          "internalType": "uint256",
          "name": "amount",
          "type": "uint256"
        },
        {
          "internalType": "bytes",
          "name": "userData",
          "type": "bytes"
        }
      ],
      "name": "selfMint",
      "outputs": [],
      "stateMutability": "nonpayable",
      "type": "function"
    },
    {
      "inputs": [
        {
          "internalType": "address",
          "name": "holder",
          "type": "address"
        },
        {
          "internalType": "address",
          "name": "spender",
          "type": "address"
        },
        {
          "internalType": "address",
          "name": "recipient",
          "type": "address"
        },
        {
          "internalType": "uint256",
          "name": "amount",
          "type": "uint256"
        }
      ],
      "name": "selfTransferFrom",
      "outputs": [],
      "stateMutability": "nonpayable",
      "type": "function"
    },
    {
      "inputs": [
        {
          "internalType": "address",
          "name": "recipient",
          "type": "address"
        },
        {
          "internalType": "uint256",
          "name": "amount",
          "type": "uint256"
        },
        {
          "internalType": "bytes",
          "name": "userData",
          "type": "bytes"
        }
      ],
      "name": "send",
      "outputs": [],
      "stateMutability": "nonpayable",
      "type": "function"
    },
    {
      "inputs": [
        {
          "internalType": "address",
          "name": "account",
          "type": "address"
        },
        {
          "internalType": "int256",
          "name": "delta",
          "type": "int256"
        }
      ],
      "name": "settleBalance",
      "outputs": [],
      "stateMutability": "nonpayable",
      "type": "function"
    },
    {
      "inputs": [],
      "name": "symbol",
      "outputs": [
        {
          "internalType": "string",
          "name": "",
          "type": "string"
        }
      ],
      "stateMutability": "view",
      "type": "function"
    },
    {
      "inputs": [
        {
          "internalType": "bytes32",
          "name": "id",
          "type": "bytes32"
        },
        {
          "internalType": "uint256",
          "name": "dataLength",
          "type": "uint256"
        }
      ],
      "name": "terminateAgreement",
      "outputs": [],
      "stateMutability": "nonpayable",
      "type": "function"
    },
    {
      "inputs": [],
      "name": "totalSupply",
      "outputs": [
        {
          "internalType": "uint256",
          "name": "",
          "type": "uint256"
        }
      ],
      "stateMutability": "view",
      "type": "function"
    },
    {
      "inputs": [
        {
          "internalType": "address",
          "name": "recipient",
          "type": "address"
        },
        {
          "internalType": "uint256",
          "name": "amount",
          "type": "uint256"
        }
      ],
      "name": "transfer",
      "outputs": [
        {
          "internalType": "bool",
          "name": "",
          "type": "bool"
        }
      ],
      "stateMutability": "nonpayable",
      "type": "function"
    },
    {
      "inputs": [
        {
          "internalType": "address",
          "name": "recipient",
          "type": "address"
        }
      ],
      "name": "transferAll",
      "outputs": [],
      "stateMutability": "nonpayable",
      "type": "function"
    },
    {
      "inputs": [
        {
          "internalType": "address",
          "name": "holder",
          "type": "address"
        },
        {
          "internalType": "address",
          "name": "recipient",
          "type": "address"
        },
        {
          "internalType": "uint256",
          "name": "amount",
          "type": "uint256"
        }
      ],
      "name": "transferFrom",
      "outputs": [
        {
          "internalType": "bool",
          "name": "",
          "type": "bool"
        }
      ],
      "stateMutability": "nonpayable",
      "type": "function"
    },
    {
      "inputs": [
        {
          "internalType": "bytes32",
          "name": "id",
          "type": "bytes32"
        },
        {
          "internalType": "bytes32[]",
          "name": "data",
          "type": "bytes32[]"
        }
      ],
      "name": "updateAgreementData",
      "outputs": [],
      "stateMutability": "nonpayable",
      "type": "function"
    },
    {
      "inputs": [
        {
          "internalType": "address",
          "name": "account",
          "type": "address"
        },
        {
          "internalType": "uint256",
          "name": "slotId",
          "type": "uint256"
        },
        {
          "internalType": "bytes32[]",
          "name": "slotData",
          "type": "bytes32[]"
        }
      ],
      "name": "updateAgreementStateSlot",
      "outputs": [],
      "stateMutability": "nonpayable",
      "type": "function"
    },
    {
      "inputs": [
        {
          "internalType": "address",
          "name": "newAddress",
          "type": "address"
        }
      ],
      "name": "updateCode",
      "outputs": [],
      "stateMutability": "nonpayable",
      "type": "function"
    },
    {
      "inputs": [
        {
          "internalType": "uint256",
          "name": "amount",
          "type": "uint256"
        }
      ],
      "name": "upgrade",
      "outputs": [],
      "stateMutability": "nonpayable",
      "type": "function"
    },
    {
      "inputs": [
        {
          "internalType": "address",
          "name": "to",
          "type": "address"
        },
        {
          "internalType": "uint256",
          "name": "amount",
          "type": "uint256"
        },
        {
          "internalType": "bytes",
          "name": "userData",
          "type": "bytes"
        }
      ],
      "name": "upgradeTo",
      "outputs": [],
      "stateMutability": "nonpayable",
      "type": "function"
    }
  ],
  "bytecode": {
    "object": "0x60e06040523480156200001157600080fd5b5060405162004bd638038062004bd68339810160408190526200003491620000cf565b6001600160a01b0380841660805282811660a081905290821660c0526040517fcf554eb342edf010a94e07701ae91e99e90b769f649f03aeb1153654ddd43c0190600090a26040516001600160a01b038216907f8837af285f4d380af9227df9ebafa13d992b487fa6d7a4366bd4154576085b8990600090a250505062000123565b6001600160a01b0381168114620000cc57600080fd5b50565b600080600060608486031215620000e557600080fd5b8351620000f281620000b6565b60208501519093506200010581620000b6565b60408501519092506200011881620000b6565b809150509250925092565b60805160a05160c0516149f7620001df600039600081816105d101526113f801526000818161087d015261135b01526000818161047401528181610b5901528181610bc801528181610e6b01528181610f8601528181611055015281816112a701528181611443015281816115900152818161172301528181611aff01528181611bc901528181611c6101528181611cc901528181611d5101528181612542015281816125d901528181613648015261388701526149f76000f3fe608060405234801561001057600080fd5b50600436106103a45760003560e01c806366a12fb6116101e9578063bb0d196e1161010f578063d9d078d6116100ad578063ef43d2c61161007c578063ef43d2c614610878578063fad8b32a1461089f578063fc673c4f146108b2578063fe9d9303146108c557600080fd5b8063d9d078d6146107ed578063dd62ed3e14610800578063eb3537cc14610839578063ee719bc81461086757600080fd5b8063ca0c1e7f116100e9578063ca0c1e7f146107a1578063ca789464146107b4578063cf97256d146107c7578063d95b6371146107da57600080fd5b8063bb0d196e14610768578063c68d42831461077b578063c780fd821461078e57600080fd5b80639903ad3811610187578063a3a7e7f311610156578063a3a7e7f31461071c578063a457c2d71461072f578063a9059cbb14610742578063b84cdd4a1461075557600080fd5b80639903ad38146106db5780639bd9bbc6146106e35780639d876741146106f6578063a1b2bf8b1461070957600080fd5b806379359f6f116101c357806379359f6f1461069a57806383ba2525146106ad578063959b8c3f146106c057806395d89b41146106d357600080fd5b806366a12fb6146106615780636c2d9f2f1461067457806370a082311461068757600080fd5b8063386fa221116102ce5780634b61cc331161026c578063556f0dc71161023b578063556f0dc7146106215780635b9d09cc1461062857806362aa52871461063b57806362ad1b831461064e57600080fd5b80634b61cc33146105ac5780634c5c0c85146105cc57806350d75d25146105f357806352d1902d146105fb57600080fd5b806342fe0980116102a857806342fe09801461056057806345977d031461057357806346951954146105865780634b2763b31461059957600080fd5b8063386fa22114610527578063395093511461053a57806341b706be1461054d57600080fd5b806318160ddd11610346578063245887fc11610315578063245887fc146104bf57806327048397146104d25780632ec8eec7146104e5578063313ce5671461051857600080fd5b806318160ddd1461044d5780631863e8091461045f57806320bc44251461047257806323b872dd146104ac57600080fd5b8063095ea7b311610382578063095ea7b3146103f157806311bcc81e1461041457806312a6a3f81461042757806316d055d61461043a57600080fd5b806306e48538146103a957806306fdde03146103c7578063090c415e146103dc575b600080fd5b6103b16108d8565b6040516103be9190613aa1565b60405180910390f35b6103cf6108e9565b6040516103be9190613b3e565b6103ef6103ea366004613bb1565b61097b565b005b6104046103ff366004613c0c565b610a2e565b60405190151581526020016103be565b6103ef610422366004613c38565b610a45565b6103ef610435366004613c51565b610a74565b6103ef610448366004613c9c565b610b57565b6003545b6040519081526020016103be565b6103ef61046d366004613db0565b610bb3565b7f00000000000000000000000000000000000000000000000000000000000000005b6040516001600160a01b0390911681526020016103be565b6104046104ba366004613e42565b610e53565b6103ef6104cd366004613c0c565b610e69565b6103ef6104e0366004613e83565b610ee2565b6104f86104f3366004613ea5565b610f7e565b6040805194855260208501939093529183015260608201526080016103be565b604051601281526020016103be565b6103b1610535366004613ea5565b611021565b610404610548366004613c0c565b6110c4565b6103ef61055b366004613c9c565b611100565b6103ef61056e366004613f03565b61112c565b6103ef610581366004613c38565b611270565b6103ef610594366004613ea5565b61129c565b6103ef6105a7366004613e42565b611441565b6105bf6105ba366004613f9d565b6114c8565b6040516103be9190613fe3565b6104947f000000000000000000000000000000000000000000000000000000000000000081565b61049461150d565b7f6bfbb132610e56cb96575dba244667b9d6dbfeffe22b68a79fa16f2d18eb0019610451565b6001610451565b6103ef61063636600461401b565b611537565b6103ef610649366004613e42565b61158e565b6103ef61065c36600461406a565b6115e2565b6103ef61066f366004613e42565b611690565b6105bf610682366004614108565b6116b0565b610451610695366004613ea5565b6116f2565b6104046106a8366004613ea5565b61171b565b6103ef6106bb366004613c0c565b6117a3565b6103ef6106ce366004613ea5565b6117cf565b6103cf611820565b6103ef61182f565b6103ef6106f136600461401b565b6118f1565b6103ef61070436600461413d565b611945565b6103ef610717366004613c51565b61198b565b6103ef61072a366004613ea5565b611a35565b61040461073d366004613c0c565b611a49565b610404610750366004613c0c565b611a98565b610404610763366004613c0c565b611aa6565b610404610776366004613ea5565b611af7565b6103ef61078936600461413d565b611b7f565b6103ef61079c366004613e42565b611bc7565b6103ef6107af366004614195565b611c5f565b6103ef6107c2366004613c0c565b611cc7565b6103ef6107d5366004613c0c565b611d3c565b6104046107e8366004614200565b611e25565b6104046107fb366004613c0c565b611e33565b61045161080e366004614200565b6001600160a01b03918216600090815260116020908152604080832093909416825291909152205490565b61084c610847366004613c0c565b611e4d565b604080519384526020840192909252908201526060016103be565b600e546001600160a01b0316610494565b6104947f000000000000000000000000000000000000000000000000000000000000000081565b6103ef6108ad366004613ea5565b611f87565b6103ef6108c0366004614239565b611fd8565b6103ef6108d3366004614280565b612079565b60606108e460126120ca565b905090565b6060600f80546108f8906142be565b80601f0160208091040260200160405190810160405280929190818152602001828054610924906142be565b80156109715780601f1061094657610100808354040283529160200191610971565b820191906000526020600020905b81548152906001019060200180831161095457829003601f168201915b5050505050905090565b6000338585604051602001610992939291906142f8565b6040516020818303038152906040528051906020012090506109e78184848080602002602001604051908101604052809392919081815260200183836020028082843760009201919091525061213092505050565b6040518481526001600160a01b0386169033907f30f416fa68fca014a0f334464c64b000ba53e99b6d2afdea9d5ca756372d59859060200160405180910390a35050505050565b6000610a3b338484612171565b5060015b92915050565b610a71333333846040518060200160405280600081525060405180602001604052806000815250612221565b50565b6040513390600090610a8c9083908790602001614341565b60408051601f1981840301815291905280516020909101209050610ab081846123e1565b15610ace5760405163782a90fb60e11b815260040160405180910390fd5b610b0b8185858080602002602001604051908101604052809392919081815260200183836020028082843760009201919091525061213092505050565b816001600160a01b03167f770ea40a13a4644573ed785e5c7116890709947918747febc5add46feb531e2d868686604051610b489392919061437e565b60405180910390a25050505050565b7f00000000000000000000000000000000000000000000000000000000000000006001600160a01b03163314610ba05760405163c51efddd60e01b815260040160405180910390fd5b610bac8484848461241d565b5050505050565b604051632329212160e21b81523360048201527f00000000000000000000000000000000000000000000000000000000000000006001600160a01b031690638ca4848490602401602060405180830381865afa158015610c17573d6000803e3d6000fd5b505050506040513d601f19601f82011682018060405250810190610c3b91906143bf565b610c585760405163327fd99160e21b815260040160405180910390fd5b6000610c6261253d565b90506001600160a01b038116610c755750845b600085610c825786610c84565b815b905060008313610d2157610c97836143f2565b610ca085612682565b14610cad57610cad61440e565b610cb684612682565b6001600160a01b03821660009081526002602052604081208054909190610cde908490614424565b90915550506001600160a01b03851660009081526002602052604081208054859290610d0b908490614424565b90915550610d1c90508582866126f0565b610deb565b8515610d2f57610d2f61440e565b82610d3985612682565b610d439190614424565b6001600160a01b03831660009081526002602052604081208054909190610d6b90849061444c565b90915550610d7a905084612682565b6001600160a01b03881660009081526002602052604081208054909190610da2908490614424565b90915550506001600160a01b03851660009081526002602052604081208054859290610dcf908490614424565b90915550610de090508288866126f0565b610deb8286856126f0565b846001600160a01b0316876001600160a01b0316336001600160a01b03167fb8381a3ce157650e06186e3e8f4dd4dc29236f2688b6eed1893d0a60d7c6386f8c8589898f604051610e4095949392919061446c565b60405180910390a4505050505050505050565b6000610e613385858561241d565b949350505050565b7f00000000000000000000000000000000000000000000000000000000000000006001600160a01b03163314610eb25760405163c51efddd60e01b815260040160405180910390fd5b610ede338384846040518060200160405280600081525060405180602001604052806000815250612221565b5050565b6040513390600090610efa9083908690602001614341565b604051602081830303815290604052805190602001209050610f1c81846123e1565b610f395760405163dae1880960e01b815260040160405180910390fd5b610f438184612723565b60405184815233907f71a63dc095de07aa5512ad57a7596a39516317e316981a1cd71000057be1537b9060200160405180910390a250505050565b6000806000807f00000000000000000000000000000000000000000000000000000000000000006001600160a01b031663bbe4fd506040518163ffffffff1660e01b8152600401602060405180830381865afa158015610fe2573d6000803e3d6000fd5b505050506040513d601f19601f82011682018060405250810190611006919061449f565b90506110128582611e4d565b91979096509094509092509050565b6001600160a01b038181166000908152600160205260409081902054905163c56a069d60e01b8152901960048201526060917f0000000000000000000000000000000000000000000000000000000000000000169063c56a069d90602401600060405180830381865afa15801561109c573d6000803e3d6000fd5b505050506040513d6000823e601f3d908101601f19168201604052610a3f91908101906144b8565b3360008181526011602090815260408083206001600160a01b03871684529091528120549091610a3b9185906110fb908690614569565b612171565b33301461112057604051630fff4cc960e31b815260040160405180910390fd5b610bac8385848461241d565b600054610100900460ff161580801561114c5750600054600160ff909116105b806111665750303b158015611166575060005460ff166001145b61118b5760405162461bcd60e51b81526004016111829061457c565b60405180910390fd5b6000805460ff1916600117905580156111ae576000805461ff0019166101001790555b600e805460ff8816600160a01b026001600160a81b03199091166001600160a01b038a1617179055600f6111e3858783614618565b5060106111f1838583614618565b506111fb30612744565b60405160008082529081906000805160206149758339815191529060200160405180910390a38015611267576000805461ff0019169055604051600181527f7f26b83ff96e1f2b6a682f133852f6798a09c465da95921460cefb38474024989060200160405180910390a15b50505050505050565b610a71333333846040518060200160405280600081525060405180602001604052806000815250612872565b336001600160a01b037f000000000000000000000000000000000000000000000000000000000000000016146112e55760405163263dcdc160e21b815260040160405180910390fd5b6112ee81612a25565b806001600160a01b031663ef43d2c66040518163ffffffff1660e01b8152600401602060405180830381865afa15801561132c573d6000803e3d6000fd5b505050506040513d601f19601f8201168201806040525081019061135091906146d7565b6001600160a01b03167f00000000000000000000000000000000000000000000000000000000000000006001600160a01b03161415806114235750806001600160a01b0316634c5c0c856040518163ffffffff1660e01b8152600401602060405180830381865afa1580156113c9573d6000803e3d6000fd5b505050506040513d601f19601f820116820180604052508101906113ed91906146d7565b6001600160a01b03167f00000000000000000000000000000000000000000000000000000000000000006001600160a01b031614155b15610a715760405163ef1b6ddf60e01b815260040160405180910390fd5b7f00000000000000000000000000000000000000000000000000000000000000006001600160a01b0316331461148a5760405163c51efddd60e01b815260040160405180910390fd5b6001600160a01b038084166000908152601160209081526040808320938616835292905220546114c390849084906110fb908590614569565b505050565b606060008585856040516020016114e1939291906142f8565b6040516020818303038152906040528051906020012090506115038184612c5f565b9695505050505050565b60006108e47f360894a13ba1a3210667c828492db98dca3e2076cc3735a920a3ca505d382bbc5490565b6115883333868686868080601f016020809104026020016040519081016040528093929190818152602001838380828437600092018290525060408051602081019091529081529250612872915050565b50505050565b7f00000000000000000000000000000000000000000000000000000000000000006001600160a01b031633146115d75760405163c51efddd60e01b815260040160405180910390fd5b6114c3838383612171565b336115ef6012828a612cee565b61160c5760405163f7f0222760e01b815260040160405180910390fd5b6116868189898989898080601f01602080910402602001604051908101604052809392919081815260200183838082843760009201919091525050604080516020601f8d018190048102820181019092528b815292508b91508a908190840183828082843760009201919091525060019250612d97915050565b5050505050505050565b3330146115d757604051630fff4cc960e31b815260040160405180910390fd5b6060600084846040516020016116c7929190614341565b6040516020818303038152906040528051906020012090506116e98184612c5f565b95945050505050565b6000806116fe83610f7e565b5050509050600081126117115780611714565b60005b9392505050565b6000610a3f827f00000000000000000000000000000000000000000000000000000000000000006001600160a01b031663bbe4fd506040518163ffffffff1660e01b8152600401602060405180830381865afa15801561177f573d6000803e3d6000fd5b505050506040513d601f19601f820116820180604052508101906107fb919061449f565b610ede333384846040518060200160405280600081525060405180602001604052806000815250612221565b336117dc60128284612e10565b806001600160a01b0316826001600160a01b03167ff4caeb2d6ca8932a215a353d0703c326ec2d81fc68170f320eb2ab49e9df61f960405160405180910390a35050565b6060601080546108f8906142be565b600054610100900460ff161580801561184f5750600054600160ff909116105b806118695750303b158015611869575060005460ff166001145b6118855760405162461bcd60e51b81526004016111829061457c565b6000805460ff1916600117905580156118a8576000805461ff0019166101001790555b8015610a71576000805461ff0019169055604051600181527f7f26b83ff96e1f2b6a682f133852f6798a09c465da95921460cefb3847402498906020015b60405180910390a150565b6115883333868686868080601f01602080910402602001604051908101604052809392919081815260200183838082843760009201829052506040805160208101909152908152925060019150612d979050565b33301461196557604051630fff4cc960e31b815260040160405180910390fd5b80516040805160008152602081019091526114c391339186918691901515908690612f14565b60405133906000906119a39083908790602001614341565b6040516020818303038152906040528051906020012090506119f88185858080602002602001604051908101604052809392919081815260200183836020028082843760009201919091525061213092505050565b336001600160a01b03167f0c4c547b3a4fcaa5be8353b3111472b124155bccc86de811d4a481c9e6e9faca868686604051610b489392919061437e565b610ede333383611a44336116f2565b61241d565b6000610a3b33846110fb856040518060600160405280602a815260200161494b602a91393360009081526011602090815260408083206001600160a01b038d1684529091529020549190612fe1565b60006117143333858561241d565b600080600080611ab68686611e4d565b9250925092506000611ade828411611acf576000612682565b611ad983856146f4565b612682565b611ae89085614424565b60001315979650505050505050565b6000610a3f827f00000000000000000000000000000000000000000000000000000000000000006001600160a01b031663bbe4fd506040518163ffffffff1660e01b8152600401602060405180830381865afa158015611b5b573d6000803e3d6000fd5b505050506040513d601f19601f82011682018060405250810190610763919061449f565b333014611b9f57604051630fff4cc960e31b815260040160405180910390fd5b80516040805160008152602081019091526114c391339186918691901515908190879061300d565b7f00000000000000000000000000000000000000000000000000000000000000006001600160a01b03163314611c105760405163c51efddd60e01b815260040160405180910390fd5b6114c383836110fb846040518060600160405280602a815260200161494b602a91396001600160a01b03808a166000908152601160209081526040808320938c16835292905220549190612fe1565b7f00000000000000000000000000000000000000000000000000000000000000006001600160a01b03163314611ca85760405163c51efddd60e01b815260040160405180910390fd5b6115883385858585604051806020016040528060008152506001612d97565b7f00000000000000000000000000000000000000000000000000000000000000006001600160a01b03163314611d105760405163c51efddd60e01b815260040160405180910390fd5b610ede338384846040518060200160405280600081525060405180602001604052806000815250612872565b604051632329212160e21b81523360048201527f00000000000000000000000000000000000000000000000000000000000000006001600160a01b031690638ca4848490602401602060405180830381865afa158015611da0573d6000803e3d6000fd5b505050506040513d601f19601f82011682018060405250810190611dc491906143bf565b611de15760405163327fd99160e21b815260040160405180910390fd5b6001600160a01b038216600090815260026020526040902054611e05908290614424565b6001600160a01b0390921660009081526002602052604090209190915550565b600061171460128484612cee565b600080611e408484611e4d565b5050600013949350505050565b6001600160a01b038216600090815260026020526040812054908080611e7286611021565b905060005b8151811015611f7e576000806000848481518110611e9757611e97614707565b60209081029190910101516040516326cb922f60e21b81523060048201526001600160a01b038c81166024830152604482018c905290911690639b2e48bc90606401606060405180830381865afa158015611ef6573d6000803e3d6000fd5b505050506040513d601f19601f82011682018060405250810190611f1a919061471d565b91945092509050611f2b8288614569565b9650611f378187614569565b9550611f54818311611f4a576000612682565b611ad982846146f4565b611f5e848a614424565b611f68919061444c565b975050505080611f779061474b565b9050611e77565b50509250925092565b33611f94601282846130db565b806001600160a01b0316826001600160a01b03167f50546e66e5f44d728365dc3908c63bc5cfeeab470722c1677e3073a6ac294aa160405160405180910390a35050565b33611fe560128289612cee565b6120025760405163f7f0222760e01b815260040160405180910390fd5b6112678188898989898080601f01602080910402602001604051908101604052809392919081815260200183838082843760009201919091525050604080516020601f8d018190048102820181019092528b815292508b91508a908190840183828082843760009201919091525061222192505050565b6114c33333338686868080601f016020809104026020016040519081016040528093929190818152602001838380828437600092018290525060408051602081019091529081529250612221915050565b60608160000180548060200260200160405190810160405280929190818152602001828054801561212457602002820191906000526020600020905b81546001600160a01b03168152600190910190602001808311612106575b50505050509050919050565b60005b81518110156114c357600082828151811061215057612150614707565b602002602001015190508082850155508061216a9061474b565b9050612133565b6001600160a01b03831661219857604051638163862760e01b815260040160405180910390fd5b6001600160a01b0382166121bf576040516337c1c09d60e21b815260040160405180910390fd5b6001600160a01b0383811660008181526011602090815260408083209487168084529482529182902085905590518481527f8c5be1e5ebec7d5bd14f71427d1e84f3dd0314c0f7b2291e5b200ac8c7c3b92591015b60405180910390a3505050565b600e546001600160a01b031661224a57604051637bce7b2b60e11b815260040160405180910390fd5b600080612256856131d3565b9150915061226d8888838751600014158888612f14565b600e546040516370a0823160e01b81523060048201526000916001600160a01b0316906370a0823190602401602060405180830381865afa1580156122b6573d6000803e3d6000fd5b505050506040513d601f19601f820116820180604052508101906122da919061449f565b600e549091506122f4906001600160a01b0316888561328f565b600e546040516370a0823160e01b81523060048201526000916001600160a01b0316906370a0823190602401602060405180830381865afa15801561233d573d6000803e3d6000fd5b505050506040513d601f19601f82011682018060405250810190612361919061449f565b9050600061236f82846146f4565b905080851461239157604051631c7c26d360e31b815260040160405180910390fd5b896001600160a01b03167f3bc27981aebbb57f9247dc00fde9d6cd91e4b230083fec3238fedbcba1f9ab3d856040516123cc91815260200190565b60405180910390a25050505050505050505050565b6000805b828110156124135783810154801561240257600192505050610a3f565b5061240c8161474b565b90506123e5565b5060009392505050565b60006001600160a01b0384166124465760405163eecd6c9b60e01b815260040160405180910390fd5b6001600160a01b03831661246d5760405163e219bd3960e01b815260040160405180910390fd5b600033905061249e8186868660405180602001604052806000815250604051806020016040528060008152506132f2565b846001600160a01b0316866001600160a01b0316146125315761253185876110fb866040518060600160405280602d8152602001614995602d9139601160008c6001600160a01b03166001600160a01b0316815260200190815260200160002060008d6001600160a01b03166001600160a01b0316815260200190815260200160002054612fe19092919063ffffffff16565b50600195945050505050565b6000807f00000000000000000000000000000000000000000000000000000000000000006001600160a01b031663289b3c0d6040518163ffffffff1660e01b8152600401602060405180830381865afa15801561259e573d6000803e3d6000fd5b505050506040513d601f19601f820116820180604052508101906125c291906146d7565b604051638369a0f160e01b81526001600160a01b037f0000000000000000000000000000000000000000000000000000000000000000811660048301523060248301527f9f60ae461adf056670e03ae602566409933242392cb06744f5747c9f38b05d09604483015291925090821690638369a0f190606401602060405180830381865afa158015612658573d6000803e3d6000fd5b505050506040513d601f19601f8201168201806040525081019061267c91906146d7565b91505090565b60006001600160ff1b038211156126ec5760405162461bcd60e51b815260206004820152602860248201527f53616665436173743a2076616c756520646f65736e27742066697420696e2061604482015267371034b73a191a9b60c11b6064820152608401611182565b5090565b816001600160a01b0316836001600160a01b03166000805160206149758339815191528360405161221491815260200190565b60005b818110156114c35760008382015561273d8161474b565b9050612726565b6040516329965a1d60e01b81526001600160a01b03821660048201527fac7fbab5f54a3ca8194167523c6753bfeb96a445279294b6125b68cce21770546024820152306044820152731820a4b7618bde71dce8cdc73aab6c95905fad24906329965a1d90606401600060405180830381600087803b1580156127c557600080fd5b505af11580156127d9573d6000803e3d6000fd5b50506040516329965a1d60e01b81526001600160a01b03841660048201527faea199e31a596269b42cdafd93407f14436db6e4cad65417994c2eb37381e05a6024820152306044820152731820a4b7618bde71dce8cdc73aab6c95905fad2492506329965a1d9150606401600060405180830381600087803b15801561285e57600080fd5b505af1158015610bac573d6000803e3d6000fd5b600e546001600160a01b031661289b57604051637bce7b2b60e11b815260040160405180910390fd5b6000806128a7856131d3565b600e546040516370a0823160e01b81523060048201529294509092506000916001600160a01b03909116906370a0823190602401602060405180830381865afa1580156128f8573d6000803e3d6000fd5b505050506040513d601f19601f8201168201806040525081019061291c919061449f565b600e54909150612937906001600160a01b0316893086613391565b600e546040516370a0823160e01b81523060048201526000916001600160a01b0316906370a0823190602401602060405180830381865afa158015612980573d6000803e3d6000fd5b505050506040513d601f19601f820116820180604052508101906129a4919061449f565b905060006129b283836146f4565b90508085146129d457604051631c7c26d360e31b815260040160405180910390fd5b86516129ea908c908b9087901515808c8c61300d565b886001600160a01b03167f25ca84076773b0455db53621c459ddc84fe40840e4932a62706a032566f399df856040516123cc91815260200190565b6000612a4f7f360894a13ba1a3210667c828492db98dca3e2076cc3735a920a3ca505d382bbc5490565b6001600160a01b031603612aa55760405162461bcd60e51b815260206004820152601d60248201527f5555505350726f786961626c653a206e6f742075706772616461626c650000006044820152606401611182565b806001600160a01b03166352d1902d6040518163ffffffff1660e01b8152600401602060405180830381865afa158015612ae3573d6000803e3d6000fd5b505050506040513d601f19601f82011682018060405250810190612b07919061449f565b7f6bfbb132610e56cb96575dba244667b9d6dbfeffe22b68a79fa16f2d18eb001914612b815760405162461bcd60e51b815260206004820152602360248201527f5555505350726f786961626c653a206e6f7420636f6d70617469626c65206c6f60448201526267696360e81b6064820152608401611182565b6001600160a01b0381163003612bd95760405162461bcd60e51b815260206004820152601960248201527f5555505350726f786961626c653a2070726f7879206c6f6f70000000000000006044820152606401611182565b612c01817f360894a13ba1a3210667c828492db98dca3e2076cc3735a920a3ca505d382bbc55565b7fe011bc04c286c344a8fcbb8de77f953da762c3e25d8cdea984147fc4168a5dcc7f6bfbb132610e56cb96575dba244667b9d6dbfeffe22b68a79fa16f2d18eb0019604080519182526001600160a01b0384166020830152016118e6565b6060816001600160401b03811115612c7957612c79613ced565b604051908082528060200260200182016040528015612ca2578160200160208202803683370190505b50905060005b82811015612ce757600081850154905080838381518110612ccb57612ccb614707565b602090810291909101015250612ce08161474b565b9050612ca8565b5092915050565b6000816001600160a01b0316836001600160a01b03161480612d5d57506001600160a01b038316600090815260018501602052604090205460ff168015612d5d57506001600160a01b03808316600090815260038601602090815260408083209387168352929052205460ff16155b80610e6157506001600160a01b03808316600090815260028601602090815260408083209387168352929052205460ff1690509392505050565b6001600160a01b038616612dbe5760405163eecd6c9b60e01b815260040160405180910390fd5b6001600160a01b038516612de55760405163e219bd3960e01b815260040160405180910390fd5b612df38787878787876133c9565b612e018787878787876132f2565b611267878787878787876134f0565b806001600160a01b0316826001600160a01b031603612e875760405162461bcd60e51b815260206004820152602d60248201527f4552433737374f70657261746f72733a20617574686f72697a696e672073656c60448201526c331030b99037b832b930ba37b960991b6064820152608401611182565b6001600160a01b038116600090815260018401602052604090205460ff1615612edd576001600160a01b03918216600090815260039390930160209081526040808520929093168452529020805460ff19169055565b6001600160a01b0380831660009081526002850160209081526040808320938516835292905220805460ff19166001179055505050565b6001600160a01b038516612f3b57604051632e8aac6160e21b815260040160405180910390fd5b8215612f5057612f50868660008786866133c9565b612f5a8585613640565b846001600160a01b0316866001600160a01b03167fa78a9be3a7b862d26933ad85fb11d80ef66b8f972d7cbba06621d583943a4098868585604051612fa193929190614764565b60405180910390a36040518481526000906001600160a01b03871690600080516020614975833981519152906020015b60405180910390a3505050505050565b600081848411156130055760405162461bcd60e51b81526004016111829190613b3e565b505050900390565b6001600160a01b03861661303457604051630d24315760e01b815260040160405180910390fd5b61303e8686613750565b83156130545761305487600088888686896134f0565b856001600160a01b0316876001600160a01b03167f2fe5be0146f74c5bce36c0b80911af6c7d86ff27e89d5cfa61fc681327954e5d87858560405161309b93929190614764565b60405180910390a36040518581526001600160a01b038716906000906000805160206149758339815191529060200160405180910390a350505050505050565b336001600160a01b038216036131465760405162461bcd60e51b815260206004820152602a60248201527f4552433737374f70657261746f72733a207265766f6b696e672073656c662061604482015269399037b832b930ba37b960b11b6064820152608401611182565b6001600160a01b038116600090815260018401602052604090205460ff16156131a0576001600160a01b0380831660009081526003850160209081526040808320938516835292905220805460ff19166001179055505050565b6001600160a01b03918216600090815260029390930160209081526040808520929093168452529020805460ff19169055565b600e54600090819081906012600160a01b90910460ff16101561323257600e5461320890600160a01b900460ff16601261478f565b61321390600a61488c565b905061321f818561489b565b925061322b81846148bd565b9150613289565b600e546012600160a01b90910460ff16111561328257600e5461326190601290600160a01b900460ff1661478f565b61326c90600a61488c565b905061327881856148bd565b9250839150613289565b8391508192505b50915091565b6040516001600160a01b0383166024820152604481018290526114c390849063a9059cbb60e01b906064015b60408051601f198184030181529190526020810180516001600160e01b03166001600160e01b0319909316929092179091526137aa565b613305858561330086612682565b61387f565b836001600160a01b0316856001600160a01b0316876001600160a01b03167f06b541ddaa720db2b10a4d0cdac39b8d360425fc073085fac19bc8261467798786868660405161335693929190614764565b60405180910390a4836001600160a01b0316856001600160a01b031660008051602061497583398151915285604051612fd191815260200190565b6040516001600160a01b03808516602483015283166044820152606481018290526115889085906323b872dd60e01b906084016132bb565b60405163555ddc6560e11b81526001600160a01b03861660048201527f29ddb589b1fb5fc7cf394961c1adf5f8c6454761adf795e67fe149f658abe8956024820152600090731820a4b7618bde71dce8cdc73aab6c95905fad249063aabbb8ca90604401602060405180830381865afa15801561344a573d6000803e3d6000fd5b505050506040513d601f19601f8201168201806040525081019061346e91906146d7565b90506001600160a01b0381161561126757604051633ad5cbc160e11b81526001600160a01b038216906375ab9782906134b5908a908a908a908a908a908a906004016148d4565b600060405180830381600087803b1580156134cf57600080fd5b505af11580156134e3573d6000803e3d6000fd5b5050505050505050505050565b60405163555ddc6560e11b81526001600160a01b03861660048201527fb281fc8c12954d22544db45de3159a39272895b169a852b314f9cc762e44c53b6024820152600090731820a4b7618bde71dce8cdc73aab6c95905fad249063aabbb8ca90604401602060405180830381865afa158015613571573d6000803e3d6000fd5b505050506040513d601f19601f8201168201806040525081019061359591906146d7565b90506001600160a01b03811615613611576040516223de2960e01b81526001600160a01b038216906223de29906135da908b908b908b908b908b908b906004016148d4565b600060405180830381600087803b1580156135f457600080fd5b505af1158015613608573d6000803e3d6000fd5b50505050611686565b8115611686576001600160a01b0386163b156116865760405163fe737d0560e01b815260040160405180910390fd5b60006136c8837f00000000000000000000000000000000000000000000000000000000000000006001600160a01b031663bbe4fd506040518163ffffffff1660e01b8152600401602060405180830381865afa1580156136a4573d6000803e3d6000fd5b505050506040513d601f19601f82011682018060405250810190610847919061449f565b505090506136d582612682565b8112156136f55760405163043b37d160e21b815260040160405180910390fd5b6136fe82612682565b6001600160a01b038416600090815260026020526040902054613721919061444c565b6001600160a01b0384166000908152600260205260409020556003546137489083906146f4565b600355505050565b61375981612682565b6001600160a01b03831660009081526002602052604090205461377c9190614424565b6001600160a01b0383166000908152600260205260409020556003546137a3908290614569565b6003555050565b60006137ff826040518060400160405280602081526020017f5361666545524332303a206c6f772d6c6576656c2063616c6c206661696c6564815250856001600160a01b031661397e9092919063ffffffff16565b905080516000148061382057508080602001905181019061382091906143bf565b6114c35760405162461bcd60e51b815260206004820152602a60248201527f5361666545524332303a204552433230206f7065726174696f6e20646964206e6044820152691bdd081cdd58d8d9595960b21b6064820152608401611182565b60006138e3847f00000000000000000000000000000000000000000000000000000000000000006001600160a01b031663bbe4fd506040518163ffffffff1660e01b8152600401602060405180830381865afa1580156136a4573d6000803e3d6000fd5b505090508181121561390857604051632f4cb94160e01b815260040160405180910390fd5b6001600160a01b03841660009081526002602052604090205461392c90839061444c565b6001600160a01b03808616600090815260026020526040808220939093559085168152205461395c908390614424565b6001600160a01b03909316600090815260026020526040902092909255505050565b6060610e61848460008585600080866001600160a01b031685876040516139a5919061492e565b60006040518083038185875af1925050503d80600081146139e2576040519150601f19603f3d011682016040523d82523d6000602084013e6139e7565b606091505b50915091506139f887838387613a03565b979650505050505050565b60608315613a72578251600003613a6b576001600160a01b0385163b613a6b5760405162461bcd60e51b815260206004820152601d60248201527f416464726573733a2063616c6c20746f206e6f6e2d636f6e74726163740000006044820152606401611182565b5081610e61565b610e618383815115613a875781518083602001fd5b8060405162461bcd60e51b81526004016111829190613b3e565b6020808252825182820181905260009190848201906040850190845b81811015613ae25783516001600160a01b031683529284019291840191600101613abd565b50909695505050505050565b60005b83811015613b09578181015183820152602001613af1565b50506000910152565b60008151808452613b2a816020860160208601613aee565b601f01601f19169290920160200192915050565b6020815260006117146020830184613b12565b6001600160a01b0381168114610a7157600080fd5b60008083601f840112613b7857600080fd5b5081356001600160401b03811115613b8f57600080fd5b6020830191508360208260051b8501011115613baa57600080fd5b9250929050565b60008060008060608587031215613bc757600080fd5b8435613bd281613b51565b93506020850135925060408501356001600160401b03811115613bf457600080fd5b613c0087828801613b66565b95989497509550505050565b60008060408385031215613c1f57600080fd5b8235613c2a81613b51565b946020939093013593505050565b600060208284031215613c4a57600080fd5b5035919050565b600080600060408486031215613c6657600080fd5b8335925060208401356001600160401b03811115613c8357600080fd5b613c8f86828701613b66565b9497909650939450505050565b60008060008060808587031215613cb257600080fd5b8435613cbd81613b51565b93506020850135613ccd81613b51565b92506040850135613cdd81613b51565b9396929550929360600135925050565b634e487b7160e01b600052604160045260246000fd5b604051601f8201601f191681016001600160401b0381118282101715613d2b57613d2b613ced565b604052919050565b600082601f830112613d4457600080fd5b81356001600160401b03811115613d5d57613d5d613ced565b613d70601f8201601f1916602001613d03565b818152846020838601011115613d8557600080fd5b816020850160208301376000918101602001919091529392505050565b8015158114610a7157600080fd5b600080600080600080600060e0888a031215613dcb57600080fd5b8735965060208801356001600160401b03811115613de857600080fd5b613df48a828b01613d33565b9650506040880135613e0581613b51565b94506060880135613e1581613da2565b93506080880135613e2581613b51565b9699959850939692959460a0840135945060c09093013592915050565b600080600060608486031215613e5757600080fd5b8335613e6281613b51565b92506020840135613e7281613b51565b929592945050506040919091013590565b60008060408385031215613e9657600080fd5b50508035926020909101359150565b600060208284031215613eb757600080fd5b813561171481613b51565b60008083601f840112613ed457600080fd5b5081356001600160401b03811115613eeb57600080fd5b602083019150836020828501011115613baa57600080fd5b60008060008060008060808789031215613f1c57600080fd5b8635613f2781613b51565b9550602087013560ff81168114613f3d57600080fd5b945060408701356001600160401b0380821115613f5957600080fd5b613f658a838b01613ec2565b90965094506060890135915080821115613f7e57600080fd5b50613f8b89828a01613ec2565b979a9699509497509295939492505050565b60008060008060808587031215613fb357600080fd5b8435613fbe81613b51565b93506020850135613fce81613b51565b93969395505050506040820135916060013590565b6020808252825182820181905260009190848201906040850190845b81811015613ae257835183529284019291840191600101613fff565b6000806000806060858703121561403157600080fd5b843561403c81613b51565b93506020850135925060408501356001600160401b0381111561405e57600080fd5b613c0087828801613ec2565b600080600080600080600060a0888a03121561408557600080fd5b873561409081613b51565b965060208801356140a081613b51565b95506040880135945060608801356001600160401b03808211156140c357600080fd5b6140cf8b838c01613ec2565b909650945060808a01359150808211156140e857600080fd5b506140f58a828b01613ec2565b989b979a50959850939692959293505050565b60008060006060848603121561411d57600080fd5b833561412881613b51565b95602085013595506040909401359392505050565b60008060006060848603121561415257600080fd5b833561415d81613b51565b92506020840135915060408401356001600160401b0381111561417f57600080fd5b61418b86828701613d33565b9150509250925092565b600080600080608085870312156141ab57600080fd5b84356141b681613b51565b935060208501356141c681613b51565b92506040850135915060608501356001600160401b038111156141e857600080fd5b6141f487828801613d33565b91505092959194509250565b6000806040838503121561421357600080fd5b823561421e81613b51565b9150602083013561422e81613b51565b809150509250929050565b6000806000806000806080878903121561425257600080fd5b863561425d81613b51565b95506020870135945060408701356001600160401b0380821115613f5957600080fd5b60008060006040848603121561429557600080fd5b8335925060208401356001600160401b038111156142b257600080fd5b613c8f86828701613ec2565b600181811c908216806142d257607f821691505b6020821081036142f257634e487b7160e01b600052602260045260246000fd5b50919050565b6080808252600e908201526d41677265656d656e74537461746560901b60a08201526001600160a01b039384166020820152919092166040820152606081019190915260c00190565b6060808252600d908201526c41677265656d656e744461746160981b60808201526001600160a01b03929092166020830152604082015260a00190565b838152604060208201819052810182905260006001600160fb1b038311156143a557600080fd5b8260051b8085606085013791909101606001949350505050565b6000602082840312156143d157600080fd5b815161171481613da2565b634e487b7160e01b600052601160045260246000fd5b6000600160ff1b8201614407576144076143dc565b5060000390565b634e487b7160e01b600052600160045260246000fd5b8082018281126000831280158216821582161715614444576144446143dc565b505092915050565b8181036000831280158383131683831282161715612ce757612ce76143dc565b85815260018060a01b038516602082015283604082015282606082015260a0608082015260006139f860a0830184613b12565b6000602082840312156144b157600080fd5b5051919050565b600060208083850312156144cb57600080fd5b82516001600160401b03808211156144e257600080fd5b818501915085601f8301126144f657600080fd5b81518181111561450857614508613ced565b8060051b9150614519848301613d03565b818152918301840191848101908884111561453357600080fd5b938501935b8385101561455d578451925061454d83613b51565b8282529385019390850190614538565b98975050505050505050565b80820180821115610a3f57610a3f6143dc565b6020808252602e908201527f496e697469616c697a61626c653a20636f6e747261637420697320616c72656160408201526d191e481a5b9a5d1a585b1a5e995960921b606082015260800190565b601f8211156114c357600081815260208120601f850160051c810160208610156145f15750805b601f850160051c820191505b81811015614610578281556001016145fd565b505050505050565b6001600160401b0383111561462f5761462f613ced565b6146438361463d83546142be565b836145ca565b6000601f841160018114614677576000851561465f5750838201355b600019600387901b1c1916600186901b178355610bac565b600083815260209020601f19861690835b828110156146a85786850135825560209485019460019092019101614688565b50868210156146c55760001960f88860031b161c19848701351681555b505060018560011b0183555050505050565b6000602082840312156146e957600080fd5b815161171481613b51565b81810381811115610a3f57610a3f6143dc565b634e487b7160e01b600052603260045260246000fd5b60008060006060848603121561473257600080fd5b8351925060208401519150604084015190509250925092565b60006001820161475d5761475d6143dc565b5060010190565b83815260606020820152600061477d6060830185613b12565b82810360408401526115038185613b12565b60ff8281168282160390811115610a3f57610a3f6143dc565b600181815b808511156147e35781600019048211156147c9576147c96143dc565b808516156147d657918102915b93841c93908002906147ad565b509250929050565b6000826147fa57506001610a3f565b8161480757506000610a3f565b816001811461481d576002811461482757614843565b6001915050610a3f565b60ff841115614838576148386143dc565b50506001821b610a3f565b5060208310610133831016604e8410600b8410161715614866575081810a610a3f565b61487083836147a8565b8060001904821115614884576148846143dc565b029392505050565b600061171460ff8416836147eb565b6000826148b857634e487b7160e01b600052601260045260246000fd5b500490565b8082028115828204841417610a3f57610a3f6143dc565b6001600160a01b0387811682528681166020830152851660408201526060810184905260c06080820181905260009061490f90830185613b12565b82810360a08401526149218185613b12565b9998505050505050505050565b60008251614940818460208701613aee565b919091019291505056fe5375706572546f6b656e3a2064656372656173656420616c6c6f77616e63652062656c6f77207a65726fddf252ad1be2c89b69c2b068fc378daa952ba7f163c4a11628f55a4df523b3ef5375706572546f6b656e3a207472616e7366657220616d6f756e74206578636565647320616c6c6f77616e6365a264697066735822122053cd861f8c1af695a8063b3258f81583ed331a1adb7ccdb4e80545ecda16cba664736f6c63430008130033",
    "linkReferences": {}
  },
  "methodIdentifiers": {
    "CONSTANT_INFLOW_NFT()": "4c5c0c85",
    "CONSTANT_OUTFLOW_NFT()": "ef43d2c6",
    "allowance(address,address)": "dd62ed3e",
    "approve(address,uint256)": "095ea7b3",
    "authorizeOperator(address)": "959b8c3f",
    "balanceOf(address)": "70a08231",
    "burn(uint256,bytes)": "fe9d9303",
    "castrate()": "9903ad38",
    "createAgreement(bytes32,bytes32[])": "12a6a3f8",
    "decimals()": "313ce567",
    "decreaseAllowance(address,uint256)": "a457c2d7",
    "defaultOperators()": "06e48538",
    "downgrade(uint256)": "11bcc81e",
    "downgradeTo(address,uint256)": "83ba2525",
    "getAccountActiveAgreements(address)": "386fa221",
    "getAgreementData(address,bytes32,uint256)": "6c2d9f2f",
    "getAgreementStateSlot(address,address,uint256,uint256)": "4b61cc33",
    "getCodeAddress()": "50d75d25",
    "getHost()": "20bc4425",
    "getUnderlyingToken()": "ee719bc8",
    "granularity()": "556f0dc7",
    "increaseAllowance(address,uint256)": "39509351",
    "initialize(address,uint8,string,string)": "42fe0980",
    "isAccountCritical(address,uint256)": "d9d078d6",
    "isAccountCriticalNow(address)": "79359f6f",
    "isAccountSolvent(address,uint256)": "b84cdd4a",
    "isAccountSolventNow(address)": "bb0d196e",
    "isOperatorFor(address,address)": "d95b6371",
    "makeLiquidationPayoutsV2(bytes32,bytes,address,bool,address,uint256,int256)": "1863e809",
    "name()": "06fdde03",
    "operationApprove(address,address,uint256)": "62aa5287",
    "operationDecreaseAllowance(address,address,uint256)": "c780fd82",
    "operationDowngrade(address,uint256)": "245887fc",
    "operationIncreaseAllowance(address,address,uint256)": "4b2763b3",
    "operationSend(address,address,uint256,bytes)": "ca0c1e7f",
    "operationTransferFrom(address,address,address,uint256)": "16d055d6",
    "operationUpgrade(address,uint256)": "ca789464",
    "operatorBurn(address,uint256,bytes,bytes)": "fc673c4f",
    "operatorSend(address,address,uint256,bytes,bytes)": "62ad1b83",
    "proxiableUUID()": "52d1902d",
    "realtimeBalanceOf(address,uint256)": "eb3537cc",
    "realtimeBalanceOfNow(address)": "2ec8eec7",
    "revokeOperator(address)": "fad8b32a",
    "selfApproveFor(address,address,uint256)": "66a12fb6",
    "selfBurn(address,uint256,bytes)": "9d876741",
    "selfMint(address,uint256,bytes)": "c68d4283",
    "selfTransferFrom(address,address,address,uint256)": "41b706be",
    "send(address,uint256,bytes)": "9bd9bbc6",
    "settleBalance(address,int256)": "cf97256d",
    "symbol()": "95d89b41",
    "terminateAgreement(bytes32,uint256)": "27048397",
    "totalSupply()": "18160ddd",
    "transfer(address,uint256)": "a9059cbb",
    "transferAll(address)": "a3a7e7f3",
    "transferFrom(address,address,uint256)": "23b872dd",
    "updateAgreementData(bytes32,bytes32[])": "a1b2bf8b",
    "updateAgreementStateSlot(address,uint256,bytes32[])": "090c415e",
    "updateCode(address)": "46951954",
    "upgrade(uint256)": "45977d03",
    "upgradeTo(address,uint256,bytes)": "5b9d09cc"
  },
  "id": 91
}