{
  "abi": [
    {
      "anonymous": false,
      "inputs": [
        {
          "indexed": true,
          "internalType": "address",
          "name": "account",
          "type": "address"
        },
        {
          "indexed": false,
          "internalType": "uint256",
          "name": "amount",
          "type": "uint256"
        }
      ],
      "name": "TokenDowngraded",
      "type": "event"
    },
    {
      "anonymous": false,
      "inputs": [
        {
          "indexed": true,
          "internalType": "address",
          "name": "account",
          "type": "address"
        },
        {
          "indexed": false,
          "internalType": "uint256",
          "name": "amount",
          "type": "uint256"
        }
      ],
      "name": "TokenUpgraded",
      "type": "event"
    },
    {
      "stateMutability": "payable",
      "type": "fallback"
    },
    {
      "inputs": [
        {
          "internalType": "uint256",
          "name": "wad",
          "type": "uint256"
        }
      ],
      "name": "downgradeToETH",
      "outputs": [],
      "stateMutability": "nonpayable",
      "type": "function"
    },
    {
      "inputs": [
        {
          "internalType": "address",
          "name": "initialAddress",
          "type": "address"
        }
      ],
      "name": "initializeProxy",
      "outputs": [],
      "stateMutability": "nonpayable",
      "type": "function"
    },
    {
      "inputs": [],
      "name": "upgradeByETH",
      "outputs": [],
      "stateMutability": "payable",
      "type": "function"
    },
    {
      "inputs": [
        {
          "internalType": "address",
          "name": "to",
          "type": "address"
        }
      ],
      "name": "upgradeByETHTo",
      "outputs": [],
      "stateMutability": "payable",
      "type": "function"
    },
    {
      "stateMutability": "payable",
      "type": "receive"
    }
  ],
  "bytecode": {
    "object": "0x608060405234801561001057600080fd5b50610569806100206000396000f3fe6080604052600436106100435760003560e01c8063160e8be3146100dd5780634a0687ef146100fd5780637687d19b1461011d578063cf81464b14610130576100d3565b366100d3576040805160008152602081019182905263c68d428360e01b909152309063c68d42839061007c903390349060248101610445565b600060405180830381600087803b15801561009657600080fd5b505af11580156100aa573d6000803e3d6000fd5b5050604051348152339250600080516020610514833981519152915060200160405180910390a2005b6100db610138565b005b3480156100e957600080fd5b506100db6100f83660046104aa565b61014a565b34801561010957600080fd5b506100db6101183660046104c3565b610217565b6100db61012b3660046104c3565b6102e5565b6100db610374565b6101486101436103ff565b61040e565b565b60408051600081526020810191829052639d87674160e01b9091523090639d8767419061017e903390859060248101610445565b600060405180830381600087803b15801561019857600080fd5b505af11580156101ac573d6000803e3d6000fd5b505060405133925083156108fc02915083906000818181858888f193505050501580156101dd573d6000803e3d6000fd5b5060405181815233907f3bc27981aebbb57f9247dc00fde9d6cd91e4b230083fec3238fedbcba1f9ab3d906020015b60405180910390a250565b6001600160a01b03811661026c5760405162461bcd60e51b81526020600482015260176024820152765555505350726f78793a207a65726f206164647265737360481b60448201526064015b60405180910390fd5b6000610276610432565b6001600160a01b0316146102cc5760405162461bcd60e51b815260206004820152601e60248201527f5555505350726f78793a20616c726561647920696e697469616c697a656400006044820152606401610263565b6102e2816000805160206104f483398151915255565b50565b6040805160008152602081019182905263c68d428360e01b909152309063c68d428390610319908490349060248101610445565b600060405180830381600087803b15801561033357600080fd5b505af1158015610347573d6000803e3d6000fd5b50505050806001600160a01b03166000805160206105148339815191523460405161020c91815260200190565b6040805160008152602081019182905263c68d428360e01b909152309063c68d4283906103a8903390349060248101610445565b600060405180830381600087803b1580156103c257600080fd5b505af11580156103d6573d6000803e3d6000fd5b5050604051348152339250600080516020610514833981519152915060200160405180910390a2565b6000610409610432565b905090565b3660008037600080366000845af43d6000803e80801561042d573d6000f35b3d6000fd5b6000805160206104f48339815191525490565b60018060a01b038416815260006020848184015260606040840152835180606085015260005b818110156104875785810183015185820160800152820161046b565b506000608082860101526080601f19601f83011685010192505050949350505050565b6000602082840312156104bc57600080fd5b5035919050565b6000602082840312156104d557600080fd5b81356001600160a01b03811681146104ec57600080fd5b939250505056fe360894a13ba1a3210667c828492db98dca3e2076cc3735a920a3ca505d382bbc25ca84076773b0455db53621c459ddc84fe40840e4932a62706a032566f399dfa2646970667358221220f8eb2e69ab29ada5841c06927c2707624f7aec31147ca856274598afa2e829b264736f6c63430008130033",
    "linkReferences": {}
  },
  "methodIdentifiers": {
    "downgradeToETH(uint256)": "160e8be3",
    "initializeProxy(address)": "4a0687ef",
    "upgradeByETH()": "cf81464b",
    "upgradeByETHTo(address)": "7687d19b"
  },
  "id": 94
}