{
  "abi": [
    {
      "inputs": [
        {
          "internalType": "address",
          "name": "host_",
          "type": "address"
        },
        {
          "internalType": "address",
          "name": "cfa_",
          "type": "address"
        }
      ],
      "stateMutability": "nonpayable",
      "type": "constructor"
    },
    {
      "inputs": [],
      "name": "ARRAY_SIZES_DIFFERENT",
      "type": "error"
    },
    {
      "inputs": [],
      "name": "cfa",
      "outputs": [
        {
          "internalType": "address",
          "name": "",
          "type": "address"
        }
      ],
      "stateMutability": "view",
      "type": "function"
    },
    {
      "inputs": [
        {
          "internalType": "address",
          "name": "superToken",
          "type": "address"
        },
        {
          "internalType": "address",
          "name": "sender",
          "type": "address"
        },
        {
          "internalType": "address",
          "name": "receiver",
          "type": "address"
        }
      ],
      "name": "deleteFlow",
      "outputs": [],
      "stateMutability": "nonpayable",
      "type": "function"
    },
    {
      "inputs": [
        {
          "internalType": "address",
          "name": "superToken",
          "type": "address"
        },
        {
          "internalType": "address[]",
          "name": "senders",
          "type": "address[]"
        },
        {
          "internalType": "address[]",
          "name": "receivers",
          "type": "address[]"
        }
      ],
      "name": "deleteFlows",
      "outputs": [
        {
          "internalType": "uint256",
          "name": "nSuccess",
          "type": "uint256"
        }
      ],
      "stateMutability": "nonpayable",
      "type": "function"
    },
    {
      "inputs": [],
      "name": "host",
      "outputs": [
        {
          "internalType": "address",
          "name": "",
          "type": "address"
        }
      ],
      "stateMutability": "view",
      "type": "function"
    }
  ],
  "bytecode": {
    "object": "0x60c060405234801561001057600080fd5b50604051610a5b380380610a5b83398101604081905261002f91610062565b6001600160a01b039182166080521660a052610095565b80516001600160a01b038116811461005d57600080fd5b919050565b6000806040838503121561007557600080fd5b61007e83610046565b915061008c60208401610046565b90509250929050565b60805160a0516109796100e260003960008181605601528181610133015281816103d101526103f201526000818160c9015281816101070152818161037801526103a201526109796000f3fe608060405234801561001057600080fd5b506004361061004c5760003560e01c80631054df8c146100515780638dc7d29c1461008e5780638f95895f146100a3578063f437bc59146100c4575b600080fd5b6100787f000000000000000000000000000000000000000000000000000000000000000081565b6040516100859190610667565b60405180910390f35b6100a161009c366004610697565b6100eb565b005b6100b66100b1366004610725565b610346565b604051908152602001610085565b6100787f000000000000000000000000000000000000000000000000000000000000000081565b6040805160008082526020820190925281906001600160a01b037f000000000000000000000000000000000000000000000000000000000000000081169182916339255d5b917f00000000000000000000000000000000000000000000000000000000000000009182169063b4b333c69061016f908c908c908c90604481016107f5565b60408051601f19818403018152918152602080830180516001600160e01b031660e09590951b9490941790935280516000815292830190526101b79392509060448101610833565b60408051601f198184030181529181526020820180516001600160e01b031660e09490941b9390931790925290516101ef9250610869565b6000604051808303816000865af19150503d806000811461022c576040519150601f19603f3d011682016040523d82523d6000602084013e610231565b606091505b50915091508161025157805160000361024957600080fd5b805181602001fd5b6040516370a0823160e01b81526000906001600160a01b038716906370a0823190610280903090600401610667565b602060405180830381865afa15801561029d573d6000803e3d6000fd5b505050506040513d601f19601f820116820180604052508101906102c19190610885565b9050801561033e576040516323b872dd60e01b81526001600160a01b038716906323b872dd906102f99030903390869060040161089e565b6020604051808303816000875af1158015610318573d6000803e3d6000fd5b505050506040513d601f19601f8201168201806040525081019061033c91906108c2565b505b505050505050565b6000838281146103695760405163277c943f60e21b815260040160405180910390fd5b60005b8181101561056e5760007f00000000000000000000000000000000000000000000000000000000000000006001600160a01b03167f00000000000000000000000000000000000000000000000000000000000000006001600160a01b03166339255d5b7f00000000000000000000000000000000000000000000000000000000000000007f00000000000000000000000000000000000000000000000000000000000000006001600160a01b031663b4b333c68e8e8e8a818110610432576104326108eb565b90506020020160208101906104479190610901565b8d8d8b818110610459576104596108eb565b905060200201602081019061046e9190610901565b60408051600081526020810190915261048d93929190604481016107f5565b60408051601f19818403018152918152602080830180516001600160e01b031660e09590951b9490941790935280516000815292830190526104d59392509060448101610833565b60408051601f198184030181529181526020820180516001600160e01b031660e09490941b93909317909252905161050d9250610869565b6000604051808303816000865af19150503d806000811461054a576040519150601f19603f3d011682016040523d82523d6000602084013e61054f565b606091505b505090508015610565576105628461091c565b93505b5060010161036c565b506040516370a0823160e01b81526000906001600160a01b038916906370a082319061059e903090600401610667565b602060405180830381865afa1580156105bb573d6000803e3d6000fd5b505050506040513d601f19601f820116820180604052508101906105df9190610885565b9050801561065c576040516323b872dd60e01b81526001600160a01b038916906323b872dd906106179030903390869060040161089e565b6020604051808303816000875af1158015610636573d6000803e3d6000fd5b505050506040513d601f19601f8201168201806040525081019061065a91906108c2565b505b505095945050505050565b6001600160a01b0391909116815260200190565b80356001600160a01b038116811461069257600080fd5b919050565b6000806000606084860312156106ac57600080fd5b6106b58461067b565b92506106c36020850161067b565b91506106d16040850161067b565b90509250925092565b60008083601f8401126106ec57600080fd5b5081356001600160401b0381111561070357600080fd5b6020830191508360208260051b850101111561071e57600080fd5b9250929050565b60008060008060006060868803121561073d57600080fd5b6107468661067b565b945060208601356001600160401b038082111561076257600080fd5b61076e89838a016106da565b9096509450604088013591508082111561078757600080fd5b50610794888289016106da565b969995985093965092949392505050565b60005b838110156107c05781810151838201526020016107a8565b50506000910152565b600081518084526107e18160208601602086016107a5565b601f01601f19169290920160200192915050565b6001600160a01b038581168252848116602083015283166040820152608060608201819052600090610829908301846107c9565b9695505050505050565b6001600160a01b0384168152606060208201819052600090610857908301856107c9565b828103604084015261082981856107c9565b6000825161087b8184602087016107a5565b9190910192915050565b60006020828403121561089757600080fd5b5051919050565b6001600160a01b039384168152919092166020820152604081019190915260600190565b6000602082840312156108d457600080fd5b815180151581146108e457600080fd5b9392505050565b634e487b7160e01b600052603260045260246000fd5b60006020828403121561091357600080fd5b6108e48261067b565b60006001820161093c57634e487b7160e01b600052601160045260246000fd5b506001019056fea26469706673582212209b9df32459d7d5180886cabb445cf0bac48774ba6abfb1e142d0656f6f88fc7a64736f6c63430008130033",
    "linkReferences": {}
  },
  "methodIdentifiers": {
    "cfa()": "1054df8c",
    "deleteFlow(address,address,address)": "8dc7d29c",
    "deleteFlows(address,address[],address[])": "8f95895f",
    "host()": "f437bc59"
  },
  "id": 98
}