{
  "abi": [
    {
      "inputs": [
        {
          "internalType": "address",
          "name": "host_",
          "type": "address"
        },
        {
          "internalType": "address",
          "name": "cfa_",
          "type": "address"
        }
      ],
      "stateMutability": "nonpayable",
      "type": "constructor"
    },
    {
      "inputs": [],
      "name": "ARRAY_SIZES_DIFFERENT",
      "type": "error"
    },
    {
      "inputs": [],
      "name": "cfa",
      "outputs": [
        {
          "internalType": "address",
          "name": "",
          "type": "address"
        }
      ],
      "stateMutability": "view",
      "type": "function"
    },
    {
      "inputs": [
        {
          "internalType": "address",
          "name": "superToken",
          "type": "address"
        },
        {
          "internalType": "address",
          "name": "sender",
          "type": "address"
        },
        {
          "internalType": "address",
          "name": "receiver",
          "type": "address"
        }
      ],
      "name": "deleteFlow",
      "outputs": [],
      "stateMutability": "nonpayable",
      "type": "function"
    },
    {
      "inputs": [
        {
          "internalType": "address",
          "name": "superToken",
          "type": "address"
        },
        {
          "internalType": "address[]",
          "name": "senders",
          "type": "address[]"
        },
        {
          "internalType": "address[]",
          "name": "receivers",
          "type": "address[]"
        }
      ],
      "name": "deleteFlows",
      "outputs": [
        {
          "internalType": "uint256",
          "name": "nSuccess",
          "type": "uint256"
        }
      ],
      "stateMutability": "nonpayable",
      "type": "function"
    },
    {
      "inputs": [],
      "name": "host",
      "outputs": [
        {
          "internalType": "address",
          "name": "",
          "type": "address"
        }
      ],
      "stateMutability": "view",
      "type": "function"
    }
  ],
  "bytecode": {
    "object": "0x60c060405234801561001057600080fd5b50604051610a2a380380610a2a83398101604081905261002f91610062565b6001600160a01b039182166080521660a052610095565b80516001600160a01b038116811461005d57600080fd5b919050565b6000806040838503121561007557600080fd5b61007e83610046565b915061008c60208401610046565b90509250929050565b60805160a0516109486100e26000396000818160560152818161013a015281816103d701526103f801526000818160d00152818161010e0152818161037e01526103a801526109486000f3fe608060405234801561001057600080fd5b506004361061004c5760003560e01c80631054df8c146100515780638dc7d29c146100955780638f95895f146100aa578063f437bc59146100cb575b600080fd5b6100787f000000000000000000000000000000000000000000000000000000000000000081565b6040516001600160a01b0390911681526020015b60405180910390f35b6100a86100a3366004610688565b6100f2565b005b6100bd6100b8366004610717565b61034c565b60405190815260200161008c565b6100787f000000000000000000000000000000000000000000000000000000000000000081565b6040805160008082526020820190925281906001600160a01b037f000000000000000000000000000000000000000000000000000000000000000081169182916339255d5b917f00000000000000000000000000000000000000000000000000000000000000009182169063b4b333c690610176908c908c908c90604481016107e8565b60408051601f19818403018152918152602080830180516001600160e01b031660e09590951b9490941790935280516000815292830190526101be9392509060448101610826565b60408051601f198184030181529181526020820180516001600160e01b031660e09490941b9390931790925290516101f6925061085c565b6000604051808303816000865af19150503d8060008114610233576040519150601f19603f3d011682016040523d82523d6000602084013e610238565b606091505b50915091508161025857805160000361025057600080fd5b805181602001fd5b6040516370a0823160e01b81523060048201526000906001600160a01b038716906370a0823190602401602060405180830381865afa15801561029f573d6000803e3d6000fd5b505050506040513d601f19601f820116820180604052508101906102c39190610878565b90508015610344576040516323b872dd60e01b8152306004820152336024820152604481018290526001600160a01b038716906323b872dd906064016020604051808303816000875af115801561031e573d6000803e3d6000fd5b505050506040513d601f19601f820116820180604052508101906103429190610891565b505b505050505050565b60008382811461036f5760405163277c943f60e21b815260040160405180910390fd5b60005b818110156105745760007f00000000000000000000000000000000000000000000000000000000000000006001600160a01b03167f00000000000000000000000000000000000000000000000000000000000000006001600160a01b03166339255d5b7f00000000000000000000000000000000000000000000000000000000000000007f00000000000000000000000000000000000000000000000000000000000000006001600160a01b031663b4b333c68e8e8e8a818110610438576104386108ba565b905060200201602081019061044d91906108d0565b8d8d8b81811061045f5761045f6108ba565b905060200201602081019061047491906108d0565b60408051600081526020810190915261049393929190604481016107e8565b60408051601f19818403018152918152602080830180516001600160e01b031660e09590951b9490941790935280516000815292830190526104db9392509060448101610826565b60408051601f198184030181529181526020820180516001600160e01b031660e09490941b939093179092529051610513925061085c565b6000604051808303816000865af19150503d8060008114610550576040519150601f19603f3d011682016040523d82523d6000602084013e610555565b606091505b50509050801561056b57610568846108eb565b93505b50600101610372565b506040516370a0823160e01b81523060048201526000906001600160a01b038916906370a0823190602401602060405180830381865afa1580156105bc573d6000803e3d6000fd5b505050506040513d601f19601f820116820180604052508101906105e09190610878565b90508015610661576040516323b872dd60e01b8152306004820152336024820152604481018290526001600160a01b038916906323b872dd906064016020604051808303816000875af115801561063b573d6000803e3d6000fd5b505050506040513d601f19601f8201168201806040525081019061065f9190610891565b505b505095945050505050565b80356001600160a01b038116811461068357600080fd5b919050565b60008060006060848603121561069d57600080fd5b6106a68461066c565b92506106b46020850161066c565b91506106c26040850161066c565b90509250925092565b60008083601f8401126106dd57600080fd5b50813567ffffffffffffffff8111156106f557600080fd5b6020830191508360208260051b850101111561071057600080fd5b9250929050565b60008060008060006060868803121561072f57600080fd5b6107388661066c565b9450602086013567ffffffffffffffff8082111561075557600080fd5b61076189838a016106cb565b9096509450604088013591508082111561077a57600080fd5b50610787888289016106cb565b969995985093965092949392505050565b60005b838110156107b357818101518382015260200161079b565b50506000910152565b600081518084526107d4816020860160208601610798565b601f01601f19169290920160200192915050565b6001600160a01b03858116825284811660208301528316604082015260806060820181905260009061081c908301846107bc565b9695505050505050565b6001600160a01b038416815260606020820181905260009061084a908301856107bc565b828103604084015261081c81856107bc565b6000825161086e818460208701610798565b9190910192915050565b60006020828403121561088a57600080fd5b5051919050565b6000602082840312156108a357600080fd5b815180151581146108b357600080fd5b9392505050565b634e487b7160e01b600052603260045260246000fd5b6000602082840312156108e257600080fd5b6108b38261066c565b60006001820161090b57634e487b7160e01b600052601160045260246000fd5b506001019056fea2646970667358221220615f91019342961138924d79a31177944d3b979afcca0b39dedc695acd83102a64736f6c63430008130033",
    "linkReferences": {}
  },
  "methodIdentifiers": {
    "cfa()": "1054df8c",
    "deleteFlow(address,address,address)": "8dc7d29c",
    "deleteFlows(address,address[],address[])": "8f95895f",
    "host()": "f437bc59"
  },
  "id": 101
}