{
  "abi": [
    {
      "inputs": [
        {
          "internalType": "contract ISuperfluid",
          "name": "host",
          "type": "address"
        },
        {
          "internalType": "contract IConstantOutflowNFT",
          "name": "constantOutflowNFT",
          "type": "address"
        }
      ],
      "stateMutability": "nonpayable",
      "type": "constructor"
    },
    {
      "inputs": [],
      "name": "CFA_NFT_APPROVE_CALLER_NOT_OWNER_OR_APPROVED_FOR_ALL",
      "type": "error"
    },
    {
      "inputs": [],
      "name": "CFA_NFT_APPROVE_TO_CALLER",
      "type": "error"
    },
    {
      "inputs": [],
      "name": "CFA_NFT_APPROVE_TO_CURRENT_OWNER",
      "type": "error"
    },
    {
      "inputs": [],
      "name": "CFA_NFT_INVALID_TOKEN_ID",
      "type": "error"
    },
    {
      "inputs": [],
      "name": "CFA_NFT_ONLY_SUPER_TOKEN_FACTORY",
      "type": "error"
    },
    {
      "inputs": [],
      "name": "CFA_NFT_TRANSFER_CALLER_NOT_OWNER_OR_APPROVED_FOR_ALL",
      "type": "error"
    },
    {
      "inputs": [],
      "name": "CFA_NFT_TRANSFER_FROM_INCORRECT_OWNER",
      "type": "error"
    },
    {
      "inputs": [],
      "name": "CFA_NFT_TRANSFER_IS_NOT_ALLOWED",
      "type": "error"
    },
    {
      "inputs": [],
      "name": "CFA_NFT_TRANSFER_TO_ZERO_ADDRESS",
      "type": "error"
    },
    {
      "inputs": [],
      "name": "CIF_NFT_ONLY_CONSTANT_OUTFLOW",
      "type": "error"
    },
    {
      "anonymous": false,
      "inputs": [
        {
          "indexed": true,
          "internalType": "address",
          "name": "owner",
          "type": "address"
        },
        {
          "indexed": true,
          "internalType": "address",
          "name": "approved",
          "type": "address"
        },
        {
          "indexed": true,
          "internalType": "uint256",
          "name": "tokenId",
          "type": "uint256"
        }
      ],
      "name": "Approval",
      "type": "event"
    },
    {
      "anonymous": false,
      "inputs": [
        {
          "indexed": true,
          "internalType": "address",
          "name": "owner",
          "type": "address"
        },
        {
          "indexed": true,
          "internalType": "address",
          "name": "operator",
          "type": "address"
        },
        {
          "indexed": false,
          "internalType": "bool",
          "name": "approved",
          "type": "bool"
        }
      ],
      "name": "ApprovalForAll",
      "type": "event"
    },
    {
      "anonymous": false,
      "inputs": [
        {
          "indexed": false,
          "internalType": "bytes32",
          "name": "uuid",
          "type": "bytes32"
        },
        {
          "indexed": false,
          "internalType": "address",
          "name": "codeAddress",
          "type": "address"
        }
      ],
      "name": "CodeUpdated",
      "type": "event"
    },
    {
      "anonymous": false,
      "inputs": [
        {
          "indexed": false,
          "internalType": "uint8",
          "name": "version",
          "type": "uint8"
        }
      ],
      "name": "Initialized",
      "type": "event"
    },
    {
      "anonymous": false,
      "inputs": [
        {
          "indexed": false,
          "internalType": "uint256",
          "name": "tokenId",
          "type": "uint256"
        }
      ],
      "name": "MetadataUpdate",
      "type": "event"
    },
    {
      "anonymous": false,
      "inputs": [
        {
          "indexed": true,
          "internalType": "address",
          "name": "from",
          "type": "address"
        },
        {
          "indexed": true,
          "internalType": "address",
          "name": "to",
          "type": "address"
        },
        {
          "indexed": true,
          "internalType": "uint256",
          "name": "tokenId",
          "type": "uint256"
        }
      ],
      "name": "Transfer",
      "type": "event"
    },
    {
      "inputs": [],
      "name": "CONSTANT_FLOW_AGREEMENT_V1",
      "outputs": [
        {
          "internalType": "contract IConstantFlowAgreementV1",
          "name": "",
          "type": "address"
        }
      ],
      "stateMutability": "view",
      "type": "function"
    },
    {
      "inputs": [],
      "name": "CONSTANT_OUTFLOW_NFT",
      "outputs": [
        {
          "internalType": "contract IConstantOutflowNFT",
          "name": "",
          "type": "address"
        }
      ],
      "stateMutability": "view",
      "type": "function"
    },
    {
      "inputs": [],
      "name": "DEFAULT_BASE_URI",
      "outputs": [
        {
          "internalType": "string",
          "name": "",
          "type": "string"
        }
      ],
      "stateMutability": "view",
      "type": "function"
    },
    {
      "inputs": [],
      "name": "HOST",
      "outputs": [
        {
          "internalType": "contract ISuperfluid",
          "name": "",
          "type": "address"
        }
      ],
      "stateMutability": "view",
      "type": "function"
    },
    {
      "inputs": [
        {
          "internalType": "address",
          "name": "to",
          "type": "address"
        },
        {
          "internalType": "uint256",
          "name": "tokenId",
          "type": "uint256"
        }
      ],
      "name": "approve",
      "outputs": [],
      "stateMutability": "nonpayable",
      "type": "function"
    },
    {
      "inputs": [
        {
          "internalType": "address",
          "name": "",
          "type": "address"
        }
      ],
      "name": "balanceOf",
      "outputs": [
        {
          "internalType": "uint256",
          "name": "balance",
          "type": "uint256"
        }
      ],
      "stateMutability": "pure",
      "type": "function"
    },
    {
      "inputs": [],
      "name": "baseURI",
      "outputs": [
        {
          "internalType": "string",
          "name": "",
          "type": "string"
        }
      ],
      "stateMutability": "pure",
      "type": "function"
    },
    {
      "inputs": [
        {
          "internalType": "uint256",
          "name": "tokenId",
          "type": "uint256"
        }
      ],
      "name": "burn",
      "outputs": [],
      "stateMutability": "nonpayable",
      "type": "function"
    },
    {
      "inputs": [],
      "name": "castrate",
      "outputs": [],
      "stateMutability": "nonpayable",
      "type": "function"
    },
    {
      "inputs": [
        {
          "internalType": "uint256",
          "name": "tokenId",
          "type": "uint256"
        }
      ],
      "name": "flowDataByTokenId",
      "outputs": [
        {
          "components": [
            {
              "internalType": "address",
              "name": "superToken",
              "type": "address"
            },
            {
              "internalType": "address",
              "name": "flowSender",
              "type": "address"
            },
            {
              "internalType": "address",
              "name": "flowReceiver",
              "type": "address"
            },
            {
              "internalType": "uint32",
              "name": "flowStartDate",
              "type": "uint32"
            }
          ],
          "internalType": "struct IFlowNFTBase.FlowNFTData",
          "name": "flowData",
          "type": "tuple"
        }
      ],
      "stateMutability": "view",
      "type": "function"
    },
    {
      "inputs": [
        {
          "internalType": "uint256",
          "name": "tokenId",
          "type": "uint256"
        }
      ],
      "name": "getApproved",
      "outputs": [
        {
          "internalType": "address",
          "name": "",
          "type": "address"
        }
      ],
      "stateMutability": "view",
      "type": "function"
    },
    {
      "inputs": [],
      "name": "getCodeAddress",
      "outputs": [
        {
          "internalType": "address",
          "name": "codeAddress",
          "type": "address"
        }
      ],
      "stateMutability": "view",
      "type": "function"
    },
    {
      "inputs": [
        {
          "internalType": "address",
          "name": "superToken",
          "type": "address"
        },
        {
          "internalType": "address",
          "name": "sender",
          "type": "address"
        },
        {
          "internalType": "address",
          "name": "receiver",
          "type": "address"
        }
      ],
      "name": "getTokenId",
      "outputs": [
        {
          "internalType": "uint256",
          "name": "tokenId",
          "type": "uint256"
        }
      ],
      "stateMutability": "view",
      "type": "function"
    },
    {
      "inputs": [
        {
          "internalType": "string",
          "name": "nftName",
          "type": "string"
        },
        {
          "internalType": "string",
          "name": "nftSymbol",
          "type": "string"
        }
      ],
      "name": "initialize",
      "outputs": [],
      "stateMutability": "nonpayable",
      "type": "function"
    },
    {
      "inputs": [
        {
          "internalType": "address",
          "name": "owner",
          "type": "address"
        },
        {
          "internalType": "address",
          "name": "operator",
          "type": "address"
        }
      ],
      "name": "isApprovedForAll",
      "outputs": [
        {
          "internalType": "bool",
          "name": "",
          "type": "bool"
        }
      ],
      "stateMutability": "view",
      "type": "function"
    },
    {
      "inputs": [
        {
          "internalType": "address",
          "name": "to",
          "type": "address"
        },
        {
          "internalType": "uint256",
          "name": "newTokenId",
          "type": "uint256"
        }
      ],
      "name": "mint",
      "outputs": [],
      "stateMutability": "nonpayable",
      "type": "function"
    },
    {
      "inputs": [],
      "name": "name",
      "outputs": [
        {
          "internalType": "string",
          "name": "",
          "type": "string"
        }
      ],
      "stateMutability": "view",
      "type": "function"
    },
    {
      "inputs": [
        {
          "internalType": "uint256",
          "name": "tokenId",
          "type": "uint256"
        }
      ],
      "name": "ownerOf",
      "outputs": [
        {
          "internalType": "address",
          "name": "",
          "type": "address"
        }
      ],
      "stateMutability": "view",
      "type": "function"
    },
    {
      "inputs": [],
      "name": "proxiableUUID",
      "outputs": [
        {
          "internalType": "bytes32",
          "name": "",
          "type": "bytes32"
        }
      ],
      "stateMutability": "pure",
      "type": "function"
    },
    {
      "inputs": [
        {
          "internalType": "address",
          "name": "from",
          "type": "address"
        },
        {
          "internalType": "address",
          "name": "to",
          "type": "address"
        },
        {
          "internalType": "uint256",
          "name": "tokenId",
          "type": "uint256"
        }
      ],
      "name": "safeTransferFrom",
      "outputs": [],
      "stateMutability": "nonpayable",
      "type": "function"
    },
    {
      "inputs": [
        {
          "internalType": "address",
          "name": "from",
          "type": "address"
        },
        {
          "internalType": "address",
          "name": "to",
          "type": "address"
        },
        {
          "internalType": "uint256",
          "name": "tokenId",
          "type": "uint256"
        },
        {
          "internalType": "bytes",
          "name": "data",
          "type": "bytes"
        }
      ],
      "name": "safeTransferFrom",
      "outputs": [],
      "stateMutability": "nonpayable",
      "type": "function"
    },
    {
      "inputs": [
        {
          "internalType": "address",
          "name": "operator",
          "type": "address"
        },
        {
          "internalType": "bool",
          "name": "approved",
          "type": "bool"
        }
      ],
      "name": "setApprovalForAll",
      "outputs": [],
      "stateMutability": "nonpayable",
      "type": "function"
    },
    {
      "inputs": [
        {
          "internalType": "bytes4",
          "name": "interfaceId",
          "type": "bytes4"
        }
      ],
      "name": "supportsInterface",
      "outputs": [
        {
          "internalType": "bool",
          "name": "",
          "type": "bool"
        }
      ],
      "stateMutability": "pure",
      "type": "function"
    },
    {
      "inputs": [],
      "name": "symbol",
      "outputs": [
        {
          "internalType": "string",
          "name": "",
          "type": "string"
        }
      ],
      "stateMutability": "view",
      "type": "function"
    },
    {
      "inputs": [
        {
          "internalType": "uint256",
          "name": "tokenId",
          "type": "uint256"
        }
      ],
      "name": "tokenURI",
      "outputs": [
        {
          "internalType": "string",
          "name": "",
          "type": "string"
        }
      ],
      "stateMutability": "view",
      "type": "function"
    },
    {
      "inputs": [
        {
          "internalType": "address",
          "name": "from",
          "type": "address"
        },
        {
          "internalType": "address",
          "name": "to",
          "type": "address"
        },
        {
          "internalType": "uint256",
          "name": "tokenId",
          "type": "uint256"
        }
      ],
      "name": "transferFrom",
      "outputs": [],
      "stateMutability": "nonpayable",
      "type": "function"
    },
    {
      "inputs": [
        {
          "internalType": "uint256",
          "name": "tokenId",
          "type": "uint256"
        }
      ],
      "name": "triggerMetadataUpdate",
      "outputs": [],
      "stateMutability": "nonpayable",
      "type": "function"
    },
    {
      "inputs": [
        {
          "internalType": "address",
          "name": "newAddress",
          "type": "address"
        }
      ],
      "name": "updateCode",
      "outputs": [],
      "stateMutability": "nonpayable",
      "type": "function"
    }
  ],
  "bytecode": {
    "object": "0x60e06040523480156200001157600080fd5b50604051620021ae380380620021ae8339810160408190526200003491620000fd565b6001600160a01b03821660a0819052604051635b69006f60e11b81527fa9214cc96615e0085d3bb077758db69497dc2dce3b2b1e97bc93c3d18d83efd3600482015283919063b6d200de90602401602060405180830381865afa158015620000a0573d6000803e3d6000fd5b505050506040513d601f19601f82011682018060405250810190620000c691906200013c565b6001600160a01b039081166080529190911660c05250620001639050565b6001600160a01b0381168114620000fa57600080fd5b50565b600080604083850312156200011157600080fd5b82516200011e81620000e4565b60208401519092506200013181620000e4565b809150509250929050565b6000602082840312156200014f57600080fd5b81516200015c81620000e4565b9392505050565b60805160a05160c051611ff8620001b66000396000818161045501528181610657015281816106c901526109c30152600081816102e4015261071401526000818161024b01526110cf0152611ff86000f3fe608060405234801561001057600080fd5b50600436106101c45760003560e01c806352d1902d116100f95780639903ad3811610097578063b88d4fde11610071578063b88d4fde14610417578063c87b56dd1461042a578063e985e9c51461043d578063ef43d2c61461045057600080fd5b80639903ad38146103f4578063a22cb465146103fc578063a497325b1461040f57600080fd5b806370a08231116100d357806370a082311461036c57806389f71d2d146103805780638d47859e1461039357806395d89b41146103ec57600080fd5b806352d1902d146103215780636352211e146103515780636c0360eb1461036457600080fd5b806340c10f1911610166578063469519541161014057806346951954146102cc57806349f289dc146102df5780634cd88b761461030657806350d75d251461031957600080fd5b806340c10f191461029357806342842e0e146102a657806342966c68146102b957600080fd5b8063095ea7b3116101a2578063095ea7b314610231578063181561011461024657806323b872dd1461026d5780632f3885601461028057600080fd5b806301ffc9a7146101c957806306fdde03146101f1578063081812fc14610206575b600080fd5b6101dc6101d7366004611680565b610477565b60405190151581526020015b60405180910390f35b6101f96104c9565b6040516101e891906116ce565b610219610214366004611701565b61055b565b6040516001600160a01b0390911681526020016101e8565b61024461023f36600461172f565b610582565b005b6102197f000000000000000000000000000000000000000000000000000000000000000081565b61024461027b36600461175b565b61060e565b61024461028e366004611701565b610640565b6102446102a136600461172f565b61064c565b6102446102b436600461175b565b6106a3565b6102446102c7366004611701565b6106be565b6102446102da36600461179c565b610710565b6102197f000000000000000000000000000000000000000000000000000000000000000081565b610244610314366004611886565b6107c8565b6102196108ae565b7f9a61ea3469d742a522f41a67608e442d2c27902bed81123f00ba6d3e12e9871e5b6040519081526020016101e8565b61021961035f366004611701565b6108dd565b6101f9610912565b61034361037a36600461179c565b50600190565b61034361038e3660046118ea565b610932565b6103a66103a1366004611701565b610985565b6040805182516001600160a01b03908116825260208085015182169083015283830151169181019190915260609182015163ffffffff16918101919091526080016101e8565b6101f9610a2e565b610244610a3d565b61024461040a366004611935565b610aff565b6101f9610b0a565b610244610425366004611973565b610b26565b6101f9610438366004611701565b610b5f565b6101dc61044b3660046119f3565b610b6c565b6102197f000000000000000000000000000000000000000000000000000000000000000081565b60006301ffc9a760e01b6001600160e01b0319831614806104a857506380ac58cd60e01b6001600160e01b03198316145b806104c35750635b5e139f60e01b6001600160e01b03198316145b92915050565b6060600180546104d890611a21565b80601f016020809104026020016040519081016040528092919081815260200182805461050490611a21565b80156105515780601f1061052657610100808354040283529160200191610551565b820191906000526020600020905b81548152906001019060200180831161053457829003601f168201915b5050505050905090565b600061056682610b9a565b506000908152600360205260409020546001600160a01b031690565b600061058d826108dd565b9050806001600160a01b0316836001600160a01b0316036105c15760405163e4790b2560e01b815260040160405180910390fd5b336001600160a01b038216148015906105e157506105df8133610b6c565b155b156105ff5760405163519a92c160e11b815260040160405180910390fd5b6106098383610bc0565b505050565b6106183382610c2e565b610635576040516312a8eb0360e11b815260040160405180910390fd5b610609838383610c8c565b61064981610ca5565b50565b336001600160a01b037f000000000000000000000000000000000000000000000000000000000000000016146106955760405163740f7abd60e11b815260040160405180910390fd5b61069f8282610cd5565b5050565b61060983838360405180602001604052806000815250610b26565b336001600160a01b037f000000000000000000000000000000000000000000000000000000000000000016146107075760405163740f7abd60e11b815260040160405180910390fd5b61064981610d11565b60007f00000000000000000000000000000000000000000000000000000000000000006001600160a01b031663731aed6e6040518163ffffffff1660e01b8152600401602060405180830381865afa158015610770573d6000803e3d6000fd5b505050506040513d601f19601f820116820180604052508101906107949190611a5b565b9050336001600160a01b038216146107bf5760405163ebb7505b60e01b815260040160405180910390fd5b61069f82610d84565b600054610100900460ff16158080156107e85750600054600160ff909116105b806108025750303b158015610802575060005460ff166001145b6108275760405162461bcd60e51b815260040161081e90611a78565b60405180910390fd5b6000805460ff19166001179055801561084a576000805461ff0019166101001790555b60016108568482611b14565b5060026108638382611b14565b508015610609576000805461ff0019169055604051600181527f7f26b83ff96e1f2b6a682f133852f6798a09c465da95921460cefb38474024989060200160405180910390a1505050565b60006108d87f360894a13ba1a3210667c828492db98dca3e2076cc3735a920a3ca505d382bbc5490565b905090565b6000806108e983610fbe565b90506001600160a01b0381166104c35760405163eab95e3b60e01b815260040160405180910390fd5b60606040518060600160405280602d8152602001611f96602d9139905090565b60408051466020808301919091526001600160a01b0380871683850152808616606084015284166080808401919091528351808403909101815260a090920190925280519101206000905b949350505050565b60408051608081018252600080825260208201819052818301819052606082015290516346a3c2cf60e11b8152600481018390526001600160a01b037f00000000000000000000000000000000000000000000000000000000000000001690638d47859e90602401608060405180830381865afa158015610a0a573d6000803e3d6000fd5b505050506040513d601f19601f820116820180604052508101906104c39190611bd4565b6060600280546104d890611a21565b600054610100900460ff1615808015610a5d5750600054600160ff909116105b80610a775750303b158015610a77575060005460ff166001145b610a935760405162461bcd60e51b815260040161081e90611a78565b6000805460ff191660011790558015610ab6576000805461ff0019166101001790555b8015610649576000805461ff0019169055604051600181527f7f26b83ff96e1f2b6a682f133852f6798a09c465da95921460cefb3847402498906020015b60405180910390a150565b61069f338383610fd5565b6040518060600160405280602d8152602001611f96602d913981565b610b303383610c2e565b610b4d576040516312a8eb0360e11b815260040160405180910390fd5b610b5984848484611074565b50505050565b60606104c382600161107f565b6001600160a01b03918216600090815260046020908152604080832093909416825291909152205460ff1690565b610ba3816111da565b6106495760405163eab95e3b60e01b815260040160405180910390fd5b600081815260036020526040902080546001600160a01b0319166001600160a01b0384169081179091558190610bf582610fbe565b6001600160a01b03167f8c5be1e5ebec7d5bd14f71427d1e84f3dd0314c0f7b2291e5b200ac8c7c3b92560405160405180910390a45050565b600080610c3a836108dd565b9050806001600160a01b0316846001600160a01b03161480610c615750610c618185610b6c565b8061097d5750836001600160a01b0316610c7a8461055b565b6001600160a01b031614949350505050565b60405163553a3f6560e11b815260040160405180910390fd5b6040518181527ff8e1a15aba9398e019f0b49df1a4fde98ee17ae345cb5f6b5e2c27f5033e8ce790602001610af4565b60405181906001600160a01b038416906000907fddf252ad1be2c89b69c2b068fc378daa952ba7f163c4a11628f55a4df523b3ef908290a45050565b6000610d1c82610985565b600083815260036020526040902080546001600160a01b031916905590508160006001600160a01b031682604001516001600160a01b03167fddf252ad1be2c89b69c2b068fc378daa952ba7f163c4a11628f55a4df523b3ef60405160405180910390a45050565b6000610dae7f360894a13ba1a3210667c828492db98dca3e2076cc3735a920a3ca505d382bbc5490565b6001600160a01b031603610e045760405162461bcd60e51b815260206004820152601d60248201527f5555505350726f786961626c653a206e6f742075706772616461626c65000000604482015260640161081e565b806001600160a01b03166352d1902d6040518163ffffffff1660e01b8152600401602060405180830381865afa158015610e42573d6000803e3d6000fd5b505050506040513d601f19601f82011682018060405250810190610e669190611c62565b7f9a61ea3469d742a522f41a67608e442d2c27902bed81123f00ba6d3e12e9871e14610ee05760405162461bcd60e51b815260206004820152602360248201527f5555505350726f786961626c653a206e6f7420636f6d70617469626c65206c6f60448201526267696360e81b606482015260840161081e565b6001600160a01b0381163003610f385760405162461bcd60e51b815260206004820152601960248201527f5555505350726f786961626c653a2070726f7879206c6f6f7000000000000000604482015260640161081e565b610f60817f360894a13ba1a3210667c828492db98dca3e2076cc3735a920a3ca505d382bbc55565b7fe011bc04c286c344a8fcbb8de77f953da762c3e25d8cdea984147fc4168a5dcc7f9a61ea3469d742a522f41a67608e442d2c27902bed81123f00ba6d3e12e9871e604080519182526001600160a01b038416602083015201610af4565b600080610fca83610985565b604001519392505050565b816001600160a01b0316836001600160a01b0316036110075760405163d3c7732960e01b815260040160405180910390fd5b6001600160a01b03838116600081815260046020908152604080832094871680845294825291829020805460ff191686151590811790915591519182527f17307eab39ab6107e8899845ad3d59bd9653f200f220920489ca2b5937696c31910160405180910390a3505050565b610b59848484610c8c565b6060600061108c84610985565b805160208201516040808401519051631cd43d1160e31b81526001600160a01b0380851660048301529283166024820152908216604482015292935090916000917f0000000000000000000000000000000000000000000000000000000000000000169063e6a1e88890606401608060405180830381865afa158015611116573d6000803e3d6000fd5b505050506040513d601f19601f8201168201806040525081019061113a9190611c7b565b5050915050611147610912565b61115e826bffffffffffffffffffffffff166111f7565b8661118557604051806040016040528060048152602001637472756560e01b8152506111a4565b6040518060400160405280600581526020016466616c736560d81b8152505b6111ad8961128a565b6040516020016111c09493929190611cdb565b604051602081830303815290604052935050505092915050565b6000806111e683610fbe565b6001600160a01b0316141592915050565b6060600061120483611405565b600101905060008167ffffffffffffffff811115611224576112246117b9565b6040519080825280601f01601f19166020018201604052801561124e576020820181803683370190505b5090508181016020015b600019016f181899199a1a9b1b9c1cb0b131b232b360811b600a86061a8153600a850494508461125857509392505050565b6060600061129783610985565b90506112b181600001516001600160a01b031660146114dd565b6112ba466111f7565b82600001516001600160a01b03166395d89b416040518163ffffffff1660e01b8152600401600060405180830381865afa1580156112fc573d6000803e3d6000fd5b505050506040513d6000823e601f3d908101601f191682016040526113249190810190611d63565b61133c84602001516001600160a01b031660146114dd565b61135485604001516001600160a01b031660146114dd565b6113c586600001516001600160a01b031663313ce5676040518163ffffffff1660e01b8152600401602060405180830381865afa158015611399573d6000803e3d6000fd5b505050506040513d601f19601f820116820180604052508101906113bd9190611dda565b60ff166111f7565b6113d8876060015163ffffffff166111f7565b6040516020016113ee9796959493929190611dfd565b604051602081830303815290604052915050919050565b60008072184f03e93ff9f4daa797ed6e38ed64bf6a1f0160401b83106114445772184f03e93ff9f4daa797ed6e38ed64bf6a1f0160401b830492506040015b6d04ee2d6d415b85acef81000000008310611470576d04ee2d6d415b85acef8100000000830492506020015b662386f26fc10000831061148e57662386f26fc10000830492506010015b6305f5e10083106114a6576305f5e100830492506008015b61271083106114ba57612710830492506004015b606483106114cc576064830492506002015b600a83106104c35760010192915050565b606060006114ec836002611f3e565b6114f7906002611f55565b67ffffffffffffffff81111561150f5761150f6117b9565b6040519080825280601f01601f191660200182016040528015611539576020820181803683370190505b509050600360fc1b8160008151811061155457611554611f68565b60200101906001600160f81b031916908160001a905350600f60fb1b8160018151811061158357611583611f68565b60200101906001600160f81b031916908160001a90535060006115a7846002611f3e565b6115b2906001611f55565b90505b600181111561162a576f181899199a1a9b1b9c1cb0b131b232b360811b85600f16601081106115e6576115e6611f68565b1a60f81b8282815181106115fc576115fc611f68565b60200101906001600160f81b031916908160001a90535060049490941c9361162381611f7e565b90506115b5565b5083156116795760405162461bcd60e51b815260206004820181905260248201527f537472696e67733a20686578206c656e67746820696e73756666696369656e74604482015260640161081e565b9392505050565b60006020828403121561169257600080fd5b81356001600160e01b03198116811461167957600080fd5b60005b838110156116c55781810151838201526020016116ad565b50506000910152565b60208152600082518060208401526116ed8160408501602087016116aa565b601f01601f19169190910160400192915050565b60006020828403121561171357600080fd5b5035919050565b6001600160a01b038116811461064957600080fd5b6000806040838503121561174257600080fd5b823561174d8161171a565b946020939093013593505050565b60008060006060848603121561177057600080fd5b833561177b8161171a565b9250602084013561178b8161171a565b929592945050506040919091013590565b6000602082840312156117ae57600080fd5b81356116798161171a565b634e487b7160e01b600052604160045260246000fd5b604051601f8201601f1916810167ffffffffffffffff811182821017156117f8576117f86117b9565b604052919050565b600067ffffffffffffffff82111561181a5761181a6117b9565b50601f01601f191660200190565b600061183b61183684611800565b6117cf565b905082815283838301111561184f57600080fd5b828260208301376000602084830101529392505050565b600082601f83011261187757600080fd5b61167983833560208501611828565b6000806040838503121561189957600080fd5b823567ffffffffffffffff808211156118b157600080fd5b6118bd86838701611866565b935060208501359150808211156118d357600080fd5b506118e085828601611866565b9150509250929050565b6000806000606084860312156118ff57600080fd5b833561190a8161171a565b9250602084013561191a8161171a565b9150604084013561192a8161171a565b809150509250925092565b6000806040838503121561194857600080fd5b82356119538161171a565b91506020830135801515811461196857600080fd5b809150509250929050565b6000806000806080858703121561198957600080fd5b84356119948161171a565b935060208501356119a48161171a565b925060408501359150606085013567ffffffffffffffff8111156119c757600080fd5b8501601f810187136119d857600080fd5b6119e787823560208401611828565b91505092959194509250565b60008060408385031215611a0657600080fd5b8235611a118161171a565b915060208301356119688161171a565b600181811c90821680611a3557607f821691505b602082108103611a5557634e487b7160e01b600052602260045260246000fd5b50919050565b600060208284031215611a6d57600080fd5b81516116798161171a565b6020808252602e908201527f496e697469616c697a61626c653a20636f6e747261637420697320616c72656160408201526d191e481a5b9a5d1a585b1a5e995960921b606082015260800190565b601f82111561060957600081815260208120601f850160051c81016020861015611aed5750805b601f850160051c820191505b81811015611b0c57828155600101611af9565b505050505050565b815167ffffffffffffffff811115611b2e57611b2e6117b9565b611b4281611b3c8454611a21565b84611ac6565b602080601f831160018114611b775760008415611b5f5750858301515b600019600386901b1c1916600185901b178555611b0c565b600085815260208120601f198616915b82811015611ba657888601518255948401946001909101908401611b87565b5085821015611bc45787850151600019600388901b60f8161c191681555b5050505050600190811b01905550565b600060808284031215611be657600080fd5b6040516080810181811067ffffffffffffffff82111715611c0957611c096117b9565b6040528251611c178161171a565b81526020830151611c278161171a565b60208201526040830151611c3a8161171a565b6040820152606083015163ffffffff81168114611c5657600080fd5b60608201529392505050565b600060208284031215611c7457600080fd5b5051919050565b60008060008060808587031215611c9157600080fd5b84519350602085015180600b0b8114611ca957600080fd5b6040860151606090960151949790965092505050565b60008151611cd18185602086016116aa565b9290920192915050565b60008551611ced818460208a016116aa565b693f666c6f77526174653d60b01b9083019081528551611d1481600a840160208a016116aa565b69266f7574676f696e673d60b01b600a92909101918201528451611d3f8160148401602089016116aa565b8451910190611d558160148401602088016116aa565b016014019695505050505050565b600060208284031215611d7557600080fd5b815167ffffffffffffffff811115611d8c57600080fd5b8201601f81018413611d9d57600080fd5b8051611dab61183682611800565b818152856020838501011115611dc057600080fd5b611dd18260208301602086016116aa565b95945050505050565b600060208284031215611dec57600080fd5b815160ff8116811461167957600080fd5b6e26746f6b656e5f616464726573733d60881b815260008851611e2781600f850160208d016116aa565b6926636861696e5f69643d60b01b600f918401918201528851611e51816019840160208d016116aa565b6d26746f6b656e5f73796d626f6c3d60901b601992909101918201528751611e80816027840160208c016116aa565b672673656e6465723d60c01b602792909101918201528651611ea981602f840160208b016116aa565b692672656365697665723d60b01b602f9290910191820152611f1a611f14611efc611ef6611eda603986018b611cbf565b6f26746f6b656e5f646563696d616c733d60801b815260100190565b88611cbf565b6b2673746172745f646174653d60a01b8152600c0190565b85611cbf565b9a9950505050505050505050565b634e487b7160e01b600052601160045260246000fd5b80820281158282048414176104c3576104c3611f28565b808201808211156104c3576104c3611f28565b634e487b7160e01b600052603260045260246000fd5b600081611f8d57611f8d611f28565b50600019019056fe68747470733a2f2f6e66742e7375706572666c7569642e66696e616e63652f6366612f76322f6765746d657461a2646970667358221220814ecaa96cf9f88ea0066864bbbccbd79ac5feb94a507ec6c89577f6d6fcf36964736f6c63430008130033",
    "linkReferences": {}
  },
  "methodIdentifiers": {
    "CONSTANT_FLOW_AGREEMENT_V1()": "18156101",
    "CONSTANT_OUTFLOW_NFT()": "ef43d2c6",
    "DEFAULT_BASE_URI()": "a497325b",
    "HOST()": "49f289dc",
    "approve(address,uint256)": "095ea7b3",
    "balanceOf(address)": "70a08231",
    "baseURI()": "6c0360eb",
    "burn(uint256)": "42966c68",
    "castrate()": "9903ad38",
    "flowDataByTokenId(uint256)": "8d47859e",
    "getApproved(uint256)": "081812fc",
    "getCodeAddress()": "50d75d25",
    "getTokenId(address,address,address)": "89f71d2d",
    "initialize(string,string)": "4cd88b76",
    "isApprovedForAll(address,address)": "e985e9c5",
    "mint(address,uint256)": "40c10f19",
    "name()": "06fdde03",
    "ownerOf(uint256)": "6352211e",
    "proxiableUUID()": "52d1902d",
    "safeTransferFrom(address,address,uint256)": "42842e0e",
    "safeTransferFrom(address,address,uint256,bytes)": "b88d4fde",
    "setApprovalForAll(address,bool)": "a22cb465",
    "supportsInterface(bytes4)": "01ffc9a7",
    "symbol()": "95d89b41",
    "tokenURI(uint256)": "c87b56dd",
    "transferFrom(address,address,uint256)": "23b872dd",
    "triggerMetadataUpdate(uint256)": "2f388560",
    "updateCode(address)": "46951954"
  },
  "id": 88
}