{
  "abi": [
    {
      "inputs": [
        {
          "internalType": "contract ISuperfluid",
          "name": "host",
          "type": "address"
        },
        {
          "internalType": "contract IConstantOutflowNFT",
          "name": "constantOutflowNFT",
          "type": "address"
        }
      ],
      "stateMutability": "nonpayable",
      "type": "constructor"
    },
    {
      "inputs": [],
      "name": "CFA_NFT_APPROVE_CALLER_NOT_OWNER_OR_APPROVED_FOR_ALL",
      "type": "error"
    },
    {
      "inputs": [],
      "name": "CFA_NFT_APPROVE_TO_CALLER",
      "type": "error"
    },
    {
      "inputs": [],
      "name": "CFA_NFT_APPROVE_TO_CURRENT_OWNER",
      "type": "error"
    },
    {
      "inputs": [],
      "name": "CFA_NFT_INVALID_TOKEN_ID",
      "type": "error"
    },
    {
      "inputs": [],
      "name": "CFA_NFT_ONLY_SUPER_TOKEN_FACTORY",
      "type": "error"
    },
    {
      "inputs": [],
      "name": "CFA_NFT_TRANSFER_CALLER_NOT_OWNER_OR_APPROVED_FOR_ALL",
      "type": "error"
    },
    {
      "inputs": [],
      "name": "CFA_NFT_TRANSFER_FROM_INCORRECT_OWNER",
      "type": "error"
    },
    {
      "inputs": [],
      "name": "CFA_NFT_TRANSFER_IS_NOT_ALLOWED",
      "type": "error"
    },
    {
      "inputs": [],
      "name": "CFA_NFT_TRANSFER_TO_ZERO_ADDRESS",
      "type": "error"
    },
    {
      "inputs": [],
      "name": "CIF_NFT_ONLY_CONSTANT_OUTFLOW",
      "type": "error"
    },
    {
      "anonymous": false,
      "inputs": [
        {
          "indexed": true,
          "internalType": "address",
          "name": "owner",
          "type": "address"
        },
        {
          "indexed": true,
          "internalType": "address",
          "name": "approved",
          "type": "address"
        },
        {
          "indexed": true,
          "internalType": "uint256",
          "name": "tokenId",
          "type": "uint256"
        }
      ],
      "name": "Approval",
      "type": "event"
    },
    {
      "anonymous": false,
      "inputs": [
        {
          "indexed": true,
          "internalType": "address",
          "name": "owner",
          "type": "address"
        },
        {
          "indexed": true,
          "internalType": "address",
          "name": "operator",
          "type": "address"
        },
        {
          "indexed": false,
          "internalType": "bool",
          "name": "approved",
          "type": "bool"
        }
      ],
      "name": "ApprovalForAll",
      "type": "event"
    },
    {
      "anonymous": false,
      "inputs": [
        {
          "indexed": false,
          "internalType": "bytes32",
          "name": "uuid",
          "type": "bytes32"
        },
        {
          "indexed": false,
          "internalType": "address",
          "name": "codeAddress",
          "type": "address"
        }
      ],
      "name": "CodeUpdated",
      "type": "event"
    },
    {
      "anonymous": false,
      "inputs": [
        {
          "indexed": false,
          "internalType": "uint8",
          "name": "version",
          "type": "uint8"
        }
      ],
      "name": "Initialized",
      "type": "event"
    },
    {
      "anonymous": false,
      "inputs": [
        {
          "indexed": false,
          "internalType": "uint256",
          "name": "tokenId",
          "type": "uint256"
        }
      ],
      "name": "MetadataUpdate",
      "type": "event"
    },
    {
      "anonymous": false,
      "inputs": [
        {
          "indexed": true,
          "internalType": "address",
          "name": "from",
          "type": "address"
        },
        {
          "indexed": true,
          "internalType": "address",
          "name": "to",
          "type": "address"
        },
        {
          "indexed": true,
          "internalType": "uint256",
          "name": "tokenId",
          "type": "uint256"
        }
      ],
      "name": "Transfer",
      "type": "event"
    },
    {
      "inputs": [],
      "name": "CONSTANT_FLOW_AGREEMENT_V1",
      "outputs": [
        {
          "internalType": "contract IConstantFlowAgreementV1",
          "name": "",
          "type": "address"
        }
      ],
      "stateMutability": "view",
      "type": "function"
    },
    {
      "inputs": [],
      "name": "CONSTANT_OUTFLOW_NFT",
      "outputs": [
        {
          "internalType": "contract IConstantOutflowNFT",
          "name": "",
          "type": "address"
        }
      ],
      "stateMutability": "view",
      "type": "function"
    },
    {
      "inputs": [],
      "name": "DEFAULT_BASE_URI",
      "outputs": [
        {
          "internalType": "string",
          "name": "",
          "type": "string"
        }
      ],
      "stateMutability": "view",
      "type": "function"
    },
    {
      "inputs": [],
      "name": "HOST",
      "outputs": [
        {
          "internalType": "contract ISuperfluid",
          "name": "",
          "type": "address"
        }
      ],
      "stateMutability": "view",
      "type": "function"
    },
    {
      "inputs": [
        {
          "internalType": "address",
          "name": "to",
          "type": "address"
        },
        {
          "internalType": "uint256",
          "name": "tokenId",
          "type": "uint256"
        }
      ],
      "name": "approve",
      "outputs": [],
      "stateMutability": "nonpayable",
      "type": "function"
    },
    {
      "inputs": [
        {
          "internalType": "address",
          "name": "",
          "type": "address"
        }
      ],
      "name": "balanceOf",
      "outputs": [
        {
          "internalType": "uint256",
          "name": "balance",
          "type": "uint256"
        }
      ],
      "stateMutability": "pure",
      "type": "function"
    },
    {
      "inputs": [],
      "name": "baseURI",
      "outputs": [
        {
          "internalType": "string",
          "name": "",
          "type": "string"
        }
      ],
      "stateMutability": "pure",
      "type": "function"
    },
    {
      "inputs": [
        {
          "internalType": "uint256",
          "name": "tokenId",
          "type": "uint256"
        }
      ],
      "name": "burn",
      "outputs": [],
      "stateMutability": "nonpayable",
      "type": "function"
    },
    {
      "inputs": [],
      "name": "castrate",
      "outputs": [],
      "stateMutability": "nonpayable",
      "type": "function"
    },
    {
      "inputs": [
        {
          "internalType": "uint256",
          "name": "tokenId",
          "type": "uint256"
        }
      ],
      "name": "flowDataByTokenId",
      "outputs": [
        {
          "components": [
            {
              "internalType": "address",
              "name": "superToken",
              "type": "address"
            },
            {
              "internalType": "address",
              "name": "flowSender",
              "type": "address"
            },
            {
              "internalType": "address",
              "name": "flowReceiver",
              "type": "address"
            },
            {
              "internalType": "uint32",
              "name": "flowStartDate",
              "type": "uint32"
            }
          ],
          "internalType": "struct IFlowNFTBase.FlowNFTData",
          "name": "flowData",
          "type": "tuple"
        }
      ],
      "stateMutability": "view",
      "type": "function"
    },
    {
      "inputs": [
        {
          "internalType": "uint256",
          "name": "tokenId",
          "type": "uint256"
        }
      ],
      "name": "getApproved",
      "outputs": [
        {
          "internalType": "address",
          "name": "",
          "type": "address"
        }
      ],
      "stateMutability": "view",
      "type": "function"
    },
    {
      "inputs": [],
      "name": "getCodeAddress",
      "outputs": [
        {
          "internalType": "address",
          "name": "codeAddress",
          "type": "address"
        }
      ],
      "stateMutability": "view",
      "type": "function"
    },
    {
      "inputs": [
        {
          "internalType": "address",
          "name": "superToken",
          "type": "address"
        },
        {
          "internalType": "address",
          "name": "sender",
          "type": "address"
        },
        {
          "internalType": "address",
          "name": "receiver",
          "type": "address"
        }
      ],
      "name": "getTokenId",
      "outputs": [
        {
          "internalType": "uint256",
          "name": "tokenId",
          "type": "uint256"
        }
      ],
      "stateMutability": "view",
      "type": "function"
    },
    {
      "inputs": [
        {
          "internalType": "string",
          "name": "nftName",
          "type": "string"
        },
        {
          "internalType": "string",
          "name": "nftSymbol",
          "type": "string"
        }
      ],
      "name": "initialize",
      "outputs": [],
      "stateMutability": "nonpayable",
      "type": "function"
    },
    {
      "inputs": [
        {
          "internalType": "address",
          "name": "owner",
          "type": "address"
        },
        {
          "internalType": "address",
          "name": "operator",
          "type": "address"
        }
      ],
      "name": "isApprovedForAll",
      "outputs": [
        {
          "internalType": "bool",
          "name": "",
          "type": "bool"
        }
      ],
      "stateMutability": "view",
      "type": "function"
    },
    {
      "inputs": [
        {
          "internalType": "address",
          "name": "to",
          "type": "address"
        },
        {
          "internalType": "uint256",
          "name": "newTokenId",
          "type": "uint256"
        }
      ],
      "name": "mint",
      "outputs": [],
      "stateMutability": "nonpayable",
      "type": "function"
    },
    {
      "inputs": [],
      "name": "name",
      "outputs": [
        {
          "internalType": "string",
          "name": "",
          "type": "string"
        }
      ],
      "stateMutability": "view",
      "type": "function"
    },
    {
      "inputs": [
        {
          "internalType": "uint256",
          "name": "tokenId",
          "type": "uint256"
        }
      ],
      "name": "ownerOf",
      "outputs": [
        {
          "internalType": "address",
          "name": "",
          "type": "address"
        }
      ],
      "stateMutability": "view",
      "type": "function"
    },
    {
      "inputs": [],
      "name": "proxiableUUID",
      "outputs": [
        {
          "internalType": "bytes32",
          "name": "",
          "type": "bytes32"
        }
      ],
      "stateMutability": "pure",
      "type": "function"
    },
    {
      "inputs": [
        {
          "internalType": "address",
          "name": "from",
          "type": "address"
        },
        {
          "internalType": "address",
          "name": "to",
          "type": "address"
        },
        {
          "internalType": "uint256",
          "name": "tokenId",
          "type": "uint256"
        }
      ],
      "name": "safeTransferFrom",
      "outputs": [],
      "stateMutability": "nonpayable",
      "type": "function"
    },
    {
      "inputs": [
        {
          "internalType": "address",
          "name": "from",
          "type": "address"
        },
        {
          "internalType": "address",
          "name": "to",
          "type": "address"
        },
        {
          "internalType": "uint256",
          "name": "tokenId",
          "type": "uint256"
        },
        {
          "internalType": "bytes",
          "name": "data",
          "type": "bytes"
        }
      ],
      "name": "safeTransferFrom",
      "outputs": [],
      "stateMutability": "nonpayable",
      "type": "function"
    },
    {
      "inputs": [
        {
          "internalType": "address",
          "name": "operator",
          "type": "address"
        },
        {
          "internalType": "bool",
          "name": "approved",
          "type": "bool"
        }
      ],
      "name": "setApprovalForAll",
      "outputs": [],
      "stateMutability": "nonpayable",
      "type": "function"
    },
    {
      "inputs": [
        {
          "internalType": "bytes4",
          "name": "interfaceId",
          "type": "bytes4"
        }
      ],
      "name": "supportsInterface",
      "outputs": [
        {
          "internalType": "bool",
          "name": "",
          "type": "bool"
        }
      ],
      "stateMutability": "pure",
      "type": "function"
    },
    {
      "inputs": [],
      "name": "symbol",
      "outputs": [
        {
          "internalType": "string",
          "name": "",
          "type": "string"
        }
      ],
      "stateMutability": "view",
      "type": "function"
    },
    {
      "inputs": [
        {
          "internalType": "uint256",
          "name": "tokenId",
          "type": "uint256"
        }
      ],
      "name": "tokenURI",
      "outputs": [
        {
          "internalType": "string",
          "name": "",
          "type": "string"
        }
      ],
      "stateMutability": "view",
      "type": "function"
    },
    {
      "inputs": [
        {
          "internalType": "address",
          "name": "from",
          "type": "address"
        },
        {
          "internalType": "address",
          "name": "to",
          "type": "address"
        },
        {
          "internalType": "uint256",
          "name": "tokenId",
          "type": "uint256"
        }
      ],
      "name": "transferFrom",
      "outputs": [],
      "stateMutability": "nonpayable",
      "type": "function"
    },
    {
      "inputs": [
        {
          "internalType": "uint256",
          "name": "tokenId",
          "type": "uint256"
        }
      ],
      "name": "triggerMetadataUpdate",
      "outputs": [],
      "stateMutability": "nonpayable",
      "type": "function"
    },
    {
      "inputs": [
        {
          "internalType": "address",
          "name": "newAddress",
          "type": "address"
        }
      ],
      "name": "updateCode",
      "outputs": [],
      "stateMutability": "nonpayable",
      "type": "function"
    }
  ],
  "bytecode": {
    "object": "0x60e06040523480156200001157600080fd5b50604051620020f8380380620020f88339810160408190526200003491620000fd565b6001600160a01b03821660a0819052604051635b69006f60e11b81527fa9214cc96615e0085d3bb077758db69497dc2dce3b2b1e97bc93c3d18d83efd3600482015283919063b6d200de90602401602060405180830381865afa158015620000a0573d6000803e3d6000fd5b505050506040513d601f19601f82011682018060405250810190620000c691906200013c565b6001600160a01b039081166080529190911660c05250620001639050565b6001600160a01b0381168114620000fa57600080fd5b50565b600080604083850312156200011157600080fd5b82516200011e81620000e4565b60208401519092506200013181620000e4565b809150509250929050565b6000602082840312156200014f57600080fd5b81516200015c81620000e4565b9392505050565b60805160a05160c051611f42620001b6600039600081816103cb015281816105cd0152818161063f0152610932015260008181610274015261068a0152600081816101db0152610fc90152611f426000f3fe608060405234801561001057600080fd5b50600436106101545760003560e01c806301ffc9a71461015957806306fdde0314610181578063081812fc14610196578063095ea7b3146101c157806318156101146101d657806323b872dd146101fd5780632f3885601461021057806340c10f191461022357806342842e0e1461023657806342966c6814610249578063469519541461025c57806349f289dc1461026f5780634cd88b761461029657806350d75d25146102a957806352d1902d146102b15780636352211e146102c75780636c0360eb146102da57806370a08231146102e257806389f71d2d146102f65780638d47859e1461030957806395d89b41146103625780639903ad381461036a578063a22cb46514610372578063a497325b14610385578063b88d4fde1461038d578063c87b56dd146103a0578063e985e9c5146103b3578063ef43d2c6146103c6575b600080fd5b61016c610167366004611571565b6103ed565b60405190151581526020015b60405180910390f35b61018961043f565b60405161017891906115bf565b6101a96101a43660046115f2565b6104d1565b6040516001600160a01b039091168152602001610178565b6101d46101cf366004611620565b6104f8565b005b6101a97f000000000000000000000000000000000000000000000000000000000000000081565b6101d461020b36600461164c565b610584565b6101d461021e3660046115f2565b6105b6565b6101d4610231366004611620565b6105c2565b6101d461024436600461164c565b610619565b6101d46102573660046115f2565b610634565b6101d461026a36600461168d565b610686565b6101a97f000000000000000000000000000000000000000000000000000000000000000081565b6101d46102a4366004611775565b61073e565b6101a9610819565b6102b9610828565b604051908152602001610178565b6101a96102d53660046115f2565b61084c565b610189610881565b6102b96102f036600461168d565b50600190565b6102b96103043660046117d8565b6108a1565b61031c6103173660046115f2565b6108f4565b6040805182516001600160a01b03908116825260208085015182169083015283830151169181019190915260609182015163ffffffff1691810191909152608001610178565b61018961099d565b6101d46109ac565b6101d4610380366004611823565b610a63565b610189610a6e565b6101d461039b366004611861565b610a8a565b6101896103ae3660046115f2565b610ac3565b61016c6103c13660046118e0565b610ad0565b6101a97f000000000000000000000000000000000000000000000000000000000000000081565b60006301ffc9a760e01b6001600160e01b03198316148061041e57506380ac58cd60e01b6001600160e01b03198316145b806104395750635b5e139f60e01b6001600160e01b03198316145b92915050565b60606001805461044e9061190e565b80601f016020809104026020016040519081016040528092919081815260200182805461047a9061190e565b80156104c75780601f1061049c576101008083540402835291602001916104c7565b820191906000526020600020905b8154815290600101906020018083116104aa57829003601f168201915b5050505050905090565b60006104dc82610afe565b506000908152600360205260409020546001600160a01b031690565b60006105038261084c565b9050806001600160a01b0316836001600160a01b0316036105375760405163e4790b2560e01b815260040160405180910390fd5b336001600160a01b0382161480159061055757506105558133610ad0565b155b156105755760405163519a92c160e11b815260040160405180910390fd5b61057f8383610b24565b505050565b61058e3382610b92565b6105ab576040516312a8eb0360e11b815260040160405180910390fd5b61057f838383610bf0565b6105bf81610c09565b50565b336001600160a01b037f0000000000000000000000000000000000000000000000000000000000000000161461060b5760405163740f7abd60e11b815260040160405180910390fd5b6106158282610c39565b5050565b61057f83838360405180602001604052806000815250610a8a565b336001600160a01b037f0000000000000000000000000000000000000000000000000000000000000000161461067d5760405163740f7abd60e11b815260040160405180910390fd5b6105bf81610c63565b60007f00000000000000000000000000000000000000000000000000000000000000006001600160a01b031663731aed6e6040518163ffffffff1660e01b8152600401602060405180830381865afa1580156106e6573d6000803e3d6000fd5b505050506040513d601f19601f8201168201806040525081019061070a9190611948565b9050336001600160a01b038216146107355760405163ebb7505b60e01b815260040160405180910390fd5b61061582610cc4565b600054610100900460ff161580801561075e5750600054600160ff909116105b8061077f575061076d30610e96565b15801561077f575060005460ff166001145b6107a45760405162461bcd60e51b815260040161079b90611965565b60405180910390fd5b6000805460ff1916600117905580156107c7576000805461ff0019166101001790555b60016107d38482611a01565b5060026107e08382611a01565b50801561057f576000805461ff001916905560405160018152600080516020611ea08339815191529060200160405180910390a1505050565b6000610823610ea5565b905090565b7f9a61ea3469d742a522f41a67608e442d2c27902bed81123f00ba6d3e12e9871e90565b60008061085883610eb8565b90506001600160a01b0381166104395760405163eab95e3b60e01b815260040160405180910390fd5b60606040518060600160405280602d8152602001611ee0602d9139905090565b60408051466020808301919091526001600160a01b0380871683850152808616606084015284166080808401919091528351808403909101815260a090920190925280519101206000905b949350505050565b60408051608081018252600080825260208201819052818301819052606082015290516346a3c2cf60e11b8152600481018390526001600160a01b037f00000000000000000000000000000000000000000000000000000000000000001690638d47859e90602401608060405180830381865afa158015610979573d6000803e3d6000fd5b505050506040513d601f19601f820116820180604052508101906104399190611ac0565b60606002805461044e9061190e565b600054610100900460ff16158080156109cc5750600054600160ff909116105b806109ed57506109db30610e96565b1580156109ed575060005460ff166001145b610a095760405162461bcd60e51b815260040161079b90611965565b6000805460ff191660011790558015610a2c576000805461ff0019166101001790555b80156105bf576000805461ff001916905560405160018152600080516020611ea0833981519152906020015b60405180910390a150565b610615338383610ecf565b6040518060600160405280602d8152602001611ee0602d913981565b610a943383610b92565b610ab1576040516312a8eb0360e11b815260040160405180910390fd5b610abd84848484610f6e565b50505050565b6060610439826001610f79565b6001600160a01b03918216600090815260046020908152604080832093909416825291909152205460ff1690565b610b07816110cf565b6105bf5760405163eab95e3b60e01b815260040160405180910390fd5b600081815260036020526040902080546001600160a01b0319166001600160a01b0384169081179091558190610b5982610eb8565b6001600160a01b03167f8c5be1e5ebec7d5bd14f71427d1e84f3dd0314c0f7b2291e5b200ac8c7c3b92560405160405180910390a45050565b600080610b9e8361084c565b9050806001600160a01b0316846001600160a01b03161480610bc55750610bc58185610ad0565b806108ec5750836001600160a01b0316610bde846104d1565b6001600160a01b031614949350505050565b60405163553a3f6560e11b815260040160405180910390fd5b6040518181527ff8e1a15aba9398e019f0b49df1a4fde98ee17ae345cb5f6b5e2c27f5033e8ce790602001610a58565b60405181906001600160a01b03841690600090600080516020611ec0833981519152908290a45050565b6000610c6e826108f4565b600083815260036020526040902080546001600160a01b031916905590508160006001600160a01b031682604001516001600160a01b0316600080516020611ec083398151915260405160405180910390a45050565b6000610cce610ea5565b6001600160a01b031603610d245760405162461bcd60e51b815260206004820152601d60248201527f5555505350726f786961626c653a206e6f742075706772616461626c65000000604482015260640161079b565b806001600160a01b03166352d1902d6040518163ffffffff1660e01b8152600401602060405180830381865afa158015610d62573d6000803e3d6000fd5b505050506040513d601f19601f82011682018060405250810190610d869190611b4d565b610d8e610828565b14610de75760405162461bcd60e51b815260206004820152602360248201527f5555505350726f786961626c653a206e6f7420636f6d70617469626c65206c6f60448201526267696360e81b606482015260840161079b565b6001600160a01b0381163003610e3b5760405162461bcd60e51b815260206004820152601960248201527805555505350726f786961626c653a2070726f7879206c6f6f7603c1b604482015260640161079b565b610e5181600080516020611e8083398151915255565b7fe011bc04c286c344a8fcbb8de77f953da762c3e25d8cdea984147fc4168a5dcc610e7a610828565b604080519182526001600160a01b038416602083015201610a58565b6001600160a01b03163b151590565b600080516020611e808339815191525490565b600080610ec4836108f4565b604001519392505050565b816001600160a01b0316836001600160a01b031603610f015760405163d3c7732960e01b815260040160405180910390fd5b6001600160a01b03838116600081815260046020908152604080832094871680845294825291829020805460ff191686151590811790915591519182527f17307eab39ab6107e8899845ad3d59bd9653f200f220920489ca2b5937696c31910160405180910390a3505050565b610abd848484610bf0565b60606000610f86846108f4565b805160208201516040808401519051631cd43d1160e31b81526001600160a01b0380851660048301529283166024820152908216604482015292935090916000917f0000000000000000000000000000000000000000000000000000000000000000169063e6a1e88890606401608060405180830381865afa158015611010573d6000803e3d6000fd5b505050506040513d601f19601f820116820180604052508101906110349190611b66565b5050915050611041610881565b611053826001600160601b03166110ec565b8661107a57604051806040016040528060048152602001637472756560e01b815250611099565b6040518060400160405280600581526020016466616c736560d81b8152505b6110a28961117e565b6040516020016110b59493929190611bc6565b604051602081830303815290604052935050505092915050565b6000806110db83610eb8565b6001600160a01b0316141592915050565b606060006110f9836112f9565b60010190506000816001600160401b03811115611118576111186116aa565b6040519080825280601f01601f191660200182016040528015611142576020820181803683370190505b5090508181016020015b600019016f181899199a1a9b1b9c1cb0b131b232b360811b600a86061a8153600a850494508461114c57509392505050565b6060600061118b836108f4565b90506111a581600001516001600160a01b031660146113cf565b6111ae466110ec565b82600001516001600160a01b03166395d89b416040518163ffffffff1660e01b8152600401600060405180830381865afa1580156111f0573d6000803e3d6000fd5b505050506040513d6000823e601f3d908101601f191682016040526112189190810190611c4e565b61123084602001516001600160a01b031660146113cf565b61124885604001516001600160a01b031660146113cf565b6112b986600001516001600160a01b031663313ce5676040518163ffffffff1660e01b8152600401602060405180830381865afa15801561128d573d6000803e3d6000fd5b505050506040513d601f19601f820116820180604052508101906112b19190611cc4565b60ff166110ec565b6112cc876060015163ffffffff166110ec565b6040516020016112e29796959493929190611ce7565b604051602081830303815290604052915050919050565b60008072184f03e93ff9f4daa797ed6e38ed64bf6a1f0160401b83106113385772184f03e93ff9f4daa797ed6e38ed64bf6a1f0160401b830492506040015b6904ee2d6d415b85acef8160201b8310611362576904ee2d6d415b85acef8160201b830492506020015b662386f26fc10000831061138057662386f26fc10000830492506010015b6305f5e1008310611398576305f5e100830492506008015b61271083106113ac57612710830492506004015b606483106113be576064830492506002015b600a83106104395760010192915050565b606060006113de836002611e28565b6113e9906002611e3f565b6001600160401b03811115611400576114006116aa565b6040519080825280601f01601f19166020018201604052801561142a576020820181803683370190505b509050600360fc1b8160008151811061144557611445611e52565b60200101906001600160f81b031916908160001a905350600f60fb1b8160018151811061147457611474611e52565b60200101906001600160f81b031916908160001a9053506000611498846002611e28565b6114a3906001611e3f565b90505b600181111561151b576f181899199a1a9b1b9c1cb0b131b232b360811b85600f16601081106114d7576114d7611e52565b1a60f81b8282815181106114ed576114ed611e52565b60200101906001600160f81b031916908160001a90535060049490941c9361151481611e68565b90506114a6565b50831561156a5760405162461bcd60e51b815260206004820181905260248201527f537472696e67733a20686578206c656e67746820696e73756666696369656e74604482015260640161079b565b9392505050565b60006020828403121561158357600080fd5b81356001600160e01b03198116811461156a57600080fd5b60005b838110156115b657818101518382015260200161159e565b50506000910152565b60208152600082518060208401526115de81604085016020870161159b565b601f01601f19169190910160400192915050565b60006020828403121561160457600080fd5b5035919050565b6001600160a01b03811681146105bf57600080fd5b6000806040838503121561163357600080fd5b823561163e8161160b565b946020939093013593505050565b60008060006060848603121561166157600080fd5b833561166c8161160b565b9250602084013561167c8161160b565b929592945050506040919091013590565b60006020828403121561169f57600080fd5b813561156a8161160b565b634e487b7160e01b600052604160045260246000fd5b604051601f8201601f191681016001600160401b03811182821017156116e8576116e86116aa565b604052919050565b60006001600160401b03821115611709576117096116aa565b50601f01601f191660200190565b600061172a611725846116f0565b6116c0565b905082815283838301111561173e57600080fd5b828260208301376000602084830101529392505050565b600082601f83011261176657600080fd5b61156a83833560208501611717565b6000806040838503121561178857600080fd5b82356001600160401b038082111561179f57600080fd5b6117ab86838701611755565b935060208501359150808211156117c157600080fd5b506117ce85828601611755565b9150509250929050565b6000806000606084860312156117ed57600080fd5b83356117f88161160b565b925060208401356118088161160b565b915060408401356118188161160b565b809150509250925092565b6000806040838503121561183657600080fd5b82356118418161160b565b91506020830135801515811461185657600080fd5b809150509250929050565b6000806000806080858703121561187757600080fd5b84356118828161160b565b935060208501356118928161160b565b92506040850135915060608501356001600160401b038111156118b457600080fd5b8501601f810187136118c557600080fd5b6118d487823560208401611717565b91505092959194509250565b600080604083850312156118f357600080fd5b82356118fe8161160b565b915060208301356118568161160b565b600181811c9082168061192257607f821691505b60208210810361194257634e487b7160e01b600052602260045260246000fd5b50919050565b60006020828403121561195a57600080fd5b815161156a8161160b565b6020808252602e908201527f496e697469616c697a61626c653a20636f6e747261637420697320616c72656160408201526d191e481a5b9a5d1a585b1a5e995960921b606082015260800190565b601f82111561057f57600081815260208120601f850160051c810160208610156119da5750805b601f850160051c820191505b818110156119f9578281556001016119e6565b505050505050565b81516001600160401b03811115611a1a57611a1a6116aa565b611a2e81611a28845461190e565b846119b3565b602080601f831160018114611a635760008415611a4b5750858301515b600019600386901b1c1916600185901b1785556119f9565b600085815260208120601f198616915b82811015611a9257888601518255948401946001909101908401611a73565b5085821015611ab05787850151600019600388901b60f8161c191681555b5050505050600190811b01905550565b600060808284031215611ad257600080fd5b604051608081016001600160401b0381118282101715611af457611af46116aa565b6040528251611b028161160b565b81526020830151611b128161160b565b60208201526040830151611b258161160b565b6040820152606083015163ffffffff81168114611b4157600080fd5b60608201529392505050565b600060208284031215611b5f57600080fd5b5051919050565b60008060008060808587031215611b7c57600080fd5b84519350602085015180600b0b8114611b9457600080fd5b6040860151606090960151949790965092505050565b60008151611bbc81856020860161159b565b9290920192915050565b60008551611bd8818460208a0161159b565b693f666c6f77526174653d60b01b9083019081528551611bff81600a840160208a0161159b565b69266f7574676f696e673d60b01b600a92909101918201528451611c2a81601484016020890161159b565b8451910190611c4081601484016020880161159b565b016014019695505050505050565b600060208284031215611c6057600080fd5b81516001600160401b03811115611c7657600080fd5b8201601f81018413611c8757600080fd5b8051611c95611725826116f0565b818152856020838501011115611caa57600080fd5b611cbb82602083016020860161159b565b95945050505050565b600060208284031215611cd657600080fd5b815160ff8116811461156a57600080fd5b6e26746f6b656e5f616464726573733d60881b815260008851611d1181600f850160208d0161159b565b6926636861696e5f69643d60b01b600f918401918201528851611d3b816019840160208d0161159b565b6d26746f6b656e5f73796d626f6c3d60901b601992909101918201528751611d6a816027840160208c0161159b565b672673656e6465723d60c01b602792909101918201528651611d9381602f840160208b0161159b565b692672656365697665723d60b01b602f9290910191820152611e04611dfe611de6611de0611dc4603986018b611baa565b6f26746f6b656e5f646563696d616c733d60801b815260100190565b88611baa565b6b2673746172745f646174653d60a01b8152600c0190565b85611baa565b9a9950505050505050505050565b634e487b7160e01b600052601160045260246000fd5b808202811582820484141761043957610439611e12565b8082018082111561043957610439611e12565b634e487b7160e01b600052603260045260246000fd5b600081611e7757611e77611e12565b50600019019056fe360894a13ba1a3210667c828492db98dca3e2076cc3735a920a3ca505d382bbc7f26b83ff96e1f2b6a682f133852f6798a09c465da95921460cefb3847402498ddf252ad1be2c89b69c2b068fc378daa952ba7f163c4a11628f55a4df523b3ef68747470733a2f2f6e66742e7375706572666c7569642e66696e616e63652f6366612f76322f6765746d657461a2646970667358221220a330cb8e789d63e72354f238f7815e215d9eb9f2d13bd5391410f7a18ccebb6964736f6c63430008130033",
    "linkReferences": {}
  },
  "methodIdentifiers": {
    "CONSTANT_FLOW_AGREEMENT_V1()": "18156101",
    "CONSTANT_OUTFLOW_NFT()": "ef43d2c6",
    "DEFAULT_BASE_URI()": "a497325b",
    "HOST()": "49f289dc",
    "approve(address,uint256)": "095ea7b3",
    "balanceOf(address)": "70a08231",
    "baseURI()": "6c0360eb",
    "burn(uint256)": "42966c68",
    "castrate()": "9903ad38",
    "flowDataByTokenId(uint256)": "8d47859e",
    "getApproved(uint256)": "081812fc",
    "getCodeAddress()": "50d75d25",
    "getTokenId(address,address,address)": "89f71d2d",
    "initialize(string,string)": "4cd88b76",
    "isApprovedForAll(address,address)": "e985e9c5",
    "mint(address,uint256)": "40c10f19",
    "name()": "06fdde03",
    "ownerOf(uint256)": "6352211e",
    "proxiableUUID()": "52d1902d",
    "safeTransferFrom(address,address,uint256)": "42842e0e",
    "safeTransferFrom(address,address,uint256,bytes)": "b88d4fde",
    "setApprovalForAll(address,bool)": "a22cb465",
    "supportsInterface(bytes4)": "01ffc9a7",
    "symbol()": "95d89b41",
    "tokenURI(uint256)": "c87b56dd",
    "transferFrom(address,address,uint256)": "23b872dd",
    "triggerMetadataUpdate(uint256)": "2f388560",
    "updateCode(address)": "46951954"
  },
  "id": 85
}