{
  "abi": [
    {
      "inputs": [
        {
          "internalType": "contract ISuperfluid",
          "name": "host",
          "type": "address"
        }
      ],
      "stateMutability": "nonpayable",
      "type": "constructor"
    },
    {
      "inputs": [],
      "name": "AGREEMENT_BASE_ONLY_HOST",
      "type": "error"
    },
    {
      "inputs": [],
      "name": "IDA_INDEX_ALREADY_EXISTS",
      "type": "error"
    },
    {
      "inputs": [],
      "name": "IDA_INDEX_DOES_NOT_EXIST",
      "type": "error"
    },
    {
      "inputs": [],
      "name": "IDA_INDEX_SHOULD_GROW",
      "type": "error"
    },
    {
      "inputs": [],
      "name": "IDA_INSUFFICIENT_BALANCE",
      "type": "error"
    },
    {
      "inputs": [],
      "name": "IDA_OPERATION_NOT_ALLOWED",
      "type": "error"
    },
    {
      "inputs": [],
      "name": "IDA_SUBSCRIPTION_ALREADY_APPROVED",
      "type": "error"
    },
    {
      "inputs": [],
      "name": "IDA_SUBSCRIPTION_DOES_NOT_EXIST",
      "type": "error"
    },
    {
      "inputs": [],
      "name": "IDA_SUBSCRIPTION_IS_NOT_APPROVED",
      "type": "error"
    },
    {
      "inputs": [],
      "name": "IDA_ZERO_ADDRESS_SUBSCRIBER",
      "type": "error"
    },
    {
      "anonymous": false,
      "inputs": [
        {
          "indexed": false,
          "internalType": "bytes32",
          "name": "uuid",
          "type": "bytes32"
        },
        {
          "indexed": false,
          "internalType": "address",
          "name": "codeAddress",
          "type": "address"
        }
      ],
      "name": "CodeUpdated",
      "type": "event"
    },
    {
      "anonymous": false,
      "inputs": [
        {
          "indexed": true,
          "internalType": "contract ISuperfluidToken",
          "name": "token",
          "type": "address"
        },
        {
          "indexed": true,
          "internalType": "address",
          "name": "publisher",
          "type": "address"
        },
        {
          "indexed": true,
          "internalType": "uint32",
          "name": "indexId",
          "type": "uint32"
        },
        {
          "indexed": false,
          "internalType": "bytes",
          "name": "userData",
          "type": "bytes"
        }
      ],
      "name": "IndexCreated",
      "type": "event"
    },
    {
      "anonymous": false,
      "inputs": [
        {
          "indexed": true,
          "internalType": "contract ISuperfluidToken",
          "name": "token",
          "type": "address"
        },
        {
          "indexed": true,
          "internalType": "address",
          "name": "publisher",
          "type": "address"
        },
        {
          "indexed": true,
          "internalType": "uint32",
          "name": "indexId",
          "type": "uint32"
        },
        {
          "indexed": false,
          "internalType": "address",
          "name": "subscriber",
          "type": "address"
        },
        {
          "indexed": false,
          "internalType": "uint256",
          "name": "amount",
          "type": "uint256"
        }
      ],
      "name": "IndexDistributionClaimed",
      "type": "event"
    },
    {
      "anonymous": false,
      "inputs": [
        {
          "indexed": true,
          "internalType": "contract ISuperfluidToken",
          "name": "token",
          "type": "address"
        },
        {
          "indexed": true,
          "internalType": "address",
          "name": "publisher",
          "type": "address"
        },
        {
          "indexed": true,
          "internalType": "uint32",
          "name": "indexId",
          "type": "uint32"
        },
        {
          "indexed": false,
          "internalType": "address",
          "name": "subscriber",
          "type": "address"
        },
        {
          "indexed": false,
          "internalType": "bytes",
          "name": "userData",
          "type": "bytes"
        }
      ],
      "name": "IndexSubscribed",
      "type": "event"
    },
    {
      "anonymous": false,
      "inputs": [
        {
          "indexed": true,
          "internalType": "contract ISuperfluidToken",
          "name": "token",
          "type": "address"
        },
        {
          "indexed": true,
          "internalType": "address",
          "name": "publisher",
          "type": "address"
        },
        {
          "indexed": true,
          "internalType": "uint32",
          "name": "indexId",
          "type": "uint32"
        },
        {
          "indexed": false,
          "internalType": "address",
          "name": "subscriber",
          "type": "address"
        },
        {
          "indexed": false,
          "internalType": "uint128",
          "name": "units",
          "type": "uint128"
        },
        {
          "indexed": false,
          "internalType": "bytes",
          "name": "userData",
          "type": "bytes"
        }
      ],
      "name": "IndexUnitsUpdated",
      "type": "event"
    },
    {
      "anonymous": false,
      "inputs": [
        {
          "indexed": true,
          "internalType": "contract ISuperfluidToken",
          "name": "token",
          "type": "address"
        },
        {
          "indexed": true,
          "internalType": "address",
          "name": "publisher",
          "type": "address"
        },
        {
          "indexed": true,
          "internalType": "uint32",
          "name": "indexId",
          "type": "uint32"
        },
        {
          "indexed": false,
          "internalType": "address",
          "name": "subscriber",
          "type": "address"
        },
        {
          "indexed": false,
          "internalType": "bytes",
          "name": "userData",
          "type": "bytes"
        }
      ],
      "name": "IndexUnsubscribed",
      "type": "event"
    },
    {
      "anonymous": false,
      "inputs": [
        {
          "indexed": true,
          "internalType": "contract ISuperfluidToken",
          "name": "token",
          "type": "address"
        },
        {
          "indexed": true,
          "internalType": "address",
          "name": "publisher",
          "type": "address"
        },
        {
          "indexed": true,
          "internalType": "uint32",
          "name": "indexId",
          "type": "uint32"
        },
        {
          "indexed": false,
          "internalType": "uint128",
          "name": "oldIndexValue",
          "type": "uint128"
        },
        {
          "indexed": false,
          "internalType": "uint128",
          "name": "newIndexValue",
          "type": "uint128"
        },
        {
          "indexed": false,
          "internalType": "uint128",
          "name": "totalUnitsPending",
          "type": "uint128"
        },
        {
          "indexed": false,
          "internalType": "uint128",
          "name": "totalUnitsApproved",
          "type": "uint128"
        },
        {
          "indexed": false,
          "internalType": "bytes",
          "name": "userData",
          "type": "bytes"
        }
      ],
      "name": "IndexUpdated",
      "type": "event"
    },
    {
      "anonymous": false,
      "inputs": [
        {
          "indexed": false,
          "internalType": "uint8",
          "name": "version",
          "type": "uint8"
        }
      ],
      "name": "Initialized",
      "type": "event"
    },
    {
      "anonymous": false,
      "inputs": [
        {
          "indexed": true,
          "internalType": "contract ISuperfluidToken",
          "name": "token",
          "type": "address"
        },
        {
          "indexed": true,
          "internalType": "address",
          "name": "subscriber",
          "type": "address"
        },
        {
          "indexed": false,
          "internalType": "address",
          "name": "publisher",
          "type": "address"
        },
        {
          "indexed": false,
          "internalType": "uint32",
          "name": "indexId",
          "type": "uint32"
        },
        {
          "indexed": false,
          "internalType": "bytes",
          "name": "userData",
          "type": "bytes"
        }
      ],
      "name": "SubscriptionApproved",
      "type": "event"
    },
    {
      "anonymous": false,
      "inputs": [
        {
          "indexed": true,
          "internalType": "contract ISuperfluidToken",
          "name": "token",
          "type": "address"
        },
        {
          "indexed": true,
          "internalType": "address",
          "name": "subscriber",
          "type": "address"
        },
        {
          "indexed": false,
          "internalType": "address",
          "name": "publisher",
          "type": "address"
        },
        {
          "indexed": false,
          "internalType": "uint32",
          "name": "indexId",
          "type": "uint32"
        },
        {
          "indexed": false,
          "internalType": "uint256",
          "name": "amount",
          "type": "uint256"
        }
      ],
      "name": "SubscriptionDistributionClaimed",
      "type": "event"
    },
    {
      "anonymous": false,
      "inputs": [
        {
          "indexed": true,
          "internalType": "contract ISuperfluidToken",
          "name": "token",
          "type": "address"
        },
        {
          "indexed": true,
          "internalType": "address",
          "name": "subscriber",
          "type": "address"
        },
        {
          "indexed": false,
          "internalType": "address",
          "name": "publisher",
          "type": "address"
        },
        {
          "indexed": false,
          "internalType": "uint32",
          "name": "indexId",
          "type": "uint32"
        },
        {
          "indexed": false,
          "internalType": "bytes",
          "name": "userData",
          "type": "bytes"
        }
      ],
      "name": "SubscriptionRevoked",
      "type": "event"
    },
    {
      "anonymous": false,
      "inputs": [
        {
          "indexed": true,
          "internalType": "contract ISuperfluidToken",
          "name": "token",
          "type": "address"
        },
        {
          "indexed": true,
          "internalType": "address",
          "name": "subscriber",
          "type": "address"
        },
        {
          "indexed": false,
          "internalType": "address",
          "name": "publisher",
          "type": "address"
        },
        {
          "indexed": false,
          "internalType": "uint32",
          "name": "indexId",
          "type": "uint32"
        },
        {
          "indexed": false,
          "internalType": "uint128",
          "name": "units",
          "type": "uint128"
        },
        {
          "indexed": false,
          "internalType": "bytes",
          "name": "userData",
          "type": "bytes"
        }
      ],
      "name": "SubscriptionUnitsUpdated",
      "type": "event"
    },
    {
      "inputs": [],
      "name": "MAX_NUM_SUBSCRIPTIONS",
      "outputs": [
        {
          "internalType": "uint32",
          "name": "",
          "type": "uint32"
        }
      ],
      "stateMutability": "view",
      "type": "function"
    },
    {
      "inputs": [],
      "name": "SLOTS_BITMAP_LIBRARY_ADDRESS",
      "outputs": [
        {
          "internalType": "address",
          "name": "",
          "type": "address"
        }
      ],
      "stateMutability": "view",
      "type": "function"
    },
    {
      "inputs": [],
      "name": "agreementType",
      "outputs": [
        {
          "internalType": "bytes32",
          "name": "",
          "type": "bytes32"
        }
      ],
      "stateMutability": "pure",
      "type": "function"
    },
    {
      "inputs": [
        {
          "internalType": "contract ISuperfluidToken",
          "name": "token",
          "type": "address"
        },
        {
          "internalType": "address",
          "name": "publisher",
          "type": "address"
        },
        {
          "internalType": "uint32",
          "name": "indexId",
          "type": "uint32"
        },
        {
          "internalType": "bytes",
          "name": "ctx",
          "type": "bytes"
        }
      ],
      "name": "approveSubscription",
      "outputs": [
        {
          "internalType": "bytes",
          "name": "newCtx",
          "type": "bytes"
        }
      ],
      "stateMutability": "nonpayable",
      "type": "function"
    },
    {
      "inputs": [
        {
          "internalType": "contract ISuperfluidToken",
          "name": "token",
          "type": "address"
        },
        {
          "internalType": "address",
          "name": "publisher",
          "type": "address"
        },
        {
          "internalType": "uint32",
          "name": "indexId",
          "type": "uint32"
        },
        {
          "internalType": "uint256",
          "name": "amount",
          "type": "uint256"
        }
      ],
      "name": "calculateDistribution",
      "outputs": [
        {
          "internalType": "uint256",
          "name": "actualAmount",
          "type": "uint256"
        },
        {
          "internalType": "uint128",
          "name": "newIndexValue",
          "type": "uint128"
        }
      ],
      "stateMutability": "view",
      "type": "function"
    },
    {
      "inputs": [],
      "name": "castrate",
      "outputs": [],
      "stateMutability": "nonpayable",
      "type": "function"
    },
    {
      "inputs": [
        {
          "internalType": "contract ISuperfluidToken",
          "name": "token",
          "type": "address"
        },
        {
          "internalType": "address",
          "name": "publisher",
          "type": "address"
        },
        {
          "internalType": "uint32",
          "name": "indexId",
          "type": "uint32"
        },
        {
          "internalType": "address",
          "name": "subscriber",
          "type": "address"
        },
        {
          "internalType": "bytes",
          "name": "ctx",
          "type": "bytes"
        }
      ],
      "name": "claim",
      "outputs": [
        {
          "internalType": "bytes",
          "name": "newCtx",
          "type": "bytes"
        }
      ],
      "stateMutability": "nonpayable",
      "type": "function"
    },
    {
      "inputs": [
        {
          "internalType": "contract ISuperfluidToken",
          "name": "token",
          "type": "address"
        },
        {
          "internalType": "uint32",
          "name": "indexId",
          "type": "uint32"
        },
        {
          "internalType": "bytes",
          "name": "ctx",
          "type": "bytes"
        }
      ],
      "name": "createIndex",
      "outputs": [
        {
          "internalType": "bytes",
          "name": "newCtx",
          "type": "bytes"
        }
      ],
      "stateMutability": "nonpayable",
      "type": "function"
    },
    {
      "inputs": [
        {
          "internalType": "contract ISuperfluidToken",
          "name": "token",
          "type": "address"
        },
        {
          "internalType": "address",
          "name": "publisher",
          "type": "address"
        },
        {
          "internalType": "uint32",
          "name": "indexId",
          "type": "uint32"
        },
        {
          "internalType": "address",
          "name": "subscriber",
          "type": "address"
        },
        {
          "internalType": "bytes",
          "name": "ctx",
          "type": "bytes"
        }
      ],
      "name": "deleteSubscription",
      "outputs": [
        {
          "internalType": "bytes",
          "name": "newCtx",
          "type": "bytes"
        }
      ],
      "stateMutability": "nonpayable",
      "type": "function"
    },
    {
      "inputs": [
        {
          "internalType": "contract ISuperfluidToken",
          "name": "token",
          "type": "address"
        },
        {
          "internalType": "uint32",
          "name": "indexId",
          "type": "uint32"
        },
        {
          "internalType": "uint256",
          "name": "amount",
          "type": "uint256"
        },
        {
          "internalType": "bytes",
          "name": "ctx",
          "type": "bytes"
        }
      ],
      "name": "distribute",
      "outputs": [
        {
          "internalType": "bytes",
          "name": "newCtx",
          "type": "bytes"
        }
      ],
      "stateMutability": "nonpayable",
      "type": "function"
    },
    {
      "inputs": [],
      "name": "getCodeAddress",
      "outputs": [
        {
          "internalType": "address",
          "name": "codeAddress",
          "type": "address"
        }
      ],
      "stateMutability": "view",
      "type": "function"
    },
    {
      "inputs": [
        {
          "internalType": "contract ISuperfluidToken",
          "name": "token",
          "type": "address"
        },
        {
          "internalType": "address",
          "name": "publisher",
          "type": "address"
        },
        {
          "internalType": "uint32",
          "name": "indexId",
          "type": "uint32"
        }
      ],
      "name": "getIndex",
      "outputs": [
        {
          "internalType": "bool",
          "name": "exist",
          "type": "bool"
        },
        {
          "internalType": "uint128",
          "name": "indexValue",
          "type": "uint128"
        },
        {
          "internalType": "uint128",
          "name": "totalUnitsApproved",
          "type": "uint128"
        },
        {
          "internalType": "uint128",
          "name": "totalUnitsPending",
          "type": "uint128"
        }
      ],
      "stateMutability": "view",
      "type": "function"
    },
    {
      "inputs": [
        {
          "internalType": "contract ISuperfluidToken",
          "name": "token",
          "type": "address"
        },
        {
          "internalType": "address",
          "name": "publisher",
          "type": "address"
        },
        {
          "internalType": "uint32",
          "name": "indexId",
          "type": "uint32"
        },
        {
          "internalType": "address",
          "name": "subscriber",
          "type": "address"
        }
      ],
      "name": "getSubscription",
      "outputs": [
        {
          "internalType": "bool",
          "name": "exist",
          "type": "bool"
        },
        {
          "internalType": "bool",
          "name": "approved",
          "type": "bool"
        },
        {
          "internalType": "uint128",
          "name": "units",
          "type": "uint128"
        },
        {
          "internalType": "uint256",
          "name": "pendingDistribution",
          "type": "uint256"
        }
      ],
      "stateMutability": "view",
      "type": "function"
    },
    {
      "inputs": [
        {
          "internalType": "contract ISuperfluidToken",
          "name": "token",
          "type": "address"
        },
        {
          "internalType": "bytes32",
          "name": "agreementId",
          "type": "bytes32"
        }
      ],
      "name": "getSubscriptionByID",
      "outputs": [
        {
          "internalType": "address",
          "name": "publisher",
          "type": "address"
        },
        {
          "internalType": "uint32",
          "name": "indexId",
          "type": "uint32"
        },
        {
          "internalType": "bool",
          "name": "approved",
          "type": "bool"
        },
        {
          "internalType": "uint128",
          "name": "units",
          "type": "uint128"
        },
        {
          "internalType": "uint256",
          "name": "pendingDistribution",
          "type": "uint256"
        }
      ],
      "stateMutability": "view",
      "type": "function"
    },
    {
      "inputs": [
        {
          "internalType": "contract ISuperfluidToken",
          "name": "token",
          "type": "address"
        },
        {
          "internalType": "address",
          "name": "subscriber",
          "type": "address"
        }
      ],
      "name": "listSubscriptions",
      "outputs": [
        {
          "internalType": "address[]",
          "name": "publishers",
          "type": "address[]"
        },
        {
          "internalType": "uint32[]",
          "name": "indexIds",
          "type": "uint32[]"
        },
        {
          "internalType": "uint128[]",
          "name": "unitsList",
          "type": "uint128[]"
        }
      ],
      "stateMutability": "view",
      "type": "function"
    },
    {
      "inputs": [],
      "name": "proxiableUUID",
      "outputs": [
        {
          "internalType": "bytes32",
          "name": "",
          "type": "bytes32"
        }
      ],
      "stateMutability": "view",
      "type": "function"
    },
    {
      "inputs": [
        {
          "internalType": "contract ISuperfluidToken",
          "name": "token",
          "type": "address"
        },
        {
          "internalType": "address",
          "name": "account",
          "type": "address"
        },
        {
          "internalType": "uint256",
          "name": "",
          "type": "uint256"
        }
      ],
      "name": "realtimeBalanceOf",
      "outputs": [
        {
          "internalType": "int256",
          "name": "dynamicBalance",
          "type": "int256"
        },
        {
          "internalType": "uint256",
          "name": "deposit",
          "type": "uint256"
        },
        {
          "internalType": "uint256",
          "name": "owedDeposit",
          "type": "uint256"
        }
      ],
      "stateMutability": "view",
      "type": "function"
    },
    {
      "inputs": [
        {
          "internalType": "contract ISuperfluidToken",
          "name": "token",
          "type": "address"
        },
        {
          "internalType": "address",
          "name": "publisher",
          "type": "address"
        },
        {
          "internalType": "uint32",
          "name": "indexId",
          "type": "uint32"
        },
        {
          "internalType": "bytes",
          "name": "ctx",
          "type": "bytes"
        }
      ],
      "name": "revokeSubscription",
      "outputs": [
        {
          "internalType": "bytes",
          "name": "newCtx",
          "type": "bytes"
        }
      ],
      "stateMutability": "nonpayable",
      "type": "function"
    },
    {
      "inputs": [
        {
          "internalType": "address",
          "name": "newAddress",
          "type": "address"
        }
      ],
      "name": "updateCode",
      "outputs": [],
      "stateMutability": "nonpayable",
      "type": "function"
    },
    {
      "inputs": [
        {
          "internalType": "contract ISuperfluidToken",
          "name": "token",
          "type": "address"
        },
        {
          "internalType": "uint32",
          "name": "indexId",
          "type": "uint32"
        },
        {
          "internalType": "uint128",
          "name": "indexValue",
          "type": "uint128"
        },
        {
          "internalType": "bytes",
          "name": "ctx",
          "type": "bytes"
        }
      ],
      "name": "updateIndex",
      "outputs": [
        {
          "internalType": "bytes",
          "name": "newCtx",
          "type": "bytes"
        }
      ],
      "stateMutability": "nonpayable",
      "type": "function"
    },
    {
      "inputs": [
        {
          "internalType": "contract ISuperfluidToken",
          "name": "token",
          "type": "address"
        },
        {
          "internalType": "uint32",
          "name": "indexId",
          "type": "uint32"
        },
        {
          "internalType": "address",
          "name": "subscriber",
          "type": "address"
        },
        {
          "internalType": "uint128",
          "name": "units",
          "type": "uint128"
        },
        {
          "internalType": "bytes",
          "name": "ctx",
          "type": "bytes"
        }
      ],
      "name": "updateSubscription",
      "outputs": [
        {
          "internalType": "bytes",
          "name": "newCtx",
          "type": "bytes"
        }
      ],
      "stateMutability": "nonpayable",
      "type": "function"
    }
  ],
  "bytecode": {
    "object": "0x60a06040523480156200001157600080fd5b506040516200521238038062005212833981016040819052620000349162000046565b6001600160a01b031660805262000078565b6000602082840312156200005957600080fd5b81516001600160a01b03811681146200007157600080fd5b9392505050565b60805161517e62000094600039600061102b015261517e6000f3fe608060405234801561001057600080fd5b50600436106101075760003560e01c8063232d2b581461010c57806323fc23f3146101355780632e5e74c6146101795780633fd4176a1461018c57806346951954146101b457806350d75d25146101c957806352d1902d146101d15780635b534051146101e75780636041ae961461022b5780637730599e1461023e5780637fbc763914610264578063899baaec146102775780639903ad38146102a75780639b2e48bc146102af578063a5653ced146102dd578063acafa1b8146102fb578063acf4a6c21461030e578063b6dacdb814610321578063b96731c214610343578063cd7245c514610356578063d787840a146103ae575b600080fd5b61011f61011a3660046141df565b6103c1565b60405161012c91906142ba565b60405180910390f35b6101486101433660046142cd565b610ab3565b6040805194151585526001600160801b0393841660208601529183169184019190915216606082015260800161012c565b61011f610187366004614318565b610b03565b6101a773__$6040e6113e0e8355239b974a4a8d52be72$__81565b60405161012c919061436c565b6101c76101c2366004614380565b611020565b005b6101a7611075565b6101d9611084565b60405190815260200161012c565b6101fa6101f53660046143a4565b6110e8565b60405161012c9493929190931515845291151560208401526001600160801b03166040830152606082015260800190565b61011f610239366004614400565b6111a3565b7f8aedc3b5d4bf031e11a7e2940f7251c005698405d58e02e1c247fed3b1b3a6746101d9565b61011f61027236600461447b565b6115a2565b61028a6102853660046144bc565b61168f565b604080519283526001600160801b0390911660208301520161012c565b6101c7611734565b6102c26102bd36600461450d565b611842565b6040805193845260208401929092529082015260600161012c565b6102e661010081565b60405163ffffffff909116815260200161012c565b61011f610309366004614318565b611a32565b61011f61031c366004614400565b611e35565b61033461032f36600461454e565b6123eb565b60405161012c939291906145cb565b61011f610351366004614668565b612640565b6103696103643660046146bd565b612740565b604080516001600160a01b03909616865263ffffffff9094166020860152911515928401929092526001600160801b039091166060830152608082015260a00161012c565b61011f6103bc3660046146e9565b612827565b60606001600160a01b0385166103ea57604051633242919d60e21b815260040160405180910390fd5b6103f2614032565b6103fa614075565b606060008061043f8c89898080601f0160208091040260200160405190810160405280939291908181526020018383808284376000920191909152506129e292505050565b90508060a001519250806060015191505061045e8b828b8d6000612baf565b608089015215156020808901919091526060880191909152604080880183905292875282519081019092526000825261049a918d918c91612c8f565b925086868080601f0160208091040260200160405190810160405280939291908181526020018383808284376000920191909152505050602086015191965050156104fd57600160221b60c08401526104f38386612cbd565b60a0850152610517565b600160201b60c08401526105118386612cbd565b60a08501525b83602001518015610534575060808401515163ffffffff90811614155b1561060f576105838460800151608001516001600160801b0316896001600160801b03168660600151602001516001600160801b03166105749190614763565b61057e9190614776565b612e73565b6060850180516001600160801b03909216602090920191909152845190516001600160a01b038d169163a1b2bf8b916105bb90612ee0565b6040518363ffffffff1660e01b81526004016105d89291906147b9565b600060405180830381600087803b1580156105f257600080fd5b505af1158015610606573d6000803e3d6000fd5b505050506107f6565b83602001511561068c576106548460800151608001516001600160801b0316896001600160801b03168660600151604001516001600160801b03166105749190614763565b6060850180516001600160801b03909216604090920191909152845190516001600160a01b038d169163a1b2bf8b916105bb90612ee0565b6040518060a0016040528063ffffffff80168152602001826001600160a01b031681526020018b63ffffffff1681526020018560600151600001516001600160801b03168152602001896001600160801b031681525084608001819052508a6001600160a01b03166312a6a3f8856040015161070b8760800151612f7e565b6040518363ffffffff1660e01b81526004016107289291906147b9565b600060405180830381600087803b15801561074257600080fd5b505af1158015610756573d6000803e3d6000fd5b505050508784606001516040015161076e91906147d2565b6060850180516001600160801b03909216604090920191909152845190516001600160a01b038d169163a1b2bf8b916107a690612ee0565b6040518363ffffffff1660e01b81526004016107c39291906147b9565b600060405180830381600087803b1580156107dd57600080fd5b505af11580156107f1573d6000803e3d6000fd5b505050505b60008460800151608001516001600160801b031685608001516060015186606001516000015161082691906147f9565b6001600160801b03166108399190614819565b905063ffffffff801685608001516000015163ffffffff16036108d2576108698c8361086484614849565b613025565b6001600160a01b038c1663cf97256d8361088284614849565b6040518363ffffffff1660e01b815260040161089f929190614865565b600060405180830381600087803b1580156108b957600080fd5b505af11580156108cd573d6000803e3d6000fd5b505050505b60405163cf97256d60e01b81526001600160a01b038d169063cf97256d90610900908d908590600401614865565b600060405180830381600087803b15801561091a57600080fd5b505af115801561092e573d6000803e3d6000fd5b505050508460200151156109d45760608086015151608080880180516001600160801b039384169401939093528251918c16910152604086015190516001600160a01b038e169163a1b2bf8b9161098490612f7e565b6040518363ffffffff1660e01b81526004016109a19291906147b9565b600060405180830381600087803b1580156109bb57600080fd5b505af11580156109cf573d6000803e3d6000fd5b505050505b846020015115610a0257600160231b60c085015260a08501516109f990859088613171565b9650610a219050565b600160211b60c085015260a0850151610a1d90859088613171565b9650505b8a63ffffffff16826001600160a01b03168d6001600160a01b03166000805160206150e98339815191528d8d88604051610a5d9392919061487e565b60405180910390a4896001600160a01b03168c6001600160a01b0316600080516020615129833981519152848e8d88604051610a9c94939291906148ba565b60405180910390a350505050509695505050505050565b600080600080610ac16140b0565b6000610acd88886133bc565b9050610ad9898261341e565b90965091508515610af857815160208301516040840151919650945092505b505093509350935093565b6060610b0d614032565b610b15614075565b600060606000610b5b8c89898080601f0160208091040260200160405190810160405280939291908181526020018383808284376000920191909152506129e292505050565b606081015160a0909101519093509150506001600160a01b038816610b9357604051633242919d60e21b815260040160405180910390fd5b896001600160a01b0316826001600160a01b031614610bc5576040516392da6d1760e01b815260040160405180910390fd5b610bd38b8b8a8c6001612baf565b6080890152506060870152604080870182905291865281516020810190925260008252610c03918d918b91612c8f565b925086868080601f01602080910402602001604051908101604052809392919081815260200183838082843760009201919091525050600160241b60c087015250909550610c5390508386612cbd565b60a08501526080808501519081015160609182015191860151516000926001600160801b0390921691610c85916147f9565b6001600160801b0316610c989190614819565b60808601515190915063ffffffff90811614610ce557846080015160800151856060015160200151610cca91906147f9565b60608601516001600160801b03909116602090910152610d18565b846080015160800151856060015160400151610d0191906147f9565b60608601516001600160801b039091166040909101525b8b6001600160a01b031663a1b2bf8b8660000151610d398860600151612ee0565b6040518363ffffffff1660e01b8152600401610d569291906147b9565b600060405180830381600087803b158015610d7057600080fd5b505af1158015610d84573d6000803e3d6000fd5b5050505060808501515163ffffffff90811614610dae57610dae8c8a87608001516000015161351c565b60808501515163ffffffff1663fffffffe1901610e3c57610dd38c8c61086484614849565b6001600160a01b038c1663cf97256d8c610dec84614849565b6040518363ffffffff1660e01b8152600401610e09929190614865565b600060405180830381600087803b158015610e2357600080fd5b505af1158015610e37573d6000803e3d6000fd5b505050505b6040858101519051632704839760e01b81526004810191909152600260248201526001600160a01b038d1690632704839790604401600060405180830381600087803b158015610e8b57600080fd5b505af1158015610e9f573d6000803e3d6000fd5b505060405163cf97256d60e01b81526001600160a01b038f16925063cf97256d9150610ed1908c908590600401614865565b600060405180830381600087803b158015610eeb57600080fd5b505af1158015610eff573d6000803e3d6000fd5b5050600160251b60c0870152505060a0850151610f1e90859088613171565b9050809650508963ffffffff168b6001600160a01b03168d6001600160a01b03166000805160206150a98339815191528c86604051610f5e929190614903565b60405180910390a4886001600160a01b03168c6001600160a01b03166000805160206150c98339815191528d8d86604051610f9b93929190614927565b60405180910390a38963ffffffff168b6001600160a01b03168d6001600160a01b03166000805160206150e98339815191528c600087604051610fe09392919061487e565b60405180910390a4886001600160a01b03168c6001600160a01b03166000805160206151298339815191528d8d600087604051610a9c94939291906148ba565b336001600160a01b037f0000000000000000000000000000000000000000000000000000000000000000161461106957604051630b00ec8f60e11b815260040160405180910390fd5b611072816135a7565b50565b600061107f613779565b905090565b6000306001600160a01b0316637730599e6040518163ffffffff1660e01b8152600401602060405180830381865afa1580156110c4573d6000803e3d6000fd5b505050506040513d601f19601f8201168201806040525081019061107f9190614957565b6000806000806000806110f96140b0565b6111016140d0565b61110f8c8c8b8d6000612baf565b909b50929650909450925090508761113857600080600080975097509750975050505050611198565b8051608082015163ffffffff91821690911415975095508661118e5780608001516001600160801b03168160600151836000015161117691906147f9565b6001600160801b03166111899190614970565b611191565b60005b9450505050505b945094509450949050565b60606111ad614032565b6111b5614075565b6000606060006111fb8b89898080601f0160208091040260200160405190810160405280939291908181526020018383808284376000920191909152506129e292505050565b9050806060015192508060a0015191505061121a8a8a848b6001612baf565b6080890181905260608901929092525060408701919091529085525163ffffffff1663fffffffe190161126057604051633741257360e01b815260040160405180910390fd5b61127f8a8a866040015160405180602001604052806000815250612c8f565b925086868080601f01602080910402602001604051908101604052809392919081815260200183838082843760009201919091525050600160241b60c0870152509095506112cf90508386612cbd565b60a08501526080808501519081015160609182015191860151516000926001600160801b0390921691611301916147f9565b6001600160801b03166113149190614819565b905084608001516080015185606001516020015161133291906147f9565b6060860180516001600160801b03909216602090920191909152608080870151015190516040015161136491906147d2565b6060860180516001600160801b03909216604090920191909152855190516001600160a01b038d169163a1b2bf8b9161139c90612ee0565b6040518363ffffffff1660e01b81526004016113b99291906147b9565b600060405180830381600087803b1580156113d357600080fd5b505af11580156113e7573d6000803e3d6000fd5b505050506113fe8b8487608001516000015161351c565b606080860151516080870180516001600160801b039092169190920152805163ffffffff9052604086015190516001600160a01b038d169163a1b2bf8b9161144590612f7e565b6040518363ffffffff1660e01b81526004016114629291906147b9565b600060405180830381600087803b15801561147c57600080fd5b505af1158015611490573d6000803e3d6000fd5b505060405163cf97256d60e01b81526001600160a01b038e16925063cf97256d91506114c29086908590600401614865565b600060405180830381600087803b1580156114dc57600080fd5b505af11580156114f0573d6000803e3d6000fd5b5050600160251b60c0870152505060a085015161150f90859088613171565b9050809650508863ffffffff168a6001600160a01b03168c6001600160a01b03166000805160206150a9833981519152868660405161154f929190614903565b60405180910390a4826001600160a01b03168b6001600160a01b03166000805160206150c98339815191528c8c8660405161158c93929190614927565b60405180910390a3505050505095945050505050565b606060006115e68785858080601f0160208091040260200160405190810160405280939291908181526020018383808284376000920191909152506129e292505050565b60608101519091506000806115fc8a848b61378c565b9150915080600001516001600160801b0316886001600160801b031610156116375760405163cfdca72560e01b815260040160405180910390fd5b61164a8a848b85858d8a60a001516137d9565b86868080601f016020809104026020016040519081016040528093929190818152602001838380828437600092019190915250929d9c50505050505050505050505050565b600080600061169e86866133bc565b90506000806116ad898461341e565b91509150816116cf5760405163edeaa63b60e01b815260040160405180910390fd5b6000816040015182602001516116e591906147d2565b6001600160801b0316905060006116ff61057e838a614987565b835190915061170f9082906147d2565b9550611724826001600160801b038316614970565b9650505050505094509492505050565b600054610100900460ff16158080156117545750600054600160ff909116105b8061176e5750303b15801561176e575060005460ff166001145b6117d65760405162461bcd60e51b815260206004820152602e60248201527f496e697469616c697a61626c653a20636f6e747261637420697320616c72656160448201526d191e481a5b9a5d1a585b1a5e995960921b60648201526084015b60405180910390fd5b6000805460ff1916600117905580156117f9576000805461ff0019166101001790555b8015611072576000805461ff0019169055604051600181527f7f26b83ff96e1f2b6a682f133852f6798a09c465da95921460cefb3847402498906020015b60405180910390a150565b60008060006060806118548888613a0b565b909250905060005b81518163ffffffff161015611a165760006118756140d0565b600080868563ffffffff1681518110611890576118906149a9565b602002602001015190506118c38d878763ffffffff16815181106118b6576118b66149a9565b6020026020010151613afe565b9094509250836118d5576118d56149bf565b8063ffffffff16836000015163ffffffff16146118f4576118f46149bf565b6001600160a01b038d16634b61cc33308e61191963ffffffff8616600160801b614763565b60016040518563ffffffff1660e01b815260040161193a94939291906149d5565b600060405180830381865afa158015611957573d6000803e3d6000fd5b505050506040513d6000823e601f3d908101601f1916820160405261197f9190810190614afb565b600081518110611991576119916149a9565b60200260200101519150506119a46140b0565b6119ae8d8361341e565b9094509050836119c0576119c06149bf565b82608001516001600160801b0316836060015182600001516119e291906147f9565b6001600160801b03166119f59190614819565b6119ff908b614b2f565b99505050505080611a0f90614b57565b905061185c565b50611a218888613c16565b935060009250505093509350939050565b6060611a748784848080601f0160208091040260200160405190810160405280939291908181526020018383808284376000920191909152506129e292505050565b506001600160a01b038416611a9c57604051633242919d60e21b815260040160405180910390fd5b611aa4614032565b611aac614075565b611aba8989888a6001612baf565b6080870181905260608701929092525060408501919091529083525163ffffffff90811614611afc57604051633eb2f84960e01b815260040160405180910390fd5b60008260800151608001516001600160801b0316836080015160600151846060015160000151611b2c91906147f9565b6001600160801b0316611b3f9190614970565b9050611b608a8a856040015160405180602001604052806000815250612c8f565b915085858080601f0160208091040260200160405190810160405280939291908181526020018383808284376000920191909152509296505082159150611dee905057600160221b60c0830152611bb78285612cbd565b60a0840152611bca8a8a61086484614849565b6001600160a01b038a1663cf97256d8a611be384614849565b6040518363ffffffff1660e01b8152600401611c00929190614865565b600060405180830381600087803b158015611c1a57600080fd5b505af1158015611c2e573d6000803e3d6000fd5b50505050606083810151516080850180516001600160801b039092169190920152604084015190516001600160a01b038c169163a1b2bf8b91611c7090612f7e565b6040518363ffffffff1660e01b8152600401611c8d9291906147b9565b600060405180830381600087803b158015611ca757600080fd5b505af1158015611cbb573d6000803e3d6000fd5b505060405163cf97256d60e01b81526001600160a01b038d16925063cf97256d9150611ced908a908590600401614865565b600060405180830381600087803b158015611d0757600080fd5b505af1158015611d1b573d6000803e3d6000fd5b505050508763ffffffff16896001600160a01b03168b6001600160a01b03167f467eccd248ef31c8bcef16d94856855799a8783aeef10f3759e43614059a6bb18a85604051611d6b929190614865565b60405180910390a4604080516001600160a01b038b8116825263ffffffff8b166020830152918101839052818916918c16907f48a3d91d4a07e4982b081260e24f922bd33bb965882772d6de19c922c3eabdea9060600160405180910390a3600160231b60c083015260a0830151611de590839086613171565b9450611e289050565b85858080601f0160208091040260200160405190810160405280939291908181526020018383808284376000920191909152509296505050505b5050509695505050505050565b6060611e3f614032565b611e47614075565b600060606000611e8d8b89898080601f0160208091040260200160405190810160405280939291908181526020018383808284376000920191909152506129e292505050565b9050806060015192508060a00151915050611eac8a8a848b6000612baf565b6080890152158015602089015260608801919091526040870191909152908552611efc5760808401515163ffffffff90811614611efc57604051633eb2f84960e01b815260040160405180910390fd5b86868080601f01602080910402602001604051908101604052809392919081815260200183838082843760009201829052506040808a0151815160208101909252918152949950611f55948f94508e9350909150612c8f565b9250836020015161207c57600160201b60c0840152611f748386612cbd565b60a08086019190915260408051918201815260008083526001600160a01b038c16602084015263ffffffff8b1691830191909152606080870151516001600160801b0316908301526080808301919091528501528351611fd7908b908490613cbe565b60808501805163ffffffff909216909152604085015190516001600160a01b038c16916312a6a3f89161200990612f7e565b6040518363ffffffff1660e01b81526004016120269291906147b9565b600060405180830381600087803b15801561204057600080fd5b505af1158015612054573d6000803e3d6000fd5b5050600160211b60c0860152505060a084015161207390849087613171565b955061233b9050565b600160221b60c08401526120908386612cbd565b60a08501526080808501519081015160609182015191860151516000926001600160801b03909216916120c2916147f9565b6001600160801b03166120d59190614819565b905084608001516080015185606001516020018181516120f591906147d2565b6001600160801b031690525060808086015101516060860151604001805161211e9083906147f9565b6001600160801b0316905250845160608601516001600160a01b038d169163a1b2bf8b9161214b90612ee0565b6040518363ffffffff1660e01b81526004016121689291906147b9565b600060405180830381600087803b15801561218257600080fd5b505af1158015612196573d6000803e3d6000fd5b505050506121a98b8b8361086490614849565b6001600160a01b038b1663cf97256d8b6121c284614849565b6040518363ffffffff1660e01b81526004016121df929190614865565b600060405180830381600087803b1580156121f957600080fd5b505af115801561220d573d6000803e3d6000fd5b505060405163cf97256d60e01b81526001600160a01b038e16925063cf97256d915061223f9086908590600401614865565b600060405180830381600087803b15801561225957600080fd5b505af115801561226d573d6000803e3d6000fd5b5050506060808701515160808801516001600160801b0390911691015250845161229a908c908590613cbe565b60808601805163ffffffff909216909152604086015190516001600160a01b038d169163a1b2bf8b916122cc90612f7e565b6040518363ffffffff1660e01b81526004016122e99291906147b9565b600060405180830381600087803b15801561230357600080fd5b505af1158015612317573d6000803e3d6000fd5b5050600160231b60c0870152505060a085015161233690859088613171565b965050505b8763ffffffff16896001600160a01b03168b6001600160a01b03167f492d2641617cfaf24ac7328f85bc5bdf5113537d78dc7671afa4f49a73f053c28585604051612387929190614903565b60405180910390a4816001600160a01b03168a6001600160a01b03167fc0b8396b655615cdb85fe462a9a1792480816f909cd46d9517a940b386dfbf6b8b8b856040516123d693929190614927565b60405180910390a35050505095945050505050565b60608060608060606123fd8787613a0b565b9092509050600061240c6140d0565b82516001600160401b03811115612425576124256149fe565b60405190808252806020026020018201604052801561244e578160200160208202803683370190505b50965082516001600160401b0381111561246a5761246a6149fe565b604051908082528060200260200182016040528015612493578160200160208202803683370190505b50955082516001600160401b038111156124af576124af6149fe565b6040519080825280602002602001820160405280156124d8578160200160208202803683370190505b50945060005b83518163ffffffff161015612634576000858263ffffffff1681518110612507576125076149a9565b602002602001015190506000858363ffffffff168151811061252b5761252b6149a9565b6020026020010151905061253f8c82613afe565b909550935084612551576125516149bf565b8163ffffffff16846000015163ffffffff1614612570576125706149bf565b83602001518a8463ffffffff168151811061258d5761258d6149a9565b60200260200101906001600160a01b031690816001600160a01b0316815250508360400151898463ffffffff16815181106125ca576125ca6149a9565b602002602001019063ffffffff16908163ffffffff16815250508360800151888463ffffffff1681518110612601576126016149a9565b60200260200101906001600160801b031690816001600160801b03168152505050508061262d90614b57565b90506124de565b50505050509250925092565b606060006126848785858080601f0160208091040260200160405190810160405280939291908181526020018383808284376000920191909152506129e292505050565b606081015190915060008061269a8a848b61378c565b915091506000816040015182602001516126b491906147d2565b6001600160801b0316905080156126fa5760006126d461057e838c614987565b90506126f88c868d87878689600001516126ee91906147d2565b8c60a001516137d9565b505b87878080601f016020809104026020016040519081016040528093929190818152602001838380828437600092019190915250929e9d5050505050505050505050505050565b60008060008060008060006127536140b0565b61275b6140d0565b6127658b8b613afe565b9094509050836127885760405163016d919360e71b815260040160405180910390fd5b80602001519850806040015197506127a089896133bc565b92506127ac8b8461341e565b9094509150836127be576127be6149bf565b8051608082015163ffffffff9182169091141597509550866128145780608001516001600160801b0316816060015183600001516127fc91906147f9565b6001600160801b031661280f9190614970565b612817565b60005b9450505050509295509295909350565b6060600061286b8685858080601f0160208091040260200160405190810160405280939291908181526020018383808284376000920191909152506129e292505050565b6060810151909150600061287f82886133bc565b905061288b8882613d65565b156128a957604051635c02a51760e01b815260040160405180910390fd5b876001600160a01b03166312a6a3f8826128fa604051806060016040528060006001600160801b0316815260200160006001600160801b0316815260200160006001600160801b0316815250612ee0565b6040518363ffffffff1660e01b81526004016129179291906147b9565b600060405180830381600087803b15801561293157600080fd5b505af1158015612945573d6000803e3d6000fd5b505050508663ffffffff16826001600160a01b0316896001600160a01b03167f01ab8663165edfb7390d9e5f75d960a66dacf4f01fa9787e3a731c870d0da9218660a0015160405161299791906142ba565b60405180910390a485858080601f016020809104026020016040519081016040528093929190818152602001838380828437600092019190915250929b9a5050505050505050505050565b6129ea6140fe565b336001600160a01b0316836001600160a01b03166320bc44256040518163ffffffff1660e01b8152600401602060405180830381865afa158015612a32573d6000803e3d6000fd5b505050506040513d601f19601f82011682018060405250810190612a569190614b85565b6001600160a01b031614612aa05760405162461bcd60e51b81526020600482015260116024820152701d5b985d5d1a1bdc9a5e9959081a1bdcdd607a1b60448201526064016117cd565b604051632fd0a1cd60e21b8152339063bf42873490612ac39085906004016142ba565b602060405180830381865afa158015612ae0573d6000803e3d6000fd5b505050506040513d601f19601f82011682018060405250810190612b049190614bb2565b612b3e5760405162461bcd60e51b815260206004820152600b60248201526a0d2dcecc2d8d2c840c6e8f60ab1b60448201526064016117cd565b604051631fb6491d60e11b81523390633f6c923a90612b619085906004016142ba565b600060405180830381865afa158015612b7e573d6000803e3d6000fd5b505050506040513d6000823e601f3d908101601f19168201604052612ba69190810190614c59565b90505b92915050565b600080612bba6140b0565b6000612bc46140d0565b6000612bd08a896133bc565b9550612bdc8987613e0b565b9450612be88b8761341e565b9450905080612c0a5760405163edeaa63b60e01b815260040160405180910390fd5b612c148b86613afe565b90935091508615612c815782612c3d5760405163016d919360e71b815260040160405180910390fd5b896001600160a01b031682602001516001600160a01b031614612c6257612c626149bf565b8763ffffffff16826040015163ffffffff1614612c8157612c816149bf565b509550955095509550959050565b612c97614075565b6001600160a01b0394851681529290931660208301526040820152606081019190915290565b60606000806000336001600160a01b031663f9f522f487602001516040518263ffffffff1660e01b8152600401612cf4919061436c565b606060405180830381865afa158015612d11573d6000803e3d6000fd5b505050506040513d601f19601f82011682018060405250810190612d359190614d5f565b91945092509050828015612d47575081155b15612e6a576000612d588688613e47565b90508660c001518216600003612e5c576000612d778860c00151613ec5565b88516040808b015160608c015182516000815260208101909352612da393923092919060448101614d9b565b60408051601f19818403018152918152602080830180516001600160e01b03166001600160e01b031990951694909417909352918a015160c08b01519251633a020f0160e11b815291935033926374041e0292612e1192918691600160241b91909114908890600401614de0565b6000604051808303816000875af1158015612e30573d6000803e3d6000fd5b505050506040513d6000823e601f3d908101601f19168201604052612e589190810190614e29565b9550505b612e67866000613f57565b50505b50505092915050565b60006001600160801b03821115612edc5760405162461bcd60e51b815260206004820152602760248201527f53616665436173743a2076616c756520646f65736e27742066697420696e20316044820152663238206269747360c81b60648201526084016117cd565b5090565b604080516002808252606080830184529260208301908036833701905050905081600001516001600160801b0316600160801b1760001b81600081518110612f2a57612f2a6149a9565b602002602001018181525050608082604001516001600160801b0316901b82602001516001600160801b03161760001b81600181518110612f6d57612f6d6149a9565b602002602001018181525050919050565b6040805160028082526060808301845292602083019080368337019050509050816000015163ffffffff166020836040015163ffffffff16901b606084602001516001600160a01b0316901b171760001b81600081518110612fe257612fe26149a9565b602002602001018181525050608082608001516001600160801b0316901b82606001516001600160801b03161760001b81600181518110612f6d57612f6d6149a9565b8060000361303257505050565b604051634b61cc3360e01b81526000906001600160a01b03851690634b61cc339061306c9030908790600160201b906001906004016149d5565b600060405180830381865afa158015613089573d6000803e3d6000fd5b505050506040513d6000823e601f3d908101601f191682016040526130b19190810190614afb565b9050816130da826000815181106130ca576130ca6149a9565b602002602001015160001c613f7f565b6130e49190614b2f565b60001b816000815181106130fa576130fa6149a9565b602090810291909101015260405163048620af60e11b81526001600160a01b0385169063090c415e90613139908690600160201b908690600401614e5d565b600060405180830381600087803b15801561315357600080fd5b505af1158015613167573d6000803e3d6000fd5b5050505050505050565b6131796140fe565b60606000806000336001600160a01b031663f9f522f489602001516040518263ffffffff1660e01b81526004016131b0919061436c565b606060405180830381865afa1580156131cd573d6000803e3d6000fd5b505050506040513d601f19601f820116820180604052508101906131f19190614d5f565b88965091945092509050828015613206575081155b156133b1576132158489613e47565b93508760c00151811660000361339f5760006132348960c00151613ec5565b89516040808c015160608d0151825160008152602081019093526132629392309291908e9060448101614e84565b60408051601f19818403018152918152602080830180516001600160e01b03166001600160e01b031990951694909417909352918b015160c08c0151925163079b42a160e21b81529193503392631e6d0a84926132d092918691600160251b91909114908b90600401614de0565b6000604051808303816000875af11580156132ef573d6000803e3d6000fd5b505050506040513d6000823e601f3d908101601f191682016040526133179190810190614e29565b604051631fb6491d60e11b81529095503390633f6c923a9061333d9088906004016142ba565b600060405180830381865afa15801561335a573d6000803e3d6000fd5b505050506040513d6000823e601f3d908101601f191682016040526133829190810190614c59565b95506133978960800151876101000151613fe9565b610100870152505b6133ae86866101000151613f57565b93505b505050935093915050565b60405168383ab13634b9b432b960b91b60208201526001600160601b0319606084901b1660298201526001600160e01b031960e083901b16603d8201526000906041015b60405160208183030381529060405280519060200120905092915050565b60006134286140b0565b604051636c2d9f2f60e01b81526000906001600160a01b03861690636c2d9f2f9061345c9030908890600290600401614eea565b600060405180830381865afa158015613479573d6000803e3d6000fd5b505050506040513d6000823e601f3d908101601f191682016040526134a19190810190614afb565b90506000816000815181106134b8576134b86149a9565b602002602001015160001c90506000826001815181106134da576134da6149a9565b602002602001015160001c90506000821194508415613512576001600160801b03808316855281166020850152608081901c60408501525b5050509250929050565b604051631528e57f60e31b81526001600160a01b038085166004830152831660248201526000604482015263ffffffff8216606482015273__$6040e6113e0e8355239b974a4a8d52be72$__9063a9472bf89060840160006040518083038186803b15801561358a57600080fd5b505af415801561359e573d6000803e3d6000fd5b50505050505050565b60006135b1613779565b6001600160a01b0316036136075760405162461bcd60e51b815260206004820152601d60248201527f5555505350726f786961626c653a206e6f742075706772616461626c6500000060448201526064016117cd565b806001600160a01b03166352d1902d6040518163ffffffff1660e01b8152600401602060405180830381865afa158015613645573d6000803e3d6000fd5b505050506040513d601f19601f820116820180604052508101906136699190614957565b613671611084565b146136ca5760405162461bcd60e51b815260206004820152602360248201527f5555505350726f786961626c653a206e6f7420636f6d70617469626c65206c6f60448201526267696360e81b60648201526084016117cd565b6001600160a01b038116300361371e5760405162461bcd60e51b815260206004820152601960248201527805555505350726f786961626c653a2070726f7879206c6f6f7603c1b60448201526064016117cd565b6137348160008051602061510983398151915255565b7fe011bc04c286c344a8fcbb8de77f953da762c3e25d8cdea984147fc4168a5dcc61375d611084565b604080519182526001600160a01b038416602083015201611837565b6000805160206151098339815191525490565b60006137966140b0565b60006137a285856133bc565b92506137ae868461341e565b92509050806137d05760405163edeaa63b60e01b815260040160405180910390fd5b50935093915050565b866001600160a01b031663cf97256d8785602001516001600160801b031686600001518661380791906147f9565b6001600160801b031661381990614849565b6138239190614819565b6040518363ffffffff1660e01b8152600401613840929190614865565b600060405180830381600087803b15801561385a57600080fd5b505af115801561386e573d6000803e3d6000fd5b505050506138a8878785604001516001600160801b031686600001518661389591906147f9565b6001600160801b03166108649190614819565b82516001600160801b03831684526001600160a01b03881663a1b2bf8b866138cf87612ee0565b6040518363ffffffff1660e01b81526004016138ec9291906147b9565b600060405180830381600087803b15801561390657600080fd5b505af115801561391a573d6000803e3d6000fd5b505050508563ffffffff16876001600160a01b0316896001600160a01b03167f81e37f3d9f16cbf29a62d6a1c21d79b23ef29b54124ec44af43a50fffb9304f3848789604001518a6020015189604051613978959493929190614f0b565b60405180910390a46040516379359f6f60e01b81526001600160a01b038916906379359f6f906139ac908a9060040161436c565b602060405180830381865afa1580156139c9573d6000803e3d6000fd5b505050506040513d601f19601f820116820180604052508101906139ed9190614bb2565b15613167576040516316e759bb60e01b815260040160405180910390fd5b60608073__$6040e6113e0e8355239b974a4a8d52be72$__6306967a8c85856000600160801b6040518563ffffffff1660e01b8152600401613a5094939291906149d5565b600060405180830381865af4158015613a6d573d6000803e3d6000fd5b505050506040513d6000823e601f3d908101601f19168201604052613a959190810190614f47565b909250905060005b8151811015613af657613ac984838381518110613abc57613abc6149a9565b6020026020010151613e0b565b828281518110613adb57613adb6149a9565b6020908102919091010152613aef8161500b565b9050613a9d565b509250929050565b6000613b086140d0565b604051636c2d9f2f60e01b81526000906001600160a01b03861690636c2d9f2f90613b3c9030908890600290600401614eea565b600060405180830381865afa158015613b59573d6000803e3d6000fd5b505050506040513d6000823e601f3d908101601f19168201604052613b819190810190614afb565b9050600081600081518110613b9857613b986149a9565b602002602001015160001c9050600082600181518110613bba57613bba6149a9565b602002602001015160001c9050600082119450841561351257606082811c60208087019190915283901c63ffffffff9081166040870152831685526001600160801b03821690850152608081811c908501525050509250929050565b600080836001600160a01b0316634b61cc333085600160201b60016040518563ffffffff1660e01b8152600401613c5094939291906149d5565b600060405180830381865afa158015613c6d573d6000803e3d6000fd5b505050506040513d6000823e601f3d908101601f19168201604052613c959190810190614afb565b905080600081518110613caa57613caa6149a9565b602002602001015160001c91505092915050565b604051630a32470160e41b81526001600160a01b03808516600483015283166024820152600060448201819052600160801b6064830152608482018390529073__$6040e6113e0e8355239b974a4a8d52be72$__9063a32470109060a401602060405180830381865af4158015613d39573d6000803e3d6000fd5b505050506040513d601f19601f82011682018060405250810190613d5d9190615024565b949350505050565b600080836001600160a01b0316636c2d9f2f308560026040518463ffffffff1660e01b8152600401613d9993929190614eea565b600060405180830381865afa158015613db6573d6000803e3d6000fd5b505050506040513d6000823e601f3d908101601f19168201604052613dde9190810190614afb565b9050600081600081518110613df557613df56149a9565b6020908102919091010151151595945050505050565b604080516b39bab139b1b934b83a34b7b760a11b6020820152606084811b6001600160601b031916602c83015291810183905260009101613400565b6020810151608082015160a08301518351604051630768fabb60e41b8152606094339463768fabb094613e7e948a94600401615041565b6000604051808303816000875af1158015613e9d573d6000803e3d6000fd5b505050506040513d6000823e601f3d908101601f19168201604052612ba69190810190614e29565b6000600160201b8203613ee057506330d9c91560e01b919050565b600160221b8203613ef95750630221347d60e61b919050565b600160241b8203613f125750635f9e7d7760e01b919050565b600160211b8203613f2b575063d86ed3e560e01b919050565b600160231b8203613f44575063230dbd2960e01b919050565b506353c11f9960e01b919050565b919050565b604051634c4d861f60e11b8152606090339063989b0c3e90613e7e9086908690600401615086565b60006001600160ff1b03821115612edc5760405162461bcd60e51b815260206004820152602860248201527f53616665436173743a2076616c756520646f65736e27742066697420696e2061604482015267371034b73a191a9b60c11b60648201526084016117cd565b6000612ba66000614002613ffc86613f7f565b85614007565b61401c565b60008183136140165782612ba6565b50919050565b600081831361402b5781612ba6565b5090919050565b6040805160c081018252600080825260208201819052918101919091526060810161405b6140b0565b81526020016140686140d0565b8152602001606081525090565b6040805160e0810182526000808252602082018190529181018290526060808201526080810182905260a0810182905260c081019190915290565b604080516060810182526000808252602082018190529181019190915290565b6040805160a08101825260008082526020820181905291810182905260608101829052608081019190915290565b604080516101608101825260008082526020820181905291810182905260608082018390526080820183905260a082015260c0810182905260e081018290526101008101829052610120810182905261014081019190915290565b6001600160a01b038116811461107257600080fd5b63ffffffff8116811461107257600080fd5b80356001600160801b0381168114613f5257600080fd5b60008083601f8401126141a957600080fd5b5081356001600160401b038111156141c057600080fd5b6020830191508360208285010111156141d857600080fd5b9250929050565b60008060008060008060a087890312156141f857600080fd5b863561420381614159565b955060208701356142138161416e565b9450604087013561422381614159565b935061423160608801614180565b925060808701356001600160401b0381111561424c57600080fd5b61425889828a01614197565b979a9699509497509295939492505050565b60005b8381101561428557818101518382015260200161426d565b50506000910152565b600081518084526142a681602086016020860161426a565b601f01601f19169290920160200192915050565b602081526000612ba6602083018461428e565b6000806000606084860312156142e257600080fd5b83356142ed81614159565b925060208401356142fd81614159565b9150604084013561430d8161416e565b809150509250925092565b60008060008060008060a0878903121561433157600080fd5b863561433c81614159565b9550602087013561434c81614159565b9450604087013561435c8161416e565b9350606087013561423181614159565b6001600160a01b0391909116815260200190565b60006020828403121561439257600080fd5b813561439d81614159565b9392505050565b600080600080608085870312156143ba57600080fd5b84356143c581614159565b935060208501356143d581614159565b925060408501356143e58161416e565b915060608501356143f581614159565b939692955090935050565b60008060008060006080868803121561441857600080fd5b853561442381614159565b9450602086013561443381614159565b935060408601356144438161416e565b925060608601356001600160401b0381111561445e57600080fd5b61446a88828901614197565b969995985093965092949392505050565b60008060008060006080868803121561449357600080fd5b853561449e81614159565b945060208601356144ae8161416e565b935061444360408701614180565b600080600080608085870312156144d257600080fd5b84356144dd81614159565b935060208501356144ed81614159565b925060408501356144fd8161416e565b9396929550929360600135925050565b60008060006060848603121561452257600080fd5b833561452d81614159565b9250602084013561453d81614159565b929592945050506040919091013590565b6000806040838503121561456157600080fd5b823561456c81614159565b9150602083013561457c81614159565b809150509250929050565b600081518084526020808501945080840160005b838110156145c05781516001600160801b03168752958201959082019060010161459b565b509495945050505050565b606080825284519082018190526000906020906080840190828801845b8281101561460d5781516001600160a01b0316845292840192908401906001016145e8565b5050508381038285015285518082528683019183019060005b8181101561464857835163ffffffff1683529284019291840191600101614626565b5050848103604086015261465c8187614587565b98975050505050505050565b60008060008060006080868803121561468057600080fd5b853561468b81614159565b9450602086013561469b8161416e565b93506040860135925060608601356001600160401b0381111561445e57600080fd5b600080604083850312156146d057600080fd5b82356146db81614159565b946020939093013593505050565b600080600080606085870312156146ff57600080fd5b843561470a81614159565b9350602085013561471a8161416e565b925060408501356001600160401b0381111561473557600080fd5b61474187828801614197565b95989497509550505050565b634e487b7160e01b600052601160045260246000fd5b80820180821115612ba957612ba961474d565b81810381811115612ba957612ba961474d565b600081518084526020808501945080840160005b838110156145c05781518752958201959082019060010161479d565b828152604060208201526000613d5d6040830184614789565b6001600160801b038181168382160190808211156147f2576147f261474d565b5092915050565b6001600160801b038281168282160390808211156147f2576147f261474d565b80820260008212600160ff1b841416156148355761483561474d565b8181058314821517612ba957612ba961474d565b6000600160ff1b820161485e5761485e61474d565b5060000390565b6001600160a01b03929092168252602082015260400190565b6001600160a01b03841681526001600160801b03831660208201526060604082018190526000906148b19083018461428e565b95945050505050565b6001600160a01b038516815263ffffffff841660208201526001600160801b03831660408201526080606082018190526000906148f99083018461428e565b9695505050505050565b6001600160a01b0383168152604060208201819052600090613d5d9083018461428e565b6001600160a01b038416815263ffffffff831660208201526060604082018190526000906148b19083018461428e565b60006020828403121561496957600080fd5b5051919050565b8082028115828204841417612ba957612ba961474d565b6000826149a457634e487b7160e01b600052601260045260246000fd5b500490565b634e487b7160e01b600052603260045260246000fd5b634e487b7160e01b600052600160045260246000fd5b6001600160a01b0394851681529290931660208301526040820152606081019190915260800190565b634e487b7160e01b600052604160045260246000fd5b60405161016081016001600160401b0381118282101715614a3757614a376149fe565b60405290565b604051601f8201601f191681016001600160401b0381118282101715614a6557614a656149fe565b604052919050565b60006001600160401b03821115614a8657614a866149fe565b5060051b60200190565b600082601f830112614aa157600080fd5b81516020614ab6614ab183614a6d565b614a3d565b82815260059290921b84018101918181019086841115614ad557600080fd5b8286015b84811015614af05780518352918301918301614ad9565b509695505050505050565b600060208284031215614b0d57600080fd5b81516001600160401b03811115614b2357600080fd5b613d5d84828501614a90565b8082018281126000831280158216821582161715614b4f57614b4f61474d565b505092915050565b600063ffffffff808316818103614b7057614b7061474d565b6001019392505050565b8051613f5281614159565b600060208284031215614b9757600080fd5b815161439d81614159565b80518015158114613f5257600080fd5b600060208284031215614bc457600080fd5b612ba682614ba2565b805160ff81168114613f5257600080fd5b80516001600160e01b031981168114613f5257600080fd5b600082601f830112614c0757600080fd5b81516001600160401b03811115614c2057614c206149fe565b614c33601f8201601f1916602001614a3d565b818152846020838601011115614c4857600080fd5b613d5d82602083016020870161426a565b600060208284031215614c6b57600080fd5b81516001600160401b0380821115614c8257600080fd5b908301906101608286031215614c9757600080fd5b614c9f614a14565b614ca883614bcd565b8152614cb660208401614bcd565b602082015260408301516040820152614cd160608401614b7a565b6060820152614ce260808401614bde565b608082015260a083015182811115614cf957600080fd5b614d0587828601614bf6565b60a08301525060c083015160c082015260e083015160e0820152610100915081830151828201526101209150614d3c828401614b7a565b828201526101409150614d50828401614b7a565b91810191909152949350505050565b600080600060608486031215614d7457600080fd5b614d7d84614ba2565b9250614d8b60208501614ba2565b9150604084015190509250925092565b6001600160a01b038681168252851660208201526040810184905260a060608201819052600090614dce9083018561428e565b828103608084015261465c818561428e565b6001600160a01b0385168152608060208201819052600090614e049083018661428e565b84151560408401528281036060840152614e1e818561428e565b979650505050505050565b600060208284031215614e3b57600080fd5b81516001600160401b03811115614e5157600080fd5b613d5d84828501614bf6565b60018060a01b03841681528260208201526060604082015260006148b16060830184614789565b6001600160a01b038781168252861660208201526040810185905260c060608201819052600090614eb79083018661428e565b8281036080840152614ec9818661428e565b905082810360a0840152614edd818561428e565b9998505050505050505050565b6001600160a01b039390931683526020830191909152604082015260600190565b6001600160801b038681168252858116602083015284811660408301528316606082015260a060808201819052600090614e1e9083018461428e565b60008060408385031215614f5a57600080fd5b82516001600160401b0380821115614f7157600080fd5b818501915085601f830112614f8557600080fd5b81516020614f95614ab183614a6d565b82815260059290921b84018101918181019089841115614fb457600080fd5b948201945b83861015614fdb578551614fcc8161416e565b82529482019490820190614fb9565b91880151919650909350505080821115614ff457600080fd5b5061500185828601614a90565b9150509250929050565b60006001820161501d5761501d61474d565b5060010190565b60006020828403121561503657600080fd5b815161439d8161416e565b60a08152600061505460a083018861428e565b6001600160a01b0396871660208401526040830195909552506060810192909252909216608090920191909152919050565b604081526000615099604083018561428e565b9050826020830152939250505056fee1f8e9cd8061e5b251769965bda6ca9ef1674bc6541fb9131039fa53f024d1429e02127550b99adc8cc6ee332a36f31338facdbc396cebefce9a047247cd04550115987243fd19d615b5ea62a80372a06a2b37fec378b148ee7a507c5c4c0a39360894a13ba1a3210667c828492db98dca3e2076cc3735a920a3ca505d382bbce0707ac7efb8b59c22189af8d004ed17dc9e4379e71b9066119b62c182524977a2646970667358221220d3a11f8bf2087409ea6edcf059f9182a27217af3b899bc31aac515b84c5dce5b64736f6c63430008130033",
    "linkReferences": {
      "lib/superfluid-protocol-monorepo/packages/ethereum-contracts/contracts/libs/SlotsBitmapLibrary.sol": {
        "SlotsBitmapLibrary": [
          {
            "start": 549,
            "length": 20
          },
          {
            "start": 13801,
            "length": 20
          },
          {
            "start": 15012,
            "length": 20
          },
          {
            "start": 15763,
            "length": 20
          }
        ]
      }
    }
  },
  "methodIdentifiers": {
    "MAX_NUM_SUBSCRIPTIONS()": "a5653ced",
    "SLOTS_BITMAP_LIBRARY_ADDRESS()": "3fd4176a",
    "agreementType()": "7730599e",
    "approveSubscription(address,address,uint32,bytes)": "acf4a6c2",
    "calculateDistribution(address,address,uint32,uint256)": "899baaec",
    "castrate()": "9903ad38",
    "claim(address,address,uint32,address,bytes)": "acafa1b8",
    "createIndex(address,uint32,bytes)": "d787840a",
    "deleteSubscription(address,address,uint32,address,bytes)": "2e5e74c6",
    "distribute(address,uint32,uint256,bytes)": "b96731c2",
    "getCodeAddress()": "50d75d25",
    "getIndex(address,address,uint32)": "23fc23f3",
    "getSubscription(address,address,uint32,address)": "5b534051",
    "getSubscriptionByID(address,bytes32)": "cd7245c5",
    "listSubscriptions(address,address)": "b6dacdb8",
    "proxiableUUID()": "52d1902d",
    "realtimeBalanceOf(address,address,uint256)": "9b2e48bc",
    "revokeSubscription(address,address,uint32,bytes)": "6041ae96",
    "updateCode(address)": "46951954",
    "updateIndex(address,uint32,uint128,bytes)": "7fbc7639",
    "updateSubscription(address,uint32,address,uint128,bytes)": "232d2b58"
  },
  "id": 50
}