{
  "abi": [
    {
      "inputs": [
        {
          "internalType": "contract ISuperfluid",
          "name": "host",
          "type": "address"
        }
      ],
      "stateMutability": "nonpayable",
      "type": "constructor"
    },
    {
      "inputs": [],
      "name": "AGREEMENT_BASE_ONLY_HOST",
      "type": "error"
    },
    {
      "inputs": [],
      "name": "IDA_INDEX_ALREADY_EXISTS",
      "type": "error"
    },
    {
      "inputs": [],
      "name": "IDA_INDEX_DOES_NOT_EXIST",
      "type": "error"
    },
    {
      "inputs": [],
      "name": "IDA_INDEX_SHOULD_GROW",
      "type": "error"
    },
    {
      "inputs": [],
      "name": "IDA_INSUFFICIENT_BALANCE",
      "type": "error"
    },
    {
      "inputs": [],
      "name": "IDA_OPERATION_NOT_ALLOWED",
      "type": "error"
    },
    {
      "inputs": [],
      "name": "IDA_SUBSCRIPTION_ALREADY_APPROVED",
      "type": "error"
    },
    {
      "inputs": [],
      "name": "IDA_SUBSCRIPTION_DOES_NOT_EXIST",
      "type": "error"
    },
    {
      "inputs": [],
      "name": "IDA_SUBSCRIPTION_IS_NOT_APPROVED",
      "type": "error"
    },
    {
      "inputs": [],
      "name": "IDA_ZERO_ADDRESS_SUBSCRIBER",
      "type": "error"
    },
    {
      "anonymous": false,
      "inputs": [
        {
          "indexed": false,
          "internalType": "bytes32",
          "name": "uuid",
          "type": "bytes32"
        },
        {
          "indexed": false,
          "internalType": "address",
          "name": "codeAddress",
          "type": "address"
        }
      ],
      "name": "CodeUpdated",
      "type": "event"
    },
    {
      "anonymous": false,
      "inputs": [
        {
          "indexed": true,
          "internalType": "contract ISuperfluidToken",
          "name": "token",
          "type": "address"
        },
        {
          "indexed": true,
          "internalType": "address",
          "name": "publisher",
          "type": "address"
        },
        {
          "indexed": true,
          "internalType": "uint32",
          "name": "indexId",
          "type": "uint32"
        },
        {
          "indexed": false,
          "internalType": "bytes",
          "name": "userData",
          "type": "bytes"
        }
      ],
      "name": "IndexCreated",
      "type": "event"
    },
    {
      "anonymous": false,
      "inputs": [
        {
          "indexed": true,
          "internalType": "contract ISuperfluidToken",
          "name": "token",
          "type": "address"
        },
        {
          "indexed": true,
          "internalType": "address",
          "name": "publisher",
          "type": "address"
        },
        {
          "indexed": true,
          "internalType": "uint32",
          "name": "indexId",
          "type": "uint32"
        },
        {
          "indexed": false,
          "internalType": "address",
          "name": "subscriber",
          "type": "address"
        },
        {
          "indexed": false,
          "internalType": "uint256",
          "name": "amount",
          "type": "uint256"
        }
      ],
      "name": "IndexDistributionClaimed",
      "type": "event"
    },
    {
      "anonymous": false,
      "inputs": [
        {
          "indexed": true,
          "internalType": "contract ISuperfluidToken",
          "name": "token",
          "type": "address"
        },
        {
          "indexed": true,
          "internalType": "address",
          "name": "publisher",
          "type": "address"
        },
        {
          "indexed": true,
          "internalType": "uint32",
          "name": "indexId",
          "type": "uint32"
        },
        {
          "indexed": false,
          "internalType": "address",
          "name": "subscriber",
          "type": "address"
        },
        {
          "indexed": false,
          "internalType": "bytes",
          "name": "userData",
          "type": "bytes"
        }
      ],
      "name": "IndexSubscribed",
      "type": "event"
    },
    {
      "anonymous": false,
      "inputs": [
        {
          "indexed": true,
          "internalType": "contract ISuperfluidToken",
          "name": "token",
          "type": "address"
        },
        {
          "indexed": true,
          "internalType": "address",
          "name": "publisher",
          "type": "address"
        },
        {
          "indexed": true,
          "internalType": "uint32",
          "name": "indexId",
          "type": "uint32"
        },
        {
          "indexed": false,
          "internalType": "address",
          "name": "subscriber",
          "type": "address"
        },
        {
          "indexed": false,
          "internalType": "uint128",
          "name": "units",
          "type": "uint128"
        },
        {
          "indexed": false,
          "internalType": "bytes",
          "name": "userData",
          "type": "bytes"
        }
      ],
      "name": "IndexUnitsUpdated",
      "type": "event"
    },
    {
      "anonymous": false,
      "inputs": [
        {
          "indexed": true,
          "internalType": "contract ISuperfluidToken",
          "name": "token",
          "type": "address"
        },
        {
          "indexed": true,
          "internalType": "address",
          "name": "publisher",
          "type": "address"
        },
        {
          "indexed": true,
          "internalType": "uint32",
          "name": "indexId",
          "type": "uint32"
        },
        {
          "indexed": false,
          "internalType": "address",
          "name": "subscriber",
          "type": "address"
        },
        {
          "indexed": false,
          "internalType": "bytes",
          "name": "userData",
          "type": "bytes"
        }
      ],
      "name": "IndexUnsubscribed",
      "type": "event"
    },
    {
      "anonymous": false,
      "inputs": [
        {
          "indexed": true,
          "internalType": "contract ISuperfluidToken",
          "name": "token",
          "type": "address"
        },
        {
          "indexed": true,
          "internalType": "address",
          "name": "publisher",
          "type": "address"
        },
        {
          "indexed": true,
          "internalType": "uint32",
          "name": "indexId",
          "type": "uint32"
        },
        {
          "indexed": false,
          "internalType": "uint128",
          "name": "oldIndexValue",
          "type": "uint128"
        },
        {
          "indexed": false,
          "internalType": "uint128",
          "name": "newIndexValue",
          "type": "uint128"
        },
        {
          "indexed": false,
          "internalType": "uint128",
          "name": "totalUnitsPending",
          "type": "uint128"
        },
        {
          "indexed": false,
          "internalType": "uint128",
          "name": "totalUnitsApproved",
          "type": "uint128"
        },
        {
          "indexed": false,
          "internalType": "bytes",
          "name": "userData",
          "type": "bytes"
        }
      ],
      "name": "IndexUpdated",
      "type": "event"
    },
    {
      "anonymous": false,
      "inputs": [
        {
          "indexed": false,
          "internalType": "uint8",
          "name": "version",
          "type": "uint8"
        }
      ],
      "name": "Initialized",
      "type": "event"
    },
    {
      "anonymous": false,
      "inputs": [
        {
          "indexed": true,
          "internalType": "contract ISuperfluidToken",
          "name": "token",
          "type": "address"
        },
        {
          "indexed": true,
          "internalType": "address",
          "name": "subscriber",
          "type": "address"
        },
        {
          "indexed": false,
          "internalType": "address",
          "name": "publisher",
          "type": "address"
        },
        {
          "indexed": false,
          "internalType": "uint32",
          "name": "indexId",
          "type": "uint32"
        },
        {
          "indexed": false,
          "internalType": "bytes",
          "name": "userData",
          "type": "bytes"
        }
      ],
      "name": "SubscriptionApproved",
      "type": "event"
    },
    {
      "anonymous": false,
      "inputs": [
        {
          "indexed": true,
          "internalType": "contract ISuperfluidToken",
          "name": "token",
          "type": "address"
        },
        {
          "indexed": true,
          "internalType": "address",
          "name": "subscriber",
          "type": "address"
        },
        {
          "indexed": false,
          "internalType": "address",
          "name": "publisher",
          "type": "address"
        },
        {
          "indexed": false,
          "internalType": "uint32",
          "name": "indexId",
          "type": "uint32"
        },
        {
          "indexed": false,
          "internalType": "uint256",
          "name": "amount",
          "type": "uint256"
        }
      ],
      "name": "SubscriptionDistributionClaimed",
      "type": "event"
    },
    {
      "anonymous": false,
      "inputs": [
        {
          "indexed": true,
          "internalType": "contract ISuperfluidToken",
          "name": "token",
          "type": "address"
        },
        {
          "indexed": true,
          "internalType": "address",
          "name": "subscriber",
          "type": "address"
        },
        {
          "indexed": false,
          "internalType": "address",
          "name": "publisher",
          "type": "address"
        },
        {
          "indexed": false,
          "internalType": "uint32",
          "name": "indexId",
          "type": "uint32"
        },
        {
          "indexed": false,
          "internalType": "bytes",
          "name": "userData",
          "type": "bytes"
        }
      ],
      "name": "SubscriptionRevoked",
      "type": "event"
    },
    {
      "anonymous": false,
      "inputs": [
        {
          "indexed": true,
          "internalType": "contract ISuperfluidToken",
          "name": "token",
          "type": "address"
        },
        {
          "indexed": true,
          "internalType": "address",
          "name": "subscriber",
          "type": "address"
        },
        {
          "indexed": false,
          "internalType": "address",
          "name": "publisher",
          "type": "address"
        },
        {
          "indexed": false,
          "internalType": "uint32",
          "name": "indexId",
          "type": "uint32"
        },
        {
          "indexed": false,
          "internalType": "uint128",
          "name": "units",
          "type": "uint128"
        },
        {
          "indexed": false,
          "internalType": "bytes",
          "name": "userData",
          "type": "bytes"
        }
      ],
      "name": "SubscriptionUnitsUpdated",
      "type": "event"
    },
    {
      "inputs": [],
      "name": "MAX_NUM_SUBSCRIPTIONS",
      "outputs": [
        {
          "internalType": "uint32",
          "name": "",
          "type": "uint32"
        }
      ],
      "stateMutability": "view",
      "type": "function"
    },
    {
      "inputs": [],
      "name": "SLOTS_BITMAP_LIBRARY_ADDRESS",
      "outputs": [
        {
          "internalType": "address",
          "name": "",
          "type": "address"
        }
      ],
      "stateMutability": "view",
      "type": "function"
    },
    {
      "inputs": [],
      "name": "agreementType",
      "outputs": [
        {
          "internalType": "bytes32",
          "name": "",
          "type": "bytes32"
        }
      ],
      "stateMutability": "pure",
      "type": "function"
    },
    {
      "inputs": [
        {
          "internalType": "contract ISuperfluidToken",
          "name": "token",
          "type": "address"
        },
        {
          "internalType": "address",
          "name": "publisher",
          "type": "address"
        },
        {
          "internalType": "uint32",
          "name": "indexId",
          "type": "uint32"
        },
        {
          "internalType": "bytes",
          "name": "ctx",
          "type": "bytes"
        }
      ],
      "name": "approveSubscription",
      "outputs": [
        {
          "internalType": "bytes",
          "name": "newCtx",
          "type": "bytes"
        }
      ],
      "stateMutability": "nonpayable",
      "type": "function"
    },
    {
      "inputs": [
        {
          "internalType": "contract ISuperfluidToken",
          "name": "token",
          "type": "address"
        },
        {
          "internalType": "address",
          "name": "publisher",
          "type": "address"
        },
        {
          "internalType": "uint32",
          "name": "indexId",
          "type": "uint32"
        },
        {
          "internalType": "uint256",
          "name": "amount",
          "type": "uint256"
        }
      ],
      "name": "calculateDistribution",
      "outputs": [
        {
          "internalType": "uint256",
          "name": "actualAmount",
          "type": "uint256"
        },
        {
          "internalType": "uint128",
          "name": "newIndexValue",
          "type": "uint128"
        }
      ],
      "stateMutability": "view",
      "type": "function"
    },
    {
      "inputs": [],
      "name": "castrate",
      "outputs": [],
      "stateMutability": "nonpayable",
      "type": "function"
    },
    {
      "inputs": [
        {
          "internalType": "contract ISuperfluidToken",
          "name": "token",
          "type": "address"
        },
        {
          "internalType": "address",
          "name": "publisher",
          "type": "address"
        },
        {
          "internalType": "uint32",
          "name": "indexId",
          "type": "uint32"
        },
        {
          "internalType": "address",
          "name": "subscriber",
          "type": "address"
        },
        {
          "internalType": "bytes",
          "name": "ctx",
          "type": "bytes"
        }
      ],
      "name": "claim",
      "outputs": [
        {
          "internalType": "bytes",
          "name": "newCtx",
          "type": "bytes"
        }
      ],
      "stateMutability": "nonpayable",
      "type": "function"
    },
    {
      "inputs": [
        {
          "internalType": "contract ISuperfluidToken",
          "name": "token",
          "type": "address"
        },
        {
          "internalType": "uint32",
          "name": "indexId",
          "type": "uint32"
        },
        {
          "internalType": "bytes",
          "name": "ctx",
          "type": "bytes"
        }
      ],
      "name": "createIndex",
      "outputs": [
        {
          "internalType": "bytes",
          "name": "newCtx",
          "type": "bytes"
        }
      ],
      "stateMutability": "nonpayable",
      "type": "function"
    },
    {
      "inputs": [
        {
          "internalType": "contract ISuperfluidToken",
          "name": "token",
          "type": "address"
        },
        {
          "internalType": "address",
          "name": "publisher",
          "type": "address"
        },
        {
          "internalType": "uint32",
          "name": "indexId",
          "type": "uint32"
        },
        {
          "internalType": "address",
          "name": "subscriber",
          "type": "address"
        },
        {
          "internalType": "bytes",
          "name": "ctx",
          "type": "bytes"
        }
      ],
      "name": "deleteSubscription",
      "outputs": [
        {
          "internalType": "bytes",
          "name": "newCtx",
          "type": "bytes"
        }
      ],
      "stateMutability": "nonpayable",
      "type": "function"
    },
    {
      "inputs": [
        {
          "internalType": "contract ISuperfluidToken",
          "name": "token",
          "type": "address"
        },
        {
          "internalType": "uint32",
          "name": "indexId",
          "type": "uint32"
        },
        {
          "internalType": "uint256",
          "name": "amount",
          "type": "uint256"
        },
        {
          "internalType": "bytes",
          "name": "ctx",
          "type": "bytes"
        }
      ],
      "name": "distribute",
      "outputs": [
        {
          "internalType": "bytes",
          "name": "newCtx",
          "type": "bytes"
        }
      ],
      "stateMutability": "nonpayable",
      "type": "function"
    },
    {
      "inputs": [],
      "name": "getCodeAddress",
      "outputs": [
        {
          "internalType": "address",
          "name": "codeAddress",
          "type": "address"
        }
      ],
      "stateMutability": "view",
      "type": "function"
    },
    {
      "inputs": [
        {
          "internalType": "contract ISuperfluidToken",
          "name": "token",
          "type": "address"
        },
        {
          "internalType": "address",
          "name": "publisher",
          "type": "address"
        },
        {
          "internalType": "uint32",
          "name": "indexId",
          "type": "uint32"
        }
      ],
      "name": "getIndex",
      "outputs": [
        {
          "internalType": "bool",
          "name": "exist",
          "type": "bool"
        },
        {
          "internalType": "uint128",
          "name": "indexValue",
          "type": "uint128"
        },
        {
          "internalType": "uint128",
          "name": "totalUnitsApproved",
          "type": "uint128"
        },
        {
          "internalType": "uint128",
          "name": "totalUnitsPending",
          "type": "uint128"
        }
      ],
      "stateMutability": "view",
      "type": "function"
    },
    {
      "inputs": [
        {
          "internalType": "contract ISuperfluidToken",
          "name": "token",
          "type": "address"
        },
        {
          "internalType": "address",
          "name": "publisher",
          "type": "address"
        },
        {
          "internalType": "uint32",
          "name": "indexId",
          "type": "uint32"
        },
        {
          "internalType": "address",
          "name": "subscriber",
          "type": "address"
        }
      ],
      "name": "getSubscription",
      "outputs": [
        {
          "internalType": "bool",
          "name": "exist",
          "type": "bool"
        },
        {
          "internalType": "bool",
          "name": "approved",
          "type": "bool"
        },
        {
          "internalType": "uint128",
          "name": "units",
          "type": "uint128"
        },
        {
          "internalType": "uint256",
          "name": "pendingDistribution",
          "type": "uint256"
        }
      ],
      "stateMutability": "view",
      "type": "function"
    },
    {
      "inputs": [
        {
          "internalType": "contract ISuperfluidToken",
          "name": "token",
          "type": "address"
        },
        {
          "internalType": "bytes32",
          "name": "agreementId",
          "type": "bytes32"
        }
      ],
      "name": "getSubscriptionByID",
      "outputs": [
        {
          "internalType": "address",
          "name": "publisher",
          "type": "address"
        },
        {
          "internalType": "uint32",
          "name": "indexId",
          "type": "uint32"
        },
        {
          "internalType": "bool",
          "name": "approved",
          "type": "bool"
        },
        {
          "internalType": "uint128",
          "name": "units",
          "type": "uint128"
        },
        {
          "internalType": "uint256",
          "name": "pendingDistribution",
          "type": "uint256"
        }
      ],
      "stateMutability": "view",
      "type": "function"
    },
    {
      "inputs": [
        {
          "internalType": "contract ISuperfluidToken",
          "name": "token",
          "type": "address"
        },
        {
          "internalType": "address",
          "name": "subscriber",
          "type": "address"
        }
      ],
      "name": "listSubscriptions",
      "outputs": [
        {
          "internalType": "address[]",
          "name": "publishers",
          "type": "address[]"
        },
        {
          "internalType": "uint32[]",
          "name": "indexIds",
          "type": "uint32[]"
        },
        {
          "internalType": "uint128[]",
          "name": "unitsList",
          "type": "uint128[]"
        }
      ],
      "stateMutability": "view",
      "type": "function"
    },
    {
      "inputs": [],
      "name": "proxiableUUID",
      "outputs": [
        {
          "internalType": "bytes32",
          "name": "",
          "type": "bytes32"
        }
      ],
      "stateMutability": "view",
      "type": "function"
    },
    {
      "inputs": [
        {
          "internalType": "contract ISuperfluidToken",
          "name": "token",
          "type": "address"
        },
        {
          "internalType": "address",
          "name": "account",
          "type": "address"
        },
        {
          "internalType": "uint256",
          "name": "",
          "type": "uint256"
        }
      ],
      "name": "realtimeBalanceOf",
      "outputs": [
        {
          "internalType": "int256",
          "name": "dynamicBalance",
          "type": "int256"
        },
        {
          "internalType": "uint256",
          "name": "deposit",
          "type": "uint256"
        },
        {
          "internalType": "uint256",
          "name": "owedDeposit",
          "type": "uint256"
        }
      ],
      "stateMutability": "view",
      "type": "function"
    },
    {
      "inputs": [
        {
          "internalType": "contract ISuperfluidToken",
          "name": "token",
          "type": "address"
        },
        {
          "internalType": "address",
          "name": "publisher",
          "type": "address"
        },
        {
          "internalType": "uint32",
          "name": "indexId",
          "type": "uint32"
        },
        {
          "internalType": "bytes",
          "name": "ctx",
          "type": "bytes"
        }
      ],
      "name": "revokeSubscription",
      "outputs": [
        {
          "internalType": "bytes",
          "name": "newCtx",
          "type": "bytes"
        }
      ],
      "stateMutability": "nonpayable",
      "type": "function"
    },
    {
      "inputs": [
        {
          "internalType": "address",
          "name": "newAddress",
          "type": "address"
        }
      ],
      "name": "updateCode",
      "outputs": [],
      "stateMutability": "nonpayable",
      "type": "function"
    },
    {
      "inputs": [
        {
          "internalType": "contract ISuperfluidToken",
          "name": "token",
          "type": "address"
        },
        {
          "internalType": "uint32",
          "name": "indexId",
          "type": "uint32"
        },
        {
          "internalType": "uint128",
          "name": "indexValue",
          "type": "uint128"
        },
        {
          "internalType": "bytes",
          "name": "ctx",
          "type": "bytes"
        }
      ],
      "name": "updateIndex",
      "outputs": [
        {
          "internalType": "bytes",
          "name": "newCtx",
          "type": "bytes"
        }
      ],
      "stateMutability": "nonpayable",
      "type": "function"
    },
    {
      "inputs": [
        {
          "internalType": "contract ISuperfluidToken",
          "name": "token",
          "type": "address"
        },
        {
          "internalType": "uint32",
          "name": "indexId",
          "type": "uint32"
        },
        {
          "internalType": "address",
          "name": "subscriber",
          "type": "address"
        },
        {
          "internalType": "uint128",
          "name": "units",
          "type": "uint128"
        },
        {
          "internalType": "bytes",
          "name": "ctx",
          "type": "bytes"
        }
      ],
      "name": "updateSubscription",
      "outputs": [
        {
          "internalType": "bytes",
          "name": "newCtx",
          "type": "bytes"
        }
      ],
      "stateMutability": "nonpayable",
      "type": "function"
    }
  ],
  "bytecode": {
    "object": "0x60a06040523480156200001157600080fd5b506040516200531638038062005316833981016040819052620000349162000046565b6001600160a01b031660805262000078565b6000602082840312156200005957600080fd5b81516001600160a01b03811681146200007157600080fd5b9392505050565b6080516152826200009460003960006110f301526152826000f3fe608060405234801561001057600080fd5b50600436106101375760003560e01c80637fbc7639116100b8578063acafa1b81161007c578063acafa1b814610336578063acf4a6c214610349578063b6dacdb81461035c578063b96731c21461037e578063cd7245c514610391578063d787840a146103e957600080fd5b80637fbc76391461029f578063899baaec146102b25780639903ad38146102e25780639b2e48bc146102ea578063a5653ced1461031857600080fd5b806350d75d25116100ff57806350d75d251461020457806352d1902d1461020c5780635b534051146102225780636041ae96146102665780637730599e1461027957600080fd5b8063232d2b581461013c57806323fc23f3146101655780632e5e74c6146101a95780633fd4176a146101bc57806346951954146101ef575b600080fd5b61014f61014a3660046143b8565b6103fc565b60405161015c9190614493565b60405180910390f35b6101786101733660046144a6565b610b16565b6040805194151585526001600160801b0393841660208601529183169184019190915216606082015260800161015c565b61014f6101b73660046144f1565b610b81565b6101d773__$6040e6113e0e8355239b974a4a8d52be72$__81565b6040516001600160a01b03909116815260200161015c565b6102026101fd366004614545565b6110e8565b005b6101d761113d565b61021461116c565b60405190815260200161015c565b610235610230366004614569565b6111d0565b60405161015c9493929190931515845291151560208401526001600160801b03166040830152606082015260800190565b61014f6102743660046145c5565b6112a6565b7f8aedc3b5d4bf031e11a7e2940f7251c005698405d58e02e1c247fed3b1b3a674610214565b61014f6102ad366004614640565b6116cb565b6102c56102c0366004614681565b6117b8565b604080519283526001600160801b0390911660208301520161015c565b61020261185d565b6102fd6102f83660046146d2565b61196b565b6040805193845260208401929092529082015260600161015c565b61032161010081565b60405163ffffffff909116815260200161015c565b61014f6103443660046144f1565b611b76565b61014f6103573660046145c5565b611f7b565b61036f61036a366004614713565b612535565b60405161015c93929190614790565b61014f61038c36600461482d565b61278a565b6103a461039f366004614882565b61288a565b604080516001600160a01b03909616865263ffffffff9094166020860152911515928401929092526001600160801b039091166060830152608082015260a00161015c565b61014f6103f73660046148ae565b61298c565b60606001600160a01b03851661042557604051633242919d60e21b815260040160405180910390fd5b61042d614210565b61043561426e565b606060008061047a8c89898080601f016020809104026020016040519081016040528093929190818152602001838380828437600092019190915250612b4792505050565b90508060a00151925080606001519150506104998b828b8d6000612d14565b60808901521515602080890191909152606088019190915260408088018390529287528251908101909252600082526104d5918d918c91612e07565b925086868080601f0160208091040260200160405190810160405280939291908181526020018383808284376000920191909152505050602086015191965050156105395764040000000060c084015261052f8386612e35565b60a0850152610554565b64010000000060c084015261054e8386612e35565b60a08501525b83602001518015610571575060808401515163ffffffff90811614155b1561064c576105c08460800151608001516001600160801b0316896001600160801b03168660600151602001516001600160801b03166105b19190614928565b6105bb919061493b565b612fec565b6060850180516001600160801b03909216602090920191909152845190516001600160a01b038d169163a1b2bf8b916105f890613059565b6040518363ffffffff1660e01b815260040161061592919061497e565b600060405180830381600087803b15801561062f57600080fd5b505af1158015610643573d6000803e3d6000fd5b50505050610833565b8360200151156106c9576106918460800151608001516001600160801b0316896001600160801b03168660600151604001516001600160801b03166105b19190614928565b6060850180516001600160801b03909216604090920191909152845190516001600160a01b038d169163a1b2bf8b916105f890613059565b6040518060a0016040528063ffffffff80168152602001826001600160a01b031681526020018b63ffffffff1681526020018560600151600001516001600160801b03168152602001896001600160801b031681525084608001819052508a6001600160a01b03166312a6a3f8856040015161074887608001516130f7565b6040518363ffffffff1660e01b815260040161076592919061497e565b600060405180830381600087803b15801561077f57600080fd5b505af1158015610793573d6000803e3d6000fd5b50505050878460600151604001516107ab9190614997565b6060850180516001600160801b03909216604090920191909152845190516001600160a01b038d169163a1b2bf8b916107e390613059565b6040518363ffffffff1660e01b815260040161080092919061497e565b600060405180830381600087803b15801561081a57600080fd5b505af115801561082e573d6000803e3d6000fd5b505050505b60008460800151608001516001600160801b031685608001516060015186606001516000015161086391906149be565b6001600160801b031661087691906149de565b905063ffffffff801685608001516000015163ffffffff160361090f576108a68c836108a184614a0e565b61319e565b6001600160a01b038c1663cf97256d836108bf84614a0e565b6040518363ffffffff1660e01b81526004016108dc929190614a2a565b600060405180830381600087803b1580156108f657600080fd5b505af115801561090a573d6000803e3d6000fd5b505050505b60405163cf97256d60e01b81526001600160a01b038d169063cf97256d9061093d908d908590600401614a2a565b600060405180830381600087803b15801561095757600080fd5b505af115801561096b573d6000803e3d6000fd5b50505050846020015115610a115760608086015151608080880180516001600160801b039384169401939093528251918c16910152604086015190516001600160a01b038e169163a1b2bf8b916109c1906130f7565b6040518363ffffffff1660e01b81526004016109de92919061497e565b600060405180830381600087803b1580156109f857600080fd5b505af1158015610a0c573d6000803e3d6000fd5b505050505b846020015115610a405764080000000060c085015260a0850151610a37908590886132ec565b9650610a609050565b64020000000060c085015260a0850151610a5c908590886132ec565b9650505b8a63ffffffff16826001600160a01b03168d6001600160a01b03167f0115987243fd19d615b5ea62a80372a06a2b37fec378b148ee7a507c5c4c0a398d8d88604051610aae93929190614a43565b60405180910390a4896001600160a01b03168c6001600160a01b03167fe0707ac7efb8b59c22189af8d004ed17dc9e4379e71b9066119b62c182524977848e8d88604051610aff9493929190614a7f565b60405180910390a350505050509695505050505050565b600080600080610b3f604080516060810182526000808252602082018190529181019190915290565b6000610b4b8888613538565b9050610b57898261359f565b90965091508515610b7657815160208301516040840151919650945092505b505093509350935093565b6060610b8b614210565b610b9361426e565b600060606000610bd98c89898080601f016020809104026020016040519081016040528093929190818152602001838380828437600092019190915250612b4792505050565b606081015160a0909101519093509150506001600160a01b038816610c1157604051633242919d60e21b815260040160405180910390fd5b896001600160a01b0316826001600160a01b031614610c43576040516392da6d1760e01b815260040160405180910390fd5b610c518b8b8a8c6001612d14565b6080890152506060870152604080870182905291865281516020810190925260008252610c81918d918b91612e07565b925086868080601f0160208091040260200160405190810160405280939291908181526020018383808284376000920191909152505064100000000060c087015250909550610cd290508386612e35565b60a08501526080808501519081015160609182015191860151516000926001600160801b0390921691610d04916149be565b6001600160801b0316610d1791906149de565b60808601515190915063ffffffff90811614610d6457846080015160800151856060015160200151610d4991906149be565b60608601516001600160801b03909116602090910152610d97565b846080015160800151856060015160400151610d8091906149be565b60608601516001600160801b039091166040909101525b8b6001600160a01b031663a1b2bf8b8660000151610db88860600151613059565b6040518363ffffffff1660e01b8152600401610dd592919061497e565b600060405180830381600087803b158015610def57600080fd5b505af1158015610e03573d6000803e3d6000fd5b5050505060808501515163ffffffff90811614610e2d57610e2d8c8a8760800151600001516136b3565b60808501515163ffffffff1663fffffffe1901610ebb57610e528c8c6108a184614a0e565b6001600160a01b038c1663cf97256d8c610e6b84614a0e565b6040518363ffffffff1660e01b8152600401610e88929190614a2a565b600060405180830381600087803b158015610ea257600080fd5b505af1158015610eb6573d6000803e3d6000fd5b505050505b6040858101519051632704839760e01b81526004810191909152600260248201526001600160a01b038d1690632704839790604401600060405180830381600087803b158015610f0a57600080fd5b505af1158015610f1e573d6000803e3d6000fd5b505060405163cf97256d60e01b81526001600160a01b038f16925063cf97256d9150610f50908c908590600401614a2a565b600060405180830381600087803b158015610f6a57600080fd5b505af1158015610f7e573d6000803e3d6000fd5b505064200000000060c0870152505060a0850151610f9e908590886132ec565b9050809650508963ffffffff168b6001600160a01b03168d6001600160a01b03167fe1f8e9cd8061e5b251769965bda6ca9ef1674bc6541fb9131039fa53f024d1428c86604051610ff0929190614ac8565b60405180910390a4886001600160a01b03168c6001600160a01b03167f9e02127550b99adc8cc6ee332a36f31338facdbc396cebefce9a047247cd04558d8d8660405161103f93929190614aec565b60405180910390a38963ffffffff168b6001600160a01b03168d6001600160a01b03167f0115987243fd19d615b5ea62a80372a06a2b37fec378b148ee7a507c5c4c0a398c60008760405161109693929190614a43565b60405180910390a4886001600160a01b03168c6001600160a01b03167fe0707ac7efb8b59c22189af8d004ed17dc9e4379e71b9066119b62c1825249778d8d600087604051610aff9493929190614a7f565b336001600160a01b037f0000000000000000000000000000000000000000000000000000000000000000161461113157604051630b00ec8f60e11b815260040160405180910390fd5b61113a8161373e565b50565b60006111677f360894a13ba1a3210667c828492db98dca3e2076cc3735a920a3ca505d382bbc5490565b905090565b6000306001600160a01b0316637730599e6040518163ffffffff1660e01b8152600401602060405180830381865afa1580156111ac573d6000803e3d6000fd5b505050506040513d601f19601f820116820180604052508101906111679190614b1c565b6000806000806000806111fc604080516060810182526000808252602082018190529181019190915290565b6112046142a9565b6112128c8c8b8d6000612d14565b909b50929650909450925090508761123b5760008060008097509750975097505050505061129b565b8051608082015163ffffffff9182169091141597509550866112915780608001516001600160801b03168160600151836000015161127991906149be565b6001600160801b031661128c9190614b35565b611294565b60005b9450505050505b945094509450949050565b60606112b0614210565b6112b861426e565b6000606060006112fe8b89898080601f016020809104026020016040519081016040528093929190818152602001838380828437600092019190915250612b4792505050565b9050806060015192508060a0015191505061131d8a8a848b6001612d14565b6080890181905260608901929092525060408701919091529085525163ffffffff1663fffffffe190161136357604051633741257360e01b815260040160405180910390fd5b6113828a8a866040015160405180602001604052806000815250612e07565b925086868080601f0160208091040260200160405190810160405280939291908181526020018383808284376000920191909152505064100000000060c0870152509095506113d390508386612e35565b60a08501526080808501519081015160609182015191860151516000926001600160801b0390921691611405916149be565b6001600160801b031661141891906149de565b905084608001516080015185606001516020015161143691906149be565b6060860180516001600160801b0390921660209092019190915260808087015101519051604001516114689190614997565b6060860180516001600160801b03909216604090920191909152855190516001600160a01b038d169163a1b2bf8b916114a090613059565b6040518363ffffffff1660e01b81526004016114bd92919061497e565b600060405180830381600087803b1580156114d757600080fd5b505af11580156114eb573d6000803e3d6000fd5b505050506115028b848760800151600001516136b3565b606080860151516080870180516001600160801b039092169190920152805163ffffffff9052604086015190516001600160a01b038d169163a1b2bf8b91611549906130f7565b6040518363ffffffff1660e01b815260040161156692919061497e565b600060405180830381600087803b15801561158057600080fd5b505af1158015611594573d6000803e3d6000fd5b505060405163cf97256d60e01b81526001600160a01b038e16925063cf97256d91506115c69086908590600401614a2a565b600060405180830381600087803b1580156115e057600080fd5b505af11580156115f4573d6000803e3d6000fd5b505064200000000060c0870152505060a0850151611614908590886132ec565b9050809650508863ffffffff168a6001600160a01b03168c6001600160a01b03167fe1f8e9cd8061e5b251769965bda6ca9ef1674bc6541fb9131039fa53f024d1428686604051611666929190614ac8565b60405180910390a4826001600160a01b03168b6001600160a01b03167f9e02127550b99adc8cc6ee332a36f31338facdbc396cebefce9a047247cd04558c8c866040516116b593929190614aec565b60405180910390a3505050505095945050505050565b6060600061170f8785858080601f016020809104026020016040519081016040528093929190818152602001838380828437600092019190915250612b4792505050565b60608101519091506000806117258a848b613946565b9150915080600001516001600160801b0316886001600160801b031610156117605760405163cfdca72560e01b815260040160405180910390fd5b6117738a848b85858d8a60a001516139a5565b86868080601f016020809104026020016040519081016040528093929190818152602001838380828437600092019190915250929d9c50505050505050505050505050565b60008060006117c78686613538565b90506000806117d6898461359f565b91509150816117f85760405163edeaa63b60e01b815260040160405180910390fd5b60008160400151826020015161180e9190614997565b6001600160801b0316905060006118286105bb838a614b4c565b8351909150611838908290614997565b955061184d826001600160801b038316614b35565b9650505050505094509492505050565b600054610100900460ff161580801561187d5750600054600160ff909116105b806118975750303b158015611897575060005460ff166001145b6118ff5760405162461bcd60e51b815260206004820152602e60248201527f496e697469616c697a61626c653a20636f6e747261637420697320616c72656160448201526d191e481a5b9a5d1a585b1a5e995960921b60648201526084015b60405180910390fd5b6000805460ff191660011790558015611922576000805461ff0019166101001790555b801561113a576000805461ff0019169055604051600181527f7f26b83ff96e1f2b6a682f133852f6798a09c465da95921460cefb3847402498906020015b60405180910390a150565b600080600060608061197d8888613bd4565b909250905060005b81518163ffffffff161015611b5a57600061199e6142a9565b600080868563ffffffff16815181106119b9576119b9614b6e565b602002602001015190506119ec8d878763ffffffff16815181106119df576119df614b6e565b6020026020010151613cc7565b9094509250836119fe576119fe614b84565b8063ffffffff16836000015163ffffffff1614611a1d57611a1d614b84565b6001600160a01b038d16634b61cc33308e611a4263ffffffff8616600160801b614928565b60016040518563ffffffff1660e01b8152600401611a639493929190614b9a565b600060405180830381865afa158015611a80573d6000803e3d6000fd5b505050506040513d6000823e601f3d908101601f19168201604052611aa89190810190614cc0565b600081518110611aba57611aba614b6e565b6020026020010151915050611ae8604080516060810182526000808252602082018190529181019190915290565b611af28d8361359f565b909450905083611b0457611b04614b84565b82608001516001600160801b031683606001518260000151611b2691906149be565b6001600160801b0316611b3991906149de565b611b43908b614cf4565b99505050505080611b5390614d1c565b9050611985565b50611b658888613de3565b935060009250505093509350939050565b6060611bb88784848080601f016020809104026020016040519081016040528093929190818152602001838380828437600092019190915250612b4792505050565b506001600160a01b038416611be057604051633242919d60e21b815260040160405180910390fd5b611be8614210565b611bf061426e565b611bfe8989888a6001612d14565b6080870181905260608701929092525060408501919091529083525163ffffffff90811614611c4057604051633eb2f84960e01b815260040160405180910390fd5b60008260800151608001516001600160801b0316836080015160600151846060015160000151611c7091906149be565b6001600160801b0316611c839190614b35565b9050611ca48a8a856040015160405180602001604052806000815250612e07565b915085858080601f0160208091040260200160405190810160405280939291908181526020018383808284376000920191909152509296505082159150611f3490505764040000000060c0830152611cfc8285612e35565b60a0840152611d0f8a8a6108a184614a0e565b6001600160a01b038a1663cf97256d8a611d2884614a0e565b6040518363ffffffff1660e01b8152600401611d45929190614a2a565b600060405180830381600087803b158015611d5f57600080fd5b505af1158015611d73573d6000803e3d6000fd5b50505050606083810151516080850180516001600160801b039092169190920152604084015190516001600160a01b038c169163a1b2bf8b91611db5906130f7565b6040518363ffffffff1660e01b8152600401611dd292919061497e565b600060405180830381600087803b158015611dec57600080fd5b505af1158015611e00573d6000803e3d6000fd5b505060405163cf97256d60e01b81526001600160a01b038d16925063cf97256d9150611e32908a908590600401614a2a565b600060405180830381600087803b158015611e4c57600080fd5b505af1158015611e60573d6000803e3d6000fd5b505050508763ffffffff16896001600160a01b03168b6001600160a01b03167f467eccd248ef31c8bcef16d94856855799a8783aeef10f3759e43614059a6bb18a85604051611eb0929190614a2a565b60405180910390a4604080516001600160a01b038b8116825263ffffffff8b166020830152918101839052818916918c16907f48a3d91d4a07e4982b081260e24f922bd33bb965882772d6de19c922c3eabdea9060600160405180910390a364080000000060c083015260a0830151611f2b908390866132ec565b9450611f6e9050565b85858080601f0160208091040260200160405190810160405280939291908181526020018383808284376000920191909152509296505050505b5050509695505050505050565b6060611f85614210565b611f8d61426e565b600060606000611fd38b89898080601f016020809104026020016040519081016040528093929190818152602001838380828437600092019190915250612b4792505050565b9050806060015192508060a00151915050611ff28a8a848b6000612d14565b60808901521580156020890152606088019190915260408701919091529085526120425760808401515163ffffffff9081161461204257604051633eb2f84960e01b815260040160405180910390fd5b86868080601f01602080910402602001604051908101604052809392919081815260200183838082843760009201829052506040808a015181516020810190925291815294995061209b948f94508e9350909150612e07565b925083602001516121c45764010000000060c08401526120bb8386612e35565b60a08086019190915260408051918201815260008083526001600160a01b038c16602084015263ffffffff8b1691830191909152606080870151516001600160801b031690830152608080830191909152850152835161211e908b908490613e8c565b60808501805163ffffffff909216909152604085015190516001600160a01b038c16916312a6a3f891612150906130f7565b6040518363ffffffff1660e01b815260040161216d92919061497e565b600060405180830381600087803b15801561218757600080fd5b505af115801561219b573d6000803e3d6000fd5b505064020000000060c0860152505060a08401516121bb908490876132ec565b95506124859050565b64040000000060c08401526121d98386612e35565b60a08501526080808501519081015160609182015191860151516000926001600160801b039092169161220b916149be565b6001600160801b031661221e91906149de565b9050846080015160800151856060015160200181815161223e9190614997565b6001600160801b03169052506080808601510151606086015160400180516122679083906149be565b6001600160801b0316905250845160608601516001600160a01b038d169163a1b2bf8b9161229490613059565b6040518363ffffffff1660e01b81526004016122b192919061497e565b600060405180830381600087803b1580156122cb57600080fd5b505af11580156122df573d6000803e3d6000fd5b505050506122f28b8b836108a190614a0e565b6001600160a01b038b1663cf97256d8b61230b84614a0e565b6040518363ffffffff1660e01b8152600401612328929190614a2a565b600060405180830381600087803b15801561234257600080fd5b505af1158015612356573d6000803e3d6000fd5b505060405163cf97256d60e01b81526001600160a01b038e16925063cf97256d91506123889086908590600401614a2a565b600060405180830381600087803b1580156123a257600080fd5b505af11580156123b6573d6000803e3d6000fd5b5050506060808701515160808801516001600160801b039091169101525084516123e3908c908590613e8c565b60808601805163ffffffff909216909152604086015190516001600160a01b038d169163a1b2bf8b91612415906130f7565b6040518363ffffffff1660e01b815260040161243292919061497e565b600060405180830381600087803b15801561244c57600080fd5b505af1158015612460573d6000803e3d6000fd5b505064080000000060c0870152505060a0850151612480908590886132ec565b965050505b8763ffffffff16896001600160a01b03168b6001600160a01b03167f492d2641617cfaf24ac7328f85bc5bdf5113537d78dc7671afa4f49a73f053c285856040516124d1929190614ac8565b60405180910390a4816001600160a01b03168a6001600160a01b03167fc0b8396b655615cdb85fe462a9a1792480816f909cd46d9517a940b386dfbf6b8b8b8560405161252093929190614aec565b60405180910390a35050505095945050505050565b60608060608060606125478787613bd4565b909250905060006125566142a9565b82516001600160401b0381111561256f5761256f614bc3565b604051908082528060200260200182016040528015612598578160200160208202803683370190505b50965082516001600160401b038111156125b4576125b4614bc3565b6040519080825280602002602001820160405280156125dd578160200160208202803683370190505b50955082516001600160401b038111156125f9576125f9614bc3565b604051908082528060200260200182016040528015612622578160200160208202803683370190505b50945060005b83518163ffffffff16101561277e576000858263ffffffff168151811061265157612651614b6e565b602002602001015190506000858363ffffffff168151811061267557612675614b6e565b602002602001015190506126898c82613cc7565b90955093508461269b5761269b614b84565b8163ffffffff16846000015163ffffffff16146126ba576126ba614b84565b83602001518a8463ffffffff16815181106126d7576126d7614b6e565b60200260200101906001600160a01b031690816001600160a01b0316815250508360400151898463ffffffff168151811061271457612714614b6e565b602002602001019063ffffffff16908163ffffffff16815250508360800151888463ffffffff168151811061274b5761274b614b6e565b60200260200101906001600160801b031690816001600160801b03168152505050508061277790614d1c565b9050612628565b50505050509250925092565b606060006127ce8785858080601f016020809104026020016040519081016040528093929190818152602001838380828437600092019190915250612b4792505050565b60608101519091506000806127e48a848b613946565b915091506000816040015182602001516127fe9190614997565b6001600160801b03169050801561284457600061281e6105bb838c614b4c565b90506128428c868d87878689600001516128389190614997565b8c60a001516139a5565b505b87878080601f016020809104026020016040519081016040528093929190818152602001838380828437600092019190915250929e9d5050505050505050505050505050565b60008060008060008060006128b8604080516060810182526000808252602082018190529181019190915290565b6128c06142a9565b6128ca8b8b613cc7565b9094509050836128ed5760405163016d919360e71b815260040160405180910390fd5b80602001519850806040015197506129058989613538565b92506129118b8461359f565b90945091508361292357612923614b84565b8051608082015163ffffffff9182169091141597509550866129795780608001516001600160801b03168160600151836000015161296191906149be565b6001600160801b03166129749190614b35565b61297c565b60005b9450505050509295509295909350565b606060006129d08685858080601f016020809104026020016040519081016040528093929190818152602001838380828437600092019190915250612b4792505050565b606081015190915060006129e48288613538565b90506129f08882613f33565b15612a0e57604051635c02a51760e01b815260040160405180910390fd5b876001600160a01b03166312a6a3f882612a5f604051806060016040528060006001600160801b0316815260200160006001600160801b0316815260200160006001600160801b0316815250613059565b6040518363ffffffff1660e01b8152600401612a7c92919061497e565b600060405180830381600087803b158015612a9657600080fd5b505af1158015612aaa573d6000803e3d6000fd5b505050508663ffffffff16826001600160a01b0316896001600160a01b03167f01ab8663165edfb7390d9e5f75d960a66dacf4f01fa9787e3a731c870d0da9218660a00151604051612afc9190614493565b60405180910390a485858080601f016020809104026020016040519081016040528093929190818152602001838380828437600092019190915250929b9a5050505050505050505050565b612b4f6142d7565b336001600160a01b0316836001600160a01b03166320bc44256040518163ffffffff1660e01b8152600401602060405180830381865afa158015612b97573d6000803e3d6000fd5b505050506040513d601f19601f82011682018060405250810190612bbb9190614d4a565b6001600160a01b031614612c055760405162461bcd60e51b81526020600482015260116024820152701d5b985d5d1a1bdc9a5e9959081a1bdcdd607a1b60448201526064016118f6565b604051632fd0a1cd60e21b8152339063bf42873490612c28908590600401614493565b602060405180830381865afa158015612c45573d6000803e3d6000fd5b505050506040513d601f19601f82011682018060405250810190612c699190614d77565b612ca35760405162461bcd60e51b815260206004820152600b60248201526a0d2dcecc2d8d2c840c6e8f60ab1b60448201526064016118f6565b604051631fb6491d60e11b81523390633f6c923a90612cc6908590600401614493565b600060405180830381865afa158015612ce3573d6000803e3d6000fd5b505050506040513d6000823e601f3d908101601f19168201604052612d0b9190810190614e1e565b90505b92915050565b6040805160608101825260008082526020820181905291810182905281906000612d3c6142a9565b6000612d488a89613538565b9550612d548987613fdf565b9450612d608b8761359f565b9450905080612d825760405163edeaa63b60e01b815260040160405180910390fd5b612d8c8b86613cc7565b90935091508615612df95782612db55760405163016d919360e71b815260040160405180910390fd5b896001600160a01b031682602001516001600160a01b031614612dda57612dda614b84565b8763ffffffff16826040015163ffffffff1614612df957612df9614b84565b509550955095509550959050565b612e0f61426e565b6001600160a01b0394851681529290931660208301526040820152606081019190915290565b6020820151604051633e7d48bd60e21b81526001600160a01b03909116600482015260609060009081908190339063f9f522f490602401606060405180830381865afa158015612e89573d6000803e3d6000fd5b505050506040513d601f19601f82011682018060405250810190612ead9190614f24565b91945092509050828015612ebf575081155b15612fe3576000612ed08688614020565b90508660c001518216600003612fd5576000612eef8860c0015161409e565b88516040808b015160608c015182516000815260208101909352612f1b93923092919060448101614f60565b60408051601f19818403018152918152602080830180516001600160e01b03166001600160e01b031990951694909417909352918a015160c08b01519251633a020f0160e11b815291935033926374041e0292612f8a9291869164100000000091909114908890600401614fa5565b6000604051808303816000875af1158015612fa9573d6000803e3d6000fd5b505050506040513d6000823e601f3d908101601f19168201604052612fd19190810190614fee565b9550505b612fe0866000614135565b50505b50505092915050565b60006001600160801b038211156130555760405162461bcd60e51b815260206004820152602760248201527f53616665436173743a2076616c756520646f65736e27742066697420696e20316044820152663238206269747360c81b60648201526084016118f6565b5090565b604080516002808252606080830184529260208301908036833701905050905081600001516001600160801b0316600160801b1760001b816000815181106130a3576130a3614b6e565b602002602001018181525050608082604001516001600160801b0316901b82602001516001600160801b03161760001b816001815181106130e6576130e6614b6e565b602002602001018181525050919050565b6040805160028082526060808301845292602083019080368337019050509050816000015163ffffffff166020836040015163ffffffff16901b606084602001516001600160a01b0316901b171760001b8160008151811061315b5761315b614b6e565b602002602001018181525050608082608001516001600160801b0316901b82606001516001600160801b03161760001b816001815181106130e6576130e6614b6e565b806000036131ab57505050565b604051634b61cc3360e01b81526000906001600160a01b03851690634b61cc33906131e6903090879064010000000090600190600401614b9a565b600060405180830381865afa158015613203573d6000803e3d6000fd5b505050506040513d6000823e601f3d908101601f1916820160405261322b9190810190614cc0565b9050816132548260008151811061324457613244614b6e565b602002602001015160001c61415d565b61325e9190614cf4565b60001b8160008151811061327457613274614b6e565b602090810291909101015260405163048620af60e11b81526001600160a01b0385169063090c415e906132b4908690640100000000908690600401615022565b600060405180830381600087803b1580156132ce57600080fd5b505af11580156132e2573d6000803e3d6000fd5b5050505050505050565b6132f46142d7565b6020840151604051633e7d48bd60e21b81526001600160a01b03909116600482015260609060009081908190339063f9f522f490602401606060405180830381865afa158015613348573d6000803e3d6000fd5b505050506040513d601f19601f8201168201806040525081019061336c9190614f24565b88965091945092509050828015613381575081155b1561352d576133908489614020565b93508760c00151811660000361351b5760006133af8960c0015161409e565b89516040808c015160608d0151825160008152602081019093526133dd9392309291908e9060448101615049565b60408051601f19818403018152918152602080830180516001600160e01b03166001600160e01b031990951694909417909352918b015160c08c0151925163079b42a160e21b81529193503392631e6d0a849261344c9291869164200000000091909114908b90600401614fa5565b6000604051808303816000875af115801561346b573d6000803e3d6000fd5b505050506040513d6000823e601f3d908101601f191682016040526134939190810190614fee565b604051631fb6491d60e11b81529095503390633f6c923a906134b9908890600401614493565b600060405180830381865afa1580156134d6573d6000803e3d6000fd5b505050506040513d6000823e601f3d908101601f191682016040526134fe9190810190614e1e565b955061351389608001518761010001516141c7565b610100870152505b61352a86866101000151614135565b93505b505050935093915050565b60405168383ab13634b9b432b960b91b60208201526bffffffffffffffffffffffff19606084901b1660298201526001600160e01b031960e083901b16603d8201526000906041015b60405160208183030381529060405280519060200120905092915050565b60408051606081018252600080825260208201819052918101829052604051636c2d9f2f60e01b815230600482015260248101849052600260448201526000906001600160a01b03861690636c2d9f2f90606401600060405180830381865afa158015613610573d6000803e3d6000fd5b505050506040513d6000823e601f3d908101601f191682016040526136389190810190614cc0565b905060008160008151811061364f5761364f614b6e565b602002602001015160001c905060008260018151811061367157613671614b6e565b602002602001015160001c905060008211945084156136a9576001600160801b03808316855281166020850152608081901c60408501525b5050509250929050565b604051631528e57f60e31b81526001600160a01b038085166004830152831660248201526000604482015263ffffffff8216606482015273__$6040e6113e0e8355239b974a4a8d52be72$__9063a9472bf89060840160006040518083038186803b15801561372157600080fd5b505af4158015613735573d6000803e3d6000fd5b50505050505050565b60006137687f360894a13ba1a3210667c828492db98dca3e2076cc3735a920a3ca505d382bbc5490565b6001600160a01b0316036137be5760405162461bcd60e51b815260206004820152601d60248201527f5555505350726f786961626c653a206e6f742075706772616461626c6500000060448201526064016118f6565b806001600160a01b03166352d1902d6040518163ffffffff1660e01b8152600401602060405180830381865afa1580156137fc573d6000803e3d6000fd5b505050506040513d601f19601f820116820180604052508101906138209190614b1c565b61382861116c565b146138815760405162461bcd60e51b815260206004820152602360248201527f5555505350726f786961626c653a206e6f7420636f6d70617469626c65206c6f60448201526267696360e81b60648201526084016118f6565b6001600160a01b03811630036138d95760405162461bcd60e51b815260206004820152601960248201527f5555505350726f786961626c653a2070726f7879206c6f6f700000000000000060448201526064016118f6565b613901817f360894a13ba1a3210667c828492db98dca3e2076cc3735a920a3ca505d382bbc55565b7fe011bc04c286c344a8fcbb8de77f953da762c3e25d8cdea984147fc4168a5dcc61392a61116c565b604080519182526001600160a01b038416602083015201611960565b60408051606081018252600080825260208201819052918101829052600061396e8585613538565b925061397a868461359f565b925090508061399c5760405163edeaa63b60e01b815260040160405180910390fd5b50935093915050565b866001600160a01b031663cf97256d8785602001516001600160801b03168660000151866139d391906149be565b6001600160801b03166139e590614a0e565b6139ef91906149de565b6040518363ffffffff1660e01b8152600401613a0c929190614a2a565b600060405180830381600087803b158015613a2657600080fd5b505af1158015613a3a573d6000803e3d6000fd5b50505050613a74878785604001516001600160801b0316866000015186613a6191906149be565b6001600160801b03166108a191906149de565b82516001600160801b03831684526001600160a01b03881663a1b2bf8b86613a9b87613059565b6040518363ffffffff1660e01b8152600401613ab892919061497e565b600060405180830381600087803b158015613ad257600080fd5b505af1158015613ae6573d6000803e3d6000fd5b505050508563ffffffff16876001600160a01b0316896001600160a01b03167f81e37f3d9f16cbf29a62d6a1c21d79b23ef29b54124ec44af43a50fffb9304f3848789604001518a6020015189604051613b449594939291906150af565b60405180910390a46040516379359f6f60e01b81526001600160a01b0388811660048301528916906379359f6f90602401602060405180830381865afa158015613b92573d6000803e3d6000fd5b505050506040513d601f19601f82011682018060405250810190613bb69190614d77565b156132e2576040516316e759bb60e01b815260040160405180910390fd5b60608073__$6040e6113e0e8355239b974a4a8d52be72$__6306967a8c85856000600160801b6040518563ffffffff1660e01b8152600401613c199493929190614b9a565b600060405180830381865af4158015613c36573d6000803e3d6000fd5b505050506040513d6000823e601f3d908101601f19168201604052613c5e91908101906150eb565b909250905060005b8151811015613cbf57613c9284838381518110613c8557613c85614b6e565b6020026020010151613fdf565b828281518110613ca457613ca4614b6e565b6020908102919091010152613cb8816151af565b9050613c66565b509250929050565b6000613cd16142a9565b604051636c2d9f2f60e01b815230600482015260248101849052600260448201526000906001600160a01b03861690636c2d9f2f90606401600060405180830381865afa158015613d26573d6000803e3d6000fd5b505050506040513d6000823e601f3d908101601f19168201604052613d4e9190810190614cc0565b9050600081600081518110613d6557613d65614b6e565b602002602001015160001c9050600082600181518110613d8757613d87614b6e565b602002602001015160001c905060008211945084156136a957606082811c60208087019190915283901c63ffffffff9081166040870152831685526001600160801b03821690850152608081811c908501525050509250929050565b600080836001600160a01b0316634b61cc33308564010000000060016040518563ffffffff1660e01b8152600401613e1e9493929190614b9a565b600060405180830381865afa158015613e3b573d6000803e3d6000fd5b505050506040513d6000823e601f3d908101601f19168201604052613e639190810190614cc0565b905080600081518110613e7857613e78614b6e565b602002602001015160001c91505092915050565b604051630a32470160e41b81526001600160a01b03808516600483015283166024820152600060448201819052600160801b6064830152608482018390529073__$6040e6113e0e8355239b974a4a8d52be72$__9063a32470109060a401602060405180830381865af4158015613f07573d6000803e3d6000fd5b505050506040513d601f19601f82011682018060405250810190613f2b91906151c8565b949350505050565b604051636c2d9f2f60e01b8152306004820152602481018290526002604482015260009081906001600160a01b03851690636c2d9f2f90606401600060405180830381865afa158015613f8a573d6000803e3d6000fd5b505050506040513d6000823e601f3d908101601f19168201604052613fb29190810190614cc0565b9050600081600081518110613fc957613fc9614b6e565b6020908102919091010151151595945050505050565b604080516b39bab139b1b934b83a34b7b760a11b6020820152606084811b6bffffffffffffffffffffffff1916602c83015291810183905260009101613581565b6020810151608082015160a08301518351604051630768fabb60e41b8152606094339463768fabb094614057948a946004016151e5565b6000604051808303816000875af1158015614076573d6000803e3d6000fd5b505050506040513d6000823e601f3d908101601f19168201604052612d0b9190810190614fee565b600064010000000082036140ba57506330d9c91560e01b919050565b64040000000082036140d45750630221347d60e61b919050565b64100000000082036140ee5750635f9e7d7760e01b919050565b6402000000008203614108575063d86ed3e560e01b919050565b6408000000008203614122575063230dbd2960e01b919050565b506353c11f9960e01b919050565b919050565b604051634c4d861f60e11b8152606090339063989b0c3e90614057908690869060040161522a565b60006001600160ff1b038211156130555760405162461bcd60e51b815260206004820152602860248201527f53616665436173743a2076616c756520646f65736e27742066697420696e2061604482015267371034b73a191a9b60c11b60648201526084016118f6565b6000612d0b60006141e06141da8661415d565b856141e5565b6141fa565b60008183136141f45782612d0b565b50919050565b60008183136142095781612d0b565b5090919050565b6040805160c0810182526000808252602082018190529181019190915260608101614254604080516060810182526000808252602082018190529181019190915290565b81526020016142616142a9565b8152602001606081525090565b6040805160e0810182526000808252602082018190529181018290526060808201526080810182905260a0810182905260c081019190915290565b6040805160a08101825260008082526020820181905291810182905260608101829052608081019190915290565b604080516101608101825260008082526020820181905291810182905260608082018390526080820183905260a082015260c0810182905260e081018290526101008101829052610120810182905261014081019190915290565b6001600160a01b038116811461113a57600080fd5b63ffffffff8116811461113a57600080fd5b80356001600160801b038116811461413057600080fd5b60008083601f84011261438257600080fd5b5081356001600160401b0381111561439957600080fd5b6020830191508360208285010111156143b157600080fd5b9250929050565b60008060008060008060a087890312156143d157600080fd5b86356143dc81614332565b955060208701356143ec81614347565b945060408701356143fc81614332565b935061440a60608801614359565b925060808701356001600160401b0381111561442557600080fd5b61443189828a01614370565b979a9699509497509295939492505050565b60005b8381101561445e578181015183820152602001614446565b50506000910152565b6000815180845261447f816020860160208601614443565b601f01601f19169290920160200192915050565b602081526000612d0b6020830184614467565b6000806000606084860312156144bb57600080fd5b83356144c681614332565b925060208401356144d681614332565b915060408401356144e681614347565b809150509250925092565b60008060008060008060a0878903121561450a57600080fd5b863561451581614332565b9550602087013561452581614332565b9450604087013561453581614347565b9350606087013561440a81614332565b60006020828403121561455757600080fd5b813561456281614332565b9392505050565b6000806000806080858703121561457f57600080fd5b843561458a81614332565b9350602085013561459a81614332565b925060408501356145aa81614347565b915060608501356145ba81614332565b939692955090935050565b6000806000806000608086880312156145dd57600080fd5b85356145e881614332565b945060208601356145f881614332565b9350604086013561460881614347565b925060608601356001600160401b0381111561462357600080fd5b61462f88828901614370565b969995985093965092949392505050565b60008060008060006080868803121561465857600080fd5b853561466381614332565b9450602086013561467381614347565b935061460860408701614359565b6000806000806080858703121561469757600080fd5b84356146a281614332565b935060208501356146b281614332565b925060408501356146c281614347565b9396929550929360600135925050565b6000806000606084860312156146e757600080fd5b83356146f281614332565b9250602084013561470281614332565b929592945050506040919091013590565b6000806040838503121561472657600080fd5b823561473181614332565b9150602083013561474181614332565b809150509250929050565b600081518084526020808501945080840160005b838110156147855781516001600160801b031687529582019590820190600101614760565b509495945050505050565b606080825284519082018190526000906020906080840190828801845b828110156147d25781516001600160a01b0316845292840192908401906001016147ad565b5050508381038285015285518082528683019183019060005b8181101561480d57835163ffffffff16835292840192918401916001016147eb565b50508481036040860152614821818761474c565b98975050505050505050565b60008060008060006080868803121561484557600080fd5b853561485081614332565b9450602086013561486081614347565b93506040860135925060608601356001600160401b0381111561462357600080fd5b6000806040838503121561489557600080fd5b82356148a081614332565b946020939093013593505050565b600080600080606085870312156148c457600080fd5b84356148cf81614332565b935060208501356148df81614347565b925060408501356001600160401b038111156148fa57600080fd5b61490687828801614370565b95989497509550505050565b634e487b7160e01b600052601160045260246000fd5b80820180821115612d0e57612d0e614912565b81810381811115612d0e57612d0e614912565b600081518084526020808501945080840160005b8381101561478557815187529582019590820190600101614962565b828152604060208201526000613f2b604083018461494e565b6001600160801b038181168382160190808211156149b7576149b7614912565b5092915050565b6001600160801b038281168282160390808211156149b7576149b7614912565b80820260008212600160ff1b841416156149fa576149fa614912565b8181058314821517612d0e57612d0e614912565b6000600160ff1b8201614a2357614a23614912565b5060000390565b6001600160a01b03929092168252602082015260400190565b6001600160a01b03841681526001600160801b0383166020820152606060408201819052600090614a7690830184614467565b95945050505050565b6001600160a01b038516815263ffffffff841660208201526001600160801b0383166040820152608060608201819052600090614abe90830184614467565b9695505050505050565b6001600160a01b0383168152604060208201819052600090613f2b90830184614467565b6001600160a01b038416815263ffffffff83166020820152606060408201819052600090614a7690830184614467565b600060208284031215614b2e57600080fd5b5051919050565b8082028115828204841417612d0e57612d0e614912565b600082614b6957634e487b7160e01b600052601260045260246000fd5b500490565b634e487b7160e01b600052603260045260246000fd5b634e487b7160e01b600052600160045260246000fd5b6001600160a01b0394851681529290931660208301526040820152606081019190915260800190565b634e487b7160e01b600052604160045260246000fd5b60405161016081016001600160401b0381118282101715614bfc57614bfc614bc3565b60405290565b604051601f8201601f191681016001600160401b0381118282101715614c2a57614c2a614bc3565b604052919050565b60006001600160401b03821115614c4b57614c4b614bc3565b5060051b60200190565b600082601f830112614c6657600080fd5b81516020614c7b614c7683614c32565b614c02565b82815260059290921b84018101918181019086841115614c9a57600080fd5b8286015b84811015614cb55780518352918301918301614c9e565b509695505050505050565b600060208284031215614cd257600080fd5b81516001600160401b03811115614ce857600080fd5b613f2b84828501614c55565b8082018281126000831280158216821582161715614d1457614d14614912565b505092915050565b600063ffffffff808316818103614d3557614d35614912565b6001019392505050565b805161413081614332565b600060208284031215614d5c57600080fd5b815161456281614332565b8051801515811461413057600080fd5b600060208284031215614d8957600080fd5b612d0b82614d67565b805160ff8116811461413057600080fd5b80516001600160e01b03198116811461413057600080fd5b600082601f830112614dcc57600080fd5b81516001600160401b03811115614de557614de5614bc3565b614df8601f8201601f1916602001614c02565b818152846020838601011115614e0d57600080fd5b613f2b826020830160208701614443565b600060208284031215614e3057600080fd5b81516001600160401b0380821115614e4757600080fd5b908301906101608286031215614e5c57600080fd5b614e64614bd9565b614e6d83614d92565b8152614e7b60208401614d92565b602082015260408301516040820152614e9660608401614d3f565b6060820152614ea760808401614da3565b608082015260a083015182811115614ebe57600080fd5b614eca87828601614dbb565b60a08301525060c083015160c082015260e083015160e0820152610100915081830151828201526101209150614f01828401614d3f565b828201526101409150614f15828401614d3f565b91810191909152949350505050565b600080600060608486031215614f3957600080fd5b614f4284614d67565b9250614f5060208501614d67565b9150604084015190509250925092565b6001600160a01b038681168252851660208201526040810184905260a060608201819052600090614f9390830185614467565b82810360808401526148218185614467565b6001600160a01b0385168152608060208201819052600090614fc990830186614467565b84151560408401528281036060840152614fe38185614467565b979650505050505050565b60006020828403121561500057600080fd5b81516001600160401b0381111561501657600080fd5b613f2b84828501614dbb565b60018060a01b0384168152826020820152606060408201526000614a76606083018461494e565b6001600160a01b038781168252861660208201526040810185905260c06060820181905260009061507c90830186614467565b828103608084015261508e8186614467565b905082810360a08401526150a28185614467565b9998505050505050505050565b60006001600160801b0380881683528087166020840152808616604084015280851660608401525060a06080830152614fe360a0830184614467565b600080604083850312156150fe57600080fd5b82516001600160401b038082111561511557600080fd5b818501915085601f83011261512957600080fd5b81516020615139614c7683614c32565b82815260059290921b8401810191818101908984111561515857600080fd5b948201945b8386101561517f57855161517081614347565b8252948201949082019061515d565b9188015191965090935050508082111561519857600080fd5b506151a585828601614c55565b9150509250929050565b6000600182016151c1576151c1614912565b5060010190565b6000602082840312156151da57600080fd5b815161456281614347565b60a0815260006151f860a0830188614467565b6001600160a01b0396871660208401526040830195909552506060810192909252909216608090920191909152919050565b60408152600061523d6040830185614467565b9050826020830152939250505056fea2646970667358221220571c73c883fc2e652b9840d11eabaad0a7c240d3517699da3b57ecbde3471be564736f6c63430008130033",
    "linkReferences": {
      "lib/superfluid-protocol-monorepo/packages/ethereum-contracts/contracts/libs/SlotsBitmapLibrary.sol": {
        "SlotsBitmapLibrary": [
          {
            "start": 597,
            "length": 20
          },
          {
            "start": 14208,
            "length": 20
          },
          {
            "start": 15469,
            "length": 20
          },
          {
            "start": 16225,
            "length": 20
          }
        ]
      }
    }
  },
  "methodIdentifiers": {
    "MAX_NUM_SUBSCRIPTIONS()": "a5653ced",
    "SLOTS_BITMAP_LIBRARY_ADDRESS()": "3fd4176a",
    "agreementType()": "7730599e",
    "approveSubscription(address,address,uint32,bytes)": "acf4a6c2",
    "calculateDistribution(address,address,uint32,uint256)": "899baaec",
    "castrate()": "9903ad38",
    "claim(address,address,uint32,address,bytes)": "acafa1b8",
    "createIndex(address,uint32,bytes)": "d787840a",
    "deleteSubscription(address,address,uint32,address,bytes)": "2e5e74c6",
    "distribute(address,uint32,uint256,bytes)": "b96731c2",
    "getCodeAddress()": "50d75d25",
    "getIndex(address,address,uint32)": "23fc23f3",
    "getSubscription(address,address,uint32,address)": "5b534051",
    "getSubscriptionByID(address,bytes32)": "cd7245c5",
    "listSubscriptions(address,address)": "b6dacdb8",
    "proxiableUUID()": "52d1902d",
    "realtimeBalanceOf(address,address,uint256)": "9b2e48bc",
    "revokeSubscription(address,address,uint32,bytes)": "6041ae96",
    "updateCode(address)": "46951954",
    "updateIndex(address,uint32,uint128,bytes)": "7fbc7639",
    "updateSubscription(address,uint32,address,uint128,bytes)": "232d2b58"
  },
  "id": 53
}