{
  "abi": [
    {
      "inputs": [
        {
          "internalType": "contract ISuperfluid",
          "name": "host",
          "type": "address"
        }
      ],
      "stateMutability": "nonpayable",
      "type": "constructor"
    },
    {
      "inputs": [
        {
          "internalType": "contract ISuperfluidToken",
          "name": "token",
          "type": "address"
        },
        {
          "internalType": "address",
          "name": "publisher",
          "type": "address"
        },
        {
          "internalType": "uint32",
          "name": "indexId",
          "type": "uint32"
        },
        {
          "internalType": "bytes",
          "name": "userData",
          "type": "bytes"
        }
      ],
      "name": "approveSubscription",
      "outputs": [
        {
          "internalType": "bool",
          "name": "",
          "type": "bool"
        }
      ],
      "stateMutability": "nonpayable",
      "type": "function"
    },
    {
      "inputs": [
        {
          "internalType": "contract ISuperfluidToken",
          "name": "token",
          "type": "address"
        },
        {
          "internalType": "address",
          "name": "publisher",
          "type": "address"
        },
        {
          "internalType": "uint32",
          "name": "indexId",
          "type": "uint32"
        },
        {
          "internalType": "uint128",
          "name": "amount",
          "type": "uint128"
        }
      ],
      "name": "calculateDistribution",
      "outputs": [
        {
          "internalType": "uint256",
          "name": "actualAmount",
          "type": "uint256"
        },
        {
          "internalType": "uint128",
          "name": "newIndexValue",
          "type": "uint128"
        }
      ],
      "stateMutability": "view",
      "type": "function"
    },
    {
      "inputs": [
        {
          "internalType": "contract ISuperfluidToken",
          "name": "token",
          "type": "address"
        },
        {
          "internalType": "uint32",
          "name": "indexId",
          "type": "uint32"
        },
        {
          "internalType": "bytes",
          "name": "userData",
          "type": "bytes"
        }
      ],
      "name": "createIndex",
      "outputs": [
        {
          "internalType": "bool",
          "name": "",
          "type": "bool"
        }
      ],
      "stateMutability": "nonpayable",
      "type": "function"
    },
    {
      "inputs": [
        {
          "internalType": "contract ISuperfluidToken",
          "name": "token",
          "type": "address"
        },
        {
          "internalType": "address",
          "name": "publisher",
          "type": "address"
        },
        {
          "internalType": "uint32",
          "name": "indexId",
          "type": "uint32"
        },
        {
          "internalType": "address",
          "name": "subscriber",
          "type": "address"
        },
        {
          "internalType": "bytes",
          "name": "userData",
          "type": "bytes"
        }
      ],
      "name": "deleteSubscription",
      "outputs": [
        {
          "internalType": "bool",
          "name": "",
          "type": "bool"
        }
      ],
      "stateMutability": "nonpayable",
      "type": "function"
    },
    {
      "inputs": [
        {
          "internalType": "contract ISuperfluidToken",
          "name": "token",
          "type": "address"
        },
        {
          "internalType": "uint32",
          "name": "indexId",
          "type": "uint32"
        },
        {
          "internalType": "uint128",
          "name": "amount",
          "type": "uint128"
        },
        {
          "internalType": "bytes",
          "name": "userData",
          "type": "bytes"
        }
      ],
      "name": "distribute",
      "outputs": [
        {
          "internalType": "bool",
          "name": "",
          "type": "bool"
        }
      ],
      "stateMutability": "nonpayable",
      "type": "function"
    },
    {
      "inputs": [
        {
          "internalType": "contract ISuperfluidToken",
          "name": "token",
          "type": "address"
        },
        {
          "internalType": "address",
          "name": "publisher",
          "type": "address"
        },
        {
          "internalType": "uint32",
          "name": "indexId",
          "type": "uint32"
        }
      ],
      "name": "getIndex",
      "outputs": [
        {
          "internalType": "bool",
          "name": "exist",
          "type": "bool"
        },
        {
          "internalType": "uint128",
          "name": "indexValue",
          "type": "uint128"
        },
        {
          "internalType": "uint128",
          "name": "totalUnitsApproved",
          "type": "uint128"
        },
        {
          "internalType": "uint128",
          "name": "totalUnitsPending",
          "type": "uint128"
        }
      ],
      "stateMutability": "view",
      "type": "function"
    },
    {
      "inputs": [
        {
          "internalType": "address",
          "name": "publisher",
          "type": "address"
        },
        {
          "internalType": "uint32",
          "name": "indexId",
          "type": "uint32"
        }
      ],
      "name": "getPublisherId",
      "outputs": [
        {
          "internalType": "bytes32",
          "name": "publisherId",
          "type": "bytes32"
        }
      ],
      "stateMutability": "pure",
      "type": "function"
    },
    {
      "inputs": [
        {
          "internalType": "contract ISuperfluidToken",
          "name": "token",
          "type": "address"
        },
        {
          "internalType": "address",
          "name": "publisher",
          "type": "address"
        },
        {
          "internalType": "uint32",
          "name": "indexId",
          "type": "uint32"
        },
        {
          "internalType": "address",
          "name": "subscriber",
          "type": "address"
        }
      ],
      "name": "getSubscription",
      "outputs": [
        {
          "internalType": "bool",
          "name": "exist",
          "type": "bool"
        },
        {
          "internalType": "bool",
          "name": "approved",
          "type": "bool"
        },
        {
          "internalType": "uint128",
          "name": "units",
          "type": "uint128"
        },
        {
          "internalType": "uint256",
          "name": "pendingDistribution",
          "type": "uint256"
        }
      ],
      "stateMutability": "view",
      "type": "function"
    },
    {
      "inputs": [
        {
          "internalType": "contract ISuperfluidToken",
          "name": "token",
          "type": "address"
        },
        {
          "internalType": "bytes32",
          "name": "subscriptionId",
          "type": "bytes32"
        }
      ],
      "name": "getSubscriptionByID",
      "outputs": [
        {
          "internalType": "address",
          "name": "publisher",
          "type": "address"
        },
        {
          "internalType": "uint32",
          "name": "indexId",
          "type": "uint32"
        },
        {
          "internalType": "bool",
          "name": "approved",
          "type": "bool"
        },
        {
          "internalType": "uint128",
          "name": "units",
          "type": "uint128"
        },
        {
          "internalType": "uint256",
          "name": "pendingDistribution",
          "type": "uint256"
        }
      ],
      "stateMutability": "view",
      "type": "function"
    },
    {
      "inputs": [
        {
          "internalType": "address",
          "name": "subscriber",
          "type": "address"
        },
        {
          "internalType": "bytes32",
          "name": "publisherId",
          "type": "bytes32"
        }
      ],
      "name": "getSubscriptionId",
      "outputs": [
        {
          "internalType": "bytes32",
          "name": "subscriptionId",
          "type": "bytes32"
        }
      ],
      "stateMutability": "pure",
      "type": "function"
    },
    {
      "inputs": [
        {
          "internalType": "contract ISuperfluidToken",
          "name": "token",
          "type": "address"
        },
        {
          "internalType": "address",
          "name": "subscriber",
          "type": "address"
        }
      ],
      "name": "listSubscriptions",
      "outputs": [
        {
          "internalType": "address[]",
          "name": "publishers",
          "type": "address[]"
        },
        {
          "internalType": "uint32[]",
          "name": "indexIds",
          "type": "uint32[]"
        },
        {
          "internalType": "uint128[]",
          "name": "unitsList",
          "type": "uint128[]"
        }
      ],
      "stateMutability": "view",
      "type": "function"
    },
    {
      "inputs": [
        {
          "internalType": "contract ISuperfluidToken",
          "name": "token",
          "type": "address"
        },
        {
          "internalType": "address",
          "name": "publisher",
          "type": "address"
        },
        {
          "internalType": "uint32",
          "name": "indexId",
          "type": "uint32"
        },
        {
          "internalType": "bytes",
          "name": "userData",
          "type": "bytes"
        }
      ],
      "name": "revokeSubscription",
      "outputs": [
        {
          "internalType": "bool",
          "name": "",
          "type": "bool"
        }
      ],
      "stateMutability": "nonpayable",
      "type": "function"
    },
    {
      "inputs": [
        {
          "internalType": "contract ISuperfluidToken",
          "name": "token",
          "type": "address"
        },
        {
          "internalType": "uint32",
          "name": "indexId",
          "type": "uint32"
        },
        {
          "internalType": "uint128",
          "name": "indexValue",
          "type": "uint128"
        },
        {
          "internalType": "bytes",
          "name": "userData",
          "type": "bytes"
        }
      ],
      "name": "updateIndex",
      "outputs": [
        {
          "internalType": "bool",
          "name": "",
          "type": "bool"
        }
      ],
      "stateMutability": "nonpayable",
      "type": "function"
    },
    {
      "inputs": [
        {
          "internalType": "contract ISuperfluidToken",
          "name": "token",
          "type": "address"
        },
        {
          "internalType": "uint32",
          "name": "indexId",
          "type": "uint32"
        },
        {
          "internalType": "address",
          "name": "subscriber",
          "type": "address"
        },
        {
          "internalType": "uint128",
          "name": "units",
          "type": "uint128"
        },
        {
          "internalType": "bytes",
          "name": "userData",
          "type": "bytes"
        }
      ],
      "name": "updateSubscriptionUnits",
      "outputs": [
        {
          "internalType": "bool",
          "name": "",
          "type": "bool"
        }
      ],
      "stateMutability": "nonpayable",
      "type": "function"
    }
  ],
  "bytecode": {
    "object": "0x60c06040523480156200001157600080fd5b5060405162001a7038038062001a708339810160408190526200003491620000ef565b6001600160a01b0381166080819052604051635b69006f60e11b81527f8aedc3b5d4bf031e11a7e2940f7251c005698405d58e02e1c247fed3b1b3a674600482015263b6d200de90602401602060405180830381865afa1580156200009d573d6000803e3d6000fd5b505050506040513d601f19601f82011682018060405250810190620000c39190620000ef565b6001600160a01b031660a0525062000116565b6001600160a01b0381168114620000ec57600080fd5b50565b6000602082840312156200010257600080fd5b81516200010f81620000d6565b9392505050565b60805160a0516118cb620001a5600039600081816102fb0152818161039301528181610403015281816104da01528181610564015281816106000152818161063d015281816106c10152818161070a01528181610766015281816107f10152818161086501528181610935015281816109a10152610a17015260008181610b470152610bb901526118cb6000f3fe608060405234801561001057600080fd5b50600436106100ba5760003560e01c806323fc23f3146100bf5780632e5e74c6146101085780634f90fda91461012b5780635b5340511461014c5780636041ae96146101905780637fbc7639146101a35780639567741f146101b6578063acf4a6c2146101c9578063b6dacdb8146101dc578063bc6fc469146101fe578063c5feb12714610211578063cd7245c514610224578063d787840a1461027c578063dbaee0b41461028f575b600080fd5b6100d26100cd366004610da8565b6102bf565b6040805194151585526001600160801b039384166020860152918316918401919091521660608201526080015b60405180910390f35b61011b610116366004610ea8565b610377565b60405190151581526020016100ff565b61013e610139366004610f2f565b610434565b6040519081526020016100ff565b61015f61015a366004610f68565b610496565b6040516100ff9493929190931515845291151560208401526001600160801b03166040830152606082015260800190565b61011b61019e366004610fc4565b610557565b61011b6101b136600461104d565b610630565b61011b6101c436600461108e565b6106a5565b61011b6101d7366004610fc4565b6106fd565b6101ef6101ea3660046110e1565b610738565b6040516100ff93929190611153565b61011b61020c36600461104d565b6107e4565b61013e61021f3660046111f0565b61081f565b6102376102323660046111f0565b61085b565b604080516001600160a01b03909616865263ffffffff9094166020860152911515928401929092526001600160801b039091166060830152608082015260a0016100ff565b61011b61028a36600461121c565b610919565b6102a261029d36600461127d565b6109d0565b604080519283526001600160801b039091166020830152016100ff565b6040516323fc23f360e01b81526001600160a01b038481166004830152838116602483015263ffffffff831660448301526000918291829182917f000000000000000000000000000000000000000000000000000000000000000016906323fc23f390606401608060405180830381865afa158015610342573d6000803e3d6000fd5b505050506040513d601f19601f8201168201806040525081019061036691906112e3565b935093509350935093509350935093565b6040805160008082526020820190925281906001600160a01b037f00000000000000000000000000000000000000000000000000000000000000001690632e5e74c6906103cf908a908a908a908a9060448101611384565b604051602081830303815290604052915060e01b6020820180516001600160e01b03838183161783525050505090506104297f00000000000000000000000000000000000000000000000000000000000000008285610a8e565b979650505050505050565b60405168383ab13634b9b432b960b91b60208201526001600160601b0319606084901b1660298201526001600160e01b031960e083901b16603d8201526000906041015b60405160208183030381529060405280519060200120905092915050565b604051635b53405160e01b81526001600160a01b038581166004830152848116602483015263ffffffff8416604483015282811660648301526000918291829182917f00000000000000000000000000000000000000000000000000000000000000001690635b53405190608401608060405180830381865afa158015610521573d6000803e3d6000fd5b505050506040513d601f19601f8201168201806040525081019061054591906113c4565b929b919a509850909650945050505050565b6000806001600160a01b037f000000000000000000000000000000000000000000000000000000000000000016636041ae96878787855b6040519080825280601f01601f1916602001820160405280156105b8576020820181803683370190505b506040516024016105cc9493929190611411565b604051602081830303815290604052915060e01b6020820180516001600160e01b03838183161783525050505090506106267f00000000000000000000000000000000000000000000000000000000000000008285610a8e565b9695505050505050565b6000806001600160a01b037f000000000000000000000000000000000000000000000000000000000000000016637fbc7639878787855b6040519080825280601f01601f191660200182016040528015610691576020820181803683370190505b506040516024016105cc9493929190611449565b6040805160008082526020820190925281906001600160a01b037f0000000000000000000000000000000000000000000000000000000000000000169063232d2b58906103cf908a908a908a908a9060448101611488565b6000806001600160a01b037f00000000000000000000000000000000000000000000000000000000000000001663acf4a6c28787878561058e565b6040516316db59b760e31b81526001600160a01b0383811660048301528281166024830152606091829182917f00000000000000000000000000000000000000000000000000000000000000009091169063b6dacdb890604401600060405180830381865afa1580156107af573d6000803e3d6000fd5b505050506040513d6000823e601f3d908101601f191682016040526107d791908101906115ca565b9250925092509250925092565b6000806001600160a01b037f00000000000000000000000000000000000000000000000000000000000000001663b96731c287878785610667565b604080516b39bab139b1b934b83a34b7b760a11b6020820152606084811b6001600160601b031916602c83015291810183905260009101610478565b60008060008060007f00000000000000000000000000000000000000000000000000000000000000006001600160a01b031663cd7245c588886040518363ffffffff1660e01b81526004016108c59291906001600160a01b03929092168252602082015260400190565b60a060405180830381865afa1580156108e2573d6000803e3d6000fd5b505050506040513d601f19601f8201168201806040525081019061090691906116a8565b939b929a50909850965090945092505050565b6040805160008082526020820190925281906001600160a01b037f0000000000000000000000000000000000000000000000000000000000000000169063d787840a9061096d90889088906044810161170f565b604051602081830303815290604052915060e01b6020820180516001600160e01b03838183161783525050505090506109c77f00000000000000000000000000000000000000000000000000000000000000008285610a8e565b95945050505050565b604051632266eabb60e21b81526001600160a01b038581166004830152848116602483015263ffffffff841660448301526001600160801b038316606483015260009182917f0000000000000000000000000000000000000000000000000000000000000000169063899baaec906084016040805180830381865afa158015610a5d573d6000803e3d6000fd5b505050506040513d601f19601f82011682018060405250810190610a81919061173f565b9150915094509492505050565b604080516001808252818301909252600091829190816020015b60408051606080820183526000808352602083015291810191909152815260200190600190039081610aa8579050509050604051806060016040528060c963ffffffff168152602001866001600160a01b031681526020018585604051602001610b13929190611764565b60405160208183030381529060405281525081600081518110610b3857610b38611789565b602002602001018190525060007f00000000000000000000000000000000000000000000000000000000000000006001600160a01b031663670e77e383604051602401610b85919061179f565b604051602081830303815290604052915060e01b6020820180516001600160e01b03838183161783525050505090506000807f00000000000000000000000000000000000000000000000000000000000000006001600160a01b03168333604051602001610bf492919061182d565b60408051601f1981840301815290829052610c0e9161185f565b6000604051808303816000865af19150503d8060008114610c4b576040519150601f19603f3d011682016040523d82523d6000602084013e610c50565b606091505b509150915081610c6357610c6381610c71565b506001979650505050505050565b600481511015610cc55760405162461bcd60e51b815260206004820152601a60248201527943616c6c5574696c733a2074617267657420726576657274282960301b60448201526064015b60405180910390fd5b602081015163b1b7848f60e01b6001600160e01b0319821601610d755760408051808201825260208082527f43616c6c5574696c733a207461726765742070616e69636b65643a2030785f5f90820190815260248501517f43616c6c5574696c733a207461726765742070616e69636b65643a2030780000600482811c600f908116603090810160081b918516011791909117909252925162461bcd60e51b8152919291610cbc9184910161187b565b81518060208401fd5b50565b6001600160a01b0381168114610d7e57600080fd5b63ffffffff81168114610d7e57600080fd5b600080600060608486031215610dbd57600080fd5b8335610dc881610d81565b92506020840135610dd881610d81565b91506040840135610de881610d96565b809150509250925092565b634e487b7160e01b600052604160045260246000fd5b604051601f8201601f191681016001600160401b0381118282101715610e3157610e31610df3565b604052919050565b600082601f830112610e4a57600080fd5b81356001600160401b03811115610e6357610e63610df3565b610e76601f8201601f1916602001610e09565b818152846020838601011115610e8b57600080fd5b816020850160208301376000918101602001919091529392505050565b600080600080600060a08688031215610ec057600080fd5b8535610ecb81610d81565b94506020860135610edb81610d81565b93506040860135610eeb81610d96565b92506060860135610efb81610d81565b915060808601356001600160401b03811115610f1657600080fd5b610f2288828901610e39565b9150509295509295909350565b60008060408385031215610f4257600080fd5b8235610f4d81610d81565b91506020830135610f5d81610d96565b809150509250929050565b60008060008060808587031215610f7e57600080fd5b8435610f8981610d81565b93506020850135610f9981610d81565b92506040850135610fa981610d96565b91506060850135610fb981610d81565b939692955090935050565b60008060008060808587031215610fda57600080fd5b8435610fe581610d81565b93506020850135610ff581610d81565b9250604085013561100581610d96565b915060608501356001600160401b0381111561102057600080fd5b61102c87828801610e39565b91505092959194509250565b6001600160801b0381168114610d7e57600080fd5b6000806000806080858703121561106357600080fd5b843561106e81610d81565b9350602085013561107e81610d96565b9250604085013561100581611038565b600080600080600060a086880312156110a657600080fd5b85356110b181610d81565b945060208601356110c181610d96565b935060408601356110d181610d81565b92506060860135610efb81611038565b600080604083850312156110f457600080fd5b82356110ff81610d81565b91506020830135610f5d81610d81565b600081518084526020808501945080840160005b838110156111485781516001600160801b031687529582019590820190600101611123565b509495945050505050565b606080825284519082018190526000906020906080840190828801845b828110156111955781516001600160a01b031684529284019290840190600101611170565b5050508381038285015285518082528683019183019060005b818110156111d057835163ffffffff16835292840192918401916001016111ae565b505084810360408601526111e4818761110f565b98975050505050505050565b6000806040838503121561120357600080fd5b823561120e81610d81565b946020939093013593505050565b60008060006060848603121561123157600080fd5b833561123c81610d81565b9250602084013561124c81610d96565b915060408401356001600160401b0381111561126757600080fd5b61127386828701610e39565b9150509250925092565b6000806000806080858703121561129357600080fd5b843561129e81610d81565b935060208501356112ae81610d81565b925060408501356112be81610d96565b91506060850135610fb981611038565b805180151581146112de57600080fd5b919050565b600080600080608085870312156112f957600080fd5b611302856112ce565b9350602085015161131281611038565b604086015190935061132381611038565b6060860151909250610fb981611038565b60005b8381101561134f578181015183820152602001611337565b50506000910152565b60008151808452611370816020860160208601611334565b601f01601f19169290920160200192915050565b6001600160a01b038681168252858116602083015263ffffffff851660408301528316606082015260a06080820181905260009061042990830184611358565b600080600080608085870312156113da57600080fd5b6113e3856112ce565b93506113f1602086016112ce565b9250604085015161140181611038565b6060959095015193969295505050565b6001600160a01b0385811682528416602082015263ffffffff8316604082015260806060820181905260009061062690830184611358565b6001600160a01b038516815263ffffffff841660208201526001600160801b038316604082015260806060820181905260009061062690830184611358565b6001600160a01b03868116825263ffffffff86166020830152841660408201526001600160801b038316606082015260a06080820181905260009061042990830184611358565b60006001600160401b038211156114e8576114e8610df3565b5060051b60200190565b600082601f83011261150357600080fd5b81516020611518611513836114cf565b610e09565b82815260059290921b8401810191818101908684111561153757600080fd5b8286015b8481101561155b57805161154e81610d96565b835291830191830161153b565b509695505050505050565b600082601f83011261157757600080fd5b81516020611587611513836114cf565b82815260059290921b840181019181810190868411156115a657600080fd5b8286015b8481101561155b5780516115bd81611038565b83529183019183016115aa565b6000806000606084860312156115df57600080fd5b83516001600160401b03808211156115f657600080fd5b818601915086601f83011261160a57600080fd5b8151602061161a611513836114cf565b82815260059290921b8401810191818101908a84111561163957600080fd5b948201945b8386101561166057855161165181610d81565b8252948201949082019061163e565b9189015191975090935050508082111561167957600080fd5b611685878388016114f2565b9350604086015191508082111561169b57600080fd5b5061127386828701611566565b600080600080600060a086880312156116c057600080fd5b85516116cb81610d81565b60208701519095506116dc81610d96565b93506116ea604087016112ce565b925060608601516116fa81611038565b80925050608086015190509295509295909350565b6001600160a01b038416815263ffffffff831660208201526060604082018190526000906109c790830184611358565b6000806040838503121561175257600080fd5b825191506020830151610f5d81611038565b6040815260006117776040830185611358565b82810360208401526109c78185611358565b634e487b7160e01b600052603260045260246000fd5b60006020808301818452808551808352604092508286019150828160051b87010184880160005b8381101561181f57888303603f190185528151805163ffffffff168452878101516001600160a01b031688850152860151606087850181905261180b81860183611358565b9689019694505050908601906001016117c6565b509098975050505050505050565b6000835161183f818460208801611334565b60609390931b6001600160601b0319169190920190815260140192915050565b60008251611871818460208701611334565b9190910192915050565b60208152600061188e6020830184611358565b939250505056fea2646970667358221220677cc9c2d375842dabef45b92830ee879a80b20f9d605115483e6e5036a38b0664736f6c63430008130033",
    "linkReferences": {}
  },
  "methodIdentifiers": {
    "approveSubscription(address,address,uint32,bytes)": "acf4a6c2",
    "calculateDistribution(address,address,uint32,uint128)": "dbaee0b4",
    "createIndex(address,uint32,bytes)": "d787840a",
    "deleteSubscription(address,address,uint32,address,bytes)": "2e5e74c6",
    "distribute(address,uint32,uint128,bytes)": "bc6fc469",
    "getIndex(address,address,uint32)": "23fc23f3",
    "getPublisherId(address,uint32)": "4f90fda9",
    "getSubscription(address,address,uint32,address)": "5b534051",
    "getSubscriptionByID(address,bytes32)": "cd7245c5",
    "getSubscriptionId(address,bytes32)": "c5feb127",
    "listSubscriptions(address,address)": "b6dacdb8",
    "revokeSubscription(address,address,uint32,bytes)": "6041ae96",
    "updateIndex(address,uint32,uint128,bytes)": "7fbc7639",
    "updateSubscriptionUnits(address,uint32,address,uint128,bytes)": "9567741f"
  },
  "id": 101
}