{
  "abi": [
    {
      "inputs": [],
      "name": "DEFAULT_APP_WHITELISTING_ENABLED",
      "outputs": [
        {
          "internalType": "bool",
          "name": "",
          "type": "bool"
        }
      ],
      "stateMutability": "view",
      "type": "function"
    },
    {
      "inputs": [],
      "name": "DEFAULT_LIQUIDATION_PERIOD",
      "outputs": [
        {
          "internalType": "uint256",
          "name": "",
          "type": "uint256"
        }
      ],
      "stateMutability": "view",
      "type": "function"
    },
    {
      "inputs": [],
      "name": "DEFAULT_NON_UPGRADEABLE",
      "outputs": [
        {
          "internalType": "bool",
          "name": "",
          "type": "bool"
        }
      ],
      "stateMutability": "view",
      "type": "function"
    },
    {
      "inputs": [],
      "name": "DEFAULT_PATRICIAN_PERIOD",
      "outputs": [
        {
          "internalType": "uint256",
          "name": "",
          "type": "uint256"
        }
      ],
      "stateMutability": "view",
      "type": "function"
    },
    {
      "inputs": [],
      "name": "DEFAULT_REWARD_ADDRESS",
      "outputs": [
        {
          "internalType": "address",
          "name": "",
          "type": "address"
        }
      ],
      "stateMutability": "view",
      "type": "function"
    },
    {
      "inputs": [],
      "name": "DEFAULT_TOGA_MIN_BOND_DURATION",
      "outputs": [
        {
          "internalType": "uint256",
          "name": "",
          "type": "uint256"
        }
      ],
      "stateMutability": "view",
      "type": "function"
    },
    {
      "inputs": [
        {
          "internalType": "uint256",
          "name": "",
          "type": "uint256"
        }
      ],
      "name": "DEFAULT_TRUSTED_FORWARDERS",
      "outputs": [
        {
          "internalType": "address",
          "name": "",
          "type": "address"
        }
      ],
      "stateMutability": "view",
      "type": "function"
    },
    {
      "inputs": [],
      "name": "RESOLVER_BASE_SUPER_TOKEN_KEY",
      "outputs": [
        {
          "internalType": "string",
          "name": "",
          "type": "string"
        }
      ],
      "stateMutability": "view",
      "type": "function"
    },
    {
      "inputs": [],
      "name": "RESOLVER_BASE_TOKEN_KEY",
      "outputs": [
        {
          "internalType": "string",
          "name": "",
          "type": "string"
        }
      ],
      "stateMutability": "view",
      "type": "function"
    },
    {
      "inputs": [],
      "name": "getFramework",
      "outputs": [
        {
          "components": [
            {
              "internalType": "contract TestGovernance",
              "name": "governance",
              "type": "address"
            },
            {
              "internalType": "contract Superfluid",
              "name": "host",
              "type": "address"
            },
            {
              "internalType": "contract ConstantFlowAgreementV1",
              "name": "cfa",
              "type": "address"
            },
            {
              "components": [
                {
                  "internalType": "contract ISuperfluid",
                  "name": "host",
                  "type": "address"
                },
                {
                  "internalType": "contract IConstantFlowAgreementV1",
                  "name": "cfa",
                  "type": "address"
                }
              ],
              "internalType": "struct CFAv1Library.InitData",
              "name": "cfaLib",
              "type": "tuple"
            },
            {
              "internalType": "contract InstantDistributionAgreementV1",
              "name": "ida",
              "type": "address"
            },
            {
              "components": [
                {
                  "internalType": "contract ISuperfluid",
                  "name": "host",
                  "type": "address"
                },
                {
                  "internalType": "contract IInstantDistributionAgreementV1",
                  "name": "ida",
                  "type": "address"
                }
              ],
              "internalType": "struct IDAv1Library.InitData",
              "name": "idaLib",
              "type": "tuple"
            },
            {
              "internalType": "contract SuperTokenFactory",
              "name": "superTokenFactory",
              "type": "address"
            },
            {
              "internalType": "contract TestResolver",
              "name": "resolver",
              "type": "address"
            },
            {
              "internalType": "contract SuperfluidLoader",
              "name": "superfluidLoader",
              "type": "address"
            },
            {
              "internalType": "contract CFAv1Forwarder",
              "name": "cfaV1Forwarder",
              "type": "address"
            },
            {
              "internalType": "contract IDAv1Forwarder",
              "name": "idaV1Forwarder",
              "type": "address"
            },
            {
              "internalType": "contract TOGA",
              "name": "toga",
              "type": "address"
            }
          ],
          "internalType": "struct SuperfluidFrameworkDeploymentSteps.Framework",
          "name": "sf",
          "type": "tuple"
        }
      ],
      "stateMutability": "view",
      "type": "function"
    },
    {
      "inputs": [
        {
          "internalType": "address",
          "name": "newOwner",
          "type": "address"
        }
      ],
      "name": "transferOwnership",
      "outputs": [],
      "stateMutability": "nonpayable",
      "type": "function"
    }
  ],
  "bytecode": {
    "object": "0x6000608081905260a0604081905261001891908161002b565b5034801561002557600080fd5b506100a5565b828054828255906000526020600020908101928215610080579160200282015b8281111561008057825182546001600160a01b0319166001600160a01b0390911617825560209092019160019091019061004b565b5061008c929150610090565b5090565b5b8082111561008c5760008155600101610091565b610590806100b46000396000f3fe608060405234801561001057600080fd5b50600436106100a95760003560e01c806362a32e1e1161007157806362a32e1e14610153578063888a37b11461017e57806393786bf014610188578063b3083cf81461013b578063dfa98ad514610190578063f2fde38b146102d557600080fd5b806305bfa3e0146100ae5780631903410d146100ca5780633df285fe146100f55780634d59c13614610132578063520994701461013b575b600080fd5b6100b761070881565b6040519081526020015b60405180910390f35b6100dd6100d836600461037c565b6102ea565b6040516001600160a01b0390911681526020016100c1565b6101256040518060400160405280601181526020017039bab832b93a37b5b2b739973a32b9ba1760791b81525081565b6040516100c19190610395565b6100b761384081565b610143600081565b60405190151581526020016100c1565b6101256040518060400160405280600c81526020016b3a37b5b2b739973a32b9ba1760a11b81525081565b6100b762093a8081565b6100dd604581565b6102c8604080516101808101825260008082526020808301829052828401829052835180850185528281528082018390526060840152608083018290528351808501909452818452830181905260a082019290925260c0810182905260e081018290526101008101829052610120810182905261014081018290526101608101919091525060408051610180810182526001546001600160a01b03610100918290048116835260025481166020808501829052600354831685870181905286518088018852838152808301919091526060860152600554831660808601819052865180880190975291865285015260a0830193909352600c54831660c0830152600e54831660e0830152600f548316908201526010548216610120820152601154821661014082015260135490911661016082015290565b6040516100c191906103e3565b6102e86102e336600461052a565b610314565b005b600081815481106102fa57600080fd5b6000918252602090912001546001600160a01b0316905081565b60015460405163f2fde38b60e01b81526001600160a01b0383811660048301526101009092049091169063f2fde38b90602401600060405180830381600087803b15801561036157600080fd5b505af1158015610375573d6000803e3d6000fd5b5050505050565b60006020828403121561038e57600080fd5b5035919050565b600060208083528351808285015260005b818110156103c2578581018301518582016040015282016103a6565b506000604082860101526040601f19601f8301168501019250505092915050565b81516001600160a01b031681526101c08101602083015161040f60208401826001600160a01b03169052565b50604083015161042a60408401826001600160a01b03169052565b506060830151610453606084018280516001600160a01b03908116835260209182015116910152565b5060808301516001600160a01b03811660a08401525060a083015180516001600160a01b0390811660c085015260208201511660e08401525060c08301516101006104a8818501836001600160a01b03169052565b60e085015191506101206104c6818601846001600160a01b03169052565b908501519150610140906104e4858301846001600160a01b03169052565b8501519150610160610500858201846001600160a01b03169052565b908501516001600160a01b039081166101808601529401519093166101a090920191909152919050565b60006020828403121561053c57600080fd5b81356001600160a01b038116811461055357600080fd5b939250505056fea26469706673582212200fd3541b1e19ccfe5f0f5d0847fd92feb7a578964eae8581953ee4413dec940f64736f6c63430008130033",
    "linkReferences": {}
  },
  "methodIdentifiers": {
    "DEFAULT_APP_WHITELISTING_ENABLED()": "b3083cf8",
    "DEFAULT_LIQUIDATION_PERIOD()": "4d59c136",
    "DEFAULT_NON_UPGRADEABLE()": "52099470",
    "DEFAULT_PATRICIAN_PERIOD()": "05bfa3e0",
    "DEFAULT_REWARD_ADDRESS()": "93786bf0",
    "DEFAULT_TOGA_MIN_BOND_DURATION()": "888a37b1",
    "DEFAULT_TRUSTED_FORWARDERS(uint256)": "1903410d",
    "RESOLVER_BASE_SUPER_TOKEN_KEY()": "3df285fe",
    "RESOLVER_BASE_TOKEN_KEY()": "62a32e1e",
    "getFramework()": "dfa98ad5",
    "transferOwnership(address)": "f2fde38b"
  },
  "id": 106
}