{
  "abi": [
    {
      "inputs": [],
      "name": "DEFAULT_APP_WHITELISTING_ENABLED",
      "outputs": [
        {
          "internalType": "bool",
          "name": "",
          "type": "bool"
        }
      ],
      "stateMutability": "view",
      "type": "function"
    },
    {
      "inputs": [],
      "name": "DEFAULT_LIQUIDATION_PERIOD",
      "outputs": [
        {
          "internalType": "uint256",
          "name": "",
          "type": "uint256"
        }
      ],
      "stateMutability": "view",
      "type": "function"
    },
    {
      "inputs": [],
      "name": "DEFAULT_NON_UPGRADEABLE",
      "outputs": [
        {
          "internalType": "bool",
          "name": "",
          "type": "bool"
        }
      ],
      "stateMutability": "view",
      "type": "function"
    },
    {
      "inputs": [],
      "name": "DEFAULT_PATRICIAN_PERIOD",
      "outputs": [
        {
          "internalType": "uint256",
          "name": "",
          "type": "uint256"
        }
      ],
      "stateMutability": "view",
      "type": "function"
    },
    {
      "inputs": [],
      "name": "DEFAULT_REWARD_ADDRESS",
      "outputs": [
        {
          "internalType": "address",
          "name": "",
          "type": "address"
        }
      ],
      "stateMutability": "view",
      "type": "function"
    },
    {
      "inputs": [],
      "name": "DEFAULT_TOGA_MIN_BOND_DURATION",
      "outputs": [
        {
          "internalType": "uint256",
          "name": "",
          "type": "uint256"
        }
      ],
      "stateMutability": "view",
      "type": "function"
    },
    {
      "inputs": [
        {
          "internalType": "uint256",
          "name": "",
          "type": "uint256"
        }
      ],
      "name": "DEFAULT_TRUSTED_FORWARDERS",
      "outputs": [
        {
          "internalType": "address",
          "name": "",
          "type": "address"
        }
      ],
      "stateMutability": "view",
      "type": "function"
    },
    {
      "inputs": [],
      "name": "RESOLVER_BASE_SUPER_TOKEN_KEY",
      "outputs": [
        {
          "internalType": "string",
          "name": "",
          "type": "string"
        }
      ],
      "stateMutability": "view",
      "type": "function"
    },
    {
      "inputs": [],
      "name": "RESOLVER_BASE_TOKEN_KEY",
      "outputs": [
        {
          "internalType": "string",
          "name": "",
          "type": "string"
        }
      ],
      "stateMutability": "view",
      "type": "function"
    },
    {
      "inputs": [],
      "name": "getFramework",
      "outputs": [
        {
          "components": [
            {
              "internalType": "contract TestGovernance",
              "name": "governance",
              "type": "address"
            },
            {
              "internalType": "contract Superfluid",
              "name": "host",
              "type": "address"
            },
            {
              "internalType": "contract ConstantFlowAgreementV1",
              "name": "cfa",
              "type": "address"
            },
            {
              "components": [
                {
                  "internalType": "contract ISuperfluid",
                  "name": "host",
                  "type": "address"
                },
                {
                  "internalType": "contract IConstantFlowAgreementV1",
                  "name": "cfa",
                  "type": "address"
                }
              ],
              "internalType": "struct CFAv1Library.InitData",
              "name": "cfaLib",
              "type": "tuple"
            },
            {
              "internalType": "contract InstantDistributionAgreementV1",
              "name": "ida",
              "type": "address"
            },
            {
              "components": [
                {
                  "internalType": "contract ISuperfluid",
                  "name": "host",
                  "type": "address"
                },
                {
                  "internalType": "contract IInstantDistributionAgreementV1",
                  "name": "ida",
                  "type": "address"
                }
              ],
              "internalType": "struct IDAv1Library.InitData",
              "name": "idaLib",
              "type": "tuple"
            },
            {
              "internalType": "contract SuperTokenFactory",
              "name": "superTokenFactory",
              "type": "address"
            },
            {
              "internalType": "contract TestResolver",
              "name": "resolver",
              "type": "address"
            },
            {
              "internalType": "contract SuperfluidLoader",
              "name": "superfluidLoader",
              "type": "address"
            },
            {
              "internalType": "contract CFAv1Forwarder",
              "name": "cfaV1Forwarder",
              "type": "address"
            },
            {
              "internalType": "contract IDAv1Forwarder",
              "name": "idaV1Forwarder",
              "type": "address"
            },
            {
              "internalType": "contract TOGA",
              "name": "toga",
              "type": "address"
            }
          ],
          "internalType": "struct SuperfluidFrameworkDeploymentSteps.Framework",
          "name": "sf",
          "type": "tuple"
        }
      ],
      "stateMutability": "view",
      "type": "function"
    },
    {
      "inputs": [
        {
          "internalType": "address",
          "name": "newOwner",
          "type": "address"
        }
      ],
      "name": "transferOwnership",
      "outputs": [],
      "stateMutability": "nonpayable",
      "type": "function"
    }
  ],
  "bytecode": {
    "object": "0x6000608081905260a0604081905261001891908161002b565b5034801561002557600080fd5b506100a5565b828054828255906000526020600020908101928215610080579160200282015b8281111561008057825182546001600160a01b0319166001600160a01b0390911617825560209092019160019091019061004b565b5061008c929150610090565b5090565b5b8082111561008c5760008155600101610091565b610562806100b46000396000f3fe608060405234801561001057600080fd5b50600436106100995760003560e01c806305bfa3e01461009e5780631903410d146100ba5780633df285fe146100da5780634d59c13614610117578063520994701461012057806362a32e1e14610138578063888a37b11461016357806393786bf01461016d578063b3083cf814610120578063dfa98ad514610175578063f2fde38b146102ba575b600080fd5b6100a761070881565b6040519081526020015b60405180910390f35b6100cd6100c8366004610362565b6102cf565b6040516100b1919061037b565b61010a6040518060400160405280601181526020017039bab832b93a37b5b2b739973a32b9ba1760791b81525081565b6040516100b1919061038f565b6100a761384081565b610128600081565b60405190151581526020016100b1565b61010a6040518060400160405280600c81526020016b3a37b5b2b739973a32b9ba1760a11b81525081565b6100a762093a8081565b6100cd604581565b6102ad604080516101808101825260008082526020808301829052828401829052835180850185528281528082018390526060840152608083018290528351808501909452818452830181905260a082019290925260c0810182905260e081018290526101008101829052610120810182905261014081018290526101608101919091525060408051610180810182526001546001600160a01b03610100918290048116835260025481166020808501829052600354831685870181905286518088018852838152808301919091526060860152600554831660808601819052865180880190975291865285015260a0830193909352600c54831660c0830152600e54831660e0830152600f548316908201526010548216610120820152601154821661014082015260135490911661016082015290565b6040516100b19190610405565b6102cd6102c83660046104fc565b6102f9565b005b600081815481106102df57600080fd5b6000918252602090912001546001600160a01b0316905081565b60015460405163f2fde38b60e01b81526101009091046001600160a01b03169063f2fde38b9061032d90849060040161037b565b600060405180830381600087803b15801561034757600080fd5b505af115801561035b573d6000803e3d6000fd5b5050505050565b60006020828403121561037457600080fd5b5035919050565b6001600160a01b0391909116815260200190565b600060208083528351808285015260005b818110156103bc578581018301518582016040015282016103a0565b506000604082860101526040601f19601f8301168501019250505092915050565b6001600160a01b03169052565b80516001600160a01b03908116835260209182015116910152565b60006101c0820190506104198284516103dd565b602083015161042b60208401826103dd565b50604083015161043e60408401826103dd565b50606083015161045160608401826103ea565b50608083015161046460a08401826103dd565b5060a083015161047760c08401826103ea565b5060c083015161010061048c818501836103dd565b60e085015191506101206104a2818601846103dd565b908501519150610140906104b8858301846103dd565b85015191506101606104cc858201846103dd565b8186015192506104e06101808601846103dd565b85015191506104f590506101a08401826103dd565b5092915050565b60006020828403121561050e57600080fd5b81356001600160a01b038116811461052557600080fd5b939250505056fea2646970667358221220d3d4e87291b07e9d981f86ae4c130250e9a3c0b4e5de49ce3cb60c31c329a89f64736f6c63430008130033",
    "linkReferences": {}
  },
  "methodIdentifiers": {
    "DEFAULT_APP_WHITELISTING_ENABLED()": "b3083cf8",
    "DEFAULT_LIQUIDATION_PERIOD()": "4d59c136",
    "DEFAULT_NON_UPGRADEABLE()": "52099470",
    "DEFAULT_PATRICIAN_PERIOD()": "05bfa3e0",
    "DEFAULT_REWARD_ADDRESS()": "93786bf0",
    "DEFAULT_TOGA_MIN_BOND_DURATION()": "888a37b1",
    "DEFAULT_TRUSTED_FORWARDERS(uint256)": "1903410d",
    "RESOLVER_BASE_SUPER_TOKEN_KEY()": "3df285fe",
    "RESOLVER_BASE_TOKEN_KEY()": "62a32e1e",
    "getFramework()": "dfa98ad5",
    "transferOwnership(address)": "f2fde38b"
  },
  "id": 104
}