{
  "abi": [
    {
      "inputs": [
        {
          "internalType": "contract ISuperfluid",
          "name": "host",
          "type": "address"
        },
        {
          "internalType": "contract IConstantInflowNFT",
          "name": "constantInflowNFT",
          "type": "address"
        }
      ],
      "stateMutability": "nonpayable",
      "type": "constructor"
    },
    {
      "inputs": [],
      "name": "CFA_NFT_APPROVE_CALLER_NOT_OWNER_OR_APPROVED_FOR_ALL",
      "type": "error"
    },
    {
      "inputs": [],
      "name": "CFA_NFT_APPROVE_TO_CALLER",
      "type": "error"
    },
    {
      "inputs": [],
      "name": "CFA_NFT_APPROVE_TO_CURRENT_OWNER",
      "type": "error"
    },
    {
      "inputs": [],
      "name": "CFA_NFT_INVALID_TOKEN_ID",
      "type": "error"
    },
    {
      "inputs": [],
      "name": "CFA_NFT_ONLY_SUPER_TOKEN_FACTORY",
      "type": "error"
    },
    {
      "inputs": [],
      "name": "CFA_NFT_TRANSFER_CALLER_NOT_OWNER_OR_APPROVED_FOR_ALL",
      "type": "error"
    },
    {
      "inputs": [],
      "name": "CFA_NFT_TRANSFER_FROM_INCORRECT_OWNER",
      "type": "error"
    },
    {
      "inputs": [],
      "name": "CFA_NFT_TRANSFER_IS_NOT_ALLOWED",
      "type": "error"
    },
    {
      "inputs": [],
      "name": "CFA_NFT_TRANSFER_TO_ZERO_ADDRESS",
      "type": "error"
    },
    {
      "inputs": [],
      "name": "COF_NFT_INVALID_SUPER_TOKEN",
      "type": "error"
    },
    {
      "inputs": [],
      "name": "COF_NFT_MINT_TO_AND_FLOW_RECEIVER_SAME",
      "type": "error"
    },
    {
      "inputs": [],
      "name": "COF_NFT_MINT_TO_ZERO_ADDRESS",
      "type": "error"
    },
    {
      "inputs": [],
      "name": "COF_NFT_ONLY_CONSTANT_INFLOW",
      "type": "error"
    },
    {
      "inputs": [],
      "name": "COF_NFT_ONLY_FLOW_AGREEMENTS",
      "type": "error"
    },
    {
      "inputs": [],
      "name": "COF_NFT_TOKEN_ALREADY_EXISTS",
      "type": "error"
    },
    {
      "anonymous": false,
      "inputs": [
        {
          "indexed": true,
          "internalType": "address",
          "name": "owner",
          "type": "address"
        },
        {
          "indexed": true,
          "internalType": "address",
          "name": "approved",
          "type": "address"
        },
        {
          "indexed": true,
          "internalType": "uint256",
          "name": "tokenId",
          "type": "uint256"
        }
      ],
      "name": "Approval",
      "type": "event"
    },
    {
      "anonymous": false,
      "inputs": [
        {
          "indexed": true,
          "internalType": "address",
          "name": "owner",
          "type": "address"
        },
        {
          "indexed": true,
          "internalType": "address",
          "name": "operator",
          "type": "address"
        },
        {
          "indexed": false,
          "internalType": "bool",
          "name": "approved",
          "type": "bool"
        }
      ],
      "name": "ApprovalForAll",
      "type": "event"
    },
    {
      "anonymous": false,
      "inputs": [
        {
          "indexed": false,
          "internalType": "bytes32",
          "name": "uuid",
          "type": "bytes32"
        },
        {
          "indexed": false,
          "internalType": "address",
          "name": "codeAddress",
          "type": "address"
        }
      ],
      "name": "CodeUpdated",
      "type": "event"
    },
    {
      "anonymous": false,
      "inputs": [
        {
          "indexed": false,
          "internalType": "uint8",
          "name": "version",
          "type": "uint8"
        }
      ],
      "name": "Initialized",
      "type": "event"
    },
    {
      "anonymous": false,
      "inputs": [
        {
          "indexed": false,
          "internalType": "uint256",
          "name": "tokenId",
          "type": "uint256"
        }
      ],
      "name": "MetadataUpdate",
      "type": "event"
    },
    {
      "anonymous": false,
      "inputs": [
        {
          "indexed": true,
          "internalType": "address",
          "name": "from",
          "type": "address"
        },
        {
          "indexed": true,
          "internalType": "address",
          "name": "to",
          "type": "address"
        },
        {
          "indexed": true,
          "internalType": "uint256",
          "name": "tokenId",
          "type": "uint256"
        }
      ],
      "name": "Transfer",
      "type": "event"
    },
    {
      "inputs": [],
      "name": "CONSTANT_FLOW_AGREEMENT_V1",
      "outputs": [
        {
          "internalType": "contract IConstantFlowAgreementV1",
          "name": "",
          "type": "address"
        }
      ],
      "stateMutability": "view",
      "type": "function"
    },
    {
      "inputs": [],
      "name": "CONSTANT_INFLOW_NFT",
      "outputs": [
        {
          "internalType": "contract IConstantInflowNFT",
          "name": "",
          "type": "address"
        }
      ],
      "stateMutability": "view",
      "type": "function"
    },
    {
      "inputs": [],
      "name": "DEFAULT_BASE_URI",
      "outputs": [
        {
          "internalType": "string",
          "name": "",
          "type": "string"
        }
      ],
      "stateMutability": "view",
      "type": "function"
    },
    {
      "inputs": [],
      "name": "HOST",
      "outputs": [
        {
          "internalType": "contract ISuperfluid",
          "name": "",
          "type": "address"
        }
      ],
      "stateMutability": "view",
      "type": "function"
    },
    {
      "inputs": [
        {
          "internalType": "address",
          "name": "to",
          "type": "address"
        },
        {
          "internalType": "uint256",
          "name": "tokenId",
          "type": "uint256"
        }
      ],
      "name": "approve",
      "outputs": [],
      "stateMutability": "nonpayable",
      "type": "function"
    },
    {
      "inputs": [
        {
          "internalType": "address",
          "name": "",
          "type": "address"
        }
      ],
      "name": "balanceOf",
      "outputs": [
        {
          "internalType": "uint256",
          "name": "balance",
          "type": "uint256"
        }
      ],
      "stateMutability": "pure",
      "type": "function"
    },
    {
      "inputs": [],
      "name": "baseURI",
      "outputs": [
        {
          "internalType": "string",
          "name": "",
          "type": "string"
        }
      ],
      "stateMutability": "pure",
      "type": "function"
    },
    {
      "inputs": [],
      "name": "castrate",
      "outputs": [],
      "stateMutability": "nonpayable",
      "type": "function"
    },
    {
      "inputs": [
        {
          "internalType": "uint256",
          "name": "tokenId",
          "type": "uint256"
        }
      ],
      "name": "flowDataByTokenId",
      "outputs": [
        {
          "components": [
            {
              "internalType": "address",
              "name": "superToken",
              "type": "address"
            },
            {
              "internalType": "address",
              "name": "flowSender",
              "type": "address"
            },
            {
              "internalType": "address",
              "name": "flowReceiver",
              "type": "address"
            },
            {
              "internalType": "uint32",
              "name": "flowStartDate",
              "type": "uint32"
            }
          ],
          "internalType": "struct IFlowNFTBase.FlowNFTData",
          "name": "flowData",
          "type": "tuple"
        }
      ],
      "stateMutability": "view",
      "type": "function"
    },
    {
      "inputs": [
        {
          "internalType": "uint256",
          "name": "tokenId",
          "type": "uint256"
        }
      ],
      "name": "getApproved",
      "outputs": [
        {
          "internalType": "address",
          "name": "",
          "type": "address"
        }
      ],
      "stateMutability": "view",
      "type": "function"
    },
    {
      "inputs": [],
      "name": "getCodeAddress",
      "outputs": [
        {
          "internalType": "address",
          "name": "codeAddress",
          "type": "address"
        }
      ],
      "stateMutability": "view",
      "type": "function"
    },
    {
      "inputs": [
        {
          "internalType": "address",
          "name": "superToken",
          "type": "address"
        },
        {
          "internalType": "address",
          "name": "sender",
          "type": "address"
        },
        {
          "internalType": "address",
          "name": "receiver",
          "type": "address"
        }
      ],
      "name": "getTokenId",
      "outputs": [
        {
          "internalType": "uint256",
          "name": "tokenId",
          "type": "uint256"
        }
      ],
      "stateMutability": "view",
      "type": "function"
    },
    {
      "inputs": [
        {
          "internalType": "string",
          "name": "nftName",
          "type": "string"
        },
        {
          "internalType": "string",
          "name": "nftSymbol",
          "type": "string"
        }
      ],
      "name": "initialize",
      "outputs": [],
      "stateMutability": "nonpayable",
      "type": "function"
    },
    {
      "inputs": [
        {
          "internalType": "address",
          "name": "owner",
          "type": "address"
        },
        {
          "internalType": "address",
          "name": "operator",
          "type": "address"
        }
      ],
      "name": "isApprovedForAll",
      "outputs": [
        {
          "internalType": "bool",
          "name": "",
          "type": "bool"
        }
      ],
      "stateMutability": "view",
      "type": "function"
    },
    {
      "inputs": [],
      "name": "name",
      "outputs": [
        {
          "internalType": "string",
          "name": "",
          "type": "string"
        }
      ],
      "stateMutability": "view",
      "type": "function"
    },
    {
      "inputs": [
        {
          "internalType": "contract ISuperfluidToken",
          "name": "superToken",
          "type": "address"
        },
        {
          "internalType": "address",
          "name": "flowSender",
          "type": "address"
        },
        {
          "internalType": "address",
          "name": "flowReceiver",
          "type": "address"
        }
      ],
      "name": "onCreate",
      "outputs": [],
      "stateMutability": "nonpayable",
      "type": "function"
    },
    {
      "inputs": [
        {
          "internalType": "contract ISuperfluidToken",
          "name": "superToken",
          "type": "address"
        },
        {
          "internalType": "address",
          "name": "flowSender",
          "type": "address"
        },
        {
          "internalType": "address",
          "name": "flowReceiver",
          "type": "address"
        }
      ],
      "name": "onDelete",
      "outputs": [],
      "stateMutability": "nonpayable",
      "type": "function"
    },
    {
      "inputs": [
        {
          "internalType": "contract ISuperfluidToken",
          "name": "superToken",
          "type": "address"
        },
        {
          "internalType": "address",
          "name": "flowSender",
          "type": "address"
        },
        {
          "internalType": "address",
          "name": "flowReceiver",
          "type": "address"
        }
      ],
      "name": "onUpdate",
      "outputs": [],
      "stateMutability": "nonpayable",
      "type": "function"
    },
    {
      "inputs": [
        {
          "internalType": "uint256",
          "name": "tokenId",
          "type": "uint256"
        }
      ],
      "name": "ownerOf",
      "outputs": [
        {
          "internalType": "address",
          "name": "",
          "type": "address"
        }
      ],
      "stateMutability": "view",
      "type": "function"
    },
    {
      "inputs": [],
      "name": "proxiableUUID",
      "outputs": [
        {
          "internalType": "bytes32",
          "name": "",
          "type": "bytes32"
        }
      ],
      "stateMutability": "pure",
      "type": "function"
    },
    {
      "inputs": [
        {
          "internalType": "address",
          "name": "from",
          "type": "address"
        },
        {
          "internalType": "address",
          "name": "to",
          "type": "address"
        },
        {
          "internalType": "uint256",
          "name": "tokenId",
          "type": "uint256"
        }
      ],
      "name": "safeTransferFrom",
      "outputs": [],
      "stateMutability": "nonpayable",
      "type": "function"
    },
    {
      "inputs": [
        {
          "internalType": "address",
          "name": "from",
          "type": "address"
        },
        {
          "internalType": "address",
          "name": "to",
          "type": "address"
        },
        {
          "internalType": "uint256",
          "name": "tokenId",
          "type": "uint256"
        },
        {
          "internalType": "bytes",
          "name": "data",
          "type": "bytes"
        }
      ],
      "name": "safeTransferFrom",
      "outputs": [],
      "stateMutability": "nonpayable",
      "type": "function"
    },
    {
      "inputs": [
        {
          "internalType": "address",
          "name": "operator",
          "type": "address"
        },
        {
          "internalType": "bool",
          "name": "approved",
          "type": "bool"
        }
      ],
      "name": "setApprovalForAll",
      "outputs": [],
      "stateMutability": "nonpayable",
      "type": "function"
    },
    {
      "inputs": [
        {
          "internalType": "bytes4",
          "name": "interfaceId",
          "type": "bytes4"
        }
      ],
      "name": "supportsInterface",
      "outputs": [
        {
          "internalType": "bool",
          "name": "",
          "type": "bool"
        }
      ],
      "stateMutability": "pure",
      "type": "function"
    },
    {
      "inputs": [],
      "name": "symbol",
      "outputs": [
        {
          "internalType": "string",
          "name": "",
          "type": "string"
        }
      ],
      "stateMutability": "view",
      "type": "function"
    },
    {
      "inputs": [
        {
          "internalType": "uint256",
          "name": "tokenId",
          "type": "uint256"
        }
      ],
      "name": "tokenURI",
      "outputs": [
        {
          "internalType": "string",
          "name": "",
          "type": "string"
        }
      ],
      "stateMutability": "view",
      "type": "function"
    },
    {
      "inputs": [
        {
          "internalType": "address",
          "name": "from",
          "type": "address"
        },
        {
          "internalType": "address",
          "name": "to",
          "type": "address"
        },
        {
          "internalType": "uint256",
          "name": "tokenId",
          "type": "uint256"
        }
      ],
      "name": "transferFrom",
      "outputs": [],
      "stateMutability": "nonpayable",
      "type": "function"
    },
    {
      "inputs": [
        {
          "internalType": "uint256",
          "name": "tokenId",
          "type": "uint256"
        }
      ],
      "name": "triggerMetadataUpdate",
      "outputs": [],
      "stateMutability": "nonpayable",
      "type": "function"
    },
    {
      "inputs": [
        {
          "internalType": "address",
          "name": "newAddress",
          "type": "address"
        }
      ],
      "name": "updateCode",
      "outputs": [],
      "stateMutability": "nonpayable",
      "type": "function"
    }
  ],
  "bytecode": {
    "object": "0x60e06040523480156200001157600080fd5b506040516200246f3803806200246f8339810160408190526200003491620000fd565b6001600160a01b03821660a0819052604051635b69006f60e11b81527fa9214cc96615e0085d3bb077758db69497dc2dce3b2b1e97bc93c3d18d83efd3600482015283919063b6d200de90602401602060405180830381865afa158015620000a0573d6000803e3d6000fd5b505050506040513d601f19601f82011682018060405250810190620000c691906200013c565b6001600160a01b039081166080529190911660c05250620001639050565b6001600160a01b0381168114620000fa57600080fd5b50565b600080604083850312156200011157600080fd5b82516200011e81620000e4565b60208401519092506200013181620000e4565b809150509250929050565b6000602082840312156200014f57600080fd5b81516200015c81620000e4565b9392505050565b60805160a05160c0516122a4620001cb600039600081816102f001528181610b4901528181610c430152610d5a0152600081816102c9015261068901526000818161025601528181610abc01528181610bbf01528181610cbb015261125201526122a46000f3fe608060405234801561001057600080fd5b50600436106101cf5760003560e01c80636352211e11610104578063a22cb465116100a2578063e985e9c511610071578063e985e9c514610449578063eb54a7ca1461045c578063ef1f02371461046f578063f7e3d9831461048257600080fd5b8063a22cb46514610408578063a497325b1461041b578063b88d4fde14610423578063c87b56dd1461043657600080fd5b806389f71d2d116100de57806389f71d2d1461038c5780638d47859e1461039f57806395d89b41146103f85780639903ad381461040057600080fd5b80636352211e1461035d5780636c0360eb1461037057806370a082311461037857600080fd5b806342842e0e116101715780634c5c0c851161014b5780634c5c0c85146102eb5780634cd88b761461031257806350d75d251461032557806352d1902d1461032d57600080fd5b806342842e0e1461029e57806346951954146102b157806349f289dc146102c457600080fd5b8063095ea7b3116101ad578063095ea7b31461023c578063181561011461025157806323b872dd146102785780632f3885601461028b57600080fd5b806301ffc9a7146101d457806306fdde03146101fc578063081812fc14610211575b600080fd5b6101e76101e23660046119a4565b610495565b60405190151581526020015b60405180910390f35b6102046104e7565b6040516101f391906119f2565b61022461021f366004611a25565b610579565b6040516001600160a01b0390911681526020016101f3565b61024f61024a366004611a53565b6105a0565b005b6102247f000000000000000000000000000000000000000000000000000000000000000081565b61024f610286366004611a7f565b61062c565b61024f610299366004611a25565b61065e565b61024f6102ac366004611a7f565b61066a565b61024f6102bf366004611ac0565b610685565b6102247f000000000000000000000000000000000000000000000000000000000000000081565b6102247f000000000000000000000000000000000000000000000000000000000000000081565b61024f610320366004611baa565b610741565b610224610827565b7f87e44dce6a0d65a5ccf441783661f5727c2624b1f0088bbe957ce2c95406b7845b6040519081526020016101f3565b61022461036b366004611a25565b610856565b61020461088f565b61034f610386366004611ac0565b50600190565b61034f61039a366004611c0e565b6108af565b6103b26103ad366004611a25565b6108c4565b6040805182516001600160a01b03908116825260208085015182169083015283830151169181019190915260609182015163ffffffff16918101919091526080016101f3565b610204610945565b61024f610954565b61024f610416366004611c59565b610a16565b610204610a21565b61024f610431366004611c97565b610a3d565b610204610444366004611a25565b610a76565b6101e7610457366004611d17565b610a83565b61024f61046a366004611c0e565b610ab1565b61024f61047d366004611c0e565b610bb4565b61024f610490366004611c0e565b610cb0565b60006301ffc9a760e01b6001600160e01b0319831614806104c657506380ac58cd60e01b6001600160e01b03198316145b806104e15750635b5e139f60e01b6001600160e01b03198316145b92915050565b6060600180546104f690611d45565b80601f016020809104026020016040519081016040528092919081815260200182805461052290611d45565b801561056f5780601f106105445761010080835404028352916020019161056f565b820191906000526020600020905b81548152906001019060200180831161055257829003601f168201915b5050505050905090565b600061058482610d89565b506000908152600360205260409020546001600160a01b031690565b60006105ab82610856565b9050806001600160a01b0316836001600160a01b0316036105df5760405163e4790b2560e01b815260040160405180910390fd5b336001600160a01b038216148015906105ff57506105fd8133610a83565b155b1561061d5760405163519a92c160e11b815260040160405180910390fd5b6106278383610dc1565b505050565b6106363382610e2b565b610653576040516312a8eb0360e11b815260040160405180910390fd5b610627838383610e89565b61066781610ea2565b50565b61062783838360405180602001604052806000815250610a3d565b60007f00000000000000000000000000000000000000000000000000000000000000006001600160a01b031663731aed6e6040518163ffffffff1660e01b8152600401602060405180830381865afa1580156106e5573d6000803e3d6000fd5b505050506040513d601f19601f820116820180604052508101906107099190611d7f565b9050336001600160a01b038216146107345760405163ebb7505b60e01b815260040160405180910390fd5b61073d82610ed2565b5050565b600054610100900460ff16158080156107615750600054600160ff909116105b8061077b5750303b15801561077b575060005460ff166001145b6107a05760405162461bcd60e51b815260040161079790611d9c565b60405180910390fd5b6000805460ff1916600117905580156107c3576000805461ff0019166101001790555b60016107cf8482611e38565b5060026107dc8382611e38565b508015610627576000805461ff0019169055604051600181527f7f26b83ff96e1f2b6a682f133852f6798a09c465da95921460cefb38474024989060200160405180910390a1505050565b60006108517f360894a13ba1a3210667c828492db98dca3e2076cc3735a920a3ca505d382bbc5490565b905090565b6000818152601660205260408120600101546001600160a01b0316806104e15760405163eab95e3b60e01b815260040160405180910390fd5b60606040518060600160405280602d8152602001612242602d9139905090565b60006108bc84848461110c565b949350505050565b60408051608081018252600080825260208201819052918101829052606081019190915250600090815260166020908152604091829020825160808101845281546001600160a01b039081168252600183015481169382019390935260029091015491821692810192909252600160a01b900463ffffffff16606082015290565b6060600280546104f690611d45565b600054610100900460ff16158080156109745750600054600160ff909116105b8061098e5750303b15801561098e575060005460ff166001145b6109aa5760405162461bcd60e51b815260040161079790611d9c565b6000805460ff1916600117905580156109cd576000805461ff0019166101001790555b8015610667576000805461ff0019169055604051600181527f7f26b83ff96e1f2b6a682f133852f6798a09c465da95921460cefb3847402498906020015b60405180910390a150565b61073d338383611158565b6040518060600160405280602d8152602001612242602d913981565b610a473383610e2b565b610a64576040516312a8eb0360e11b815260040160405180910390fd5b610a70848484846111f7565b50505050565b60606104e1826000611202565b6001600160a01b03918216600090815260046020908152604080832093909416825291909152205460ff1690565b336001600160a01b037f00000000000000000000000000000000000000000000000000000000000000001614610afa5760405163d367b64f60e01b815260040160405180910390fd5b6000610b0784848461110c565b6000818152601660205260409020600101549091506001600160a01b031615610a7057610b3381610ea2565b604051630179c42b60e51b8152600481018290527f00000000000000000000000000000000000000000000000000000000000000006001600160a01b031690632f388560906024015b600060405180830381600087803b158015610b9657600080fd5b505af1158015610baa573d6000803e3d6000fd5b5050505050505050565b336001600160a01b037f00000000000000000000000000000000000000000000000000000000000000001614610bfd5760405163d367b64f60e01b815260040160405180910390fd5b6000610c0a84848461110c565b6000818152601660205260409020600101549091506001600160a01b031615610a7057604051630852cd8d60e31b8152600481018290527f00000000000000000000000000000000000000000000000000000000000000006001600160a01b0316906342966c6890602401600060405180830381600087803b158015610c8f57600080fd5b505af1158015610ca3573d6000803e3d6000fd5b50505050610a708161135d565b336001600160a01b037f00000000000000000000000000000000000000000000000000000000000000001614610cf95760405163d367b64f60e01b815260040160405180910390fd5b6000610d0684848461110c565b6000818152601660205260409020600101549091506001600160a01b0316610a7057610d34848484846113ec565b6040516340c10f1960e01b81526001600160a01b038381166004830152602482018390527f000000000000000000000000000000000000000000000000000000000000000016906340c10f1990604401610b7c565b6000818152601660205260409020600101546001600160a01b03166106675760405163eab95e3b60e01b815260040160405180910390fd5b600081815260036020908152604080832080546001600160a01b0319166001600160a01b038781169182179092556016909352818420600101549151859492909116917f8c5be1e5ebec7d5bd14f71427d1e84f3dd0314c0f7b2291e5b200ac8c7c3b92591a45050565b600080610e3783610856565b9050806001600160a01b0316846001600160a01b03161480610e5e5750610e5e8185610a83565b806108bc5750836001600160a01b0316610e7784610579565b6001600160a01b031614949350505050565b60405163553a3f6560e11b815260040160405180910390fd5b6040518181527ff8e1a15aba9398e019f0b49df1a4fde98ee17ae345cb5f6b5e2c27f5033e8ce790602001610a0b565b6000610efc7f360894a13ba1a3210667c828492db98dca3e2076cc3735a920a3ca505d382bbc5490565b6001600160a01b031603610f525760405162461bcd60e51b815260206004820152601d60248201527f5555505350726f786961626c653a206e6f742075706772616461626c650000006044820152606401610797565b806001600160a01b03166352d1902d6040518163ffffffff1660e01b8152600401602060405180830381865afa158015610f90573d6000803e3d6000fd5b505050506040513d601f19601f82011682018060405250810190610fb49190611ef8565b7f87e44dce6a0d65a5ccf441783661f5727c2624b1f0088bbe957ce2c95406b7841461102e5760405162461bcd60e51b815260206004820152602360248201527f5555505350726f786961626c653a206e6f7420636f6d70617469626c65206c6f60448201526267696360e81b6064820152608401610797565b6001600160a01b03811630036110865760405162461bcd60e51b815260206004820152601960248201527f5555505350726f786961626c653a2070726f7879206c6f6f70000000000000006044820152606401610797565b6110ae817f360894a13ba1a3210667c828492db98dca3e2076cc3735a920a3ca505d382bbc55565b7fe011bc04c286c344a8fcbb8de77f953da762c3e25d8cdea984147fc4168a5dcc7f87e44dce6a0d65a5ccf441783661f5727c2624b1f0088bbe957ce2c95406b784604080519182526001600160a01b038416602083015201610a0b565b60408051466020808301919091526001600160a01b03958616828401529385166060820152919093166080808301919091528351808303909101815260a0909101909252815191012090565b816001600160a01b0316836001600160a01b03160361118a5760405163d3c7732960e01b815260040160405180910390fd5b6001600160a01b03838116600081815260046020908152604080832094871680845294825291829020805460ff191686151590811790915591519182527f17307eab39ab6107e8899845ad3d59bd9653f200f220920489ca2b5937696c31910160405180910390a3505050565b610a70848484610e89565b6060600061120f846108c4565b805160208201516040808401519051631cd43d1160e31b81526001600160a01b0380851660048301529283166024820152908216604482015292935090916000917f0000000000000000000000000000000000000000000000000000000000000000169063e6a1e88890606401608060405180830381865afa158015611299573d6000803e3d6000fd5b505050506040513d601f19601f820116820180604052508101906112bd9190611f11565b50509150506112ca61088f565b6112e1826bffffffffffffffffffffffff1661151b565b8661130857604051806040016040528060048152602001637472756560e01b815250611327565b6040518060400160405280600581526020016466616c736560d81b8152505b611330896115ae565b6040516020016113439493929190611f71565b604051602081830303815290604052935050505092915050565b60008181526016602081815260408084206001810180546003855283872080546001600160a01b0319908116909155959094528154851682558054909416909355600290920180546001600160c01b031916905590516001600160a01b0390911691839183907fddf252ad1be2c89b69c2b068fc378daa952ba7f163c4a11628f55a4df523b3ef908390a45050565b6001600160a01b03831661140257611402611ff9565b816001600160a01b0316836001600160a01b03160361142357611423611ff9565b6000818152601660205260409020600101546001600160a01b03161561144b5761144b611ff9565b604080516080810182526001600160a01b038087168252858116602080840182815287841685870190815263ffffffff4281166060880190815260008a81526016909552888520975188549088166001600160a01b0319918216178955935160018901805491891691909516179093559051600290960180549251909116600160a01b026001600160c01b03199092169590941694909417939093179091559151839291907fddf252ad1be2c89b69c2b068fc378daa952ba7f163c4a11628f55a4df523b3ef908290a450505050565b6060600061152883611729565b600101905060008167ffffffffffffffff81111561154857611548611add565b6040519080825280601f01601f191660200182016040528015611572576020820181803683370190505b5090508181016020015b600019016f181899199a1a9b1b9c1cb0b131b232b360811b600a86061a8153600a850494508461157c57509392505050565b606060006115bb836108c4565b90506115d581600001516001600160a01b03166014611801565b6115de4661151b565b82600001516001600160a01b03166395d89b416040518163ffffffff1660e01b8152600401600060405180830381865afa158015611620573d6000803e3d6000fd5b505050506040513d6000823e601f3d908101601f19168201604052611648919081019061200f565b61166084602001516001600160a01b03166014611801565b61167885604001516001600160a01b03166014611801565b6116e986600001516001600160a01b031663313ce5676040518163ffffffff1660e01b8152600401602060405180830381865afa1580156116bd573d6000803e3d6000fd5b505050506040513d601f19601f820116820180604052508101906116e19190612086565b60ff1661151b565b6116fc876060015163ffffffff1661151b565b60405160200161171297969594939291906120a9565b604051602081830303815290604052915050919050565b60008072184f03e93ff9f4daa797ed6e38ed64bf6a1f0160401b83106117685772184f03e93ff9f4daa797ed6e38ed64bf6a1f0160401b830492506040015b6d04ee2d6d415b85acef81000000008310611794576d04ee2d6d415b85acef8100000000830492506020015b662386f26fc1000083106117b257662386f26fc10000830492506010015b6305f5e10083106117ca576305f5e100830492506008015b61271083106117de57612710830492506004015b606483106117f0576064830492506002015b600a83106104e15760010192915050565b606060006118108360026121ea565b61181b906002612201565b67ffffffffffffffff81111561183357611833611add565b6040519080825280601f01601f19166020018201604052801561185d576020820181803683370190505b509050600360fc1b8160008151811061187857611878612214565b60200101906001600160f81b031916908160001a905350600f60fb1b816001815181106118a7576118a7612214565b60200101906001600160f81b031916908160001a90535060006118cb8460026121ea565b6118d6906001612201565b90505b600181111561194e576f181899199a1a9b1b9c1cb0b131b232b360811b85600f166010811061190a5761190a612214565b1a60f81b82828151811061192057611920612214565b60200101906001600160f81b031916908160001a90535060049490941c936119478161222a565b90506118d9565b50831561199d5760405162461bcd60e51b815260206004820181905260248201527f537472696e67733a20686578206c656e67746820696e73756666696369656e746044820152606401610797565b9392505050565b6000602082840312156119b657600080fd5b81356001600160e01b03198116811461199d57600080fd5b60005b838110156119e95781810151838201526020016119d1565b50506000910152565b6020815260008251806020840152611a118160408501602087016119ce565b601f01601f19169190910160400192915050565b600060208284031215611a3757600080fd5b5035919050565b6001600160a01b038116811461066757600080fd5b60008060408385031215611a6657600080fd5b8235611a7181611a3e565b946020939093013593505050565b600080600060608486031215611a9457600080fd5b8335611a9f81611a3e565b92506020840135611aaf81611a3e565b929592945050506040919091013590565b600060208284031215611ad257600080fd5b813561199d81611a3e565b634e487b7160e01b600052604160045260246000fd5b604051601f8201601f1916810167ffffffffffffffff81118282101715611b1c57611b1c611add565b604052919050565b600067ffffffffffffffff821115611b3e57611b3e611add565b50601f01601f191660200190565b6000611b5f611b5a84611b24565b611af3565b9050828152838383011115611b7357600080fd5b828260208301376000602084830101529392505050565b600082601f830112611b9b57600080fd5b61199d83833560208501611b4c565b60008060408385031215611bbd57600080fd5b823567ffffffffffffffff80821115611bd557600080fd5b611be186838701611b8a565b93506020850135915080821115611bf757600080fd5b50611c0485828601611b8a565b9150509250929050565b600080600060608486031215611c2357600080fd5b8335611c2e81611a3e565b92506020840135611c3e81611a3e565b91506040840135611c4e81611a3e565b809150509250925092565b60008060408385031215611c6c57600080fd5b8235611c7781611a3e565b915060208301358015158114611c8c57600080fd5b809150509250929050565b60008060008060808587031215611cad57600080fd5b8435611cb881611a3e565b93506020850135611cc881611a3e565b925060408501359150606085013567ffffffffffffffff811115611ceb57600080fd5b8501601f81018713611cfc57600080fd5b611d0b87823560208401611b4c565b91505092959194509250565b60008060408385031215611d2a57600080fd5b8235611d3581611a3e565b91506020830135611c8c81611a3e565b600181811c90821680611d5957607f821691505b602082108103611d7957634e487b7160e01b600052602260045260246000fd5b50919050565b600060208284031215611d9157600080fd5b815161199d81611a3e565b6020808252602e908201527f496e697469616c697a61626c653a20636f6e747261637420697320616c72656160408201526d191e481a5b9a5d1a585b1a5e995960921b606082015260800190565b601f82111561062757600081815260208120601f850160051c81016020861015611e115750805b601f850160051c820191505b81811015611e3057828155600101611e1d565b505050505050565b815167ffffffffffffffff811115611e5257611e52611add565b611e6681611e608454611d45565b84611dea565b602080601f831160018114611e9b5760008415611e835750858301515b600019600386901b1c1916600185901b178555611e30565b600085815260208120601f198616915b82811015611eca57888601518255948401946001909101908401611eab565b5085821015611ee85787850151600019600388901b60f8161c191681555b5050505050600190811b01905550565b600060208284031215611f0a57600080fd5b5051919050565b60008060008060808587031215611f2757600080fd5b84519350602085015180600b0b8114611f3f57600080fd5b6040860151606090960151949790965092505050565b60008151611f678185602086016119ce565b9290920192915050565b60008551611f83818460208a016119ce565b693f666c6f77526174653d60b01b9083019081528551611faa81600a840160208a016119ce565b69266f7574676f696e673d60b01b600a92909101918201528451611fd58160148401602089016119ce565b8451910190611feb8160148401602088016119ce565b016014019695505050505050565b634e487b7160e01b600052600160045260246000fd5b60006020828403121561202157600080fd5b815167ffffffffffffffff81111561203857600080fd5b8201601f8101841361204957600080fd5b8051612057611b5a82611b24565b81815285602083850101111561206c57600080fd5b61207d8260208301602086016119ce565b95945050505050565b60006020828403121561209857600080fd5b815160ff8116811461199d57600080fd5b6e26746f6b656e5f616464726573733d60881b8152600088516120d381600f850160208d016119ce565b6926636861696e5f69643d60b01b600f9184019182015288516120fd816019840160208d016119ce565b6d26746f6b656e5f73796d626f6c3d60901b60199290910191820152875161212c816027840160208c016119ce565b672673656e6465723d60c01b60279290910191820152865161215581602f840160208b016119ce565b692672656365697665723d60b01b602f92909101918201526121c66121c06121a86121a2612186603986018b611f55565b6f26746f6b656e5f646563696d616c733d60801b815260100190565b88611f55565b6b2673746172745f646174653d60a01b8152600c0190565b85611f55565b9a9950505050505050505050565b634e487b7160e01b600052601160045260246000fd5b80820281158282048414176104e1576104e16121d4565b808201808211156104e1576104e16121d4565b634e487b7160e01b600052603260045260246000fd5b600081612239576122396121d4565b50600019019056fe68747470733a2f2f6e66742e7375706572666c7569642e66696e616e63652f6366612f76322f6765746d657461a26469706673582212205be9af8ff58edb1e7f588603a281111094984f58bd9aecae5d6537727d063ab264736f6c63430008130033",
    "linkReferences": {}
  },
  "methodIdentifiers": {
    "CONSTANT_FLOW_AGREEMENT_V1()": "18156101",
    "CONSTANT_INFLOW_NFT()": "4c5c0c85",
    "DEFAULT_BASE_URI()": "a497325b",
    "HOST()": "49f289dc",
    "approve(address,uint256)": "095ea7b3",
    "balanceOf(address)": "70a08231",
    "baseURI()": "6c0360eb",
    "castrate()": "9903ad38",
    "flowDataByTokenId(uint256)": "8d47859e",
    "getApproved(uint256)": "081812fc",
    "getCodeAddress()": "50d75d25",
    "getTokenId(address,address,address)": "89f71d2d",
    "initialize(string,string)": "4cd88b76",
    "isApprovedForAll(address,address)": "e985e9c5",
    "name()": "06fdde03",
    "onCreate(address,address,address)": "f7e3d983",
    "onDelete(address,address,address)": "ef1f0237",
    "onUpdate(address,address,address)": "eb54a7ca",
    "ownerOf(uint256)": "6352211e",
    "proxiableUUID()": "52d1902d",
    "safeTransferFrom(address,address,uint256)": "42842e0e",
    "safeTransferFrom(address,address,uint256,bytes)": "b88d4fde",
    "setApprovalForAll(address,bool)": "a22cb465",
    "supportsInterface(bytes4)": "01ffc9a7",
    "symbol()": "95d89b41",
    "tokenURI(uint256)": "c87b56dd",
    "transferFrom(address,address,uint256)": "23b872dd",
    "triggerMetadataUpdate(uint256)": "2f388560",
    "updateCode(address)": "46951954"
  },
  "id": 89
}