{
  "abi": [
    {
      "inputs": [
        {
          "internalType": "contract ISuperfluid",
          "name": "host",
          "type": "address"
        },
        {
          "internalType": "contract IConstantInflowNFT",
          "name": "constantInflowNFT",
          "type": "address"
        }
      ],
      "stateMutability": "nonpayable",
      "type": "constructor"
    },
    {
      "inputs": [],
      "name": "CFA_NFT_APPROVE_CALLER_NOT_OWNER_OR_APPROVED_FOR_ALL",
      "type": "error"
    },
    {
      "inputs": [],
      "name": "CFA_NFT_APPROVE_TO_CALLER",
      "type": "error"
    },
    {
      "inputs": [],
      "name": "CFA_NFT_APPROVE_TO_CURRENT_OWNER",
      "type": "error"
    },
    {
      "inputs": [],
      "name": "CFA_NFT_INVALID_TOKEN_ID",
      "type": "error"
    },
    {
      "inputs": [],
      "name": "CFA_NFT_ONLY_SUPER_TOKEN_FACTORY",
      "type": "error"
    },
    {
      "inputs": [],
      "name": "CFA_NFT_TRANSFER_CALLER_NOT_OWNER_OR_APPROVED_FOR_ALL",
      "type": "error"
    },
    {
      "inputs": [],
      "name": "CFA_NFT_TRANSFER_FROM_INCORRECT_OWNER",
      "type": "error"
    },
    {
      "inputs": [],
      "name": "CFA_NFT_TRANSFER_IS_NOT_ALLOWED",
      "type": "error"
    },
    {
      "inputs": [],
      "name": "CFA_NFT_TRANSFER_TO_ZERO_ADDRESS",
      "type": "error"
    },
    {
      "inputs": [],
      "name": "COF_NFT_INVALID_SUPER_TOKEN",
      "type": "error"
    },
    {
      "inputs": [],
      "name": "COF_NFT_MINT_TO_AND_FLOW_RECEIVER_SAME",
      "type": "error"
    },
    {
      "inputs": [],
      "name": "COF_NFT_MINT_TO_ZERO_ADDRESS",
      "type": "error"
    },
    {
      "inputs": [],
      "name": "COF_NFT_ONLY_CONSTANT_INFLOW",
      "type": "error"
    },
    {
      "inputs": [],
      "name": "COF_NFT_ONLY_FLOW_AGREEMENTS",
      "type": "error"
    },
    {
      "inputs": [],
      "name": "COF_NFT_TOKEN_ALREADY_EXISTS",
      "type": "error"
    },
    {
      "anonymous": false,
      "inputs": [
        {
          "indexed": true,
          "internalType": "address",
          "name": "owner",
          "type": "address"
        },
        {
          "indexed": true,
          "internalType": "address",
          "name": "approved",
          "type": "address"
        },
        {
          "indexed": true,
          "internalType": "uint256",
          "name": "tokenId",
          "type": "uint256"
        }
      ],
      "name": "Approval",
      "type": "event"
    },
    {
      "anonymous": false,
      "inputs": [
        {
          "indexed": true,
          "internalType": "address",
          "name": "owner",
          "type": "address"
        },
        {
          "indexed": true,
          "internalType": "address",
          "name": "operator",
          "type": "address"
        },
        {
          "indexed": false,
          "internalType": "bool",
          "name": "approved",
          "type": "bool"
        }
      ],
      "name": "ApprovalForAll",
      "type": "event"
    },
    {
      "anonymous": false,
      "inputs": [
        {
          "indexed": false,
          "internalType": "bytes32",
          "name": "uuid",
          "type": "bytes32"
        },
        {
          "indexed": false,
          "internalType": "address",
          "name": "codeAddress",
          "type": "address"
        }
      ],
      "name": "CodeUpdated",
      "type": "event"
    },
    {
      "anonymous": false,
      "inputs": [
        {
          "indexed": false,
          "internalType": "uint8",
          "name": "version",
          "type": "uint8"
        }
      ],
      "name": "Initialized",
      "type": "event"
    },
    {
      "anonymous": false,
      "inputs": [
        {
          "indexed": false,
          "internalType": "uint256",
          "name": "tokenId",
          "type": "uint256"
        }
      ],
      "name": "MetadataUpdate",
      "type": "event"
    },
    {
      "anonymous": false,
      "inputs": [
        {
          "indexed": true,
          "internalType": "address",
          "name": "from",
          "type": "address"
        },
        {
          "indexed": true,
          "internalType": "address",
          "name": "to",
          "type": "address"
        },
        {
          "indexed": true,
          "internalType": "uint256",
          "name": "tokenId",
          "type": "uint256"
        }
      ],
      "name": "Transfer",
      "type": "event"
    },
    {
      "inputs": [],
      "name": "CONSTANT_FLOW_AGREEMENT_V1",
      "outputs": [
        {
          "internalType": "contract IConstantFlowAgreementV1",
          "name": "",
          "type": "address"
        }
      ],
      "stateMutability": "view",
      "type": "function"
    },
    {
      "inputs": [],
      "name": "CONSTANT_INFLOW_NFT",
      "outputs": [
        {
          "internalType": "contract IConstantInflowNFT",
          "name": "",
          "type": "address"
        }
      ],
      "stateMutability": "view",
      "type": "function"
    },
    {
      "inputs": [],
      "name": "DEFAULT_BASE_URI",
      "outputs": [
        {
          "internalType": "string",
          "name": "",
          "type": "string"
        }
      ],
      "stateMutability": "view",
      "type": "function"
    },
    {
      "inputs": [],
      "name": "HOST",
      "outputs": [
        {
          "internalType": "contract ISuperfluid",
          "name": "",
          "type": "address"
        }
      ],
      "stateMutability": "view",
      "type": "function"
    },
    {
      "inputs": [
        {
          "internalType": "address",
          "name": "to",
          "type": "address"
        },
        {
          "internalType": "uint256",
          "name": "tokenId",
          "type": "uint256"
        }
      ],
      "name": "approve",
      "outputs": [],
      "stateMutability": "nonpayable",
      "type": "function"
    },
    {
      "inputs": [
        {
          "internalType": "address",
          "name": "",
          "type": "address"
        }
      ],
      "name": "balanceOf",
      "outputs": [
        {
          "internalType": "uint256",
          "name": "balance",
          "type": "uint256"
        }
      ],
      "stateMutability": "pure",
      "type": "function"
    },
    {
      "inputs": [],
      "name": "baseURI",
      "outputs": [
        {
          "internalType": "string",
          "name": "",
          "type": "string"
        }
      ],
      "stateMutability": "pure",
      "type": "function"
    },
    {
      "inputs": [],
      "name": "castrate",
      "outputs": [],
      "stateMutability": "nonpayable",
      "type": "function"
    },
    {
      "inputs": [
        {
          "internalType": "uint256",
          "name": "tokenId",
          "type": "uint256"
        }
      ],
      "name": "flowDataByTokenId",
      "outputs": [
        {
          "components": [
            {
              "internalType": "address",
              "name": "superToken",
              "type": "address"
            },
            {
              "internalType": "address",
              "name": "flowSender",
              "type": "address"
            },
            {
              "internalType": "address",
              "name": "flowReceiver",
              "type": "address"
            },
            {
              "internalType": "uint32",
              "name": "flowStartDate",
              "type": "uint32"
            }
          ],
          "internalType": "struct IFlowNFTBase.FlowNFTData",
          "name": "flowData",
          "type": "tuple"
        }
      ],
      "stateMutability": "view",
      "type": "function"
    },
    {
      "inputs": [
        {
          "internalType": "uint256",
          "name": "tokenId",
          "type": "uint256"
        }
      ],
      "name": "getApproved",
      "outputs": [
        {
          "internalType": "address",
          "name": "",
          "type": "address"
        }
      ],
      "stateMutability": "view",
      "type": "function"
    },
    {
      "inputs": [],
      "name": "getCodeAddress",
      "outputs": [
        {
          "internalType": "address",
          "name": "codeAddress",
          "type": "address"
        }
      ],
      "stateMutability": "view",
      "type": "function"
    },
    {
      "inputs": [
        {
          "internalType": "address",
          "name": "superToken",
          "type": "address"
        },
        {
          "internalType": "address",
          "name": "sender",
          "type": "address"
        },
        {
          "internalType": "address",
          "name": "receiver",
          "type": "address"
        }
      ],
      "name": "getTokenId",
      "outputs": [
        {
          "internalType": "uint256",
          "name": "tokenId",
          "type": "uint256"
        }
      ],
      "stateMutability": "view",
      "type": "function"
    },
    {
      "inputs": [
        {
          "internalType": "string",
          "name": "nftName",
          "type": "string"
        },
        {
          "internalType": "string",
          "name": "nftSymbol",
          "type": "string"
        }
      ],
      "name": "initialize",
      "outputs": [],
      "stateMutability": "nonpayable",
      "type": "function"
    },
    {
      "inputs": [
        {
          "internalType": "address",
          "name": "owner",
          "type": "address"
        },
        {
          "internalType": "address",
          "name": "operator",
          "type": "address"
        }
      ],
      "name": "isApprovedForAll",
      "outputs": [
        {
          "internalType": "bool",
          "name": "",
          "type": "bool"
        }
      ],
      "stateMutability": "view",
      "type": "function"
    },
    {
      "inputs": [],
      "name": "name",
      "outputs": [
        {
          "internalType": "string",
          "name": "",
          "type": "string"
        }
      ],
      "stateMutability": "view",
      "type": "function"
    },
    {
      "inputs": [
        {
          "internalType": "contract ISuperfluidToken",
          "name": "superToken",
          "type": "address"
        },
        {
          "internalType": "address",
          "name": "flowSender",
          "type": "address"
        },
        {
          "internalType": "address",
          "name": "flowReceiver",
          "type": "address"
        }
      ],
      "name": "onCreate",
      "outputs": [],
      "stateMutability": "nonpayable",
      "type": "function"
    },
    {
      "inputs": [
        {
          "internalType": "contract ISuperfluidToken",
          "name": "superToken",
          "type": "address"
        },
        {
          "internalType": "address",
          "name": "flowSender",
          "type": "address"
        },
        {
          "internalType": "address",
          "name": "flowReceiver",
          "type": "address"
        }
      ],
      "name": "onDelete",
      "outputs": [],
      "stateMutability": "nonpayable",
      "type": "function"
    },
    {
      "inputs": [
        {
          "internalType": "contract ISuperfluidToken",
          "name": "superToken",
          "type": "address"
        },
        {
          "internalType": "address",
          "name": "flowSender",
          "type": "address"
        },
        {
          "internalType": "address",
          "name": "flowReceiver",
          "type": "address"
        }
      ],
      "name": "onUpdate",
      "outputs": [],
      "stateMutability": "nonpayable",
      "type": "function"
    },
    {
      "inputs": [
        {
          "internalType": "uint256",
          "name": "tokenId",
          "type": "uint256"
        }
      ],
      "name": "ownerOf",
      "outputs": [
        {
          "internalType": "address",
          "name": "",
          "type": "address"
        }
      ],
      "stateMutability": "view",
      "type": "function"
    },
    {
      "inputs": [],
      "name": "proxiableUUID",
      "outputs": [
        {
          "internalType": "bytes32",
          "name": "",
          "type": "bytes32"
        }
      ],
      "stateMutability": "pure",
      "type": "function"
    },
    {
      "inputs": [
        {
          "internalType": "address",
          "name": "from",
          "type": "address"
        },
        {
          "internalType": "address",
          "name": "to",
          "type": "address"
        },
        {
          "internalType": "uint256",
          "name": "tokenId",
          "type": "uint256"
        }
      ],
      "name": "safeTransferFrom",
      "outputs": [],
      "stateMutability": "nonpayable",
      "type": "function"
    },
    {
      "inputs": [
        {
          "internalType": "address",
          "name": "from",
          "type": "address"
        },
        {
          "internalType": "address",
          "name": "to",
          "type": "address"
        },
        {
          "internalType": "uint256",
          "name": "tokenId",
          "type": "uint256"
        },
        {
          "internalType": "bytes",
          "name": "data",
          "type": "bytes"
        }
      ],
      "name": "safeTransferFrom",
      "outputs": [],
      "stateMutability": "nonpayable",
      "type": "function"
    },
    {
      "inputs": [
        {
          "internalType": "address",
          "name": "operator",
          "type": "address"
        },
        {
          "internalType": "bool",
          "name": "approved",
          "type": "bool"
        }
      ],
      "name": "setApprovalForAll",
      "outputs": [],
      "stateMutability": "nonpayable",
      "type": "function"
    },
    {
      "inputs": [
        {
          "internalType": "bytes4",
          "name": "interfaceId",
          "type": "bytes4"
        }
      ],
      "name": "supportsInterface",
      "outputs": [
        {
          "internalType": "bool",
          "name": "",
          "type": "bool"
        }
      ],
      "stateMutability": "pure",
      "type": "function"
    },
    {
      "inputs": [],
      "name": "symbol",
      "outputs": [
        {
          "internalType": "string",
          "name": "",
          "type": "string"
        }
      ],
      "stateMutability": "view",
      "type": "function"
    },
    {
      "inputs": [
        {
          "internalType": "uint256",
          "name": "tokenId",
          "type": "uint256"
        }
      ],
      "name": "tokenURI",
      "outputs": [
        {
          "internalType": "string",
          "name": "",
          "type": "string"
        }
      ],
      "stateMutability": "view",
      "type": "function"
    },
    {
      "inputs": [
        {
          "internalType": "address",
          "name": "from",
          "type": "address"
        },
        {
          "internalType": "address",
          "name": "to",
          "type": "address"
        },
        {
          "internalType": "uint256",
          "name": "tokenId",
          "type": "uint256"
        }
      ],
      "name": "transferFrom",
      "outputs": [],
      "stateMutability": "nonpayable",
      "type": "function"
    },
    {
      "inputs": [
        {
          "internalType": "uint256",
          "name": "tokenId",
          "type": "uint256"
        }
      ],
      "name": "triggerMetadataUpdate",
      "outputs": [],
      "stateMutability": "nonpayable",
      "type": "function"
    },
    {
      "inputs": [
        {
          "internalType": "address",
          "name": "newAddress",
          "type": "address"
        }
      ],
      "name": "updateCode",
      "outputs": [],
      "stateMutability": "nonpayable",
      "type": "function"
    }
  ],
  "bytecode": {
    "object": "0x60e06040523480156200001157600080fd5b50604051620023de380380620023de8339810160408190526200003491620000fd565b6001600160a01b03821660a0819052604051635b69006f60e11b81527fa9214cc96615e0085d3bb077758db69497dc2dce3b2b1e97bc93c3d18d83efd3600482015283919063b6d200de90602401602060405180830381865afa158015620000a0573d6000803e3d6000fd5b505050506040513d601f19601f82011682018060405250810190620000c691906200013c565b6001600160a01b039081166080529190911660c05250620001639050565b6001600160a01b0381168114620000fa57600080fd5b50565b600080604083850312156200011157600080fd5b82516200011e81620000e4565b60208401519092506200013181620000e4565b809150509250929050565b6000602082840312156200014f57600080fd5b81516200015c81620000e4565b9392505050565b60805160a05160c051612213620001cb6000396000818161028001528181610aa901528181610ba30152610cba01526000818161025901526105ff0152600081816101e601528181610a1c01528181610b1f01528181610c1b015261117c01526122136000f3fe608060405234801561001057600080fd5b506004361061015f5760003560e01c806301ffc9a71461016457806306fdde031461018c578063081812fc146101a1578063095ea7b3146101cc57806318156101146101e157806323b872dd146102085780632f3885601461021b57806342842e0e1461022e578063469519541461024157806349f289dc146102545780634c5c0c851461027b5780634cd88b76146102a257806350d75d25146102b557806352d1902d146102bd5780636352211e146102d35780636c0360eb146102e657806370a08231146102ee57806389f71d2d146103025780638d47859e1461031557806395d89b411461036e5780639903ad3814610376578063a22cb4651461037e578063a497325b14610391578063b88d4fde14610399578063c87b56dd146103ac578063e985e9c5146103bf578063eb54a7ca146103d2578063ef1f0237146103e5578063f7e3d983146103f8575b600080fd5b6101776101723660046118b9565b61040b565b60405190151581526020015b60405180910390f35b61019461045d565b6040516101839190611907565b6101b46101af36600461193a565b6104ef565b6040516001600160a01b039091168152602001610183565b6101df6101da366004611968565b610516565b005b6101b47f000000000000000000000000000000000000000000000000000000000000000081565b6101df610216366004611994565b6105a2565b6101df61022936600461193a565b6105d4565b6101df61023c366004611994565b6105e0565b6101df61024f3660046119d5565b6105fb565b6101b47f000000000000000000000000000000000000000000000000000000000000000081565b6101b47f000000000000000000000000000000000000000000000000000000000000000081565b6101df6102b0366004611abd565b6106b7565b6101b4610792565b6102c56107a1565b604051908152602001610183565b6101b46102e136600461193a565b6107c5565b6101946107fa565b6102c56102fc3660046119d5565b50600190565b6102c5610310366004611b20565b61081a565b61032861032336600461193a565b61082f565b6040805182516001600160a01b03908116825260208085015182169083015283830151169181019190915260609182015163ffffffff1691810191909152608001610183565b6101946108b0565b6101df6108bf565b6101df61038c366004611b6b565b610976565b610194610981565b6101df6103a7366004611ba9565b61099d565b6101946103ba36600461193a565b6109d6565b6101776103cd366004611c28565b6109e3565b6101df6103e0366004611b20565b610a11565b6101df6103f3366004611b20565b610b14565b6101df610406366004611b20565b610c10565b60006301ffc9a760e01b6001600160e01b03198316148061043c57506380ac58cd60e01b6001600160e01b03198316145b806104575750635b5e139f60e01b6001600160e01b03198316145b92915050565b60606001805461046c90611c56565b80601f016020809104026020016040519081016040528092919081815260200182805461049890611c56565b80156104e55780601f106104ba576101008083540402835291602001916104e5565b820191906000526020600020905b8154815290600101906020018083116104c857829003601f168201915b5050505050905090565b60006104fa82610ce9565b506000908152600360205260409020546001600160a01b031690565b6000610521826107c5565b9050806001600160a01b0316836001600160a01b0316036105555760405163e4790b2560e01b815260040160405180910390fd5b336001600160a01b03821614801590610575575061057381336109e3565b155b156105935760405163519a92c160e11b815260040160405180910390fd5b61059d8383610d0f565b505050565b6105ac3382610d7d565b6105c9576040516312a8eb0360e11b815260040160405180910390fd5b61059d838383610ddb565b6105dd81610df4565b50565b61059d8383836040518060200160405280600081525061099d565b60007f00000000000000000000000000000000000000000000000000000000000000006001600160a01b031663731aed6e6040518163ffffffff1660e01b8152600401602060405180830381865afa15801561065b573d6000803e3d6000fd5b505050506040513d601f19601f8201168201806040525081019061067f9190611c90565b9050336001600160a01b038216146106aa5760405163ebb7505b60e01b815260040160405180910390fd5b6106b382610e24565b5050565b600054610100900460ff16158080156106d75750600054600160ff909116105b806106f857506106e630610ff6565b1580156106f8575060005460ff166001145b61071d5760405162461bcd60e51b815260040161071490611cad565b60405180910390fd5b6000805460ff191660011790558015610740576000805461ff0019166101001790555b600161074c8482611d49565b5060026107598382611d49565b50801561059d576000805461ff0019169055604051600181526000805160206121718339815191529060200160405180910390a1505050565b600061079c611005565b905090565b7f87e44dce6a0d65a5ccf441783661f5727c2624b1f0088bbe957ce2c95406b78490565b6000806107d183611018565b90506001600160a01b0381166104575760405163eab95e3b60e01b815260040160405180910390fd5b60606040518060600160405280602d81526020016121b1602d9139905090565b6000610827848484611036565b949350505050565b60408051608081018252600080825260208201819052918101829052606081019190915250600090815260166020908152604091829020825160808101845281546001600160a01b039081168252600183015481169382019390935260029091015491821692810192909252600160a01b900463ffffffff16606082015290565b60606002805461046c90611c56565b600054610100900460ff16158080156108df5750600054600160ff909116105b8061090057506108ee30610ff6565b158015610900575060005460ff166001145b61091c5760405162461bcd60e51b815260040161071490611cad565b6000805460ff19166001179055801561093f576000805461ff0019166101001790555b80156105dd576000805461ff001916905560405160018152600080516020612171833981519152906020015b60405180910390a150565b6106b3338383611082565b6040518060600160405280602d81526020016121b1602d913981565b6109a73383610d7d565b6109c4576040516312a8eb0360e11b815260040160405180910390fd5b6109d084848484611121565b50505050565b606061045782600061112c565b6001600160a01b03918216600090815260046020908152604080832093909416825291909152205460ff1690565b336001600160a01b037f00000000000000000000000000000000000000000000000000000000000000001614610a5a5760405163d367b64f60e01b815260040160405180910390fd5b6000610a67848484611036565b6000818152601660205260409020600101549091506001600160a01b0316156109d057610a9381610df4565b604051630179c42b60e51b8152600481018290527f00000000000000000000000000000000000000000000000000000000000000006001600160a01b031690632f388560906024015b600060405180830381600087803b158015610af657600080fd5b505af1158015610b0a573d6000803e3d6000fd5b5050505050505050565b336001600160a01b037f00000000000000000000000000000000000000000000000000000000000000001614610b5d5760405163d367b64f60e01b815260040160405180910390fd5b6000610b6a848484611036565b6000818152601660205260409020600101549091506001600160a01b0316156109d057604051630852cd8d60e31b8152600481018290527f00000000000000000000000000000000000000000000000000000000000000006001600160a01b0316906342966c6890602401600060405180830381600087803b158015610bef57600080fd5b505af1158015610c03573d6000803e3d6000fd5b505050506109d081611282565b336001600160a01b037f00000000000000000000000000000000000000000000000000000000000000001614610c595760405163d367b64f60e01b815260040160405180910390fd5b6000610c66848484611036565b6000818152601660205260409020600101549091506001600160a01b03166109d057610c948484848461130c565b6040516340c10f1960e01b81526001600160a01b038381166004830152602482018390527f000000000000000000000000000000000000000000000000000000000000000016906340c10f1990604401610adc565b610cf281611417565b6105dd5760405163eab95e3b60e01b815260040160405180910390fd5b600081815260036020526040902080546001600160a01b0319166001600160a01b0384169081179091558190610d4482611018565b6001600160a01b03167f8c5be1e5ebec7d5bd14f71427d1e84f3dd0314c0f7b2291e5b200ac8c7c3b92560405160405180910390a45050565b600080610d89836107c5565b9050806001600160a01b0316846001600160a01b03161480610db05750610db081856109e3565b806108275750836001600160a01b0316610dc9846104ef565b6001600160a01b031614949350505050565b60405163553a3f6560e11b815260040160405180910390fd5b6040518181527ff8e1a15aba9398e019f0b49df1a4fde98ee17ae345cb5f6b5e2c27f5033e8ce79060200161096b565b6000610e2e611005565b6001600160a01b031603610e845760405162461bcd60e51b815260206004820152601d60248201527f5555505350726f786961626c653a206e6f742075706772616461626c650000006044820152606401610714565b806001600160a01b03166352d1902d6040518163ffffffff1660e01b8152600401602060405180830381865afa158015610ec2573d6000803e3d6000fd5b505050506040513d601f19601f82011682018060405250810190610ee69190611e08565b610eee6107a1565b14610f475760405162461bcd60e51b815260206004820152602360248201527f5555505350726f786961626c653a206e6f7420636f6d70617469626c65206c6f60448201526267696360e81b6064820152608401610714565b6001600160a01b0381163003610f9b5760405162461bcd60e51b815260206004820152601960248201527805555505350726f786961626c653a2070726f7879206c6f6f7603c1b6044820152606401610714565b610fb18160008051602061215183398151915255565b7fe011bc04c286c344a8fcbb8de77f953da762c3e25d8cdea984147fc4168a5dcc610fda6107a1565b604080519182526001600160a01b03841660208301520161096b565b6001600160a01b03163b151590565b6000805160206121518339815191525490565b6000908152601660205260409020600101546001600160a01b031690565b60408051466020808301919091526001600160a01b03958616828401529385166060820152919093166080808301919091528351808303909101815260a0909101909252815191012090565b816001600160a01b0316836001600160a01b0316036110b45760405163d3c7732960e01b815260040160405180910390fd5b6001600160a01b03838116600081815260046020908152604080832094871680845294825291829020805460ff191686151590811790915591519182527f17307eab39ab6107e8899845ad3d59bd9653f200f220920489ca2b5937696c31910160405180910390a3505050565b6109d0848484610ddb565b606060006111398461082f565b805160208201516040808401519051631cd43d1160e31b81526001600160a01b0380851660048301529283166024820152908216604482015292935090916000917f0000000000000000000000000000000000000000000000000000000000000000169063e6a1e88890606401608060405180830381865afa1580156111c3573d6000803e3d6000fd5b505050506040513d601f19601f820116820180604052508101906111e79190611e21565b50509150506111f46107fa565b611206826001600160601b0316611434565b8661122d57604051806040016040528060048152602001637472756560e01b81525061124c565b6040518060400160405280600581526020016466616c736560d81b8152505b611255896114c6565b6040516020016112689493929190611e81565b604051602081830303815290604052935050505092915050565b600061128d82611018565b600083815260036020526040902080546001600160a01b0319169055905060008281526016602052604080822080546001600160a01b03199081168255600182018054909116905560020180546001600160c01b0319169055518391906001600160a01b03841690600080516020612191833981519152908390a45050565b6001600160a01b03831661132257611322611f09565b816001600160a01b0316836001600160a01b03160361134357611343611f09565b61134c81611417565b1561135957611359611f09565b604080516080810182526001600160a01b038087168252858116602080840182815287841685870190815263ffffffff4281166060880190815260008a81526016909552888520975188549088166001600160a01b0319918216178955935160018901805491891691909516179093559051600290960180549251909116600160a01b026001600160c01b0319909216959094169490941793909317909155915183929190600080516020612191833981519152908290a450505050565b60008061142383611018565b6001600160a01b0316141592915050565b6060600061144183611641565b60010190506000816001600160401b03811115611460576114606119f2565b6040519080825280601f01601f19166020018201604052801561148a576020820181803683370190505b5090508181016020015b600019016f181899199a1a9b1b9c1cb0b131b232b360811b600a86061a8153600a850494508461149457509392505050565b606060006114d38361082f565b90506114ed81600001516001600160a01b03166014611717565b6114f646611434565b82600001516001600160a01b03166395d89b416040518163ffffffff1660e01b8152600401600060405180830381865afa158015611538573d6000803e3d6000fd5b505050506040513d6000823e601f3d908101601f191682016040526115609190810190611f1f565b61157884602001516001600160a01b03166014611717565b61159085604001516001600160a01b03166014611717565b61160186600001516001600160a01b031663313ce5676040518163ffffffff1660e01b8152600401602060405180830381865afa1580156115d5573d6000803e3d6000fd5b505050506040513d601f19601f820116820180604052508101906115f99190611f95565b60ff16611434565b611614876060015163ffffffff16611434565b60405160200161162a9796959493929190611fb8565b604051602081830303815290604052915050919050565b60008072184f03e93ff9f4daa797ed6e38ed64bf6a1f0160401b83106116805772184f03e93ff9f4daa797ed6e38ed64bf6a1f0160401b830492506040015b6904ee2d6d415b85acef8160201b83106116aa576904ee2d6d415b85acef8160201b830492506020015b662386f26fc1000083106116c857662386f26fc10000830492506010015b6305f5e10083106116e0576305f5e100830492506008015b61271083106116f457612710830492506004015b60648310611706576064830492506002015b600a83106104575760010192915050565b606060006117268360026120f9565b611731906002612110565b6001600160401b03811115611748576117486119f2565b6040519080825280601f01601f191660200182016040528015611772576020820181803683370190505b509050600360fc1b8160008151811061178d5761178d612123565b60200101906001600160f81b031916908160001a905350600f60fb1b816001815181106117bc576117bc612123565b60200101906001600160f81b031916908160001a90535060006117e08460026120f9565b6117eb906001612110565b90505b6001811115611863576f181899199a1a9b1b9c1cb0b131b232b360811b85600f166010811061181f5761181f612123565b1a60f81b82828151811061183557611835612123565b60200101906001600160f81b031916908160001a90535060049490941c9361185c81612139565b90506117ee565b5083156118b25760405162461bcd60e51b815260206004820181905260248201527f537472696e67733a20686578206c656e67746820696e73756666696369656e746044820152606401610714565b9392505050565b6000602082840312156118cb57600080fd5b81356001600160e01b0319811681146118b257600080fd5b60005b838110156118fe5781810151838201526020016118e6565b50506000910152565b60208152600082518060208401526119268160408501602087016118e3565b601f01601f19169190910160400192915050565b60006020828403121561194c57600080fd5b5035919050565b6001600160a01b03811681146105dd57600080fd5b6000806040838503121561197b57600080fd5b823561198681611953565b946020939093013593505050565b6000806000606084860312156119a957600080fd5b83356119b481611953565b925060208401356119c481611953565b929592945050506040919091013590565b6000602082840312156119e757600080fd5b81356118b281611953565b634e487b7160e01b600052604160045260246000fd5b604051601f8201601f191681016001600160401b0381118282101715611a3057611a306119f2565b604052919050565b60006001600160401b03821115611a5157611a516119f2565b50601f01601f191660200190565b6000611a72611a6d84611a38565b611a08565b9050828152838383011115611a8657600080fd5b828260208301376000602084830101529392505050565b600082601f830112611aae57600080fd5b6118b283833560208501611a5f565b60008060408385031215611ad057600080fd5b82356001600160401b0380821115611ae757600080fd5b611af386838701611a9d565b93506020850135915080821115611b0957600080fd5b50611b1685828601611a9d565b9150509250929050565b600080600060608486031215611b3557600080fd5b8335611b4081611953565b92506020840135611b5081611953565b91506040840135611b6081611953565b809150509250925092565b60008060408385031215611b7e57600080fd5b8235611b8981611953565b915060208301358015158114611b9e57600080fd5b809150509250929050565b60008060008060808587031215611bbf57600080fd5b8435611bca81611953565b93506020850135611bda81611953565b92506040850135915060608501356001600160401b03811115611bfc57600080fd5b8501601f81018713611c0d57600080fd5b611c1c87823560208401611a5f565b91505092959194509250565b60008060408385031215611c3b57600080fd5b8235611c4681611953565b91506020830135611b9e81611953565b600181811c90821680611c6a57607f821691505b602082108103611c8a57634e487b7160e01b600052602260045260246000fd5b50919050565b600060208284031215611ca257600080fd5b81516118b281611953565b6020808252602e908201527f496e697469616c697a61626c653a20636f6e747261637420697320616c72656160408201526d191e481a5b9a5d1a585b1a5e995960921b606082015260800190565b601f82111561059d57600081815260208120601f850160051c81016020861015611d225750805b601f850160051c820191505b81811015611d4157828155600101611d2e565b505050505050565b81516001600160401b03811115611d6257611d626119f2565b611d7681611d708454611c56565b84611cfb565b602080601f831160018114611dab5760008415611d935750858301515b600019600386901b1c1916600185901b178555611d41565b600085815260208120601f198616915b82811015611dda57888601518255948401946001909101908401611dbb565b5085821015611df85787850151600019600388901b60f8161c191681555b5050505050600190811b01905550565b600060208284031215611e1a57600080fd5b5051919050565b60008060008060808587031215611e3757600080fd5b84519350602085015180600b0b8114611e4f57600080fd5b6040860151606090960151949790965092505050565b60008151611e778185602086016118e3565b9290920192915050565b60008551611e93818460208a016118e3565b693f666c6f77526174653d60b01b9083019081528551611eba81600a840160208a016118e3565b69266f7574676f696e673d60b01b600a92909101918201528451611ee58160148401602089016118e3565b8451910190611efb8160148401602088016118e3565b016014019695505050505050565b634e487b7160e01b600052600160045260246000fd5b600060208284031215611f3157600080fd5b81516001600160401b03811115611f4757600080fd5b8201601f81018413611f5857600080fd5b8051611f66611a6d82611a38565b818152856020838501011115611f7b57600080fd5b611f8c8260208301602086016118e3565b95945050505050565b600060208284031215611fa757600080fd5b815160ff811681146118b257600080fd5b6e26746f6b656e5f616464726573733d60881b815260008851611fe281600f850160208d016118e3565b6926636861696e5f69643d60b01b600f91840191820152885161200c816019840160208d016118e3565b6d26746f6b656e5f73796d626f6c3d60901b60199290910191820152875161203b816027840160208c016118e3565b672673656e6465723d60c01b60279290910191820152865161206481602f840160208b016118e3565b692672656365697665723d60b01b602f92909101918201526120d56120cf6120b76120b1612095603986018b611e65565b6f26746f6b656e5f646563696d616c733d60801b815260100190565b88611e65565b6b2673746172745f646174653d60a01b8152600c0190565b85611e65565b9a9950505050505050505050565b634e487b7160e01b600052601160045260246000fd5b8082028115828204841417610457576104576120e3565b80820180821115610457576104576120e3565b634e487b7160e01b600052603260045260246000fd5b600081612148576121486120e3565b50600019019056fe360894a13ba1a3210667c828492db98dca3e2076cc3735a920a3ca505d382bbc7f26b83ff96e1f2b6a682f133852f6798a09c465da95921460cefb3847402498ddf252ad1be2c89b69c2b068fc378daa952ba7f163c4a11628f55a4df523b3ef68747470733a2f2f6e66742e7375706572666c7569642e66696e616e63652f6366612f76322f6765746d657461a2646970667358221220ee179fd43605faa3201d6df1ef845f7e62344e183cb7db1bc79e60153e88b86464736f6c63430008130033",
    "linkReferences": {}
  },
  "methodIdentifiers": {
    "CONSTANT_FLOW_AGREEMENT_V1()": "18156101",
    "CONSTANT_INFLOW_NFT()": "4c5c0c85",
    "DEFAULT_BASE_URI()": "a497325b",
    "HOST()": "49f289dc",
    "approve(address,uint256)": "095ea7b3",
    "balanceOf(address)": "70a08231",
    "baseURI()": "6c0360eb",
    "castrate()": "9903ad38",
    "flowDataByTokenId(uint256)": "8d47859e",
    "getApproved(uint256)": "081812fc",
    "getCodeAddress()": "50d75d25",
    "getTokenId(address,address,address)": "89f71d2d",
    "initialize(string,string)": "4cd88b76",
    "isApprovedForAll(address,address)": "e985e9c5",
    "name()": "06fdde03",
    "onCreate(address,address,address)": "f7e3d983",
    "onDelete(address,address,address)": "ef1f0237",
    "onUpdate(address,address,address)": "eb54a7ca",
    "ownerOf(uint256)": "6352211e",
    "proxiableUUID()": "52d1902d",
    "safeTransferFrom(address,address,uint256)": "42842e0e",
    "safeTransferFrom(address,address,uint256,bytes)": "b88d4fde",
    "setApprovalForAll(address,bool)": "a22cb465",
    "supportsInterface(bytes4)": "01ffc9a7",
    "symbol()": "95d89b41",
    "tokenURI(uint256)": "c87b56dd",
    "transferFrom(address,address,uint256)": "23b872dd",
    "triggerMetadataUpdate(uint256)": "2f388560",
    "updateCode(address)": "46951954"
  },
  "id": 86
}