{
  "abi": [
    {
      "inputs": [
        {
          "internalType": "contract ISuperfluid",
          "name": "host",
          "type": "address"
        }
      ],
      "stateMutability": "nonpayable",
      "type": "constructor"
    },
    {
      "inputs": [],
      "name": "AGREEMENT_BASE_ONLY_HOST",
      "type": "error"
    },
    {
      "inputs": [
        {
          "internalType": "uint256",
          "name": "_code",
          "type": "uint256"
        }
      ],
      "name": "APP_RULE",
      "type": "error"
    },
    {
      "inputs": [],
      "name": "CFA_ACL_FLOW_RATE_ALLOWANCE_EXCEEDED",
      "type": "error"
    },
    {
      "inputs": [],
      "name": "CFA_ACL_NO_NEGATIVE_ALLOWANCE",
      "type": "error"
    },
    {
      "inputs": [],
      "name": "CFA_ACL_NO_SENDER_CREATE",
      "type": "error"
    },
    {
      "inputs": [],
      "name": "CFA_ACL_NO_SENDER_FLOW_OPERATOR",
      "type": "error"
    },
    {
      "inputs": [],
      "name": "CFA_ACL_NO_SENDER_UPDATE",
      "type": "error"
    },
    {
      "inputs": [],
      "name": "CFA_ACL_OPERATOR_NO_CREATE_PERMISSIONS",
      "type": "error"
    },
    {
      "inputs": [],
      "name": "CFA_ACL_OPERATOR_NO_DELETE_PERMISSIONS",
      "type": "error"
    },
    {
      "inputs": [],
      "name": "CFA_ACL_OPERATOR_NO_UPDATE_PERMISSIONS",
      "type": "error"
    },
    {
      "inputs": [],
      "name": "CFA_ACL_UNCLEAN_PERMISSIONS",
      "type": "error"
    },
    {
      "inputs": [],
      "name": "CFA_DEPOSIT_TOO_BIG",
      "type": "error"
    },
    {
      "inputs": [],
      "name": "CFA_FLOW_ALREADY_EXISTS",
      "type": "error"
    },
    {
      "inputs": [],
      "name": "CFA_FLOW_DOES_NOT_EXIST",
      "type": "error"
    },
    {
      "inputs": [],
      "name": "CFA_FLOW_RATE_TOO_BIG",
      "type": "error"
    },
    {
      "inputs": [],
      "name": "CFA_HOOK_OUT_OF_GAS",
      "type": "error"
    },
    {
      "inputs": [],
      "name": "CFA_INSUFFICIENT_BALANCE",
      "type": "error"
    },
    {
      "inputs": [],
      "name": "CFA_INVALID_FLOW_RATE",
      "type": "error"
    },
    {
      "inputs": [],
      "name": "CFA_NON_CRITICAL_SENDER",
      "type": "error"
    },
    {
      "inputs": [],
      "name": "CFA_NO_SELF_FLOW",
      "type": "error"
    },
    {
      "inputs": [],
      "name": "CFA_ZERO_ADDRESS_RECEIVER",
      "type": "error"
    },
    {
      "inputs": [],
      "name": "CFA_ZERO_ADDRESS_SENDER",
      "type": "error"
    },
    {
      "inputs": [],
      "name": "OUT_OF_GAS",
      "type": "error"
    },
    {
      "anonymous": false,
      "inputs": [
        {
          "indexed": false,
          "internalType": "bytes32",
          "name": "uuid",
          "type": "bytes32"
        },
        {
          "indexed": false,
          "internalType": "address",
          "name": "codeAddress",
          "type": "address"
        }
      ],
      "name": "CodeUpdated",
      "type": "event"
    },
    {
      "anonymous": false,
      "inputs": [
        {
          "indexed": true,
          "internalType": "contract ISuperfluidToken",
          "name": "token",
          "type": "address"
        },
        {
          "indexed": true,
          "internalType": "address",
          "name": "sender",
          "type": "address"
        },
        {
          "indexed": true,
          "internalType": "address",
          "name": "flowOperator",
          "type": "address"
        },
        {
          "indexed": false,
          "internalType": "uint8",
          "name": "permissions",
          "type": "uint8"
        },
        {
          "indexed": false,
          "internalType": "int96",
          "name": "flowRateAllowance",
          "type": "int96"
        }
      ],
      "name": "FlowOperatorUpdated",
      "type": "event"
    },
    {
      "anonymous": false,
      "inputs": [
        {
          "indexed": true,
          "internalType": "contract ISuperfluidToken",
          "name": "token",
          "type": "address"
        },
        {
          "indexed": true,
          "internalType": "address",
          "name": "sender",
          "type": "address"
        },
        {
          "indexed": true,
          "internalType": "address",
          "name": "receiver",
          "type": "address"
        },
        {
          "indexed": false,
          "internalType": "int96",
          "name": "flowRate",
          "type": "int96"
        },
        {
          "indexed": false,
          "internalType": "int256",
          "name": "totalSenderFlowRate",
          "type": "int256"
        },
        {
          "indexed": false,
          "internalType": "int256",
          "name": "totalReceiverFlowRate",
          "type": "int256"
        },
        {
          "indexed": false,
          "internalType": "bytes",
          "name": "userData",
          "type": "bytes"
        }
      ],
      "name": "FlowUpdated",
      "type": "event"
    },
    {
      "anonymous": false,
      "inputs": [
        {
          "indexed": true,
          "internalType": "address",
          "name": "flowOperator",
          "type": "address"
        },
        {
          "indexed": false,
          "internalType": "uint256",
          "name": "deposit",
          "type": "uint256"
        }
      ],
      "name": "FlowUpdatedExtension",
      "type": "event"
    },
    {
      "anonymous": false,
      "inputs": [
        {
          "indexed": false,
          "internalType": "uint8",
          "name": "version",
          "type": "uint8"
        }
      ],
      "name": "Initialized",
      "type": "event"
    },
    {
      "inputs": [],
      "name": "CFA_HOOK_GAS_LIMIT",
      "outputs": [
        {
          "internalType": "uint64",
          "name": "",
          "type": "uint64"
        }
      ],
      "stateMutability": "view",
      "type": "function"
    },
    {
      "inputs": [],
      "name": "DEFAULT_MINIMUM_DEPOSIT",
      "outputs": [
        {
          "internalType": "uint256",
          "name": "",
          "type": "uint256"
        }
      ],
      "stateMutability": "view",
      "type": "function"
    },
    {
      "inputs": [],
      "name": "MAXIMUM_DEPOSIT",
      "outputs": [
        {
          "internalType": "uint256",
          "name": "",
          "type": "uint256"
        }
      ],
      "stateMutability": "view",
      "type": "function"
    },
    {
      "inputs": [],
      "name": "MAXIMUM_FLOW_RATE",
      "outputs": [
        {
          "internalType": "uint256",
          "name": "",
          "type": "uint256"
        }
      ],
      "stateMutability": "view",
      "type": "function"
    },
    {
      "inputs": [
        {
          "internalType": "uint8",
          "name": "existingPermissions",
          "type": "uint8"
        },
        {
          "internalType": "uint8",
          "name": "permissionDelta",
          "type": "uint8"
        }
      ],
      "name": "addPermissions",
      "outputs": [
        {
          "internalType": "uint8",
          "name": "",
          "type": "uint8"
        }
      ],
      "stateMutability": "pure",
      "type": "function"
    },
    {
      "inputs": [],
      "name": "agreementType",
      "outputs": [
        {
          "internalType": "bytes32",
          "name": "",
          "type": "bytes32"
        }
      ],
      "stateMutability": "pure",
      "type": "function"
    },
    {
      "inputs": [
        {
          "internalType": "contract ISuperfluidToken",
          "name": "token",
          "type": "address"
        },
        {
          "internalType": "address",
          "name": "flowOperator",
          "type": "address"
        },
        {
          "internalType": "bytes",
          "name": "ctx",
          "type": "bytes"
        }
      ],
      "name": "authorizeFlowOperatorWithFullControl",
      "outputs": [
        {
          "internalType": "bytes",
          "name": "newCtx",
          "type": "bytes"
        }
      ],
      "stateMutability": "nonpayable",
      "type": "function"
    },
    {
      "inputs": [],
      "name": "castrate",
      "outputs": [],
      "stateMutability": "nonpayable",
      "type": "function"
    },
    {
      "inputs": [
        {
          "internalType": "contract ISuperfluidToken",
          "name": "token",
          "type": "address"
        },
        {
          "internalType": "address",
          "name": "receiver",
          "type": "address"
        },
        {
          "internalType": "int96",
          "name": "flowRate",
          "type": "int96"
        },
        {
          "internalType": "bytes",
          "name": "ctx",
          "type": "bytes"
        }
      ],
      "name": "createFlow",
      "outputs": [
        {
          "internalType": "bytes",
          "name": "newCtx",
          "type": "bytes"
        }
      ],
      "stateMutability": "nonpayable",
      "type": "function"
    },
    {
      "inputs": [
        {
          "internalType": "contract ISuperfluidToken",
          "name": "token",
          "type": "address"
        },
        {
          "internalType": "address",
          "name": "sender",
          "type": "address"
        },
        {
          "internalType": "address",
          "name": "receiver",
          "type": "address"
        },
        {
          "internalType": "int96",
          "name": "flowRate",
          "type": "int96"
        },
        {
          "internalType": "bytes",
          "name": "ctx",
          "type": "bytes"
        }
      ],
      "name": "createFlowByOperator",
      "outputs": [
        {
          "internalType": "bytes",
          "name": "newCtx",
          "type": "bytes"
        }
      ],
      "stateMutability": "nonpayable",
      "type": "function"
    },
    {
      "inputs": [
        {
          "internalType": "contract ISuperfluidToken",
          "name": "token",
          "type": "address"
        },
        {
          "internalType": "address",
          "name": "flowOperator",
          "type": "address"
        },
        {
          "internalType": "int96",
          "name": "subtractedFlowRateAllowance",
          "type": "int96"
        },
        {
          "internalType": "bytes",
          "name": "ctx",
          "type": "bytes"
        }
      ],
      "name": "decreaseFlowRateAllowance",
      "outputs": [
        {
          "internalType": "bytes",
          "name": "newCtx",
          "type": "bytes"
        }
      ],
      "stateMutability": "nonpayable",
      "type": "function"
    },
    {
      "inputs": [
        {
          "internalType": "contract ISuperfluidToken",
          "name": "token",
          "type": "address"
        },
        {
          "internalType": "address",
          "name": "flowOperator",
          "type": "address"
        },
        {
          "internalType": "uint8",
          "name": "permissionsToRemove",
          "type": "uint8"
        },
        {
          "internalType": "int96",
          "name": "subtractedFlowRateAllowance",
          "type": "int96"
        },
        {
          "internalType": "bytes",
          "name": "ctx",
          "type": "bytes"
        }
      ],
      "name": "decreaseFlowRateAllowanceWithPermissions",
      "outputs": [
        {
          "internalType": "bytes",
          "name": "newCtx",
          "type": "bytes"
        }
      ],
      "stateMutability": "nonpayable",
      "type": "function"
    },
    {
      "inputs": [
        {
          "internalType": "contract ISuperfluidToken",
          "name": "token",
          "type": "address"
        },
        {
          "internalType": "address",
          "name": "sender",
          "type": "address"
        },
        {
          "internalType": "address",
          "name": "receiver",
          "type": "address"
        },
        {
          "internalType": "bytes",
          "name": "ctx",
          "type": "bytes"
        }
      ],
      "name": "deleteFlow",
      "outputs": [
        {
          "internalType": "bytes",
          "name": "newCtx",
          "type": "bytes"
        }
      ],
      "stateMutability": "nonpayable",
      "type": "function"
    },
    {
      "inputs": [
        {
          "internalType": "contract ISuperfluidToken",
          "name": "token",
          "type": "address"
        },
        {
          "internalType": "address",
          "name": "sender",
          "type": "address"
        },
        {
          "internalType": "address",
          "name": "receiver",
          "type": "address"
        },
        {
          "internalType": "bytes",
          "name": "ctx",
          "type": "bytes"
        }
      ],
      "name": "deleteFlowByOperator",
      "outputs": [
        {
          "internalType": "bytes",
          "name": "newCtx",
          "type": "bytes"
        }
      ],
      "stateMutability": "nonpayable",
      "type": "function"
    },
    {
      "inputs": [
        {
          "internalType": "contract ISuperfluidToken",
          "name": "token",
          "type": "address"
        },
        {
          "internalType": "address",
          "name": "account",
          "type": "address"
        }
      ],
      "name": "getAccountFlowInfo",
      "outputs": [
        {
          "internalType": "uint256",
          "name": "timestamp",
          "type": "uint256"
        },
        {
          "internalType": "int96",
          "name": "flowRate",
          "type": "int96"
        },
        {
          "internalType": "uint256",
          "name": "deposit",
          "type": "uint256"
        },
        {
          "internalType": "uint256",
          "name": "owedDeposit",
          "type": "uint256"
        }
      ],
      "stateMutability": "view",
      "type": "function"
    },
    {
      "inputs": [],
      "name": "getCodeAddress",
      "outputs": [
        {
          "internalType": "address",
          "name": "codeAddress",
          "type": "address"
        }
      ],
      "stateMutability": "view",
      "type": "function"
    },
    {
      "inputs": [
        {
          "internalType": "contract ISuperfluidToken",
          "name": "token",
          "type": "address"
        },
        {
          "internalType": "int96",
          "name": "flowRate",
          "type": "int96"
        }
      ],
      "name": "getDepositRequiredForFlowRate",
      "outputs": [
        {
          "internalType": "uint256",
          "name": "deposit",
          "type": "uint256"
        }
      ],
      "stateMutability": "view",
      "type": "function"
    },
    {
      "inputs": [
        {
          "internalType": "contract ISuperfluidToken",
          "name": "token",
          "type": "address"
        },
        {
          "internalType": "address",
          "name": "sender",
          "type": "address"
        },
        {
          "internalType": "address",
          "name": "receiver",
          "type": "address"
        }
      ],
      "name": "getFlow",
      "outputs": [
        {
          "internalType": "uint256",
          "name": "timestamp",
          "type": "uint256"
        },
        {
          "internalType": "int96",
          "name": "flowRate",
          "type": "int96"
        },
        {
          "internalType": "uint256",
          "name": "deposit",
          "type": "uint256"
        },
        {
          "internalType": "uint256",
          "name": "owedDeposit",
          "type": "uint256"
        }
      ],
      "stateMutability": "view",
      "type": "function"
    },
    {
      "inputs": [
        {
          "internalType": "contract ISuperfluidToken",
          "name": "token",
          "type": "address"
        },
        {
          "internalType": "bytes32",
          "name": "flowId",
          "type": "bytes32"
        }
      ],
      "name": "getFlowByID",
      "outputs": [
        {
          "internalType": "uint256",
          "name": "timestamp",
          "type": "uint256"
        },
        {
          "internalType": "int96",
          "name": "flowRate",
          "type": "int96"
        },
        {
          "internalType": "uint256",
          "name": "deposit",
          "type": "uint256"
        },
        {
          "internalType": "uint256",
          "name": "owedDeposit",
          "type": "uint256"
        }
      ],
      "stateMutability": "view",
      "type": "function"
    },
    {
      "inputs": [
        {
          "internalType": "contract ISuperfluidToken",
          "name": "token",
          "type": "address"
        },
        {
          "internalType": "address",
          "name": "sender",
          "type": "address"
        },
        {
          "internalType": "address",
          "name": "flowOperator",
          "type": "address"
        }
      ],
      "name": "getFlowOperatorData",
      "outputs": [
        {
          "internalType": "bytes32",
          "name": "flowOperatorId",
          "type": "bytes32"
        },
        {
          "internalType": "uint8",
          "name": "permissions",
          "type": "uint8"
        },
        {
          "internalType": "int96",
          "name": "flowRateAllowance",
          "type": "int96"
        }
      ],
      "stateMutability": "view",
      "type": "function"
    },
    {
      "inputs": [
        {
          "internalType": "contract ISuperfluidToken",
          "name": "token",
          "type": "address"
        },
        {
          "internalType": "bytes32",
          "name": "flowOperatorId",
          "type": "bytes32"
        }
      ],
      "name": "getFlowOperatorDataByID",
      "outputs": [
        {
          "internalType": "uint8",
          "name": "permissions",
          "type": "uint8"
        },
        {
          "internalType": "int96",
          "name": "flowRateAllowance",
          "type": "int96"
        }
      ],
      "stateMutability": "view",
      "type": "function"
    },
    {
      "inputs": [
        {
          "internalType": "contract ISuperfluidToken",
          "name": "token",
          "type": "address"
        },
        {
          "internalType": "uint256",
          "name": "deposit",
          "type": "uint256"
        }
      ],
      "name": "getMaximumFlowRateFromDeposit",
      "outputs": [
        {
          "internalType": "int96",
          "name": "flowRate",
          "type": "int96"
        }
      ],
      "stateMutability": "view",
      "type": "function"
    },
    {
      "inputs": [
        {
          "internalType": "contract ISuperfluidToken",
          "name": "token",
          "type": "address"
        },
        {
          "internalType": "address",
          "name": "account",
          "type": "address"
        }
      ],
      "name": "getNetFlow",
      "outputs": [
        {
          "internalType": "int96",
          "name": "flowRate",
          "type": "int96"
        }
      ],
      "stateMutability": "view",
      "type": "function"
    },
    {
      "inputs": [
        {
          "internalType": "contract ISuperfluidToken",
          "name": "token",
          "type": "address"
        },
        {
          "internalType": "address",
          "name": "flowOperator",
          "type": "address"
        },
        {
          "internalType": "int96",
          "name": "addedFlowRateAllowance",
          "type": "int96"
        },
        {
          "internalType": "bytes",
          "name": "ctx",
          "type": "bytes"
        }
      ],
      "name": "increaseFlowRateAllowance",
      "outputs": [
        {
          "internalType": "bytes",
          "name": "newCtx",
          "type": "bytes"
        }
      ],
      "stateMutability": "nonpayable",
      "type": "function"
    },
    {
      "inputs": [
        {
          "internalType": "contract ISuperfluidToken",
          "name": "token",
          "type": "address"
        },
        {
          "internalType": "address",
          "name": "flowOperator",
          "type": "address"
        },
        {
          "internalType": "uint8",
          "name": "permissionsToAdd",
          "type": "uint8"
        },
        {
          "internalType": "int96",
          "name": "addedFlowRateAllowance",
          "type": "int96"
        },
        {
          "internalType": "bytes",
          "name": "ctx",
          "type": "bytes"
        }
      ],
      "name": "increaseFlowRateAllowanceWithPermissions",
      "outputs": [
        {
          "internalType": "bytes",
          "name": "newCtx",
          "type": "bytes"
        }
      ],
      "stateMutability": "nonpayable",
      "type": "function"
    },
    {
      "inputs": [
        {
          "internalType": "contract ISuperfluidToken",
          "name": "token",
          "type": "address"
        },
        {
          "internalType": "address",
          "name": "account",
          "type": "address"
        },
        {
          "internalType": "uint256",
          "name": "timestamp",
          "type": "uint256"
        }
      ],
      "name": "isPatricianPeriod",
      "outputs": [
        {
          "internalType": "bool",
          "name": "",
          "type": "bool"
        }
      ],
      "stateMutability": "view",
      "type": "function"
    },
    {
      "inputs": [
        {
          "internalType": "contract ISuperfluidToken",
          "name": "token",
          "type": "address"
        },
        {
          "internalType": "address",
          "name": "account",
          "type": "address"
        }
      ],
      "name": "isPatricianPeriodNow",
      "outputs": [
        {
          "internalType": "bool",
          "name": "isCurrentlyPatricianPeriod",
          "type": "bool"
        },
        {
          "internalType": "uint256",
          "name": "timestamp",
          "type": "uint256"
        }
      ],
      "stateMutability": "view",
      "type": "function"
    },
    {
      "inputs": [],
      "name": "proxiableUUID",
      "outputs": [
        {
          "internalType": "bytes32",
          "name": "",
          "type": "bytes32"
        }
      ],
      "stateMutability": "view",
      "type": "function"
    },
    {
      "inputs": [
        {
          "internalType": "contract ISuperfluidToken",
          "name": "token",
          "type": "address"
        },
        {
          "internalType": "address",
          "name": "account",
          "type": "address"
        },
        {
          "internalType": "uint256",
          "name": "time",
          "type": "uint256"
        }
      ],
      "name": "realtimeBalanceOf",
      "outputs": [
        {
          "internalType": "int256",
          "name": "dynamicBalance",
          "type": "int256"
        },
        {
          "internalType": "uint256",
          "name": "deposit",
          "type": "uint256"
        },
        {
          "internalType": "uint256",
          "name": "owedDeposit",
          "type": "uint256"
        }
      ],
      "stateMutability": "view",
      "type": "function"
    },
    {
      "inputs": [
        {
          "internalType": "uint8",
          "name": "existingPermissions",
          "type": "uint8"
        },
        {
          "internalType": "uint8",
          "name": "permissionDelta",
          "type": "uint8"
        }
      ],
      "name": "removePermissions",
      "outputs": [
        {
          "internalType": "uint8",
          "name": "",
          "type": "uint8"
        }
      ],
      "stateMutability": "pure",
      "type": "function"
    },
    {
      "inputs": [
        {
          "internalType": "contract ISuperfluidToken",
          "name": "token",
          "type": "address"
        },
        {
          "internalType": "address",
          "name": "flowOperator",
          "type": "address"
        },
        {
          "internalType": "bytes",
          "name": "ctx",
          "type": "bytes"
        }
      ],
      "name": "revokeFlowOperatorWithFullControl",
      "outputs": [
        {
          "internalType": "bytes",
          "name": "newCtx",
          "type": "bytes"
        }
      ],
      "stateMutability": "nonpayable",
      "type": "function"
    },
    {
      "inputs": [
        {
          "internalType": "address",
          "name": "newAddress",
          "type": "address"
        }
      ],
      "name": "updateCode",
      "outputs": [],
      "stateMutability": "nonpayable",
      "type": "function"
    },
    {
      "inputs": [
        {
          "internalType": "contract ISuperfluidToken",
          "name": "token",
          "type": "address"
        },
        {
          "internalType": "address",
          "name": "receiver",
          "type": "address"
        },
        {
          "internalType": "int96",
          "name": "flowRate",
          "type": "int96"
        },
        {
          "internalType": "bytes",
          "name": "ctx",
          "type": "bytes"
        }
      ],
      "name": "updateFlow",
      "outputs": [
        {
          "internalType": "bytes",
          "name": "newCtx",
          "type": "bytes"
        }
      ],
      "stateMutability": "nonpayable",
      "type": "function"
    },
    {
      "inputs": [
        {
          "internalType": "contract ISuperfluidToken",
          "name": "token",
          "type": "address"
        },
        {
          "internalType": "address",
          "name": "sender",
          "type": "address"
        },
        {
          "internalType": "address",
          "name": "receiver",
          "type": "address"
        },
        {
          "internalType": "int96",
          "name": "flowRate",
          "type": "int96"
        },
        {
          "internalType": "bytes",
          "name": "ctx",
          "type": "bytes"
        }
      ],
      "name": "updateFlowByOperator",
      "outputs": [
        {
          "internalType": "bytes",
          "name": "newCtx",
          "type": "bytes"
        }
      ],
      "stateMutability": "nonpayable",
      "type": "function"
    },
    {
      "inputs": [
        {
          "internalType": "contract ISuperfluidToken",
          "name": "token",
          "type": "address"
        },
        {
          "internalType": "address",
          "name": "flowOperator",
          "type": "address"
        },
        {
          "internalType": "uint8",
          "name": "permissions",
          "type": "uint8"
        },
        {
          "internalType": "int96",
          "name": "flowRateAllowance",
          "type": "int96"
        },
        {
          "internalType": "bytes",
          "name": "ctx",
          "type": "bytes"
        }
      ],
      "name": "updateFlowOperatorPermissions",
      "outputs": [
        {
          "internalType": "bytes",
          "name": "newCtx",
          "type": "bytes"
        }
      ],
      "stateMutability": "nonpayable",
      "type": "function"
    }
  ],
  "bytecode": {
    "object": "0x60a06040523480156200001157600080fd5b506040516200534738038062005347833981016040819052620000349162000046565b6001600160a01b031660805262000078565b6000602082840312156200005957600080fd5b81516001600160a01b03811681146200007157600080fd5b9392505050565b608051615289620000be600039600081816107890152818161097901528181610d4701528181610ddc01528181610e7f015281816115e0015261167501526152896000f3fe608060405234801561001057600080fd5b50600436106101a05760003560e01c8062422bbe146101a557806304aafa49146101dd5780630602f7db146101f6578063062e56ec1461021c57806309d256ef1461023c5780630f1ac4951461025d5780632567f5781461029357806326b0f536146102b8578063354b9590146102c657806346951954146102d95780634b839e0b146102ee5780634c8b181f146103115780634fe9c2911461032457806350209a621461034e57806350d75d251461036157806352d1902d1461037657806354b770e31461037e5780635f51fb231461039157806362fc305e146103a457806372976490146103b75780637730599e146103c9578063811b3d40146103ef5780638d997f6e1461040257806394229ecb146104155780639903ad38146104285780639b2e48bc146104305780639cb28b72146102b8578063aabd26681461045e578063ac5f5d0014610471578063b4b333c614610484578063bf3fbc2814610497578063da6b5f30146104b9578063e6a1e888146104cc578063e8e7e2d1146104df578063f31f88f0146104f2575b600080fd5b6101b86101b33660046144c6565b610505565b6040805193845260ff9092166020840152600b0b908201526060015b60405180910390f35b6101e8600160201b81565b6040519081526020016101d4565b610209610204366004614511565b61053b565b604051600b9190910b81526020016101d4565b61022f61022a36600461457e565b61055c565b6040516101d49190614632565b61024f61024a366004614511565b610576565b6040516101d4929190614645565b61027061026b36600461465b565b61059a565b60408051948552600b9390930b60208501529183015260608201526080016101d4565b6102a66102a13660046146a3565b6105d0565b60405160ff90911681526020016101d4565b6101e860016001605f1b0381565b61022f6102d43660046146e3565b6105db565b6102ec6102e736600461476e565b61077e565b005b6103016102fc36600461478b565b6107d3565b60405190151581526020016101d4565b61022f61031f3660046147cc565b6108a6565b61033761033236600461465b565b610974565b6040805192151583526020830191909152016101d4565b61022f61035c366004614847565b610a0f565b610369610ac0565b6040516101d49190614888565b6101e8610acf565b61022f61038c36600461457e565b610b33565b61022f61039f366004614847565b610b4b565b61022f6103b2366004614847565b610b66565b6102a66103c53660046146a3565b1790565b7fa9214cc96615e0085d3bb077758db69497dc2dce3b2b1e97bc93c3d18d83efd36101e8565b61022f6103fd36600461489c565b610bf7565b6101e86104103660046148e0565b610d2e565b61022f6104233660046146e3565b610f30565b6102ec611091565b61044361043e36600461478b565b61119f565b604080519384526020840192909252908201526060016101d4565b61027061046c366004614511565b6111f9565b61022f61047f366004614847565b61120b565b61022f6104923660046147cc565b61121c565b6104a16203d09081565b6040516001600160401b0390911681526020016101d4565b61022f6104c736600461489c565b61128e565b6102706104da3660046144c6565b61139b565b6102096104ed36600461465b565b6113d6565b61022f61050036600461489c565b6113f0565b600080600061051485856114b6565b925060006105228785611521565b8051602090910151959990985094965093945050505050565b600080610547846115d9565b509050610554818461171b565b949350505050565b606061056d85856000808787610bf7565b95945050505050565b60008060006105858585611521565b80516020909101519097909650945050505050565b60008060008060006105ac878761175b565b805160208201516040830151606090930151919b909a509198509650945050505050565b801982165b92915050565b6060600061061f8885858080601f01602080910402602001604051908101604052809392919081815260200183838082843760009201919091525061181492505050565b9050866001600160a01b031681606001516001600160a01b0316036106575760405163edfa0d3b60e01b815260040160405180910390fd5b60008061066d8a6106688b8b6119d8565b6119ed565b9150915060008060006106858d8d8860600151610505565b925092509250610696826001611a2b565b6106b35760405163ac434b5f60e01b815260040160405180910390fd5b6000600b82900b60016001605f1b0314806106d857508a600b0b8560200151600b0b12155b6106fa5760208501516106eb908c61492b565b6106f5908361492b565b6106fc565b815b9050600081600b0b12156107235760405163a0645c1f60e01b815260040160405180910390fd5b61072f8e858584611a86565b5050505061073b61438a565b6001600160a01b03808c1682528a8116602083015289166040820152600b88900b606082015261076f8183858a8a89611b0d565b9b9a5050505050505050505050565b336001600160a01b037f000000000000000000000000000000000000000000000000000000000000000016146107c757604051630b00ec8f60e11b815260040160405180910390fd5b6107d081611c72565b50565b600080846001600160a01b031663eb3537cc85856040518363ffffffff1660e01b8152600401610804929190614958565b606060405180830381865afa158015610821573d6000803e3d6000fd5b505050506040513d601f19601f820116820180604052508101906108459190614971565b505090506000811261085b57600191505061089f565b600080610867876115d9565b915091506000610877888861175b565b91505060006108898260400151611e44565b905061089785828686611eb2565b955050505050505b9392505050565b606060006108ea8785858080601f01602080910402602001604051908101604052809392919081815260200183838082843760009201919091525061181492505050565b905060006108fd88888460600151610505565b50915050600061090e826002611a2b565b90508061092e5760405163e30f1bff60e01b815260040160405180910390fd5b61093661438a565b6001600160a01b03808b168252898116602083015288166040820152600060608201526109668183898988611f00565b9a9950505050505050505050565b6000807f00000000000000000000000000000000000000000000000000000000000000006001600160a01b031663bbe4fd506040518163ffffffff1660e01b8152600401602060405180830381865afa1580156109d5573d6000803e3d6000fd5b505050506040513d601f19601f820116820180604052508101906109f9919061499f565b9050610a068484836107d3565b91509250929050565b60606000610a538785858080601f01602080910402602001604051908101604052809392919081815260200183838082843760009201919091525061181492505050565b9050610a5d61438a565b6001600160a01b03808916825260608084015182166020840181905291891660408401819052600b89900b91840191909152600091610a9b916119d8565b9050600080610aae8460000151846119ed565b9150915061076f8482848b8b8a611b0d565b6000610aca61258b565b905090565b6000306001600160a01b0316637730599e6040518163ffffffff1660e01b8152600401602060405180830381865afa158015610b0f573d6000803e3d6000fd5b505050506040513d601f19601f82011682018060405250810190610aca919061499f565b606061056d8585600760016001605f1b038787610bf7565b6060610b5c8686600087878761128e565b9695505050505050565b60606000610baa8785858080601f01602080910402602001604051908101604052809392919081815260200183838082843760009201919091525061181492505050565b9050610bb461438a565b6001600160a01b038089168252606080840151821660208401529088166040830152600b87900b90820152610beb8186868561259e565b98975050505050505050565b606082828080601f0160208091040260200160405190810160405280939291908181526020018383808284376000920182905250939450610c4292508a915089905088888888612719565b9050610c4c6143b1565b60ff87168152600b86900b60208201526060820151600090610c6e908a6114b6565b9050896001600160a01b031663a1b2bf8b82610c89856127e0565b6040518363ffffffff1660e01b8152600401610ca69291906149f3565b600060405180830381600087803b158015610cc057600080fd5b505af1158015610cd4573d6000803e3d6000fd5b50505050886001600160a01b031683606001516001600160a01b03168b6001600160a01b03166000805160206152148339815191528b8b604051610d19929190614645565b60405180910390a45050509695505050505050565b600081600b0b600003610d43575060006105d5565b60007f00000000000000000000000000000000000000000000000000000000000000006001600160a01b031663289b3c0d6040518163ffffffff1660e01b8152600401602060405180830381865afa158015610da3573d6000803e3d6000fd5b505050506040513d601f19601f82011682018060405250810190610dc79190614a0c565b90506000816001600160a01b03166380f70cba7f0000000000000000000000000000000000000000000000000000000000000000876000805160206152348339815191526040518463ffffffff1660e01b8152600401610e2993929190614a29565b602060405180830381865afa158015610e46573d6000803e3d6000fd5b505050506040513d601f19601f82011682018060405250810190610e6a919061499f565b90506000826001600160a01b03166380f70cba7f0000000000000000000000000000000000000000000000000000000000000000886000805160206151d48339815191526040518463ffffffff1660e01b8152600401610ecc93929190614a29565b602060405180830381865afa158015610ee9573d6000803e3d6000fd5b505050506040513d601f19601f82011682018060405250810190610f0d919061499f565b9050602081901c63ffffffff16610f25838288612856565b979650505050505050565b60606000610f748885858080601f01602080910402602001604051908101604052809392919081815260200183838082843760009201919091525061181492505050565b9050866001600160a01b031681606001516001600160a01b031603610fac576040516325cc989b60e11b815260040160405180910390fd5b6000806000610fc08b8b8660600151610505565b925092509250610fd1826000611a2b565b610fee576040516328faadab60e21b815260040160405180910390fd5b6000600b82900b60016001605f1b03146110115761100c898361492b565b611013565b815b9050600081600b0b121561103a5760405163a0645c1f60e01b815260040160405180910390fd5b6110468c858584611a86565b5050505061105261438a565b6001600160a01b03808a168252888116602083015287166040820152600b86900b60608201526110848186868561259e565b9998505050505050505050565b600054610100900460ff16158080156110b15750600054600160ff909116105b806110cb5750303b1580156110cb575060005460ff166001145b6111335760405162461bcd60e51b815260206004820152602e60248201527f496e697469616c697a61626c653a20636f6e747261637420697320616c72656160448201526d191e481a5b9a5d1a585b1a5e995960921b60648201526084015b60405180910390fd5b6000805460ff191660011790558015611156576000805461ff0019166101001790555b80156107d0576000805461ff0019169055604051600181527f7f26b83ff96e1f2b6a682f133852f6798a09c465da95921460cefb3847402498906020015b60405180910390a150565b60008060008060006111b1888861175b565b9150915081156111ee578060200151600b0b8160000151876111d39190614a4d565b6111dd9190614a74565b945080604001519350806060015192505b505093509350939050565b60008060008060006105ac87876119ed565b6060610b5c868660008787876113f0565b606060006112608785858080601f01602080910402602001604051908101604052809392919081815260200183838082843760009201919091525061181492505050565b9050600061127388888460600151610505565b509150506000611284826002611a2b565b905061093661438a565b606082828080601f01602080910402602001604051908101604052809392919081815260200183838082843760009201829052509394506112d992508a915089905088888888612719565b905060008060006112ef8b85606001518c610505565b9250925092506000611301838b6105d0565b9050600061130f8a8461492b565b9050600081600b0b1215611336576040516386e0377d60e01b815260040160405180910390fd5b6113428d868484611a86565b8b6001600160a01b031686606001516001600160a01b03168e6001600160a01b03166000805160206152148339815191528585604051611383929190614645565b60405180910390a45050505050509695505050505050565b60008060008060006113b18861066889896119d8565b805160208201516040830151606090930151919c909b50919950975095505050505050565b6000806113e3848461175b565b6020015195945050505050565b606082828080601f016020809104026020016040519081016040528093929190818152602001838380828437600092018290525093945061143b92508a915089905088888888612719565b905060008060006114518b85606001518c610505565b9194509250905060006114648983614aa4565b9050828a176114758d868385611a86565b8b6001600160a01b031686606001516001600160a01b03168e6001600160a01b03166000805160206152148339815191528486604051611383929190614645565b600082826040516020016115039291906060808252600c908201526b333637bba7b832b930ba37b960a11b60808201526001600160a01b0392831660208201529116604082015260a00190565b60405160208183030381529060405280519060200120905092915050565b600061152b6143b1565b604051636c2d9f2f60e01b81526000906001600160a01b03861690636c2d9f2f9061155f9030908890600190600401614ad1565b600060405180830381865afa15801561157c573d6000803e3d6000fd5b505050506040513d6000823e601f3d908101601f191682016040526115a49190810190614b61565b90506115cc816000815181106115bc576115bc614bfa565b602002602001015160001c6128c9565b92509250505b9250929050565b60008060007f00000000000000000000000000000000000000000000000000000000000000006001600160a01b031663289b3c0d6040518163ffffffff1660e01b8152600401602060405180830381865afa15801561163c573d6000803e3d6000fd5b505050506040513d601f19601f820116820180604052508101906116609190614a0c565b90506000816001600160a01b03166380f70cba7f0000000000000000000000000000000000000000000000000000000000000000876000805160206151d48339815191526040518463ffffffff1660e01b81526004016116c293929190614a29565b602060405180830381865afa1580156116df573d6000803e3d6000fd5b505050506040513d601f19601f82011682018060405250810190611703919061499f565b63ffffffff602082901c811697911695509350505050565b600060016001605f1b0382111561174557604051631d4b0ae760e21b815260040160405180910390fd5b63ffffffff198216915060006105548484614c26565b60006117656143c8565b604051634b61cc3360e01b81523060048201526001600160a01b038481166024830152600060448301819052600160648401529190861690634b61cc33906084015b600060405180830381865afa1580156117c4573d6000803e3d6000fd5b505050506040513d6000823e601f3d908101601f191682016040526117ec9190810190614b61565b90506115cc8160008151811061180457611804614bfa565b602002602001015160001c6128ff565b61181c6143f3565b336001600160a01b0316836001600160a01b03166320bc44256040518163ffffffff1660e01b8152600401602060405180830381865afa158015611864573d6000803e3d6000fd5b505050506040513d601f19601f820116820180604052508101906118889190614a0c565b6001600160a01b0316146118d25760405162461bcd60e51b81526020600482015260116024820152701d5b985d5d1a1bdc9a5e9959081a1bdcdd607a1b604482015260640161112a565b604051632fd0a1cd60e21b8152339063bf428734906118f5908590600401614632565b602060405180830381865afa158015611912573d6000803e3d6000fd5b505050506040513d601f19601f820116820180604052508101906119369190614c55565b6119705760405162461bcd60e51b815260206004820152600b60248201526a0d2dcecc2d8d2c840c6e8f60ab1b604482015260640161112a565b604051631fb6491d60e11b81523390633f6c923a90611993908590600401614632565b600060405180830381865afa1580156119b0573d6000803e3d6000fd5b505050506040513d6000823e601f3d908101601f1916820160405261089f9190810190614cf6565b60008282604051602001611503929190614dfc565b60006119f76143c8565b604051636c2d9f2f60e01b81526000906001600160a01b03861690636c2d9f2f906117a79030908890600190600401614ad1565b600080826002811115611a4057611a40614e16565b03611a5157506001828116146105d5565b6001826002811115611a6557611a65614e16565b03611a785750600182811c8116146105d5565b505060021c60019081161490565b611a8e6143b1565b60ff83168152600b82900b60208201526001600160a01b03851663a1b2bf8b85611ab7846127e0565b6040518363ffffffff1660e01b8152600401611ad49291906149f3565b600060405180830381600087803b158015611aee57600080fd5b505af1158015611b02573d6000803e3d6000fd5b505050505050505050565b60606000611b1b8884612958565b91505085611b3c5760405163168cafc960e21b815260040160405180910390fd5b6040808901519051631e51d6a760e11b81523391633ca3ad4e91611b639190600401614888565b602060405180830381865afa158015611b80573d6000803e3d6000fd5b505050506040513d601f19601f82011682018060405250810190611ba49190614c55565b15611c0057611bf988604001518960000151838a89898080601f0160208091040260200160405190810160405280939291908181526020018383808284376000920191909152508b925060019150612a339050565b9150611c4b565b611c488860000151828988888080601f0160208091040260200160405190810160405280939291908181526020018383808284376000920191909152508a925061318a915050565b91505b611c5e886000015189602001518561325d565b611c6788613332565b509695505050505050565b6000611c7c61258b565b6001600160a01b031603611cd25760405162461bcd60e51b815260206004820152601d60248201527f5555505350726f786961626c653a206e6f742075706772616461626c65000000604482015260640161112a565b806001600160a01b03166352d1902d6040518163ffffffff1660e01b8152600401602060405180830381865afa158015611d10573d6000803e3d6000fd5b505050506040513d601f19601f82011682018060405250810190611d34919061499f565b611d3c610acf565b14611d955760405162461bcd60e51b815260206004820152602360248201527f5555505350726f786961626c653a206e6f7420636f6d70617469626c65206c6f60448201526267696360e81b606482015260840161112a565b6001600160a01b0381163003611de95760405162461bcd60e51b815260206004820152601960248201527805555505350726f786961626c653a2070726f7879206c6f6f7603c1b604482015260640161112a565b611dff816000805160206151f483398151915255565b7fe011bc04c286c344a8fcbb8de77f953da762c3e25d8cdea984147fc4168a5dcc611e28610acf565b604080519182526001600160a01b038416602083015201611194565b60006001600160ff1b03821115611eae5760405162461bcd60e51b815260206004820152602860248201527f53616665436173743a2076616c756520646f65736e27742066697420696e2061604482015267371034b73a191a9b60c11b606482015260840161112a565b5090565b600083600003611ec457506000610554565b6000611ed08587614e2c565b90506000611ede8587614e54565b9050611eea8486614e82565b611ef48284614e54565b13979650505050505050565b6060611f0a61444e565b60208701516001600160a01b0316611f3557604051631ce9b06760e01b815260040160405180910390fd5b60408701516001600160a01b0316611f6057604051633c70159560e11b815260040160405180910390fd5b611f72876020015188604001516119d8565b8082526020808901516001600160a01b03908116918401919091526040808a01518216908401526060808601519091169083015260006080830181905260a08086015190840152885190918291611fc8916119ed565b9150915081611fea5760405163168cafc960e21b815260040160405180910390fd5b885160208a01516040808801519051633acd4df360e21b81526000936001600160a01b03169263eb3537cc9261202292600401614958565b606060405180830381865afa15801561203f573d6000803e3d6000fd5b505050506040513d601f19601f820116820180604052508101906120639190614971565b5050905089602001516001600160a01b031686606001516001600160a01b0316141580156120ab575089604001516001600160a01b031686606001516001600160a01b031614155b80156120b5575088155b156121ba5760208a0151604051636b4f333560e01b81523391636b4f3335916120e19190600401614888565b602060405180830381865afa1580156120fe573d6000803e3d6000fd5b505050506040513d601f19601f820116820180604052508101906121229190614c55565b15801561219457506040808b01519051636b4f333560e01b81523391636b4f3335916121519190600401614888565b602060405180830381865afa15801561216e573d6000803e3d6000fd5b505050506040513d601f19601f820116820180604052508101906121929190614c55565b155b156121ba57600081126121ba5760405163ce11b5d160e01b815260040160405180910390fd5b60008112156121d8576121d88a600001518286858a606001516133ca565b87878080601f01602080910402602001604051908101604052809392919081815260200183838082843760009201919091525050505060208b015160608801519196506001600160a01b039081169116036122c8576040808b01519051631e51d6a760e11b81523391633ca3ad4e916122549190600401614888565b602060405180830381865afa158015612271573d6000803e3d6000fd5b505050506040513d601f19601f820116820180604052508101906122959190614c55565b156122b9576122b28a604001518b600001518685898b6002612a33565b9450612575565b89516122b2908584888a61318a565b89604001516001600160a01b031686606001516001600160a01b0316036123f05760208a0151604051631e51d6a760e11b81523391633ca3ad4e916123109190600401614888565b602060405180830381865afa15801561232d573d6000803e3d6000fd5b505050506040513d601f19601f820116820180604052508101906123519190614c55565b1561236e576122b28a602001518b600001518685898b6002612a33565b6040808b01519051631e51d6a760e11b81523391633ca3ad4e916123959190600401614888565b602060405180830381865afa1580156123b2573d6000803e3d6000fd5b505050506040513d601f19601f820116820180604052508101906123d69190614c55565b156122b9576122b260008b600001518685898b6002612a33565b60208a0151604051631e51d6a760e11b81523391633ca3ad4e916124179190600401614888565b602060405180830381865afa158015612434573d6000803e3d6000fd5b505050506040513d601f19601f820116820180604052508101906124589190614c55565b80156124645750600081125b156124de5760208a0151604051635b92108f60e11b8152339163b724211e91612494918991600b90600401614e95565b6000604051808303816000875af11580156124b3573d6000803e3d6000fd5b505050506040513d6000823e601f3d908101601f191682016040526124db9190810190614ec3565b94505b6040808b01519051631e51d6a760e11b81523391633ca3ad4e916125059190600401614888565b602060405180830381865afa158015612522573d6000803e3d6000fd5b505050506040513d601f19601f820116820180604052508101906125469190614c55565b15612563576122b28a604001518b600001518685898b6002612a33565b8951612572908584888a61318a565b94505b61257e8a6135d6565b5050505095945050505050565b6000805160206151f48339815191525490565b60606000806125ad8785612958565b915091506000806125c28960000151856119ed565b9150915081156125e55760405163801b686360e01b815260040160405180910390fd5b6040808a01519051631e51d6a760e11b81523391633ca3ad4e9161260c9190600401614888565b602060405180830381865afa158015612629573d6000803e3d6000fd5b505050506040513d601f19601f8201168201806040525081019061264d9190614c55565b156126a65761269f89604001518a6000015185848c8c8080601f01602080910402602001604051908101604052809392919081815260200183838082843760009201829052508f93509150612a339050565b94506126f1565b6126ee896000015184838b8b8080601f0160208091040260200160405190810160405280939291908181526020018383808284376000920191909152508d925061318a915050565b94505b61270489600001518a602001518861325d565b61270d89613636565b50505050949350505050565b6127216143f3565b60f885161561274357604051631e4e759b60e21b815260040160405180910390fd5b6127838784848080601f01602080910402602001604051908101604052809392919081815260200183838082843760009201919091525061181492505050565b9050856001600160a01b031681606001516001600160a01b0316036127bb5760405163b0ed394d60e01b815260040160405180910390fd5b600084600b0b1215610b5c576040516386e0377d60e01b815260040160405180910390fd5b606060008260200151600b0b12156127fa576127fa614ef7565b60408051600180825281830190925290602080830190803683370190505090508160200151600b0b6080836000015160ff16901b1760001b8160008151811061284557612845614bfa565b602002602001018181525050919050565b60008082600b0b121561287c576040516348d6568b60e11b815260040160405180910390fd5b60016001605f1b0361289284600b85900b614f0d565b11156128b157604051630c9c55c160e01b815260040160405180910390fd5b60006128bd8385613696565b905061056d85826136da565b60006128d36143b1565b8215801592506128fa5760016001605f1b038316600b0b6020820152608083901c60ff1681525b915091565b60006129096143c8565b8215801592506128fa5760e083901c8152608083901c6001600160601b0316600b0b602080830191909152600160201b600160601b0384821c811660408401529084901b166060820152915091565b600061296261444e565b60408401516001600160a01b031661298d57604051633c70159560e11b815260040160405180910390fd5b61299f846020015185604001516119d8565b8082526020808601516001600160a01b0390811691840182905260408088015182169085018190526060808801519092168286015290870151600b0b608085015260a0808701519085015291935003612a0b5760405163a47338ef60e01b815260040160405180910390fd5b60008160800151600b0b136115d2576040516348d6568b60e11b815260040160405180910390fd5b82612a3c614485565b6001600160a01b03891615612d12576000612abc898b8a600001518b602001518c60400151604051602001612a72929190614dfc565b60408051601f1981840301815260e08301825260006080840181905260a0840181905260c08401526001600160a01b03958616835293909416602082015292830152606082015290565b90506000846002811115612ad257612ad2614e16565b03612ae657600160201b60c0820152612b19565b6001846002811115612afa57612afa614e16565b03612b0e57600160221b60c0820152612b19565b600160241b60c08201525b612b2381876136f0565b82600001819052506000336001600160a01b031663289b3c0d6040518163ffffffff1660e01b8152600401602060405180830381865afa158015612b6b573d6000803e3d6000fd5b505050506040513d601f19601f82011682018060405250810190612b8f9190614a0c565b9050612ba786604001518761014001518c8c8c6138a6565b5060808401525060405163407b865d60e11b81526000906001600160a01b038316906380f70cba90612bef9033908f9060008051602061523483398151915290600401614a29565b602060405180830381865afa158015612c0c573d6000803e3d6000fd5b505050506040513d601f19601f82011682018060405250810190612c30919061499f565b905060008360800151600014612c5357612c4e600160201b836136da565b612c56565b60005b9050808460800151612c689190614f24565b608085015260608a0151612c7b90611e44565b60a08501526000876002811115612c9457612c94614e16565b03612ca857600160211b60c0850152612cdb565b6001876002811115612cbc57612cbc614e16565b03612cd057600160231b60c0850152612cdb565b600160251b60c08501525b612cea84866000015188613c78565b60408701919091528b51909650612d02908d906119ed565b602087015250612d309350505050565b612d2884604001518561014001518a8a8a6138a6565b602084015250505b6000612d3f8760600151611e44565b82604001516101000151612d539190614a4d565b9050612d7981612d6a846020015160400151611e44565b612d749190614e2c565b613ec3565b82602001516040018181525050612d9b81612d6a846020015160600151611e44565b60208301805160600191909152885190516001600160a01b038b169163a1b2bf8b91612dc690613f15565b6040518363ffffffff1660e01b8152600401612de39291906149f3565b600060405180830381600087803b158015612dfd57600080fd5b505af1158015612e11573d6000803e3d6000fd5b50505050612e2d89896020015160008460008a60400151613f81565b50612e45898960400151600080858a60400151613f81565b506101408501516001600160a01b03161580612e775750886001600160a01b03168561014001516001600160a01b0316145b15612eeb576040516359a2914160e01b815233906359a2914190612ea19086908590600401614f37565b6000604051808303816000875af1158015612ec0573d6000803e3d6000fd5b505050506040513d6000823e601f3d908101601f19168201604052612ee89190810190614ec3565b92505b6040808901519051631e51d6a760e11b81523391633ca3ad4e91612f129190600401614888565b602060405180830381865afa158015612f2f573d6000803e3d6000fd5b505050506040513d601f19601f82011682018060405250810190612f539190614c55565b1561317d57604080890151868201519151633acd4df360e21b81526000926001600160a01b038d169263eb3537cc92612f8f9290600401614958565b606060405180830381865afa158015612fac573d6000803e3d6000fd5b505050506040513d601f19601f82011682018060405250810190612fd09190614971565b5090915050600081121561317b576002856002811115612ff257612ff2614e16565b0361315f576040808a01519051635b92108f60e11b8152339163b724211e91613022918891600c90600401614e95565b6000604051808303816000875af1158015613041573d6000803e3d6000fd5b505050506040513d6000823e601f3d908101601f191682016040526130699190810190614ec3565b9350600061308761307983614f59565b61308285614f59565b6140f0565b90508a6001600160a01b031663cf97256d8b60200151836130a790614f59565b6040518363ffffffff1660e01b81526004016130c4929190614958565b600060405180830381600087803b1580156130de57600080fd5b505af11580156130f2573d6000803e3d6000fd5b5050506040808c0151905163cf97256d60e01b81526001600160a01b038e16925063cf97256d91613127918590600401614958565b600060405180830381600087803b15801561314157600080fd5b505af1158015613155573d6000803e3d6000fd5b505050505061317b565b60405163a85ba64f60e01b8152600c600482015260240161112a565b505b5050979650505050505050565b6060838101511561319d5761319d614ef7565b60006131a76143c8565b6131bd84604001518561014001518a8a8a6138a6565b6101408701519294509250506001600160a01b03808a1691160361324e576040516359a2914160e01b815233906359a29141906132009088908690600401614f37565b6000604051808303816000875af115801561321f573d6000803e3d6000fd5b505050506040513d6000823e601f3d908101601f191682016040526132479190810190614ec3565b9250613252565b8492505b505095945050505050565b602081015160ff16600314158061328b5750826001600160a01b03168161014001516001600160a01b031614155b1561332d576000836001600160a01b031663eb3537cc8484604001516040518363ffffffff1660e01b81526004016132c4929190614958565b606060405180830381865afa1580156132e1573d6000803e3d6000fd5b505050506040513d601f19601f820116820180604052508101906133059190614971565b50509050600081121561332b5760405163ea76c9b360e01b815260040160405180910390fd5b505b505050565b60005a905060006133468360000151614105565b90506001600160a01b0381161561332d578251602084015160408086015190516375aa53e560e11b81526001600160a01b0385169363eb54a7ca93613392939192909190600401614f75565b600060405180830381600087803b1580156133ac57600080fd5b505af19250505080156133bd575060015b61332d5761332d826141b4565b60006133da86856020015161175b565b91505060006133ec8460400151611e44565b905060006133fd8360400151611e44565b9050606060008061340e848b614e2c565b905060008061341c8d6115d9565b9150915061342c8c878484611eb2565b9350505060008112613517576000846134458388614a74565b61344f9190614e54565b905060018361345f576001613462565b60005b6040805160ff9384166020820152929091169082015260600160405160208183030381529060405293508b6001600160a01b0316631863e8098b60000151868b878f602001516134b188613ec3565b6134bd89600019614a74565b6040518863ffffffff1660e01b81526004016134df9796959493929190614f98565b600060405180830381600087803b1580156134f957600080fd5b505af115801561350d573d6000803e3d6000fd5b50505050506135c9565b6040805160016020820152600291810191909152859060600160405160208183030381529060405293508b6001600160a01b0316631863e8098b60000151868b60008f6020015161356788613ec3565b6135738a600019614a74565b6040518863ffffffff1660e01b81526004016135959796959493929190614f98565b600060405180830381600087803b1580156135af57600080fd5b505af11580156135c3573d6000803e3d6000fd5b50505050505b5050505050505050505050565b60005a905060006135ea8360000151614105565b90506001600160a01b0381161561332d5782516020840151604080860151905163ef1f023760e01b81526001600160a01b0385169363ef1f023793613392939192909190600401614f75565b60005a9050600061364a8360000151614105565b90506001600160a01b0381161561332d5782516020840151604080860151905163f7e3d98360e01b81526001600160a01b0385169363f7e3d98393613392939192909190600401614f75565b600082600b0b6000036136ab575060006105d5565b60016001605f1b038211156136c2576136c2614ef7565b6136cc8284614fe5565b600b0b905061089f816141db565b60008183116136e9578161089f565b5090919050565b60606000806000336001600160a01b031663f9f522f487602001516040518263ffffffff1660e01b81526004016137279190614888565b606060405180830381865afa158015613744573d6000803e3d6000fd5b505050506040513d601f19601f820116820180604052508101906137689190615005565b9194509250905082801561377a575081155b1561389d57600061378b868861420f565b90508660c00151821660000361388f5760006137aa8860c0015161428d565b88516040808b015160608c0151825160008152602081019093526137d693923092919060448101615041565b60408051601f19818403018152918152602080830180516001600160e01b03166001600160e01b031990951694909417909352918a015160c08b01519251633a020f0160e11b815291935033926374041e029261384492918691600160241b91909114908890600401615086565b6000604051808303816000875af1158015613863573d6000803e3d6000fd5b505050506040513d6000823e601f3d908101601f1916820160405261388b9190810190614ec3565b9550505b61389a86600061431f565b50505b50505092915050565b6000806138b16143c8565b60008060006138bf896115d9565b5090506000336001600160a01b031663289b3c0d6040518163ffffffff1660e01b8152600401602060405180830381865afa158015613902573d6000803e3d6000fd5b505050506040513d601f19601f820116820180604052508101906139269190614a0c565b60405163407b865d60e11b81529091506001600160a01b038216906380f70cba906139679033908e9060008051602061523483398151915290600401614a29565b602060405180830381865afa158015613984573d6000803e3d6000fd5b505050506040513d601f19601f820116820180604052508101906139a8919061499f565b92506139b8896080015183613696565b955050506139c98660600151611e44565b6139d68760400151611e44565b6139df86611e44565b6139e99190614a4d565b6139f39190614e2c565b9450613a0685612d6a8860400151611e44565b91508082108015613a1e575060008760800151600b0b135b15613a6057613a308660600151611e44565b613a3d8760400151611e44565b613a4683611e44565b613a509190614a4d565b613a5a9190614e2c565b94508091505b6001600160a01b03891615801590613a8a5750876001600160a01b0316896001600160a01b031614155b15613a9457600093505b604051806080016040528060008960800151600b0b13613ab5576000613ab7565b8b5b81526020018860800151600b0b815260200183815260200187606001518152509250876001600160a01b031663a1b2bf8b8860000151613af686613f15565b6040518363ffffffff1660e01b8152600401613b139291906149f3565b600060405180830381600087803b158015613b2d57600080fd5b505af1158015613b41573d6000803e3d6000fd5b505060408051808201909152600080825260208201529250613b61915050565b613b8788886020015189608001518960200151613b7e919061492b565b8860008f613f81565b600b0b8152604087015160208701516080890151613bb6928b929091613bad919061492b565b6000808f613f81565b600b0b60208083018290526040808a0151918a015160808b0151855160a08d015193516001600160a01b0395861696938616958f16947f57269d2ebcccecdcc0d9d2c0a0b80ead95f344e28ec20f50f709811f209d4e0e94613c1c9493929091906150c4565b60405180910390a486606001516001600160a01b03167f71e0c98e270fc3084227b473f176924d5303ece8c639e679998a2d7dc8e70f7483604051613c6391815260200190565b60405180910390a25050955095509592505050565b613c806143f3565b60606000806000336001600160a01b031663f9f522f489602001516040518263ffffffff1660e01b8152600401613cb79190614888565b606060405180830381865afa158015613cd4573d6000803e3d6000fd5b505050506040513d601f19601f82011682018060405250810190613cf89190615005565b88965091945092509050828015613d0d575081155b15613eb857613d1c848961420f565b93508760c001518116600003613ea6576000613d3b8960c0015161428d565b89516040808c015160608d015182516000815260208101909352613d699392309291908e90604481016150f2565b60408051601f19818403018152918152602080830180516001600160e01b03166001600160e01b031990951694909417909352918b015160c08c0151925163079b42a160e21b81529193503392631e6d0a8492613dd792918691600160251b91909114908b90600401615086565b6000604051808303816000875af1158015613df6573d6000803e3d6000fd5b505050506040513d6000823e601f3d908101601f19168201604052613e1e9190810190614ec3565b604051631fb6491d60e11b81529095503390633f6c923a90613e44908890600401614632565b600060405180830381865afa158015613e61573d6000803e3d6000fd5b505050506040513d6000823e601f3d908101601f19168201604052613e899190810190614cf6565b9550613e9e8960800151876101000151614347565b610100870152505b613eb58686610100015161431f565b93505b505050935093915050565b600080821215611eae5760405162461bcd60e51b815260206004820181905260248201527f53616665436173743a2076616c7565206d75737420626520706f736974697665604482015260640161112a565b6040805160018082528183019092526060916020808301908036833701905050905060208260600151901c604060208460400151901c901b608084602001516001600160601b0316901b60e08560000151901b17171760001b8160008151811061284557612845614bfa565b600080613f8e888861175b565b91505060008160200151600b0b613fb3836000015186613fae9190614e82565b611e44565b613fbd9190614a74565b905080156140265760405163cf97256d60e01b81526001600160a01b038a169063cf97256d90613ff3908b908590600401614958565b600060405180830381600087803b15801561400d57600080fd5b505af1158015614021573d6000803e3d6000fd5b505050505b8682602001516140369190614aa4565b600b0b60208301528382526040820151614055908790612d6a90611e44565b6040830152606082015161406e908690612d6a90611e44565b60608301526001600160a01b03891663090c415e89600061408e86613f15565b6040518463ffffffff1660e01b81526004016140ac9392919061514b565b600060405180830381600087803b1580156140c657600080fd5b505af11580156140da573d6000803e3d6000fd5b5050506020909201519998505050505050505050565b60008183136140ff578261089f565b50919050565b60408051600481526024810182526020810180516001600160e01b03166377a1e96360e11b1790529051600091829182916001600160a01b0386169161414b9190615172565b600060405180830381855afa9150503d8060008114614186576040519150601f19603f3d011682016040523d82523d6000602084013e61418b565b606091505b509150915081156141ad57808060200190518101906141aa9190614a0c565b92505b5050919050565b6141bd81614365565b156107d0576040516320afada560e01b815260040160405180910390fd5b60008063ffffffff83166141f05760006141f3565b60015b60ff16905060206142068285831c614f24565b901b9392505050565b6020810151608082015160a08301518351604051630768fabb60e41b8152606094339463768fabb094614246948a9460040161518e565b6000604051808303816000875af1158015614265573d6000803e3d6000fd5b505050506040513d6000823e601f3d908101601f1916820160405261089f9190810190614ec3565b6000600160201b82036142a857506330d9c91560e01b919050565b600160221b82036142c15750630221347d60e61b919050565b600160241b82036142da5750635f9e7d7760e01b919050565b600160211b82036142f3575063d86ed3e560e01b919050565b600160231b820361430c575063230dbd2960e01b919050565b506353c11f9960e01b919050565b919050565b604051634c4d861f60e11b8152606090339063989b0c3e906142469086908690600401614f37565b600061089f600061436061435a86611e44565b856140f0565b61437b565b6000614372603f83614c26565b5a111592915050565b60008183136136e9578161089f565b60408051608081018252600080825260208201819052918101829052606081019190915290565b604080518082019091526000808252602082015290565b6040518060800160405280600081526020016000600b0b815260200160008152602001600081525090565b604080516101608101825260008082526020820181905291810182905260608082018390526080820183905260a082015260c0810182905260e081018290526101008101829052610120810182905261014081019190915290565b6040805160c0810182526000808252602082018190529181018290526060808201839052608082019290925260a081019190915290565b60405180606001604052806060815260200161449f6143c8565b81526020016144ac6143f3565b905290565b6001600160a01b03811681146107d057600080fd5b6000806000606084860312156144db57600080fd5b83356144e6816144b1565b925060208401356144f6816144b1565b91506040840135614506816144b1565b809150509250925092565b6000806040838503121561452457600080fd5b823561452f816144b1565b946020939093013593505050565b60008083601f84011261454f57600080fd5b5081356001600160401b0381111561456657600080fd5b6020830191508360208285010111156115d257600080fd5b6000806000806060858703121561459457600080fd5b843561459f816144b1565b935060208501356145af816144b1565b925060408501356001600160401b038111156145ca57600080fd5b6145d68782880161453d565b95989497509550505050565b60005b838110156145fd5781810151838201526020016145e5565b50506000910152565b6000815180845261461e8160208601602086016145e2565b601f01601f19169290920160200192915050565b60208152600061089f6020830184614606565b60ff929092168252600b0b602082015260400190565b6000806040838503121561466e57600080fd5b8235614679816144b1565b91506020830135614689816144b1565b809150509250929050565b60ff811681146107d057600080fd5b600080604083850312156146b657600080fd5b82356146c181614694565b9150602083013561468981614694565b8035600b81900b811461431a57600080fd5b60008060008060008060a087890312156146fc57600080fd5b8635614707816144b1565b95506020870135614717816144b1565b94506040870135614727816144b1565b9350614735606088016146d1565b925060808701356001600160401b0381111561475057600080fd5b61475c89828a0161453d565b979a9699509497509295939492505050565b60006020828403121561478057600080fd5b813561089f816144b1565b6000806000606084860312156147a057600080fd5b83356147ab816144b1565b925060208401356147bb816144b1565b929592945050506040919091013590565b6000806000806000608086880312156147e457600080fd5b85356147ef816144b1565b945060208601356147ff816144b1565b9350604086013561480f816144b1565b925060608601356001600160401b0381111561482a57600080fd5b6148368882890161453d565b969995985093965092949392505050565b60008060008060006080868803121561485f57600080fd5b853561486a816144b1565b9450602086013561487a816144b1565b935061480f604087016146d1565b6001600160a01b0391909116815260200190565b60008060008060008060a087890312156148b557600080fd5b86356148c0816144b1565b955060208701356148d0816144b1565b9450604087013561472781614694565b600080604083850312156148f357600080fd5b82356148fe816144b1565b915061490c602084016146d1565b90509250929050565b634e487b7160e01b600052601160045260246000fd5b600b82810b9082900b0360016001605f1b0319811260016001605f1b03821317156105d5576105d5614915565b6001600160a01b03929092168252602082015260400190565b60008060006060848603121561498657600080fd5b8351925060208401519150604084015190509250925092565b6000602082840312156149b157600080fd5b5051919050565b600081518084526020808501945080840160005b838110156149e8578151875295820195908201906001016149cc565b509495945050505050565b82815260406020820152600061055460408301846149b8565b600060208284031215614a1e57600080fd5b815161089f816144b1565b6001600160a01b039384168152919092166020820152604081019190915260600190565b8181036000831280158383131683831282161715614a6d57614a6d614915565b5092915050565b80820260008212600160ff1b84141615614a9057614a90614915565b81810583148215176105d5576105d5614915565b600b81810b9083900b0160016001605f1b03811360016001605f1b0319821217156105d5576105d5614915565b6001600160a01b039390931683526020830191909152604082015260600190565b634e487b7160e01b600052604160045260246000fd5b60405161016081016001600160401b0381118282101715614b2b57614b2b614af2565b60405290565b604051601f8201601f191681016001600160401b0381118282101715614b5957614b59614af2565b604052919050565b60006020808385031215614b7457600080fd5b82516001600160401b0380821115614b8b57600080fd5b818501915085601f830112614b9f57600080fd5b815181811115614bb157614bb1614af2565b8060051b9150614bc2848301614b31565b8181529183018401918481019088841115614bdc57600080fd5b938501935b83851015610beb57845182529385019390850190614be1565b634e487b7160e01b600052603260045260246000fd5b634e487b7160e01b600052601260045260246000fd5b600082614c3557614c35614c10565b500490565b805161431a816144b1565b8051801515811461431a57600080fd5b600060208284031215614c6757600080fd5b61089f82614c45565b805161431a81614694565b80516001600160e01b03198116811461431a57600080fd5b600082601f830112614ca457600080fd5b81516001600160401b03811115614cbd57614cbd614af2565b614cd0601f8201601f1916602001614b31565b818152846020838601011115614ce557600080fd5b6105548260208301602087016145e2565b600060208284031215614d0857600080fd5b81516001600160401b0380821115614d1f57600080fd5b908301906101608286031215614d3457600080fd5b614d3c614b08565b614d4583614c70565b8152614d5360208401614c70565b602082015260408301516040820152614d6e60608401614c3a565b6060820152614d7f60808401614c7b565b608082015260a083015182811115614d9657600080fd5b614da287828601614c93565b60a08301525060c083015160c082015260e083015160e0820152610100915081830151828201526101209150614dd9828401614c3a565b828201526101409150614ded828401614c3a565b91810191909152949350505050565b6001600160a01b0392831681529116602082015260400190565b634e487b7160e01b600052602160045260246000fd5b8082018281126000831280158216821582161715614e4c57614e4c614915565b505092915050565b600082614e6357614e63614c10565b600160ff1b821460001984141615614e7d57614e7d614915565b500590565b818103818111156105d5576105d5614915565b606081526000614ea86060830186614606565b6001600160a01b039490941660208301525060400152919050565b600060208284031215614ed557600080fd5b81516001600160401b03811115614eeb57600080fd5b61055484828501614c93565b634e487b7160e01b600052600160045260246000fd5b80820281158282048414176105d5576105d5614915565b808201808211156105d5576105d5614915565b604081526000614f4a6040830185614606565b90508260208301529392505050565b6000600160ff1b8201614f6e57614f6e614915565b5060000390565b6001600160a01b0393841681529183166020830152909116604082015260600190565b87815260e060208201526000614fb160e0830189614606565b6001600160a01b03978816604084015295151560608301525092909416608083015260a082015260c0019190915292915050565b600082600b0b82600b0b0280600b0b9150808214614a6d57614a6d614915565b60008060006060848603121561501a57600080fd5b61502384614c45565b925061503160208501614c45565b9150604084015190509250925092565b6001600160a01b038681168252851660208201526040810184905260a06060820181905260009061507490830185614606565b8281036080840152610beb8185614606565b6001600160a01b03851681526080602082018190526000906150aa90830186614606565b84151560408401528281036060840152610f258185614606565b84600b0b815283600b0b602082015282600b0b6040820152608060608201526000610b5c6080830184614606565b6001600160a01b038781168252861660208201526040810185905260c06060820181905260009061512590830186614606565b82810360808401526151378186614606565b905082810360a08401526110848185614606565b60018060a01b038416815282602082015260606040820152600061056d60608301846149b8565b600082516151848184602087016145e2565b9190910192915050565b60a0815260006151a160a0830188614606565b6001600160a01b039687166020840152604083019590955250606081019290925290921660809092019190915291905056fee420d96e81cb4a6b2abb2366c4f93312d4e2ae878a7d4b22e73472fdad891f78360894a13ba1a3210667c828492db98dca3e2076cc3735a920a3ca505d382bbcc0d5d3a6ac18cc1769788c925e6e7fc89cd47e4270a42884736fa9b3ec09f3a8eae305fa863b373417e615b1044222e2806cefc7788d169ce6748a443c3f6cc4a26469706673582212209d0a835539dc34ddc12be75a5035e2e55f33c85c79f83364cf677d13e2e2a0fa64736f6c63430008130033",
    "linkReferences": {}
  },
  "methodIdentifiers": {
    "CFA_HOOK_GAS_LIMIT()": "bf3fbc28",
    "DEFAULT_MINIMUM_DEPOSIT()": "04aafa49",
    "MAXIMUM_DEPOSIT()": "9cb28b72",
    "MAXIMUM_FLOW_RATE()": "26b0f536",
    "addPermissions(uint8,uint8)": "72976490",
    "agreementType()": "7730599e",
    "authorizeFlowOperatorWithFullControl(address,address,bytes)": "54b770e3",
    "castrate()": "9903ad38",
    "createFlow(address,address,int96,bytes)": "62fc305e",
    "createFlowByOperator(address,address,address,int96,bytes)": "94229ecb",
    "decreaseFlowRateAllowance(address,address,int96,bytes)": "5f51fb23",
    "decreaseFlowRateAllowanceWithPermissions(address,address,uint8,int96,bytes)": "da6b5f30",
    "deleteFlow(address,address,address,bytes)": "b4b333c6",
    "deleteFlowByOperator(address,address,address,bytes)": "4c8b181f",
    "getAccountFlowInfo(address,address)": "0f1ac495",
    "getCodeAddress()": "50d75d25",
    "getDepositRequiredForFlowRate(address,int96)": "8d997f6e",
    "getFlow(address,address,address)": "e6a1e888",
    "getFlowByID(address,bytes32)": "aabd2668",
    "getFlowOperatorData(address,address,address)": "00422bbe",
    "getFlowOperatorDataByID(address,bytes32)": "09d256ef",
    "getMaximumFlowRateFromDeposit(address,uint256)": "0602f7db",
    "getNetFlow(address,address)": "e8e7e2d1",
    "increaseFlowRateAllowance(address,address,int96,bytes)": "ac5f5d00",
    "increaseFlowRateAllowanceWithPermissions(address,address,uint8,int96,bytes)": "f31f88f0",
    "isPatricianPeriod(address,address,uint256)": "4b839e0b",
    "isPatricianPeriodNow(address,address)": "4fe9c291",
    "proxiableUUID()": "52d1902d",
    "realtimeBalanceOf(address,address,uint256)": "9b2e48bc",
    "removePermissions(uint8,uint8)": "2567f578",
    "revokeFlowOperatorWithFullControl(address,address,bytes)": "062e56ec",
    "updateCode(address)": "46951954",
    "updateFlow(address,address,int96,bytes)": "50209a62",
    "updateFlowByOperator(address,address,address,int96,bytes)": "354b9590",
    "updateFlowOperatorPermissions(address,address,uint8,int96,bytes)": "811b3d40"
  },
  "id": 49
}