{
  "abi": [
    {
      "inputs": [
        {
          "internalType": "contract ISuperfluid",
          "name": "host",
          "type": "address"
        }
      ],
      "stateMutability": "nonpayable",
      "type": "constructor"
    },
    {
      "inputs": [],
      "name": "CFA_FWD_INVALID_FLOW_RATE",
      "type": "error"
    },
    {
      "inputs": [
        {
          "internalType": "contract ISuperToken",
          "name": "token",
          "type": "address"
        },
        {
          "internalType": "address",
          "name": "sender",
          "type": "address"
        },
        {
          "internalType": "address",
          "name": "receiver",
          "type": "address"
        },
        {
          "internalType": "int96",
          "name": "flowrate",
          "type": "int96"
        },
        {
          "internalType": "bytes",
          "name": "userData",
          "type": "bytes"
        }
      ],
      "name": "createFlow",
      "outputs": [
        {
          "internalType": "bool",
          "name": "",
          "type": "bool"
        }
      ],
      "stateMutability": "nonpayable",
      "type": "function"
    },
    {
      "inputs": [
        {
          "internalType": "contract ISuperToken",
          "name": "token",
          "type": "address"
        },
        {
          "internalType": "address",
          "name": "sender",
          "type": "address"
        },
        {
          "internalType": "address",
          "name": "receiver",
          "type": "address"
        },
        {
          "internalType": "bytes",
          "name": "userData",
          "type": "bytes"
        }
      ],
      "name": "deleteFlow",
      "outputs": [
        {
          "internalType": "bool",
          "name": "",
          "type": "bool"
        }
      ],
      "stateMutability": "nonpayable",
      "type": "function"
    },
    {
      "inputs": [
        {
          "internalType": "contract ISuperToken",
          "name": "token",
          "type": "address"
        },
        {
          "internalType": "address",
          "name": "account",
          "type": "address"
        }
      ],
      "name": "getAccountFlowInfo",
      "outputs": [
        {
          "internalType": "uint256",
          "name": "lastUpdated",
          "type": "uint256"
        },
        {
          "internalType": "int96",
          "name": "flowrate",
          "type": "int96"
        },
        {
          "internalType": "uint256",
          "name": "deposit",
          "type": "uint256"
        },
        {
          "internalType": "uint256",
          "name": "owedDeposit",
          "type": "uint256"
        }
      ],
      "stateMutability": "view",
      "type": "function"
    },
    {
      "inputs": [
        {
          "internalType": "contract ISuperToken",
          "name": "token",
          "type": "address"
        },
        {
          "internalType": "address",
          "name": "account",
          "type": "address"
        }
      ],
      "name": "getAccountFlowrate",
      "outputs": [
        {
          "internalType": "int96",
          "name": "flowrate",
          "type": "int96"
        }
      ],
      "stateMutability": "view",
      "type": "function"
    },
    {
      "inputs": [
        {
          "internalType": "contract ISuperToken",
          "name": "token",
          "type": "address"
        },
        {
          "internalType": "int96",
          "name": "flowrate",
          "type": "int96"
        }
      ],
      "name": "getBufferAmountByFlowrate",
      "outputs": [
        {
          "internalType": "uint256",
          "name": "bufferAmount",
          "type": "uint256"
        }
      ],
      "stateMutability": "view",
      "type": "function"
    },
    {
      "inputs": [
        {
          "internalType": "contract ISuperToken",
          "name": "token",
          "type": "address"
        },
        {
          "internalType": "address",
          "name": "sender",
          "type": "address"
        },
        {
          "internalType": "address",
          "name": "receiver",
          "type": "address"
        }
      ],
      "name": "getFlowInfo",
      "outputs": [
        {
          "internalType": "uint256",
          "name": "lastUpdated",
          "type": "uint256"
        },
        {
          "internalType": "int96",
          "name": "flowrate",
          "type": "int96"
        },
        {
          "internalType": "uint256",
          "name": "deposit",
          "type": "uint256"
        },
        {
          "internalType": "uint256",
          "name": "owedDeposit",
          "type": "uint256"
        }
      ],
      "stateMutability": "view",
      "type": "function"
    },
    {
      "inputs": [
        {
          "internalType": "contract ISuperToken",
          "name": "token",
          "type": "address"
        },
        {
          "internalType": "address",
          "name": "sender",
          "type": "address"
        },
        {
          "internalType": "address",
          "name": "flowOperator",
          "type": "address"
        }
      ],
      "name": "getFlowOperatorPermissions",
      "outputs": [
        {
          "internalType": "uint8",
          "name": "permissions",
          "type": "uint8"
        },
        {
          "internalType": "int96",
          "name": "flowrateAllowance",
          "type": "int96"
        }
      ],
      "stateMutability": "view",
      "type": "function"
    },
    {
      "inputs": [
        {
          "internalType": "contract ISuperToken",
          "name": "token",
          "type": "address"
        },
        {
          "internalType": "address",
          "name": "sender",
          "type": "address"
        },
        {
          "internalType": "address",
          "name": "receiver",
          "type": "address"
        }
      ],
      "name": "getFlowrate",
      "outputs": [
        {
          "internalType": "int96",
          "name": "flowrate",
          "type": "int96"
        }
      ],
      "stateMutability": "view",
      "type": "function"
    },
    {
      "inputs": [
        {
          "internalType": "contract ISuperToken",
          "name": "token",
          "type": "address"
        },
        {
          "internalType": "address",
          "name": "flowOperator",
          "type": "address"
        }
      ],
      "name": "grantPermissions",
      "outputs": [
        {
          "internalType": "bool",
          "name": "",
          "type": "bool"
        }
      ],
      "stateMutability": "nonpayable",
      "type": "function"
    },
    {
      "inputs": [
        {
          "internalType": "contract ISuperToken",
          "name": "token",
          "type": "address"
        },
        {
          "internalType": "address",
          "name": "flowOperator",
          "type": "address"
        }
      ],
      "name": "revokePermissions",
      "outputs": [
        {
          "internalType": "bool",
          "name": "",
          "type": "bool"
        }
      ],
      "stateMutability": "nonpayable",
      "type": "function"
    },
    {
      "inputs": [
        {
          "internalType": "contract ISuperToken",
          "name": "token",
          "type": "address"
        },
        {
          "internalType": "address",
          "name": "receiver",
          "type": "address"
        },
        {
          "internalType": "int96",
          "name": "flowrate",
          "type": "int96"
        }
      ],
      "name": "setFlowrate",
      "outputs": [
        {
          "internalType": "bool",
          "name": "",
          "type": "bool"
        }
      ],
      "stateMutability": "nonpayable",
      "type": "function"
    },
    {
      "inputs": [
        {
          "internalType": "contract ISuperToken",
          "name": "token",
          "type": "address"
        },
        {
          "internalType": "address",
          "name": "sender",
          "type": "address"
        },
        {
          "internalType": "address",
          "name": "receiver",
          "type": "address"
        },
        {
          "internalType": "int96",
          "name": "flowrate",
          "type": "int96"
        }
      ],
      "name": "setFlowrateFrom",
      "outputs": [
        {
          "internalType": "bool",
          "name": "",
          "type": "bool"
        }
      ],
      "stateMutability": "nonpayable",
      "type": "function"
    },
    {
      "inputs": [
        {
          "internalType": "contract ISuperToken",
          "name": "token",
          "type": "address"
        },
        {
          "internalType": "address",
          "name": "sender",
          "type": "address"
        },
        {
          "internalType": "address",
          "name": "receiver",
          "type": "address"
        },
        {
          "internalType": "int96",
          "name": "flowrate",
          "type": "int96"
        },
        {
          "internalType": "bytes",
          "name": "userData",
          "type": "bytes"
        }
      ],
      "name": "updateFlow",
      "outputs": [
        {
          "internalType": "bool",
          "name": "",
          "type": "bool"
        }
      ],
      "stateMutability": "nonpayable",
      "type": "function"
    },
    {
      "inputs": [
        {
          "internalType": "contract ISuperToken",
          "name": "token",
          "type": "address"
        },
        {
          "internalType": "address",
          "name": "flowOperator",
          "type": "address"
        },
        {
          "internalType": "uint8",
          "name": "permissions",
          "type": "uint8"
        },
        {
          "internalType": "int96",
          "name": "flowrateAllowance",
          "type": "int96"
        }
      ],
      "name": "updateFlowOperatorPermissions",
      "outputs": [
        {
          "internalType": "bool",
          "name": "",
          "type": "bool"
        }
      ],
      "stateMutability": "nonpayable",
      "type": "function"
    }
  ],
  "bytecode": {
    "object": "0x60c06040523480156200001157600080fd5b50604051620017aa380380620017aa8339810160408190526200003491620000ef565b6001600160a01b0381166080819052604051635b69006f60e11b81527fa9214cc96615e0085d3bb077758db69497dc2dce3b2b1e97bc93c3d18d83efd3600482015263b6d200de90602401602060405180830381865afa1580156200009d573d6000803e3d6000fd5b505050506040513d601f19601f82011682018060405250810190620000c39190620000ef565b6001600160a01b031660a0525062000116565b6001600160a01b0381168114620000ec57600080fd5b50565b6000602082840312156200010257600080fd5b81516200010f81620000d6565b9392505050565b60805160a0516115f7620001b36000396000818161026a0152818161030e015281816103c501528181610465015281816104e5015281816105a3015281816106a9015281816107260152818161076a01528181610811015281816108af015281816108e501528181610a7c01528181610b0101528181610b7001528181610bb30152610bed015260008181610cd50152610d4701526115f76000f3fe608060405234801561001057600080fd5b50600436106100ba5760003560e01c806309f0b495146100bf5780630bd0728d146100e55780630c033991146101085780630f1ac4951461011b5780631d8b65261461015157806322c904d9146101775780632860fd931461018a578063308855911461019d5780634d3f60f9146101b057806357e6aa36146101df5780637243fb93146101f2578063b4b333c614610205578063c5ad5c1a14610218578063e15536b61461022b575b600080fd5b6100d26100cd366004610f33565b61023e565b6040519081526020015b60405180910390f35b6100f86100f3366004610f6c565b6102de565b60405190151581526020016100dc565b6100f861011636600461103c565b6102ed565b61012e610129366004610f6c565b610306565b60408051948552600b9390930b60208501529183015260608201526080016100dc565b61016461015f3660046110c3565b6103ab565b604051600b9190910b81526020016100dc565b610164610185366004610f6c565b61044b565b61012e6101983660046110c3565b6104dd565b6100f86101ab36600461111d565b610585565b6101c36101be3660046110c3565b61059e565b6040805160ff9093168352600b9190910b6020830152016100dc565b6100f86101ed366004611179565b61063e565b6100f8610200366004610f6c565b61064c565b6100f86102133660046111b9565b610662565b6100f861022636600461122d565b610670565b6100f861023936600461103c565b61067e565b6040516346ccbfb760e11b81526001600160a01b038381166004830152600b83900b60248301526000917f000000000000000000000000000000000000000000000000000000000000000090911690638d997f6e90604401602060405180830381865afa1580156102b3573d6000803e3d6000fd5b505050506040513d601f19601f820116820180604052508101906102d7919061126e565b9392505050565b60006102d7838360008061068d565b60006102fc868686868661074d565b9695505050505050565b6000806000807f00000000000000000000000000000000000000000000000000000000000000006001600160a01b0316630f1ac49587876040518363ffffffff1660e01b815260040161035a929190611287565b608060405180830381865afa158015610377573d6000803e3d6000fd5b505050506040513d601f19601f8201168201806040525081019061039b91906112a1565b9299919850965090945092505050565b604051631cd43d1160e31b81526000906001600160a01b037f0000000000000000000000000000000000000000000000000000000000000000169063e6a1e888906103fe908790879087906004016112df565b608060405180830381865afa15801561041b573d6000803e3d6000fd5b505050506040513d601f19601f8201168201806040525081019061043f91906112a1565b50909695505050505050565b60405163e8e7e2d160e01b81526000906001600160a01b037f0000000000000000000000000000000000000000000000000000000000000000169063e8e7e2d19061049c9086908690600401611287565b602060405180830381865afa1580156104b9573d6000803e3d6000fd5b505050506040513d601f19601f820116820180604052508101906102d79190611302565b6000806000807f00000000000000000000000000000000000000000000000000000000000000006001600160a01b031663e6a1e8888888886040518463ffffffff1660e01b8152600401610533939291906112df565b608060405180830381865afa158015610550573d6000803e3d6000fd5b505050506040513d601f19601f8201168201806040525081019061057491906112a1565b929a91995097509095509350505050565b60006105938585858561068d565b90505b949350505050565b6000807f00000000000000000000000000000000000000000000000000000000000000006001600160a01b031662422bbe8686866040518463ffffffff1660e01b81526004016105f0939291906112df565b606060405180830381865afa15801561060d573d6000803e3d6000fd5b505050506040513d601f19601f82011682018060405250810190610631919061131f565b9097909650945050505050565b6000610596843385856108e0565b60006102d78383600760016001605f1b0361068d565b600061059385858585610a3d565b6000610593858585856108e0565b60006102fc8686868686610b96565b6040805160008082526020820190925281906001600160a01b037f0000000000000000000000000000000000000000000000000000000000000000169063811b3d40906106e5908990899089908990604481016113a7565b60408051601f19818403018152918152602080830180516001600160e01b031660e09590951b94909417909352805160008152928301905292506102fc91507f0000000000000000000000000000000000000000000000000000000000000000908390610c1c565b6000806001600160a01b0386163314610807576001600160a01b037f00000000000000000000000000000000000000000000000000000000000000001663354b95908888888860005b6040519080825280601f01601f1916602001820160405280156107c0576020820181803683370190505b506040516024016107d59594939291906113e6565b604051602081830303815290604052915060e01b6020820180516001600160e01b0383818316178352505050506108a8565b6001600160a01b037f0000000000000000000000000000000000000000000000000000000000000000166350209a6288878760005b6040519080825280601f01601f191660200182016040528015610866576020820181803683370190505b5060405160240161087a9493929190611424565b604051602081830303815290604052915060e01b6020820180516001600160e01b0383818316178352505050505b90506108d57f00000000000000000000000000000000000000000000000000000000000000008285610c1c565b979650505050505050565b6000807f00000000000000000000000000000000000000000000000000000000000000006001600160a01b031663e6a1e8888787876040518463ffffffff1660e01b8152600401610933939291906112df565b608060405180830381865afa158015610950573d6000803e3d6000fd5b505050506040513d601f19601f8201168201806040525081019061097491906112a1565b5050915050600083600b0b13156109ef5780600b0b6000036109b8576040805160008152602081019091526109b0908790879087908790610b96565b915050610596565b82600b0b81600b0b146109e5576040805160008152602081019091526109b090879087908790879061074d565b6001915050610596565b82600b0b600003610a2457600081600b0b13156109e5576040805160008152602081019091526109b090879087908790610a3d565b60405163cea9aa5f60e01b815260040160405180910390fd5b6000806001600160a01b038516331480610a5f57506001600160a01b03841633145b610ae8576040805160008152602081019091526001600160a01b037f00000000000000000000000000000000000000000000000000000000000000001690634c8b181f90610ab6908990899089906044810161145a565b604051602081830303815290604052915060e01b6020820180516001600160e01b038381831617835250505050610b69565b6040805160008152602081019091526001600160a01b037f0000000000000000000000000000000000000000000000000000000000000000169063b4b333c690610b3b908990899089906044810161145a565b604051602081830303815290604052915060e01b6020820180516001600160e01b0383818316178352505050505b90506102fc7f00000000000000000000000000000000000000000000000000000000000000008285610c1c565b6000806001600160a01b0386163314610be3576001600160a01b037f0000000000000000000000000000000000000000000000000000000000000000166394229ecb888888886000610796565b6001600160a01b037f0000000000000000000000000000000000000000000000000000000000000000166362fc305e888787600061083c565b604080516001808252818301909252600091829190816020015b60408051606080820183526000808352602083015291810191909152815260200190600190039081610c36579050509050604051806060016040528060c963ffffffff168152602001866001600160a01b031681526020018585604051602001610ca192919061148e565b60405160208183030381529060405281525081600081518110610cc657610cc66114bc565b602002602001018190525060007f00000000000000000000000000000000000000000000000000000000000000006001600160a01b031663670e77e383604051602401610d1391906114d2565b604051602081830303815290604052915060e01b6020820180516001600160e01b03838183161783525050505090506000807f00000000000000000000000000000000000000000000000000000000000000006001600160a01b03168333604051602001610d82929190611560565b60408051601f1981840301815290829052610d9c91611592565b6000604051808303816000865af19150503d8060008114610dd9576040519150601f19603f3d011682016040523d82523d6000602084013e610dde565b606091505b509150915081610df157610df181610dff565b506001979650505050505050565b600481511015610e535760405162461bcd60e51b815260206004820152601a60248201527943616c6c5574696c733a2074617267657420726576657274282960301b60448201526064015b60405180910390fd5b602081015163b1b7848f60e01b6001600160e01b0319821601610f035760408051808201825260208082527f43616c6c5574696c733a207461726765742070616e69636b65643a2030785f5f90820190815260248501517f43616c6c5574696c733a207461726765742070616e69636b65643a2030780000600482811c600f908116603090810160081b918516011791909117909252925162461bcd60e51b8152919291610e4a918491016115ae565b81518060208401fd5b50565b6001600160a01b0381168114610f0c57600080fd5b80600b0b8114610f0c57600080fd5b60008060408385031215610f4657600080fd5b8235610f5181610f0f565b91506020830135610f6181610f24565b809150509250929050565b60008060408385031215610f7f57600080fd5b8235610f8a81610f0f565b91506020830135610f6181610f0f565b634e487b7160e01b600052604160045260246000fd5b600082601f830112610fc157600080fd5b81356001600160401b0380821115610fdb57610fdb610f9a565b604051601f8301601f19908116603f0116810190828211818310171561100357611003610f9a565b8160405283815286602085880101111561101c57600080fd5b836020870160208301376000602085830101528094505050505092915050565b600080600080600060a0868803121561105457600080fd5b853561105f81610f0f565b9450602086013561106f81610f0f565b9350604086013561107f81610f0f565b9250606086013561108f81610f24565b915060808601356001600160401b038111156110aa57600080fd5b6110b688828901610fb0565b9150509295509295909350565b6000806000606084860312156110d857600080fd5b83356110e381610f0f565b925060208401356110f381610f0f565b9150604084013561110381610f0f565b809150509250925092565b60ff81168114610f0c57600080fd5b6000806000806080858703121561113357600080fd5b843561113e81610f0f565b9350602085013561114e81610f0f565b9250604085013561115e8161110e565b9150606085013561116e81610f24565b939692955090935050565b60008060006060848603121561118e57600080fd5b833561119981610f0f565b925060208401356111a981610f0f565b9150604084013561110381610f24565b600080600080608085870312156111cf57600080fd5b84356111da81610f0f565b935060208501356111ea81610f0f565b925060408501356111fa81610f0f565b915060608501356001600160401b0381111561121557600080fd5b61122187828801610fb0565b91505092959194509250565b6000806000806080858703121561124357600080fd5b843561124e81610f0f565b9350602085013561125e81610f0f565b9250604085013561115e81610f0f565b60006020828403121561128057600080fd5b5051919050565b6001600160a01b0392831681529116602082015260400190565b600080600080608085870312156112b757600080fd5b8451935060208501516112c981610f24565b6040860151606090960151949790965092505050565b6001600160a01b0393841681529183166020830152909116604082015260600190565b60006020828403121561131457600080fd5b81516102d781610f24565b60008060006060848603121561133457600080fd5b8351925060208401516113468161110e565b604085015190925061110381610f24565b60005b8381101561137257818101518382015260200161135a565b50506000910152565b60008151808452611393816020860160208601611357565b601f01601f19169290920160200192915050565b6001600160a01b0386811682528516602082015260ff84166040820152600b83900b606082015260a0608082018190526000906108d59083018461137b565b6001600160a01b038681168252858116602083015284166040820152600b83900b606082015260a0608082018190526000906108d59083018461137b565b6001600160a01b03858116825284166020820152600b83900b60408201526080606082018190526000906102fc9083018461137b565b6001600160a01b0385811682528481166020830152831660408201526080606082018190526000906102fc9083018461137b565b6040815260006114a1604083018561137b565b82810360208401526114b3818561137b565b95945050505050565b634e487b7160e01b600052603260045260246000fd5b60006020808301818452808551808352604092508286019150828160051b87010184880160005b8381101561155257888303603f190185528151805163ffffffff168452878101516001600160a01b031688850152860151606087850181905261153e8186018361137b565b9689019694505050908601906001016114f9565b509098975050505050505050565b60008351611572818460208801611357565b60609390931b6001600160601b0319169190920190815260140192915050565b600082516115a4818460208701611357565b9190910192915050565b6020815260006102d7602083018461137b56fea26469706673582212203b4161fbdb70ba123039033cb83da251ad704644564e35fd22bcfd25321a3ed264736f6c63430008130033",
    "linkReferences": {}
  },
  "methodIdentifiers": {
    "createFlow(address,address,address,int96,bytes)": "e15536b6",
    "deleteFlow(address,address,address,bytes)": "b4b333c6",
    "getAccountFlowInfo(address,address)": "0f1ac495",
    "getAccountFlowrate(address,address)": "22c904d9",
    "getBufferAmountByFlowrate(address,int96)": "09f0b495",
    "getFlowInfo(address,address,address)": "2860fd93",
    "getFlowOperatorPermissions(address,address,address)": "4d3f60f9",
    "getFlowrate(address,address,address)": "1d8b6526",
    "grantPermissions(address,address)": "7243fb93",
    "revokePermissions(address,address)": "0bd0728d",
    "setFlowrate(address,address,int96)": "57e6aa36",
    "setFlowrateFrom(address,address,address,int96)": "c5ad5c1a",
    "updateFlow(address,address,address,int96,bytes)": "0c033991",
    "updateFlowOperatorPermissions(address,address,uint8,int96)": "30885591"
  },
  "id": 99
}