{
  "abi": [
    {
      "inputs": [],
      "name": "SF_GOV_INVALID_LIQUIDATION_OR_PATRICIAN_PERIOD",
      "type": "error"
    },
    {
      "inputs": [],
      "name": "SF_GOV_MUST_BE_CONTRACT",
      "type": "error"
    },
    {
      "anonymous": false,
      "inputs": [
        {
          "indexed": true,
          "internalType": "contract ISuperfluid",
          "name": "host",
          "type": "address"
        },
        {
          "indexed": true,
          "internalType": "address",
          "name": "factory",
          "type": "address"
        },
        {
          "indexed": false,
          "internalType": "bool",
          "name": "authorized",
          "type": "bool"
        }
      ],
      "name": "AppFactoryAuthorizationChanged",
      "type": "event"
    },
    {
      "anonymous": false,
      "inputs": [
        {
          "indexed": true,
          "internalType": "contract ISuperfluid",
          "name": "host",
          "type": "address"
        },
        {
          "indexed": true,
          "internalType": "address",
          "name": "deployer",
          "type": "address"
        },
        {
          "indexed": false,
          "internalType": "string",
          "name": "appRegistrationKey",
          "type": "string"
        },
        {
          "indexed": false,
          "internalType": "uint256",
          "name": "expirationTs",
          "type": "uint256"
        }
      ],
      "name": "AppRegistrationKeyChanged",
      "type": "event"
    },
    {
      "anonymous": false,
      "inputs": [
        {
          "indexed": true,
          "internalType": "contract ISuperfluid",
          "name": "host",
          "type": "address"
        },
        {
          "indexed": true,
          "internalType": "contract ISuperfluidToken",
          "name": "superToken",
          "type": "address"
        },
        {
          "indexed": false,
          "internalType": "bool",
          "name": "isKeySet",
          "type": "bool"
        },
        {
          "indexed": false,
          "internalType": "uint256",
          "name": "liquidationPeriod",
          "type": "uint256"
        }
      ],
      "name": "CFAv1LiquidationPeriodChanged",
      "type": "event"
    },
    {
      "anonymous": false,
      "inputs": [
        {
          "indexed": true,
          "internalType": "contract ISuperfluid",
          "name": "host",
          "type": "address"
        },
        {
          "indexed": true,
          "internalType": "contract ISuperfluidToken",
          "name": "superToken",
          "type": "address"
        },
        {
          "indexed": false,
          "internalType": "bytes32",
          "name": "key",
          "type": "bytes32"
        },
        {
          "indexed": false,
          "internalType": "bool",
          "name": "isKeySet",
          "type": "bool"
        },
        {
          "indexed": false,
          "internalType": "uint256",
          "name": "value",
          "type": "uint256"
        }
      ],
      "name": "ConfigChanged",
      "type": "event"
    },
    {
      "anonymous": false,
      "inputs": [
        {
          "indexed": true,
          "internalType": "address",
          "name": "previousOwner",
          "type": "address"
        },
        {
          "indexed": true,
          "internalType": "address",
          "name": "newOwner",
          "type": "address"
        }
      ],
      "name": "OwnershipTransferred",
      "type": "event"
    },
    {
      "anonymous": false,
      "inputs": [
        {
          "indexed": true,
          "internalType": "contract ISuperfluid",
          "name": "host",
          "type": "address"
        },
        {
          "indexed": true,
          "internalType": "contract ISuperfluidToken",
          "name": "superToken",
          "type": "address"
        },
        {
          "indexed": false,
          "internalType": "bool",
          "name": "isKeySet",
          "type": "bool"
        },
        {
          "indexed": false,
          "internalType": "uint256",
          "name": "liquidationPeriod",
          "type": "uint256"
        },
        {
          "indexed": false,
          "internalType": "uint256",
          "name": "patricianPeriod",
          "type": "uint256"
        }
      ],
      "name": "PPPConfigurationChanged",
      "type": "event"
    },
    {
      "anonymous": false,
      "inputs": [
        {
          "indexed": true,
          "internalType": "contract ISuperfluid",
          "name": "host",
          "type": "address"
        },
        {
          "indexed": true,
          "internalType": "contract ISuperfluidToken",
          "name": "superToken",
          "type": "address"
        },
        {
          "indexed": false,
          "internalType": "bool",
          "name": "isKeySet",
          "type": "bool"
        },
        {
          "indexed": false,
          "internalType": "address",
          "name": "rewardAddress",
          "type": "address"
        }
      ],
      "name": "RewardAddressChanged",
      "type": "event"
    },
    {
      "anonymous": false,
      "inputs": [
        {
          "indexed": true,
          "internalType": "contract ISuperfluid",
          "name": "host",
          "type": "address"
        },
        {
          "indexed": true,
          "internalType": "contract ISuperfluidToken",
          "name": "superToken",
          "type": "address"
        },
        {
          "indexed": false,
          "internalType": "bool",
          "name": "isKeySet",
          "type": "bool"
        },
        {
          "indexed": false,
          "internalType": "uint256",
          "name": "minimumDeposit",
          "type": "uint256"
        }
      ],
      "name": "SuperTokenMinimumDepositChanged",
      "type": "event"
    },
    {
      "anonymous": false,
      "inputs": [
        {
          "indexed": true,
          "internalType": "contract ISuperfluid",
          "name": "host",
          "type": "address"
        },
        {
          "indexed": true,
          "internalType": "contract ISuperfluidToken",
          "name": "superToken",
          "type": "address"
        },
        {
          "indexed": false,
          "internalType": "bool",
          "name": "isKeySet",
          "type": "bool"
        },
        {
          "indexed": false,
          "internalType": "address",
          "name": "forwarder",
          "type": "address"
        },
        {
          "indexed": false,
          "internalType": "bool",
          "name": "enabled",
          "type": "bool"
        }
      ],
      "name": "TrustedForwarderChanged",
      "type": "event"
    },
    {
      "inputs": [
        {
          "internalType": "contract ISuperfluid",
          "name": "host",
          "type": "address"
        },
        {
          "internalType": "address",
          "name": "factory",
          "type": "address"
        }
      ],
      "name": "authorizeAppFactory",
      "outputs": [],
      "stateMutability": "nonpayable",
      "type": "function"
    },
    {
      "inputs": [
        {
          "internalType": "contract ISuperfluid",
          "name": "host",
          "type": "address"
        },
        {
          "internalType": "contract ISuperToken[]",
          "name": "tokens",
          "type": "address[]"
        }
      ],
      "name": "batchUpdateSuperTokenLogic",
      "outputs": [],
      "stateMutability": "nonpayable",
      "type": "function"
    },
    {
      "inputs": [
        {
          "internalType": "contract ISuperfluid",
          "name": "host",
          "type": "address"
        },
        {
          "internalType": "contract ISuperToken[]",
          "name": "tokens",
          "type": "address[]"
        },
        {
          "internalType": "address[]",
          "name": "tokenLogics",
          "type": "address[]"
        }
      ],
      "name": "batchUpdateSuperTokenLogic",
      "outputs": [],
      "stateMutability": "nonpayable",
      "type": "function"
    },
    {
      "inputs": [
        {
          "internalType": "contract ISuperfluid",
          "name": "host",
          "type": "address"
        },
        {
          "internalType": "contract ISuperToken[]",
          "name": "tokens",
          "type": "address[]"
        },
        {
          "internalType": "uint256[]",
          "name": "minimumDeposits",
          "type": "uint256[]"
        }
      ],
      "name": "batchUpdateSuperTokenMinimumDeposit",
      "outputs": [],
      "stateMutability": "nonpayable",
      "type": "function"
    },
    {
      "inputs": [
        {
          "internalType": "contract ISuperfluid",
          "name": "host",
          "type": "address"
        },
        {
          "internalType": "address",
          "name": "deployer",
          "type": "address"
        },
        {
          "internalType": "string",
          "name": "registrationKey",
          "type": "string"
        }
      ],
      "name": "clearAppRegistrationKey",
      "outputs": [],
      "stateMutability": "nonpayable",
      "type": "function"
    },
    {
      "inputs": [
        {
          "internalType": "contract ISuperfluid",
          "name": "host",
          "type": "address"
        },
        {
          "internalType": "contract ISuperfluidToken",
          "name": "superToken",
          "type": "address"
        },
        {
          "internalType": "bytes32",
          "name": "key",
          "type": "bytes32"
        }
      ],
      "name": "clearConfig",
      "outputs": [],
      "stateMutability": "nonpayable",
      "type": "function"
    },
    {
      "inputs": [
        {
          "internalType": "contract ISuperfluid",
          "name": "host",
          "type": "address"
        },
        {
          "internalType": "contract ISuperfluidToken",
          "name": "superToken",
          "type": "address"
        }
      ],
      "name": "clearPPPConfig",
      "outputs": [],
      "stateMutability": "nonpayable",
      "type": "function"
    },
    {
      "inputs": [
        {
          "internalType": "contract ISuperfluid",
          "name": "host",
          "type": "address"
        },
        {
          "internalType": "contract ISuperfluidToken",
          "name": "superToken",
          "type": "address"
        }
      ],
      "name": "clearRewardAddress",
      "outputs": [],
      "stateMutability": "nonpayable",
      "type": "function"
    },
    {
      "inputs": [
        {
          "internalType": "contract ISuperfluid",
          "name": "host",
          "type": "address"
        },
        {
          "internalType": "contract ISuperToken",
          "name": "superToken",
          "type": "address"
        }
      ],
      "name": "clearSuperTokenMinimumDeposit",
      "outputs": [],
      "stateMutability": "nonpayable",
      "type": "function"
    },
    {
      "inputs": [
        {
          "internalType": "contract ISuperfluid",
          "name": "host",
          "type": "address"
        },
        {
          "internalType": "contract ISuperfluidToken",
          "name": "superToken",
          "type": "address"
        },
        {
          "internalType": "address",
          "name": "forwarder",
          "type": "address"
        }
      ],
      "name": "disableTrustedForwarder",
      "outputs": [],
      "stateMutability": "nonpayable",
      "type": "function"
    },
    {
      "inputs": [
        {
          "internalType": "contract ISuperfluid",
          "name": "host",
          "type": "address"
        },
        {
          "internalType": "contract ISuperfluidToken",
          "name": "superToken",
          "type": "address"
        },
        {
          "internalType": "address",
          "name": "forwarder",
          "type": "address"
        }
      ],
      "name": "enableTrustedForwarder",
      "outputs": [],
      "stateMutability": "nonpayable",
      "type": "function"
    },
    {
      "inputs": [
        {
          "internalType": "contract ISuperfluid",
          "name": "host",
          "type": "address"
        },
        {
          "internalType": "contract ISuperfluidToken",
          "name": "superToken",
          "type": "address"
        },
        {
          "internalType": "bytes32",
          "name": "key",
          "type": "bytes32"
        }
      ],
      "name": "getConfigAsAddress",
      "outputs": [
        {
          "internalType": "address",
          "name": "value",
          "type": "address"
        }
      ],
      "stateMutability": "view",
      "type": "function"
    },
    {
      "inputs": [
        {
          "internalType": "contract ISuperfluid",
          "name": "host",
          "type": "address"
        },
        {
          "internalType": "contract ISuperfluidToken",
          "name": "superToken",
          "type": "address"
        },
        {
          "internalType": "bytes32",
          "name": "key",
          "type": "bytes32"
        }
      ],
      "name": "getConfigAsUint256",
      "outputs": [
        {
          "internalType": "uint256",
          "name": "period",
          "type": "uint256"
        }
      ],
      "stateMutability": "view",
      "type": "function"
    },
    {
      "inputs": [
        {
          "internalType": "contract ISuperfluid",
          "name": "host",
          "type": "address"
        },
        {
          "internalType": "contract ISuperfluidToken",
          "name": "superToken",
          "type": "address"
        }
      ],
      "name": "getPPPConfig",
      "outputs": [
        {
          "internalType": "uint256",
          "name": "liquidationPeriod",
          "type": "uint256"
        },
        {
          "internalType": "uint256",
          "name": "patricianPeriod",
          "type": "uint256"
        }
      ],
      "stateMutability": "view",
      "type": "function"
    },
    {
      "inputs": [
        {
          "internalType": "contract ISuperfluid",
          "name": "host",
          "type": "address"
        },
        {
          "internalType": "contract ISuperfluidToken",
          "name": "superToken",
          "type": "address"
        }
      ],
      "name": "getRewardAddress",
      "outputs": [
        {
          "internalType": "address",
          "name": "",
          "type": "address"
        }
      ],
      "stateMutability": "view",
      "type": "function"
    },
    {
      "inputs": [
        {
          "internalType": "contract ISuperfluid",
          "name": "host",
          "type": "address"
        },
        {
          "internalType": "contract ISuperfluidToken",
          "name": "superToken",
          "type": "address"
        }
      ],
      "name": "getSuperTokenMinimumDeposit",
      "outputs": [
        {
          "internalType": "uint256",
          "name": "value",
          "type": "uint256"
        }
      ],
      "stateMutability": "view",
      "type": "function"
    },
    {
      "inputs": [
        {
          "internalType": "contract ISuperfluid",
          "name": "host",
          "type": "address"
        },
        {
          "internalType": "address",
          "name": "rewardAddress",
          "type": "address"
        },
        {
          "internalType": "uint256",
          "name": "liquidationPeriod",
          "type": "uint256"
        },
        {
          "internalType": "uint256",
          "name": "patricianPeriod",
          "type": "uint256"
        },
        {
          "internalType": "address[]",
          "name": "trustedForwarders",
          "type": "address[]"
        }
      ],
      "name": "initialize",
      "outputs": [],
      "stateMutability": "nonpayable",
      "type": "function"
    },
    {
      "inputs": [
        {
          "internalType": "contract ISuperfluid",
          "name": "host",
          "type": "address"
        },
        {
          "internalType": "address",
          "name": "factory",
          "type": "address"
        }
      ],
      "name": "isAuthorizedAppFactory",
      "outputs": [
        {
          "internalType": "bool",
          "name": "",
          "type": "bool"
        }
      ],
      "stateMutability": "view",
      "type": "function"
    },
    {
      "inputs": [
        {
          "internalType": "contract ISuperfluid",
          "name": "host",
          "type": "address"
        },
        {
          "internalType": "contract ISuperfluidToken",
          "name": "superToken",
          "type": "address"
        },
        {
          "internalType": "address",
          "name": "forwarder",
          "type": "address"
        }
      ],
      "name": "isTrustedForwarder",
      "outputs": [
        {
          "internalType": "bool",
          "name": "",
          "type": "bool"
        }
      ],
      "stateMutability": "view",
      "type": "function"
    },
    {
      "inputs": [],
      "name": "owner",
      "outputs": [
        {
          "internalType": "address",
          "name": "",
          "type": "address"
        }
      ],
      "stateMutability": "view",
      "type": "function"
    },
    {
      "inputs": [
        {
          "internalType": "contract ISuperfluid",
          "name": "host",
          "type": "address"
        },
        {
          "internalType": "address",
          "name": "agreementClass",
          "type": "address"
        }
      ],
      "name": "registerAgreementClass",
      "outputs": [],
      "stateMutability": "nonpayable",
      "type": "function"
    },
    {
      "inputs": [],
      "name": "renounceOwnership",
      "outputs": [],
      "stateMutability": "nonpayable",
      "type": "function"
    },
    {
      "inputs": [
        {
          "internalType": "contract ISuperfluid",
          "name": "host",
          "type": "address"
        },
        {
          "internalType": "address",
          "name": "newGov",
          "type": "address"
        }
      ],
      "name": "replaceGovernance",
      "outputs": [],
      "stateMutability": "nonpayable",
      "type": "function"
    },
    {
      "inputs": [
        {
          "internalType": "contract ISuperfluid",
          "name": "host",
          "type": "address"
        },
        {
          "internalType": "address",
          "name": "deployer",
          "type": "address"
        },
        {
          "internalType": "string",
          "name": "registrationKey",
          "type": "string"
        },
        {
          "internalType": "uint256",
          "name": "expirationTs",
          "type": "uint256"
        }
      ],
      "name": "setAppRegistrationKey",
      "outputs": [],
      "stateMutability": "nonpayable",
      "type": "function"
    },
    {
      "inputs": [
        {
          "internalType": "contract ISuperfluid",
          "name": "host",
          "type": "address"
        },
        {
          "internalType": "contract ISuperfluidToken",
          "name": "superToken",
          "type": "address"
        },
        {
          "internalType": "bytes32",
          "name": "key",
          "type": "bytes32"
        },
        {
          "internalType": "address",
          "name": "value",
          "type": "address"
        }
      ],
      "name": "setConfig",
      "outputs": [],
      "stateMutability": "nonpayable",
      "type": "function"
    },
    {
      "inputs": [
        {
          "internalType": "contract ISuperfluid",
          "name": "host",
          "type": "address"
        },
        {
          "internalType": "contract ISuperfluidToken",
          "name": "superToken",
          "type": "address"
        },
        {
          "internalType": "bytes32",
          "name": "key",
          "type": "bytes32"
        },
        {
          "internalType": "uint256",
          "name": "value",
          "type": "uint256"
        }
      ],
      "name": "setConfig",
      "outputs": [],
      "stateMutability": "nonpayable",
      "type": "function"
    },
    {
      "inputs": [
        {
          "internalType": "contract ISuperfluid",
          "name": "host",
          "type": "address"
        },
        {
          "internalType": "contract ISuperfluidToken",
          "name": "superToken",
          "type": "address"
        },
        {
          "internalType": "uint256",
          "name": "liquidationPeriod",
          "type": "uint256"
        },
        {
          "internalType": "uint256",
          "name": "patricianPeriod",
          "type": "uint256"
        }
      ],
      "name": "setPPPConfig",
      "outputs": [],
      "stateMutability": "nonpayable",
      "type": "function"
    },
    {
      "inputs": [
        {
          "internalType": "contract ISuperfluid",
          "name": "host",
          "type": "address"
        },
        {
          "internalType": "contract ISuperfluidToken",
          "name": "superToken",
          "type": "address"
        },
        {
          "internalType": "address",
          "name": "rewardAddress",
          "type": "address"
        }
      ],
      "name": "setRewardAddress",
      "outputs": [],
      "stateMutability": "nonpayable",
      "type": "function"
    },
    {
      "inputs": [
        {
          "internalType": "contract ISuperfluid",
          "name": "host",
          "type": "address"
        },
        {
          "internalType": "contract ISuperfluidToken",
          "name": "superToken",
          "type": "address"
        },
        {
          "internalType": "uint256",
          "name": "value",
          "type": "uint256"
        }
      ],
      "name": "setSuperTokenMinimumDeposit",
      "outputs": [],
      "stateMutability": "nonpayable",
      "type": "function"
    },
    {
      "inputs": [
        {
          "internalType": "address",
          "name": "newOwner",
          "type": "address"
        }
      ],
      "name": "transferOwnership",
      "outputs": [],
      "stateMutability": "nonpayable",
      "type": "function"
    },
    {
      "inputs": [
        {
          "internalType": "contract ISuperfluid",
          "name": "host",
          "type": "address"
        },
        {
          "internalType": "address",
          "name": "factory",
          "type": "address"
        }
      ],
      "name": "unauthorizeAppFactory",
      "outputs": [],
      "stateMutability": "nonpayable",
      "type": "function"
    },
    {
      "inputs": [
        {
          "internalType": "contract ISuperfluid",
          "name": "host",
          "type": "address"
        },
        {
          "internalType": "address",
          "name": "hostNewLogic",
          "type": "address"
        },
        {
          "internalType": "address[]",
          "name": "agreementClassNewLogics",
          "type": "address[]"
        },
        {
          "internalType": "address",
          "name": "superTokenFactoryNewLogic",
          "type": "address"
        }
      ],
      "name": "updateContracts",
      "outputs": [],
      "stateMutability": "nonpayable",
      "type": "function"
    },
    {
      "inputs": [
        {
          "internalType": "contract ISuperfluid",
          "name": "host",
          "type": "address"
        },
        {
          "internalType": "address",
          "name": "deployer",
          "type": "address"
        },
        {
          "internalType": "string",
          "name": "registrationKey",
          "type": "string"
        }
      ],
      "name": "verifyAppRegistrationKey",
      "outputs": [
        {
          "internalType": "bool",
          "name": "validNow",
          "type": "bool"
        },
        {
          "internalType": "uint256",
          "name": "expirationTs",
          "type": "uint256"
        }
      ],
      "stateMutability": "view",
      "type": "function"
    }
  ],
  "bytecode": {
    "object": "0x608060405234801561001057600080fd5b5061001a3361001f565b61006f565b600080546001600160a01b038381166001600160a01b0319831681178455604051919092169283917f8be0079c531659141344cd1fd0a4f28419497f9722a3daafe3b4186f6b6457e09190a35050565b611da78061007e6000396000f3fe608060405234801561001057600080fd5b50600436106101fa5760003560e01c80637f0558e41161011a5780638ecbd87b116100ad578063d099b6a01161007c578063d099b6a01461046a578063e447cc1d1461047d578063f047a2d914610490578063f2fde38b146104a3578063f79a8e63146104b657600080fd5b80638ecbd87b1461041e578063948eda5e14610431578063ab846f1a14610444578063cadf8f851461045757600080fd5b80638a7ff2f7116100e95780638a7ff2f7146103c45780638abe04e9146103d75780638b93b3f5146103fa5780638da5cb5b1461040d57600080fd5b80637f0558e41461036f57806380f70cba146103825780638369a0f1146103a3578063870299c0146103b157600080fd5b8063427942a411610192578063640b6cc911610161578063640b6cc91461032e578063715018a61461034157806378707cb8146103495780637dce4f811461035c57600080fd5b8063427942a4146102cd57806344864b25146102e057806345228235146102f35780635a9078181461031b57600080fd5b806321964473116101ce578063219644731461028157806325c955c31461029457806332552908146102a757806342148deb146102ba57600080fd5b806286d555146101ff57806301a06b971461021457806311cf00f11461022757806319df62ab14610256575b600080fd5b61021261020d366004611722565b6104c9565b005b610212610222366004611768565b610596565b61023a610235366004611844565b61061a565b6040805192151583526020830191909152015b60405180910390f35b610269610264366004611768565b61064a565b6040516001600160a01b03909116815260200161024d565b61021261028f3660046118f2565b61067e565b6102126102a2366004611768565b6106f9565b6102126102b5366004611975565b610755565b6102126102c83660046119c0565b6107d2565b6102126102db366004611a15565b610895565b6102126102ee366004611768565b610b45565b610306610301366004611768565b610bb0565b6040805192835260208301919091520161024d565b610212610329366004611a92565b610bf8565b61021261033c366004611b0e565b610cb2565b610212610cc2565b610212610357366004611b4f565b610cd6565b61021261036a366004611975565b610ce8565b61021261037d366004611b0e565b610d48565b610395610390366004611b0e565b610dbb565b60405190815260200161024d565b610269610390366004611b0e565b6102126103bf3660046118f2565b610e2c565b6103956103d2366004611768565b610f1e565b6103ea6103e5366004611768565b610f4b565b604051901515815260200161024d565b610212610408366004611768565b610f66565b6000546001600160a01b0316610269565b61021261042c366004611768565b610fe9565b61021261043f366004611844565b61105a565b610212610452366004611975565b6110c8565b610212610465366004611768565b611124565b610212610478366004611ba2565b61115c565b61021261048b366004611768565b6111bc565b6103ea61049e366004611975565b61122d565b6102126104b1366004611c0c565b611248565b6102126104c4366004611722565b6112c6565b80821115806104dc575063ffffffff8210155b806104eb575063ffffffff8110155b15610509576040516370b8cc0560e11b815260040160405180910390fd5b602082901b811761053c85857fe420d96e81cb4a6b2abb2366c4f93312d4e2ae878a7d4b22e73472fdad891f78846112ce565b6040805160018152602081018590529081018390526001600160a01b0380861691908716907f60a59221512cd8cbfb226200f7ba6f20dc4b38a3cf04993d17ea4e56d26aa186906060015b60405180910390a35050505050565b6105c182827fe420d96e81cb4a6b2abb2366c4f93312d4e2ae878a7d4b22e73472fdad891f78611381565b60408051600080825260208201819052918101919091526001600160a01b0380831691908416907f60a59221512cd8cbfb226200f7ba6f20dc4b38a3cf04993d17ea4e56d26aa186906060015b60405180910390a35050565b60008060006106298585611442565b9050600061063987600084610dbb565b428110159890975095505050505050565b600061067783837f9f60ae461adf056670e03ae602566409933242392cb06744f5747c9f38b05d09610dbb565b9392505050565b82811461068d5761068d611c29565b60005b818110156106f1576106e1868686848181106106ae576106ae611c3f565b90506020020160208101906106c39190611c0c565b8585858181106106d5576106d5611c3f565b90506020020135610d48565b6106ea81611c55565b9050610690565b505050505050565b61070d82600061070884611475565b611381565b806001600160a01b0316826001600160a01b03167f8bfde939e79b7e6c603d67aa576e5b75a3f370334b14a9b0e5e263190034d31d600060405161060e911515815260200190565b61078183837f9f60ae461adf056670e03ae602566409933242392cb06744f5747c9f38b05d0984611508565b60408051600181526001600160a01b03838116602083015280851692908616917f14e12f219a4f9023456dc7832e10119ab768b8ccefc8cb79bc6de0419781eeeb91015b60405180910390a3505050565b826107dc816115bd565b60005b8281101561088e57846001600160a01b031663fa6e0cfe85858481811061080857610808611c3f565b905060200201602081019061081d9190611c0c565b6040516001600160e01b031960e084901b1681526001600160a01b03909116600482015260006024820152604401600060405180830381600087803b15801561086557600080fd5b505af1158015610879573d6000803e3d6000fd5b505050508061088790611c55565b90506107df565b5050505050565b8461089f816115bd565b6001600160a01b0385161561095d576040516311a5465560e21b81526001600160a01b038681166004830152871690634695195490602401600060405180830381600087803b1580156108f157600080fd5b505af1158015610905573d6000803e3d6000fd5b50505050846001600160a01b0316639903ad386040518163ffffffff1660e01b8152600401600060405180830381600087803b15801561094457600080fd5b505af1158015610958573d6000803e3d6000fd5b505050505b60005b83811015610a8157866001600160a01b03166306cecba886868481811061098957610989611c3f565b905060200201602081019061099e9190611c0c565b6040516001600160e01b031960e084901b1681526001600160a01b039091166004820152602401600060405180830381600087803b1580156109df57600080fd5b505af11580156109f3573d6000803e3d6000fd5b50505050848482818110610a0957610a09611c3f565b9050602002016020810190610a1e9190611c0c565b6001600160a01b0316639903ad386040518163ffffffff1660e01b8152600401600060405180830381600087803b158015610a5857600080fd5b505af1158015610a6c573d6000803e3d6000fd5b5050505080610a7a90611c55565b9050610960565b506001600160a01b038216156106f1576040516354fbc49360e01b81526001600160a01b0383811660048301528716906354fbc49390602401600060405180830381600087803b158015610ad457600080fd5b505af1158015610ae8573d6000803e3d6000fd5b50505050816001600160a01b0316639903ad386040518163ffffffff1660e01b8152600401600060405180830381600087803b158015610b2757600080fd5b505af1925050508015610b38575060015b156106f157505050505050565b81610b4f816115bd565b604051631ca0c40360e21b81526001600160a01b038381166004830152841690637283100c906024015b600060405180830381600087803b158015610b9357600080fd5b505af1158015610ba7573d6000803e3d6000fd5b50505050505050565b6000806000610be085857fe420d96e81cb4a6b2abb2366c4f93312d4e2ae878a7d4b22e73472fdad891f78610dbb565b63ffffffff602082901c811697911695509350505050565b6001600160a01b038616610c0e57610c0e611c29565b6002546001600160a01b031615610c2757610c27611c29565b600280546001600160a01b0319166001600160a01b038816908117909155610c5190600087610755565b610c5e86600086866104c9565b60005b81811015610ba757600254610ca2906001600160a01b03166000858585818110610c8d57610c8d611c3f565b90506020020160208101906104529190611c0c565b610cab81611c55565b9050610c61565b610cbd838383611381565b505050565b610cca6115f4565b610cd4600061164e565b565b610ce284848484611508565b50505050565b610cf683836107088461169e565b60408051600181526001600160a01b038381166020830152600092820192909252818416918516907f168da2dec91b2e06e30d49955479383e76f71ba185807a8a5b75e2ed563e1d27906060016107c5565b610d7483837feae305fa863b373417e615b1044222e2806cefc7788d169ce6748a443c3f6cc4846112ce565b6040805160018152602081018390526001600160a01b0380851692908616917fc055c4a3853372c08a98805545379133f00f7261d956b9197729d67f37a82a5391016107c5565b6001600160a01b03808416600090815260016020908152604080832093861683529281528282208483529052908120805460ff16610e2057506001600160a01b0384166000908152600160209081526040808320838052825280832085845290915290205b60010154949350505050565b84610e36816115bd565b838214610e4557610e45611c29565b60005b84811015610ba757866001600160a01b031663fa6e0cfe878784818110610e7157610e71611c3f565b9050602002016020810190610e869190611c0c565b868685818110610e9857610e98611c3f565b9050602002016020810190610ead9190611c0c565b6040516001600160e01b031960e085901b1681526001600160a01b03928316600482015291166024820152604401600060405180830381600087803b158015610ef557600080fd5b505af1158015610f09573d6000803e3d6000fd5b5050505080610f1790611c55565b9050610e48565b600061067783837feae305fa863b373417e615b1044222e2806cefc7788d169ce6748a443c3f6cc4610dbb565b6000610f5c83600061039085611475565b6001149392505050565b803b6000819003610f8a576040516380dddd7360e01b815260040160405180910390fd5b50610fa1826000610f9a84611475565b60016112ce565b806001600160a01b0316826001600160a01b03167f8bfde939e79b7e6c603d67aa576e5b75a3f370334b14a9b0e5e263190034d31d600160405161060e911515815260200190565b61101482827feae305fa863b373417e615b1044222e2806cefc7788d169ce6748a443c3f6cc4611381565b60408051600080825260208201526001600160a01b0380841692908516917fc055c4a3853372c08a98805545379133f00f7261d956b9197729d67f37a82a53910161060e565b60006110668383611442565b905061107484600083611381565b826001600160a01b0316846001600160a01b03167fa22916b55c84301b9ba61d6494b1860339c075b3518e6db6f496bdf2a13d6ffc8460006040516110ba929190611cc2565b60405180910390a350505050565b6110d68383610f9a8461169e565b6040805160018082526001600160a01b03848116602084015292820152818416918516907f168da2dec91b2e06e30d49955479383e76f71ba185807a8a5b75e2ed563e1d27906060016107c5565b8161112e816115bd565b6040516315a024e160e01b81526001600160a01b0383811660048301528416906315a024e190602401610b79565b60006111688484611442565b905061117785600083856112ce565b836001600160a01b0316856001600160a01b03167fa22916b55c84301b9ba61d6494b1860339c075b3518e6db6f496bdf2a13d6ffc8585604051610587929190611cc2565b6111e782827f9f60ae461adf056670e03ae602566409933242392cb06744f5747c9f38b05d09611381565b60408051600080825260208201526001600160a01b0380841692908516917f14e12f219a4f9023456dc7832e10119ab768b8ccefc8cb79bc6de0419781eeeb910161060e565b600061123d84846103908561169e565b600114949350505050565b6112506115f4565b6001600160a01b0381166112ba5760405162461bcd60e51b815260206004820152602660248201527f4f776e61626c653a206e6577206f776e657220697320746865207a65726f206160448201526564647265737360d01b60648201526084015b60405180910390fd5b6112c38161164e565b50565b610ce2848484845b836112d8816115bd565b60408051848152600160208201529081018390526001600160a01b0380861691908716907f33afe19ae6902b933890ff48190fabdc4cf7f5ab499be9c4d9d98e3b4562e3909060600160405180910390a350604080518082018252600180825260208083019485526001600160a01b039788166000908152828252848120979098168852958652828720948752939094529093209151825460ff19169015151782559151910155565b8261138b816115bd565b826001600160a01b0316846001600160a01b03167f33afe19ae6902b933890ff48190fabdc4cf7f5ab499be9c4d9d98e3b4562e390846000806040516113e4939291909283529015156020830152604082015260600190565b60405180910390a350604080518082018252600080825260208083018281526001600160a01b03978816835260018083528584209790981683529581528382209482529390935291209051815460ff19169015151781559051910155565b60008282604051602001611457929190611ce4565b60405160208183030381529060405280519060200120905092915050565b6040805160208101829052603960608201527f6f72672e7375706572666c7569642d66696e616e63652e7375706572666c756960808201527f642e61707057686974654c697374696e672e666163746f72790000000000000060a08201526001600160a01b0383169181019190915260009060c0015b604051602081830303815290604052805190602001209050919050565b83611512816115bd565b60408051848152600160208201526001600160a01b03848116828401529151868316928816917f33afe19ae6902b933890ff48190fabdc4cf7f5ab499be9c4d9d98e3b4562e390919081900360600190a35060408051808201825260018082526001600160a01b03938416602080840191825297851660009081528289528481209790951685529587528284209484529390955290209251835460ff19169015151783559051910155565b6002546001600160a01b038281169116146115da576115da611c29565b6000546001600160a01b031633146112c3576112c3611c29565b6000546001600160a01b03163314610cd45760405162461bcd60e51b815260206004820181905260248201527f4f776e61626c653a2063616c6c6572206973206e6f7420746865206f776e657260448201526064016112b1565b600080546001600160a01b038381166001600160a01b0319831681178455604051919092169283917f8be0079c531659141344cd1fd0a4f28419497f9722a3daafe3b4186f6b6457e09190a35050565b6040805160208101829052603260608201527f6f72672e7375706572666c7569642d66696e616e63652e7375706572666c756960808201527132173a393ab9ba32b22337b93bb0b93232b960711b60a08201526001600160a01b0383169181019190915260009060c0016114eb565b6001600160a01b03811681146112c357600080fd5b6000806000806080858703121561173857600080fd5b84356117438161170d565b935060208501356117538161170d565b93969395505050506040820135916060013590565b6000806040838503121561177b57600080fd5b82356117868161170d565b915060208301356117968161170d565b809150509250929050565b634e487b7160e01b600052604160045260246000fd5b600082601f8301126117c857600080fd5b813567ffffffffffffffff808211156117e3576117e36117a1565b604051601f8301601f19908116603f0116810190828211818310171561180b5761180b6117a1565b8160405283815286602085880101111561182457600080fd5b836020870160208301376000602085830101528094505050505092915050565b60008060006060848603121561185957600080fd5b83356118648161170d565b925060208401356118748161170d565b9150604084013567ffffffffffffffff81111561189057600080fd5b61189c868287016117b7565b9150509250925092565b60008083601f8401126118b857600080fd5b50813567ffffffffffffffff8111156118d057600080fd5b6020830191508360208260051b85010111156118eb57600080fd5b9250929050565b60008060008060006060868803121561190a57600080fd5b85356119158161170d565b9450602086013567ffffffffffffffff8082111561193257600080fd5b61193e89838a016118a6565b9096509450604088013591508082111561195757600080fd5b50611964888289016118a6565b969995985093965092949392505050565b60008060006060848603121561198a57600080fd5b83356119958161170d565b925060208401356119a58161170d565b915060408401356119b58161170d565b809150509250925092565b6000806000604084860312156119d557600080fd5b83356119e08161170d565b9250602084013567ffffffffffffffff8111156119fc57600080fd5b611a08868287016118a6565b9497909650939450505050565b600080600080600060808688031215611a2d57600080fd5b8535611a388161170d565b94506020860135611a488161170d565b9350604086013567ffffffffffffffff811115611a6457600080fd5b611a70888289016118a6565b9094509250506060860135611a848161170d565b809150509295509295909350565b60008060008060008060a08789031215611aab57600080fd5b8635611ab68161170d565b95506020870135611ac68161170d565b94506040870135935060608701359250608087013567ffffffffffffffff811115611af057600080fd5b611afc89828a016118a6565b979a9699509497509295939492505050565b600080600060608486031215611b2357600080fd5b8335611b2e8161170d565b92506020840135611b3e8161170d565b929592945050506040919091013590565b60008060008060808587031215611b6557600080fd5b8435611b708161170d565b93506020850135611b808161170d565b9250604085013591506060850135611b978161170d565b939692955090935050565b60008060008060808587031215611bb857600080fd5b8435611bc38161170d565b93506020850135611bd38161170d565b9250604085013567ffffffffffffffff811115611bef57600080fd5b611bfb878288016117b7565b949793965093946060013593505050565b600060208284031215611c1e57600080fd5b81356106778161170d565b634e487b7160e01b600052600160045260246000fd5b634e487b7160e01b600052603260045260246000fd5b600060018201611c7557634e487b7160e01b600052601160045260246000fd5b5060010190565b6000815180845260005b81811015611ca257602081850181015186830182015201611c86565b506000602082860101526020601f19601f83011685010191505092915050565b604081526000611cd56040830185611c7c565b90508260208301529392505050565b60608152604160608201527f6f72672e7375706572666c7569642d66696e616e63652e7375706572666c756960808201527f642e61707057686974654c697374696e672e726567697374726174696f6e4b6560a0820152607960f81b60c082015260018060a01b038316602082015260e060408201526000611d6960e0830184611c7c565b94935050505056fea264697066735822122001b07f7f07ebb17da829ec3b4d5a3f16d59c46f106b6ee1cb1ab0d23af09c3bd64736f6c63430008130033",
    "linkReferences": {}
  },
  "methodIdentifiers": {
    "authorizeAppFactory(address,address)": "8b93b3f5",
    "batchUpdateSuperTokenLogic(address,address[])": "42148deb",
    "batchUpdateSuperTokenLogic(address,address[],address[])": "870299c0",
    "batchUpdateSuperTokenMinimumDeposit(address,address[],uint256[])": "21964473",
    "clearAppRegistrationKey(address,address,string)": "948eda5e",
    "clearConfig(address,address,bytes32)": "640b6cc9",
    "clearPPPConfig(address,address)": "01a06b97",
    "clearRewardAddress(address,address)": "e447cc1d",
    "clearSuperTokenMinimumDeposit(address,address)": "8ecbd87b",
    "disableTrustedForwarder(address,address,address)": "7dce4f81",
    "enableTrustedForwarder(address,address,address)": "ab846f1a",
    "getConfigAsAddress(address,address,bytes32)": "8369a0f1",
    "getConfigAsUint256(address,address,bytes32)": "80f70cba",
    "getPPPConfig(address,address)": "45228235",
    "getRewardAddress(address,address)": "19df62ab",
    "getSuperTokenMinimumDeposit(address,address)": "8a7ff2f7",
    "initialize(address,address,uint256,uint256,address[])": "5a907818",
    "isAuthorizedAppFactory(address,address)": "8abe04e9",
    "isTrustedForwarder(address,address,address)": "f047a2d9",
    "owner()": "8da5cb5b",
    "registerAgreementClass(address,address)": "cadf8f85",
    "renounceOwnership()": "715018a6",
    "replaceGovernance(address,address)": "44864b25",
    "setAppRegistrationKey(address,address,string,uint256)": "d099b6a0",
    "setConfig(address,address,bytes32,address)": "78707cb8",
    "setConfig(address,address,bytes32,uint256)": "f79a8e63",
    "setPPPConfig(address,address,uint256,uint256)": "0086d555",
    "setRewardAddress(address,address,address)": "32552908",
    "setSuperTokenMinimumDeposit(address,address,uint256)": "7f0558e4",
    "transferOwnership(address)": "f2fde38b",
    "unauthorizeAppFactory(address,address)": "25c955c3",
    "updateContracts(address,address,address[],address)": "427942a4",
    "verifyAppRegistrationKey(address,address,string)": "11cf00f1"
  },
  "id": 110
}