{
  "abi": [
    {
      "inputs": [
        {
          "internalType": "contract ISuperfluid",
          "name": "host",
          "type": "address"
        },
        {
          "internalType": "contract ISuperToken",
          "name": "superTokenLogic",
          "type": "address"
        },
        {
          "internalType": "contract IConstantOutflowNFT",
          "name": "constantOutflowNFTLogic",
          "type": "address"
        },
        {
          "internalType": "contract IConstantInflowNFT",
          "name": "constantInflowNFTLogic",
          "type": "address"
        }
      ],
      "stateMutability": "nonpayable",
      "type": "constructor"
    },
    {
      "inputs": [],
      "name": "SUPER_TOKEN_FACTORY_ALREADY_EXISTS",
      "type": "error"
    },
    {
      "inputs": [],
      "name": "SUPER_TOKEN_FACTORY_DOES_NOT_EXIST",
      "type": "error"
    },
    {
      "inputs": [],
      "name": "SUPER_TOKEN_FACTORY_NON_UPGRADEABLE_IS_DEPRECATED",
      "type": "error"
    },
    {
      "inputs": [],
      "name": "SUPER_TOKEN_FACTORY_ONLY_GOVERNANCE_OWNER",
      "type": "error"
    },
    {
      "inputs": [],
      "name": "SUPER_TOKEN_FACTORY_ONLY_HOST",
      "type": "error"
    },
    {
      "inputs": [],
      "name": "SUPER_TOKEN_FACTORY_UNINITIALIZED",
      "type": "error"
    },
    {
      "inputs": [],
      "name": "SUPER_TOKEN_FACTORY_ZERO_ADDRESS",
      "type": "error"
    },
    {
      "anonymous": false,
      "inputs": [
        {
          "indexed": false,
          "internalType": "bytes32",
          "name": "uuid",
          "type": "bytes32"
        },
        {
          "indexed": false,
          "internalType": "address",
          "name": "codeAddress",
          "type": "address"
        }
      ],
      "name": "CodeUpdated",
      "type": "event"
    },
    {
      "anonymous": false,
      "inputs": [
        {
          "indexed": true,
          "internalType": "contract ISuperToken",
          "name": "token",
          "type": "address"
        }
      ],
      "name": "CustomSuperTokenCreated",
      "type": "event"
    },
    {
      "anonymous": false,
      "inputs": [
        {
          "indexed": false,
          "internalType": "uint8",
          "name": "version",
          "type": "uint8"
        }
      ],
      "name": "Initialized",
      "type": "event"
    },
    {
      "anonymous": false,
      "inputs": [
        {
          "indexed": true,
          "internalType": "contract ISuperToken",
          "name": "token",
          "type": "address"
        }
      ],
      "name": "SuperTokenCreated",
      "type": "event"
    },
    {
      "anonymous": false,
      "inputs": [
        {
          "indexed": true,
          "internalType": "contract ISuperToken",
          "name": "tokenLogic",
          "type": "address"
        }
      ],
      "name": "SuperTokenLogicCreated",
      "type": "event"
    },
    {
      "inputs": [],
      "name": "CONSTANT_INFLOW_NFT_LOGIC",
      "outputs": [
        {
          "internalType": "contract IConstantInflowNFT",
          "name": "",
          "type": "address"
        }
      ],
      "stateMutability": "view",
      "type": "function"
    },
    {
      "inputs": [],
      "name": "CONSTANT_OUTFLOW_NFT_LOGIC",
      "outputs": [
        {
          "internalType": "contract IConstantOutflowNFT",
          "name": "",
          "type": "address"
        }
      ],
      "stateMutability": "view",
      "type": "function"
    },
    {
      "inputs": [],
      "name": "_SUPER_TOKEN_LOGIC",
      "outputs": [
        {
          "internalType": "contract ISuperToken",
          "name": "",
          "type": "address"
        }
      ],
      "stateMutability": "view",
      "type": "function"
    },
    {
      "inputs": [],
      "name": "castrate",
      "outputs": [],
      "stateMutability": "nonpayable",
      "type": "function"
    },
    {
      "inputs": [
        {
          "internalType": "address",
          "name": "_underlyingToken",
          "type": "address"
        }
      ],
      "name": "computeCanonicalERC20WrapperAddress",
      "outputs": [
        {
          "internalType": "address",
          "name": "superTokenAddress",
          "type": "address"
        },
        {
          "internalType": "bool",
          "name": "isDeployed",
          "type": "bool"
        }
      ],
      "stateMutability": "view",
      "type": "function"
    },
    {
      "inputs": [
        {
          "internalType": "contract ERC20WithTokenInfo",
          "name": "_underlyingToken",
          "type": "address"
        }
      ],
      "name": "createCanonicalERC20Wrapper",
      "outputs": [
        {
          "internalType": "contract ISuperToken",
          "name": "",
          "type": "address"
        }
      ],
      "stateMutability": "nonpayable",
      "type": "function"
    },
    {
      "inputs": [
        {
          "internalType": "contract ERC20WithTokenInfo",
          "name": "underlyingToken",
          "type": "address"
        },
        {
          "internalType": "enum ISuperTokenFactory.Upgradability",
          "name": "upgradability",
          "type": "uint8"
        },
        {
          "internalType": "string",
          "name": "name",
          "type": "string"
        },
        {
          "internalType": "string",
          "name": "symbol",
          "type": "string"
        }
      ],
      "name": "createERC20Wrapper",
      "outputs": [
        {
          "internalType": "contract ISuperToken",
          "name": "superToken",
          "type": "address"
        }
      ],
      "stateMutability": "nonpayable",
      "type": "function"
    },
    {
      "inputs": [
        {
          "internalType": "contract IERC20",
          "name": "underlyingToken",
          "type": "address"
        },
        {
          "internalType": "uint8",
          "name": "underlyingDecimals",
          "type": "uint8"
        },
        {
          "internalType": "enum ISuperTokenFactory.Upgradability",
          "name": "upgradability",
          "type": "uint8"
        },
        {
          "internalType": "string",
          "name": "name",
          "type": "string"
        },
        {
          "internalType": "string",
          "name": "symbol",
          "type": "string"
        }
      ],
      "name": "createERC20Wrapper",
      "outputs": [
        {
          "internalType": "contract ISuperToken",
          "name": "superToken",
          "type": "address"
        }
      ],
      "stateMutability": "nonpayable",
      "type": "function"
    },
    {
      "inputs": [
        {
          "internalType": "address",
          "name": "_underlyingTokenAddress",
          "type": "address"
        }
      ],
      "name": "getCanonicalERC20Wrapper",
      "outputs": [
        {
          "internalType": "address",
          "name": "superTokenAddress",
          "type": "address"
        }
      ],
      "stateMutability": "view",
      "type": "function"
    },
    {
      "inputs": [],
      "name": "getCodeAddress",
      "outputs": [
        {
          "internalType": "address",
          "name": "codeAddress",
          "type": "address"
        }
      ],
      "stateMutability": "view",
      "type": "function"
    },
    {
      "inputs": [],
      "name": "getHost",
      "outputs": [
        {
          "internalType": "address",
          "name": "host",
          "type": "address"
        }
      ],
      "stateMutability": "view",
      "type": "function"
    },
    {
      "inputs": [],
      "name": "getSuperTokenLogic",
      "outputs": [
        {
          "internalType": "contract ISuperToken",
          "name": "",
          "type": "address"
        }
      ],
      "stateMutability": "view",
      "type": "function"
    },
    {
      "inputs": [],
      "name": "initialize",
      "outputs": [],
      "stateMutability": "nonpayable",
      "type": "function"
    },
    {
      "inputs": [
        {
          "components": [
            {
              "internalType": "address",
              "name": "underlyingToken",
              "type": "address"
            },
            {
              "internalType": "address",
              "name": "superToken",
              "type": "address"
            }
          ],
          "internalType": "struct SuperTokenFactoryBase.InitializeData[]",
          "name": "_data",
          "type": "tuple[]"
        }
      ],
      "name": "initializeCanonicalWrapperSuperTokens",
      "outputs": [],
      "stateMutability": "nonpayable",
      "type": "function"
    },
    {
      "inputs": [
        {
          "internalType": "address",
          "name": "customSuperTokenProxy",
          "type": "address"
        }
      ],
      "name": "initializeCustomSuperToken",
      "outputs": [],
      "stateMutability": "nonpayable",
      "type": "function"
    },
    {
      "inputs": [],
      "name": "proxiableUUID",
      "outputs": [
        {
          "internalType": "bytes32",
          "name": "",
          "type": "bytes32"
        }
      ],
      "stateMutability": "pure",
      "type": "function"
    },
    {
      "inputs": [
        {
          "internalType": "address",
          "name": "newAddress",
          "type": "address"
        }
      ],
      "name": "updateCode",
      "outputs": [],
      "stateMutability": "nonpayable",
      "type": "function"
    }
  ],
  "bytecode": {
    "object": "0x6101006040523480156200001257600080fd5b5060405162001f2138038062001f21833981016040819052620000359162000107565b6001600160a01b0380851660a052831660808190526040805163132075a760e31b81529051869286928692869291639903ad3891600480830192600092919082900301818387803b1580156200008a57600080fd5b505af19250505080156200009c575060015b506001600160a01b0380831660c05281811660e0526080516040519116907fc13fb19d60857980e565bf5dae406b8802d3c1cec50c6156b30b12b87402978390600090a250505050505050506200016f565b6001600160a01b03811681146200010457600080fd5b50565b600080600080608085870312156200011e57600080fd5b84516200012b81620000ee565b60208601519094506200013e81620000ee565b60408601519093506200015181620000ee565b60608601519092506200016481620000ee565b939692955090935050565b60805160a05160c05160e051611d32620001ef600039600081816101a1015261090001526000818161017a01526107e701526000818161010b015281816106c30152610b590152600081816101cd0152818161024e015281816103d0015281816108160152818161092f01528181610e1801526110b00152611d326000f3fe608060405234801561001057600080fd5b50600436106100db5760003560e01c8063151188dc146100e057806320bc442514610109578063431f14811461012f578063469519541461014257806350d75d251461015757806352d1902d1461015f5780635365d19f146101755780635a7792df1461019c5780638129fc1c146101c35780639470a5b2146101cb57806397e011ed146101f15780639903ad38146101c3578063a6d0c53414610204578063bab74c8914610217578063cbf927b314610249578063d412d34414610270578063eff0a89d14610283575b600080fd5b6100f36100ee366004611356565b6102af565b604051610100919061137a565b60405180910390f35b7f00000000000000000000000000000000000000000000000000000000000000006100f3565b6100f361013d3660046113ea565b61063b565b610155610150366004611356565b6106b8565b005b6100f3610a13565b610167610a22565b604051908152602001610100565b6100f37f000000000000000000000000000000000000000000000000000000000000000081565b6100f37f000000000000000000000000000000000000000000000000000000000000000081565b610155610a46565b7f00000000000000000000000000000000000000000000000000000000000000006100f3565b6101556101ff36600461147c565b610b55565b6100f36102123660046114ff565b610d52565b61022a610225366004611356565b610f93565b604080516001600160a01b039093168352901515602083015201610100565b6100f37f000000000000000000000000000000000000000000000000000000000000000081565b61015561027e366004611356565b61108a565b6100f3610291366004611356565b6001600160a01b039081166000908152600160205260409020541690565b60008080526001602052600080516020611cbd833981519152546001600160a01b03166102ef576040516306ce6e6d60e21b815260040160405180910390fd5b6001600160a01b03808316600090815260016020526040902054839116801561032b576040516348eb3cb960e11b815260040160405180910390fd5b60008260405160200161033e919061137a565b60405160208183030381529060405280519060200120905060008160405161036590611327565b8190604051809103906000f5905080158015610385573d6000803e3d6000fd5b506001600160a01b038581166000908152600160205260409081902080546001600160a01b031916928416928317905551634a0687ef60e01b815291925090634a0687ef906103f8907f00000000000000000000000000000000000000000000000000000000000000009060040161137a565b600060405180830381600087803b15801561041257600080fd5b505af1158015610426573d6000803e3d6000fd5b5050505060008190506000876001600160a01b031663313ce5676040518163ffffffff1660e01b8152600401602060405180830381865afa15801561046f573d6000803e3d6000fd5b505050506040513d601f19601f8201168201806040525081019061049391906115a4565b90506000886001600160a01b03166306fdde036040518163ffffffff1660e01b8152600401600060405180830381865afa1580156104d5573d6000803e3d6000fd5b505050506040513d6000823e601f3d908101601f191682016040526104fd91908101906115fb565b90506000896001600160a01b03166395d89b416040518163ffffffff1660e01b8152600401600060405180830381865afa15801561053f573d6000803e3d6000fd5b505050506040513d6000823e601f3d908101601f1916820160405261056791908101906115fb565b9050836001600160a01b03166342fe09808b858560405160200161058b919061169c565b604051602081830303815290604052856040516020016105ab91906116ca565b6040516020818303038152906040526040518563ffffffff1660e01b81526004016105d9949392919061171b565b600060405180830381600087803b1580156105f357600080fd5b505af1158015610607573d6000803e3d6000fd5b50506040516001600160a01b0387169250600080516020611c9d8339815191529150600090a2509198975050505050505050565b60006106ad87886001600160a01b031663313ce5676040518163ffffffff1660e01b8152600401602060405180830381865afa15801561067f573d6000803e3d6000fd5b505050506040513d601f19601f820116820180604052508101906106a391906115a4565b8888888888610d52565b979650505050505050565b336001600160a01b037f000000000000000000000000000000000000000000000000000000000000000016146107015760405163478b8e8360e01b815260040160405180910390fd5b61070a81611142565b60008190506000816001600160a01b0316635365d19f6040518163ffffffff1660e01b8152600401602060405180830381865afa15801561074f573d6000803e3d6000fd5b505050506040513d601f19601f82011682018060405250810190610773919061175a565b90506000826001600160a01b0316635a7792df6040518163ffffffff1660e01b8152600401602060405180830381865afa1580156107b5573d6000803e3d6000fd5b505050506040513d601f19601f820116820180604052508101906107d9919061175a565b9050816001600160a01b03167f00000000000000000000000000000000000000000000000000000000000000006001600160a01b0316146108f4577f00000000000000000000000000000000000000000000000000000000000000006001600160a01b031663ef43d2c66040518163ffffffff1660e01b8152600401602060405180830381865afa158015610872573d6000803e3d6000fd5b505050506040513d601f19601f82011682018060405250810190610896919061175a565b6001600160a01b03166346951954836040518263ffffffff1660e01b81526004016108c1919061137a565b600060405180830381600087803b1580156108db57600080fd5b505af11580156108ef573d6000803e3d6000fd5b505050505b806001600160a01b03167f00000000000000000000000000000000000000000000000000000000000000006001600160a01b031614610a0d577f00000000000000000000000000000000000000000000000000000000000000006001600160a01b0316634c5c0c856040518163ffffffff1660e01b8152600401602060405180830381865afa15801561098b573d6000803e3d6000fd5b505050506040513d601f19601f820116820180604052508101906109af919061175a565b6001600160a01b03166346951954826040518263ffffffff1660e01b81526004016109da919061137a565b600060405180830381600087803b1580156109f457600080fd5b505af1158015610a08573d6000803e3d6000fd5b505050505b50505050565b6000610a1d611314565b905090565b7fb146a22bc9644a3313a7e28592f37d32718a2b618d3d136aa524b0d86b87b62090565b600054610100900460ff1615808015610a665750600054600160ff909116105b80610a805750303b158015610a80575060005460ff166001145b610ae85760405162461bcd60e51b815260206004820152602e60248201527f496e697469616c697a61626c653a20636f6e747261637420697320616c72656160448201526d191e481a5b9a5d1a585b1a5e995960921b60648201526084015b60405180910390fd5b6000805460ff191660011790558015610b0b576000805461ff0019166101001790555b8015610b52576000805461ff0019169055604051600181527f7f26b83ff96e1f2b6a682f133852f6798a09c465da95921460cefb3847402498906020015b60405180910390a15b50565b60007f00000000000000000000000000000000000000000000000000000000000000006001600160a01b031663289b3c0d6040518163ffffffff1660e01b8152600401602060405180830381865afa158015610bb5573d6000803e3d6000fd5b505050506040513d601f19601f82011682018060405250810190610bd9919061175a565b9050806001600160a01b0316638da5cb5b6040518163ffffffff1660e01b8152600401602060405180830381865afa158015610c19573d6000803e3d6000fd5b505050506040513d601f19601f82011682018060405250810190610c3d919061175a565b6001600160a01b0316336001600160a01b031614610c6e57604051632bf2a63360e21b815260040160405180910390fd5b600080526001602052600080516020611cbd833981519152546001600160a01b031615610cae576040516348eb3cb960e11b815260040160405180910390fd5b60005b82811015610a0d57838382818110610ccb57610ccb611777565b9050604002016020016020810190610ce39190611356565b60016000868685818110610cf957610cf9611777565b610d0f9260206040909202019081019150611356565b6001600160a01b039081168252602082019290925260400160002080546001600160a01b0319169290911691909117905580610d4a8161178d565b915050610cb1565b60006001600160a01b038816610d7b5760405163182e4f4160e11b815260040160405180910390fd5b6000866002811115610d8f57610d8f6117b4565b03610dad5760405163c4901a4360e01b815260040160405180910390fd5b6001866002811115610dc157610dc16117b4565b03610e7b576000604051610dd490611327565b604051809103906000f080158015610df0573d6000803e3d6000fd5b50604051634a0687ef60e01b81529091506001600160a01b03821690634a0687ef90610e40907f00000000000000000000000000000000000000000000000000000000000000009060040161137a565b600060405180830381600087803b158015610e5a57600080fd5b505af1158015610e6e573d6000803e3d6000fd5b5050505080915050610eff565b6000604051610e8990611334565b604051809103906000f080158015610ea5573d6000803e3d6000fd5b509050806001600160a01b0316638129fc1c6040518163ffffffff1660e01b8152600401600060405180830381600087803b158015610ee357600080fd5b505af1158015610ef7573d6000803e3d6000fd5b509293505050505b6040516285fc1360e71b81526001600160a01b038216906342fe098090610f34908b908b908a908a908a908a906004016117f3565b600060405180830381600087803b158015610f4e57600080fd5b505af1158015610f62573d6000803e3d6000fd5b50506040516001600160a01b0384169250600080516020611c9d8339815191529150600090a2979650505050505050565b6001600160a01b0380821660009081526001602052604081205490918291168015610fc45780925060019150611084565b600060405180602001610fd690611327565b6020820181038252601f19601f82011660405250905060ff60f81b3086604051602001611003919061137a565b60405160208183030381529060405280519060200120838051906020012060405160200161106394939291906001600160f81b031994909416845260609290921b6001600160601b03191660018401526015830152603582015260550190565b6040516020818303038152906040528051906020012060001c935060009250505b50915091565b604051634a0687ef60e01b815281906001600160a01b03821690634a0687ef906110d8907f00000000000000000000000000000000000000000000000000000000000000009060040161137a565b600060405180830381600087803b1580156110f257600080fd5b505af1158015611106573d6000803e3d6000fd5b50506040516001600160a01b03851692507f437790724a6e97b75d23117f28cdd4b1beeafc34f7a0911ef256e9334f4369a59150600090a25050565b600061114c611314565b6001600160a01b0316036111a25760405162461bcd60e51b815260206004820152601d60248201527f5555505350726f786961626c653a206e6f742075706772616461626c650000006044820152606401610adf565b806001600160a01b03166352d1902d6040518163ffffffff1660e01b8152600401602060405180830381865afa1580156111e0573d6000803e3d6000fd5b505050506040513d601f19601f820116820180604052508101906112049190611841565b61120c610a22565b146112655760405162461bcd60e51b815260206004820152602360248201527f5555505350726f786961626c653a206e6f7420636f6d70617469626c65206c6f60448201526267696360e81b6064820152608401610adf565b6001600160a01b03811630036112b95760405162461bcd60e51b815260206004820152601960248201527805555505350726f786961626c653a2070726f7879206c6f6f7603c1b6044820152606401610adf565b6112cf81600080516020611cdd83398151915255565b7fe011bc04c286c344a8fcbb8de77f953da762c3e25d8cdea984147fc4168a5dcc6112f8610a22565b604080519182526001600160a01b038416602083015201610b49565b600080516020611cdd8339815191525490565b6102258061185b83390190565b61021d80611a8083390190565b6001600160a01b0381168114610b5257600080fd5b60006020828403121561136857600080fd5b813561137381611341565b9392505050565b6001600160a01b0391909116815260200190565b80356003811061139d57600080fd5b919050565b60008083601f8401126113b457600080fd5b5081356001600160401b038111156113cb57600080fd5b6020830191508360208285010111156113e357600080fd5b9250929050565b6000806000806000806080878903121561140357600080fd5b863561140e81611341565b955061141c6020880161138e565b945060408701356001600160401b038082111561143857600080fd5b6114448a838b016113a2565b9096509450606089013591508082111561145d57600080fd5b5061146a89828a016113a2565b979a9699509497509295939492505050565b6000806020838503121561148f57600080fd5b82356001600160401b03808211156114a657600080fd5b818501915085601f8301126114ba57600080fd5b8135818111156114c957600080fd5b8660208260061b85010111156114de57600080fd5b60209290920196919550909350505050565b60ff81168114610b5257600080fd5b600080600080600080600060a0888a03121561151a57600080fd5b873561152581611341565b96506020880135611535816114f0565b95506115436040890161138e565b945060608801356001600160401b038082111561155f57600080fd5b61156b8b838c016113a2565b909650945060808a013591508082111561158457600080fd5b506115918a828b016113a2565b989b979a50959850939692959293505050565b6000602082840312156115b657600080fd5b8151611373816114f0565b634e487b7160e01b600052604160045260246000fd5b60005b838110156115f25781810151838201526020016115da565b50506000910152565b60006020828403121561160d57600080fd5b81516001600160401b038082111561162457600080fd5b818401915084601f83011261163857600080fd5b81518181111561164a5761164a6115c1565b604051601f8201601f19908116603f01168101908382118183101715611672576116726115c1565b8160405282815287602084870101111561168b57600080fd5b6106ad8360208301602088016115d7565b65029bab832b9160d51b8152600082516116bd8160068501602087016115d7565b9190910160060192915050565b600082516116dc8184602087016115d7565b600f60fb1b920191825250600101919050565b600081518084526117078160208601602086016115d7565b601f01601f19169290920160200192915050565b6001600160a01b038516815260ff84166020820152608060408201819052600090611748908301856116ef565b82810360608401526106ad81856116ef565b60006020828403121561176c57600080fd5b815161137381611341565b634e487b7160e01b600052603260045260246000fd5b6000600182016117ad57634e487b7160e01b600052601160045260246000fd5b5060010190565b634e487b7160e01b600052602160045260246000fd5b81835281816020850137506000828201602090810191909152601f909101601f19169091010190565b6001600160a01b038716815260ff8616602082015260806040820181905260009061182190830186886117ca565b82810360608401526118348185876117ca565b9998505050505050505050565b60006020828403121561185357600080fd5b505191905056fe608060405234801561001057600080fd5b50610205806100206000396000f3fe6080604052600436106100225760003560e01c80634a0687ef1461003957610031565b366100315761002f610059565b005b61002f610059565b34801561004557600080fd5b5061002f61005436600461017f565b61006b565b610069610064610139565b610148565b565b6001600160a01b0381166100c05760405162461bcd60e51b81526020600482015260176024820152765555505350726f78793a207a65726f206164647265737360481b60448201526064015b60405180910390fd5b60006100ca61016c565b6001600160a01b0316146101205760405162461bcd60e51b815260206004820152601e60248201527f5555505350726f78793a20616c726561647920696e697469616c697a6564000060448201526064016100b7565b610136816000805160206101b083398151915255565b50565b600061014361016c565b905090565b3660008037600080366000845af43d6000803e808015610167573d6000f35b3d6000fd5b6000805160206101b08339815191525490565b60006020828403121561019157600080fd5b81356001600160a01b03811681146101a857600080fd5b939250505056fe360894a13ba1a3210667c828492db98dca3e2076cc3735a920a3ca505d382bbca26469706673582212202bd66840fde63fd7c6d94a685aab9abeb6a0d8dad446932c40714925367b95d764736f6c63430008130033608060405234801561001057600080fd5b506101fd806100206000396000f3fe6080604052600436106100225760003560e01c80638129fc1c1461003957610031565b366100315761002f61004e565b005b61002f61004e565b34801561004557600080fd5b5061002f610060565b61005e6100596100ac565b61013d565b565b6000805160206101a8833981519152546001600160a01b03811615610098576040516305c5d81960e01b815260040160405180910390fd5b50336000805160206101a883398151915255565b6000805160206101a8833981519152546000906001600160a01b0381166100d5576100d5610161565b806001600160a01b0316639470a5b26040518163ffffffff1660e01b8152600401602060405180830381865afa158015610113573d6000803e3d6000fd5b505050506040513d601f19601f820116820180604052508101906101379190610177565b91505090565b3660008037600080366000845af43d6000803e80801561015c573d6000f35b3d6000fd5b634e487b7160e01b600052600160045260246000fd5b60006020828403121561018957600080fd5b81516001600160a01b03811681146101a057600080fd5b939250505056feb8fcd5719b3ddf8626f3664705a89b7fc476129a58c1aa5eda57c600cc1821a0a2646970667358221220954f9e9b5b7a165d02a7b3d488610249694a1ac85abd59ecb47dc2b50198c0a864736f6c63430008130033b52c6d9d122e8c07769b96d7bb14e66db58ee03fdebaaa2f92547e9c7ef0e65fa6eef7e35abe7026729641147f7915573c7e97b47efa546f5f6e3230263bcb49360894a13ba1a3210667c828492db98dca3e2076cc3735a920a3ca505d382bbca2646970667358221220c0ad165230327ce11d8384ce53f2d97ea22271db72876fcfe1af5e5d03d70b9564736f6c63430008130033",
    "linkReferences": {}
  },
  "methodIdentifiers": {
    "CONSTANT_INFLOW_NFT_LOGIC()": "5a7792df",
    "CONSTANT_OUTFLOW_NFT_LOGIC()": "5365d19f",
    "_SUPER_TOKEN_LOGIC()": "cbf927b3",
    "castrate()": "9903ad38",
    "computeCanonicalERC20WrapperAddress(address)": "bab74c89",
    "createCanonicalERC20Wrapper(address)": "151188dc",
    "createERC20Wrapper(address,uint8,string,string)": "431f1481",
    "createERC20Wrapper(address,uint8,uint8,string,string)": "a6d0c534",
    "getCanonicalERC20Wrapper(address)": "eff0a89d",
    "getCodeAddress()": "50d75d25",
    "getHost()": "20bc4425",
    "getSuperTokenLogic()": "9470a5b2",
    "initialize()": "8129fc1c",
    "initializeCanonicalWrapperSuperTokens((address,address)[])": "97e011ed",
    "initializeCustomSuperToken(address)": "d412d344",
    "proxiableUUID()": "52d1902d",
    "updateCode(address)": "46951954"
  },
  "id": 90
}