{
  "abi": [
    {
      "inputs": [],
      "stateMutability": "nonpayable",
      "type": "constructor"
    },
    {
      "anonymous": false,
      "inputs": [
        {
          "indexed": true,
          "internalType": "bytes32",
          "name": "role",
          "type": "bytes32"
        },
        {
          "indexed": true,
          "internalType": "bytes32",
          "name": "previousAdminRole",
          "type": "bytes32"
        },
        {
          "indexed": true,
          "internalType": "bytes32",
          "name": "newAdminRole",
          "type": "bytes32"
        }
      ],
      "name": "RoleAdminChanged",
      "type": "event"
    },
    {
      "anonymous": false,
      "inputs": [
        {
          "indexed": true,
          "internalType": "bytes32",
          "name": "role",
          "type": "bytes32"
        },
        {
          "indexed": true,
          "internalType": "address",
          "name": "account",
          "type": "address"
        },
        {
          "indexed": true,
          "internalType": "address",
          "name": "sender",
          "type": "address"
        }
      ],
      "name": "RoleGranted",
      "type": "event"
    },
    {
      "anonymous": false,
      "inputs": [
        {
          "indexed": true,
          "internalType": "bytes32",
          "name": "role",
          "type": "bytes32"
        },
        {
          "indexed": true,
          "internalType": "address",
          "name": "account",
          "type": "address"
        },
        {
          "indexed": true,
          "internalType": "address",
          "name": "sender",
          "type": "address"
        }
      ],
      "name": "RoleRevoked",
      "type": "event"
    },
    {
      "anonymous": false,
      "inputs": [
        {
          "indexed": true,
          "internalType": "string",
          "name": "name",
          "type": "string"
        },
        {
          "indexed": false,
          "internalType": "address",
          "name": "target",
          "type": "address"
        }
      ],
      "name": "Set",
      "type": "event"
    },
    {
      "inputs": [],
      "name": "DEFAULT_ADMIN_ROLE",
      "outputs": [
        {
          "internalType": "bytes32",
          "name": "",
          "type": "bytes32"
        }
      ],
      "stateMutability": "view",
      "type": "function"
    },
    {
      "inputs": [
        {
          "internalType": "string",
          "name": "name",
          "type": "string"
        }
      ],
      "name": "get",
      "outputs": [
        {
          "internalType": "address",
          "name": "",
          "type": "address"
        }
      ],
      "stateMutability": "view",
      "type": "function"
    },
    {
      "inputs": [
        {
          "internalType": "bytes32",
          "name": "role",
          "type": "bytes32"
        }
      ],
      "name": "getRoleAdmin",
      "outputs": [
        {
          "internalType": "bytes32",
          "name": "",
          "type": "bytes32"
        }
      ],
      "stateMutability": "view",
      "type": "function"
    },
    {
      "inputs": [
        {
          "internalType": "bytes32",
          "name": "role",
          "type": "bytes32"
        },
        {
          "internalType": "uint256",
          "name": "index",
          "type": "uint256"
        }
      ],
      "name": "getRoleMember",
      "outputs": [
        {
          "internalType": "address",
          "name": "",
          "type": "address"
        }
      ],
      "stateMutability": "view",
      "type": "function"
    },
    {
      "inputs": [
        {
          "internalType": "bytes32",
          "name": "role",
          "type": "bytes32"
        }
      ],
      "name": "getRoleMemberCount",
      "outputs": [
        {
          "internalType": "uint256",
          "name": "",
          "type": "uint256"
        }
      ],
      "stateMutability": "view",
      "type": "function"
    },
    {
      "inputs": [
        {
          "internalType": "bytes32",
          "name": "role",
          "type": "bytes32"
        },
        {
          "internalType": "address",
          "name": "account",
          "type": "address"
        }
      ],
      "name": "grantRole",
      "outputs": [],
      "stateMutability": "nonpayable",
      "type": "function"
    },
    {
      "inputs": [
        {
          "internalType": "bytes32",
          "name": "role",
          "type": "bytes32"
        },
        {
          "internalType": "address",
          "name": "account",
          "type": "address"
        }
      ],
      "name": "hasRole",
      "outputs": [
        {
          "internalType": "bool",
          "name": "",
          "type": "bool"
        }
      ],
      "stateMutability": "view",
      "type": "function"
    },
    {
      "inputs": [
        {
          "internalType": "bytes32",
          "name": "role",
          "type": "bytes32"
        },
        {
          "internalType": "address",
          "name": "account",
          "type": "address"
        }
      ],
      "name": "renounceRole",
      "outputs": [],
      "stateMutability": "nonpayable",
      "type": "function"
    },
    {
      "inputs": [
        {
          "internalType": "bytes32",
          "name": "role",
          "type": "bytes32"
        },
        {
          "internalType": "address",
          "name": "account",
          "type": "address"
        }
      ],
      "name": "revokeRole",
      "outputs": [],
      "stateMutability": "nonpayable",
      "type": "function"
    },
    {
      "inputs": [
        {
          "internalType": "string",
          "name": "name",
          "type": "string"
        },
        {
          "internalType": "address",
          "name": "target",
          "type": "address"
        }
      ],
      "name": "set",
      "outputs": [],
      "stateMutability": "nonpayable",
      "type": "function"
    },
    {
      "inputs": [
        {
          "internalType": "bytes4",
          "name": "interfaceId",
          "type": "bytes4"
        }
      ],
      "name": "supportsInterface",
      "outputs": [
        {
          "internalType": "bool",
          "name": "",
          "type": "bool"
        }
      ],
      "stateMutability": "view",
      "type": "function"
    }
  ],
  "bytecode": {
    "object": "0x608060405234801561001057600080fd5b5061001c600033610021565b610161565b61002b828261002f565b5050565b6100398282610056565b600082815260016020526040902061005190826100f4565b505050565b6000828152602081815260408083206001600160a01b038516845290915290205460ff1661002b576000828152602081815260408083206001600160a01b03851684529091529020805460ff191660011790556100b03390565b6001600160a01b0316816001600160a01b0316837f2f8788117e7eff1d82e926ec794901d17c78024a50270940304540a733656f0d60405160405180910390a45050565b6000610109836001600160a01b038416610112565b90505b92915050565b60008181526001830160205260408120546101595750815460018181018455600084815260208082209093018490558454848252828601909352604090209190915561010c565b50600061010c565b610c84806101706000396000f3fe608060405234801561001057600080fd5b50600436106100995760003560e01c806301ffc9a71461009e578063248a9ca3146100c65780632f2ff15d146100e757806336568abe146100fc578063693ec85e1461010f5780639010d07c1461012f57806391d1485414610142578063a217fddf14610155578063a815ff151461015d578063ca15c87314610170578063d547741f14610183575b600080fd5b6100b16100ac36600461092f565b610196565b60405190151581526020015b60405180910390f35b6100d96100d4366004610959565b6101c1565b6040519081526020016100bd565b6100fa6100f536600461098e565b6101d6565b005b6100fa61010a36600461098e565b6101f7565b61012261011d366004610a02565b61027a565b6040516100bd9190610a43565b61012261013d366004610a57565b6102af565b6100b161015036600461098e565b6102ce565b6100d9600081565b6100fa61016b366004610a79565b6102f7565b6100d961017e366004610959565b6103db565b6100fa61019136600461098e565b6103f2565b60006001600160e01b03198216635a05180f60e01b14806101bb57506101bb8261040e565b92915050565b60009081526020819052604090206001015490565b6101df826101c1565b6101e881610443565b6101f28383610450565b505050565b6001600160a01b038116331461026c5760405162461bcd60e51b815260206004820152602f60248201527f416363657373436f6e74726f6c3a2063616e206f6e6c792072656e6f756e636560448201526e103937b632b9903337b91039b2b63360891b60648201526084015b60405180910390fd5b6102768282610472565b5050565b60006002838360405161028e929190610acc565b908152604051908190036020019020546001600160a01b0316905092915050565b60008281526001602052604081206102c79083610494565b9392505050565b6000918252602082815260408084206001600160a01b0393909316845291905290205460ff1690565b6103026000336102ce565b6103475760405162461bcd60e51b815260206004820152601660248201527521b0b63632b91034b9903737ba1030b71030b236b4b760511b6044820152606401610263565b806002848460405161035a929190610acc565b90815260405190819003602001812080546001600160a01b03939093166001600160a01b0319909316929092179091556103979084908490610acc565b60405180910390207f496595ced95720268cf8bc60bae3f35024ff2a130f73ac4e20f5c1eaca35db99826040516103ce9190610a43565b60405180910390a2505050565b60008181526001602052604081206101bb906104a0565b6103fb826101c1565b61040481610443565b6101f28383610472565b60006001600160e01b03198216637965db0b60e01b14806101bb57506301ffc9a760e01b6001600160e01b03198316146101bb565b61044d81336104aa565b50565b61045a8282610503565b60008281526001602052604090206101f29082610587565b61047c828261059c565b60008281526001602052604090206101f29082610601565b60006102c78383610616565b60006101bb825490565b6104b482826102ce565b610276576104c181610640565b6104cc836020610652565b6040516020016104dd929190610b00565b60408051601f198184030181529082905262461bcd60e51b825261026391600401610b6f565b61050d82826102ce565b610276576000828152602081815260408083206001600160a01b03851684529091529020805460ff191660011790556105433390565b6001600160a01b0316816001600160a01b0316837f2f8788117e7eff1d82e926ec794901d17c78024a50270940304540a733656f0d60405160405180910390a45050565b60006102c7836001600160a01b0384166107ed565b6105a682826102ce565b15610276576000828152602081815260408083206001600160a01b0385168085529252808320805460ff1916905551339285917ff6391f5c32d9c69d2a47ea670b442974b53935d1edc7fd64eb21e047a839171b9190a45050565b60006102c7836001600160a01b03841661083c565b600082600001828154811061062d5761062d610ba2565b9060005260206000200154905092915050565b60606101bb6001600160a01b03831660145b60606000610661836002610bce565b61066c906002610be5565b6001600160401b0381111561068357610683610bf8565b6040519080825280601f01601f1916602001820160405280156106ad576020820181803683370190505b509050600360fc1b816000815181106106c8576106c8610ba2565b60200101906001600160f81b031916908160001a905350600f60fb1b816001815181106106f7576106f7610ba2565b60200101906001600160f81b031916908160001a905350600061071b846002610bce565b610726906001610be5565b90505b600181111561079e576f181899199a1a9b1b9c1cb0b131b232b360811b85600f166010811061075a5761075a610ba2565b1a60f81b82828151811061077057610770610ba2565b60200101906001600160f81b031916908160001a90535060049490941c9361079781610c0e565b9050610729565b5083156102c75760405162461bcd60e51b815260206004820181905260248201527f537472696e67733a20686578206c656e67746820696e73756666696369656e746044820152606401610263565b6000818152600183016020526040812054610834575081546001818101845560008481526020808220909301849055845484825282860190935260409020919091556101bb565b5060006101bb565b60008181526001830160205260408120548015610925576000610860600183610c25565b855490915060009061087490600190610c25565b90508181146108d957600086600001828154811061089457610894610ba2565b90600052602060002001549050808760000184815481106108b7576108b7610ba2565b6000918252602080832090910192909255918252600188019052604090208390555b85548690806108ea576108ea610c38565b6001900381819060005260206000200160009055905585600101600086815260200190815260200160002060009055600193505050506101bb565b60009150506101bb565b60006020828403121561094157600080fd5b81356001600160e01b0319811681146102c757600080fd5b60006020828403121561096b57600080fd5b5035919050565b80356001600160a01b038116811461098957600080fd5b919050565b600080604083850312156109a157600080fd5b823591506109b160208401610972565b90509250929050565b60008083601f8401126109cc57600080fd5b5081356001600160401b038111156109e357600080fd5b6020830191508360208285010111156109fb57600080fd5b9250929050565b60008060208385031215610a1557600080fd5b82356001600160401b03811115610a2b57600080fd5b610a37858286016109ba565b90969095509350505050565b6001600160a01b0391909116815260200190565b60008060408385031215610a6a57600080fd5b50508035926020909101359150565b600080600060408486031215610a8e57600080fd5b83356001600160401b03811115610aa457600080fd5b610ab0868287016109ba565b9094509250610ac3905060208501610972565b90509250925092565b8183823760009101908152919050565b60005b83811015610af7578181015183820152602001610adf565b50506000910152565b76020b1b1b2b9b9a1b7b73a3937b61d1030b1b1b7bab73a1604d1b815260008351610b32816017850160208801610adc565b7001034b99036b4b9b9b4b733903937b6329607d1b6017918401918201528351610b63816028840160208801610adc565b01602801949350505050565b6020815260008251806020840152610b8e816040850160208701610adc565b601f01601f19169190910160400192915050565b634e487b7160e01b600052603260045260246000fd5b634e487b7160e01b600052601160045260246000fd5b80820281158282048414176101bb576101bb610bb8565b808201808211156101bb576101bb610bb8565b634e487b7160e01b600052604160045260246000fd5b600081610c1d57610c1d610bb8565b506000190190565b818103818111156101bb576101bb610bb8565b634e487b7160e01b600052603160045260246000fdfea26469706673582212208318633b65725e588c7076e8dc68e28aa6abd51649847e3d367124f565f689ed64736f6c63430008130033",
    "linkReferences": {}
  },
  "methodIdentifiers": {
    "DEFAULT_ADMIN_ROLE()": "a217fddf",
    "get(string)": "693ec85e",
    "getRoleAdmin(bytes32)": "248a9ca3",
    "getRoleMember(bytes32,uint256)": "9010d07c",
    "getRoleMemberCount(bytes32)": "ca15c873",
    "grantRole(bytes32,address)": "2f2ff15d",
    "hasRole(bytes32,address)": "91d14854",
    "renounceRole(bytes32,address)": "36568abe",
    "revokeRole(bytes32,address)": "d547741f",
    "set(string,address)": "a815ff15",
    "supportsInterface(bytes4)": "01ffc9a7"
  },
  "id": 102
}