{
  "abi": [
    {
      "inputs": [
        {
          "internalType": "address",
          "name": "_additionalAdmin",
          "type": "address"
        }
      ],
      "stateMutability": "nonpayable",
      "type": "constructor"
    },
    {
      "anonymous": false,
      "inputs": [
        {
          "indexed": true,
          "internalType": "bytes32",
          "name": "role",
          "type": "bytes32"
        },
        {
          "indexed": true,
          "internalType": "bytes32",
          "name": "previousAdminRole",
          "type": "bytes32"
        },
        {
          "indexed": true,
          "internalType": "bytes32",
          "name": "newAdminRole",
          "type": "bytes32"
        }
      ],
      "name": "RoleAdminChanged",
      "type": "event"
    },
    {
      "anonymous": false,
      "inputs": [
        {
          "indexed": true,
          "internalType": "bytes32",
          "name": "role",
          "type": "bytes32"
        },
        {
          "indexed": true,
          "internalType": "address",
          "name": "account",
          "type": "address"
        },
        {
          "indexed": true,
          "internalType": "address",
          "name": "sender",
          "type": "address"
        }
      ],
      "name": "RoleGranted",
      "type": "event"
    },
    {
      "anonymous": false,
      "inputs": [
        {
          "indexed": true,
          "internalType": "bytes32",
          "name": "role",
          "type": "bytes32"
        },
        {
          "indexed": true,
          "internalType": "address",
          "name": "account",
          "type": "address"
        },
        {
          "indexed": true,
          "internalType": "address",
          "name": "sender",
          "type": "address"
        }
      ],
      "name": "RoleRevoked",
      "type": "event"
    },
    {
      "anonymous": false,
      "inputs": [
        {
          "indexed": true,
          "internalType": "string",
          "name": "name",
          "type": "string"
        },
        {
          "indexed": false,
          "internalType": "address",
          "name": "target",
          "type": "address"
        }
      ],
      "name": "Set",
      "type": "event"
    },
    {
      "inputs": [],
      "name": "DEFAULT_ADMIN_ROLE",
      "outputs": [
        {
          "internalType": "bytes32",
          "name": "",
          "type": "bytes32"
        }
      ],
      "stateMutability": "view",
      "type": "function"
    },
    {
      "inputs": [
        {
          "internalType": "address",
          "name": "_additionalAdmin",
          "type": "address"
        }
      ],
      "name": "addAdmin",
      "outputs": [],
      "stateMutability": "nonpayable",
      "type": "function"
    },
    {
      "inputs": [
        {
          "internalType": "string",
          "name": "name",
          "type": "string"
        }
      ],
      "name": "get",
      "outputs": [
        {
          "internalType": "address",
          "name": "",
          "type": "address"
        }
      ],
      "stateMutability": "view",
      "type": "function"
    },
    {
      "inputs": [
        {
          "internalType": "bytes32",
          "name": "role",
          "type": "bytes32"
        }
      ],
      "name": "getRoleAdmin",
      "outputs": [
        {
          "internalType": "bytes32",
          "name": "",
          "type": "bytes32"
        }
      ],
      "stateMutability": "view",
      "type": "function"
    },
    {
      "inputs": [
        {
          "internalType": "bytes32",
          "name": "role",
          "type": "bytes32"
        },
        {
          "internalType": "uint256",
          "name": "index",
          "type": "uint256"
        }
      ],
      "name": "getRoleMember",
      "outputs": [
        {
          "internalType": "address",
          "name": "",
          "type": "address"
        }
      ],
      "stateMutability": "view",
      "type": "function"
    },
    {
      "inputs": [
        {
          "internalType": "bytes32",
          "name": "role",
          "type": "bytes32"
        }
      ],
      "name": "getRoleMemberCount",
      "outputs": [
        {
          "internalType": "uint256",
          "name": "",
          "type": "uint256"
        }
      ],
      "stateMutability": "view",
      "type": "function"
    },
    {
      "inputs": [
        {
          "internalType": "bytes32",
          "name": "role",
          "type": "bytes32"
        },
        {
          "internalType": "address",
          "name": "account",
          "type": "address"
        }
      ],
      "name": "grantRole",
      "outputs": [],
      "stateMutability": "nonpayable",
      "type": "function"
    },
    {
      "inputs": [
        {
          "internalType": "bytes32",
          "name": "role",
          "type": "bytes32"
        },
        {
          "internalType": "address",
          "name": "account",
          "type": "address"
        }
      ],
      "name": "hasRole",
      "outputs": [
        {
          "internalType": "bool",
          "name": "",
          "type": "bool"
        }
      ],
      "stateMutability": "view",
      "type": "function"
    },
    {
      "inputs": [
        {
          "internalType": "bytes32",
          "name": "role",
          "type": "bytes32"
        },
        {
          "internalType": "address",
          "name": "account",
          "type": "address"
        }
      ],
      "name": "renounceRole",
      "outputs": [],
      "stateMutability": "nonpayable",
      "type": "function"
    },
    {
      "inputs": [
        {
          "internalType": "bytes32",
          "name": "role",
          "type": "bytes32"
        },
        {
          "internalType": "address",
          "name": "account",
          "type": "address"
        }
      ],
      "name": "revokeRole",
      "outputs": [],
      "stateMutability": "nonpayable",
      "type": "function"
    },
    {
      "inputs": [
        {
          "internalType": "string",
          "name": "name",
          "type": "string"
        },
        {
          "internalType": "address",
          "name": "target",
          "type": "address"
        }
      ],
      "name": "set",
      "outputs": [],
      "stateMutability": "nonpayable",
      "type": "function"
    },
    {
      "inputs": [
        {
          "internalType": "bytes4",
          "name": "interfaceId",
          "type": "bytes4"
        }
      ],
      "name": "supportsInterface",
      "outputs": [
        {
          "internalType": "bool",
          "name": "",
          "type": "bool"
        }
      ],
      "stateMutability": "view",
      "type": "function"
    }
  ],
  "bytecode": {
    "object": "0x60806040523480156200001157600080fd5b5060405162000eb638038062000eb68339810160408190526200003491620001a2565b6200004160003362000055565b6200004e60008262000055565b50620001d4565b62000061828262000065565b5050565b62000071828262000090565b60008281526001602052604090206200008b908262000130565b505050565b6000828152602081815260408083206001600160a01b038516845290915290205460ff1662000061576000828152602081815260408083206001600160a01b03851684529091529020805460ff19166001179055620000ec3390565b6001600160a01b0316816001600160a01b0316837f2f8788117e7eff1d82e926ec794901d17c78024a50270940304540a733656f0d60405160405180910390a45050565b600062000147836001600160a01b03841662000150565b90505b92915050565b600081815260018301602052604081205462000199575081546001818101845560008481526020808220909301849055845484825282860190935260409020919091556200014a565b5060006200014a565b600060208284031215620001b557600080fd5b81516001600160a01b0381168114620001cd57600080fd5b9392505050565b610cd280620001e46000396000f3fe608060405234801561001057600080fd5b50600436106100a45760003560e01c806301ffc9a7146100a9578063248a9ca3146100d15780632f2ff15d146100f257806336568abe14610107578063693ec85e1461011a578063704802751461013a5780639010d07c1461014d57806391d1485414610160578063a217fddf14610173578063a815ff151461017b578063ca15c8731461018e578063d547741f146101a1575b600080fd5b6100bc6100b7366004610962565b6101b4565b60405190151581526020015b60405180910390f35b6100e46100df36600461098c565b6101df565b6040519081526020016100c8565b6101056101003660046109c1565b6101f4565b005b6101056101153660046109c1565b610215565b61012d610128366004610a35565b610298565b6040516100c89190610a76565b610105610148366004610a8a565b6102cd565b61012d61015b366004610aa5565b6102db565b6100bc61016e3660046109c1565b6102fa565b6100e4600081565b610105610189366004610ac7565b610323565b6100e461019c36600461098c565b610407565b6101056101af3660046109c1565b61041e565b60006001600160e01b03198216635a05180f60e01b14806101d957506101d98261043a565b92915050565b60009081526020819052604090206001015490565b6101fd826101df565b6102068161046f565b6102108383610479565b505050565b6001600160a01b038116331461028a5760405162461bcd60e51b815260206004820152602f60248201527f416363657373436f6e74726f6c3a2063616e206f6e6c792072656e6f756e636560448201526e103937b632b9903337b91039b2b63360891b60648201526084015b60405180910390fd5b610294828261049b565b5050565b6000600283836040516102ac929190610b1a565b908152604051908190036020019020546001600160a01b0316905092915050565b6102d86000826104bd565b50565b60008281526001602052604081206102f390836104c7565b9392505050565b6000918252602082815260408084206001600160a01b0393909316845291905290205460ff1690565b61032e6000336102fa565b6103735760405162461bcd60e51b815260206004820152601660248201527521b0b63632b91034b9903737ba1030b71030b236b4b760511b6044820152606401610281565b8060028484604051610386929190610b1a565b90815260405190819003602001812080546001600160a01b03939093166001600160a01b0319909316929092179091556103c39084908490610b1a565b60405180910390207f496595ced95720268cf8bc60bae3f35024ff2a130f73ac4e20f5c1eaca35db99826040516103fa9190610a76565b60405180910390a2505050565b60008181526001602052604081206101d9906104d3565b610427826101df565b6104308161046f565b610210838361049b565b60006001600160e01b03198216637965db0b60e01b14806101d957506301ffc9a760e01b6001600160e01b03198316146101d9565b6102d881336104dd565b6104838282610536565b600082815260016020526040902061021090826105ba565b6104a582826105cf565b60008281526001602052604090206102109082610634565b6102948282610479565b60006102f38383610649565b60006101d9825490565b6104e782826102fa565b610294576104f481610673565b6104ff836020610685565b604051602001610510929190610b4e565b60408051601f198184030181529082905262461bcd60e51b825261028191600401610bbd565b61054082826102fa565b610294576000828152602081815260408083206001600160a01b03851684529091529020805460ff191660011790556105763390565b6001600160a01b0316816001600160a01b0316837f2f8788117e7eff1d82e926ec794901d17c78024a50270940304540a733656f0d60405160405180910390a45050565b60006102f3836001600160a01b038416610820565b6105d982826102fa565b15610294576000828152602081815260408083206001600160a01b0385168085529252808320805460ff1916905551339285917ff6391f5c32d9c69d2a47ea670b442974b53935d1edc7fd64eb21e047a839171b9190a45050565b60006102f3836001600160a01b03841661086f565b600082600001828154811061066057610660610bf0565b9060005260206000200154905092915050565b60606101d96001600160a01b03831660145b60606000610694836002610c1c565b61069f906002610c33565b6001600160401b038111156106b6576106b6610c46565b6040519080825280601f01601f1916602001820160405280156106e0576020820181803683370190505b509050600360fc1b816000815181106106fb576106fb610bf0565b60200101906001600160f81b031916908160001a905350600f60fb1b8160018151811061072a5761072a610bf0565b60200101906001600160f81b031916908160001a905350600061074e846002610c1c565b610759906001610c33565b90505b60018111156107d1576f181899199a1a9b1b9c1cb0b131b232b360811b85600f166010811061078d5761078d610bf0565b1a60f81b8282815181106107a3576107a3610bf0565b60200101906001600160f81b031916908160001a90535060049490941c936107ca81610c5c565b905061075c565b5083156102f35760405162461bcd60e51b815260206004820181905260248201527f537472696e67733a20686578206c656e67746820696e73756666696369656e746044820152606401610281565b6000818152600183016020526040812054610867575081546001818101845560008481526020808220909301849055845484825282860190935260409020919091556101d9565b5060006101d9565b60008181526001830160205260408120548015610958576000610893600183610c73565b85549091506000906108a790600190610c73565b905081811461090c5760008660000182815481106108c7576108c7610bf0565b90600052602060002001549050808760000184815481106108ea576108ea610bf0565b6000918252602080832090910192909255918252600188019052604090208390555b855486908061091d5761091d610c86565b6001900381819060005260206000200160009055905585600101600086815260200190815260200160002060009055600193505050506101d9565b60009150506101d9565b60006020828403121561097457600080fd5b81356001600160e01b0319811681146102f357600080fd5b60006020828403121561099e57600080fd5b5035919050565b80356001600160a01b03811681146109bc57600080fd5b919050565b600080604083850312156109d457600080fd5b823591506109e4602084016109a5565b90509250929050565b60008083601f8401126109ff57600080fd5b5081356001600160401b03811115610a1657600080fd5b602083019150836020828501011115610a2e57600080fd5b9250929050565b60008060208385031215610a4857600080fd5b82356001600160401b03811115610a5e57600080fd5b610a6a858286016109ed565b90969095509350505050565b6001600160a01b0391909116815260200190565b600060208284031215610a9c57600080fd5b6102f3826109a5565b60008060408385031215610ab857600080fd5b50508035926020909101359150565b600080600060408486031215610adc57600080fd5b83356001600160401b03811115610af257600080fd5b610afe868287016109ed565b9094509250610b119050602085016109a5565b90509250925092565b8183823760009101908152919050565b60005b83811015610b45578181015183820152602001610b2d565b50506000910152565b76020b1b1b2b9b9a1b7b73a3937b61d1030b1b1b7bab73a1604d1b815260008351610b80816017850160208801610b2a565b7001034b99036b4b9b9b4b733903937b6329607d1b6017918401918201528351610bb1816028840160208801610b2a565b01602801949350505050565b6020815260008251806020840152610bdc816040850160208701610b2a565b601f01601f19169190910160400192915050565b634e487b7160e01b600052603260045260246000fd5b634e487b7160e01b600052601160045260246000fd5b80820281158282048414176101d9576101d9610c06565b808201808211156101d9576101d9610c06565b634e487b7160e01b600052604160045260246000fd5b600081610c6b57610c6b610c06565b506000190190565b818103818111156101d9576101d9610c06565b634e487b7160e01b600052603160045260246000fdfea2646970667358221220505beeb6f7d074c29badd34dc316a14d52633a1f6629b8448804d5d37577488664736f6c63430008130033",
    "linkReferences": {}
  },
  "methodIdentifiers": {
    "DEFAULT_ADMIN_ROLE()": "a217fddf",
    "addAdmin(address)": "70480275",
    "get(string)": "693ec85e",
    "getRoleAdmin(bytes32)": "248a9ca3",
    "getRoleMember(bytes32,uint256)": "9010d07c",
    "getRoleMemberCount(bytes32)": "ca15c873",
    "grantRole(bytes32,address)": "2f2ff15d",
    "hasRole(bytes32,address)": "91d14854",
    "renounceRole(bytes32,address)": "36568abe",
    "revokeRole(bytes32,address)": "d547741f",
    "set(string,address)": "a815ff15",
    "supportsInterface(bytes4)": "01ffc9a7"
  },
  "id": 108
}