{
  "abi": [
    {
      "inputs": [
        {
          "internalType": "contract ISuperfluid",
          "name": "host_",
          "type": "address"
        },
        {
          "internalType": "uint256",
          "name": "minBondDuration_",
          "type": "uint256"
        }
      ],
      "stateMutability": "nonpayable",
      "type": "constructor"
    },
    {
      "anonymous": false,
      "inputs": [
        {
          "indexed": true,
          "internalType": "contract ISuperToken",
          "name": "token",
          "type": "address"
        },
        {
          "indexed": false,
          "internalType": "uint256",
          "name": "additionalBond",
          "type": "uint256"
        }
      ],
      "name": "BondIncreased",
      "type": "event"
    },
    {
      "anonymous": false,
      "inputs": [
        {
          "indexed": true,
          "internalType": "contract ISuperToken",
          "name": "token",
          "type": "address"
        },
        {
          "indexed": false,
          "internalType": "int96",
          "name": "exitRate",
          "type": "int96"
        }
      ],
      "name": "ExitRateChanged",
      "type": "event"
    },
    {
      "anonymous": false,
      "inputs": [
        {
          "indexed": true,
          "internalType": "contract ISuperToken",
          "name": "token",
          "type": "address"
        },
        {
          "indexed": false,
          "internalType": "address",
          "name": "pic",
          "type": "address"
        },
        {
          "indexed": false,
          "internalType": "uint256",
          "name": "bond",
          "type": "uint256"
        },
        {
          "indexed": false,
          "internalType": "int96",
          "name": "exitRate",
          "type": "int96"
        }
      ],
      "name": "NewPIC",
      "type": "event"
    },
    {
      "inputs": [
        {
          "internalType": "contract ISuperToken",
          "name": "token",
          "type": "address"
        },
        {
          "internalType": "int96",
          "name": "newExitRate",
          "type": "int96"
        }
      ],
      "name": "changeExitRate",
      "outputs": [],
      "stateMutability": "nonpayable",
      "type": "function"
    },
    {
      "inputs": [
        {
          "internalType": "contract ISuperToken",
          "name": "token",
          "type": "address"
        }
      ],
      "name": "getCurrentPIC",
      "outputs": [
        {
          "internalType": "address",
          "name": "pic",
          "type": "address"
        }
      ],
      "stateMutability": "view",
      "type": "function"
    },
    {
      "inputs": [
        {
          "internalType": "contract ISuperToken",
          "name": "token",
          "type": "address"
        }
      ],
      "name": "getCurrentPICInfo",
      "outputs": [
        {
          "internalType": "address",
          "name": "pic",
          "type": "address"
        },
        {
          "internalType": "uint256",
          "name": "bond",
          "type": "uint256"
        },
        {
          "internalType": "int96",
          "name": "exitRate",
          "type": "int96"
        }
      ],
      "stateMutability": "view",
      "type": "function"
    },
    {
      "inputs": [
        {
          "internalType": "contract ISuperToken",
          "name": "",
          "type": "address"
        },
        {
          "internalType": "uint256",
          "name": "bondAmount",
          "type": "uint256"
        }
      ],
      "name": "getDefaultExitRateFor",
      "outputs": [
        {
          "internalType": "int96",
          "name": "exitRate",
          "type": "int96"
        }
      ],
      "stateMutability": "view",
      "type": "function"
    },
    {
      "inputs": [
        {
          "internalType": "contract ISuperToken",
          "name": "",
          "type": "address"
        },
        {
          "internalType": "uint256",
          "name": "bondAmount",
          "type": "uint256"
        }
      ],
      "name": "getMaxExitRateFor",
      "outputs": [
        {
          "internalType": "int96",
          "name": "exitRate",
          "type": "int96"
        }
      ],
      "stateMutability": "view",
      "type": "function"
    },
    {
      "inputs": [],
      "name": "minBondDuration",
      "outputs": [
        {
          "internalType": "uint256",
          "name": "",
          "type": "uint256"
        }
      ],
      "stateMutability": "view",
      "type": "function"
    },
    {
      "inputs": [
        {
          "internalType": "address",
          "name": "",
          "type": "address"
        },
        {
          "internalType": "address",
          "name": "from",
          "type": "address"
        },
        {
          "internalType": "address",
          "name": "",
          "type": "address"
        },
        {
          "internalType": "uint256",
          "name": "amount",
          "type": "uint256"
        },
        {
          "internalType": "bytes",
          "name": "userData",
          "type": "bytes"
        },
        {
          "internalType": "bytes",
          "name": "",
          "type": "bytes"
        }
      ],
      "name": "tokensReceived",
      "outputs": [],
      "stateMutability": "nonpayable",
      "type": "function"
    }
  ],
  "bytecode": {
    "object": "0x60e06040523480156200001157600080fd5b5060405162001826380380620018268339810160408190526200003491620002ab565b6001600160a01b038216608081905260c0829052604051635b69006f60e11b81527fa9214cc96615e0085d3bb077758db69497dc2dce3b2b1e97bc93c3d18d83efd3600482015263b6d200de90602401602060405180830381865afa158015620000a2573d6000803e3d6000fd5b505050506040513d601f19601f82011682018060405250810190620000c89190620002dc565b6001600160a01b031660a0526040516329965a1d60e01b81527fb281fc8c12954d22544db45de3159a39272895b169a852b314f9cc762e44c53b90731820a4b7618bde71dce8cdc73aab6c95905fad24906329965a1d90620001339030908590829060040162000303565b600060405180830381600087803b1580156200014e57600080fd5b505af115801562000163573d6000803e3d6000fd5b50506040516329965a1d60e01b8152731820a4b7618bde71dce8cdc73aab6c95905fad2492506329965a1d9150620001c49030907fece6fc2bcfc93e4c34c28aeaa114be1a6161decb8268f79cbe7c3c7f31b1e8c690829060040162000303565b600060405180830381600087803b158015620001df57600080fd5b505af1158015620001f4573d6000803e3d6000fd5b50506040516329965a1d60e01b8152731820a4b7618bde71dce8cdc73aab6c95905fad2492506329965a1d9150620002559030907fca6323f8f0faf3d4f41f2397ee46c8d85bed576d54aadeb20b6cf7b45b3a696490829060040162000303565b600060405180830381600087803b1580156200027057600080fd5b505af115801562000285573d6000803e3d6000fd5b5050505050505062000326565b6001600160a01b0381168114620002a857600080fd5b50565b60008060408385031215620002bf57600080fd5b8251620002cc8162000292565b6020939093015192949293505050565b600060208284031215620002ef57600080fd5b8151620002fc8162000292565b9392505050565b6001600160a01b0393841681526020810192909252909116604082015260600190565b60805160a05160c051611467620003bf60003960008181610102015281816102a9015281816106db0152818161072b01526108ca01526000818161030a015281816103d801528181610528015281816105b70152818161077f015281816109ab01528181610a790152610c490152600081816103ae015281816104fe0152818161058d01528181610a4f0152610c1f01526114676000f3fe608060405234801561001057600080fd5b506004361061006c5760003560e01c806223de291461007157806302f3c6c51461008657806316e23b9f1461009957806336291063146100c457806360dfa695146100fd578063b8a1403314610132578063bf8903dd14610145575b600080fd5b61008461007f366004610f10565b610167565b005b610084610094366004610fcf565b61020f565b6100ac6100a7366004611008565b6106ce565b604051600b9190910b81526020015b60405180910390f35b6100f06100d2366004611034565b6001600160a01b039081166000908152602081905260409020541690565b6040516100bb9190611058565b6101247f000000000000000000000000000000000000000000000000000000000000000081565b6040519081526020016100bb565b6100ac610140366004611008565b61071e565b610158610153366004611034565b610750565b6040516100bb9392919061106c565b336000818152602081905260409020546001600160a01b038981169116146101c057600084156101a25761019d85870187611090565b6101ac565b6101ac82886106ce565b90506101ba828a8984610831565b50610204565b806001600160a01b03167fb9c1b85a7ee70d95c61aca7cda03ef957abc5265a191ca74cc335faf59409566876040516101fb91815260200190565b60405180910390a25b505050505050505050565b6001600160a01b03808316600090815260208190526040902054163381146102775760405162461bcd60e51b81526020600482015260166024820152751513d1d04e881bdb9b1e48141250c8185b1b1bddd95960521b60448201526064015b60405180910390fd5b600082600b0b121561029b5760405162461bcd60e51b815260040161026e906110ad565b6102a483610d80565b6102d27f0000000000000000000000000000000000000000000000000000000000000000600b85900b611106565b11156102f05760405162461bcd60e51b815260040161026e9061111d565b604051631cd43d1160e31b81526000906001600160a01b037f0000000000000000000000000000000000000000000000000000000000000000169063e6a1e888906103439087903090879060040161114e565b608060405180830381865afa158015610360573d6000803e3d6000fd5b505050506040513d601f19601f820116820180604052508101906103849190611171565b5050915050600081600b0b13801561039f5750600083600b0b135b156104d9576001600160a01b037f00000000000000000000000000000000000000000000000000000000000000008116906339255d5b907f00000000000000000000000000000000000000000000000000000000000000009081166350209a6288878960005b6040519080825280601f01601f19166020018201604052801561042f576020820181803683370190505b506040516024016104439493929190611215565b60408051808303601f1901815291815260208201805160e094851b6001600160e01b03909116179052519185901b6001600160e01b031916825261048c93925090600401611255565b6000604051808303816000875af11580156104ab573d6000803e3d6000fd5b505050506040513d6000823e601f3d908101601f191682016040526104d3919081019061129c565b50610686565b80600b0b60001480156104ef5750600083600b0b135b15610559576001600160a01b037f00000000000000000000000000000000000000000000000000000000000000008116906339255d5b907f00000000000000000000000000000000000000000000000000000000000000009081166362fc305e8887896000610405565b600081600b0b13801561056f575082600b0b6000145b15610686576040805160008152602081019091526001600160a01b037f00000000000000000000000000000000000000000000000000000000000000008116916339255d5b917f0000000000000000000000000000000000000000000000000000000000000000919082169063b4b333c6906105f4908a9030908a9060448101611348565b60408051808303601f1901815291815260208201805160e094851b6001600160e01b03909116179052519185901b6001600160e01b031916825261063d93925090600401611255565b6000604051808303816000875af115801561065c573d6000803e3d6000fd5b505050506040513d6000823e601f3d908101601f19168201604052610684919081019061129c565b505b604051600b84900b81526001600160a01b038516907f0988aefa675e81e1db7fca08264db5dc2a1cc2a604f2a78d902a9747146a56719060200160405180910390a250505050565b60006107156107106107017f00000000000000000000000000000000000000000000000000000000000000006004611106565b61070b908561137c565b610e24565b610e92565b90505b92915050565b600061071561071061070b7f00000000000000000000000000000000000000000000000000000000000000008561137c565b6001600160a01b03818116600090815260208190526040808220549051631cd43d1160e31b81529192839283927f000000000000000000000000000000000000000000000000000000000000000083169263e6a1e888926107ba928992309291169060040161114e565b608060405180830381865afa1580156107d7573d6000803e3d6000fd5b505050506040513d601f19601f820116820180604052508101906107fb9190611171565b50506001600160a01b0380871660009081526020819052604090205491935016905061082685610d80565b925092509193909250565b6001600160a01b038416600090815260208190526040902054600160a01b900460ff16156108a05760405162461bcd60e51b815260206004820152601c60248201527b1513d1d04e881c99595b9d1c985b98de481b9bdd08185b1b1bddd95960221b604482015260640161026e565b600081600b0b12156108c45760405162461bcd60e51b815260040161026e906110ad565b816108f37f0000000000000000000000000000000000000000000000000000000000000000600b84900b611106565b11156109115760405162461bcd60e51b815260040161026e9061111d565b60008261091d86610d80565b610927919061139e565b905080831161096c5760405162461bcd60e51b8152602060048201526011602482015270544f47413a2062696420746f6f206c6f7760781b604482015260640161026e565b6001600160a01b03808616600090815260208190526040808220805460ff60a01b198116600160a01b179091559051631cd43d1160e31b8152908316927f0000000000000000000000000000000000000000000000000000000000000000169063e6a1e888906109e4908a903090879060040161114e565b608060405180830381865afa158015610a01573d6000803e3d6000fd5b505050506040513d601f19601f82011682018060405250810190610a259190611171565b5050915050600081600b0b1315610b48576040805160008152602081019091526001600160a01b037f00000000000000000000000000000000000000000000000000000000000000008116916339255d5b917f0000000000000000000000000000000000000000000000000000000000000000919082169063b4b333c690610ab6908d9030908a9060448101611348565b60408051808303601f1901815291815260208201805160e094851b6001600160e01b03909116179052519185901b6001600160e01b0319168252610aff93925090600401611255565b6000604051808303816000875af1158015610b1e573d6000803e3d6000fd5b505050506040513d6000823e601f3d908101601f19168201604052610b46919081019061129c565b505b6001600160a01b03821615610bcc5760405163a9059cbb60e01b81526001600160a01b0383811660048301526024820185905288169063a9059cbb906044016020604051808303816000875af1158015610ba6573d6000803e3d6000fd5b505050506040513d601f19601f82011682018060405250810190610bca91906113b1565b505b6001600160a01b03878116600090815260208190526040812080546001600160a01b03191692891692909217909155600b85900b1315610d18576040805160008152602081019091526001600160a01b037f00000000000000000000000000000000000000000000000000000000000000008116916339255d5b917f000000000000000000000000000000000000000000000000000000000000000091908216906362fc305e90610c86908d908d908c9060448101611215565b60408051808303601f1901815291815260208201805160e094851b6001600160e01b03909116179052519185901b6001600160e01b0319168252610ccf93925090600401611255565b6000604051808303816000875af1158015610cee573d6000803e3d6000fd5b505050506040513d6000823e601f3d908101601f19168201604052610d16919081019061129c565b505b6001600160a01b03871660008181526020819052604090819020805460ff60a01b19169055517f836808e57755d5535898b7203c7d68b1bfb2701b1943ecb133c675e0d007801590610d6f9089908990899061106c565b60405180910390a250505050505050565b6000806000836001600160a01b0316632ec8eec7306040518263ffffffff1660e01b8152600401610db19190611058565b608060405180830381865afa158015610dce573d6000803e3d6000fd5b505050506040513d601f19601f82011682018060405250810190610df291906113d3565b50509150915060008183610e069190611409565b13610e12576000610e1c565b610e1c8183611409565b949350505050565b60006001600160ff1b03821115610e8e5760405162461bcd60e51b815260206004820152602860248201527f53616665436173743a2076616c756520646f65736e27742066697420696e2061604482015267371034b73a191a9b60c11b606482015260840161026e565b5090565b600060016001605f1b038212610e8e5760016001605f1b0392915050565b6001600160a01b0381168114610ec557600080fd5b50565b60008083601f840112610eda57600080fd5b5081356001600160401b03811115610ef157600080fd5b602083019150836020828501011115610f0957600080fd5b9250929050565b60008060008060008060008060c0898b031215610f2c57600080fd5b8835610f3781610eb0565b97506020890135610f4781610eb0565b96506040890135610f5781610eb0565b95506060890135945060808901356001600160401b0380821115610f7a57600080fd5b610f868c838d01610ec8565b909650945060a08b0135915080821115610f9f57600080fd5b50610fac8b828c01610ec8565b999c989b5096995094979396929594505050565b80600b0b8114610ec557600080fd5b60008060408385031215610fe257600080fd5b8235610fed81610eb0565b91506020830135610ffd81610fc0565b809150509250929050565b6000806040838503121561101b57600080fd5b823561102681610eb0565b946020939093013593505050565b60006020828403121561104657600080fd5b813561105181610eb0565b9392505050565b6001600160a01b0391909116815260200190565b6001600160a01b039390931683526020830191909152600b0b604082015260600190565b6000602082840312156110a257600080fd5b813561105181610fc0565b60208082526023908201527f544f47413a206e65676174697665206578697452617465206e6f7420616c6c6f6040820152621dd95960ea1b606082015260800190565b634e487b7160e01b600052601160045260246000fd5b8082028115828204841417610718576107186110f0565b6020808252601790820152760a89e8e827440caf0d2e8a4c2e8ca40e8dede40d0d2ced604b1b604082015260600190565b6001600160a01b0393841681529183166020830152909116604082015260600190565b6000806000806080858703121561118757600080fd5b84519350602085015161119981610fc0565b6040860151606090960151949790965092505050565b634e487b7160e01b600052604160045260246000fd5b60005b838110156111e05781810151838201526020016111c8565b50506000910152565b600081518084526112018160208601602086016111c5565b601f01601f19169290920160200192915050565b6001600160a01b03858116825284166020820152600b83900b604082015260806060820181905260009061124b908301846111e9565b9695505050505050565b6001600160a01b0383168152606060208201819052600090611279908301846111e9565b8281036040938401526002815261060f60f31b6020820152919091019392505050565b6000602082840312156112ae57600080fd5b81516001600160401b03808211156112c557600080fd5b818401915084601f8301126112d957600080fd5b8151818111156112eb576112eb6111af565b604051601f8201601f19908116603f01168101908382118183101715611313576113136111af565b8160405282815287602084870101111561132c57600080fd5b61133d8360208301602088016111c5565b979650505050505050565b6001600160a01b03858116825284811660208301528316604082015260806060820181905260009061124b908301846111e9565b60008261139957634e487b7160e01b600052601260045260246000fd5b500490565b81810381811115610718576107186110f0565b6000602082840312156113c357600080fd5b8151801515811461105157600080fd5b600080600080608085870312156113e957600080fd5b505082516020840151604085015160609095015191969095509092509050565b8082018281126000831280158216821582161715611429576114296110f0565b50509291505056fea2646970667358221220bf8244753589dc1a3cf1f0d923a2b78efef961f153db8e3bcbec6f80b47b07bd64736f6c63430008130033",
    "linkReferences": {}
  },
  "methodIdentifiers": {
    "changeExitRate(address,int96)": "02f3c6c5",
    "getCurrentPIC(address)": "36291063",
    "getCurrentPICInfo(address)": "bf8903dd",
    "getDefaultExitRateFor(address,uint256)": "16e23b9f",
    "getMaxExitRateFor(address,uint256)": "b8a14033",
    "minBondDuration()": "60dfa695",
    "tokensReceived(address,address,address,uint256,bytes,bytes)": "0023de29"
  },
  "id": 106
}